{
  "_format": "hh-sol-artifact-1",
  "contractName": "Planets",
  "sourceName": "src/Planets.sol",
  "abi": [
    {
      "anonymous": false,
      "inputs": [
        {
          "indexed": true,
          "internalType": "address",
          "name": "owner",
          "type": "address"
        },
        {
          "indexed": true,
          "internalType": "address",
          "name": "approved",
          "type": "address"
        },
        {
          "indexed": true,
          "internalType": "uint256",
          "name": "tokenId",
          "type": "uint256"
        }
      ],
      "name": "Approval",
      "type": "event"
    },
    {
      "anonymous": false,
      "inputs": [
        {
          "indexed": true,
          "internalType": "address",
          "name": "owner",
          "type": "address"
        },
        {
          "indexed": true,
          "internalType": "address",
          "name": "operator",
          "type": "address"
        },
        {
          "indexed": false,
          "internalType": "bool",
          "name": "approved",
          "type": "bool"
        }
      ],
      "name": "ApprovalForAll",
      "type": "event"
    },
    {
      "anonymous": false,
      "inputs": [
        {
          "indexed": false,
          "internalType": "uint256",
          "name": "difficulty",
          "type": "uint256"
        }
      ],
      "name": "DifficultyChange",
      "type": "event"
    },
    {
      "anonymous": false,
      "inputs": [
        {
          "indexed": false,
          "internalType": "uint8",
          "name": "version",
          "type": "uint8"
        }
      ],
      "name": "Initialized",
      "type": "event"
    },
    {
      "anonymous": false,
      "inputs": [
        {
          "indexed": true,
          "internalType": "address",
          "name": "from",
          "type": "address"
        },
        {
          "indexed": false,
          "internalType": "uint256",
          "name": "rewardAmount",
          "type": "uint256"
        },
        {
          "indexed": false,
          "internalType": "uint256",
          "name": "epochCount",
          "type": "uint256"
        },
        {
          "indexed": false,
          "internalType": "bytes32",
          "name": "newChallengeNumber",
          "type": "bytes32"
        }
      ],
      "name": "Mint",
      "type": "event"
    },
    {
      "anonymous": false,
      "inputs": [
        {
          "indexed": true,
          "internalType": "address",
          "name": "from",
          "type": "address"
        },
        {
          "indexed": true,
          "internalType": "address",
          "name": "to",
          "type": "address"
        },
        {
          "indexed": true,
          "internalType": "uint256",
          "name": "tokenId",
          "type": "uint256"
        }
      ],
      "name": "Transfer",
      "type": "event"
    },
    {
      "inputs": [],
      "name": "BASE_REWARD",
      "outputs": [
        {
          "internalType": "uint256",
          "name": "",
          "type": "uint256"
        }
      ],
      "stateMutability": "view",
      "type": "function"
    },
    {
      "inputs": [],
      "name": "BLOCKS_PER_READJUSTMENT",
      "outputs": [
        {
          "internalType": "uint256",
          "name": "",
          "type": "uint256"
        }
      ],
      "stateMutability": "view",
      "type": "function"
    },
    {
      "inputs": [],
      "name": "MAXIMUM_TARGET_DIFFICULTY",
      "outputs": [
        {
          "internalType": "uint256",
          "name": "",
          "type": "uint256"
        }
      ],
      "stateMutability": "view",
      "type": "function"
    },
    {
      "inputs": [],
      "name": "MAX_ADJUSTMENT_PERCENT",
      "outputs": [
        {
          "internalType": "uint256",
          "name": "",
          "type": "uint256"
        }
      ],
      "stateMutability": "view",
      "type": "function"
    },
    {
      "inputs": [],
      "name": "MINIMUM_TARGET_DIFFICULTY",
      "outputs": [
        {
          "internalType": "uint256",
          "name": "",
          "type": "uint256"
        }
      ],
      "stateMutability": "view",
      "type": "function"
    },
    {
      "inputs": [],
      "name": "MINING_RATE_FACTOR",
      "outputs": [
        {
          "internalType": "uint256",
          "name": "",
          "type": "uint256"
        }
      ],
      "stateMutability": "view",
      "type": "function"
    },
    {
      "inputs": [],
      "name": "QUOTIENT_LIMIT",
      "outputs": [
        {
          "internalType": "uint256",
          "name": "",
          "type": "uint256"
        }
      ],
      "stateMutability": "view",
      "type": "function"
    },
    {
      "inputs": [],
      "name": "TARGET_DIVISOR",
      "outputs": [
        {
          "internalType": "uint256",
          "name": "",
          "type": "uint256"
        }
      ],
      "stateMutability": "view",
      "type": "function"
    },
    {
      "inputs": [
        {
          "internalType": "address",
          "name": "to",
          "type": "address"
        },
        {
          "internalType": "uint256",
          "name": "tokenId",
          "type": "uint256"
        }
      ],
      "name": "approve",
      "outputs": [],
      "stateMutability": "nonpayable",
      "type": "function"
    },
    {
      "inputs": [
        {
          "internalType": "address",
          "name": "owner",
          "type": "address"
        }
      ],
      "name": "balanceOf",
      "outputs": [
        {
          "internalType": "uint256",
          "name": "",
          "type": "uint256"
        }
      ],
      "stateMutability": "view",
      "type": "function"
    },
    {
      "inputs": [],
      "name": "baseUri",
      "outputs": [
        {
          "internalType": "string",
          "name": "",
          "type": "string"
        }
      ],
      "stateMutability": "view",
      "type": "function"
    },
    {
      "inputs": [],
      "name": "challengeNumber",
      "outputs": [
        {
          "internalType": "bytes32",
          "name": "",
          "type": "bytes32"
        }
      ],
      "stateMutability": "view",
      "type": "function"
    },
    {
      "inputs": [
        {
          "internalType": "uint256",
          "name": "nonce",
          "type": "uint256"
        },
        {
          "internalType": "bytes32",
          "name": "challengeDigest",
          "type": "bytes32"
        }
      ],
      "name": "checkHash",
      "outputs": [
        {
          "internalType": "bytes32",
          "name": "digest",
          "type": "bytes32"
        }
      ],
      "stateMutability": "view",
      "type": "function"
    },
    {
      "inputs": [],
      "name": "currentTokenId",
      "outputs": [
        {
          "internalType": "uint256",
          "name": "",
          "type": "uint256"
        }
      ],
      "stateMutability": "view",
      "type": "function"
    },
    {
      "inputs": [],
      "name": "decimals",
      "outputs": [
        {
          "internalType": "uint8",
          "name": "",
          "type": "uint8"
        }
      ],
      "stateMutability": "view",
      "type": "function"
    },
    {
      "inputs": [],
      "name": "difficulty",
      "outputs": [
        {
          "internalType": "uint256",
          "name": "",
          "type": "uint256"
        }
      ],
      "stateMutability": "view",
      "type": "function"
    },
    {
      "inputs": [
        {
          "internalType": "uint256",
          "name": "",
          "type": "uint256"
        }
      ],
      "name": "digestForTokenId",
      "outputs": [
        {
          "internalType": "bytes32",
          "name": "",
          "type": "bytes32"
        }
      ],
      "stateMutability": "view",
      "type": "function"
    },
    {
      "inputs": [],
      "name": "epochCount",
      "outputs": [
        {
          "internalType": "uint256",
          "name": "",
          "type": "uint256"
        }
      ],
      "stateMutability": "view",
      "type": "function"
    },
    {
      "inputs": [
        {
          "internalType": "uint256",
          "name": "tokenId",
          "type": "uint256"
        }
      ],
      "name": "getApproved",
      "outputs": [
        {
          "internalType": "address",
          "name": "",
          "type": "address"
        }
      ],
      "stateMutability": "view",
      "type": "function"
    },
    {
      "inputs": [],
      "name": "getChallengeNumber",
      "outputs": [
        {
          "internalType": "bytes32",
          "name": "",
          "type": "bytes32"
        }
      ],
      "stateMutability": "view",
      "type": "function"
    },
    {
      "inputs": [],
      "name": "getMiningDifficulty",
      "outputs": [
        {
          "internalType": "uint256",
          "name": "",
          "type": "uint256"
        }
      ],
      "stateMutability": "view",
      "type": "function"
    },
    {
      "inputs": [],
      "name": "getMiningReward",
      "outputs": [
        {
          "internalType": "uint256",
          "name": "",
          "type": "uint256"
        }
      ],
      "stateMutability": "pure",
      "type": "function"
    },
    {
      "inputs": [],
      "name": "getMiningTarget",
      "outputs": [
        {
          "internalType": "uint256",
          "name": "",
          "type": "uint256"
        }
      ],
      "stateMutability": "view",
      "type": "function"
    },
    {
      "inputs": [],
      "name": "getPlanetMinted",
      "outputs": [
        {
          "internalType": "uint256",
          "name": "",
          "type": "uint256"
        }
      ],
      "stateMutability": "view",
      "type": "function"
    },
    {
      "inputs": [
        {
          "internalType": "uint256",
          "name": "x",
          "type": "uint256"
        },
        {
          "internalType": "uint256",
          "name": "y",
          "type": "uint256"
        }
      ],
      "name": "getPlanetZone",
      "outputs": [
        {
          "internalType": "uint256",
          "name": "zone",
          "type": "uint256"
        }
      ],
      "stateMutability": "pure",
      "type": "function"
    },
    {
      "inputs": [
        {
          "internalType": "uint256",
          "name": "id",
          "type": "uint256"
        }
      ],
      "name": "getTotalStatsPerTokenId",
      "outputs": [
        {
          "internalType": "uint256",
          "name": "",
          "type": "uint256"
        },
        {
          "internalType": "uint256",
          "name": "",
          "type": "uint256"
        },
        {
          "internalType": "uint256",
          "name": "",
          "type": "uint256"
        },
        {
          "internalType": "uint256",
          "name": "",
          "type": "uint256"
        },
        {
          "internalType": "uint256",
          "name": "",
          "type": "uint256"
        },
        {
          "internalType": "uint256",
          "name": "",
          "type": "uint256"
        }
      ],
      "stateMutability": "view",
      "type": "function"
    },
    {
      "inputs": [
        {
          "internalType": "string",
          "name": "_name",
          "type": "string"
        },
        {
          "internalType": "string",
          "name": "_symbol",
          "type": "string"
        },
        {
          "internalType": "string",
          "name": "_baseUri",
          "type": "string"
        }
      ],
      "name": "initialize",
      "outputs": [],
      "stateMutability": "nonpayable",
      "type": "function"
    },
    {
      "inputs": [
        {
          "internalType": "address",
          "name": "owner",
          "type": "address"
        },
        {
          "internalType": "address",
          "name": "operator",
          "type": "address"
        }
      ],
      "name": "isApprovedForAll",
      "outputs": [
        {
          "internalType": "bool",
          "name": "",
          "type": "bool"
        }
      ],
      "stateMutability": "view",
      "type": "function"
    },
    {
      "inputs": [],
      "name": "latestDifficultyPeriodStarted",
      "outputs": [
        {
          "internalType": "uint256",
          "name": "",
          "type": "uint256"
        }
      ],
      "stateMutability": "view",
      "type": "function"
    },
    {
      "inputs": [],
      "name": "maxSupplyForEra",
      "outputs": [
        {
          "internalType": "uint256",
          "name": "",
          "type": "uint256"
        }
      ],
      "stateMutability": "view",
      "type": "function"
    },
    {
      "inputs": [],
      "name": "maximumRigLevel",
      "outputs": [
        {
          "internalType": "uint8",
          "name": "",
          "type": "uint8"
        }
      ],
      "stateMutability": "view",
      "type": "function"
    },
    {
      "inputs": [
        {
          "internalType": "address",
          "name": "",
          "type": "address"
        }
      ],
      "name": "miningRigForAddress",
      "outputs": [
        {
          "internalType": "uint8",
          "name": "",
          "type": "uint8"
        }
      ],
      "stateMutability": "view",
      "type": "function"
    },
    {
      "inputs": [
        {
          "internalType": "uint256",
          "name": "",
          "type": "uint256"
        }
      ],
      "name": "miningRigPercentage",
      "outputs": [
        {
          "internalType": "uint8",
          "name": "",
          "type": "uint8"
        }
      ],
      "stateMutability": "view",
      "type": "function"
    },
    {
      "inputs": [],
      "name": "miningRigUpgradePrice",
      "outputs": [
        {
          "internalType": "uint256",
          "name": "",
          "type": "uint256"
        }
      ],
      "stateMutability": "view",
      "type": "function"
    },
    {
      "inputs": [
        {
          "internalType": "uint256",
          "name": "nonce",
          "type": "uint256"
        },
        {
          "internalType": "bytes32",
          "name": "challengeDigest",
          "type": "bytes32"
        }
      ],
      "name": "mint",
      "outputs": [
        {
          "internalType": "bool",
          "name": "success",
          "type": "bool"
        }
      ],
      "stateMutability": "nonpayable",
      "type": "function"
    },
    {
      "inputs": [],
      "name": "name",
      "outputs": [
        {
          "internalType": "string",
          "name": "",
          "type": "string"
        }
      ],
      "stateMutability": "view",
      "type": "function"
    },
    {
      "inputs": [],
      "name": "owner",
      "outputs": [
        {
          "internalType": "address",
          "name": "",
          "type": "address"
        }
      ],
      "stateMutability": "view",
      "type": "function"
    },
    {
      "inputs": [
        {
          "internalType": "uint256",
          "name": "tokenId",
          "type": "uint256"
        }
      ],
      "name": "ownerOf",
      "outputs": [
        {
          "internalType": "address",
          "name": "",
          "type": "address"
        }
      ],
      "stateMutability": "view",
      "type": "function"
    },
    {
      "inputs": [],
      "name": "rewardEra",
      "outputs": [
        {
          "internalType": "uint256",
          "name": "",
          "type": "uint256"
        }
      ],
      "stateMutability": "view",
      "type": "function"
    },
    {
      "inputs": [
        {
          "internalType": "uint256",
          "name": "",
          "type": "uint256"
        }
      ],
      "name": "rtsBonusForTokenId",
      "outputs": [
        {
          "internalType": "uint256",
          "name": "",
          "type": "uint256"
        }
      ],
      "stateMutability": "view",
      "type": "function"
    },
    {
      "inputs": [
        {
          "internalType": "address",
          "name": "from",
          "type": "address"
        },
        {
          "internalType": "address",
          "name": "to",
          "type": "address"
        },
        {
          "internalType": "uint256",
          "name": "tokenId",
          "type": "uint256"
        }
      ],
      "name": "safeTransferFrom",
      "outputs": [],
      "stateMutability": "nonpayable",
      "type": "function"
    },
    {
      "inputs": [
        {
          "internalType": "address",
          "name": "from",
          "type": "address"
        },
        {
          "internalType": "address",
          "name": "to",
          "type": "address"
        },
        {
          "internalType": "uint256",
          "name": "tokenId",
          "type": "uint256"
        },
        {
          "internalType": "bytes",
          "name": "data",
          "type": "bytes"
        }
      ],
      "name": "safeTransferFrom",
      "outputs": [],
      "stateMutability": "nonpayable",
      "type": "function"
    },
    {
      "inputs": [
        {
          "internalType": "address",
          "name": "operator",
          "type": "address"
        },
        {
          "internalType": "bool",
          "name": "approved",
          "type": "bool"
        }
      ],
      "name": "setApprovalForAll",
      "outputs": [],
      "stateMutability": "nonpayable",
      "type": "function"
    },
    {
      "inputs": [
        {
          "internalType": "string",
          "name": "_baseUri",
          "type": "string"
        }
      ],
      "name": "setBaseUri",
      "outputs": [],
      "stateMutability": "nonpayable",
      "type": "function"
    },
    {
      "inputs": [
        {
          "internalType": "uint256",
          "name": "priceInEth",
          "type": "uint256"
        }
      ],
      "name": "setMiningRigUpgradePrice",
      "outputs": [],
      "stateMutability": "nonpayable",
      "type": "function"
    },
    {
      "inputs": [],
      "name": "startingAverageReward",
      "outputs": [
        {
          "internalType": "uint256",
          "name": "",
          "type": "uint256"
        }
      ],
      "stateMutability": "view",
      "type": "function"
    },
    {
      "inputs": [],
      "name": "statistics",
      "outputs": [
        {
          "internalType": "address",
          "name": "lastRewardTo",
          "type": "address"
        },
        {
          "internalType": "uint256",
          "name": "lastRewardAmount",
          "type": "uint256"
        },
        {
          "internalType": "uint256",
          "name": "lastRewardEthBlockNumber",
          "type": "uint256"
        },
        {
          "internalType": "uint256",
          "name": "lastRewardTimestamp",
          "type": "uint256"
        }
      ],
      "stateMutability": "view",
      "type": "function"
    },
    {
      "inputs": [
        {
          "internalType": "bytes4",
          "name": "interfaceId",
          "type": "bytes4"
        }
      ],
      "name": "supportsInterface",
      "outputs": [
        {
          "internalType": "bool",
          "name": "",
          "type": "bool"
        }
      ],
      "stateMutability": "view",
      "type": "function"
    },
    {
      "inputs": [],
      "name": "symbol",
      "outputs": [
        {
          "internalType": "string",
          "name": "",
          "type": "string"
        }
      ],
      "stateMutability": "view",
      "type": "function"
    },
    {
      "inputs": [
        {
          "internalType": "uint256",
          "name": "tokenId",
          "type": "uint256"
        }
      ],
      "name": "tokenURI",
      "outputs": [
        {
          "internalType": "string",
          "name": "",
          "type": "string"
        }
      ],
      "stateMutability": "view",
      "type": "function"
    },
    {
      "inputs": [],
      "name": "tokensMinted",
      "outputs": [
        {
          "internalType": "uint256",
          "name": "",
          "type": "uint256"
        }
      ],
      "stateMutability": "view",
      "type": "function"
    },
    {
      "inputs": [],
      "name": "totalERSupply",
      "outputs": [
        {
          "internalType": "uint256",
          "name": "",
          "type": "uint256"
        }
      ],
      "stateMutability": "view",
      "type": "function"
    },
    {
      "inputs": [],
      "name": "totalRtsPerEra",
      "outputs": [
        {
          "internalType": "uint256",
          "name": "",
          "type": "uint256"
        }
      ],
      "stateMutability": "view",
      "type": "function"
    },
    {
      "inputs": [
        {
          "internalType": "address",
          "name": "from",
          "type": "address"
        },
        {
          "internalType": "address",
          "name": "to",
          "type": "address"
        },
        {
          "internalType": "uint256",
          "name": "tokenId",
          "type": "uint256"
        }
      ],
      "name": "transferFrom",
      "outputs": [],
      "stateMutability": "nonpayable",
      "type": "function"
    },
    {
      "inputs": [
        {
          "internalType": "uint8",
          "name": "amount",
          "type": "uint8"
        }
      ],
      "name": "upgradeMiningRig",
      "outputs": [],
      "stateMutability": "payable",
      "type": "function"
    },
    {
      "inputs": [],
      "name": "withdraw",
      "outputs": [],
      "stateMutability": "nonpayable",
      "type": "function"
    }
  ],
  "bytecode": "0x608060405234801561001057600080fd5b50614de0806100206000396000f3fe60806040526004361061036a5760003560e01c80636a2e19a2116101c6578063a22cb465116100f7578063b730427211610095578063cb9ae7071161006f578063cb9ae70714610cd8578063e09feae314610d03578063e985e9c514610d40578063ee2e561214610d7d5761036a565b8063b730427214610c47578063b88d4fde14610c72578063c87b56dd14610c9b5761036a565b8063ac693778116100d1578063ac69377814610b77578063acf86c8714610ba2578063ad1dfe3b14610bdf578063b57d728314610c0a5761036a565b8063a22cb46514610afa578063a465eeaf14610b23578063a6487c5314610b4e5761036a565b806382c890fd1161016457806395d89b411161013e57806395d89b4114610a4d57806395e272bd14610a785780639abc832014610aa6578063a0bcfc7f14610ad15761036a565b806382c890fd146109cc5780638ae0368b146109f75780638da5cb5b14610a225761036a565b806370a08231116101a057806370a08231146108fc5780637c2d542c146109395780637c7f320614610976578063829965cc146109a15761036a565b80636a2e19a2146108645780636a586594146108a65780636de9f32b146108d15761036a565b80632d38bf7a116102a057806347e9c0951161023e5780634ef37628116102185780634ef37628146107945780634fa972e1146107bf57806356b757be146107ea5780636352211e146108275761036a565b806347e9c09514610715578063490203a7146107405780634e8021391461076b5761036a565b80633426e5f51161027a5780633426e5f51461067f5780633ccfd60b146106aa5780633d85d614146106c157806342842e0e146106ec5761036a565b80632d38bf7a146105fe578063313ce5671461062957806332e99708146106545761036a565b8063095ea7b31161030d57806319cae462116102e757806319cae462146105545780631beddf1c1461057f57806322009af6146105aa57806323b872dd146105d55761036a565b8063095ea7b3146104c357806317da485f146104ec5780631801fbe5146105175761036a565b806306fdde031161034957806306fdde031461041457806307a11aeb1461043f578063081812fc1461045b578063095b6d4c146104985761036a565b80629a9b7b1461036f57806301ffc9a71461039a57806303ca2f53146103d7575b600080fd5b34801561037b57600080fd5b50610384610da8565b60405161039191906131f4565b60405180910390f35b3480156103a657600080fd5b506103c160048036038101906103bc919061327b565b610dae565b6040516103ce91906132c3565b60405180910390f35b3480156103e357600080fd5b506103fe60048036038101906103f9919061330a565b610e90565b60405161040b9190613353565b60405180910390f35b34801561042057600080fd5b50610429610ec4565b60405161043691906133fe565b60405180910390f35b6104596004803603810190610454919061344c565b610f56565b005b34801561046757600080fd5b50610482600480360381019061047d919061330a565b61104d565b60405161048f91906134ba565b60405180910390f35b3480156104a457600080fd5b506104ad611093565b6040516104ba91906131f4565b60405180910390f35b3480156104cf57600080fd5b506104ea60048036038101906104e59190613501565b611099565b005b3480156104f857600080fd5b506105016111b0565b60405161050e91906131f4565b60405180910390f35b34801561052357600080fd5b5061053e60048036038101906105399190613577565b6111ba565b60405161054b91906132c3565b60405180910390f35b34801561056057600080fd5b506105696113b5565b60405161057691906131f4565b60405180910390f35b34801561058b57600080fd5b506105946113bb565b6040516105a191906131f4565b60405180910390f35b3480156105b657600080fd5b506105bf6113c0565b6040516105cc91906131f4565b60405180910390f35b3480156105e157600080fd5b506105fc60048036038101906105f791906135b7565b6113c5565b005b34801561060a57600080fd5b50610613611425565b60405161062091906131f4565b60405180910390f35b34801561063557600080fd5b5061063e61142b565b60405161064b9190613353565b60405180910390f35b34801561066057600080fd5b50610669611430565b60405161067691906131f4565b60405180910390f35b34801561068b57600080fd5b5061069461143a565b6040516106a191906131f4565b60405180910390f35b3480156106b657600080fd5b506106bf61143f565b005b3480156106cd57600080fd5b506106d661153a565b6040516106e39190613353565b60405180910390f35b3480156106f857600080fd5b50610713600480360381019061070e91906135b7565b61154d565b005b34801561072157600080fd5b5061072a61156d565b60405161073791906131f4565b60405180910390f35b34801561074c57600080fd5b50610755611573565b60405161076291906131f4565b60405180910390f35b34801561077757600080fd5b50610792600480360381019061078d919061330a565b611598565b005b3480156107a057600080fd5b506107a9611632565b6040516107b69190613619565b60405180910390f35b3480156107cb57600080fd5b506107d461163b565b6040516107e191906131f4565b60405180910390f35b3480156107f657600080fd5b50610811600480360381019061080c919061330a565b61165e565b60405161081e91906131f4565b60405180910390f35b34801561083357600080fd5b5061084e6004803603810190610849919061330a565b611676565b60405161085b91906134ba565b60405180910390f35b34801561087057600080fd5b5061088b6004803603810190610886919061330a565b6116fc565b60405161089d96959493929190613634565b60405180910390f35b3480156108b257600080fd5b506108bb611887565b6040516108c891906131f4565b60405180910390f35b3480156108dd57600080fd5b506108e661188e565b6040516108f391906131f4565b60405180910390f35b34801561090857600080fd5b50610923600480360381019061091e9190613695565b611894565b60405161093091906131f4565b60405180910390f35b34801561094557600080fd5b50610960600480360381019061095b9190613577565b61194b565b60405161096d9190613619565b60405180910390f35b34801561098257600080fd5b5061098b61195f565b60405161099891906131f4565b60405180910390f35b3480156109ad57600080fd5b506109b6611982565b6040516109c391906131f4565b60405180910390f35b3480156109d857600080fd5b506109e1611988565b6040516109ee91906131f4565b60405180910390f35b348015610a0357600080fd5b50610a0c6119a9565b604051610a199190613619565b60405180910390f35b348015610a2e57600080fd5b50610a376119af565b604051610a4491906134ba565b60405180910390f35b348015610a5957600080fd5b50610a626119d5565b604051610a6f91906133fe565b60405180910390f35b348015610a8457600080fd5b50610a8d611a67565b604051610a9d94939291906136c2565b60405180910390f35b348015610ab257600080fd5b50610abb611aa5565b604051610ac891906133fe565b60405180910390f35b348015610add57600080fd5b50610af86004803603810190610af3919061383c565b611b33565b005b348015610b0657600080fd5b50610b216004803603810190610b1c91906138b1565b611bd6565b005b348015610b2f57600080fd5b50610b38611bec565b604051610b4591906131f4565b60405180910390f35b348015610b5a57600080fd5b50610b756004803603810190610b7091906138f1565b611bf6565b005b348015610b8357600080fd5b50610b8c611ed9565b604051610b9991906131f4565b60405180910390f35b348015610bae57600080fd5b50610bc96004803603810190610bc49190613998565b611edf565b604051610bd691906131f4565b60405180910390f35b348015610beb57600080fd5b50610bf4611f87565b604051610c0191906131f4565b60405180910390f35b348015610c1657600080fd5b50610c316004803603810190610c2c9190613695565b611f99565b604051610c3e9190613353565b60405180910390f35b348015610c5357600080fd5b50610c5c611fb9565b604051610c6991906131f4565b60405180910390f35b348015610c7e57600080fd5b50610c996004803603810190610c949190613a79565b611fbf565b005b348015610ca757600080fd5b50610cc26004803603810190610cbd919061330a565b612021565b604051610ccf91906133fe565b60405180910390f35b348015610ce457600080fd5b50610ced612081565b604051610cfa91906131f4565b60405180910390f35b348015610d0f57600080fd5b50610d2a6004803603810190610d25919061330a565b612087565b604051610d379190613619565b60405180910390f35b348015610d4c57600080fd5b50610d676004803603810190610d629190613afc565b61209f565b604051610d7491906132c3565b60405180910390f35b348015610d8957600080fd5b50610d92612133565b604051610d9f91906131f4565b60405180910390f35b609e5481565b60007f80ac58cd000000000000000000000000000000000000000000000000000000007bffffffffffffffffffffffffffffffffffffffffffffffffffffffff1916827bffffffffffffffffffffffffffffffffffffffffffffffffffffffff19161480610e7957507f5b5e139f000000000000000000000000000000000000000000000000000000007bffffffffffffffffffffffffffffffffffffffffffffffffffffffff1916827bffffffffffffffffffffffffffffffffffffffffffffffffffffffff1916145b80610e895750610e8882612139565b5b9050919050565b60a88181548110610ea057600080fd5b9060005260206000209060209182820401919006915054906101000a900460ff1681565b6060606c8054610ed390613b6b565b80601f0160208091040260200160405190810160405280929190818152602001828054610eff90613b6b565b8015610f4c5780601f10610f2157610100808354040283529160200191610f4c565b820191906000526020600020905b815481529060010190602001808311610f2f57829003601f168201915b5050505050905090565b8060ff1660a654610f679190613bcb565b341015610f7357600080fd5b60008160a960003373ffffffffffffffffffffffffffffffffffffffff1673ffffffffffffffffffffffffffffffffffffffff16815260200190815260200160002060009054906101000a900460ff16610fcd9190613c0d565b905060a760009054906101000a900460ff1660ff168160ff161115610ff157600080fd5b8060a960003373ffffffffffffffffffffffffffffffffffffffff1673ffffffffffffffffffffffffffffffffffffffff16815260200190815260200160002060006101000a81548160ff021916908360ff1602179055505050565b6000611058826121a3565b6070600083815260200190815260200160002060009054906101000a900473ffffffffffffffffffffffffffffffffffffffff169050919050565b6107d081565b60006110a482611676565b90508073ffffffffffffffffffffffffffffffffffffffff168373ffffffffffffffffffffffffffffffffffffffff1603611114576040517f08c379a000000000000000000000000000000000000000000000000000000000815260040161110b90613cb4565b60405180910390fd5b8073ffffffffffffffffffffffffffffffffffffffff166111336121ee565b73ffffffffffffffffffffffffffffffffffffffff16148061116257506111618161115c6121ee565b61209f565b5b6111a1576040517f08c379a000000000000000000000000000000000000000000000000000000000815260040161119890613d46565b60405180910390fd5b6111ab83836121f6565b505050565b6000600154905090565b6000609e600081546111cb90613d66565b919050819055609e8190555060006111e384846122af565b90506001548160001c111561122d576040517f08c379a000000000000000000000000000000000000000000000000000000000815260040161122490613dfa565b60405180910390fd5b600060a16000609e5481526020019081526020016000205490506000801b811461128c576040517f08c379a000000000000000000000000000000000000000000000000000000000815260040161128390613e66565b60405180910390fd5b8160a16000609e548152602001908152602001600020819055506112b233609e54612327565b60006103e88360001c169050600060648260a860a960003373ffffffffffffffffffffffffffffffffffffffff1673ffffffffffffffffffffffffffffffffffffffff16815260200190815260200160002060009054906101000a900460ff1660ff168154811061132657611325613e86565b5b90600052602060002090602091828204019190069054906101000a900460ff1660ff166113539190613bcb565b61135d9190613ee4565b90506000811115611383578060aa6000609e548152602001908152602001600020819055505b808261138f9190613f15565b600260008282546113a09190613f15565b92505081905550600194505050505092915050565b60015481565b606481565b60fa81565b6113d66113d06121ee565b82612345565b611415576040517f08c379a000000000000000000000000000000000000000000000000000000000815260040161140c90613fbb565b60405180910390fd5b6114208383836123da565b505050565b60a45481565b601281565b6000600154905090565b603c81565b60ab60009054906101000a900473ffffffffffffffffffffffffffffffffffffffff1673ffffffffffffffffffffffffffffffffffffffff163373ffffffffffffffffffffffffffffffffffffffff16146114cf576040517f08c379a00000000000000000000000000000000000000000000000000000000081526004016114c69061404d565b60405180910390fd5b60ab60009054906101000a900473ffffffffffffffffffffffffffffffffffffffff1673ffffffffffffffffffffffffffffffffffffffff166108fc479081150290604051600060405180830381858888f19350505050158015611537573d6000803e3d6000fd5b50565b60a760009054906101000a900460ff1681565b61156883838360405180602001604052806000815250611fbf565b505050565b60a65481565b6000601260ff16600a61158691906141a0565b6103e86115939190613bcb565b905090565b60ab60009054906101000a900473ffffffffffffffffffffffffffffffffffffffff1673ffffffffffffffffffffffffffffffffffffffff163373ffffffffffffffffffffffffffffffffffffffff1614611628576040517f08c379a000000000000000000000000000000000000000000000000000000000815260040161161f9061404d565b60405180910390fd5b8060a68190555050565b60008054905090565b601260ff16600a61164c91906141a0565b633b9aca0061165b9190613bcb565b81565b60aa6020528060005260406000206000915090505481565b600080611682836126d3565b9050600073ffffffffffffffffffffffffffffffffffffffff168173ffffffffffffffffffffffffffffffffffffffff16036116f3576040517f08c379a00000000000000000000000000000000000000000000000000000000081526004016116ea90614237565b60405180910390fd5b80915050919050565b600080600080600080600060a160008981526020019081526020016000205460001c905060006103e8603083901c16905060006103e8603c84901c1690506000600a6117488484611edf565b6117529190613bcb565b9050600060aa60008d8152602001908152602001600020546103e886166117799190613f15565b905060006103e8600c87901c1660fa6117929190613f15565b905060006103e8601888901c1660fa6117ab9190613f15565b905060006103e8602489901c1660fa6117c49190613f15565b9050600085111561186457606485856117dd9190613bcb565b6117e79190613ee4565b846117f29190613f15565b9350606485846118029190613bcb565b61180c9190613ee4565b836118179190613f15565b9250606485836118279190613bcb565b6118319190613ee4565b8261183c9190613f15565b91506064858261184c9190613bcb565b6118569190613ee4565b816118619190613f15565b90505b838383838a8a9d509d509d509d509d509d50505050505050505091939550919395565b6201000081565b60025481565b60008073ffffffffffffffffffffffffffffffffffffffff168273ffffffffffffffffffffffffffffffffffffffff1603611904576040517f08c379a00000000000000000000000000000000000000000000000000000000081526004016118fb906142c9565b60405180910390fd5b606f60008373ffffffffffffffffffffffffffffffffffffffff1673ffffffffffffffffffffffffffffffffffffffff168152602001908152602001600020549050919050565b600061195783836122af565b905092915050565b7e2000000000000000000000000000000000000000000000000000000000000081565b60a25481565b601260ff16600a61199991906141a0565b6103e86119a69190613bcb565b81565b60005481565b60ab60009054906101000a900473ffffffffffffffffffffffffffffffffffffffff1681565b6060606d80546119e490613b6b565b80601f0160208091040260200160405190810160405280929190818152602001828054611a1090613b6b565b8015611a5d5780601f10611a3257610100808354040283529160200191611a5d565b820191906000526020600020905b815481529060010190602001808311611a4057829003601f168201915b5050505050905090565b60038060000160009054906101000a900473ffffffffffffffffffffffffffffffffffffffff16908060010154908060020154908060030154905084565b609f8054611ab290613b6b565b80601f0160208091040260200160405190810160405280929190818152602001828054611ade90613b6b565b8015611b2b5780601f10611b0057610100808354040283529160200191611b2b565b820191906000526020600020905b815481529060010190602001808311611b0e57829003601f168201915b505050505081565b60ab60009054906101000a900473ffffffffffffffffffffffffffffffffffffffff1673ffffffffffffffffffffffffffffffffffffffff163373ffffffffffffffffffffffffffffffffffffffff1614611bc3576040517f08c379a0000000000000000000000000000000000000000000000000000000008152600401611bba9061404d565b60405180910390fd5b80609f9081611bd29190614495565b5050565b611be8611be16121ee565b8383612710565b5050565b6000609e54905090565b6000600760019054906101000a900460ff16159050808015611c2a57506001600760009054906101000a900460ff1660ff16105b80611c595750611c393061287c565b158015611c5857506001600760009054906101000a900460ff1660ff16145b5b611c98576040517f08c379a0000000000000000000000000000000000000000000000000000000008152600401611c8f906145d9565b60405180910390fd5b6001600760006101000a81548160ff021916908360ff1602179055508015611cd6576001600760016101000a81548160ff0219169083151502179055505b600073ffffffffffffffffffffffffffffffffffffffff1660ab60009054906101000a900473ffffffffffffffffffffffffffffffffffffffff1673ffffffffffffffffffffffffffffffffffffffff1614611d3157600080fd5b3360ab60006101000a81548173ffffffffffffffffffffffffffffffffffffffff021916908373ffffffffffffffffffffffffffffffffffffffff160217905550611d7b82611b33565b600143611d8891906145f9565b406000819055504360a3819055507e20000000000000000000000000000000000000000000000000000000000000600181905550666a94d74f43000060a681905550600a60a760006101000a81548160ff021916908360ff160217905550604051806101600160405280600060ff168152602001600560ff168152602001600a60ff168152602001600f60ff168152602001601660ff168152602001601d60ff168152602001602460ff168152602001602e60ff168152602001603860ff168152602001604260ff168152602001605060ff1681525060a890600b611e6e929190613117565b50611e79848461289f565b8015611ed3576000600760016101000a81548160ff0219169083151502179055507f7f26b83ff96e1f2b6a682f133852f6798a09c465da95921460cefb38474024986001604051611eca9190614668565b60405180910390a15b50505050565b60a05481565b60006101f4831115611f00576101f483611ef991906145f9565b9250611f11565b826101f4611f0e91906145f9565b92505b6101f4821115611f30576101f482611f2991906145f9565b9150611f41565b816101f4611f3e91906145f9565b91505b6000611f6f600284611f539190614683565b600286611f609190614683565b611f6a9190613f15565b6128fc565b9050605081611f7e9190613ee4565b91505092915050565b60026107d0611f969190613ee4565b81565b60a96020528060005260406000206000915054906101000a900460ff1681565b61040081565b611fd0611fca6121ee565b83612345565b61200f576040517f08c379a000000000000000000000000000000000000000000000000000000000815260040161200690613fbb565b60405180910390fd5b61201b848484846129db565b50505050565b60606000609f805461203290613b6b565b90501161204e576040518060200160405280600081525061207a565b609f61205983612a37565b60405160200161206a9291906147d9565b6040516020818303038152906040525b9050919050565b60a35481565b60a16020528060005260406000206000915090505481565b6000607160008473ffffffffffffffffffffffffffffffffffffffff1673ffffffffffffffffffffffffffffffffffffffff16815260200190815260200160002060008373ffffffffffffffffffffffffffffffffffffffff1673ffffffffffffffffffffffffffffffffffffffff16815260200190815260200160002060009054906101000a900460ff16905092915050565b60a55481565b60007f01ffc9a7000000000000000000000000000000000000000000000000000000007bffffffffffffffffffffffffffffffffffffffffffffffffffffffff1916827bffffffffffffffffffffffffffffffffffffffffffffffffffffffff1916149050919050565b6121ac81612b05565b6121eb576040517f08c379a00000000000000000000000000000000000000000000000000000000081526004016121e290614237565b60405180910390fd5b50565b600033905090565b816070600083815260200190815260200160002060006101000a81548173ffffffffffffffffffffffffffffffffffffffff021916908373ffffffffffffffffffffffffffffffffffffffff160217905550808273ffffffffffffffffffffffffffffffffffffffff1661226983611676565b73ffffffffffffffffffffffffffffffffffffffff167f8c5be1e5ebec7d5bd14f71427d1e84f3dd0314c0f7b2291e5b200ac8c7c3b92560405160405180910390a45050565b6000805433846040516020016122c793929190614892565b604051602081830303815290604052805190602001209050818114612321576040517f08c379a00000000000000000000000000000000000000000000000000000000081526004016123189061491b565b60405180910390fd5b92915050565b612341828260405180602001604052806000815250612b46565b5050565b60008061235183611676565b90508073ffffffffffffffffffffffffffffffffffffffff168473ffffffffffffffffffffffffffffffffffffffff1614806123935750612392818561209f565b5b806123d157508373ffffffffffffffffffffffffffffffffffffffff166123b98461104d565b73ffffffffffffffffffffffffffffffffffffffff16145b91505092915050565b8273ffffffffffffffffffffffffffffffffffffffff166123fa82611676565b73ffffffffffffffffffffffffffffffffffffffff1614612450576040517f08c379a0000000000000000000000000000000000000000000000000000000008152600401612447906149ad565b60405180910390fd5b600073ffffffffffffffffffffffffffffffffffffffff168273ffffffffffffffffffffffffffffffffffffffff16036124bf576040517f08c379a00000000000000000000000000000000000000000000000000000000081526004016124b690614a3f565b60405180910390fd5b6124cc8383836001612ba1565b8273ffffffffffffffffffffffffffffffffffffffff166124ec82611676565b73ffffffffffffffffffffffffffffffffffffffff1614612542576040517f08c379a0000000000000000000000000000000000000000000000000000000008152600401612539906149ad565b60405180910390fd5b6070600082815260200190815260200160002060006101000a81549073ffffffffffffffffffffffffffffffffffffffff02191690556001606f60008573ffffffffffffffffffffffffffffffffffffffff1673ffffffffffffffffffffffffffffffffffffffff168152602001908152602001600020600082825403925050819055506001606f60008473ffffffffffffffffffffffffffffffffffffffff1673ffffffffffffffffffffffffffffffffffffffff1681526020019081526020016000206000828254019250508190555081606e600083815260200190815260200160002060006101000a81548173ffffffffffffffffffffffffffffffffffffffff021916908373ffffffffffffffffffffffffffffffffffffffff160217905550808273ffffffffffffffffffffffffffffffffffffffff168473ffffffffffffffffffffffffffffffffffffffff167fddf252ad1be2c89b69c2b068fc378daa952ba7f163c4a11628f55a4df523b3ef60405160405180910390a46126ce8383836001612ba7565b505050565b6000606e600083815260200190815260200160002060009054906101000a900473ffffffffffffffffffffffffffffffffffffffff169050919050565b8173ffffffffffffffffffffffffffffffffffffffff168373ffffffffffffffffffffffffffffffffffffffff160361277e576040517f08c379a000000000000000000000000000000000000000000000000000000000815260040161277590614aab565b60405180910390fd5b80607160008573ffffffffffffffffffffffffffffffffffffffff1673ffffffffffffffffffffffffffffffffffffffff16815260200190815260200160002060008473ffffffffffffffffffffffffffffffffffffffff1673ffffffffffffffffffffffffffffffffffffffff16815260200190815260200160002060006101000a81548160ff0219169083151502179055508173ffffffffffffffffffffffffffffffffffffffff168373ffffffffffffffffffffffffffffffffffffffff167f17307eab39ab6107e8899845ad3d59bd9653f200f220920489ca2b5937696c318360405161286f91906132c3565b60405180910390a3505050565b6000808273ffffffffffffffffffffffffffffffffffffffff163b119050919050565b600760019054906101000a900460ff166128ee576040517f08c379a00000000000000000000000000000000000000000000000000000000081526004016128e590614b3d565b60405180910390fd5b6128f88282612bad565b5050565b60008160b59150710100000000000000000000000000000000008110612929578060801c90508160401b91505b69010000000000000000008110612947578060401c90508160201b91505b650100000000008110612961578060201c90508160101b91505b63010000008110612979578060101c90508160081b91505b620100008101820260121c9150818304820160011c9150818304820160011c9150818304820160011c9150818304820160011c9150818304820160011c9150818304820160011c9150818304820160011c915081828404108203915050919050565b6129e68484846123da565b6129f284848484612c20565b612a31576040517f08c379a0000000000000000000000000000000000000000000000000000000008152600401612a2890614bcf565b60405180910390fd5b50505050565b606060006001612a4684612da7565b01905060008167ffffffffffffffff811115612a6557612a64613711565b5b6040519080825280601f01601f191660200182016040528015612a975781602001600182028036833780820191505090505b509050600082602001820190505b600115612afa578080600190039150507f3031323334353637383961626364656600000000000000000000000000000000600a86061a8153600a8581612aee57612aed613eb5565b5b04945060008503612aa5575b819350505050919050565b60008073ffffffffffffffffffffffffffffffffffffffff16612b27836126d3565b73ffffffffffffffffffffffffffffffffffffffff1614159050919050565b612b508383612efa565b612b5d6000848484612c20565b612b9c576040517f08c379a0000000000000000000000000000000000000000000000000000000008152600401612b9390614bcf565b60405180910390fd5b505050565b50505050565b50505050565b600760019054906101000a900460ff16612bfc576040517f08c379a0000000000000000000000000000000000000000000000000000000008152600401612bf390614b3d565b60405180910390fd5b81606c9081612c0b9190614495565b5080606d9081612c1b9190614495565b505050565b6000612c418473ffffffffffffffffffffffffffffffffffffffff1661287c565b15612d9a578373ffffffffffffffffffffffffffffffffffffffff1663150b7a02612c6a6121ee565b8786866040518563ffffffff1660e01b8152600401612c8c9493929190614c44565b6020604051808303816000875af1925050508015612cc857506040513d601f19601f82011682018060405250810190612cc59190614ca5565b60015b612d4a573d8060008114612cf8576040519150601f19603f3d011682016040523d82523d6000602084013e612cfd565b606091505b506000815103612d42576040517f08c379a0000000000000000000000000000000000000000000000000000000008152600401612d3990614bcf565b60405180910390fd5b805181602001fd5b63150b7a0260e01b7bffffffffffffffffffffffffffffffffffffffffffffffffffffffff1916817bffffffffffffffffffffffffffffffffffffffffffffffffffffffff191614915050612d9f565b600190505b949350505050565b600080600090507a184f03e93ff9f4daa797ed6e38ed64bf6a1f0100000000000000008310612e05577a184f03e93ff9f4daa797ed6e38ed64bf6a1f0100000000000000008381612dfb57612dfa613eb5565b5b0492506040810190505b6d04ee2d6d415b85acef81000000008310612e42576d04ee2d6d415b85acef81000000008381612e3857612e37613eb5565b5b0492506020810190505b662386f26fc100008310612e7157662386f26fc100008381612e6757612e66613eb5565b5b0492506010810190505b6305f5e1008310612e9a576305f5e1008381612e9057612e8f613eb5565b5b0492506008810190505b6127108310612ebf576127108381612eb557612eb4613eb5565b5b0492506004810190505b60648310612ee25760648381612ed857612ed7613eb5565b5b0492506002810190505b600a8310612ef1576001810190505b80915050919050565b600073ffffffffffffffffffffffffffffffffffffffff168273ffffffffffffffffffffffffffffffffffffffff1603612f69576040517f08c379a0000000000000000000000000000000000000000000000000000000008152600401612f6090614d1e565b60405180910390fd5b612f7281612b05565b15612fb2576040517f08c379a0000000000000000000000000000000000000000000000000000000008152600401612fa990614d8a565b60405180910390fd5b612fc0600083836001612ba1565b612fc981612b05565b15613009576040517f08c379a000000000000000000000000000000000000000000000000000000000815260040161300090614d8a565b60405180910390fd5b6001606f60008473ffffffffffffffffffffffffffffffffffffffff1673ffffffffffffffffffffffffffffffffffffffff1681526020019081526020016000206000828254019250508190555081606e600083815260200190815260200160002060006101000a81548173ffffffffffffffffffffffffffffffffffffffff021916908373ffffffffffffffffffffffffffffffffffffffff160217905550808273ffffffffffffffffffffffffffffffffffffffff16600073ffffffffffffffffffffffffffffffffffffffff167fddf252ad1be2c89b69c2b068fc378daa952ba7f163c4a11628f55a4df523b3ef60405160405180910390a4613113600083836001612ba7565b5050565b82805482825590600052602060002090601f016020900481019282156131ad5791602002820160005b8382111561317e57835183826101000a81548160ff021916908360ff1602179055509260200192600101602081600001049283019260010302613140565b80156131ab5782816101000a81549060ff021916905560010160208160000104928301926001030261317e565b505b5090506131ba91906131be565b5090565b5b808211156131d75760008160009055506001016131bf565b5090565b6000819050919050565b6131ee816131db565b82525050565b600060208201905061320960008301846131e5565b92915050565b6000604051905090565b600080fd5b600080fd5b60007fffffffff0000000000000000000000000000000000000000000000000000000082169050919050565b61325881613223565b811461326357600080fd5b50565b6000813590506132758161324f565b92915050565b60006020828403121561329157613290613219565b5b600061329f84828501613266565b91505092915050565b60008115159050919050565b6132bd816132a8565b82525050565b60006020820190506132d860008301846132b4565b92915050565b6132e7816131db565b81146132f257600080fd5b50565b600081359050613304816132de565b92915050565b6000602082840312156133205761331f613219565b5b600061332e848285016132f5565b91505092915050565b600060ff82169050919050565b61334d81613337565b82525050565b60006020820190506133686000830184613344565b92915050565b600081519050919050565b600082825260208201905092915050565b60005b838110156133a857808201518184015260208101905061338d565b60008484015250505050565b6000601f19601f8301169050919050565b60006133d08261336e565b6133da8185613379565b93506133ea81856020860161338a565b6133f3816133b4565b840191505092915050565b6000602082019050818103600083015261341881846133c5565b905092915050565b61342981613337565b811461343457600080fd5b50565b60008135905061344681613420565b92915050565b60006020828403121561346257613461613219565b5b600061347084828501613437565b91505092915050565b600073ffffffffffffffffffffffffffffffffffffffff82169050919050565b60006134a482613479565b9050919050565b6134b481613499565b82525050565b60006020820190506134cf60008301846134ab565b92915050565b6134de81613499565b81146134e957600080fd5b50565b6000813590506134fb816134d5565b92915050565b6000806040838503121561351857613517613219565b5b6000613526858286016134ec565b9250506020613537858286016132f5565b9150509250929050565b6000819050919050565b61355481613541565b811461355f57600080fd5b50565b6000813590506135718161354b565b92915050565b6000806040838503121561358e5761358d613219565b5b600061359c858286016132f5565b92505060206135ad85828601613562565b9150509250929050565b6000806000606084860312156135d0576135cf613219565b5b60006135de868287016134ec565b93505060206135ef868287016134ec565b9250506040613600868287016132f5565b9150509250925092565b61361381613541565b82525050565b600060208201905061362e600083018461360a565b92915050565b600060c08201905061364960008301896131e5565b61365660208301886131e5565b61366360408301876131e5565b61367060608301866131e5565b61367d60808301856131e5565b61368a60a08301846131e5565b979650505050505050565b6000602082840312156136ab576136aa613219565b5b60006136b9848285016134ec565b91505092915050565b60006080820190506136d760008301876134ab565b6136e460208301866131e5565b6136f160408301856131e5565b6136fe60608301846131e5565b95945050505050565b600080fd5b600080fd5b7f4e487b7100000000000000000000000000000000000000000000000000000000600052604160045260246000fd5b613749826133b4565b810181811067ffffffffffffffff8211171561376857613767613711565b5b80604052505050565b600061377b61320f565b90506137878282613740565b919050565b600067ffffffffffffffff8211156137a7576137a6613711565b5b6137b0826133b4565b9050602081019050919050565b82818337600083830152505050565b60006137df6137da8461378c565b613771565b9050828152602081018484840111156137fb576137fa61370c565b5b6138068482856137bd565b509392505050565b600082601f83011261382357613822613707565b5b81356138338482602086016137cc565b91505092915050565b60006020828403121561385257613851613219565b5b600082013567ffffffffffffffff8111156138705761386f61321e565b5b61387c8482850161380e565b91505092915050565b61388e816132a8565b811461389957600080fd5b50565b6000813590506138ab81613885565b92915050565b600080604083850312156138c8576138c7613219565b5b60006138d6858286016134ec565b92505060206138e78582860161389c565b9150509250929050565b60008060006060848603121561390a57613909613219565b5b600084013567ffffffffffffffff8111156139285761392761321e565b5b6139348682870161380e565b935050602084013567ffffffffffffffff8111156139555761395461321e565b5b6139618682870161380e565b925050604084013567ffffffffffffffff8111156139825761398161321e565b5b61398e8682870161380e565b9150509250925092565b600080604083850312156139af576139ae613219565b5b60006139bd858286016132f5565b92505060206139ce858286016132f5565b9150509250929050565b600067ffffffffffffffff8211156139f3576139f2613711565b5b6139fc826133b4565b9050602081019050919050565b6000613a1c613a17846139d8565b613771565b905082815260208101848484011115613a3857613a3761370c565b5b613a438482856137bd565b509392505050565b600082601f830112613a6057613a5f613707565b5b8135613a70848260208601613a09565b91505092915050565b60008060008060808587031215613a9357613a92613219565b5b6000613aa1878288016134ec565b9450506020613ab2878288016134ec565b9350506040613ac3878288016132f5565b925050606085013567ffffffffffffffff811115613ae457613ae361321e565b5b613af087828801613a4b565b91505092959194509250565b60008060408385031215613b1357613b12613219565b5b6000613b21858286016134ec565b9250506020613b32858286016134ec565b9150509250929050565b7f4e487b7100000000000000000000000000000000000000000000000000000000600052602260045260246000fd5b60006002820490506001821680613b8357607f821691505b602082108103613b9657613b95613b3c565b5b50919050565b7f4e487b7100000000000000000000000000000000000000000000000000000000600052601160045260246000fd5b6000613bd6826131db565b9150613be1836131db565b9250828202613bef816131db565b91508282048414831517613c0657613c05613b9c565b5b5092915050565b6000613c1882613337565b9150613c2383613337565b9250828201905060ff811115613c3c57613c3b613b9c565b5b92915050565b7f4552433732313a20617070726f76616c20746f2063757272656e74206f776e6560008201527f7200000000000000000000000000000000000000000000000000000000000000602082015250565b6000613c9e602183613379565b9150613ca982613c42565b604082019050919050565b60006020820190508181036000830152613ccd81613c91565b9050919050565b7f4552433732313a20617070726f76652063616c6c6572206973206e6f7420746f60008201527f6b656e206f776e6572206f7220617070726f76656420666f7220616c6c000000602082015250565b6000613d30603d83613379565b9150613d3b82613cd4565b604082019050919050565b60006020820190508181036000830152613d5f81613d23565b9050919050565b6000613d71826131db565b91507fffffffffffffffffffffffffffffffffffffffffffffffffffffffffffffffff8203613da357613da2613b9c565b5b600182019050919050565b7f4e6f6e636520696e636f72726563740000000000000000000000000000000000600082015250565b6000613de4600f83613379565b9150613def82613dae565b602082019050919050565b60006020820190508181036000830152613e1381613dd7565b9050919050565b7f536f6c7574696f6e206578697374000000000000000000000000000000000000600082015250565b6000613e50600e83613379565b9150613e5b82613e1a565b602082019050919050565b60006020820190508181036000830152613e7f81613e43565b9050919050565b7f4e487b7100000000000000000000000000000000000000000000000000000000600052603260045260246000fd5b7f4e487b7100000000000000000000000000000000000000000000000000000000600052601260045260246000fd5b6000613eef826131db565b9150613efa836131db565b925082613f0a57613f09613eb5565b5b828204905092915050565b6000613f20826131db565b9150613f2b836131db565b9250828201905080821115613f4357613f42613b9c565b5b92915050565b7f4552433732313a2063616c6c6572206973206e6f7420746f6b656e206f776e6560008201527f72206f7220617070726f76656400000000000000000000000000000000000000602082015250565b6000613fa5602d83613379565b9150613fb082613f49565b604082019050919050565b60006020820190508181036000830152613fd481613f98565b9050919050565b7f4f6e6c79206f776e657220697320616c6c6f77656420746f20706572666f726d60008201527f207468697320616374696f6e0000000000000000000000000000000000000000602082015250565b6000614037602c83613379565b915061404282613fdb565b604082019050919050565b600060208201905081810360008301526140668161402a565b9050919050565b60008160011c9050919050565b6000808291508390505b60018511156140c4578086048111156140a05761409f613b9c565b5b60018516156140af5780820291505b80810290506140bd8561406d565b9450614084565b94509492505050565b6000826140dd5760019050614199565b816140eb5760009050614199565b8160018114614101576002811461410b5761413a565b6001915050614199565b60ff84111561411d5761411c613b9c565b5b8360020a91508482111561413457614133613b9c565b5b50614199565b5060208310610133831016604e8410600b841016171561416f5782820a90508381111561416a57614169613b9c565b5b614199565b61417c848484600161407a565b9250905081840481111561419357614192613b9c565b5b81810290505b9392505050565b60006141ab826131db565b91506141b6836131db565b92506141e37fffffffffffffffffffffffffffffffffffffffffffffffffffffffffffffffff84846140cd565b905092915050565b7f4552433732313a20696e76616c696420746f6b656e2049440000000000000000600082015250565b6000614221601883613379565b915061422c826141eb565b602082019050919050565b6000602082019050818103600083015261425081614214565b9050919050565b7f4552433732313a2061646472657373207a65726f206973206e6f74206120766160008201527f6c6964206f776e65720000000000000000000000000000000000000000000000602082015250565b60006142b3602983613379565b91506142be82614257565b604082019050919050565b600060208201905081810360008301526142e2816142a6565b9050919050565b60008190508160005260206000209050919050565b60006020601f8301049050919050565b600082821b905092915050565b60006008830261434b7fffffffffffffffffffffffffffffffffffffffffffffffffffffffffffffffff8261430e565b614355868361430e565b95508019841693508086168417925050509392505050565b6000819050919050565b600061439261438d614388846131db565b61436d565b6131db565b9050919050565b6000819050919050565b6143ac83614377565b6143c06143b882614399565b84845461431b565b825550505050565b600090565b6143d56143c8565b6143e08184846143a3565b505050565b5b81811015614404576143f96000826143cd565b6001810190506143e6565b5050565b601f8211156144495761441a816142e9565b614423846142fe565b81016020851015614432578190505b61444661443e856142fe565b8301826143e5565b50505b505050565b600082821c905092915050565b600061446c6000198460080261444e565b1980831691505092915050565b6000614485838361445b565b9150826002028217905092915050565b61449e8261336e565b67ffffffffffffffff8111156144b7576144b6613711565b5b6144c18254613b6b565b6144cc828285614408565b600060209050601f8311600181146144ff57600084156144ed578287015190505b6144f78582614479565b86555061455f565b601f19841661450d866142e9565b60005b8281101561453557848901518255600182019150602085019450602081019050614510565b86831015614552578489015161454e601f89168261445b565b8355505b6001600288020188555050505b505050505050565b7f496e697469616c697a61626c653a20636f6e747261637420697320616c72656160008201527f647920696e697469616c697a6564000000000000000000000000000000000000602082015250565b60006145c3602e83613379565b91506145ce82614567565b604082019050919050565b600060208201905081810360008301526145f2816145b6565b9050919050565b6000614604826131db565b915061460f836131db565b925082820390508181111561462757614626613b9c565b5b92915050565b6000819050919050565b600061465261464d6146488461462d565b61436d565b613337565b9050919050565b61466281614637565b82525050565b600060208201905061467d6000830184614659565b92915050565b600061468e826131db565b915061469983613337565b92506146c67fffffffffffffffffffffffffffffffffffffffffffffffffffffffffffffffff84846140cd565b905092915050565b600081905092915050565b600081546146e681613b6b565b6146f081866146ce565b9450600182166000811461470b576001811461472057614753565b60ff1983168652811515820286019350614753565b614729856142e9565b60005b8381101561474b5781548189015260018201915060208101905061472c565b838801955050505b50505092915050565b60006147678261336e565b61477181856146ce565b935061478181856020860161338a565b80840191505092915050565b7f2e6a736f6e000000000000000000000000000000000000000000000000000000600082015250565b60006147c36005836146ce565b91506147ce8261478d565b600582019050919050565b60006147e582856146d9565b91506147f1828461475c565b91506147fc826147b6565b91508190509392505050565b6000819050919050565b61482361481e82613541565b614808565b82525050565b60008160601b9050919050565b600061484182614829565b9050919050565b600061485382614836565b9050919050565b61486b61486682613499565b614848565b82525050565b6000819050919050565b61488c614887826131db565b614871565b82525050565b600061489e8286614812565b6020820191506148ae828561485a565b6014820191506148be828461487b565b602082019150819050949350505050565b7f44696765737420697320646966666572656e7400000000000000000000000000600082015250565b6000614905601383613379565b9150614910826148cf565b602082019050919050565b60006020820190508181036000830152614934816148f8565b9050919050565b7f4552433732313a207472616e736665722066726f6d20696e636f72726563742060008201527f6f776e6572000000000000000000000000000000000000000000000000000000602082015250565b6000614997602583613379565b91506149a28261493b565b604082019050919050565b600060208201905081810360008301526149c68161498a565b9050919050565b7f4552433732313a207472616e7366657220746f20746865207a65726f2061646460008201527f7265737300000000000000000000000000000000000000000000000000000000602082015250565b6000614a29602483613379565b9150614a34826149cd565b604082019050919050565b60006020820190508181036000830152614a5881614a1c565b9050919050565b7f4552433732313a20617070726f766520746f2063616c6c657200000000000000600082015250565b6000614a95601983613379565b9150614aa082614a5f565b602082019050919050565b60006020820190508181036000830152614ac481614a88565b9050919050565b7f496e697469616c697a61626c653a20636f6e7472616374206973206e6f74206960008201527f6e697469616c697a696e67000000000000000000000000000000000000000000602082015250565b6000614b27602b83613379565b9150614b3282614acb565b604082019050919050565b60006020820190508181036000830152614b5681614b1a565b9050919050565b7f4552433732313a207472616e7366657220746f206e6f6e20455243373231526560008201527f63656976657220696d706c656d656e7465720000000000000000000000000000602082015250565b6000614bb9603283613379565b9150614bc482614b5d565b604082019050919050565b60006020820190508181036000830152614be881614bac565b9050919050565b600081519050919050565b600082825260208201905092915050565b6000614c1682614bef565b614c208185614bfa565b9350614c3081856020860161338a565b614c39816133b4565b840191505092915050565b6000608082019050614c5960008301876134ab565b614c6660208301866134ab565b614c7360408301856131e5565b8181036060830152614c858184614c0b565b905095945050505050565b600081519050614c9f8161324f565b92915050565b600060208284031215614cbb57614cba613219565b5b6000614cc984828501614c90565b91505092915050565b7f4552433732313a206d696e7420746f20746865207a65726f2061646472657373600082015250565b6000614d08602083613379565b9150614d1382614cd2565b602082019050919050565b60006020820190508181036000830152614d3781614cfb565b9050919050565b7f4552433732313a20746f6b656e20616c7265616479206d696e74656400000000600082015250565b6000614d74601c83613379565b9150614d7f82614d3e565b602082019050919050565b60006020820190508181036000830152614da381614d67565b905091905056fea2646970667358221220d62b0ed9bf052bec7e8d6a56daf63af037ec2429b8eeeea9136ff04308b9f1c764736f6c63430008120033",
  "linkReferences": {},
  "deployedLinkReferences": {}
}