{
  "_format": "hh-sol-artifact-1",
  "contractName": "Planets",
  "sourceName": "src/Planets.sol",
  "abi": [
    {
      "anonymous": false,
      "inputs": [
        {
          "indexed": true,
          "internalType": "address",
          "name": "owner",
          "type": "address"
        },
        {
          "indexed": true,
          "internalType": "address",
          "name": "approved",
          "type": "address"
        },
        {
          "indexed": true,
          "internalType": "uint256",
          "name": "tokenId",
          "type": "uint256"
        }
      ],
      "name": "Approval",
      "type": "event"
    },
    {
      "anonymous": false,
      "inputs": [
        {
          "indexed": true,
          "internalType": "address",
          "name": "owner",
          "type": "address"
        },
        {
          "indexed": true,
          "internalType": "address",
          "name": "operator",
          "type": "address"
        },
        {
          "indexed": false,
          "internalType": "bool",
          "name": "approved",
          "type": "bool"
        }
      ],
      "name": "ApprovalForAll",
      "type": "event"
    },
    {
      "anonymous": false,
      "inputs": [
        {
          "indexed": false,
          "internalType": "uint256",
          "name": "difficulty",
          "type": "uint256"
        }
      ],
      "name": "DifficultyChange",
      "type": "event"
    },
    {
      "anonymous": false,
      "inputs": [
        {
          "indexed": false,
          "internalType": "uint8",
          "name": "version",
          "type": "uint8"
        }
      ],
      "name": "Initialized",
      "type": "event"
    },
    {
      "anonymous": false,
      "inputs": [
        {
          "indexed": true,
          "internalType": "address",
          "name": "from",
          "type": "address"
        },
        {
          "indexed": false,
          "internalType": "uint256",
          "name": "rewardAmount",
          "type": "uint256"
        },
        {
          "indexed": false,
          "internalType": "uint256",
          "name": "epochCount",
          "type": "uint256"
        },
        {
          "indexed": false,
          "internalType": "bytes32",
          "name": "newChallengeNumber",
          "type": "bytes32"
        }
      ],
      "name": "Mint",
      "type": "event"
    },
    {
      "anonymous": false,
      "inputs": [
        {
          "indexed": true,
          "internalType": "address",
          "name": "from",
          "type": "address"
        },
        {
          "indexed": true,
          "internalType": "address",
          "name": "to",
          "type": "address"
        },
        {
          "indexed": true,
          "internalType": "uint256",
          "name": "tokenId",
          "type": "uint256"
        }
      ],
      "name": "Transfer",
      "type": "event"
    },
    {
      "inputs": [],
      "name": "BASE_REWARD",
      "outputs": [
        {
          "internalType": "uint256",
          "name": "",
          "type": "uint256"
        }
      ],
      "stateMutability": "view",
      "type": "function"
    },
    {
      "inputs": [],
      "name": "ITEM_PER_READJUSTMENT",
      "outputs": [
        {
          "internalType": "uint256",
          "name": "",
          "type": "uint256"
        }
      ],
      "stateMutability": "view",
      "type": "function"
    },
    {
      "inputs": [],
      "name": "MAXIMUM_TARGET_DIFFICULTY",
      "outputs": [
        {
          "internalType": "uint256",
          "name": "",
          "type": "uint256"
        }
      ],
      "stateMutability": "view",
      "type": "function"
    },
    {
      "inputs": [],
      "name": "MAX_ADJUSTMENT_PERCENT",
      "outputs": [
        {
          "internalType": "uint256",
          "name": "",
          "type": "uint256"
        }
      ],
      "stateMutability": "view",
      "type": "function"
    },
    {
      "inputs": [],
      "name": "MINIMUM_TARGET_DIFFICULTY",
      "outputs": [
        {
          "internalType": "uint256",
          "name": "",
          "type": "uint256"
        }
      ],
      "stateMutability": "view",
      "type": "function"
    },
    {
      "inputs": [],
      "name": "MINING_RATE_FACTOR",
      "outputs": [
        {
          "internalType": "uint256",
          "name": "",
          "type": "uint256"
        }
      ],
      "stateMutability": "view",
      "type": "function"
    },
    {
      "inputs": [],
      "name": "QUOTIENT_LIMIT",
      "outputs": [
        {
          "internalType": "uint256",
          "name": "",
          "type": "uint256"
        }
      ],
      "stateMutability": "view",
      "type": "function"
    },
    {
      "inputs": [],
      "name": "TARGET_DIVISOR",
      "outputs": [
        {
          "internalType": "uint256",
          "name": "",
          "type": "uint256"
        }
      ],
      "stateMutability": "view",
      "type": "function"
    },
    {
      "inputs": [
        {
          "internalType": "address",
          "name": "to",
          "type": "address"
        },
        {
          "internalType": "uint256",
          "name": "tokenId",
          "type": "uint256"
        }
      ],
      "name": "approve",
      "outputs": [],
      "stateMutability": "nonpayable",
      "type": "function"
    },
    {
      "inputs": [
        {
          "internalType": "address",
          "name": "owner",
          "type": "address"
        }
      ],
      "name": "balanceOf",
      "outputs": [
        {
          "internalType": "uint256",
          "name": "",
          "type": "uint256"
        }
      ],
      "stateMutability": "view",
      "type": "function"
    },
    {
      "inputs": [],
      "name": "baseUri",
      "outputs": [
        {
          "internalType": "string",
          "name": "",
          "type": "string"
        }
      ],
      "stateMutability": "view",
      "type": "function"
    },
    {
      "inputs": [],
      "name": "challengeNumber",
      "outputs": [
        {
          "internalType": "bytes32",
          "name": "",
          "type": "bytes32"
        }
      ],
      "stateMutability": "view",
      "type": "function"
    },
    {
      "inputs": [
        {
          "internalType": "uint256",
          "name": "nonce",
          "type": "uint256"
        },
        {
          "internalType": "bytes32",
          "name": "challengeDigest",
          "type": "bytes32"
        }
      ],
      "name": "checkHash",
      "outputs": [
        {
          "internalType": "bytes32",
          "name": "digest",
          "type": "bytes32"
        }
      ],
      "stateMutability": "view",
      "type": "function"
    },
    {
      "inputs": [],
      "name": "currentTokenId",
      "outputs": [
        {
          "internalType": "uint256",
          "name": "",
          "type": "uint256"
        }
      ],
      "stateMutability": "view",
      "type": "function"
    },
    {
      "inputs": [],
      "name": "decimals",
      "outputs": [
        {
          "internalType": "uint8",
          "name": "",
          "type": "uint8"
        }
      ],
      "stateMutability": "view",
      "type": "function"
    },
    {
      "inputs": [],
      "name": "difficulty",
      "outputs": [
        {
          "internalType": "uint256",
          "name": "",
          "type": "uint256"
        }
      ],
      "stateMutability": "view",
      "type": "function"
    },
    {
      "inputs": [
        {
          "internalType": "uint256",
          "name": "",
          "type": "uint256"
        }
      ],
      "name": "digestForTokenId",
      "outputs": [
        {
          "internalType": "bytes32",
          "name": "",
          "type": "bytes32"
        }
      ],
      "stateMutability": "view",
      "type": "function"
    },
    {
      "inputs": [],
      "name": "epochCount",
      "outputs": [
        {
          "internalType": "uint256",
          "name": "",
          "type": "uint256"
        }
      ],
      "stateMutability": "view",
      "type": "function"
    },
    {
      "inputs": [
        {
          "internalType": "uint256",
          "name": "tokenId",
          "type": "uint256"
        }
      ],
      "name": "getApproved",
      "outputs": [
        {
          "internalType": "address",
          "name": "",
          "type": "address"
        }
      ],
      "stateMutability": "view",
      "type": "function"
    },
    {
      "inputs": [],
      "name": "getChallengeNumber",
      "outputs": [
        {
          "internalType": "bytes32",
          "name": "",
          "type": "bytes32"
        }
      ],
      "stateMutability": "view",
      "type": "function"
    },
    {
      "inputs": [],
      "name": "getMiningDifficulty",
      "outputs": [
        {
          "internalType": "uint256",
          "name": "",
          "type": "uint256"
        }
      ],
      "stateMutability": "view",
      "type": "function"
    },
    {
      "inputs": [],
      "name": "getMiningReward",
      "outputs": [
        {
          "internalType": "uint256",
          "name": "",
          "type": "uint256"
        }
      ],
      "stateMutability": "pure",
      "type": "function"
    },
    {
      "inputs": [],
      "name": "getMiningTarget",
      "outputs": [
        {
          "internalType": "uint256",
          "name": "",
          "type": "uint256"
        }
      ],
      "stateMutability": "view",
      "type": "function"
    },
    {
      "inputs": [],
      "name": "getPlanetMinted",
      "outputs": [
        {
          "internalType": "uint256",
          "name": "",
          "type": "uint256"
        }
      ],
      "stateMutability": "view",
      "type": "function"
    },
    {
      "inputs": [
        {
          "internalType": "uint256",
          "name": "x",
          "type": "uint256"
        },
        {
          "internalType": "uint256",
          "name": "y",
          "type": "uint256"
        }
      ],
      "name": "getPlanetZone",
      "outputs": [
        {
          "internalType": "uint256",
          "name": "zone",
          "type": "uint256"
        }
      ],
      "stateMutability": "pure",
      "type": "function"
    },
    {
      "inputs": [
        {
          "internalType": "uint256",
          "name": "id",
          "type": "uint256"
        }
      ],
      "name": "getTotalStatsPerTokenId",
      "outputs": [
        {
          "internalType": "uint256",
          "name": "",
          "type": "uint256"
        },
        {
          "internalType": "uint256",
          "name": "",
          "type": "uint256"
        },
        {
          "internalType": "uint256",
          "name": "",
          "type": "uint256"
        },
        {
          "internalType": "uint256",
          "name": "",
          "type": "uint256"
        },
        {
          "internalType": "uint256",
          "name": "",
          "type": "uint256"
        },
        {
          "internalType": "uint256",
          "name": "",
          "type": "uint256"
        }
      ],
      "stateMutability": "view",
      "type": "function"
    },
    {
      "inputs": [
        {
          "internalType": "string",
          "name": "_name",
          "type": "string"
        },
        {
          "internalType": "string",
          "name": "_symbol",
          "type": "string"
        },
        {
          "internalType": "string",
          "name": "_baseUri",
          "type": "string"
        }
      ],
      "name": "initialize",
      "outputs": [],
      "stateMutability": "nonpayable",
      "type": "function"
    },
    {
      "inputs": [
        {
          "internalType": "address",
          "name": "owner",
          "type": "address"
        },
        {
          "internalType": "address",
          "name": "operator",
          "type": "address"
        }
      ],
      "name": "isApprovedForAll",
      "outputs": [
        {
          "internalType": "bool",
          "name": "",
          "type": "bool"
        }
      ],
      "stateMutability": "view",
      "type": "function"
    },
    {
      "inputs": [],
      "name": "latestDifficultyPeriodStarted",
      "outputs": [
        {
          "internalType": "uint256",
          "name": "",
          "type": "uint256"
        }
      ],
      "stateMutability": "view",
      "type": "function"
    },
    {
      "inputs": [],
      "name": "maxSupplyForEra",
      "outputs": [
        {
          "internalType": "uint256",
          "name": "",
          "type": "uint256"
        }
      ],
      "stateMutability": "view",
      "type": "function"
    },
    {
      "inputs": [],
      "name": "maximumRigLevel",
      "outputs": [
        {
          "internalType": "uint8",
          "name": "",
          "type": "uint8"
        }
      ],
      "stateMutability": "view",
      "type": "function"
    },
    {
      "inputs": [
        {
          "internalType": "address",
          "name": "",
          "type": "address"
        }
      ],
      "name": "miningRigForAddress",
      "outputs": [
        {
          "internalType": "uint8",
          "name": "",
          "type": "uint8"
        }
      ],
      "stateMutability": "view",
      "type": "function"
    },
    {
      "inputs": [
        {
          "internalType": "uint256",
          "name": "",
          "type": "uint256"
        }
      ],
      "name": "miningRigPercentage",
      "outputs": [
        {
          "internalType": "uint8",
          "name": "",
          "type": "uint8"
        }
      ],
      "stateMutability": "view",
      "type": "function"
    },
    {
      "inputs": [],
      "name": "miningRigUpgradePrice",
      "outputs": [
        {
          "internalType": "uint256",
          "name": "",
          "type": "uint256"
        }
      ],
      "stateMutability": "view",
      "type": "function"
    },
    {
      "inputs": [
        {
          "internalType": "uint256",
          "name": "nonce",
          "type": "uint256"
        },
        {
          "internalType": "bytes32",
          "name": "challengeDigest",
          "type": "bytes32"
        }
      ],
      "name": "mint",
      "outputs": [
        {
          "internalType": "bool",
          "name": "success",
          "type": "bool"
        }
      ],
      "stateMutability": "nonpayable",
      "type": "function"
    },
    {
      "inputs": [],
      "name": "name",
      "outputs": [
        {
          "internalType": "string",
          "name": "",
          "type": "string"
        }
      ],
      "stateMutability": "view",
      "type": "function"
    },
    {
      "inputs": [],
      "name": "owner",
      "outputs": [
        {
          "internalType": "address",
          "name": "",
          "type": "address"
        }
      ],
      "stateMutability": "view",
      "type": "function"
    },
    {
      "inputs": [
        {
          "internalType": "uint256",
          "name": "tokenId",
          "type": "uint256"
        }
      ],
      "name": "ownerOf",
      "outputs": [
        {
          "internalType": "address",
          "name": "",
          "type": "address"
        }
      ],
      "stateMutability": "view",
      "type": "function"
    },
    {
      "inputs": [],
      "name": "resetDifficulty",
      "outputs": [],
      "stateMutability": "nonpayable",
      "type": "function"
    },
    {
      "inputs": [],
      "name": "rewardEra",
      "outputs": [
        {
          "internalType": "uint256",
          "name": "",
          "type": "uint256"
        }
      ],
      "stateMutability": "view",
      "type": "function"
    },
    {
      "inputs": [
        {
          "internalType": "uint256",
          "name": "",
          "type": "uint256"
        }
      ],
      "name": "rtsBonusForTokenId",
      "outputs": [
        {
          "internalType": "uint256",
          "name": "",
          "type": "uint256"
        }
      ],
      "stateMutability": "view",
      "type": "function"
    },
    {
      "inputs": [
        {
          "internalType": "address",
          "name": "from",
          "type": "address"
        },
        {
          "internalType": "address",
          "name": "to",
          "type": "address"
        },
        {
          "internalType": "uint256",
          "name": "tokenId",
          "type": "uint256"
        }
      ],
      "name": "safeTransferFrom",
      "outputs": [],
      "stateMutability": "nonpayable",
      "type": "function"
    },
    {
      "inputs": [
        {
          "internalType": "address",
          "name": "from",
          "type": "address"
        },
        {
          "internalType": "address",
          "name": "to",
          "type": "address"
        },
        {
          "internalType": "uint256",
          "name": "tokenId",
          "type": "uint256"
        },
        {
          "internalType": "bytes",
          "name": "data",
          "type": "bytes"
        }
      ],
      "name": "safeTransferFrom",
      "outputs": [],
      "stateMutability": "nonpayable",
      "type": "function"
    },
    {
      "inputs": [
        {
          "internalType": "address",
          "name": "operator",
          "type": "address"
        },
        {
          "internalType": "bool",
          "name": "approved",
          "type": "bool"
        }
      ],
      "name": "setApprovalForAll",
      "outputs": [],
      "stateMutability": "nonpayable",
      "type": "function"
    },
    {
      "inputs": [
        {
          "internalType": "string",
          "name": "_baseUri",
          "type": "string"
        }
      ],
      "name": "setBaseUri",
      "outputs": [],
      "stateMutability": "nonpayable",
      "type": "function"
    },
    {
      "inputs": [
        {
          "internalType": "uint256",
          "name": "priceInEth",
          "type": "uint256"
        }
      ],
      "name": "setMiningRigUpgradePrice",
      "outputs": [],
      "stateMutability": "nonpayable",
      "type": "function"
    },
    {
      "inputs": [],
      "name": "startingAverageReward",
      "outputs": [
        {
          "internalType": "uint256",
          "name": "",
          "type": "uint256"
        }
      ],
      "stateMutability": "view",
      "type": "function"
    },
    {
      "inputs": [],
      "name": "statistics",
      "outputs": [
        {
          "internalType": "address",
          "name": "lastRewardTo",
          "type": "address"
        },
        {
          "internalType": "uint256",
          "name": "lastRewardAmount",
          "type": "uint256"
        },
        {
          "internalType": "uint256",
          "name": "lastRewardEthBlockNumber",
          "type": "uint256"
        },
        {
          "internalType": "uint256",
          "name": "lastRewardTimestamp",
          "type": "uint256"
        }
      ],
      "stateMutability": "view",
      "type": "function"
    },
    {
      "inputs": [
        {
          "internalType": "bytes4",
          "name": "interfaceId",
          "type": "bytes4"
        }
      ],
      "name": "supportsInterface",
      "outputs": [
        {
          "internalType": "bool",
          "name": "",
          "type": "bool"
        }
      ],
      "stateMutability": "view",
      "type": "function"
    },
    {
      "inputs": [],
      "name": "symbol",
      "outputs": [
        {
          "internalType": "string",
          "name": "",
          "type": "string"
        }
      ],
      "stateMutability": "view",
      "type": "function"
    },
    {
      "inputs": [
        {
          "internalType": "uint256",
          "name": "tokenId",
          "type": "uint256"
        }
      ],
      "name": "tokenURI",
      "outputs": [
        {
          "internalType": "string",
          "name": "",
          "type": "string"
        }
      ],
      "stateMutability": "view",
      "type": "function"
    },
    {
      "inputs": [],
      "name": "tokensMinted",
      "outputs": [
        {
          "internalType": "uint256",
          "name": "",
          "type": "uint256"
        }
      ],
      "stateMutability": "view",
      "type": "function"
    },
    {
      "inputs": [],
      "name": "totalERSupply",
      "outputs": [
        {
          "internalType": "uint256",
          "name": "",
          "type": "uint256"
        }
      ],
      "stateMutability": "view",
      "type": "function"
    },
    {
      "inputs": [],
      "name": "totalRtsPerEra",
      "outputs": [
        {
          "internalType": "uint256",
          "name": "",
          "type": "uint256"
        }
      ],
      "stateMutability": "view",
      "type": "function"
    },
    {
      "inputs": [
        {
          "internalType": "address",
          "name": "from",
          "type": "address"
        },
        {
          "internalType": "address",
          "name": "to",
          "type": "address"
        },
        {
          "internalType": "uint256",
          "name": "tokenId",
          "type": "uint256"
        }
      ],
      "name": "transferFrom",
      "outputs": [],
      "stateMutability": "nonpayable",
      "type": "function"
    },
    {
      "inputs": [
        {
          "internalType": "uint8",
          "name": "amount",
          "type": "uint8"
        }
      ],
      "name": "upgradeMiningRig",
      "outputs": [],
      "stateMutability": "payable",
      "type": "function"
    },
    {
      "inputs": [],
      "name": "withdraw",
      "outputs": [],
      "stateMutability": "nonpayable",
      "type": "function"
    }
  ],
  "bytecode": "0x608060405234801561001057600080fd5b50614eb6806100206000396000f3fe6080604052600436106103755760003560e01c80636a2e19a2116101d1578063a22cb46511610102578063b88d4fde116100a0578063e09feae31161006f578063e09feae314610d0e578063e985e9c514610d4b578063ee2e561214610d88578063fcaeece514610db357610375565b8063b88d4fde14610c52578063c87b56dd14610c7b578063cb9ae70714610cb8578063d8bfafa814610ce357610375565b8063ac693778116100dc578063ac69377814610b82578063acf86c8714610bad578063ad1dfe3b14610bea578063b57d728314610c1557610375565b8063a22cb46514610b05578063a465eeaf14610b2e578063a6487c5314610b5957610375565b806382c890fd1161016f57806395d89b411161014957806395d89b4114610a5857806395e272bd14610a835780639abc832014610ab1578063a0bcfc7f14610adc57610375565b806382c890fd146109d75780638ae0368b14610a025780638da5cb5b14610a2d57610375565b806370a08231116101ab57806370a08231146109075780637c2d542c146109445780637c7f320614610981578063829965cc146109ac57610375565b80636a2e19a21461086f5780636a586594146108b15780636de9f32b146108dc57610375565b80632d38bf7a116102ab57806347e9c095116102495780634ef37628116102235780634ef376281461079f5780634fa972e1146107ca57806356b757be146107f55780636352211e1461083257610375565b806347e9c09514610720578063490203a71461074b5780634e8021391461077657610375565b80633426e5f5116102855780633426e5f51461068a5780633ccfd60b146106b55780633d85d614146106cc57806342842e0e146106f757610375565b80632d38bf7a14610609578063313ce5671461063457806332e997081461065f57610375565b8063095ea7b31161031857806319cae462116102f257806319cae4621461055f5780631beddf1c1461058a57806322009af6146105b557806323b872dd146105e057610375565b8063095ea7b3146104ce57806317da485f146104f75780631801fbe51461052257610375565b806306fdde031161035457806306fdde031461041f57806307a11aeb1461044a578063081812fc14610466578063095b6d4c146104a357610375565b80629a9b7b1461037a57806301ffc9a7146103a557806303ca2f53146103e2575b600080fd5b34801561038657600080fd5b5061038f610dca565b60405161039c91906132ca565b60405180910390f35b3480156103b157600080fd5b506103cc60048036038101906103c79190613351565b610dd0565b6040516103d99190613399565b60405180910390f35b3480156103ee57600080fd5b50610409600480360381019061040491906133e0565b610eb2565b6040516104169190613429565b60405180910390f35b34801561042b57600080fd5b50610434610ee6565b60405161044191906134d4565b60405180910390f35b610464600480360381019061045f9190613522565b610f78565b005b34801561047257600080fd5b5061048d600480360381019061048891906133e0565b61106f565b60405161049a9190613590565b60405180910390f35b3480156104af57600080fd5b506104b86110b5565b6040516104c591906132ca565b60405180910390f35b3480156104da57600080fd5b506104f560048036038101906104f091906135d7565b6110bb565b005b34801561050357600080fd5b5061050c6111d2565b60405161051991906132ca565b60405180910390f35b34801561052e57600080fd5b506105496004803603810190610544919061364d565b6111dc565b6040516105569190613399565b60405180910390f35b34801561056b57600080fd5b506105746113d7565b60405161058191906132ca565b60405180910390f35b34801561059657600080fd5b5061059f6113dd565b6040516105ac91906132ca565b60405180910390f35b3480156105c157600080fd5b506105ca6113e2565b6040516105d791906132ca565b60405180910390f35b3480156105ec57600080fd5b506106076004803603810190610602919061368d565b6113e7565b005b34801561061557600080fd5b5061061e611447565b60405161062b91906132ca565b60405180910390f35b34801561064057600080fd5b5061064961144d565b6040516106569190613429565b60405180910390f35b34801561066b57600080fd5b50610674611452565b60405161068191906132ca565b60405180910390f35b34801561069657600080fd5b5061069f61145c565b6040516106ac91906132ca565b60405180910390f35b3480156106c157600080fd5b506106ca611461565b005b3480156106d857600080fd5b506106e161155c565b6040516106ee9190613429565b60405180910390f35b34801561070357600080fd5b5061071e6004803603810190610719919061368d565b61156f565b005b34801561072c57600080fd5b5061073561158f565b60405161074291906132ca565b60405180910390f35b34801561075757600080fd5b50610760611595565b60405161076d91906132ca565b60405180910390f35b34801561078257600080fd5b5061079d600480360381019061079891906133e0565b6115ba565b005b3480156107ab57600080fd5b506107b4611654565b6040516107c191906136ef565b60405180910390f35b3480156107d657600080fd5b506107df61165d565b6040516107ec91906132ca565b60405180910390f35b34801561080157600080fd5b5061081c600480360381019061081791906133e0565b611680565b60405161082991906132ca565b60405180910390f35b34801561083e57600080fd5b50610859600480360381019061085491906133e0565b611698565b6040516108669190613590565b60405180910390f35b34801561087b57600080fd5b50610896600480360381019061089191906133e0565b61171e565b6040516108a89695949392919061370a565b60405180910390f35b3480156108bd57600080fd5b506108c66118a9565b6040516108d391906132ca565b60405180910390f35b3480156108e857600080fd5b506108f16118b0565b6040516108fe91906132ca565b60405180910390f35b34801561091357600080fd5b5061092e6004803603810190610929919061376b565b6118b6565b60405161093b91906132ca565b60405180910390f35b34801561095057600080fd5b5061096b6004803603810190610966919061364d565b61196d565b60405161097891906136ef565b60405180910390f35b34801561098d57600080fd5b50610996611981565b6040516109a391906132ca565b60405180910390f35b3480156109b857600080fd5b506109c16119a3565b6040516109ce91906132ca565b60405180910390f35b3480156109e357600080fd5b506109ec6119a9565b6040516109f991906132ca565b60405180910390f35b348015610a0e57600080fd5b50610a176119ca565b604051610a2491906136ef565b60405180910390f35b348015610a3957600080fd5b50610a426119d0565b604051610a4f9190613590565b60405180910390f35b348015610a6457600080fd5b50610a6d6119f6565b604051610a7a91906134d4565b60405180910390f35b348015610a8f57600080fd5b50610a98611a88565b604051610aa89493929190613798565b60405180910390f35b348015610abd57600080fd5b50610ac6611ac6565b604051610ad391906134d4565b60405180910390f35b348015610ae857600080fd5b50610b036004803603810190610afe9190613912565b611b54565b005b348015610b1157600080fd5b50610b2c6004803603810190610b279190613987565b611bf7565b005b348015610b3a57600080fd5b50610b43611c0d565b604051610b5091906132ca565b60405180910390f35b348015610b6557600080fd5b50610b806004803603810190610b7b91906139c7565b611c17565b005b348015610b8e57600080fd5b50610b97611ef9565b604051610ba491906132ca565b60405180910390f35b348015610bb957600080fd5b50610bd46004803603810190610bcf9190613a6e565b611eff565b604051610be191906132ca565b60405180910390f35b348015610bf657600080fd5b50610bff611fa7565b604051610c0c91906132ca565b60405180910390f35b348015610c2157600080fd5b50610c3c6004803603810190610c37919061376b565b611fb9565b604051610c499190613429565b60405180910390f35b348015610c5e57600080fd5b50610c796004803603810190610c749190613b4f565b611fd9565b005b348015610c8757600080fd5b50610ca26004803603810190610c9d91906133e0565b61203b565b604051610caf91906134d4565b60405180910390f35b348015610cc457600080fd5b50610ccd61209b565b604051610cda91906132ca565b60405180910390f35b348015610cef57600080fd5b50610cf86120a1565b604051610d0591906132ca565b60405180910390f35b348015610d1a57600080fd5b50610d356004803603810190610d3091906133e0565b6120a6565b604051610d4291906136ef565b60405180910390f35b348015610d5757600080fd5b50610d726004803603810190610d6d9190613bd2565b6120be565b604051610d7f9190613399565b60405180910390f35b348015610d9457600080fd5b50610d9d612152565b604051610daa91906132ca565b60405180910390f35b348015610dbf57600080fd5b50610dc8612158565b005b609e5481565b60007f80ac58cd000000000000000000000000000000000000000000000000000000007bffffffffffffffffffffffffffffffffffffffffffffffffffffffff1916827bffffffffffffffffffffffffffffffffffffffffffffffffffffffff19161480610e9b57507f5b5e139f000000000000000000000000000000000000000000000000000000007bffffffffffffffffffffffffffffffffffffffffffffffffffffffff1916827bffffffffffffffffffffffffffffffffffffffffffffffffffffffff1916145b80610eab5750610eaa8261220f565b5b9050919050565b60a88181548110610ec257600080fd5b9060005260206000209060209182820401919006915054906101000a900460ff1681565b6060606c8054610ef590613c41565b80601f0160208091040260200160405190810160405280929190818152602001828054610f2190613c41565b8015610f6e5780601f10610f4357610100808354040283529160200191610f6e565b820191906000526020600020905b815481529060010190602001808311610f5157829003601f168201915b5050505050905090565b8060ff1660a654610f899190613ca1565b341015610f9557600080fd5b60008160a960003373ffffffffffffffffffffffffffffffffffffffff1673ffffffffffffffffffffffffffffffffffffffff16815260200190815260200160002060009054906101000a900460ff16610fef9190613ce3565b905060a760009054906101000a900460ff1660ff168160ff16111561101357600080fd5b8060a960003373ffffffffffffffffffffffffffffffffffffffff1673ffffffffffffffffffffffffffffffffffffffff16815260200190815260200160002060006101000a81548160ff021916908360ff1602179055505050565b600061107a82612279565b6070600083815260200190815260200160002060009054906101000a900473ffffffffffffffffffffffffffffffffffffffff169050919050565b6107d081565b60006110c682611698565b90508073ffffffffffffffffffffffffffffffffffffffff168373ffffffffffffffffffffffffffffffffffffffff1603611136576040517f08c379a000000000000000000000000000000000000000000000000000000000815260040161112d90613d8a565b60405180910390fd5b8073ffffffffffffffffffffffffffffffffffffffff166111556122c4565b73ffffffffffffffffffffffffffffffffffffffff16148061118457506111838161117e6122c4565b6120be565b5b6111c3576040517f08c379a00000000000000000000000000000000000000000000000000000000081526004016111ba90613e1c565b60405180910390fd5b6111cd83836122cc565b505050565b6000600154905090565b6000609e600081546111ed90613e3c565b919050819055609e8190555060006112058484612385565b90506001548160001c111561124f576040517f08c379a000000000000000000000000000000000000000000000000000000000815260040161124690613ed0565b60405180910390fd5b600060a16000609e5481526020019081526020016000205490506000801b81146112ae576040517f08c379a00000000000000000000000000000000000000000000000000000000081526004016112a590613f3c565b60405180910390fd5b8160a16000609e548152602001908152602001600020819055506112d433609e546123fd565b60006103e88360001c169050600060648260a860a960003373ffffffffffffffffffffffffffffffffffffffff1673ffffffffffffffffffffffffffffffffffffffff16815260200190815260200160002060009054906101000a900460ff1660ff168154811061134857611347613f5c565b5b90600052602060002090602091828204019190069054906101000a900460ff1660ff166113759190613ca1565b61137f9190613fba565b905060008111156113a5578060aa6000609e548152602001908152602001600020819055505b80826113b19190613feb565b600260008282546113c29190613feb565b92505081905550600194505050505092915050565b60015481565b606481565b60fa81565b6113f86113f26122c4565b8261241b565b611437576040517f08c379a000000000000000000000000000000000000000000000000000000000815260040161142e90614091565b60405180910390fd5b6114428383836124b0565b505050565b60a45481565b601281565b6000600154905090565b60b481565b60ab60009054906101000a900473ffffffffffffffffffffffffffffffffffffffff1673ffffffffffffffffffffffffffffffffffffffff163373ffffffffffffffffffffffffffffffffffffffff16146114f1576040517f08c379a00000000000000000000000000000000000000000000000000000000081526004016114e890614123565b60405180910390fd5b60ab60009054906101000a900473ffffffffffffffffffffffffffffffffffffffff1673ffffffffffffffffffffffffffffffffffffffff166108fc479081150290604051600060405180830381858888f19350505050158015611559573d6000803e3d6000fd5b50565b60a760009054906101000a900460ff1681565b61158a83838360405180602001604052806000815250611fd9565b505050565b60a65481565b6000601260ff16600a6115a89190614276565b6103e86115b59190613ca1565b905090565b60ab60009054906101000a900473ffffffffffffffffffffffffffffffffffffffff1673ffffffffffffffffffffffffffffffffffffffff163373ffffffffffffffffffffffffffffffffffffffff161461164a576040517f08c379a000000000000000000000000000000000000000000000000000000000815260040161164190614123565b60405180910390fd5b8060a68190555050565b60008054905090565b601260ff16600a61166e9190614276565b633b9aca0061167d9190613ca1565b81565b60aa6020528060005260406000206000915090505481565b6000806116a4836127a9565b9050600073ffffffffffffffffffffffffffffffffffffffff168173ffffffffffffffffffffffffffffffffffffffff1603611715576040517f08c379a000000000000000000000000000000000000000000000000000000000815260040161170c9061430d565b60405180910390fd5b80915050919050565b600080600080600080600060a160008981526020019081526020016000205460001c905060006103e8603083901c16905060006103e8603c84901c1690506000600a61176a8484611eff565b6117749190613ca1565b9050600060aa60008d8152602001908152602001600020546103e8861661179b9190613feb565b905060006103e8600c87901c1660fa6117b49190613feb565b905060006103e8601888901c1660fa6117cd9190613feb565b905060006103e8602489901c1660fa6117e69190613feb565b9050600085111561188657606485856117ff9190613ca1565b6118099190613fba565b846118149190613feb565b9350606485846118249190613ca1565b61182e9190613fba565b836118399190613feb565b9250606485836118499190613ca1565b6118539190613fba565b8261185e9190613feb565b91506064858261186e9190613ca1565b6118789190613fba565b816118839190613feb565b90505b838383838a8a9d509d509d509d509d509d50505050505050505091939550919395565b6201000081565b60025481565b60008073ffffffffffffffffffffffffffffffffffffffff168273ffffffffffffffffffffffffffffffffffffffff1603611926576040517f08c379a000000000000000000000000000000000000000000000000000000000815260040161191d9061439f565b60405180910390fd5b606f60008373ffffffffffffffffffffffffffffffffffffffff1673ffffffffffffffffffffffffffffffffffffffff168152602001908152602001600020549050919050565b60006119798383612385565b905092915050565b7d10000000000000000000000000000000000000000000000000000000000081565b60a25481565b601260ff16600a6119ba9190614276565b6103e86119c79190613ca1565b81565b60005481565b60ab60009054906101000a900473ffffffffffffffffffffffffffffffffffffffff1681565b6060606d8054611a0590613c41565b80601f0160208091040260200160405190810160405280929190818152602001828054611a3190613c41565b8015611a7e5780601f10611a5357610100808354040283529160200191611a7e565b820191906000526020600020905b815481529060010190602001808311611a6157829003601f168201915b5050505050905090565b60038060000160009054906101000a900473ffffffffffffffffffffffffffffffffffffffff16908060010154908060020154908060030154905084565b609f8054611ad390613c41565b80601f0160208091040260200160405190810160405280929190818152602001828054611aff90613c41565b8015611b4c5780601f10611b2157610100808354040283529160200191611b4c565b820191906000526020600020905b815481529060010190602001808311611b2f57829003601f168201915b505050505081565b60ab60009054906101000a900473ffffffffffffffffffffffffffffffffffffffff1673ffffffffffffffffffffffffffffffffffffffff163373ffffffffffffffffffffffffffffffffffffffff1614611be4576040517f08c379a0000000000000000000000000000000000000000000000000000000008152600401611bdb90614123565b60405180910390fd5b80609f9081611bf3919061456b565b5050565b611c09611c026122c4565b83836127e6565b5050565b6000609e54905090565b6000600760019054906101000a900460ff16159050808015611c4b57506001600760009054906101000a900460ff1660ff16105b80611c7a5750611c5a30612952565b158015611c7957506001600760009054906101000a900460ff1660ff16145b5b611cb9576040517f08c379a0000000000000000000000000000000000000000000000000000000008152600401611cb0906146af565b60405180910390fd5b6001600760006101000a81548160ff021916908360ff1602179055508015611cf7576001600760016101000a81548160ff0219169083151502179055505b600073ffffffffffffffffffffffffffffffffffffffff1660ab60009054906101000a900473ffffffffffffffffffffffffffffffffffffffff1673ffffffffffffffffffffffffffffffffffffffff1614611d5257600080fd5b3360ab60006101000a81548173ffffffffffffffffffffffffffffffffffffffff021916908373ffffffffffffffffffffffffffffffffffffffff160217905550611d9c82611b54565b600143611da991906146cf565b406000819055504360a3819055507d100000000000000000000000000000000000000000000000000000000000600181905550666a94d74f43000060a681905550600a60a760006101000a81548160ff021916908360ff160217905550604051806101600160405280600060ff168152602001600560ff168152602001600a60ff168152602001600f60ff168152602001601660ff168152602001601d60ff168152602001602460ff168152602001602e60ff168152602001603860ff168152602001604260ff168152602001605060ff1681525060a890600b611e8e9291906131ed565b50611e998484612975565b8015611ef3576000600760016101000a81548160ff0219169083151502179055507f7f26b83ff96e1f2b6a682f133852f6798a09c465da95921460cefb38474024986001604051611eea919061473e565b60405180910390a15b50505050565b60a05481565b60006101f4831115611f20576101f483611f1991906146cf565b9250611f31565b826101f4611f2e91906146cf565b92505b6101f4821115611f50576101f482611f4991906146cf565b9150611f61565b816101f4611f5e91906146cf565b91505b6000611f8f600284611f739190614759565b600286611f809190614759565b611f8a9190613feb565b6129d2565b9050605081611f9e9190613fba565b91505092915050565b60026107d0611fb69190613fba565b81565b60a96020528060005260406000206000915054906101000a900460ff1681565b611fea611fe46122c4565b8361241b565b612029576040517f08c379a000000000000000000000000000000000000000000000000000000000815260040161202090614091565b60405180910390fd5b61203584848484612ab1565b50505050565b60606000609f805461204c90613c41565b9050116120685760405180602001604052806000815250612094565b609f61207383612b0d565b6040516020016120849291906148af565b6040516020818303038152906040525b9050919050565b60a35481565b600a81565b60a16020528060005260406000206000915090505481565b6000607160008473ffffffffffffffffffffffffffffffffffffffff1673ffffffffffffffffffffffffffffffffffffffff16815260200190815260200160002060008373ffffffffffffffffffffffffffffffffffffffff1673ffffffffffffffffffffffffffffffffffffffff16815260200190815260200160002060009054906101000a900460ff16905092915050565b60a55481565b60ab60009054906101000a900473ffffffffffffffffffffffffffffffffffffffff1673ffffffffffffffffffffffffffffffffffffffff163373ffffffffffffffffffffffffffffffffffffffff16146121e8576040517f08c379a00000000000000000000000000000000000000000000000000000000081526004016121df90614123565b60405180910390fd5b7d100000000000000000000000000000000000000000000000000000000000600181905550565b60007f01ffc9a7000000000000000000000000000000000000000000000000000000007bffffffffffffffffffffffffffffffffffffffffffffffffffffffff1916827bffffffffffffffffffffffffffffffffffffffffffffffffffffffff1916149050919050565b61228281612bdb565b6122c1576040517f08c379a00000000000000000000000000000000000000000000000000000000081526004016122b89061430d565b60405180910390fd5b50565b600033905090565b816070600083815260200190815260200160002060006101000a81548173ffffffffffffffffffffffffffffffffffffffff021916908373ffffffffffffffffffffffffffffffffffffffff160217905550808273ffffffffffffffffffffffffffffffffffffffff1661233f83611698565b73ffffffffffffffffffffffffffffffffffffffff167f8c5be1e5ebec7d5bd14f71427d1e84f3dd0314c0f7b2291e5b200ac8c7c3b92560405160405180910390a45050565b60008054338460405160200161239d93929190614968565b6040516020818303038152906040528051906020012090508181146123f7576040517f08c379a00000000000000000000000000000000000000000000000000000000081526004016123ee906149f1565b60405180910390fd5b92915050565b612417828260405180602001604052806000815250612c1c565b5050565b60008061242783611698565b90508073ffffffffffffffffffffffffffffffffffffffff168473ffffffffffffffffffffffffffffffffffffffff161480612469575061246881856120be565b5b806124a757508373ffffffffffffffffffffffffffffffffffffffff1661248f8461106f565b73ffffffffffffffffffffffffffffffffffffffff16145b91505092915050565b8273ffffffffffffffffffffffffffffffffffffffff166124d082611698565b73ffffffffffffffffffffffffffffffffffffffff1614612526576040517f08c379a000000000000000000000000000000000000000000000000000000000815260040161251d90614a83565b60405180910390fd5b600073ffffffffffffffffffffffffffffffffffffffff168273ffffffffffffffffffffffffffffffffffffffff1603612595576040517f08c379a000000000000000000000000000000000000000000000000000000000815260040161258c90614b15565b60405180910390fd5b6125a28383836001612c77565b8273ffffffffffffffffffffffffffffffffffffffff166125c282611698565b73ffffffffffffffffffffffffffffffffffffffff1614612618576040517f08c379a000000000000000000000000000000000000000000000000000000000815260040161260f90614a83565b60405180910390fd5b6070600082815260200190815260200160002060006101000a81549073ffffffffffffffffffffffffffffffffffffffff02191690556001606f60008573ffffffffffffffffffffffffffffffffffffffff1673ffffffffffffffffffffffffffffffffffffffff168152602001908152602001600020600082825403925050819055506001606f60008473ffffffffffffffffffffffffffffffffffffffff1673ffffffffffffffffffffffffffffffffffffffff1681526020019081526020016000206000828254019250508190555081606e600083815260200190815260200160002060006101000a81548173ffffffffffffffffffffffffffffffffffffffff021916908373ffffffffffffffffffffffffffffffffffffffff160217905550808273ffffffffffffffffffffffffffffffffffffffff168473ffffffffffffffffffffffffffffffffffffffff167fddf252ad1be2c89b69c2b068fc378daa952ba7f163c4a11628f55a4df523b3ef60405160405180910390a46127a48383836001612c7d565b505050565b6000606e600083815260200190815260200160002060009054906101000a900473ffffffffffffffffffffffffffffffffffffffff169050919050565b8173ffffffffffffffffffffffffffffffffffffffff168373ffffffffffffffffffffffffffffffffffffffff1603612854576040517f08c379a000000000000000000000000000000000000000000000000000000000815260040161284b90614b81565b60405180910390fd5b80607160008573ffffffffffffffffffffffffffffffffffffffff1673ffffffffffffffffffffffffffffffffffffffff16815260200190815260200160002060008473ffffffffffffffffffffffffffffffffffffffff1673ffffffffffffffffffffffffffffffffffffffff16815260200190815260200160002060006101000a81548160ff0219169083151502179055508173ffffffffffffffffffffffffffffffffffffffff168373ffffffffffffffffffffffffffffffffffffffff167f17307eab39ab6107e8899845ad3d59bd9653f200f220920489ca2b5937696c31836040516129459190613399565b60405180910390a3505050565b6000808273ffffffffffffffffffffffffffffffffffffffff163b119050919050565b600760019054906101000a900460ff166129c4576040517f08c379a00000000000000000000000000000000000000000000000000000000081526004016129bb90614c13565b60405180910390fd5b6129ce8282612c83565b5050565b60008160b591507101000000000000000000000000000000000081106129ff578060801c90508160401b91505b69010000000000000000008110612a1d578060401c90508160201b91505b650100000000008110612a37578060201c90508160101b91505b63010000008110612a4f578060101c90508160081b91505b620100008101820260121c9150818304820160011c9150818304820160011c9150818304820160011c9150818304820160011c9150818304820160011c9150818304820160011c9150818304820160011c915081828404108203915050919050565b612abc8484846124b0565b612ac884848484612cf6565b612b07576040517f08c379a0000000000000000000000000000000000000000000000000000000008152600401612afe90614ca5565b60405180910390fd5b50505050565b606060006001612b1c84612e7d565b01905060008167ffffffffffffffff811115612b3b57612b3a6137e7565b5b6040519080825280601f01601f191660200182016040528015612b6d5781602001600182028036833780820191505090505b509050600082602001820190505b600115612bd0578080600190039150507f3031323334353637383961626364656600000000000000000000000000000000600a86061a8153600a8581612bc457612bc3613f8b565b5b04945060008503612b7b575b819350505050919050565b60008073ffffffffffffffffffffffffffffffffffffffff16612bfd836127a9565b73ffffffffffffffffffffffffffffffffffffffff1614159050919050565b612c268383612fd0565b612c336000848484612cf6565b612c72576040517f08c379a0000000000000000000000000000000000000000000000000000000008152600401612c6990614ca5565b60405180910390fd5b505050565b50505050565b50505050565b600760019054906101000a900460ff16612cd2576040517f08c379a0000000000000000000000000000000000000000000000000000000008152600401612cc990614c13565b60405180910390fd5b81606c9081612ce1919061456b565b5080606d9081612cf1919061456b565b505050565b6000612d178473ffffffffffffffffffffffffffffffffffffffff16612952565b15612e70578373ffffffffffffffffffffffffffffffffffffffff1663150b7a02612d406122c4565b8786866040518563ffffffff1660e01b8152600401612d629493929190614d1a565b6020604051808303816000875af1925050508015612d9e57506040513d601f19601f82011682018060405250810190612d9b9190614d7b565b60015b612e20573d8060008114612dce576040519150601f19603f3d011682016040523d82523d6000602084013e612dd3565b606091505b506000815103612e18576040517f08c379a0000000000000000000000000000000000000000000000000000000008152600401612e0f90614ca5565b60405180910390fd5b805181602001fd5b63150b7a0260e01b7bffffffffffffffffffffffffffffffffffffffffffffffffffffffff1916817bffffffffffffffffffffffffffffffffffffffffffffffffffffffff191614915050612e75565b600190505b949350505050565b600080600090507a184f03e93ff9f4daa797ed6e38ed64bf6a1f0100000000000000008310612edb577a184f03e93ff9f4daa797ed6e38ed64bf6a1f0100000000000000008381612ed157612ed0613f8b565b5b0492506040810190505b6d04ee2d6d415b85acef81000000008310612f18576d04ee2d6d415b85acef81000000008381612f0e57612f0d613f8b565b5b0492506020810190505b662386f26fc100008310612f4757662386f26fc100008381612f3d57612f3c613f8b565b5b0492506010810190505b6305f5e1008310612f70576305f5e1008381612f6657612f65613f8b565b5b0492506008810190505b6127108310612f95576127108381612f8b57612f8a613f8b565b5b0492506004810190505b60648310612fb85760648381612fae57612fad613f8b565b5b0492506002810190505b600a8310612fc7576001810190505b80915050919050565b600073ffffffffffffffffffffffffffffffffffffffff168273ffffffffffffffffffffffffffffffffffffffff160361303f576040517f08c379a000000000000000000000000000000000000000000000000000000000815260040161303690614df4565b60405180910390fd5b61304881612bdb565b15613088576040517f08c379a000000000000000000000000000000000000000000000000000000000815260040161307f90614e60565b60405180910390fd5b613096600083836001612c77565b61309f81612bdb565b156130df576040517f08c379a00000000000000000000000000000000000000000000000000000000081526004016130d690614e60565b60405180910390fd5b6001606f60008473ffffffffffffffffffffffffffffffffffffffff1673ffffffffffffffffffffffffffffffffffffffff1681526020019081526020016000206000828254019250508190555081606e600083815260200190815260200160002060006101000a81548173ffffffffffffffffffffffffffffffffffffffff021916908373ffffffffffffffffffffffffffffffffffffffff160217905550808273ffffffffffffffffffffffffffffffffffffffff16600073ffffffffffffffffffffffffffffffffffffffff167fddf252ad1be2c89b69c2b068fc378daa952ba7f163c4a11628f55a4df523b3ef60405160405180910390a46131e9600083836001612c7d565b5050565b82805482825590600052602060002090601f016020900481019282156132835791602002820160005b8382111561325457835183826101000a81548160ff021916908360ff1602179055509260200192600101602081600001049283019260010302613216565b80156132815782816101000a81549060ff0219169055600101602081600001049283019260010302613254565b505b5090506132909190613294565b5090565b5b808211156132ad576000816000905550600101613295565b5090565b6000819050919050565b6132c4816132b1565b82525050565b60006020820190506132df60008301846132bb565b92915050565b6000604051905090565b600080fd5b600080fd5b60007fffffffff0000000000000000000000000000000000000000000000000000000082169050919050565b61332e816132f9565b811461333957600080fd5b50565b60008135905061334b81613325565b92915050565b600060208284031215613367576133666132ef565b5b60006133758482850161333c565b91505092915050565b60008115159050919050565b6133938161337e565b82525050565b60006020820190506133ae600083018461338a565b92915050565b6133bd816132b1565b81146133c857600080fd5b50565b6000813590506133da816133b4565b92915050565b6000602082840312156133f6576133f56132ef565b5b6000613404848285016133cb565b91505092915050565b600060ff82169050919050565b6134238161340d565b82525050565b600060208201905061343e600083018461341a565b92915050565b600081519050919050565b600082825260208201905092915050565b60005b8381101561347e578082015181840152602081019050613463565b60008484015250505050565b6000601f19601f8301169050919050565b60006134a682613444565b6134b0818561344f565b93506134c0818560208601613460565b6134c98161348a565b840191505092915050565b600060208201905081810360008301526134ee818461349b565b905092915050565b6134ff8161340d565b811461350a57600080fd5b50565b60008135905061351c816134f6565b92915050565b600060208284031215613538576135376132ef565b5b60006135468482850161350d565b91505092915050565b600073ffffffffffffffffffffffffffffffffffffffff82169050919050565b600061357a8261354f565b9050919050565b61358a8161356f565b82525050565b60006020820190506135a56000830184613581565b92915050565b6135b48161356f565b81146135bf57600080fd5b50565b6000813590506135d1816135ab565b92915050565b600080604083850312156135ee576135ed6132ef565b5b60006135fc858286016135c2565b925050602061360d858286016133cb565b9150509250929050565b6000819050919050565b61362a81613617565b811461363557600080fd5b50565b60008135905061364781613621565b92915050565b60008060408385031215613664576136636132ef565b5b6000613672858286016133cb565b925050602061368385828601613638565b9150509250929050565b6000806000606084860312156136a6576136a56132ef565b5b60006136b4868287016135c2565b93505060206136c5868287016135c2565b92505060406136d6868287016133cb565b9150509250925092565b6136e981613617565b82525050565b600060208201905061370460008301846136e0565b92915050565b600060c08201905061371f60008301896132bb565b61372c60208301886132bb565b61373960408301876132bb565b61374660608301866132bb565b61375360808301856132bb565b61376060a08301846132bb565b979650505050505050565b600060208284031215613781576137806132ef565b5b600061378f848285016135c2565b91505092915050565b60006080820190506137ad6000830187613581565b6137ba60208301866132bb565b6137c760408301856132bb565b6137d460608301846132bb565b95945050505050565b600080fd5b600080fd5b7f4e487b7100000000000000000000000000000000000000000000000000000000600052604160045260246000fd5b61381f8261348a565b810181811067ffffffffffffffff8211171561383e5761383d6137e7565b5b80604052505050565b60006138516132e5565b905061385d8282613816565b919050565b600067ffffffffffffffff82111561387d5761387c6137e7565b5b6138868261348a565b9050602081019050919050565b82818337600083830152505050565b60006138b56138b084613862565b613847565b9050828152602081018484840111156138d1576138d06137e2565b5b6138dc848285613893565b509392505050565b600082601f8301126138f9576138f86137dd565b5b81356139098482602086016138a2565b91505092915050565b600060208284031215613928576139276132ef565b5b600082013567ffffffffffffffff811115613946576139456132f4565b5b613952848285016138e4565b91505092915050565b6139648161337e565b811461396f57600080fd5b50565b6000813590506139818161395b565b92915050565b6000806040838503121561399e5761399d6132ef565b5b60006139ac858286016135c2565b92505060206139bd85828601613972565b9150509250929050565b6000806000606084860312156139e0576139df6132ef565b5b600084013567ffffffffffffffff8111156139fe576139fd6132f4565b5b613a0a868287016138e4565b935050602084013567ffffffffffffffff811115613a2b57613a2a6132f4565b5b613a37868287016138e4565b925050604084013567ffffffffffffffff811115613a5857613a576132f4565b5b613a64868287016138e4565b9150509250925092565b60008060408385031215613a8557613a846132ef565b5b6000613a93858286016133cb565b9250506020613aa4858286016133cb565b9150509250929050565b600067ffffffffffffffff821115613ac957613ac86137e7565b5b613ad28261348a565b9050602081019050919050565b6000613af2613aed84613aae565b613847565b905082815260208101848484011115613b0e57613b0d6137e2565b5b613b19848285613893565b509392505050565b600082601f830112613b3657613b356137dd565b5b8135613b46848260208601613adf565b91505092915050565b60008060008060808587031215613b6957613b686132ef565b5b6000613b77878288016135c2565b9450506020613b88878288016135c2565b9350506040613b99878288016133cb565b925050606085013567ffffffffffffffff811115613bba57613bb96132f4565b5b613bc687828801613b21565b91505092959194509250565b60008060408385031215613be957613be86132ef565b5b6000613bf7858286016135c2565b9250506020613c08858286016135c2565b9150509250929050565b7f4e487b7100000000000000000000000000000000000000000000000000000000600052602260045260246000fd5b60006002820490506001821680613c5957607f821691505b602082108103613c6c57613c6b613c12565b5b50919050565b7f4e487b7100000000000000000000000000000000000000000000000000000000600052601160045260246000fd5b6000613cac826132b1565b9150613cb7836132b1565b9250828202613cc5816132b1565b91508282048414831517613cdc57613cdb613c72565b5b5092915050565b6000613cee8261340d565b9150613cf98361340d565b9250828201905060ff811115613d1257613d11613c72565b5b92915050565b7f4552433732313a20617070726f76616c20746f2063757272656e74206f776e6560008201527f7200000000000000000000000000000000000000000000000000000000000000602082015250565b6000613d7460218361344f565b9150613d7f82613d18565b604082019050919050565b60006020820190508181036000830152613da381613d67565b9050919050565b7f4552433732313a20617070726f76652063616c6c6572206973206e6f7420746f60008201527f6b656e206f776e6572206f7220617070726f76656420666f7220616c6c000000602082015250565b6000613e06603d8361344f565b9150613e1182613daa565b604082019050919050565b60006020820190508181036000830152613e3581613df9565b9050919050565b6000613e47826132b1565b91507fffffffffffffffffffffffffffffffffffffffffffffffffffffffffffffffff8203613e7957613e78613c72565b5b600182019050919050565b7f4e6f6e636520696e636f72726563740000000000000000000000000000000000600082015250565b6000613eba600f8361344f565b9150613ec582613e84565b602082019050919050565b60006020820190508181036000830152613ee981613ead565b9050919050565b7f536f6c7574696f6e206578697374000000000000000000000000000000000000600082015250565b6000613f26600e8361344f565b9150613f3182613ef0565b602082019050919050565b60006020820190508181036000830152613f5581613f19565b9050919050565b7f4e487b7100000000000000000000000000000000000000000000000000000000600052603260045260246000fd5b7f4e487b7100000000000000000000000000000000000000000000000000000000600052601260045260246000fd5b6000613fc5826132b1565b9150613fd0836132b1565b925082613fe057613fdf613f8b565b5b828204905092915050565b6000613ff6826132b1565b9150614001836132b1565b925082820190508082111561401957614018613c72565b5b92915050565b7f4552433732313a2063616c6c6572206973206e6f7420746f6b656e206f776e6560008201527f72206f7220617070726f76656400000000000000000000000000000000000000602082015250565b600061407b602d8361344f565b91506140868261401f565b604082019050919050565b600060208201905081810360008301526140aa8161406e565b9050919050565b7f4f6e6c79206f776e657220697320616c6c6f77656420746f20706572666f726d60008201527f207468697320616374696f6e0000000000000000000000000000000000000000602082015250565b600061410d602c8361344f565b9150614118826140b1565b604082019050919050565b6000602082019050818103600083015261413c81614100565b9050919050565b60008160011c9050919050565b6000808291508390505b600185111561419a5780860481111561417657614175613c72565b5b60018516156141855780820291505b808102905061419385614143565b945061415a565b94509492505050565b6000826141b3576001905061426f565b816141c1576000905061426f565b81600181146141d757600281146141e157614210565b600191505061426f565b60ff8411156141f3576141f2613c72565b5b8360020a91508482111561420a57614209613c72565b5b5061426f565b5060208310610133831016604e8410600b84101617156142455782820a9050838111156142405761423f613c72565b5b61426f565b6142528484846001614150565b9250905081840481111561426957614268613c72565b5b81810290505b9392505050565b6000614281826132b1565b915061428c836132b1565b92506142b97fffffffffffffffffffffffffffffffffffffffffffffffffffffffffffffffff84846141a3565b905092915050565b7f4552433732313a20696e76616c696420746f6b656e2049440000000000000000600082015250565b60006142f760188361344f565b9150614302826142c1565b602082019050919050565b60006020820190508181036000830152614326816142ea565b9050919050565b7f4552433732313a2061646472657373207a65726f206973206e6f74206120766160008201527f6c6964206f776e65720000000000000000000000000000000000000000000000602082015250565b600061438960298361344f565b91506143948261432d565b604082019050919050565b600060208201905081810360008301526143b88161437c565b9050919050565b60008190508160005260206000209050919050565b60006020601f8301049050919050565b600082821b905092915050565b6000600883026144217fffffffffffffffffffffffffffffffffffffffffffffffffffffffffffffffff826143e4565b61442b86836143e4565b95508019841693508086168417925050509392505050565b6000819050919050565b600061446861446361445e846132b1565b614443565b6132b1565b9050919050565b6000819050919050565b6144828361444d565b61449661448e8261446f565b8484546143f1565b825550505050565b600090565b6144ab61449e565b6144b6818484614479565b505050565b5b818110156144da576144cf6000826144a3565b6001810190506144bc565b5050565b601f82111561451f576144f0816143bf565b6144f9846143d4565b81016020851015614508578190505b61451c614514856143d4565b8301826144bb565b50505b505050565b600082821c905092915050565b600061454260001984600802614524565b1980831691505092915050565b600061455b8383614531565b9150826002028217905092915050565b61457482613444565b67ffffffffffffffff81111561458d5761458c6137e7565b5b6145978254613c41565b6145a28282856144de565b600060209050601f8311600181146145d557600084156145c3578287015190505b6145cd858261454f565b865550614635565b601f1984166145e3866143bf565b60005b8281101561460b578489015182556001820191506020850194506020810190506145e6565b868310156146285784890151614624601f891682614531565b8355505b6001600288020188555050505b505050505050565b7f496e697469616c697a61626c653a20636f6e747261637420697320616c72656160008201527f647920696e697469616c697a6564000000000000000000000000000000000000602082015250565b6000614699602e8361344f565b91506146a48261463d565b604082019050919050565b600060208201905081810360008301526146c88161468c565b9050919050565b60006146da826132b1565b91506146e5836132b1565b92508282039050818111156146fd576146fc613c72565b5b92915050565b6000819050919050565b600061472861472361471e84614703565b614443565b61340d565b9050919050565b6147388161470d565b82525050565b6000602082019050614753600083018461472f565b92915050565b6000614764826132b1565b915061476f8361340d565b925061479c7fffffffffffffffffffffffffffffffffffffffffffffffffffffffffffffffff84846141a3565b905092915050565b600081905092915050565b600081546147bc81613c41565b6147c681866147a4565b945060018216600081146147e157600181146147f657614829565b60ff1983168652811515820286019350614829565b6147ff856143bf565b60005b8381101561482157815481890152600182019150602081019050614802565b838801955050505b50505092915050565b600061483d82613444565b61484781856147a4565b9350614857818560208601613460565b80840191505092915050565b7f2e6a736f6e000000000000000000000000000000000000000000000000000000600082015250565b60006148996005836147a4565b91506148a482614863565b600582019050919050565b60006148bb82856147af565b91506148c78284614832565b91506148d28261488c565b91508190509392505050565b6000819050919050565b6148f96148f482613617565b6148de565b82525050565b60008160601b9050919050565b6000614917826148ff565b9050919050565b60006149298261490c565b9050919050565b61494161493c8261356f565b61491e565b82525050565b6000819050919050565b61496261495d826132b1565b614947565b82525050565b600061497482866148e8565b6020820191506149848285614930565b6014820191506149948284614951565b602082019150819050949350505050565b7f44696765737420697320646966666572656e7400000000000000000000000000600082015250565b60006149db60138361344f565b91506149e6826149a5565b602082019050919050565b60006020820190508181036000830152614a0a816149ce565b9050919050565b7f4552433732313a207472616e736665722066726f6d20696e636f72726563742060008201527f6f776e6572000000000000000000000000000000000000000000000000000000602082015250565b6000614a6d60258361344f565b9150614a7882614a11565b604082019050919050565b60006020820190508181036000830152614a9c81614a60565b9050919050565b7f4552433732313a207472616e7366657220746f20746865207a65726f2061646460008201527f7265737300000000000000000000000000000000000000000000000000000000602082015250565b6000614aff60248361344f565b9150614b0a82614aa3565b604082019050919050565b60006020820190508181036000830152614b2e81614af2565b9050919050565b7f4552433732313a20617070726f766520746f2063616c6c657200000000000000600082015250565b6000614b6b60198361344f565b9150614b7682614b35565b602082019050919050565b60006020820190508181036000830152614b9a81614b5e565b9050919050565b7f496e697469616c697a61626c653a20636f6e7472616374206973206e6f74206960008201527f6e697469616c697a696e67000000000000000000000000000000000000000000602082015250565b6000614bfd602b8361344f565b9150614c0882614ba1565b604082019050919050565b60006020820190508181036000830152614c2c81614bf0565b9050919050565b7f4552433732313a207472616e7366657220746f206e6f6e20455243373231526560008201527f63656976657220696d706c656d656e7465720000000000000000000000000000602082015250565b6000614c8f60328361344f565b9150614c9a82614c33565b604082019050919050565b60006020820190508181036000830152614cbe81614c82565b9050919050565b600081519050919050565b600082825260208201905092915050565b6000614cec82614cc5565b614cf68185614cd0565b9350614d06818560208601613460565b614d0f8161348a565b840191505092915050565b6000608082019050614d2f6000830187613581565b614d3c6020830186613581565b614d4960408301856132bb565b8181036060830152614d5b8184614ce1565b905095945050505050565b600081519050614d7581613325565b92915050565b600060208284031215614d9157614d906132ef565b5b6000614d9f84828501614d66565b91505092915050565b7f4552433732313a206d696e7420746f20746865207a65726f2061646472657373600082015250565b6000614dde60208361344f565b9150614de982614da8565b602082019050919050565b60006020820190508181036000830152614e0d81614dd1565b9050919050565b7f4552433732313a20746f6b656e20616c7265616479206d696e74656400000000600082015250565b6000614e4a601c8361344f565b9150614e5582614e14565b602082019050919050565b60006020820190508181036000830152614e7981614e3d565b905091905056fea2646970667358221220149edbef6aab4cf8efe723aa223d85e56b0c7e4bd0baef9e22553a923fab63d164736f6c63430008120033",
  "linkReferences": {},
  "deployedLinkReferences": {}
}