{
  "_format": "hh-sol-artifact-1",
  "contractName": "Planets",
  "sourceName": "src/Planets.sol",
  "abi": [
    {
      "inputs": [
        {
          "internalType": "string",
          "name": "_name",
          "type": "string"
        },
        {
          "internalType": "string",
          "name": "_symbol",
          "type": "string"
        },
        {
          "internalType": "string",
          "name": "_baseUri",
          "type": "string"
        }
      ],
      "stateMutability": "nonpayable",
      "type": "constructor"
    },
    {
      "anonymous": false,
      "inputs": [
        {
          "indexed": true,
          "internalType": "address",
          "name": "owner",
          "type": "address"
        },
        {
          "indexed": true,
          "internalType": "address",
          "name": "spender",
          "type": "address"
        },
        {
          "indexed": true,
          "internalType": "uint256",
          "name": "id",
          "type": "uint256"
        }
      ],
      "name": "Approval",
      "type": "event"
    },
    {
      "anonymous": false,
      "inputs": [
        {
          "indexed": true,
          "internalType": "address",
          "name": "owner",
          "type": "address"
        },
        {
          "indexed": true,
          "internalType": "address",
          "name": "operator",
          "type": "address"
        },
        {
          "indexed": false,
          "internalType": "bool",
          "name": "approved",
          "type": "bool"
        }
      ],
      "name": "ApprovalForAll",
      "type": "event"
    },
    {
      "anonymous": false,
      "inputs": [
        {
          "indexed": true,
          "internalType": "address",
          "name": "from",
          "type": "address"
        },
        {
          "indexed": false,
          "internalType": "uint256",
          "name": "rewardAmount",
          "type": "uint256"
        },
        {
          "indexed": false,
          "internalType": "uint256",
          "name": "epochCount",
          "type": "uint256"
        },
        {
          "indexed": false,
          "internalType": "bytes32",
          "name": "newChallengeNumber",
          "type": "bytes32"
        }
      ],
      "name": "Mint",
      "type": "event"
    },
    {
      "anonymous": false,
      "inputs": [
        {
          "indexed": true,
          "internalType": "address",
          "name": "previousOwner",
          "type": "address"
        },
        {
          "indexed": true,
          "internalType": "address",
          "name": "newOwner",
          "type": "address"
        }
      ],
      "name": "OwnershipTransferred",
      "type": "event"
    },
    {
      "anonymous": false,
      "inputs": [
        {
          "indexed": true,
          "internalType": "address",
          "name": "from",
          "type": "address"
        },
        {
          "indexed": true,
          "internalType": "address",
          "name": "to",
          "type": "address"
        },
        {
          "indexed": true,
          "internalType": "uint256",
          "name": "id",
          "type": "uint256"
        }
      ],
      "name": "Transfer",
      "type": "event"
    },
    {
      "inputs": [],
      "name": "BLOCKS_PER_READJUSTMENT",
      "outputs": [
        {
          "internalType": "uint256",
          "name": "",
          "type": "uint256"
        }
      ],
      "stateMutability": "view",
      "type": "function"
    },
    {
      "inputs": [],
      "name": "MAXIMUM_TARGET_DIFFICULTY",
      "outputs": [
        {
          "internalType": "uint256",
          "name": "",
          "type": "uint256"
        }
      ],
      "stateMutability": "view",
      "type": "function"
    },
    {
      "inputs": [],
      "name": "MAX_ADJUSTMENT_PERCENT",
      "outputs": [
        {
          "internalType": "uint256",
          "name": "",
          "type": "uint256"
        }
      ],
      "stateMutability": "view",
      "type": "function"
    },
    {
      "inputs": [],
      "name": "MINIMUM_TARGET_DIFFICULTY",
      "outputs": [
        {
          "internalType": "uint256",
          "name": "",
          "type": "uint256"
        }
      ],
      "stateMutability": "view",
      "type": "function"
    },
    {
      "inputs": [],
      "name": "MINING_RATE_FACTOR",
      "outputs": [
        {
          "internalType": "uint256",
          "name": "",
          "type": "uint256"
        }
      ],
      "stateMutability": "view",
      "type": "function"
    },
    {
      "inputs": [],
      "name": "QUOTIENT_LIMIT",
      "outputs": [
        {
          "internalType": "uint256",
          "name": "",
          "type": "uint256"
        }
      ],
      "stateMutability": "view",
      "type": "function"
    },
    {
      "inputs": [],
      "name": "TARGET_DIVISOR",
      "outputs": [
        {
          "internalType": "uint256",
          "name": "",
          "type": "uint256"
        }
      ],
      "stateMutability": "view",
      "type": "function"
    },
    {
      "inputs": [
        {
          "internalType": "address",
          "name": "spender",
          "type": "address"
        },
        {
          "internalType": "uint256",
          "name": "id",
          "type": "uint256"
        }
      ],
      "name": "approve",
      "outputs": [],
      "stateMutability": "nonpayable",
      "type": "function"
    },
    {
      "inputs": [
        {
          "internalType": "address",
          "name": "owner",
          "type": "address"
        }
      ],
      "name": "balanceOf",
      "outputs": [
        {
          "internalType": "uint256",
          "name": "",
          "type": "uint256"
        }
      ],
      "stateMutability": "view",
      "type": "function"
    },
    {
      "inputs": [],
      "name": "baseUri",
      "outputs": [
        {
          "internalType": "string",
          "name": "",
          "type": "string"
        }
      ],
      "stateMutability": "view",
      "type": "function"
    },
    {
      "inputs": [],
      "name": "challengeNumber",
      "outputs": [
        {
          "internalType": "bytes32",
          "name": "",
          "type": "bytes32"
        }
      ],
      "stateMutability": "view",
      "type": "function"
    },
    {
      "inputs": [
        {
          "internalType": "uint256",
          "name": "nonce",
          "type": "uint256"
        },
        {
          "internalType": "bytes32",
          "name": "challengeDigest",
          "type": "bytes32"
        }
      ],
      "name": "checkHash",
      "outputs": [
        {
          "internalType": "bytes32",
          "name": "digest",
          "type": "bytes32"
        }
      ],
      "stateMutability": "nonpayable",
      "type": "function"
    },
    {
      "inputs": [],
      "name": "currentTokenId",
      "outputs": [
        {
          "internalType": "uint256",
          "name": "",
          "type": "uint256"
        }
      ],
      "stateMutability": "view",
      "type": "function"
    },
    {
      "inputs": [],
      "name": "decimals",
      "outputs": [
        {
          "internalType": "uint8",
          "name": "",
          "type": "uint8"
        }
      ],
      "stateMutability": "view",
      "type": "function"
    },
    {
      "inputs": [],
      "name": "difficulty",
      "outputs": [
        {
          "internalType": "uint256",
          "name": "",
          "type": "uint256"
        }
      ],
      "stateMutability": "view",
      "type": "function"
    },
    {
      "inputs": [
        {
          "internalType": "uint256",
          "name": "",
          "type": "uint256"
        }
      ],
      "name": "digestForTokenId",
      "outputs": [
        {
          "internalType": "bytes32",
          "name": "",
          "type": "bytes32"
        }
      ],
      "stateMutability": "view",
      "type": "function"
    },
    {
      "inputs": [],
      "name": "epochCount",
      "outputs": [
        {
          "internalType": "uint256",
          "name": "",
          "type": "uint256"
        }
      ],
      "stateMutability": "view",
      "type": "function"
    },
    {
      "inputs": [
        {
          "internalType": "uint256",
          "name": "",
          "type": "uint256"
        }
      ],
      "name": "getApproved",
      "outputs": [
        {
          "internalType": "address",
          "name": "",
          "type": "address"
        }
      ],
      "stateMutability": "view",
      "type": "function"
    },
    {
      "inputs": [],
      "name": "getChallengeNumber",
      "outputs": [
        {
          "internalType": "bytes32",
          "name": "",
          "type": "bytes32"
        }
      ],
      "stateMutability": "view",
      "type": "function"
    },
    {
      "inputs": [],
      "name": "getMiningDifficulty",
      "outputs": [
        {
          "internalType": "uint256",
          "name": "",
          "type": "uint256"
        }
      ],
      "stateMutability": "view",
      "type": "function"
    },
    {
      "inputs": [],
      "name": "getMiningReward",
      "outputs": [
        {
          "internalType": "uint256",
          "name": "",
          "type": "uint256"
        }
      ],
      "stateMutability": "view",
      "type": "function"
    },
    {
      "inputs": [],
      "name": "getMiningTarget",
      "outputs": [
        {
          "internalType": "uint256",
          "name": "",
          "type": "uint256"
        }
      ],
      "stateMutability": "view",
      "type": "function"
    },
    {
      "inputs": [],
      "name": "getPlanetMinted",
      "outputs": [
        {
          "internalType": "uint256",
          "name": "",
          "type": "uint256"
        }
      ],
      "stateMutability": "view",
      "type": "function"
    },
    {
      "inputs": [
        {
          "internalType": "uint256",
          "name": "id",
          "type": "uint256"
        }
      ],
      "name": "getTotalStatsPerTokenId",
      "outputs": [
        {
          "internalType": "uint256",
          "name": "",
          "type": "uint256"
        },
        {
          "internalType": "uint256",
          "name": "",
          "type": "uint256"
        },
        {
          "internalType": "uint256",
          "name": "",
          "type": "uint256"
        },
        {
          "internalType": "uint256",
          "name": "",
          "type": "uint256"
        },
        {
          "internalType": "uint256",
          "name": "",
          "type": "uint256"
        },
        {
          "internalType": "uint256",
          "name": "",
          "type": "uint256"
        }
      ],
      "stateMutability": "view",
      "type": "function"
    },
    {
      "inputs": [
        {
          "internalType": "address",
          "name": "",
          "type": "address"
        },
        {
          "internalType": "address",
          "name": "",
          "type": "address"
        }
      ],
      "name": "isApprovedForAll",
      "outputs": [
        {
          "internalType": "bool",
          "name": "",
          "type": "bool"
        }
      ],
      "stateMutability": "view",
      "type": "function"
    },
    {
      "inputs": [],
      "name": "latestDifficultyPeriodStarted",
      "outputs": [
        {
          "internalType": "uint256",
          "name": "",
          "type": "uint256"
        }
      ],
      "stateMutability": "view",
      "type": "function"
    },
    {
      "inputs": [],
      "name": "maxSupplyForEra",
      "outputs": [
        {
          "internalType": "uint256",
          "name": "",
          "type": "uint256"
        }
      ],
      "stateMutability": "view",
      "type": "function"
    },
    {
      "inputs": [
        {
          "internalType": "uint256",
          "name": "nonce",
          "type": "uint256"
        },
        {
          "internalType": "bytes32",
          "name": "challengeDigest",
          "type": "bytes32"
        }
      ],
      "name": "mint",
      "outputs": [
        {
          "internalType": "bool",
          "name": "success",
          "type": "bool"
        }
      ],
      "stateMutability": "nonpayable",
      "type": "function"
    },
    {
      "inputs": [],
      "name": "name",
      "outputs": [
        {
          "internalType": "string",
          "name": "",
          "type": "string"
        }
      ],
      "stateMutability": "view",
      "type": "function"
    },
    {
      "inputs": [],
      "name": "owner",
      "outputs": [
        {
          "internalType": "address",
          "name": "",
          "type": "address"
        }
      ],
      "stateMutability": "view",
      "type": "function"
    },
    {
      "inputs": [
        {
          "internalType": "uint256",
          "name": "id",
          "type": "uint256"
        }
      ],
      "name": "ownerOf",
      "outputs": [
        {
          "internalType": "address",
          "name": "owner",
          "type": "address"
        }
      ],
      "stateMutability": "view",
      "type": "function"
    },
    {
      "inputs": [],
      "name": "renounceOwnership",
      "outputs": [],
      "stateMutability": "nonpayable",
      "type": "function"
    },
    {
      "inputs": [],
      "name": "rewardEra",
      "outputs": [
        {
          "internalType": "uint256",
          "name": "",
          "type": "uint256"
        }
      ],
      "stateMutability": "view",
      "type": "function"
    },
    {
      "inputs": [
        {
          "internalType": "address",
          "name": "from",
          "type": "address"
        },
        {
          "internalType": "address",
          "name": "to",
          "type": "address"
        },
        {
          "internalType": "uint256",
          "name": "id",
          "type": "uint256"
        }
      ],
      "name": "safeTransferFrom",
      "outputs": [],
      "stateMutability": "nonpayable",
      "type": "function"
    },
    {
      "inputs": [
        {
          "internalType": "address",
          "name": "from",
          "type": "address"
        },
        {
          "internalType": "address",
          "name": "to",
          "type": "address"
        },
        {
          "internalType": "uint256",
          "name": "id",
          "type": "uint256"
        },
        {
          "internalType": "bytes",
          "name": "data",
          "type": "bytes"
        }
      ],
      "name": "safeTransferFrom",
      "outputs": [],
      "stateMutability": "nonpayable",
      "type": "function"
    },
    {
      "inputs": [
        {
          "internalType": "address",
          "name": "operator",
          "type": "address"
        },
        {
          "internalType": "bool",
          "name": "approved",
          "type": "bool"
        }
      ],
      "name": "setApprovalForAll",
      "outputs": [],
      "stateMutability": "nonpayable",
      "type": "function"
    },
    {
      "inputs": [
        {
          "internalType": "string",
          "name": "_baseUri",
          "type": "string"
        }
      ],
      "name": "setBaseUri",
      "outputs": [],
      "stateMutability": "nonpayable",
      "type": "function"
    },
    {
      "inputs": [],
      "name": "startingAverageReward",
      "outputs": [
        {
          "internalType": "uint256",
          "name": "",
          "type": "uint256"
        }
      ],
      "stateMutability": "view",
      "type": "function"
    },
    {
      "inputs": [],
      "name": "statistics",
      "outputs": [
        {
          "internalType": "address",
          "name": "lastRewardTo",
          "type": "address"
        },
        {
          "internalType": "uint256",
          "name": "lastRewardAmount",
          "type": "uint256"
        },
        {
          "internalType": "uint256",
          "name": "lastRewardEthBlockNumber",
          "type": "uint256"
        },
        {
          "internalType": "uint256",
          "name": "lastRewardTimestamp",
          "type": "uint256"
        }
      ],
      "stateMutability": "view",
      "type": "function"
    },
    {
      "inputs": [
        {
          "internalType": "bytes4",
          "name": "interfaceId",
          "type": "bytes4"
        }
      ],
      "name": "supportsInterface",
      "outputs": [
        {
          "internalType": "bool",
          "name": "",
          "type": "bool"
        }
      ],
      "stateMutability": "view",
      "type": "function"
    },
    {
      "inputs": [],
      "name": "symbol",
      "outputs": [
        {
          "internalType": "string",
          "name": "",
          "type": "string"
        }
      ],
      "stateMutability": "view",
      "type": "function"
    },
    {
      "inputs": [
        {
          "internalType": "uint256",
          "name": "tokenId",
          "type": "uint256"
        }
      ],
      "name": "tokenURI",
      "outputs": [
        {
          "internalType": "string",
          "name": "",
          "type": "string"
        }
      ],
      "stateMutability": "view",
      "type": "function"
    },
    {
      "inputs": [],
      "name": "tokensMinted",
      "outputs": [
        {
          "internalType": "uint256",
          "name": "",
          "type": "uint256"
        }
      ],
      "stateMutability": "view",
      "type": "function"
    },
    {
      "inputs": [],
      "name": "totalERSupply",
      "outputs": [
        {
          "internalType": "uint256",
          "name": "",
          "type": "uint256"
        }
      ],
      "stateMutability": "view",
      "type": "function"
    },
    {
      "inputs": [],
      "name": "totalRtsPerEra",
      "outputs": [
        {
          "internalType": "uint256",
          "name": "",
          "type": "uint256"
        }
      ],
      "stateMutability": "view",
      "type": "function"
    },
    {
      "inputs": [
        {
          "internalType": "address",
          "name": "from",
          "type": "address"
        },
        {
          "internalType": "address",
          "name": "to",
          "type": "address"
        },
        {
          "internalType": "uint256",
          "name": "id",
          "type": "uint256"
        }
      ],
      "name": "transferFrom",
      "outputs": [],
      "stateMutability": "nonpayable",
      "type": "function"
    },
    {
      "inputs": [
        {
          "internalType": "address",
          "name": "newOwner",
          "type": "address"
        }
      ],
      "name": "transferOwnership",
      "outputs": [],
      "stateMutability": "nonpayable",
      "type": "function"
    }
  ],
  "bytecode": "0x6080604052610400601355603c601455620100006016557e200000000000000000000000000000000000000000000000000000000000006017556107d06018556002601854620000509190620003b7565b6019556064601a556012601b60006101000a81548160ff021916908360ff160217905550601b60009054906101000a900460ff1660ff16600a62000095919062000543565b6103e8620000a4919062000594565b601c556000601d55601b60009054906101000a900460ff1660ff16600a620000cd919062000543565b633b9aca00620000de919062000594565b601e556000601f55348015620000f357600080fd5b50604051620041bd380380620041bd833981810160405281019062000119919062000772565b828281600790816200012c919062000a6c565b5080600890816200013e919062000a6c565b5050506200016162000155620001a160201b60201c565b620001a960201b60201c565b62000172816200026f60201b60201c565b60014362000181919062000b53565b406000819055504360158190555060175460018190555050505062000c11565b600033905090565b6000600d60009054906101000a900473ffffffffffffffffffffffffffffffffffffffff16905081600d60006101000a81548173ffffffffffffffffffffffffffffffffffffffff021916908373ffffffffffffffffffffffffffffffffffffffff1602179055508173ffffffffffffffffffffffffffffffffffffffff168173ffffffffffffffffffffffffffffffffffffffff167f8be0079c531659141344cd1fd0a4f28419497f9722a3daafe3b4186f6b6457e060405160405180910390a35050565b6200027f6200029460201b60201c565b80600f908162000290919062000a6c565b5050565b620002a4620001a160201b60201c565b73ffffffffffffffffffffffffffffffffffffffff16620002ca6200032560201b60201c565b73ffffffffffffffffffffffffffffffffffffffff161462000323576040517f08c379a00000000000000000000000000000000000000000000000000000000081526004016200031a9062000bef565b60405180910390fd5b565b6000600d60009054906101000a900473ffffffffffffffffffffffffffffffffffffffff16905090565b6000819050919050565b7f4e487b7100000000000000000000000000000000000000000000000000000000600052601260045260246000fd5b7f4e487b7100000000000000000000000000000000000000000000000000000000600052601160045260246000fd5b6000620003c4826200034f565b9150620003d1836200034f565b925082620003e457620003e362000359565b5b828204905092915050565b60008160011c9050919050565b6000808291508390505b60018511156200044e5780860481111562000426576200042562000388565b5b6001851615620004365780820291505b80810290506200044685620003ef565b945062000406565b94509492505050565b6000826200046957600190506200053c565b816200047957600090506200053c565b81600181146200049257600281146200049d57620004d3565b60019150506200053c565b60ff841115620004b257620004b162000388565b5b8360020a915084821115620004cc57620004cb62000388565b5b506200053c565b5060208310610133831016604e8410600b84101617156200050d5782820a90508381111562000507576200050662000388565b5b6200053c565b6200051c8484846001620003fc565b9250905081840481111562000536576200053562000388565b5b81810290505b9392505050565b600062000550826200034f565b91506200055d836200034f565b92506200058c7fffffffffffffffffffffffffffffffffffffffffffffffffffffffffffffffff848462000457565b905092915050565b6000620005a1826200034f565b9150620005ae836200034f565b9250828202620005be816200034f565b91508282048414831517620005d857620005d762000388565b5b5092915050565b6000604051905090565b600080fd5b600080fd5b600080fd5b600080fd5b6000601f19601f8301169050919050565b7f4e487b7100000000000000000000000000000000000000000000000000000000600052604160045260246000fd5b6200064882620005fd565b810181811067ffffffffffffffff821117156200066a57620006696200060e565b5b80604052505050565b60006200067f620005df565b90506200068d82826200063d565b919050565b600067ffffffffffffffff821115620006b057620006af6200060e565b5b620006bb82620005fd565b9050602081019050919050565b60005b83811015620006e8578082015181840152602081019050620006cb565b60008484015250505050565b60006200070b620007058462000692565b62000673565b9050828152602081018484840111156200072a5762000729620005f8565b5b62000737848285620006c8565b509392505050565b600082601f830112620007575762000756620005f3565b5b815162000769848260208601620006f4565b91505092915050565b6000806000606084860312156200078e576200078d620005e9565b5b600084015167ffffffffffffffff811115620007af57620007ae620005ee565b5b620007bd868287016200073f565b935050602084015167ffffffffffffffff811115620007e157620007e0620005ee565b5b620007ef868287016200073f565b925050604084015167ffffffffffffffff811115620008135762000812620005ee565b5b62000821868287016200073f565b9150509250925092565b600081519050919050565b7f4e487b7100000000000000000000000000000000000000000000000000000000600052602260045260246000fd5b600060028204905060018216806200087e57607f821691505b60208210810362000894576200089362000836565b5b50919050565b60008190508160005260206000209050919050565b60006020601f8301049050919050565b600082821b905092915050565b600060088302620008fe7fffffffffffffffffffffffffffffffffffffffffffffffffffffffffffffffff82620008bf565b6200090a8683620008bf565b95508019841693508086168417925050509392505050565b6000819050919050565b60006200094d6200094762000941846200034f565b62000922565b6200034f565b9050919050565b6000819050919050565b62000969836200092c565b62000981620009788262000954565b848454620008cc565b825550505050565b600090565b6200099862000989565b620009a58184846200095e565b505050565b5b81811015620009cd57620009c16000826200098e565b600181019050620009ab565b5050565b601f82111562000a1c57620009e6816200089a565b620009f184620008af565b8101602085101562000a01578190505b62000a1962000a1085620008af565b830182620009aa565b50505b505050565b600082821c905092915050565b600062000a416000198460080262000a21565b1980831691505092915050565b600062000a5c838362000a2e565b9150826002028217905092915050565b62000a77826200082b565b67ffffffffffffffff81111562000a935762000a926200060e565b5b62000a9f825462000865565b62000aac828285620009d1565b600060209050601f83116001811462000ae4576000841562000acf578287015190505b62000adb858262000a4e565b86555062000b4b565b601f19841662000af4866200089a565b60005b8281101562000b1e5784890151825560018201915060208501945060208101905062000af7565b8683101562000b3e578489015162000b3a601f89168262000a2e565b8355505b6001600288020188555050505b505050505050565b600062000b60826200034f565b915062000b6d836200034f565b925082820390508181111562000b885762000b8762000388565b5b92915050565b600082825260208201905092915050565b7f4f776e61626c653a2063616c6c6572206973206e6f7420746865206f776e6572600082015250565b600062000bd760208362000b8e565b915062000be48262000b9f565b602082019050919050565b6000602082019050818103600083015262000c0a8162000bc8565b9050919050565b61359c8062000c216000396000f3fe608060405234801561001057600080fd5b50600436106102945760003560e01c806370a0823111610167578063a22cb465116100ce578063c87b56dd11610087578063c87b56dd146107cd578063cb9ae707146107fd578063e09feae31461081b578063e985e9c51461084b578063ee2e56121461087b578063f2fde38b1461089957610294565b8063a22cb4651461071d578063a465eeaf14610739578063ac69377814610757578063ad1dfe3b14610775578063b730427214610793578063b88d4fde146107b157610294565b80638ae0368b116101205780638ae0368b146106685780638da5cb5b1461068657806395d89b41146106a457806395e272bd146106c25780639abc8320146106e3578063a0bcfc7f1461070157610294565b806370a08231146105a4578063715018a6146105d45780637c2d542c146105de5780637c7f32061461060e578063829965cc1461062c57806382c890fd1461064a57610294565b80632d38bf7a1161020b5780634ef37628116101c45780634ef37628146104c75780634fa972e1146104e55780636352211e146105035780636a2e19a2146105335780636a586594146105685780636de9f32b1461058657610294565b80632d38bf7a14610415578063313ce5671461043357806332e99708146104515780633426e5f51461046f57806342842e0e1461048d578063490203a7146104a957610294565b8063095ea7b31161025d578063095ea7b31461035357806317da485f1461036f5780631801fbe51461038d57806319cae462146103bd5780631beddf1c146103db57806323b872dd146103f957610294565b80629a9b7b1461029957806301ffc9a7146102b757806306fdde03146102e7578063081812fc14610305578063095b6d4c14610335575b600080fd5b6102a16108b5565b6040516102ae919061216d565b60405180910390f35b6102d160048036038101906102cc91906121f4565b6108bb565b6040516102de919061223c565b60405180910390f35b6102ef61094d565b6040516102fc91906122e7565b60405180910390f35b61031f600480360381019061031a9190612335565b6109db565b60405161032c91906123a3565b60405180910390f35b61033d610a0e565b60405161034a919061216d565b60405180910390f35b61036d600480360381019061036891906123ea565b610a14565b005b610377610bfd565b604051610384919061216d565b60405180910390f35b6103a760048036038101906103a29190612460565b610c07565b6040516103b4919061223c565b60405180910390f35b6103c5610d31565b6040516103d2919061216d565b60405180910390f35b6103e3610d37565b6040516103f0919061216d565b60405180910390f35b610413600480360381019061040e91906124a0565b610d3d565b005b61041d61113c565b60405161042a919061216d565b60405180910390f35b61043b611142565b604051610448919061250f565b60405180910390f35b610459611155565b604051610466919061216d565b60405180910390f35b61047761115f565b604051610484919061216d565b60405180910390f35b6104a760048036038101906104a291906124a0565b611165565b005b6104b161129d565b6040516104be919061216d565b60405180910390f35b6104cf6112a7565b6040516104dc9190612539565b60405180910390f35b6104ed6112b0565b6040516104fa919061216d565b60405180910390f35b61051d60048036038101906105189190612335565b6112b6565b60405161052a91906123a3565b60405180910390f35b61054d60048036038101906105489190612335565b611361565b60405161055f96959493929190612554565b60405180910390f35b6105706113f1565b60405161057d919061216d565b60405180910390f35b61058e6113f7565b60405161059b919061216d565b60405180910390f35b6105be60048036038101906105b991906125b5565b6113fd565b6040516105cb919061216d565b60405180910390f35b6105dc6114b4565b005b6105f860048036038101906105f39190612460565b6114c8565b6040516106059190612539565b60405180910390f35b6106166114dc565b604051610623919061216d565b60405180910390f35b6106346114e2565b604051610641919061216d565b60405180910390f35b6106526114e8565b60405161065f919061216d565b60405180910390f35b6106706114ee565b60405161067d9190612539565b60405180910390f35b61068e6114f4565b60405161069b91906123a3565b60405180910390f35b6106ac61151e565b6040516106b991906122e7565b60405180910390f35b6106ca6115ac565b6040516106da94939291906125e2565b60405180910390f35b6106eb6115ea565b6040516106f891906122e7565b60405180910390f35b61071b6004803603810190610716919061275c565b611678565b005b610737600480360381019061073291906127d1565b611693565b005b610741611790565b60405161074e919061216d565b60405180910390f35b61075f61179a565b60405161076c919061216d565b60405180910390f35b61077d6117a0565b60405161078a919061216d565b60405180910390f35b61079b6117a6565b6040516107a8919061216d565b60405180910390f35b6107cb60048036038101906107c69190612871565b6117ac565b005b6107e760048036038101906107e29190612335565b6118ea565b6040516107f491906122e7565b60405180910390f35b61080561194a565b604051610812919061216d565b60405180910390f35b61083560048036038101906108309190612335565b611950565b6040516108429190612539565b60405180910390f35b610865600480360381019061086091906128f9565b611968565b604051610872919061223c565b60405180910390f35b610883611997565b604051610890919061216d565b60405180910390f35b6108b360048036038101906108ae91906125b5565b61199d565b005b600e5481565b60006301ffc9a760e01b827bffffffffffffffffffffffffffffffffffffffffffffffffffffffff1916148061091657506380ac58cd60e01b827bffffffffffffffffffffffffffffffffffffffffffffffffffffffff1916145b806109465750635b5e139f60e01b827bffffffffffffffffffffffffffffffffffffffffffffffffffffffff1916145b9050919050565b6007805461095a90612968565b80601f016020809104026020016040519081016040528092919081815260200182805461098690612968565b80156109d35780601f106109a8576101008083540402835291602001916109d3565b820191906000526020600020905b8154815290600101906020018083116109b657829003601f168201915b505050505081565b600b6020528060005260406000206000915054906101000a900473ffffffffffffffffffffffffffffffffffffffff1681565b60185481565b60006009600083815260200190815260200160002060009054906101000a900473ffffffffffffffffffffffffffffffffffffffff1690508073ffffffffffffffffffffffffffffffffffffffff163373ffffffffffffffffffffffffffffffffffffffff161480610b0c5750600c60008273ffffffffffffffffffffffffffffffffffffffff1673ffffffffffffffffffffffffffffffffffffffff16815260200190815260200160002060003373ffffffffffffffffffffffffffffffffffffffff1673ffffffffffffffffffffffffffffffffffffffff16815260200190815260200160002060009054906101000a900460ff165b610b4b576040517f08c379a0000000000000000000000000000000000000000000000000000000008152600401610b42906129e5565b60405180910390fd5b82600b600084815260200190815260200160002060006101000a81548173ffffffffffffffffffffffffffffffffffffffff021916908373ffffffffffffffffffffffffffffffffffffffff160217905550818373ffffffffffffffffffffffffffffffffffffffff168273ffffffffffffffffffffffffffffffffffffffff167f8c5be1e5ebec7d5bd14f71427d1e84f3dd0314c0f7b2291e5b200ac8c7c3b92560405160405180910390a4505050565b6000600154905090565b6000600e60008154610c1890612a34565b919050819055600e819055506000610c308484611a20565b90506001548160001c1115610c7a576040517f08c379a0000000000000000000000000000000000000000000000000000000008152600401610c7190612ac8565b60405180910390fd5b600060116000600e5481526020019081526020016000205490506000801b8114610cd9576040517f08c379a0000000000000000000000000000000000000000000000000000000008152600401610cd090612b34565b60405180910390fd5b8160116000600e54815260200190815260200160002081905550610cff33600e54611a9e565b60006103e88360001c1690508060026000828254610d1d9190612b54565b925050819055506001935050505092915050565b60015481565b601a5481565b6009600082815260200190815260200160002060009054906101000a900473ffffffffffffffffffffffffffffffffffffffff1673ffffffffffffffffffffffffffffffffffffffff168373ffffffffffffffffffffffffffffffffffffffff1614610dde576040517f08c379a0000000000000000000000000000000000000000000000000000000008152600401610dd590612bd4565b60405180910390fd5b600073ffffffffffffffffffffffffffffffffffffffff168273ffffffffffffffffffffffffffffffffffffffff1603610e4d576040517f08c379a0000000000000000000000000000000000000000000000000000000008152600401610e4490612c40565b60405180910390fd5b8273ffffffffffffffffffffffffffffffffffffffff163373ffffffffffffffffffffffffffffffffffffffff161480610f0d5750600c60008473ffffffffffffffffffffffffffffffffffffffff1673ffffffffffffffffffffffffffffffffffffffff16815260200190815260200160002060003373ffffffffffffffffffffffffffffffffffffffff1673ffffffffffffffffffffffffffffffffffffffff16815260200190815260200160002060009054906101000a900460ff165b80610f765750600b600082815260200190815260200160002060009054906101000a900473ffffffffffffffffffffffffffffffffffffffff1673ffffffffffffffffffffffffffffffffffffffff163373ffffffffffffffffffffffffffffffffffffffff16145b610fb5576040517f08c379a0000000000000000000000000000000000000000000000000000000008152600401610fac906129e5565b60405180910390fd5b600a60008473ffffffffffffffffffffffffffffffffffffffff1673ffffffffffffffffffffffffffffffffffffffff1681526020019081526020016000206000815480929190600190039190505550600a60008373ffffffffffffffffffffffffffffffffffffffff1673ffffffffffffffffffffffffffffffffffffffff16815260200190815260200160002060008154809291906001019190505550816009600083815260200190815260200160002060006101000a81548173ffffffffffffffffffffffffffffffffffffffff021916908373ffffffffffffffffffffffffffffffffffffffff160217905550600b600082815260200190815260200160002060006101000a81549073ffffffffffffffffffffffffffffffffffffffff0219169055808273ffffffffffffffffffffffffffffffffffffffff168473ffffffffffffffffffffffffffffffffffffffff167fddf252ad1be2c89b69c2b068fc378daa952ba7f163c4a11628f55a4df523b3ef60405160405180910390a4505050565b601d5481565b601b60009054906101000a900460ff1681565b6000600154905090565b60145481565b611170838383610d3d565b60008273ffffffffffffffffffffffffffffffffffffffff163b1480611259575063150b7a0260e01b7bffffffffffffffffffffffffffffffffffffffffffffffffffffffff19168273ffffffffffffffffffffffffffffffffffffffff1663150b7a023386856040518463ffffffff1660e01b81526004016111f593929190612c97565b6020604051808303816000875af1158015611214573d6000803e3d6000fd5b505050506040513d601f19601f820116820180604052508101906112389190612cf6565b7bffffffffffffffffffffffffffffffffffffffffffffffffffffffff1916145b611298576040517f08c379a000000000000000000000000000000000000000000000000000000000815260040161128f90612d6f565b60405180910390fd5b505050565b6000601c54905090565b60008054905090565b601e5481565b60008073ffffffffffffffffffffffffffffffffffffffff166009600084815260200190815260200160002060009054906101000a900473ffffffffffffffffffffffffffffffffffffffff1691508173ffffffffffffffffffffffffffffffffffffffff160361135c576040517f08c379a000000000000000000000000000000000000000000000000000000000815260040161135390612ddb565b60405180910390fd5b919050565b6000806000806000806000601160008981526020019081526020016000205460001c905060006103e88216905060006103e8600c84901c16905060006103e8601885901c16905060006103e8602486901c16905060006103e8603087901c16905060006103e8603c88901c1690508585858585859c509c509c509c509c509c505050505050505091939550919395565b60165481565b60025481565b60008073ffffffffffffffffffffffffffffffffffffffff168273ffffffffffffffffffffffffffffffffffffffff160361146d576040517f08c379a000000000000000000000000000000000000000000000000000000000815260040161146490612e47565b60405180910390fd5b600a60008373ffffffffffffffffffffffffffffffffffffffff1673ffffffffffffffffffffffffffffffffffffffff168152602001908152602001600020549050919050565b6114bc611bd5565b6114c66000611c53565b565b60006114d48383611a20565b905092915050565b60175481565b60125481565b601c5481565b60005481565b6000600d60009054906101000a900473ffffffffffffffffffffffffffffffffffffffff16905090565b6008805461152b90612968565b80601f016020809104026020016040519081016040528092919081815260200182805461155790612968565b80156115a45780601f10611579576101008083540402835291602001916115a4565b820191906000526020600020905b81548152906001019060200180831161158757829003601f168201915b505050505081565b60038060000160009054906101000a900473ffffffffffffffffffffffffffffffffffffffff16908060010154908060020154908060030154905084565b600f80546115f790612968565b80601f016020809104026020016040519081016040528092919081815260200182805461162390612968565b80156116705780601f1061164557610100808354040283529160200191611670565b820191906000526020600020905b81548152906001019060200180831161165357829003601f168201915b505050505081565b611680611bd5565b80600f908161168f9190613013565b5050565b80600c60003373ffffffffffffffffffffffffffffffffffffffff1673ffffffffffffffffffffffffffffffffffffffff16815260200190815260200160002060008473ffffffffffffffffffffffffffffffffffffffff1673ffffffffffffffffffffffffffffffffffffffff16815260200190815260200160002060006101000a81548160ff0219169083151502179055508173ffffffffffffffffffffffffffffffffffffffff163373ffffffffffffffffffffffffffffffffffffffff167f17307eab39ab6107e8899845ad3d59bd9653f200f220920489ca2b5937696c3183604051611784919061223c565b60405180910390a35050565b6000600e54905090565b60105481565b60195481565b60135481565b6117b7858585610d3d565b60008473ffffffffffffffffffffffffffffffffffffffff163b14806118a4575063150b7a0260e01b7bffffffffffffffffffffffffffffffffffffffffffffffffffffffff19168473ffffffffffffffffffffffffffffffffffffffff1663150b7a0233888787876040518663ffffffff1660e01b8152600401611840959493929190613112565b6020604051808303816000875af115801561185f573d6000803e3d6000fd5b505050506040513d601f19601f820116820180604052508101906118839190612cf6565b7bffffffffffffffffffffffffffffffffffffffffffffffffffffffff1916145b6118e3576040517f08c379a00000000000000000000000000000000000000000000000000000000081526004016118da90612d6f565b60405180910390fd5b5050505050565b60606000600f80546118fb90612968565b9050116119175760405180602001604052806000815250611943565b600f61192283611d19565b60405160200161193392919061326b565b6040516020818303038152906040525b9050919050565b60155481565b60116020528060005260406000206000915090505481565b600c6020528160005260406000206020528060005260406000206000915091509054906101000a900460ff1681565b601f5481565b6119a5611bd5565b600073ffffffffffffffffffffffffffffffffffffffff168173ffffffffffffffffffffffffffffffffffffffff1603611a14576040517f08c379a0000000000000000000000000000000000000000000000000000000008152600401611a0b9061330c565b60405180910390fd5b611a1d81611c53565b50565b6000806000543385604051602001611a3a939291906133b6565b604051602081830303815290604052805190602001209050828114611a94576040517f08c379a0000000000000000000000000000000000000000000000000000000008152600401611a8b9061343f565b60405180910390fd5b8091505092915050565b611aa88282611de7565b60008273ffffffffffffffffffffffffffffffffffffffff163b1480611b92575063150b7a0260e01b7bffffffffffffffffffffffffffffffffffffffffffffffffffffffff19168273ffffffffffffffffffffffffffffffffffffffff1663150b7a02336000856040518463ffffffff1660e01b8152600401611b2e93929190612c97565b6020604051808303816000875af1158015611b4d573d6000803e3d6000fd5b505050506040513d601f19601f82011682018060405250810190611b719190612cf6565b7bffffffffffffffffffffffffffffffffffffffffffffffffffffffff1916145b611bd1576040517f08c379a0000000000000000000000000000000000000000000000000000000008152600401611bc890612d6f565b60405180910390fd5b5050565b611bdd611ff9565b73ffffffffffffffffffffffffffffffffffffffff16611bfb6114f4565b73ffffffffffffffffffffffffffffffffffffffff1614611c51576040517f08c379a0000000000000000000000000000000000000000000000000000000008152600401611c48906134ab565b60405180910390fd5b565b6000600d60009054906101000a900473ffffffffffffffffffffffffffffffffffffffff16905081600d60006101000a81548173ffffffffffffffffffffffffffffffffffffffff021916908373ffffffffffffffffffffffffffffffffffffffff1602179055508173ffffffffffffffffffffffffffffffffffffffff168173ffffffffffffffffffffffffffffffffffffffff167f8be0079c531659141344cd1fd0a4f28419497f9722a3daafe3b4186f6b6457e060405160405180910390a35050565b606060006001611d2884612001565b01905060008167ffffffffffffffff811115611d4757611d46612631565b5b6040519080825280601f01601f191660200182016040528015611d795781602001600182028036833780820191505090505b509050600082602001820190505b600115611ddc578080600190039150507f3031323334353637383961626364656600000000000000000000000000000000600a86061a8153600a8581611dd057611dcf6134cb565b5b04945060008503611d87575b819350505050919050565b600073ffffffffffffffffffffffffffffffffffffffff168273ffffffffffffffffffffffffffffffffffffffff1603611e56576040517f08c379a0000000000000000000000000000000000000000000000000000000008152600401611e4d90612c40565b60405180910390fd5b600073ffffffffffffffffffffffffffffffffffffffff166009600083815260200190815260200160002060009054906101000a900473ffffffffffffffffffffffffffffffffffffffff1673ffffffffffffffffffffffffffffffffffffffff1614611ef8576040517f08c379a0000000000000000000000000000000000000000000000000000000008152600401611eef90613546565b60405180910390fd5b600a60008373ffffffffffffffffffffffffffffffffffffffff1673ffffffffffffffffffffffffffffffffffffffff16815260200190815260200160002060008154809291906001019190505550816009600083815260200190815260200160002060006101000a81548173ffffffffffffffffffffffffffffffffffffffff021916908373ffffffffffffffffffffffffffffffffffffffff160217905550808273ffffffffffffffffffffffffffffffffffffffff16600073ffffffffffffffffffffffffffffffffffffffff167fddf252ad1be2c89b69c2b068fc378daa952ba7f163c4a11628f55a4df523b3ef60405160405180910390a45050565b600033905090565b600080600090507a184f03e93ff9f4daa797ed6e38ed64bf6a1f010000000000000000831061205f577a184f03e93ff9f4daa797ed6e38ed64bf6a1f0100000000000000008381612055576120546134cb565b5b0492506040810190505b6d04ee2d6d415b85acef8100000000831061209c576d04ee2d6d415b85acef81000000008381612092576120916134cb565b5b0492506020810190505b662386f26fc1000083106120cb57662386f26fc1000083816120c1576120c06134cb565b5b0492506010810190505b6305f5e10083106120f4576305f5e10083816120ea576120e96134cb565b5b0492506008810190505b612710831061211957612710838161210f5761210e6134cb565b5b0492506004810190505b6064831061213c5760648381612132576121316134cb565b5b0492506002810190505b600a831061214b576001810190505b80915050919050565b6000819050919050565b61216781612154565b82525050565b6000602082019050612182600083018461215e565b92915050565b6000604051905090565b600080fd5b600080fd5b60007fffffffff0000000000000000000000000000000000000000000000000000000082169050919050565b6121d18161219c565b81146121dc57600080fd5b50565b6000813590506121ee816121c8565b92915050565b60006020828403121561220a57612209612192565b5b6000612218848285016121df565b91505092915050565b60008115159050919050565b61223681612221565b82525050565b6000602082019050612251600083018461222d565b92915050565b600081519050919050565b600082825260208201905092915050565b60005b83811015612291578082015181840152602081019050612276565b60008484015250505050565b6000601f19601f8301169050919050565b60006122b982612257565b6122c38185612262565b93506122d3818560208601612273565b6122dc8161229d565b840191505092915050565b6000602082019050818103600083015261230181846122ae565b905092915050565b61231281612154565b811461231d57600080fd5b50565b60008135905061232f81612309565b92915050565b60006020828403121561234b5761234a612192565b5b600061235984828501612320565b91505092915050565b600073ffffffffffffffffffffffffffffffffffffffff82169050919050565b600061238d82612362565b9050919050565b61239d81612382565b82525050565b60006020820190506123b86000830184612394565b92915050565b6123c781612382565b81146123d257600080fd5b50565b6000813590506123e4816123be565b92915050565b6000806040838503121561240157612400612192565b5b600061240f858286016123d5565b925050602061242085828601612320565b9150509250929050565b6000819050919050565b61243d8161242a565b811461244857600080fd5b50565b60008135905061245a81612434565b92915050565b6000806040838503121561247757612476612192565b5b600061248585828601612320565b92505060206124968582860161244b565b9150509250929050565b6000806000606084860312156124b9576124b8612192565b5b60006124c7868287016123d5565b93505060206124d8868287016123d5565b92505060406124e986828701612320565b9150509250925092565b600060ff82169050919050565b612509816124f3565b82525050565b60006020820190506125246000830184612500565b92915050565b6125338161242a565b82525050565b600060208201905061254e600083018461252a565b92915050565b600060c082019050612569600083018961215e565b612576602083018861215e565b612583604083018761215e565b612590606083018661215e565b61259d608083018561215e565b6125aa60a083018461215e565b979650505050505050565b6000602082840312156125cb576125ca612192565b5b60006125d9848285016123d5565b91505092915050565b60006080820190506125f76000830187612394565b612604602083018661215e565b612611604083018561215e565b61261e606083018461215e565b95945050505050565b600080fd5b600080fd5b7f4e487b7100000000000000000000000000000000000000000000000000000000600052604160045260246000fd5b6126698261229d565b810181811067ffffffffffffffff8211171561268857612687612631565b5b80604052505050565b600061269b612188565b90506126a78282612660565b919050565b600067ffffffffffffffff8211156126c7576126c6612631565b5b6126d08261229d565b9050602081019050919050565b82818337600083830152505050565b60006126ff6126fa846126ac565b612691565b90508281526020810184848401111561271b5761271a61262c565b5b6127268482856126dd565b509392505050565b600082601f83011261274357612742612627565b5b81356127538482602086016126ec565b91505092915050565b60006020828403121561277257612771612192565b5b600082013567ffffffffffffffff8111156127905761278f612197565b5b61279c8482850161272e565b91505092915050565b6127ae81612221565b81146127b957600080fd5b50565b6000813590506127cb816127a5565b92915050565b600080604083850312156127e8576127e7612192565b5b60006127f6858286016123d5565b9250506020612807858286016127bc565b9150509250929050565b600080fd5b600080fd5b60008083601f84011261283157612830612627565b5b8235905067ffffffffffffffff81111561284e5761284d612811565b5b60208301915083600182028301111561286a57612869612816565b5b9250929050565b60008060008060006080868803121561288d5761288c612192565b5b600061289b888289016123d5565b95505060206128ac888289016123d5565b94505060406128bd88828901612320565b935050606086013567ffffffffffffffff8111156128de576128dd612197565b5b6128ea8882890161281b565b92509250509295509295909350565b600080604083850312156129105761290f612192565b5b600061291e858286016123d5565b925050602061292f858286016123d5565b9150509250929050565b7f4e487b7100000000000000000000000000000000000000000000000000000000600052602260045260246000fd5b6000600282049050600182168061298057607f821691505b60208210810361299357612992612939565b5b50919050565b7f4e4f545f415554484f52495a4544000000000000000000000000000000000000600082015250565b60006129cf600e83612262565b91506129da82612999565b602082019050919050565b600060208201905081810360008301526129fe816129c2565b9050919050565b7f4e487b7100000000000000000000000000000000000000000000000000000000600052601160045260246000fd5b6000612a3f82612154565b91507fffffffffffffffffffffffffffffffffffffffffffffffffffffffffffffffff8203612a7157612a70612a05565b5b600182019050919050565b7f4e6f6e636520696e636f72726563740000000000000000000000000000000000600082015250565b6000612ab2600f83612262565b9150612abd82612a7c565b602082019050919050565b60006020820190508181036000830152612ae181612aa5565b9050919050565b7f536f6c7574696f6e206578697374000000000000000000000000000000000000600082015250565b6000612b1e600e83612262565b9150612b2982612ae8565b602082019050919050565b60006020820190508181036000830152612b4d81612b11565b9050919050565b6000612b5f82612154565b9150612b6a83612154565b9250828201905080821115612b8257612b81612a05565b5b92915050565b7f57524f4e475f46524f4d00000000000000000000000000000000000000000000600082015250565b6000612bbe600a83612262565b9150612bc982612b88565b602082019050919050565b60006020820190508181036000830152612bed81612bb1565b9050919050565b7f494e56414c49445f524543495049454e54000000000000000000000000000000600082015250565b6000612c2a601183612262565b9150612c3582612bf4565b602082019050919050565b60006020820190508181036000830152612c5981612c1d565b9050919050565b600082825260208201905092915050565b50565b6000612c81600083612c60565b9150612c8c82612c71565b600082019050919050565b6000608082019050612cac6000830186612394565b612cb96020830185612394565b612cc6604083018461215e565b8181036060830152612cd781612c74565b9050949350505050565b600081519050612cf0816121c8565b92915050565b600060208284031215612d0c57612d0b612192565b5b6000612d1a84828501612ce1565b91505092915050565b7f554e534146455f524543495049454e5400000000000000000000000000000000600082015250565b6000612d59601083612262565b9150612d6482612d23565b602082019050919050565b60006020820190508181036000830152612d8881612d4c565b9050919050565b7f4e4f545f4d494e54454400000000000000000000000000000000000000000000600082015250565b6000612dc5600a83612262565b9150612dd082612d8f565b602082019050919050565b60006020820190508181036000830152612df481612db8565b9050919050565b7f5a45524f5f414444524553530000000000000000000000000000000000000000600082015250565b6000612e31600c83612262565b9150612e3c82612dfb565b602082019050919050565b60006020820190508181036000830152612e6081612e24565b9050919050565b60008190508160005260206000209050919050565b60006020601f8301049050919050565b600082821b905092915050565b600060088302612ec97fffffffffffffffffffffffffffffffffffffffffffffffffffffffffffffffff82612e8c565b612ed38683612e8c565b95508019841693508086168417925050509392505050565b6000819050919050565b6000612f10612f0b612f0684612154565b612eeb565b612154565b9050919050565b6000819050919050565b612f2a83612ef5565b612f3e612f3682612f17565b848454612e99565b825550505050565b600090565b612f53612f46565b612f5e818484612f21565b505050565b5b81811015612f8257612f77600082612f4b565b600181019050612f64565b5050565b601f821115612fc757612f9881612e67565b612fa184612e7c565b81016020851015612fb0578190505b612fc4612fbc85612e7c565b830182612f63565b50505b505050565b600082821c905092915050565b6000612fea60001984600802612fcc565b1980831691505092915050565b60006130038383612fd9565b9150826002028217905092915050565b61301c82612257565b67ffffffffffffffff81111561303557613034612631565b5b61303f8254612968565b61304a828285612f86565b600060209050601f83116001811461307d576000841561306b578287015190505b6130758582612ff7565b8655506130dd565b601f19841661308b86612e67565b60005b828110156130b35784890151825560018201915060208501945060208101905061308e565b868310156130d057848901516130cc601f891682612fd9565b8355505b6001600288020188555050505b505050505050565b60006130f18385612c60565b93506130fe8385846126dd565b6131078361229d565b840190509392505050565b60006080820190506131276000830188612394565b6131346020830187612394565b613141604083018661215e565b81810360608301526131548184866130e5565b90509695505050505050565b600081905092915050565b6000815461317881612968565b6131828186613160565b9450600182166000811461319d57600181146131b2576131e5565b60ff19831686528115158202860193506131e5565b6131bb85612e67565b60005b838110156131dd578154818901526001820191506020810190506131be565b838801955050505b50505092915050565b60006131f982612257565b6132038185613160565b9350613213818560208601612273565b80840191505092915050565b7f2e6a736f6e000000000000000000000000000000000000000000000000000000600082015250565b6000613255600583613160565b91506132608261321f565b600582019050919050565b6000613277828561316b565b915061328382846131ee565b915061328e82613248565b91508190509392505050565b7f4f776e61626c653a206e6577206f776e657220697320746865207a65726f206160008201527f6464726573730000000000000000000000000000000000000000000000000000602082015250565b60006132f6602683612262565b91506133018261329a565b604082019050919050565b60006020820190508181036000830152613325816132e9565b9050919050565b6000819050919050565b6133476133428261242a565b61332c565b82525050565b60008160601b9050919050565b60006133658261334d565b9050919050565b60006133778261335a565b9050919050565b61338f61338a82612382565b61336c565b82525050565b6000819050919050565b6133b06133ab82612154565b613395565b82525050565b60006133c28286613336565b6020820191506133d2828561337e565b6014820191506133e2828461339f565b602082019150819050949350505050565b7f44696765737420697320646966666572656e7400000000000000000000000000600082015250565b6000613429601383612262565b9150613434826133f3565b602082019050919050565b600060208201905081810360008301526134588161341c565b9050919050565b7f4f776e61626c653a2063616c6c6572206973206e6f7420746865206f776e6572600082015250565b6000613495602083612262565b91506134a08261345f565b602082019050919050565b600060208201905081810360008301526134c481613488565b9050919050565b7f4e487b7100000000000000000000000000000000000000000000000000000000600052601260045260246000fd5b7f414c52454144595f4d494e544544000000000000000000000000000000000000600082015250565b6000613530600e83612262565b915061353b826134fa565b602082019050919050565b6000602082019050818103600083015261355f81613523565b905091905056fea26469706673582212205b2a97a27f0b255615c498914dc1a5459a60ce1601bb476c01eede2276acfd4964736f6c63430008120033",
  "linkReferences": {},
  "deployedLinkReferences": {}
}