{
  "_format": "hh-sol-artifact-1",
  "contractName": "Planets",
  "sourceName": "src/Planets.sol",
  "abi": [
    {
      "anonymous": false,
      "inputs": [
        {
          "indexed": true,
          "internalType": "address",
          "name": "owner",
          "type": "address"
        },
        {
          "indexed": true,
          "internalType": "address",
          "name": "approved",
          "type": "address"
        },
        {
          "indexed": true,
          "internalType": "uint256",
          "name": "tokenId",
          "type": "uint256"
        }
      ],
      "name": "Approval",
      "type": "event"
    },
    {
      "anonymous": false,
      "inputs": [
        {
          "indexed": true,
          "internalType": "address",
          "name": "owner",
          "type": "address"
        },
        {
          "indexed": true,
          "internalType": "address",
          "name": "operator",
          "type": "address"
        },
        {
          "indexed": false,
          "internalType": "bool",
          "name": "approved",
          "type": "bool"
        }
      ],
      "name": "ApprovalForAll",
      "type": "event"
    },
    {
      "anonymous": false,
      "inputs": [
        {
          "indexed": false,
          "internalType": "uint256",
          "name": "difficulty",
          "type": "uint256"
        }
      ],
      "name": "DifficultyChange",
      "type": "event"
    },
    {
      "anonymous": false,
      "inputs": [
        {
          "indexed": false,
          "internalType": "uint8",
          "name": "version",
          "type": "uint8"
        }
      ],
      "name": "Initialized",
      "type": "event"
    },
    {
      "anonymous": false,
      "inputs": [
        {
          "indexed": true,
          "internalType": "address",
          "name": "from",
          "type": "address"
        },
        {
          "indexed": false,
          "internalType": "uint256",
          "name": "rewardAmount",
          "type": "uint256"
        },
        {
          "indexed": false,
          "internalType": "uint256",
          "name": "epochCount",
          "type": "uint256"
        },
        {
          "indexed": false,
          "internalType": "bytes32",
          "name": "newChallengeNumber",
          "type": "bytes32"
        }
      ],
      "name": "Mint",
      "type": "event"
    },
    {
      "anonymous": false,
      "inputs": [
        {
          "indexed": true,
          "internalType": "address",
          "name": "from",
          "type": "address"
        },
        {
          "indexed": true,
          "internalType": "address",
          "name": "to",
          "type": "address"
        },
        {
          "indexed": true,
          "internalType": "uint256",
          "name": "tokenId",
          "type": "uint256"
        }
      ],
      "name": "Transfer",
      "type": "event"
    },
    {
      "inputs": [],
      "name": "BASE_REWARD",
      "outputs": [
        {
          "internalType": "uint256",
          "name": "",
          "type": "uint256"
        }
      ],
      "stateMutability": "view",
      "type": "function"
    },
    {
      "inputs": [],
      "name": "ITEM_PER_READJUSTMENT",
      "outputs": [
        {
          "internalType": "uint256",
          "name": "",
          "type": "uint256"
        }
      ],
      "stateMutability": "view",
      "type": "function"
    },
    {
      "inputs": [],
      "name": "MAXIMUM_TARGET_DIFFICULTY",
      "outputs": [
        {
          "internalType": "uint256",
          "name": "",
          "type": "uint256"
        }
      ],
      "stateMutability": "view",
      "type": "function"
    },
    {
      "inputs": [],
      "name": "MAX_ADJUSTMENT_PERCENT",
      "outputs": [
        {
          "internalType": "uint256",
          "name": "",
          "type": "uint256"
        }
      ],
      "stateMutability": "view",
      "type": "function"
    },
    {
      "inputs": [],
      "name": "MINIMUM_TARGET_DIFFICULTY",
      "outputs": [
        {
          "internalType": "uint256",
          "name": "",
          "type": "uint256"
        }
      ],
      "stateMutability": "view",
      "type": "function"
    },
    {
      "inputs": [],
      "name": "MINING_RATE_FACTOR",
      "outputs": [
        {
          "internalType": "uint256",
          "name": "",
          "type": "uint256"
        }
      ],
      "stateMutability": "view",
      "type": "function"
    },
    {
      "inputs": [],
      "name": "QUOTIENT_LIMIT",
      "outputs": [
        {
          "internalType": "uint256",
          "name": "",
          "type": "uint256"
        }
      ],
      "stateMutability": "view",
      "type": "function"
    },
    {
      "inputs": [],
      "name": "TARGET_DIVISOR",
      "outputs": [
        {
          "internalType": "uint256",
          "name": "",
          "type": "uint256"
        }
      ],
      "stateMutability": "view",
      "type": "function"
    },
    {
      "inputs": [
        {
          "internalType": "address",
          "name": "to",
          "type": "address"
        },
        {
          "internalType": "uint256",
          "name": "tokenId",
          "type": "uint256"
        }
      ],
      "name": "approve",
      "outputs": [],
      "stateMutability": "nonpayable",
      "type": "function"
    },
    {
      "inputs": [
        {
          "internalType": "address",
          "name": "owner",
          "type": "address"
        }
      ],
      "name": "balanceOf",
      "outputs": [
        {
          "internalType": "uint256",
          "name": "",
          "type": "uint256"
        }
      ],
      "stateMutability": "view",
      "type": "function"
    },
    {
      "inputs": [],
      "name": "baseUri",
      "outputs": [
        {
          "internalType": "string",
          "name": "",
          "type": "string"
        }
      ],
      "stateMutability": "view",
      "type": "function"
    },
    {
      "inputs": [],
      "name": "challengeNumber",
      "outputs": [
        {
          "internalType": "bytes32",
          "name": "",
          "type": "bytes32"
        }
      ],
      "stateMutability": "view",
      "type": "function"
    },
    {
      "inputs": [
        {
          "internalType": "uint256",
          "name": "nonce",
          "type": "uint256"
        },
        {
          "internalType": "bytes32",
          "name": "challengeDigest",
          "type": "bytes32"
        }
      ],
      "name": "checkHash",
      "outputs": [
        {
          "internalType": "bytes32",
          "name": "digest",
          "type": "bytes32"
        }
      ],
      "stateMutability": "view",
      "type": "function"
    },
    {
      "inputs": [],
      "name": "currentTokenId",
      "outputs": [
        {
          "internalType": "uint256",
          "name": "",
          "type": "uint256"
        }
      ],
      "stateMutability": "view",
      "type": "function"
    },
    {
      "inputs": [],
      "name": "decimals",
      "outputs": [
        {
          "internalType": "uint8",
          "name": "",
          "type": "uint8"
        }
      ],
      "stateMutability": "view",
      "type": "function"
    },
    {
      "inputs": [],
      "name": "difficulty",
      "outputs": [
        {
          "internalType": "uint256",
          "name": "",
          "type": "uint256"
        }
      ],
      "stateMutability": "view",
      "type": "function"
    },
    {
      "inputs": [
        {
          "internalType": "uint256",
          "name": "",
          "type": "uint256"
        }
      ],
      "name": "digestForTokenId",
      "outputs": [
        {
          "internalType": "bytes32",
          "name": "",
          "type": "bytes32"
        }
      ],
      "stateMutability": "view",
      "type": "function"
    },
    {
      "inputs": [],
      "name": "epochCount",
      "outputs": [
        {
          "internalType": "uint256",
          "name": "",
          "type": "uint256"
        }
      ],
      "stateMutability": "view",
      "type": "function"
    },
    {
      "inputs": [
        {
          "internalType": "uint256",
          "name": "tokenId",
          "type": "uint256"
        }
      ],
      "name": "getApproved",
      "outputs": [
        {
          "internalType": "address",
          "name": "",
          "type": "address"
        }
      ],
      "stateMutability": "view",
      "type": "function"
    },
    {
      "inputs": [],
      "name": "getChallengeNumber",
      "outputs": [
        {
          "internalType": "bytes32",
          "name": "",
          "type": "bytes32"
        }
      ],
      "stateMutability": "view",
      "type": "function"
    },
    {
      "inputs": [],
      "name": "getMiningDifficulty",
      "outputs": [
        {
          "internalType": "uint256",
          "name": "",
          "type": "uint256"
        }
      ],
      "stateMutability": "view",
      "type": "function"
    },
    {
      "inputs": [],
      "name": "getMiningReward",
      "outputs": [
        {
          "internalType": "uint256",
          "name": "",
          "type": "uint256"
        }
      ],
      "stateMutability": "pure",
      "type": "function"
    },
    {
      "inputs": [],
      "name": "getMiningTarget",
      "outputs": [
        {
          "internalType": "uint256",
          "name": "",
          "type": "uint256"
        }
      ],
      "stateMutability": "view",
      "type": "function"
    },
    {
      "inputs": [],
      "name": "getPlanetMinted",
      "outputs": [
        {
          "internalType": "uint256",
          "name": "",
          "type": "uint256"
        }
      ],
      "stateMutability": "view",
      "type": "function"
    },
    {
      "inputs": [
        {
          "internalType": "uint256",
          "name": "x",
          "type": "uint256"
        },
        {
          "internalType": "uint256",
          "name": "y",
          "type": "uint256"
        }
      ],
      "name": "getPlanetZone",
      "outputs": [
        {
          "internalType": "uint256",
          "name": "zone",
          "type": "uint256"
        }
      ],
      "stateMutability": "pure",
      "type": "function"
    },
    {
      "inputs": [
        {
          "internalType": "uint256",
          "name": "id",
          "type": "uint256"
        }
      ],
      "name": "getTotalStatsPerTokenId",
      "outputs": [
        {
          "internalType": "uint256",
          "name": "",
          "type": "uint256"
        },
        {
          "internalType": "uint256",
          "name": "",
          "type": "uint256"
        },
        {
          "internalType": "uint256",
          "name": "",
          "type": "uint256"
        },
        {
          "internalType": "uint256",
          "name": "",
          "type": "uint256"
        },
        {
          "internalType": "uint256",
          "name": "",
          "type": "uint256"
        },
        {
          "internalType": "uint256",
          "name": "",
          "type": "uint256"
        }
      ],
      "stateMutability": "view",
      "type": "function"
    },
    {
      "inputs": [
        {
          "internalType": "string",
          "name": "_name",
          "type": "string"
        },
        {
          "internalType": "string",
          "name": "_symbol",
          "type": "string"
        },
        {
          "internalType": "string",
          "name": "_baseUri",
          "type": "string"
        }
      ],
      "name": "initialize",
      "outputs": [],
      "stateMutability": "nonpayable",
      "type": "function"
    },
    {
      "inputs": [
        {
          "internalType": "address",
          "name": "owner",
          "type": "address"
        },
        {
          "internalType": "address",
          "name": "operator",
          "type": "address"
        }
      ],
      "name": "isApprovedForAll",
      "outputs": [
        {
          "internalType": "bool",
          "name": "",
          "type": "bool"
        }
      ],
      "stateMutability": "view",
      "type": "function"
    },
    {
      "inputs": [],
      "name": "latestDifficultyPeriodStarted",
      "outputs": [
        {
          "internalType": "uint256",
          "name": "",
          "type": "uint256"
        }
      ],
      "stateMutability": "view",
      "type": "function"
    },
    {
      "inputs": [],
      "name": "maxSupplyForEra",
      "outputs": [
        {
          "internalType": "uint256",
          "name": "",
          "type": "uint256"
        }
      ],
      "stateMutability": "view",
      "type": "function"
    },
    {
      "inputs": [],
      "name": "maximumRigLevel",
      "outputs": [
        {
          "internalType": "uint8",
          "name": "",
          "type": "uint8"
        }
      ],
      "stateMutability": "view",
      "type": "function"
    },
    {
      "inputs": [
        {
          "internalType": "address",
          "name": "",
          "type": "address"
        }
      ],
      "name": "miningRigForAddress",
      "outputs": [
        {
          "internalType": "uint8",
          "name": "",
          "type": "uint8"
        }
      ],
      "stateMutability": "view",
      "type": "function"
    },
    {
      "inputs": [
        {
          "internalType": "uint256",
          "name": "",
          "type": "uint256"
        }
      ],
      "name": "miningRigPercentage",
      "outputs": [
        {
          "internalType": "uint8",
          "name": "",
          "type": "uint8"
        }
      ],
      "stateMutability": "view",
      "type": "function"
    },
    {
      "inputs": [],
      "name": "miningRigUpgradePrice",
      "outputs": [
        {
          "internalType": "uint256",
          "name": "",
          "type": "uint256"
        }
      ],
      "stateMutability": "view",
      "type": "function"
    },
    {
      "inputs": [
        {
          "internalType": "uint256",
          "name": "nonce",
          "type": "uint256"
        },
        {
          "internalType": "bytes32",
          "name": "challengeDigest",
          "type": "bytes32"
        }
      ],
      "name": "mint",
      "outputs": [
        {
          "internalType": "bool",
          "name": "success",
          "type": "bool"
        }
      ],
      "stateMutability": "nonpayable",
      "type": "function"
    },
    {
      "inputs": [],
      "name": "name",
      "outputs": [
        {
          "internalType": "string",
          "name": "",
          "type": "string"
        }
      ],
      "stateMutability": "view",
      "type": "function"
    },
    {
      "inputs": [],
      "name": "owner",
      "outputs": [
        {
          "internalType": "address",
          "name": "",
          "type": "address"
        }
      ],
      "stateMutability": "view",
      "type": "function"
    },
    {
      "inputs": [
        {
          "internalType": "uint256",
          "name": "tokenId",
          "type": "uint256"
        }
      ],
      "name": "ownerOf",
      "outputs": [
        {
          "internalType": "address",
          "name": "",
          "type": "address"
        }
      ],
      "stateMutability": "view",
      "type": "function"
    },
    {
      "inputs": [],
      "name": "rewardEra",
      "outputs": [
        {
          "internalType": "uint256",
          "name": "",
          "type": "uint256"
        }
      ],
      "stateMutability": "view",
      "type": "function"
    },
    {
      "inputs": [
        {
          "internalType": "uint256",
          "name": "",
          "type": "uint256"
        }
      ],
      "name": "rtsBonusForTokenId",
      "outputs": [
        {
          "internalType": "uint256",
          "name": "",
          "type": "uint256"
        }
      ],
      "stateMutability": "view",
      "type": "function"
    },
    {
      "inputs": [
        {
          "internalType": "address",
          "name": "from",
          "type": "address"
        },
        {
          "internalType": "address",
          "name": "to",
          "type": "address"
        },
        {
          "internalType": "uint256",
          "name": "tokenId",
          "type": "uint256"
        }
      ],
      "name": "safeTransferFrom",
      "outputs": [],
      "stateMutability": "nonpayable",
      "type": "function"
    },
    {
      "inputs": [
        {
          "internalType": "address",
          "name": "from",
          "type": "address"
        },
        {
          "internalType": "address",
          "name": "to",
          "type": "address"
        },
        {
          "internalType": "uint256",
          "name": "tokenId",
          "type": "uint256"
        },
        {
          "internalType": "bytes",
          "name": "data",
          "type": "bytes"
        }
      ],
      "name": "safeTransferFrom",
      "outputs": [],
      "stateMutability": "nonpayable",
      "type": "function"
    },
    {
      "inputs": [
        {
          "internalType": "address",
          "name": "operator",
          "type": "address"
        },
        {
          "internalType": "bool",
          "name": "approved",
          "type": "bool"
        }
      ],
      "name": "setApprovalForAll",
      "outputs": [],
      "stateMutability": "nonpayable",
      "type": "function"
    },
    {
      "inputs": [
        {
          "internalType": "string",
          "name": "_baseUri",
          "type": "string"
        }
      ],
      "name": "setBaseUri",
      "outputs": [],
      "stateMutability": "nonpayable",
      "type": "function"
    },
    {
      "inputs": [
        {
          "internalType": "uint256",
          "name": "priceInEth",
          "type": "uint256"
        }
      ],
      "name": "setMiningRigUpgradePrice",
      "outputs": [],
      "stateMutability": "nonpayable",
      "type": "function"
    },
    {
      "inputs": [],
      "name": "startingAverageReward",
      "outputs": [
        {
          "internalType": "uint256",
          "name": "",
          "type": "uint256"
        }
      ],
      "stateMutability": "view",
      "type": "function"
    },
    {
      "inputs": [],
      "name": "statistics",
      "outputs": [
        {
          "internalType": "address",
          "name": "lastRewardTo",
          "type": "address"
        },
        {
          "internalType": "uint256",
          "name": "lastRewardAmount",
          "type": "uint256"
        },
        {
          "internalType": "uint256",
          "name": "lastRewardEthBlockNumber",
          "type": "uint256"
        },
        {
          "internalType": "uint256",
          "name": "lastRewardTimestamp",
          "type": "uint256"
        }
      ],
      "stateMutability": "view",
      "type": "function"
    },
    {
      "inputs": [
        {
          "internalType": "bytes4",
          "name": "interfaceId",
          "type": "bytes4"
        }
      ],
      "name": "supportsInterface",
      "outputs": [
        {
          "internalType": "bool",
          "name": "",
          "type": "bool"
        }
      ],
      "stateMutability": "view",
      "type": "function"
    },
    {
      "inputs": [],
      "name": "symbol",
      "outputs": [
        {
          "internalType": "string",
          "name": "",
          "type": "string"
        }
      ],
      "stateMutability": "view",
      "type": "function"
    },
    {
      "inputs": [
        {
          "internalType": "uint256",
          "name": "tokenId",
          "type": "uint256"
        }
      ],
      "name": "tokenURI",
      "outputs": [
        {
          "internalType": "string",
          "name": "",
          "type": "string"
        }
      ],
      "stateMutability": "view",
      "type": "function"
    },
    {
      "inputs": [],
      "name": "tokensMinted",
      "outputs": [
        {
          "internalType": "uint256",
          "name": "",
          "type": "uint256"
        }
      ],
      "stateMutability": "view",
      "type": "function"
    },
    {
      "inputs": [],
      "name": "totalERSupply",
      "outputs": [
        {
          "internalType": "uint256",
          "name": "",
          "type": "uint256"
        }
      ],
      "stateMutability": "view",
      "type": "function"
    },
    {
      "inputs": [],
      "name": "totalRtsPerEra",
      "outputs": [
        {
          "internalType": "uint256",
          "name": "",
          "type": "uint256"
        }
      ],
      "stateMutability": "view",
      "type": "function"
    },
    {
      "inputs": [
        {
          "internalType": "address",
          "name": "from",
          "type": "address"
        },
        {
          "internalType": "address",
          "name": "to",
          "type": "address"
        },
        {
          "internalType": "uint256",
          "name": "tokenId",
          "type": "uint256"
        }
      ],
      "name": "transferFrom",
      "outputs": [],
      "stateMutability": "nonpayable",
      "type": "function"
    },
    {
      "inputs": [
        {
          "internalType": "uint8",
          "name": "amount",
          "type": "uint8"
        }
      ],
      "name": "upgradeMiningRig",
      "outputs": [],
      "stateMutability": "payable",
      "type": "function"
    },
    {
      "inputs": [],
      "name": "withdraw",
      "outputs": [],
      "stateMutability": "nonpayable",
      "type": "function"
    }
  ],
  "bytecode": "0x608060405234801561001057600080fd5b50614df5806100206000396000f3fe60806040526004361061036a5760003560e01c80636a2e19a2116101c6578063a22cb465116100f7578063b88d4fde11610095578063d8bfafa81161006f578063d8bfafa814610cd8578063e09feae314610d03578063e985e9c514610d40578063ee2e561214610d7d5761036a565b8063b88d4fde14610c47578063c87b56dd14610c70578063cb9ae70714610cad5761036a565b8063ac693778116100d1578063ac69377814610b77578063acf86c8714610ba2578063ad1dfe3b14610bdf578063b57d728314610c0a5761036a565b8063a22cb46514610afa578063a465eeaf14610b23578063a6487c5314610b4e5761036a565b806382c890fd1161016457806395d89b411161013e57806395d89b4114610a4d57806395e272bd14610a785780639abc832014610aa6578063a0bcfc7f14610ad15761036a565b806382c890fd146109cc5780638ae0368b146109f75780638da5cb5b14610a225761036a565b806370a08231116101a057806370a08231146108fc5780637c2d542c146109395780637c7f320614610976578063829965cc146109a15761036a565b80636a2e19a2146108645780636a586594146108a65780636de9f32b146108d15761036a565b80632d38bf7a116102a057806347e9c0951161023e5780634ef37628116102185780634ef37628146107945780634fa972e1146107bf57806356b757be146107ea5780636352211e146108275761036a565b806347e9c09514610715578063490203a7146107405780634e8021391461076b5761036a565b80633426e5f51161027a5780633426e5f51461067f5780633ccfd60b146106aa5780633d85d614146106c157806342842e0e146106ec5761036a565b80632d38bf7a146105fe578063313ce5671461062957806332e99708146106545761036a565b8063095ea7b31161030d57806319cae462116102e757806319cae462146105545780631beddf1c1461057f57806322009af6146105aa57806323b872dd146105d55761036a565b8063095ea7b3146104c357806317da485f146104ec5780631801fbe5146105175761036a565b806306fdde031161034957806306fdde031461041457806307a11aeb1461043f578063081812fc1461045b578063095b6d4c146104985761036a565b80629a9b7b1461036f57806301ffc9a71461039a57806303ca2f53146103d7575b600080fd5b34801561037b57600080fd5b50610384610da8565b6040516103919190613209565b60405180910390f35b3480156103a657600080fd5b506103c160048036038101906103bc9190613290565b610dae565b6040516103ce91906132d8565b60405180910390f35b3480156103e357600080fd5b506103fe60048036038101906103f9919061331f565b610e90565b60405161040b9190613368565b60405180910390f35b34801561042057600080fd5b50610429610ec4565b6040516104369190613413565b60405180910390f35b61045960048036038101906104549190613461565b610f56565b005b34801561046757600080fd5b50610482600480360381019061047d919061331f565b61104d565b60405161048f91906134cf565b60405180910390f35b3480156104a457600080fd5b506104ad611093565b6040516104ba9190613209565b60405180910390f35b3480156104cf57600080fd5b506104ea60048036038101906104e59190613516565b611099565b005b3480156104f857600080fd5b506105016111b0565b60405161050e9190613209565b60405180910390f35b34801561052357600080fd5b5061053e6004803603810190610539919061358c565b6111ba565b60405161054b91906132d8565b60405180910390f35b34801561056057600080fd5b506105696113c1565b6040516105769190613209565b60405180910390f35b34801561058b57600080fd5b506105946113c7565b6040516105a19190613209565b60405180910390f35b3480156105b657600080fd5b506105bf6113cc565b6040516105cc9190613209565b60405180910390f35b3480156105e157600080fd5b506105fc60048036038101906105f791906135cc565b6113d1565b005b34801561060a57600080fd5b50610613611431565b6040516106209190613209565b60405180910390f35b34801561063557600080fd5b5061063e611437565b60405161064b9190613368565b60405180910390f35b34801561066057600080fd5b5061066961143c565b6040516106769190613209565b60405180910390f35b34801561068b57600080fd5b50610694611446565b6040516106a19190613209565b60405180910390f35b3480156106b657600080fd5b506106bf61144b565b005b3480156106cd57600080fd5b506106d6611546565b6040516106e39190613368565b60405180910390f35b3480156106f857600080fd5b50610713600480360381019061070e91906135cc565b611559565b005b34801561072157600080fd5b5061072a611579565b6040516107379190613209565b60405180910390f35b34801561074c57600080fd5b5061075561157f565b6040516107629190613209565b60405180910390f35b34801561077757600080fd5b50610792600480360381019061078d919061331f565b6115a4565b005b3480156107a057600080fd5b506107a961163e565b6040516107b6919061362e565b60405180910390f35b3480156107cb57600080fd5b506107d4611647565b6040516107e19190613209565b60405180910390f35b3480156107f657600080fd5b50610811600480360381019061080c919061331f565b61166a565b60405161081e9190613209565b60405180910390f35b34801561083357600080fd5b5061084e6004803603810190610849919061331f565b611682565b60405161085b91906134cf565b60405180910390f35b34801561087057600080fd5b5061088b6004803603810190610886919061331f565b611708565b60405161089d96959493929190613649565b60405180910390f35b3480156108b257600080fd5b506108bb61189f565b6040516108c89190613209565b60405180910390f35b3480156108dd57600080fd5b506108e66118a6565b6040516108f39190613209565b60405180910390f35b34801561090857600080fd5b50610923600480360381019061091e91906136aa565b6118ac565b6040516109309190613209565b60405180910390f35b34801561094557600080fd5b50610960600480360381019061095b919061358c565b611963565b60405161096d919061362e565b60405180910390f35b34801561098257600080fd5b5061098b611977565b6040516109989190613209565b60405180910390f35b3480156109ad57600080fd5b506109b6611999565b6040516109c39190613209565b60405180910390f35b3480156109d857600080fd5b506109e161199f565b6040516109ee9190613209565b60405180910390f35b348015610a0357600080fd5b50610a0c6119c0565b604051610a19919061362e565b60405180910390f35b348015610a2e57600080fd5b50610a376119c6565b604051610a4491906134cf565b60405180910390f35b348015610a5957600080fd5b50610a626119ec565b604051610a6f9190613413565b60405180910390f35b348015610a8457600080fd5b50610a8d611a7e565b604051610a9d94939291906136d7565b60405180910390f35b348015610ab257600080fd5b50610abb611abc565b604051610ac89190613413565b60405180910390f35b348015610add57600080fd5b50610af86004803603810190610af39190613851565b611b4a565b005b348015610b0657600080fd5b50610b216004803603810190610b1c91906138c6565b611bed565b005b348015610b2f57600080fd5b50610b38611c03565b604051610b459190613209565b60405180910390f35b348015610b5a57600080fd5b50610b756004803603810190610b709190613906565b611c0d565b005b348015610b8357600080fd5b50610b8c611eef565b604051610b999190613209565b60405180910390f35b348015610bae57600080fd5b50610bc96004803603810190610bc491906139ad565b611ef5565b604051610bd69190613209565b60405180910390f35b348015610beb57600080fd5b50610bf4611f9d565b604051610c019190613209565b60405180910390f35b348015610c1657600080fd5b50610c316004803603810190610c2c91906136aa565b611faf565b604051610c3e9190613368565b60405180910390f35b348015610c5357600080fd5b50610c6e6004803603810190610c699190613a8e565b611fcf565b005b348015610c7c57600080fd5b50610c976004803603810190610c92919061331f565b612031565b604051610ca49190613413565b60405180910390f35b348015610cb957600080fd5b50610cc2612091565b604051610ccf9190613209565b60405180910390f35b348015610ce457600080fd5b50610ced612097565b604051610cfa9190613209565b60405180910390f35b348015610d0f57600080fd5b50610d2a6004803603810190610d25919061331f565b61209c565b604051610d37919061362e565b60405180910390f35b348015610d4c57600080fd5b50610d676004803603810190610d629190613b11565b6120b4565b604051610d7491906132d8565b60405180910390f35b348015610d8957600080fd5b50610d92612148565b604051610d9f9190613209565b60405180910390f35b609e5481565b60007f80ac58cd000000000000000000000000000000000000000000000000000000007bffffffffffffffffffffffffffffffffffffffffffffffffffffffff1916827bffffffffffffffffffffffffffffffffffffffffffffffffffffffff19161480610e7957507f5b5e139f000000000000000000000000000000000000000000000000000000007bffffffffffffffffffffffffffffffffffffffffffffffffffffffff1916827bffffffffffffffffffffffffffffffffffffffffffffffffffffffff1916145b80610e895750610e888261214e565b5b9050919050565b60a88181548110610ea057600080fd5b9060005260206000209060209182820401919006915054906101000a900460ff1681565b6060606c8054610ed390613b80565b80601f0160208091040260200160405190810160405280929190818152602001828054610eff90613b80565b8015610f4c5780601f10610f2157610100808354040283529160200191610f4c565b820191906000526020600020905b815481529060010190602001808311610f2f57829003601f168201915b5050505050905090565b8060ff1660a654610f679190613be0565b341015610f7357600080fd5b60008160a960003373ffffffffffffffffffffffffffffffffffffffff1673ffffffffffffffffffffffffffffffffffffffff16815260200190815260200160002060009054906101000a900460ff16610fcd9190613c22565b905060a760009054906101000a900460ff1660ff168160ff161115610ff157600080fd5b8060a960003373ffffffffffffffffffffffffffffffffffffffff1673ffffffffffffffffffffffffffffffffffffffff16815260200190815260200160002060006101000a81548160ff021916908360ff1602179055505050565b6000611058826121b8565b6070600083815260200190815260200160002060009054906101000a900473ffffffffffffffffffffffffffffffffffffffff169050919050565b6107d081565b60006110a482611682565b90508073ffffffffffffffffffffffffffffffffffffffff168373ffffffffffffffffffffffffffffffffffffffff1603611114576040517f08c379a000000000000000000000000000000000000000000000000000000000815260040161110b90613cc9565b60405180910390fd5b8073ffffffffffffffffffffffffffffffffffffffff16611133612203565b73ffffffffffffffffffffffffffffffffffffffff16148061116257506111618161115c612203565b6120b4565b5b6111a1576040517f08c379a000000000000000000000000000000000000000000000000000000000815260040161119890613d5b565b60405180910390fd5b6111ab838361220b565b505050565b6000600154905090565b6000609e600081546111cb90613d7b565b919050819055609e8190555060006111e384846122c4565b90506001548160001c111561122d576040517f08c379a000000000000000000000000000000000000000000000000000000000815260040161122490613e0f565b60405180910390fd5b600060a16000609e5481526020019081526020016000205490506000801b811461128c576040517f08c379a000000000000000000000000000000000000000000000000000000000815260040161128390613e7b565b60405180910390fd5b8160a16000609e548152602001908152602001600020819055506112b233609e5461233c565b60006103e88360001c1660646112c89190613e9b565b9050600060648260a860a960003373ffffffffffffffffffffffffffffffffffffffff1673ffffffffffffffffffffffffffffffffffffffff16815260200190815260200160002060009054906101000a900460ff1660ff168154811061133257611331613ecf565b5b90600052602060002090602091828204019190069054906101000a900460ff1660ff1661135f9190613be0565b6113699190613f2d565b9050600081111561138f578060aa6000609e548152602001908152602001600020819055505b808261139b9190613e9b565b600260008282546113ac9190613e9b565b92505081905550600194505050505092915050565b60015481565b606481565b60fa81565b6113e26113dc612203565b8261235a565b611421576040517f08c379a000000000000000000000000000000000000000000000000000000000815260040161141890613fd0565b60405180910390fd5b61142c8383836123ef565b505050565b60a45481565b601281565b6000600154905090565b60b481565b60ab60009054906101000a900473ffffffffffffffffffffffffffffffffffffffff1673ffffffffffffffffffffffffffffffffffffffff163373ffffffffffffffffffffffffffffffffffffffff16146114db576040517f08c379a00000000000000000000000000000000000000000000000000000000081526004016114d290614062565b60405180910390fd5b60ab60009054906101000a900473ffffffffffffffffffffffffffffffffffffffff1673ffffffffffffffffffffffffffffffffffffffff166108fc479081150290604051600060405180830381858888f19350505050158015611543573d6000803e3d6000fd5b50565b60a760009054906101000a900460ff1681565b61157483838360405180602001604052806000815250611fcf565b505050565b60a65481565b6000601260ff16600a61159291906141b5565b6103e861159f9190613be0565b905090565b60ab60009054906101000a900473ffffffffffffffffffffffffffffffffffffffff1673ffffffffffffffffffffffffffffffffffffffff163373ffffffffffffffffffffffffffffffffffffffff1614611634576040517f08c379a000000000000000000000000000000000000000000000000000000000815260040161162b90614062565b60405180910390fd5b8060a68190555050565b60008054905090565b601260ff16600a61165891906141b5565b633b9aca006116679190613be0565b81565b60aa6020528060005260406000206000915090505481565b60008061168e836126e8565b9050600073ffffffffffffffffffffffffffffffffffffffff168173ffffffffffffffffffffffffffffffffffffffff16036116ff576040517f08c379a00000000000000000000000000000000000000000000000000000000081526004016116f69061424c565b60405180910390fd5b80915050919050565b600080600080600080600060a160008981526020019081526020016000205460001c905060006103e8603083901c16905060006103e8603c84901c1690506000600a6117548484611ef5565b61175e9190613be0565b9050600060aa60008d8152602001908152602001600020546103e8861660646117879190613e9b565b6117919190613e9b565b905060006103e8600c87901c1660fa6117aa9190613e9b565b905060006103e8601888901c1660fa6117c39190613e9b565b905060006103e8602489901c1660fa6117dc9190613e9b565b9050600085111561187c57606485856117f59190613be0565b6117ff9190613f2d565b8461180a9190613e9b565b93506064858461181a9190613be0565b6118249190613f2d565b8361182f9190613e9b565b92506064858361183f9190613be0565b6118499190613f2d565b826118549190613e9b565b9150606485826118649190613be0565b61186e9190613f2d565b816118799190613e9b565b90505b838383838a8a9d509d509d509d509d509d50505050505050505091939550919395565b6201000081565b60025481565b60008073ffffffffffffffffffffffffffffffffffffffff168273ffffffffffffffffffffffffffffffffffffffff160361191c576040517f08c379a0000000000000000000000000000000000000000000000000000000008152600401611913906142de565b60405180910390fd5b606f60008373ffffffffffffffffffffffffffffffffffffffff1673ffffffffffffffffffffffffffffffffffffffff168152602001908152602001600020549050919050565b600061196f83836122c4565b905092915050565b7d10000000000000000000000000000000000000000000000000000000000081565b60a25481565b601260ff16600a6119b091906141b5565b6103e86119bd9190613be0565b81565b60005481565b60ab60009054906101000a900473ffffffffffffffffffffffffffffffffffffffff1681565b6060606d80546119fb90613b80565b80601f0160208091040260200160405190810160405280929190818152602001828054611a2790613b80565b8015611a745780601f10611a4957610100808354040283529160200191611a74565b820191906000526020600020905b815481529060010190602001808311611a5757829003601f168201915b5050505050905090565b60038060000160009054906101000a900473ffffffffffffffffffffffffffffffffffffffff16908060010154908060020154908060030154905084565b609f8054611ac990613b80565b80601f0160208091040260200160405190810160405280929190818152602001828054611af590613b80565b8015611b425780601f10611b1757610100808354040283529160200191611b42565b820191906000526020600020905b815481529060010190602001808311611b2557829003601f168201915b505050505081565b60ab60009054906101000a900473ffffffffffffffffffffffffffffffffffffffff1673ffffffffffffffffffffffffffffffffffffffff163373ffffffffffffffffffffffffffffffffffffffff1614611bda576040517f08c379a0000000000000000000000000000000000000000000000000000000008152600401611bd190614062565b60405180910390fd5b80609f9081611be991906144aa565b5050565b611bff611bf8612203565b8383612725565b5050565b6000609e54905090565b6000600760019054906101000a900460ff16159050808015611c4157506001600760009054906101000a900460ff1660ff16105b80611c705750611c5030612891565b158015611c6f57506001600760009054906101000a900460ff1660ff16145b5b611caf576040517f08c379a0000000000000000000000000000000000000000000000000000000008152600401611ca6906145ee565b60405180910390fd5b6001600760006101000a81548160ff021916908360ff1602179055508015611ced576001600760016101000a81548160ff0219169083151502179055505b600073ffffffffffffffffffffffffffffffffffffffff1660ab60009054906101000a900473ffffffffffffffffffffffffffffffffffffffff1673ffffffffffffffffffffffffffffffffffffffff1614611d4857600080fd5b3360ab60006101000a81548173ffffffffffffffffffffffffffffffffffffffff021916908373ffffffffffffffffffffffffffffffffffffffff160217905550611d9282611b4a565b600143611d9f919061460e565b406000819055504360a3819055507d100000000000000000000000000000000000000000000000000000000000600181905550666a94d74f43000060a681905550600a60a760006101000a81548160ff021916908360ff160217905550604051806101600160405280600060ff168152602001600560ff168152602001600a60ff168152602001600f60ff168152602001601660ff168152602001601d60ff168152602001602460ff168152602001602e60ff168152602001603860ff168152602001604260ff168152602001605060ff1681525060a890600b611e8492919061312c565b50611e8f84846128b4565b8015611ee9576000600760016101000a81548160ff0219169083151502179055507f7f26b83ff96e1f2b6a682f133852f6798a09c465da95921460cefb38474024986001604051611ee0919061467d565b60405180910390a15b50505050565b60a05481565b60006101f4831115611f16576101f483611f0f919061460e565b9250611f27565b826101f4611f24919061460e565b92505b6101f4821115611f46576101f482611f3f919061460e565b9150611f57565b816101f4611f54919061460e565b91505b6000611f85600284611f699190614698565b600286611f769190614698565b611f809190613e9b565b612911565b9050605081611f949190613f2d565b91505092915050565b60026107d0611fac9190613f2d565b81565b60a96020528060005260406000206000915054906101000a900460ff1681565b611fe0611fda612203565b8361235a565b61201f576040517f08c379a000000000000000000000000000000000000000000000000000000000815260040161201690613fd0565b60405180910390fd5b61202b848484846129f0565b50505050565b60606000609f805461204290613b80565b90501161205e576040518060200160405280600081525061208a565b609f61206983612a4c565b60405160200161207a9291906147ee565b6040516020818303038152906040525b9050919050565b60a35481565b600a81565b60a16020528060005260406000206000915090505481565b6000607160008473ffffffffffffffffffffffffffffffffffffffff1673ffffffffffffffffffffffffffffffffffffffff16815260200190815260200160002060008373ffffffffffffffffffffffffffffffffffffffff1673ffffffffffffffffffffffffffffffffffffffff16815260200190815260200160002060009054906101000a900460ff16905092915050565b60a55481565b60007f01ffc9a7000000000000000000000000000000000000000000000000000000007bffffffffffffffffffffffffffffffffffffffffffffffffffffffff1916827bffffffffffffffffffffffffffffffffffffffffffffffffffffffff1916149050919050565b6121c181612b1a565b612200576040517f08c379a00000000000000000000000000000000000000000000000000000000081526004016121f79061424c565b60405180910390fd5b50565b600033905090565b816070600083815260200190815260200160002060006101000a81548173ffffffffffffffffffffffffffffffffffffffff021916908373ffffffffffffffffffffffffffffffffffffffff160217905550808273ffffffffffffffffffffffffffffffffffffffff1661227e83611682565b73ffffffffffffffffffffffffffffffffffffffff167f8c5be1e5ebec7d5bd14f71427d1e84f3dd0314c0f7b2291e5b200ac8c7c3b92560405160405180910390a45050565b6000805433846040516020016122dc939291906148a7565b604051602081830303815290604052805190602001209050818114612336576040517f08c379a000000000000000000000000000000000000000000000000000000000815260040161232d90614930565b60405180910390fd5b92915050565b612356828260405180602001604052806000815250612b5b565b5050565b60008061236683611682565b90508073ffffffffffffffffffffffffffffffffffffffff168473ffffffffffffffffffffffffffffffffffffffff1614806123a857506123a781856120b4565b5b806123e657508373ffffffffffffffffffffffffffffffffffffffff166123ce8461104d565b73ffffffffffffffffffffffffffffffffffffffff16145b91505092915050565b8273ffffffffffffffffffffffffffffffffffffffff1661240f82611682565b73ffffffffffffffffffffffffffffffffffffffff1614612465576040517f08c379a000000000000000000000000000000000000000000000000000000000815260040161245c906149c2565b60405180910390fd5b600073ffffffffffffffffffffffffffffffffffffffff168273ffffffffffffffffffffffffffffffffffffffff16036124d4576040517f08c379a00000000000000000000000000000000000000000000000000000000081526004016124cb90614a54565b60405180910390fd5b6124e18383836001612bb6565b8273ffffffffffffffffffffffffffffffffffffffff1661250182611682565b73ffffffffffffffffffffffffffffffffffffffff1614612557576040517f08c379a000000000000000000000000000000000000000000000000000000000815260040161254e906149c2565b60405180910390fd5b6070600082815260200190815260200160002060006101000a81549073ffffffffffffffffffffffffffffffffffffffff02191690556001606f60008573ffffffffffffffffffffffffffffffffffffffff1673ffffffffffffffffffffffffffffffffffffffff168152602001908152602001600020600082825403925050819055506001606f60008473ffffffffffffffffffffffffffffffffffffffff1673ffffffffffffffffffffffffffffffffffffffff1681526020019081526020016000206000828254019250508190555081606e600083815260200190815260200160002060006101000a81548173ffffffffffffffffffffffffffffffffffffffff021916908373ffffffffffffffffffffffffffffffffffffffff160217905550808273ffffffffffffffffffffffffffffffffffffffff168473ffffffffffffffffffffffffffffffffffffffff167fddf252ad1be2c89b69c2b068fc378daa952ba7f163c4a11628f55a4df523b3ef60405160405180910390a46126e38383836001612bbc565b505050565b6000606e600083815260200190815260200160002060009054906101000a900473ffffffffffffffffffffffffffffffffffffffff169050919050565b8173ffffffffffffffffffffffffffffffffffffffff168373ffffffffffffffffffffffffffffffffffffffff1603612793576040517f08c379a000000000000000000000000000000000000000000000000000000000815260040161278a90614ac0565b60405180910390fd5b80607160008573ffffffffffffffffffffffffffffffffffffffff1673ffffffffffffffffffffffffffffffffffffffff16815260200190815260200160002060008473ffffffffffffffffffffffffffffffffffffffff1673ffffffffffffffffffffffffffffffffffffffff16815260200190815260200160002060006101000a81548160ff0219169083151502179055508173ffffffffffffffffffffffffffffffffffffffff168373ffffffffffffffffffffffffffffffffffffffff167f17307eab39ab6107e8899845ad3d59bd9653f200f220920489ca2b5937696c318360405161288491906132d8565b60405180910390a3505050565b6000808273ffffffffffffffffffffffffffffffffffffffff163b119050919050565b600760019054906101000a900460ff16612903576040517f08c379a00000000000000000000000000000000000000000000000000000000081526004016128fa90614b52565b60405180910390fd5b61290d8282612bc2565b5050565b60008160b5915071010000000000000000000000000000000000811061293e578060801c90508160401b91505b6901000000000000000000811061295c578060401c90508160201b91505b650100000000008110612976578060201c90508160101b91505b6301000000811061298e578060101c90508160081b91505b620100008101820260121c9150818304820160011c9150818304820160011c9150818304820160011c9150818304820160011c9150818304820160011c9150818304820160011c9150818304820160011c915081828404108203915050919050565b6129fb8484846123ef565b612a0784848484612c35565b612a46576040517f08c379a0000000000000000000000000000000000000000000000000000000008152600401612a3d90614be4565b60405180910390fd5b50505050565b606060006001612a5b84612dbc565b01905060008167ffffffffffffffff811115612a7a57612a79613726565b5b6040519080825280601f01601f191660200182016040528015612aac5781602001600182028036833780820191505090505b509050600082602001820190505b600115612b0f578080600190039150507f3031323334353637383961626364656600000000000000000000000000000000600a86061a8153600a8581612b0357612b02613efe565b5b04945060008503612aba575b819350505050919050565b60008073ffffffffffffffffffffffffffffffffffffffff16612b3c836126e8565b73ffffffffffffffffffffffffffffffffffffffff1614159050919050565b612b658383612f0f565b612b726000848484612c35565b612bb1576040517f08c379a0000000000000000000000000000000000000000000000000000000008152600401612ba890614be4565b60405180910390fd5b505050565b50505050565b50505050565b600760019054906101000a900460ff16612c11576040517f08c379a0000000000000000000000000000000000000000000000000000000008152600401612c0890614b52565b60405180910390fd5b81606c9081612c2091906144aa565b5080606d9081612c3091906144aa565b505050565b6000612c568473ffffffffffffffffffffffffffffffffffffffff16612891565b15612daf578373ffffffffffffffffffffffffffffffffffffffff1663150b7a02612c7f612203565b8786866040518563ffffffff1660e01b8152600401612ca19493929190614c59565b6020604051808303816000875af1925050508015612cdd57506040513d601f19601f82011682018060405250810190612cda9190614cba565b60015b612d5f573d8060008114612d0d576040519150601f19603f3d011682016040523d82523d6000602084013e612d12565b606091505b506000815103612d57576040517f08c379a0000000000000000000000000000000000000000000000000000000008152600401612d4e90614be4565b60405180910390fd5b805181602001fd5b63150b7a0260e01b7bffffffffffffffffffffffffffffffffffffffffffffffffffffffff1916817bffffffffffffffffffffffffffffffffffffffffffffffffffffffff191614915050612db4565b600190505b949350505050565b600080600090507a184f03e93ff9f4daa797ed6e38ed64bf6a1f0100000000000000008310612e1a577a184f03e93ff9f4daa797ed6e38ed64bf6a1f0100000000000000008381612e1057612e0f613efe565b5b0492506040810190505b6d04ee2d6d415b85acef81000000008310612e57576d04ee2d6d415b85acef81000000008381612e4d57612e4c613efe565b5b0492506020810190505b662386f26fc100008310612e8657662386f26fc100008381612e7c57612e7b613efe565b5b0492506010810190505b6305f5e1008310612eaf576305f5e1008381612ea557612ea4613efe565b5b0492506008810190505b6127108310612ed4576127108381612eca57612ec9613efe565b5b0492506004810190505b60648310612ef75760648381612eed57612eec613efe565b5b0492506002810190505b600a8310612f06576001810190505b80915050919050565b600073ffffffffffffffffffffffffffffffffffffffff168273ffffffffffffffffffffffffffffffffffffffff1603612f7e576040517f08c379a0000000000000000000000000000000000000000000000000000000008152600401612f7590614d33565b60405180910390fd5b612f8781612b1a565b15612fc7576040517f08c379a0000000000000000000000000000000000000000000000000000000008152600401612fbe90614d9f565b60405180910390fd5b612fd5600083836001612bb6565b612fde81612b1a565b1561301e576040517f08c379a000000000000000000000000000000000000000000000000000000000815260040161301590614d9f565b60405180910390fd5b6001606f60008473ffffffffffffffffffffffffffffffffffffffff1673ffffffffffffffffffffffffffffffffffffffff1681526020019081526020016000206000828254019250508190555081606e600083815260200190815260200160002060006101000a81548173ffffffffffffffffffffffffffffffffffffffff021916908373ffffffffffffffffffffffffffffffffffffffff160217905550808273ffffffffffffffffffffffffffffffffffffffff16600073ffffffffffffffffffffffffffffffffffffffff167fddf252ad1be2c89b69c2b068fc378daa952ba7f163c4a11628f55a4df523b3ef60405160405180910390a4613128600083836001612bbc565b5050565b82805482825590600052602060002090601f016020900481019282156131c25791602002820160005b8382111561319357835183826101000a81548160ff021916908360ff1602179055509260200192600101602081600001049283019260010302613155565b80156131c05782816101000a81549060ff0219169055600101602081600001049283019260010302613193565b505b5090506131cf91906131d3565b5090565b5b808211156131ec5760008160009055506001016131d4565b5090565b6000819050919050565b613203816131f0565b82525050565b600060208201905061321e60008301846131fa565b92915050565b6000604051905090565b600080fd5b600080fd5b60007fffffffff0000000000000000000000000000000000000000000000000000000082169050919050565b61326d81613238565b811461327857600080fd5b50565b60008135905061328a81613264565b92915050565b6000602082840312156132a6576132a561322e565b5b60006132b48482850161327b565b91505092915050565b60008115159050919050565b6132d2816132bd565b82525050565b60006020820190506132ed60008301846132c9565b92915050565b6132fc816131f0565b811461330757600080fd5b50565b600081359050613319816132f3565b92915050565b6000602082840312156133355761333461322e565b5b60006133438482850161330a565b91505092915050565b600060ff82169050919050565b6133628161334c565b82525050565b600060208201905061337d6000830184613359565b92915050565b600081519050919050565b600082825260208201905092915050565b60005b838110156133bd5780820151818401526020810190506133a2565b60008484015250505050565b6000601f19601f8301169050919050565b60006133e582613383565b6133ef818561338e565b93506133ff81856020860161339f565b613408816133c9565b840191505092915050565b6000602082019050818103600083015261342d81846133da565b905092915050565b61343e8161334c565b811461344957600080fd5b50565b60008135905061345b81613435565b92915050565b6000602082840312156134775761347661322e565b5b60006134858482850161344c565b91505092915050565b600073ffffffffffffffffffffffffffffffffffffffff82169050919050565b60006134b98261348e565b9050919050565b6134c9816134ae565b82525050565b60006020820190506134e460008301846134c0565b92915050565b6134f3816134ae565b81146134fe57600080fd5b50565b600081359050613510816134ea565b92915050565b6000806040838503121561352d5761352c61322e565b5b600061353b85828601613501565b925050602061354c8582860161330a565b9150509250929050565b6000819050919050565b61356981613556565b811461357457600080fd5b50565b60008135905061358681613560565b92915050565b600080604083850312156135a3576135a261322e565b5b60006135b18582860161330a565b92505060206135c285828601613577565b9150509250929050565b6000806000606084860312156135e5576135e461322e565b5b60006135f386828701613501565b935050602061360486828701613501565b92505060406136158682870161330a565b9150509250925092565b61362881613556565b82525050565b6000602082019050613643600083018461361f565b92915050565b600060c08201905061365e60008301896131fa565b61366b60208301886131fa565b61367860408301876131fa565b61368560608301866131fa565b61369260808301856131fa565b61369f60a08301846131fa565b979650505050505050565b6000602082840312156136c0576136bf61322e565b5b60006136ce84828501613501565b91505092915050565b60006080820190506136ec60008301876134c0565b6136f960208301866131fa565b61370660408301856131fa565b61371360608301846131fa565b95945050505050565b600080fd5b600080fd5b7f4e487b7100000000000000000000000000000000000000000000000000000000600052604160045260246000fd5b61375e826133c9565b810181811067ffffffffffffffff8211171561377d5761377c613726565b5b80604052505050565b6000613790613224565b905061379c8282613755565b919050565b600067ffffffffffffffff8211156137bc576137bb613726565b5b6137c5826133c9565b9050602081019050919050565b82818337600083830152505050565b60006137f46137ef846137a1565b613786565b9050828152602081018484840111156138105761380f613721565b5b61381b8482856137d2565b509392505050565b600082601f8301126138385761383761371c565b5b81356138488482602086016137e1565b91505092915050565b6000602082840312156138675761386661322e565b5b600082013567ffffffffffffffff81111561388557613884613233565b5b61389184828501613823565b91505092915050565b6138a3816132bd565b81146138ae57600080fd5b50565b6000813590506138c08161389a565b92915050565b600080604083850312156138dd576138dc61322e565b5b60006138eb85828601613501565b92505060206138fc858286016138b1565b9150509250929050565b60008060006060848603121561391f5761391e61322e565b5b600084013567ffffffffffffffff81111561393d5761393c613233565b5b61394986828701613823565b935050602084013567ffffffffffffffff81111561396a57613969613233565b5b61397686828701613823565b925050604084013567ffffffffffffffff81111561399757613996613233565b5b6139a386828701613823565b9150509250925092565b600080604083850312156139c4576139c361322e565b5b60006139d28582860161330a565b92505060206139e38582860161330a565b9150509250929050565b600067ffffffffffffffff821115613a0857613a07613726565b5b613a11826133c9565b9050602081019050919050565b6000613a31613a2c846139ed565b613786565b905082815260208101848484011115613a4d57613a4c613721565b5b613a588482856137d2565b509392505050565b600082601f830112613a7557613a7461371c565b5b8135613a85848260208601613a1e565b91505092915050565b60008060008060808587031215613aa857613aa761322e565b5b6000613ab687828801613501565b9450506020613ac787828801613501565b9350506040613ad88782880161330a565b925050606085013567ffffffffffffffff811115613af957613af8613233565b5b613b0587828801613a60565b91505092959194509250565b60008060408385031215613b2857613b2761322e565b5b6000613b3685828601613501565b9250506020613b4785828601613501565b9150509250929050565b7f4e487b7100000000000000000000000000000000000000000000000000000000600052602260045260246000fd5b60006002820490506001821680613b9857607f821691505b602082108103613bab57613baa613b51565b5b50919050565b7f4e487b7100000000000000000000000000000000000000000000000000000000600052601160045260246000fd5b6000613beb826131f0565b9150613bf6836131f0565b9250828202613c04816131f0565b91508282048414831517613c1b57613c1a613bb1565b5b5092915050565b6000613c2d8261334c565b9150613c388361334c565b9250828201905060ff811115613c5157613c50613bb1565b5b92915050565b7f4552433732313a20617070726f76616c20746f2063757272656e74206f776e6560008201527f7200000000000000000000000000000000000000000000000000000000000000602082015250565b6000613cb360218361338e565b9150613cbe82613c57565b604082019050919050565b60006020820190508181036000830152613ce281613ca6565b9050919050565b7f4552433732313a20617070726f76652063616c6c6572206973206e6f7420746f60008201527f6b656e206f776e6572206f7220617070726f76656420666f7220616c6c000000602082015250565b6000613d45603d8361338e565b9150613d5082613ce9565b604082019050919050565b60006020820190508181036000830152613d7481613d38565b9050919050565b6000613d86826131f0565b91507fffffffffffffffffffffffffffffffffffffffffffffffffffffffffffffffff8203613db857613db7613bb1565b5b600182019050919050565b7f4e6f6e636520696e636f72726563740000000000000000000000000000000000600082015250565b6000613df9600f8361338e565b9150613e0482613dc3565b602082019050919050565b60006020820190508181036000830152613e2881613dec565b9050919050565b7f536f6c7574696f6e206578697374000000000000000000000000000000000000600082015250565b6000613e65600e8361338e565b9150613e7082613e2f565b602082019050919050565b60006020820190508181036000830152613e9481613e58565b9050919050565b6000613ea6826131f0565b9150613eb1836131f0565b9250828201905080821115613ec957613ec8613bb1565b5b92915050565b7f4e487b7100000000000000000000000000000000000000000000000000000000600052603260045260246000fd5b7f4e487b7100000000000000000000000000000000000000000000000000000000600052601260045260246000fd5b6000613f38826131f0565b9150613f43836131f0565b925082613f5357613f52613efe565b5b828204905092915050565b7f4552433732313a2063616c6c6572206973206e6f7420746f6b656e206f776e6560008201527f72206f7220617070726f76656400000000000000000000000000000000000000602082015250565b6000613fba602d8361338e565b9150613fc582613f5e565b604082019050919050565b60006020820190508181036000830152613fe981613fad565b9050919050565b7f4f6e6c79206f776e657220697320616c6c6f77656420746f20706572666f726d60008201527f207468697320616374696f6e0000000000000000000000000000000000000000602082015250565b600061404c602c8361338e565b915061405782613ff0565b604082019050919050565b6000602082019050818103600083015261407b8161403f565b9050919050565b60008160011c9050919050565b6000808291508390505b60018511156140d9578086048111156140b5576140b4613bb1565b5b60018516156140c45780820291505b80810290506140d285614082565b9450614099565b94509492505050565b6000826140f257600190506141ae565b8161410057600090506141ae565b816001811461411657600281146141205761414f565b60019150506141ae565b60ff84111561413257614131613bb1565b5b8360020a91508482111561414957614148613bb1565b5b506141ae565b5060208310610133831016604e8410600b84101617156141845782820a90508381111561417f5761417e613bb1565b5b6141ae565b614191848484600161408f565b925090508184048111156141a8576141a7613bb1565b5b81810290505b9392505050565b60006141c0826131f0565b91506141cb836131f0565b92506141f87fffffffffffffffffffffffffffffffffffffffffffffffffffffffffffffffff84846140e2565b905092915050565b7f4552433732313a20696e76616c696420746f6b656e2049440000000000000000600082015250565b600061423660188361338e565b915061424182614200565b602082019050919050565b6000602082019050818103600083015261426581614229565b9050919050565b7f4552433732313a2061646472657373207a65726f206973206e6f74206120766160008201527f6c6964206f776e65720000000000000000000000000000000000000000000000602082015250565b60006142c860298361338e565b91506142d38261426c565b604082019050919050565b600060208201905081810360008301526142f7816142bb565b9050919050565b60008190508160005260206000209050919050565b60006020601f8301049050919050565b600082821b905092915050565b6000600883026143607fffffffffffffffffffffffffffffffffffffffffffffffffffffffffffffffff82614323565b61436a8683614323565b95508019841693508086168417925050509392505050565b6000819050919050565b60006143a76143a261439d846131f0565b614382565b6131f0565b9050919050565b6000819050919050565b6143c18361438c565b6143d56143cd826143ae565b848454614330565b825550505050565b600090565b6143ea6143dd565b6143f58184846143b8565b505050565b5b818110156144195761440e6000826143e2565b6001810190506143fb565b5050565b601f82111561445e5761442f816142fe565b61443884614313565b81016020851015614447578190505b61445b61445385614313565b8301826143fa565b50505b505050565b600082821c905092915050565b600061448160001984600802614463565b1980831691505092915050565b600061449a8383614470565b9150826002028217905092915050565b6144b382613383565b67ffffffffffffffff8111156144cc576144cb613726565b5b6144d68254613b80565b6144e182828561441d565b600060209050601f8311600181146145145760008415614502578287015190505b61450c858261448e565b865550614574565b601f198416614522866142fe565b60005b8281101561454a57848901518255600182019150602085019450602081019050614525565b868310156145675784890151614563601f891682614470565b8355505b6001600288020188555050505b505050505050565b7f496e697469616c697a61626c653a20636f6e747261637420697320616c72656160008201527f647920696e697469616c697a6564000000000000000000000000000000000000602082015250565b60006145d8602e8361338e565b91506145e38261457c565b604082019050919050565b60006020820190508181036000830152614607816145cb565b9050919050565b6000614619826131f0565b9150614624836131f0565b925082820390508181111561463c5761463b613bb1565b5b92915050565b6000819050919050565b600061466761466261465d84614642565b614382565b61334c565b9050919050565b6146778161464c565b82525050565b6000602082019050614692600083018461466e565b92915050565b60006146a3826131f0565b91506146ae8361334c565b92506146db7fffffffffffffffffffffffffffffffffffffffffffffffffffffffffffffffff84846140e2565b905092915050565b600081905092915050565b600081546146fb81613b80565b61470581866146e3565b94506001821660008114614720576001811461473557614768565b60ff1983168652811515820286019350614768565b61473e856142fe565b60005b8381101561476057815481890152600182019150602081019050614741565b838801955050505b50505092915050565b600061477c82613383565b61478681856146e3565b935061479681856020860161339f565b80840191505092915050565b7f2e6a736f6e000000000000000000000000000000000000000000000000000000600082015250565b60006147d86005836146e3565b91506147e3826147a2565b600582019050919050565b60006147fa82856146ee565b91506148068284614771565b9150614811826147cb565b91508190509392505050565b6000819050919050565b61483861483382613556565b61481d565b82525050565b60008160601b9050919050565b60006148568261483e565b9050919050565b60006148688261484b565b9050919050565b61488061487b826134ae565b61485d565b82525050565b6000819050919050565b6148a161489c826131f0565b614886565b82525050565b60006148b38286614827565b6020820191506148c3828561486f565b6014820191506148d38284614890565b602082019150819050949350505050565b7f44696765737420697320646966666572656e7400000000000000000000000000600082015250565b600061491a60138361338e565b9150614925826148e4565b602082019050919050565b600060208201905081810360008301526149498161490d565b9050919050565b7f4552433732313a207472616e736665722066726f6d20696e636f72726563742060008201527f6f776e6572000000000000000000000000000000000000000000000000000000602082015250565b60006149ac60258361338e565b91506149b782614950565b604082019050919050565b600060208201905081810360008301526149db8161499f565b9050919050565b7f4552433732313a207472616e7366657220746f20746865207a65726f2061646460008201527f7265737300000000000000000000000000000000000000000000000000000000602082015250565b6000614a3e60248361338e565b9150614a49826149e2565b604082019050919050565b60006020820190508181036000830152614a6d81614a31565b9050919050565b7f4552433732313a20617070726f766520746f2063616c6c657200000000000000600082015250565b6000614aaa60198361338e565b9150614ab582614a74565b602082019050919050565b60006020820190508181036000830152614ad981614a9d565b9050919050565b7f496e697469616c697a61626c653a20636f6e7472616374206973206e6f74206960008201527f6e697469616c697a696e67000000000000000000000000000000000000000000602082015250565b6000614b3c602b8361338e565b9150614b4782614ae0565b604082019050919050565b60006020820190508181036000830152614b6b81614b2f565b9050919050565b7f4552433732313a207472616e7366657220746f206e6f6e20455243373231526560008201527f63656976657220696d706c656d656e7465720000000000000000000000000000602082015250565b6000614bce60328361338e565b9150614bd982614b72565b604082019050919050565b60006020820190508181036000830152614bfd81614bc1565b9050919050565b600081519050919050565b600082825260208201905092915050565b6000614c2b82614c04565b614c358185614c0f565b9350614c4581856020860161339f565b614c4e816133c9565b840191505092915050565b6000608082019050614c6e60008301876134c0565b614c7b60208301866134c0565b614c8860408301856131fa565b8181036060830152614c9a8184614c20565b905095945050505050565b600081519050614cb481613264565b92915050565b600060208284031215614cd057614ccf61322e565b5b6000614cde84828501614ca5565b91505092915050565b7f4552433732313a206d696e7420746f20746865207a65726f2061646472657373600082015250565b6000614d1d60208361338e565b9150614d2882614ce7565b602082019050919050565b60006020820190508181036000830152614d4c81614d10565b9050919050565b7f4552433732313a20746f6b656e20616c7265616479206d696e74656400000000600082015250565b6000614d89601c8361338e565b9150614d9482614d53565b602082019050919050565b60006020820190508181036000830152614db881614d7c565b905091905056fea2646970667358221220910e6ca029adcd3d60c656dfb2d75b14b133c8107feb0ff4f30ded9fc4ce12fb64736f6c63430008120033",
  "linkReferences": {},
  "deployedLinkReferences": {}
}