{
  "_format": "hh-sol-artifact-1",
  "contractName": "Planets",
  "sourceName": "src/Planets.sol",
  "abi": [
    {
      "inputs": [
        {
          "internalType": "string",
          "name": "_name",
          "type": "string"
        },
        {
          "internalType": "string",
          "name": "_symbol",
          "type": "string"
        },
        {
          "internalType": "string",
          "name": "_baseUri",
          "type": "string"
        }
      ],
      "stateMutability": "nonpayable",
      "type": "constructor"
    },
    {
      "anonymous": false,
      "inputs": [
        {
          "indexed": true,
          "internalType": "address",
          "name": "owner",
          "type": "address"
        },
        {
          "indexed": true,
          "internalType": "address",
          "name": "spender",
          "type": "address"
        },
        {
          "indexed": true,
          "internalType": "uint256",
          "name": "id",
          "type": "uint256"
        }
      ],
      "name": "Approval",
      "type": "event"
    },
    {
      "anonymous": false,
      "inputs": [
        {
          "indexed": true,
          "internalType": "address",
          "name": "owner",
          "type": "address"
        },
        {
          "indexed": true,
          "internalType": "address",
          "name": "operator",
          "type": "address"
        },
        {
          "indexed": false,
          "internalType": "bool",
          "name": "approved",
          "type": "bool"
        }
      ],
      "name": "ApprovalForAll",
      "type": "event"
    },
    {
      "anonymous": false,
      "inputs": [
        {
          "indexed": true,
          "internalType": "address",
          "name": "from",
          "type": "address"
        },
        {
          "indexed": false,
          "internalType": "uint256",
          "name": "rewardAmount",
          "type": "uint256"
        },
        {
          "indexed": false,
          "internalType": "uint256",
          "name": "epochCount",
          "type": "uint256"
        },
        {
          "indexed": false,
          "internalType": "bytes32",
          "name": "newChallengeNumber",
          "type": "bytes32"
        }
      ],
      "name": "Mint",
      "type": "event"
    },
    {
      "anonymous": false,
      "inputs": [
        {
          "indexed": true,
          "internalType": "address",
          "name": "previousOwner",
          "type": "address"
        },
        {
          "indexed": true,
          "internalType": "address",
          "name": "newOwner",
          "type": "address"
        }
      ],
      "name": "OwnershipTransferred",
      "type": "event"
    },
    {
      "anonymous": false,
      "inputs": [
        {
          "indexed": true,
          "internalType": "address",
          "name": "from",
          "type": "address"
        },
        {
          "indexed": true,
          "internalType": "address",
          "name": "to",
          "type": "address"
        },
        {
          "indexed": true,
          "internalType": "uint256",
          "name": "id",
          "type": "uint256"
        }
      ],
      "name": "Transfer",
      "type": "event"
    },
    {
      "inputs": [],
      "name": "BLOCKS_PER_READJUSTMENT",
      "outputs": [
        {
          "internalType": "uint256",
          "name": "",
          "type": "uint256"
        }
      ],
      "stateMutability": "view",
      "type": "function"
    },
    {
      "inputs": [],
      "name": "MAXIMUM_TARGET_DIFFICULTY",
      "outputs": [
        {
          "internalType": "uint256",
          "name": "",
          "type": "uint256"
        }
      ],
      "stateMutability": "view",
      "type": "function"
    },
    {
      "inputs": [],
      "name": "MAX_ADJUSTMENT_PERCENT",
      "outputs": [
        {
          "internalType": "uint256",
          "name": "",
          "type": "uint256"
        }
      ],
      "stateMutability": "view",
      "type": "function"
    },
    {
      "inputs": [],
      "name": "MINIMUM_TARGET_DIFFICULTY",
      "outputs": [
        {
          "internalType": "uint256",
          "name": "",
          "type": "uint256"
        }
      ],
      "stateMutability": "view",
      "type": "function"
    },
    {
      "inputs": [],
      "name": "MINING_RATE_FACTOR",
      "outputs": [
        {
          "internalType": "uint256",
          "name": "",
          "type": "uint256"
        }
      ],
      "stateMutability": "view",
      "type": "function"
    },
    {
      "inputs": [],
      "name": "QUOTIENT_LIMIT",
      "outputs": [
        {
          "internalType": "uint256",
          "name": "",
          "type": "uint256"
        }
      ],
      "stateMutability": "view",
      "type": "function"
    },
    {
      "inputs": [],
      "name": "TARGET_DIVISOR",
      "outputs": [
        {
          "internalType": "uint256",
          "name": "",
          "type": "uint256"
        }
      ],
      "stateMutability": "view",
      "type": "function"
    },
    {
      "inputs": [
        {
          "internalType": "address",
          "name": "spender",
          "type": "address"
        },
        {
          "internalType": "uint256",
          "name": "id",
          "type": "uint256"
        }
      ],
      "name": "approve",
      "outputs": [],
      "stateMutability": "nonpayable",
      "type": "function"
    },
    {
      "inputs": [
        {
          "internalType": "address",
          "name": "owner",
          "type": "address"
        }
      ],
      "name": "balanceOf",
      "outputs": [
        {
          "internalType": "uint256",
          "name": "",
          "type": "uint256"
        }
      ],
      "stateMutability": "view",
      "type": "function"
    },
    {
      "inputs": [],
      "name": "baseUri",
      "outputs": [
        {
          "internalType": "string",
          "name": "",
          "type": "string"
        }
      ],
      "stateMutability": "view",
      "type": "function"
    },
    {
      "inputs": [],
      "name": "challengeNumber",
      "outputs": [
        {
          "internalType": "bytes32",
          "name": "",
          "type": "bytes32"
        }
      ],
      "stateMutability": "view",
      "type": "function"
    },
    {
      "inputs": [
        {
          "internalType": "uint256",
          "name": "nonce",
          "type": "uint256"
        },
        {
          "internalType": "bytes32",
          "name": "challengeDigest",
          "type": "bytes32"
        }
      ],
      "name": "checkHash",
      "outputs": [
        {
          "internalType": "bytes32",
          "name": "digest",
          "type": "bytes32"
        }
      ],
      "stateMutability": "nonpayable",
      "type": "function"
    },
    {
      "inputs": [],
      "name": "currentTokenId",
      "outputs": [
        {
          "internalType": "uint256",
          "name": "",
          "type": "uint256"
        }
      ],
      "stateMutability": "view",
      "type": "function"
    },
    {
      "inputs": [],
      "name": "decimals",
      "outputs": [
        {
          "internalType": "uint8",
          "name": "",
          "type": "uint8"
        }
      ],
      "stateMutability": "view",
      "type": "function"
    },
    {
      "inputs": [],
      "name": "difficulty",
      "outputs": [
        {
          "internalType": "uint256",
          "name": "",
          "type": "uint256"
        }
      ],
      "stateMutability": "view",
      "type": "function"
    },
    {
      "inputs": [],
      "name": "epochCount",
      "outputs": [
        {
          "internalType": "uint256",
          "name": "",
          "type": "uint256"
        }
      ],
      "stateMutability": "view",
      "type": "function"
    },
    {
      "inputs": [
        {
          "internalType": "uint256",
          "name": "",
          "type": "uint256"
        }
      ],
      "name": "getApproved",
      "outputs": [
        {
          "internalType": "address",
          "name": "",
          "type": "address"
        }
      ],
      "stateMutability": "view",
      "type": "function"
    },
    {
      "inputs": [],
      "name": "getChallengeNumber",
      "outputs": [
        {
          "internalType": "bytes32",
          "name": "",
          "type": "bytes32"
        }
      ],
      "stateMutability": "view",
      "type": "function"
    },
    {
      "inputs": [],
      "name": "getMiningDifficulty",
      "outputs": [
        {
          "internalType": "uint256",
          "name": "",
          "type": "uint256"
        }
      ],
      "stateMutability": "view",
      "type": "function"
    },
    {
      "inputs": [],
      "name": "getMiningReward",
      "outputs": [
        {
          "internalType": "uint256",
          "name": "",
          "type": "uint256"
        }
      ],
      "stateMutability": "view",
      "type": "function"
    },
    {
      "inputs": [],
      "name": "getMiningTarget",
      "outputs": [
        {
          "internalType": "uint256",
          "name": "",
          "type": "uint256"
        }
      ],
      "stateMutability": "view",
      "type": "function"
    },
    {
      "inputs": [],
      "name": "getPlanetMinted",
      "outputs": [
        {
          "internalType": "uint256",
          "name": "",
          "type": "uint256"
        }
      ],
      "stateMutability": "view",
      "type": "function"
    },
    {
      "inputs": [
        {
          "internalType": "address",
          "name": "",
          "type": "address"
        },
        {
          "internalType": "address",
          "name": "",
          "type": "address"
        }
      ],
      "name": "isApprovedForAll",
      "outputs": [
        {
          "internalType": "bool",
          "name": "",
          "type": "bool"
        }
      ],
      "stateMutability": "view",
      "type": "function"
    },
    {
      "inputs": [],
      "name": "latestDifficultyPeriodStarted",
      "outputs": [
        {
          "internalType": "uint256",
          "name": "",
          "type": "uint256"
        }
      ],
      "stateMutability": "view",
      "type": "function"
    },
    {
      "inputs": [],
      "name": "maxSupplyForEra",
      "outputs": [
        {
          "internalType": "uint256",
          "name": "",
          "type": "uint256"
        }
      ],
      "stateMutability": "view",
      "type": "function"
    },
    {
      "inputs": [
        {
          "internalType": "uint256",
          "name": "nonce",
          "type": "uint256"
        },
        {
          "internalType": "bytes32",
          "name": "challengeDigest",
          "type": "bytes32"
        }
      ],
      "name": "mint",
      "outputs": [
        {
          "internalType": "bool",
          "name": "success",
          "type": "bool"
        }
      ],
      "stateMutability": "nonpayable",
      "type": "function"
    },
    {
      "inputs": [],
      "name": "name",
      "outputs": [
        {
          "internalType": "string",
          "name": "",
          "type": "string"
        }
      ],
      "stateMutability": "view",
      "type": "function"
    },
    {
      "inputs": [],
      "name": "owner",
      "outputs": [
        {
          "internalType": "address",
          "name": "",
          "type": "address"
        }
      ],
      "stateMutability": "view",
      "type": "function"
    },
    {
      "inputs": [
        {
          "internalType": "uint256",
          "name": "id",
          "type": "uint256"
        }
      ],
      "name": "ownerOf",
      "outputs": [
        {
          "internalType": "address",
          "name": "owner",
          "type": "address"
        }
      ],
      "stateMutability": "view",
      "type": "function"
    },
    {
      "inputs": [
        {
          "internalType": "uint256",
          "name": "",
          "type": "uint256"
        }
      ],
      "name": "planetResources",
      "outputs": [
        {
          "internalType": "uint256",
          "name": "RTS",
          "type": "uint256"
        }
      ],
      "stateMutability": "view",
      "type": "function"
    },
    {
      "inputs": [],
      "name": "renounceOwnership",
      "outputs": [],
      "stateMutability": "nonpayable",
      "type": "function"
    },
    {
      "inputs": [],
      "name": "rewardEra",
      "outputs": [
        {
          "internalType": "uint256",
          "name": "",
          "type": "uint256"
        }
      ],
      "stateMutability": "view",
      "type": "function"
    },
    {
      "inputs": [
        {
          "internalType": "address",
          "name": "from",
          "type": "address"
        },
        {
          "internalType": "address",
          "name": "to",
          "type": "address"
        },
        {
          "internalType": "uint256",
          "name": "id",
          "type": "uint256"
        }
      ],
      "name": "safeTransferFrom",
      "outputs": [],
      "stateMutability": "nonpayable",
      "type": "function"
    },
    {
      "inputs": [
        {
          "internalType": "address",
          "name": "from",
          "type": "address"
        },
        {
          "internalType": "address",
          "name": "to",
          "type": "address"
        },
        {
          "internalType": "uint256",
          "name": "id",
          "type": "uint256"
        },
        {
          "internalType": "bytes",
          "name": "data",
          "type": "bytes"
        }
      ],
      "name": "safeTransferFrom",
      "outputs": [],
      "stateMutability": "nonpayable",
      "type": "function"
    },
    {
      "inputs": [
        {
          "internalType": "address",
          "name": "operator",
          "type": "address"
        },
        {
          "internalType": "bool",
          "name": "approved",
          "type": "bool"
        }
      ],
      "name": "setApprovalForAll",
      "outputs": [],
      "stateMutability": "nonpayable",
      "type": "function"
    },
    {
      "inputs": [
        {
          "internalType": "string",
          "name": "_baseUri",
          "type": "string"
        }
      ],
      "name": "setBaseUri",
      "outputs": [],
      "stateMutability": "nonpayable",
      "type": "function"
    },
    {
      "inputs": [],
      "name": "startingAverageReward",
      "outputs": [
        {
          "internalType": "uint256",
          "name": "",
          "type": "uint256"
        }
      ],
      "stateMutability": "view",
      "type": "function"
    },
    {
      "inputs": [],
      "name": "statistics",
      "outputs": [
        {
          "internalType": "address",
          "name": "lastRewardTo",
          "type": "address"
        },
        {
          "internalType": "uint256",
          "name": "lastRewardAmount",
          "type": "uint256"
        },
        {
          "internalType": "uint256",
          "name": "lastRewardEthBlockNumber",
          "type": "uint256"
        },
        {
          "internalType": "uint256",
          "name": "lastRewardTimestamp",
          "type": "uint256"
        }
      ],
      "stateMutability": "view",
      "type": "function"
    },
    {
      "inputs": [
        {
          "internalType": "bytes4",
          "name": "interfaceId",
          "type": "bytes4"
        }
      ],
      "name": "supportsInterface",
      "outputs": [
        {
          "internalType": "bool",
          "name": "",
          "type": "bool"
        }
      ],
      "stateMutability": "view",
      "type": "function"
    },
    {
      "inputs": [],
      "name": "symbol",
      "outputs": [
        {
          "internalType": "string",
          "name": "",
          "type": "string"
        }
      ],
      "stateMutability": "view",
      "type": "function"
    },
    {
      "inputs": [
        {
          "internalType": "uint256",
          "name": "id",
          "type": "uint256"
        }
      ],
      "name": "tokenURI",
      "outputs": [
        {
          "internalType": "string",
          "name": "",
          "type": "string"
        }
      ],
      "stateMutability": "view",
      "type": "function"
    },
    {
      "inputs": [],
      "name": "tokensMinted",
      "outputs": [
        {
          "internalType": "uint256",
          "name": "",
          "type": "uint256"
        }
      ],
      "stateMutability": "view",
      "type": "function"
    },
    {
      "inputs": [],
      "name": "totalERSupply",
      "outputs": [
        {
          "internalType": "uint256",
          "name": "",
          "type": "uint256"
        }
      ],
      "stateMutability": "view",
      "type": "function"
    },
    {
      "inputs": [],
      "name": "totalRtsPerEra",
      "outputs": [
        {
          "internalType": "uint256",
          "name": "",
          "type": "uint256"
        }
      ],
      "stateMutability": "view",
      "type": "function"
    },
    {
      "inputs": [
        {
          "internalType": "address",
          "name": "from",
          "type": "address"
        },
        {
          "internalType": "address",
          "name": "to",
          "type": "address"
        },
        {
          "internalType": "uint256",
          "name": "id",
          "type": "uint256"
        }
      ],
      "name": "transferFrom",
      "outputs": [],
      "stateMutability": "nonpayable",
      "type": "function"
    },
    {
      "inputs": [
        {
          "internalType": "address",
          "name": "newOwner",
          "type": "address"
        }
      ],
      "name": "transferOwnership",
      "outputs": [],
      "stateMutability": "nonpayable",
      "type": "function"
    }
  ],
  "bytecode": "0x6080604052610400601355603c601455620100006016557e200000000000000000000000000000000000000000000000000000000000006017556107d06018556002601854620000509190620003b7565b6019556064601a556012601b60006101000a81548160ff021916908360ff160217905550601b60009054906101000a900460ff1660ff16600a62000095919062000543565b6103e8620000a4919062000594565b601c556000601d55601b60009054906101000a900460ff1660ff16600a620000cd919062000543565b633b9aca00620000de919062000594565b601e556000601f55348015620000f357600080fd5b506040516200453438038062004534833981810160405281019062000119919062000772565b828281600790816200012c919062000a6c565b5080600890816200013e919062000a6c565b5050506200016162000155620001a160201b60201c565b620001a960201b60201c565b62000172816200026f60201b60201c565b60014362000181919062000b53565b406000819055504360158190555060175460018190555050505062000c11565b600033905090565b6000600d60009054906101000a900473ffffffffffffffffffffffffffffffffffffffff16905081600d60006101000a81548173ffffffffffffffffffffffffffffffffffffffff021916908373ffffffffffffffffffffffffffffffffffffffff1602179055508173ffffffffffffffffffffffffffffffffffffffff168173ffffffffffffffffffffffffffffffffffffffff167f8be0079c531659141344cd1fd0a4f28419497f9722a3daafe3b4186f6b6457e060405160405180910390a35050565b6200027f6200029460201b60201c565b80600f908162000290919062000a6c565b5050565b620002a4620001a160201b60201c565b73ffffffffffffffffffffffffffffffffffffffff16620002ca6200032560201b60201c565b73ffffffffffffffffffffffffffffffffffffffff161462000323576040517f08c379a00000000000000000000000000000000000000000000000000000000081526004016200031a9062000bef565b60405180910390fd5b565b6000600d60009054906101000a900473ffffffffffffffffffffffffffffffffffffffff16905090565b6000819050919050565b7f4e487b7100000000000000000000000000000000000000000000000000000000600052601260045260246000fd5b7f4e487b7100000000000000000000000000000000000000000000000000000000600052601160045260246000fd5b6000620003c4826200034f565b9150620003d1836200034f565b925082620003e457620003e362000359565b5b828204905092915050565b60008160011c9050919050565b6000808291508390505b60018511156200044e5780860481111562000426576200042562000388565b5b6001851615620004365780820291505b80810290506200044685620003ef565b945062000406565b94509492505050565b6000826200046957600190506200053c565b816200047957600090506200053c565b81600181146200049257600281146200049d57620004d3565b60019150506200053c565b60ff841115620004b257620004b162000388565b5b8360020a915084821115620004cc57620004cb62000388565b5b506200053c565b5060208310610133831016604e8410600b84101617156200050d5782820a90508381111562000507576200050662000388565b5b6200053c565b6200051c8484846001620003fc565b9250905081840481111562000536576200053562000388565b5b81810290505b9392505050565b600062000550826200034f565b91506200055d836200034f565b92506200058c7fffffffffffffffffffffffffffffffffffffffffffffffffffffffffffffffff848462000457565b905092915050565b6000620005a1826200034f565b9150620005ae836200034f565b9250828202620005be816200034f565b91508282048414831517620005d857620005d762000388565b5b5092915050565b6000604051905090565b600080fd5b600080fd5b600080fd5b600080fd5b6000601f19601f8301169050919050565b7f4e487b7100000000000000000000000000000000000000000000000000000000600052604160045260246000fd5b6200064882620005fd565b810181811067ffffffffffffffff821117156200066a57620006696200060e565b5b80604052505050565b60006200067f620005df565b90506200068d82826200063d565b919050565b600067ffffffffffffffff821115620006b057620006af6200060e565b5b620006bb82620005fd565b9050602081019050919050565b60005b83811015620006e8578082015181840152602081019050620006cb565b60008484015250505050565b60006200070b620007058462000692565b62000673565b9050828152602081018484840111156200072a5762000729620005f8565b5b62000737848285620006c8565b509392505050565b600082601f830112620007575762000756620005f3565b5b815162000769848260208601620006f4565b91505092915050565b6000806000606084860312156200078e576200078d620005e9565b5b600084015167ffffffffffffffff811115620007af57620007ae620005ee565b5b620007bd868287016200073f565b935050602084015167ffffffffffffffff811115620007e157620007e0620005ee565b5b620007ef868287016200073f565b925050604084015167ffffffffffffffff811115620008135762000812620005ee565b5b62000821868287016200073f565b9150509250925092565b600081519050919050565b7f4e487b7100000000000000000000000000000000000000000000000000000000600052602260045260246000fd5b600060028204905060018216806200087e57607f821691505b60208210810362000894576200089362000836565b5b50919050565b60008190508160005260206000209050919050565b60006020601f8301049050919050565b600082821b905092915050565b600060088302620008fe7fffffffffffffffffffffffffffffffffffffffffffffffffffffffffffffffff82620008bf565b6200090a8683620008bf565b95508019841693508086168417925050509392505050565b6000819050919050565b60006200094d6200094762000941846200034f565b62000922565b6200034f565b9050919050565b6000819050919050565b62000969836200092c565b62000981620009788262000954565b848454620008cc565b825550505050565b600090565b6200099862000989565b620009a58184846200095e565b505050565b5b81811015620009cd57620009c16000826200098e565b600181019050620009ab565b5050565b601f82111562000a1c57620009e6816200089a565b620009f184620008af565b8101602085101562000a01578190505b62000a1962000a1085620008af565b830182620009aa565b50505b505050565b600082821c905092915050565b600062000a416000198460080262000a21565b1980831691505092915050565b600062000a5c838362000a2e565b9150826002028217905092915050565b62000a77826200082b565b67ffffffffffffffff81111562000a935762000a926200060e565b5b62000a9f825462000865565b62000aac828285620009d1565b600060209050601f83116001811462000ae4576000841562000acf578287015190505b62000adb858262000a4e565b86555062000b4b565b601f19841662000af4866200089a565b60005b8281101562000b1e5784890151825560018201915060208501945060208101905062000af7565b8683101562000b3e578489015162000b3a601f89168262000a2e565b8355505b6001600288020188555050505b505050505050565b600062000b60826200034f565b915062000b6d836200034f565b925082820390508181111562000b885762000b8762000388565b5b92915050565b600082825260208201905092915050565b7f4f776e61626c653a2063616c6c6572206973206e6f7420746865206f776e6572600082015250565b600062000bd760208362000b8e565b915062000be48262000b9f565b602082019050919050565b6000602082019050818103600083015262000c0a8162000bc8565b9050919050565b6139138062000c216000396000f3fe608060405234801561001057600080fd5b50600436106102895760003560e01c8063715018a61161015c578063a0bcfc7f116100ce578063b88d4fde11610087578063b88d4fde146107a1578063c87b56dd146107bd578063cb9ae707146107ed578063e985e9c51461080b578063ee2e56121461083b578063f2fde38b1461085957610289565b8063a0bcfc7f146106f1578063a22cb4651461070d578063a465eeaf14610729578063ac69377814610747578063ad1dfe3b14610765578063b73042721461078357610289565b806382c890fd1161012057806382c890fd1461063a5780638ae0368b146106585780638da5cb5b1461067657806395d89b411461069457806395e272bd146106b25780639abc8320146106d357610289565b8063715018a614610594578063718a33901461059e5780637c2d542c146105ce5780637c7f3206146105fe578063829965cc1461061c57610289565b80632d38bf7a116102005780634ef37628116101b95780634ef37628146104bc5780634fa972e1146104da5780636352211e146104f85780636a586594146105285780636de9f32b1461054657806370a082311461056457610289565b80632d38bf7a1461040a578063313ce5671461042857806332e99708146104465780633426e5f51461046457806342842e0e14610482578063490203a71461049e57610289565b8063095ea7b311610252578063095ea7b31461034857806317da485f146103645780631801fbe51461038257806319cae462146103b25780631beddf1c146103d057806323b872dd146103ee57610289565b80629a9b7b1461028e57806301ffc9a7146102ac57806306fdde03146102dc578063081812fc146102fa578063095b6d4c1461032a575b600080fd5b610296610875565b6040516102a391906123ba565b60405180910390f35b6102c660048036038101906102c19190612441565b61087b565b6040516102d39190612489565b60405180910390f35b6102e461090d565b6040516102f19190612534565b60405180910390f35b610314600480360381019061030f9190612582565b61099b565b60405161032191906125f0565b60405180910390f35b6103326109ce565b60405161033f91906123ba565b60405180910390f35b610362600480360381019061035d9190612637565b6109d4565b005b61036c610bbd565b60405161037991906123ba565b60405180910390f35b61039c600480360381019061039791906126ad565b610bc7565b6040516103a99190612489565b60405180910390f35b6103ba610dbb565b6040516103c791906123ba565b60405180910390f35b6103d8610dc1565b6040516103e591906123ba565b60405180910390f35b610408600480360381019061040391906126ed565b610dc7565b005b6104126111c6565b60405161041f91906123ba565b60405180910390f35b6104306111cc565b60405161043d919061275c565b60405180910390f35b61044e6111df565b60405161045b91906123ba565b60405180910390f35b61046c6111e9565b60405161047991906123ba565b60405180910390f35b61049c600480360381019061049791906126ed565b6111ef565b005b6104a6611327565b6040516104b391906123ba565b60405180910390f35b6104c461134a565b6040516104d19190612786565b60405180910390f35b6104e2611353565b6040516104ef91906123ba565b60405180910390f35b610512600480360381019061050d9190612582565b611359565b60405161051f91906125f0565b60405180910390f35b610530611404565b60405161053d91906123ba565b60405180910390f35b61054e61140a565b60405161055b91906123ba565b60405180910390f35b61057e600480360381019061057991906127a1565b611410565b60405161058b91906123ba565b60405180910390f35b61059c6114c7565b005b6105b860048036038101906105b39190612582565b6114db565b6040516105c591906123ba565b60405180910390f35b6105e860048036038101906105e391906126ad565b6114f8565b6040516105f59190612786565b60405180910390f35b61060661150c565b60405161061391906123ba565b60405180910390f35b610624611512565b60405161063191906123ba565b60405180910390f35b610642611518565b60405161064f91906123ba565b60405180910390f35b61066061151e565b60405161066d9190612786565b60405180910390f35b61067e611524565b60405161068b91906125f0565b60405180910390f35b61069c61154e565b6040516106a99190612534565b60405180910390f35b6106ba6115dc565b6040516106ca94939291906127ce565b60405180910390f35b6106db61161a565b6040516106e89190612534565b60405180910390f35b61070b60048036038101906107069190612948565b6116a8565b005b610727600480360381019061072291906129bd565b6116c3565b005b6107316117c0565b60405161073e91906123ba565b60405180910390f35b61074f6117ca565b60405161075c91906123ba565b60405180910390f35b61076d6117d0565b60405161077a91906123ba565b60405180910390f35b61078b6117d6565b60405161079891906123ba565b60405180910390f35b6107bb60048036038101906107b69190612a5d565b6117dc565b005b6107d760048036038101906107d29190612582565b61191a565b6040516107e49190612534565b60405180910390f35b6107f561192c565b60405161080291906123ba565b60405180910390f35b61082560048036038101906108209190612ae5565b611932565b6040516108329190612489565b60405180910390f35b610843611961565b60405161085091906123ba565b60405180910390f35b610873600480360381019061086e91906127a1565b611967565b005b600e5481565b60006301ffc9a760e01b827bffffffffffffffffffffffffffffffffffffffffffffffffffffffff191614806108d657506380ac58cd60e01b827bffffffffffffffffffffffffffffffffffffffffffffffffffffffff1916145b806109065750635b5e139f60e01b827bffffffffffffffffffffffffffffffffffffffffffffffffffffffff1916145b9050919050565b6007805461091a90612b54565b80601f016020809104026020016040519081016040528092919081815260200182805461094690612b54565b80156109935780601f1061096857610100808354040283529160200191610993565b820191906000526020600020905b81548152906001019060200180831161097657829003601f168201915b505050505081565b600b6020528060005260406000206000915054906101000a900473ffffffffffffffffffffffffffffffffffffffff1681565b60185481565b60006009600083815260200190815260200160002060009054906101000a900473ffffffffffffffffffffffffffffffffffffffff1690508073ffffffffffffffffffffffffffffffffffffffff163373ffffffffffffffffffffffffffffffffffffffff161480610acc5750600c60008273ffffffffffffffffffffffffffffffffffffffff1673ffffffffffffffffffffffffffffffffffffffff16815260200190815260200160002060003373ffffffffffffffffffffffffffffffffffffffff1673ffffffffffffffffffffffffffffffffffffffff16815260200190815260200160002060009054906101000a900460ff165b610b0b576040517f08c379a0000000000000000000000000000000000000000000000000000000008152600401610b0290612bd1565b60405180910390fd5b82600b600084815260200190815260200160002060006101000a81548173ffffffffffffffffffffffffffffffffffffffff021916908373ffffffffffffffffffffffffffffffffffffffff160217905550818373ffffffffffffffffffffffffffffffffffffffff168273ffffffffffffffffffffffffffffffffffffffff167f8c5be1e5ebec7d5bd14f71427d1e84f3dd0314c0f7b2291e5b200ac8c7c3b92560405160405180910390a4505050565b6000600154905090565b600080610bd484846119ea565b90506001548160001c1115610c1e576040517f08c379a0000000000000000000000000000000000000000000000000000000008152600401610c1590612c3d565b60405180910390fd5b600060116000805481526020019081526020016000205490506000801b8114610c7c576040517f08c379a0000000000000000000000000000000000000000000000000000000008152600401610c7390612ca9565b60405180910390fd5b816011600080548152602001908152602001600020819055506000610c9f611a68565b905060006064601983610cb29190612cf8565b610cbc9190612d69565b905060008183610ccc9190612d9a565b905060008284610cdc9190612dce565b9050600060648383610cee9190612d9a565b610cf89190612d69565b905060006064610d06611a8b565b610d109190612e02565b905060008282610d209190612cf8565b85610d2b9190612dce565b9050600e60008154610d3c90612e33565b919050819055600e81905550610d5433600e54611ada565b60405180602001604052808281525060206000600e54815260200190815260200160002060008201518160000155905050610d8e81611c11565b508060026000828254610da19190612dce565b925050819055506001995050505050505050505092915050565b60015481565b601a5481565b6009600082815260200190815260200160002060009054906101000a900473ffffffffffffffffffffffffffffffffffffffff1673ffffffffffffffffffffffffffffffffffffffff168373ffffffffffffffffffffffffffffffffffffffff1614610e68576040517f08c379a0000000000000000000000000000000000000000000000000000000008152600401610e5f90612ec7565b60405180910390fd5b600073ffffffffffffffffffffffffffffffffffffffff168273ffffffffffffffffffffffffffffffffffffffff1603610ed7576040517f08c379a0000000000000000000000000000000000000000000000000000000008152600401610ece90612f33565b60405180910390fd5b8273ffffffffffffffffffffffffffffffffffffffff163373ffffffffffffffffffffffffffffffffffffffff161480610f975750600c60008473ffffffffffffffffffffffffffffffffffffffff1673ffffffffffffffffffffffffffffffffffffffff16815260200190815260200160002060003373ffffffffffffffffffffffffffffffffffffffff1673ffffffffffffffffffffffffffffffffffffffff16815260200190815260200160002060009054906101000a900460ff165b806110005750600b600082815260200190815260200160002060009054906101000a900473ffffffffffffffffffffffffffffffffffffffff1673ffffffffffffffffffffffffffffffffffffffff163373ffffffffffffffffffffffffffffffffffffffff16145b61103f576040517f08c379a000000000000000000000000000000000000000000000000000000000815260040161103690612bd1565b60405180910390fd5b600a60008473ffffffffffffffffffffffffffffffffffffffff1673ffffffffffffffffffffffffffffffffffffffff1681526020019081526020016000206000815480929190600190039190505550600a60008373ffffffffffffffffffffffffffffffffffffffff1673ffffffffffffffffffffffffffffffffffffffff16815260200190815260200160002060008154809291906001019190505550816009600083815260200190815260200160002060006101000a81548173ffffffffffffffffffffffffffffffffffffffff021916908373ffffffffffffffffffffffffffffffffffffffff160217905550600b600082815260200190815260200160002060006101000a81549073ffffffffffffffffffffffffffffffffffffffff0219169055808273ffffffffffffffffffffffffffffffffffffffff168473ffffffffffffffffffffffffffffffffffffffff167fddf252ad1be2c89b69c2b068fc378daa952ba7f163c4a11628f55a4df523b3ef60405160405180910390a4505050565b601d5481565b601b60009054906101000a900460ff1681565b6000600154905090565b60145481565b6111fa838383610dc7565b60008273ffffffffffffffffffffffffffffffffffffffff163b14806112e3575063150b7a0260e01b7bffffffffffffffffffffffffffffffffffffffffffffffffffffffff19168273ffffffffffffffffffffffffffffffffffffffff1663150b7a023386856040518463ffffffff1660e01b815260040161127f93929190612f8a565b6020604051808303816000875af115801561129e573d6000803e3d6000fd5b505050506040513d601f19601f820116820180604052508101906112c29190612fe9565b7bffffffffffffffffffffffffffffffffffffffffffffffffffffffff1916145b611322576040517f08c379a000000000000000000000000000000000000000000000000000000000815260040161131990613062565b60405180910390fd5b505050565b6000601d54600261133891906131b5565b601c546113459190612d69565b905090565b60008054905090565b601e5481565b60008073ffffffffffffffffffffffffffffffffffffffff166009600084815260200190815260200160002060009054906101000a900473ffffffffffffffffffffffffffffffffffffffff1691508173ffffffffffffffffffffffffffffffffffffffff16036113ff576040517f08c379a00000000000000000000000000000000000000000000000000000000081526004016113f69061324c565b60405180910390fd5b919050565b60165481565b60025481565b60008073ffffffffffffffffffffffffffffffffffffffff168273ffffffffffffffffffffffffffffffffffffffff1603611480576040517f08c379a0000000000000000000000000000000000000000000000000000000008152600401611477906132b8565b60405180910390fd5b600a60008373ffffffffffffffffffffffffffffffffffffffff1673ffffffffffffffffffffffffffffffffffffffff168152602001908152602001600020549050919050565b6114cf611c9a565b6114d96000611d18565b565b602080528060005260406000206000915090508060000154905081565b600061150483836119ea565b905092915050565b60175481565b60125481565b601c5481565b60005481565b6000600d60009054906101000a900473ffffffffffffffffffffffffffffffffffffffff16905090565b6008805461155b90612b54565b80601f016020809104026020016040519081016040528092919081815260200182805461158790612b54565b80156115d45780601f106115a9576101008083540402835291602001916115d4565b820191906000526020600020905b8154815290600101906020018083116115b757829003601f168201915b505050505081565b60038060000160009054906101000a900473ffffffffffffffffffffffffffffffffffffffff16908060010154908060020154908060030154905084565b600f805461162790612b54565b80601f016020809104026020016040519081016040528092919081815260200182805461165390612b54565b80156116a05780601f10611675576101008083540402835291602001916116a0565b820191906000526020600020905b81548152906001019060200180831161168357829003601f168201915b505050505081565b6116b0611c9a565b80600f90816116bf9190613484565b5050565b80600c60003373ffffffffffffffffffffffffffffffffffffffff1673ffffffffffffffffffffffffffffffffffffffff16815260200190815260200160002060008473ffffffffffffffffffffffffffffffffffffffff1673ffffffffffffffffffffffffffffffffffffffff16815260200190815260200160002060006101000a81548160ff0219169083151502179055508173ffffffffffffffffffffffffffffffffffffffff163373ffffffffffffffffffffffffffffffffffffffff167f17307eab39ab6107e8899845ad3d59bd9653f200f220920489ca2b5937696c31836040516117b49190612489565b60405180910390a35050565b6000600e54905090565b60105481565b60195481565b60135481565b6117e7858585610dc7565b60008473ffffffffffffffffffffffffffffffffffffffff163b14806118d4575063150b7a0260e01b7bffffffffffffffffffffffffffffffffffffffffffffffffffffffff19168473ffffffffffffffffffffffffffffffffffffffff1663150b7a0233888787876040518663ffffffff1660e01b8152600401611870959493929190613583565b6020604051808303816000875af115801561188f573d6000803e3d6000fd5b505050506040513d601f19601f820116820180604052508101906118b39190612fe9565b7bffffffffffffffffffffffffffffffffffffffffffffffffffffffff1916145b611913576040517f08c379a000000000000000000000000000000000000000000000000000000000815260040161190a90613062565b60405180910390fd5b5050505050565b606061192582611dde565b9050919050565b60155481565b600c6020528160005260406000206020528060005260406000206000915091509054906101000a900460ff1681565b601f5481565b61196f611c9a565b600073ffffffffffffffffffffffffffffffffffffffff168173ffffffffffffffffffffffffffffffffffffffff16036119de576040517f08c379a00000000000000000000000000000000000000000000000000000000081526004016119d590613643565b60405180910390fd5b6119e781611d18565b50565b6000806000543385604051602001611a04939291906136ed565b604051602081830303815290604052805190602001209050828114611a5e576040517f08c379a0000000000000000000000000000000000000000000000000000000008152600401611a5590613776565b60405180910390fd5b8091505092915050565b6000601d546002611a7991906131b5565b601c54611a869190612d69565b905090565b600080333a434244600143611aa09190612d9a565b4030604051602001611ab89796959493929190613796565b6040516020818303038152906040528051906020012060001c90508091505090565b611ae48282611eac565b60008273ffffffffffffffffffffffffffffffffffffffff163b1480611bce575063150b7a0260e01b7bffffffffffffffffffffffffffffffffffffffffffffffffffffffff19168273ffffffffffffffffffffffffffffffffffffffff1663150b7a02336000856040518463ffffffff1660e01b8152600401611b6a93929190612f8a565b6020604051808303816000875af1158015611b89573d6000803e3d6000fd5b505050506040513d601f19601f82011682018060405250810190611bad9190612fe9565b7bffffffffffffffffffffffffffffffffffffffffffffffffffffffff1916145b611c0d576040517f08c379a0000000000000000000000000000000000000000000000000000000008152600401611c0490613062565b60405180910390fd5b5050565b6000601e5482600254611c249190612dce565b1115611c40576001601d54611c399190612dce565b601d819055505b601260008154611c4f90612e33565b9190508190556012819055506000601354601254611c6d9190612e02565b03611c7c57611c7a6120be565b505b600143611c899190612d9a565b406000819055506012549050919050565b611ca261222a565b73ffffffffffffffffffffffffffffffffffffffff16611cc0611524565b73ffffffffffffffffffffffffffffffffffffffff1614611d16576040517f08c379a0000000000000000000000000000000000000000000000000000000008152600401611d0d90613851565b60405180910390fd5b565b6000600d60009054906101000a900473ffffffffffffffffffffffffffffffffffffffff16905081600d60006101000a81548173ffffffffffffffffffffffffffffffffffffffff021916908373ffffffffffffffffffffffffffffffffffffffff1602179055508173ffffffffffffffffffffffffffffffffffffffff168173ffffffffffffffffffffffffffffffffffffffff167f8be0079c531659141344cd1fd0a4f28419497f9722a3daafe3b4186f6b6457e060405160405180910390a35050565b606060006001611ded84612232565b01905060008167ffffffffffffffff811115611e0c57611e0b61281d565b5b6040519080825280601f01601f191660200182016040528015611e3e5781602001600182028036833780820191505090505b509050600082602001820190505b600115611ea1578080600190039150507f3031323334353637383961626364656600000000000000000000000000000000600a86061a8153600a8581611e9557611e94612d3a565b5b04945060008503611e4c575b819350505050919050565b600073ffffffffffffffffffffffffffffffffffffffff168273ffffffffffffffffffffffffffffffffffffffff1603611f1b576040517f08c379a0000000000000000000000000000000000000000000000000000000008152600401611f1290612f33565b60405180910390fd5b600073ffffffffffffffffffffffffffffffffffffffff166009600083815260200190815260200160002060009054906101000a900473ffffffffffffffffffffffffffffffffffffffff1673ffffffffffffffffffffffffffffffffffffffff1614611fbd576040517f08c379a0000000000000000000000000000000000000000000000000000000008152600401611fb4906138bd565b60405180910390fd5b600a60008373ffffffffffffffffffffffffffffffffffffffff1673ffffffffffffffffffffffffffffffffffffffff16815260200190815260200160002060008154809291906001019190505550816009600083815260200190815260200160002060006101000a81548173ffffffffffffffffffffffffffffffffffffffff021916908373ffffffffffffffffffffffffffffffffffffffff160217905550808273ffffffffffffffffffffffffffffffffffffffff16600073ffffffffffffffffffffffffffffffffffffffff167fddf252ad1be2c89b69c2b068fc378daa952ba7f163c4a11628f55a4df523b3ef60405160405180910390a45050565b6000806013546012546120d19190612e02565b146120e0576001549050612227565b6000601554436120f09190612d9a565b9050600060135490506000601454826121099190612cf8565b90508083101561218157600083601a54836121249190612cf8565b61212e9190612d69565b9050600061214a6064836121429190612d9a565b601954612385565b90506018548160015461215d9190612cf8565b6121679190612d69565b6001546121749190612d9a565b60018190555050506121eb565b600081601a54856121929190612cf8565b61219c9190612d69565b905060006121b86064836121b09190612d9a565b601954612385565b9050601854816001546121cb9190612cf8565b6121d59190612d69565b6001546121e29190612dce565b60018190555050505b436015819055506016546001541015612208576016546001819055505b601754600154111561221e576017546001819055505b60015493505050505b90565b600033905090565b600080600090507a184f03e93ff9f4daa797ed6e38ed64bf6a1f0100000000000000008310612290577a184f03e93ff9f4daa797ed6e38ed64bf6a1f010000000000000000838161228657612285612d3a565b5b0492506040810190505b6d04ee2d6d415b85acef810000000083106122cd576d04ee2d6d415b85acef810000000083816122c3576122c2612d3a565b5b0492506020810190505b662386f26fc1000083106122fc57662386f26fc1000083816122f2576122f1612d3a565b5b0492506010810190505b6305f5e1008310612325576305f5e100838161231b5761231a612d3a565b5b0492506008810190505b612710831061234a5761271083816123405761233f612d3a565b5b0492506004810190505b6064831061236d576064838161236357612362612d3a565b5b0492506002810190505b600a831061237c576001810190505b80915050919050565b6000818311156123975781905061239b565b8290505b92915050565b6000819050919050565b6123b4816123a1565b82525050565b60006020820190506123cf60008301846123ab565b92915050565b6000604051905090565b600080fd5b600080fd5b60007fffffffff0000000000000000000000000000000000000000000000000000000082169050919050565b61241e816123e9565b811461242957600080fd5b50565b60008135905061243b81612415565b92915050565b600060208284031215612457576124566123df565b5b60006124658482850161242c565b91505092915050565b60008115159050919050565b6124838161246e565b82525050565b600060208201905061249e600083018461247a565b92915050565b600081519050919050565b600082825260208201905092915050565b60005b838110156124de5780820151818401526020810190506124c3565b60008484015250505050565b6000601f19601f8301169050919050565b6000612506826124a4565b61251081856124af565b93506125208185602086016124c0565b612529816124ea565b840191505092915050565b6000602082019050818103600083015261254e81846124fb565b905092915050565b61255f816123a1565b811461256a57600080fd5b50565b60008135905061257c81612556565b92915050565b600060208284031215612598576125976123df565b5b60006125a68482850161256d565b91505092915050565b600073ffffffffffffffffffffffffffffffffffffffff82169050919050565b60006125da826125af565b9050919050565b6125ea816125cf565b82525050565b600060208201905061260560008301846125e1565b92915050565b612614816125cf565b811461261f57600080fd5b50565b6000813590506126318161260b565b92915050565b6000806040838503121561264e5761264d6123df565b5b600061265c85828601612622565b925050602061266d8582860161256d565b9150509250929050565b6000819050919050565b61268a81612677565b811461269557600080fd5b50565b6000813590506126a781612681565b92915050565b600080604083850312156126c4576126c36123df565b5b60006126d28582860161256d565b92505060206126e385828601612698565b9150509250929050565b600080600060608486031215612706576127056123df565b5b600061271486828701612622565b935050602061272586828701612622565b92505060406127368682870161256d565b9150509250925092565b600060ff82169050919050565b61275681612740565b82525050565b6000602082019050612771600083018461274d565b92915050565b61278081612677565b82525050565b600060208201905061279b6000830184612777565b92915050565b6000602082840312156127b7576127b66123df565b5b60006127c584828501612622565b91505092915050565b60006080820190506127e360008301876125e1565b6127f060208301866123ab565b6127fd60408301856123ab565b61280a60608301846123ab565b95945050505050565b600080fd5b600080fd5b7f4e487b7100000000000000000000000000000000000000000000000000000000600052604160045260246000fd5b612855826124ea565b810181811067ffffffffffffffff821117156128745761287361281d565b5b80604052505050565b60006128876123d5565b9050612893828261284c565b919050565b600067ffffffffffffffff8211156128b3576128b261281d565b5b6128bc826124ea565b9050602081019050919050565b82818337600083830152505050565b60006128eb6128e684612898565b61287d565b90508281526020810184848401111561290757612906612818565b5b6129128482856128c9565b509392505050565b600082601f83011261292f5761292e612813565b5b813561293f8482602086016128d8565b91505092915050565b60006020828403121561295e5761295d6123df565b5b600082013567ffffffffffffffff81111561297c5761297b6123e4565b5b6129888482850161291a565b91505092915050565b61299a8161246e565b81146129a557600080fd5b50565b6000813590506129b781612991565b92915050565b600080604083850312156129d4576129d36123df565b5b60006129e285828601612622565b92505060206129f3858286016129a8565b9150509250929050565b600080fd5b600080fd5b60008083601f840112612a1d57612a1c612813565b5b8235905067ffffffffffffffff811115612a3a57612a396129fd565b5b602083019150836001820283011115612a5657612a55612a02565b5b9250929050565b600080600080600060808688031215612a7957612a786123df565b5b6000612a8788828901612622565b9550506020612a9888828901612622565b9450506040612aa98882890161256d565b935050606086013567ffffffffffffffff811115612aca57612ac96123e4565b5b612ad688828901612a07565b92509250509295509295909350565b60008060408385031215612afc57612afb6123df565b5b6000612b0a85828601612622565b9250506020612b1b85828601612622565b9150509250929050565b7f4e487b7100000000000000000000000000000000000000000000000000000000600052602260045260246000fd5b60006002820490506001821680612b6c57607f821691505b602082108103612b7f57612b7e612b25565b5b50919050565b7f4e4f545f415554484f52495a4544000000000000000000000000000000000000600082015250565b6000612bbb600e836124af565b9150612bc682612b85565b602082019050919050565b60006020820190508181036000830152612bea81612bae565b9050919050565b7f4e6f6e636520696e636f72726563740000000000000000000000000000000000600082015250565b6000612c27600f836124af565b9150612c3282612bf1565b602082019050919050565b60006020820190508181036000830152612c5681612c1a565b9050919050565b7f536f6c7574696f6e206578697374000000000000000000000000000000000000600082015250565b6000612c93600e836124af565b9150612c9e82612c5d565b602082019050919050565b60006020820190508181036000830152612cc281612c86565b9050919050565b7f4e487b7100000000000000000000000000000000000000000000000000000000600052601160045260246000fd5b6000612d03826123a1565b9150612d0e836123a1565b9250828202612d1c816123a1565b91508282048414831517612d3357612d32612cc9565b5b5092915050565b7f4e487b7100000000000000000000000000000000000000000000000000000000600052601260045260246000fd5b6000612d74826123a1565b9150612d7f836123a1565b925082612d8f57612d8e612d3a565b5b828204905092915050565b6000612da5826123a1565b9150612db0836123a1565b9250828203905081811115612dc857612dc7612cc9565b5b92915050565b6000612dd9826123a1565b9150612de4836123a1565b9250828201905080821115612dfc57612dfb612cc9565b5b92915050565b6000612e0d826123a1565b9150612e18836123a1565b925082612e2857612e27612d3a565b5b828206905092915050565b6000612e3e826123a1565b91507fffffffffffffffffffffffffffffffffffffffffffffffffffffffffffffffff8203612e7057612e6f612cc9565b5b600182019050919050565b7f57524f4e475f46524f4d00000000000000000000000000000000000000000000600082015250565b6000612eb1600a836124af565b9150612ebc82612e7b565b602082019050919050565b60006020820190508181036000830152612ee081612ea4565b9050919050565b7f494e56414c49445f524543495049454e54000000000000000000000000000000600082015250565b6000612f1d6011836124af565b9150612f2882612ee7565b602082019050919050565b60006020820190508181036000830152612f4c81612f10565b9050919050565b600082825260208201905092915050565b50565b6000612f74600083612f53565b9150612f7f82612f64565b600082019050919050565b6000608082019050612f9f60008301866125e1565b612fac60208301856125e1565b612fb960408301846123ab565b8181036060830152612fca81612f67565b9050949350505050565b600081519050612fe381612415565b92915050565b600060208284031215612fff57612ffe6123df565b5b600061300d84828501612fd4565b91505092915050565b7f554e534146455f524543495049454e5400000000000000000000000000000000600082015250565b600061304c6010836124af565b915061305782613016565b602082019050919050565b6000602082019050818103600083015261307b8161303f565b9050919050565b60008160011c9050919050565b6000808291508390505b60018511156130d9578086048111156130b5576130b4612cc9565b5b60018516156130c45780820291505b80810290506130d285613082565b9450613099565b94509492505050565b6000826130f257600190506131ae565b8161310057600090506131ae565b816001811461311657600281146131205761314f565b60019150506131ae565b60ff84111561313257613131612cc9565b5b8360020a91508482111561314957613148612cc9565b5b506131ae565b5060208310610133831016604e8410600b84101617156131845782820a90508381111561317f5761317e612cc9565b5b6131ae565b613191848484600161308f565b925090508184048111156131a8576131a7612cc9565b5b81810290505b9392505050565b60006131c0826123a1565b91506131cb836123a1565b92506131f87fffffffffffffffffffffffffffffffffffffffffffffffffffffffffffffffff84846130e2565b905092915050565b7f4e4f545f4d494e54454400000000000000000000000000000000000000000000600082015250565b6000613236600a836124af565b915061324182613200565b602082019050919050565b6000602082019050818103600083015261326581613229565b9050919050565b7f5a45524f5f414444524553530000000000000000000000000000000000000000600082015250565b60006132a2600c836124af565b91506132ad8261326c565b602082019050919050565b600060208201905081810360008301526132d181613295565b9050919050565b60008190508160005260206000209050919050565b60006020601f8301049050919050565b600082821b905092915050565b60006008830261333a7fffffffffffffffffffffffffffffffffffffffffffffffffffffffffffffffff826132fd565b61334486836132fd565b95508019841693508086168417925050509392505050565b6000819050919050565b600061338161337c613377846123a1565b61335c565b6123a1565b9050919050565b6000819050919050565b61339b83613366565b6133af6133a782613388565b84845461330a565b825550505050565b600090565b6133c46133b7565b6133cf818484613392565b505050565b5b818110156133f3576133e86000826133bc565b6001810190506133d5565b5050565b601f82111561343857613409816132d8565b613412846132ed565b81016020851015613421578190505b61343561342d856132ed565b8301826133d4565b50505b505050565b600082821c905092915050565b600061345b6000198460080261343d565b1980831691505092915050565b6000613474838361344a565b9150826002028217905092915050565b61348d826124a4565b67ffffffffffffffff8111156134a6576134a561281d565b5b6134b08254612b54565b6134bb8282856133f7565b600060209050601f8311600181146134ee57600084156134dc578287015190505b6134e68582613468565b86555061354e565b601f1984166134fc866132d8565b60005b82811015613524578489015182556001820191506020850194506020810190506134ff565b86831015613541578489015161353d601f89168261344a565b8355505b6001600288020188555050505b505050505050565b60006135628385612f53565b935061356f8385846128c9565b613578836124ea565b840190509392505050565b600060808201905061359860008301886125e1565b6135a560208301876125e1565b6135b260408301866123ab565b81810360608301526135c5818486613556565b90509695505050505050565b7f4f776e61626c653a206e6577206f776e657220697320746865207a65726f206160008201527f6464726573730000000000000000000000000000000000000000000000000000602082015250565b600061362d6026836124af565b9150613638826135d1565b604082019050919050565b6000602082019050818103600083015261365c81613620565b9050919050565b6000819050919050565b61367e61367982612677565b613663565b82525050565b60008160601b9050919050565b600061369c82613684565b9050919050565b60006136ae82613691565b9050919050565b6136c66136c1826125cf565b6136a3565b82525050565b6000819050919050565b6136e76136e2826123a1565b6136cc565b82525050565b60006136f9828661366d565b60208201915061370982856136b5565b60148201915061371982846136d6565b602082019150819050949350505050565b7f44696765737420697320646966666572656e7400000000000000000000000000600082015250565b60006137606013836124af565b915061376b8261372a565b602082019050919050565b6000602082019050818103600083015261378f81613753565b9050919050565b600060e0820190506137ab600083018a6125e1565b6137b860208301896123ab565b6137c560408301886123ab565b6137d260608301876123ab565b6137df60808301866123ab565b6137ec60a0830185612777565b6137f960c08301846125e1565b98975050505050505050565b7f4f776e61626c653a2063616c6c6572206973206e6f7420746865206f776e6572600082015250565b600061383b6020836124af565b915061384682613805565b602082019050919050565b6000602082019050818103600083015261386a8161382e565b9050919050565b7f414c52454144595f4d494e544544000000000000000000000000000000000000600082015250565b60006138a7600e836124af565b91506138b282613871565b602082019050919050565b600060208201905081810360008301526138d68161389a565b905091905056fea2646970667358221220f55a6c0a6326d421b5e3b1e1371b2b6a5f94e103e7d163f47bfd134bb365377864736f6c63430008120033",
  "linkReferences": {},
  "deployedLinkReferences": {}
}