{
  "_format": "hh-sol-artifact-1",
  "contractName": "Planets",
  "sourceName": "src/Planets.sol",
  "abi": [
    {
      "anonymous": false,
      "inputs": [
        {
          "indexed": true,
          "internalType": "address",
          "name": "owner",
          "type": "address"
        },
        {
          "indexed": true,
          "internalType": "address",
          "name": "approved",
          "type": "address"
        },
        {
          "indexed": true,
          "internalType": "uint256",
          "name": "tokenId",
          "type": "uint256"
        }
      ],
      "name": "Approval",
      "type": "event"
    },
    {
      "anonymous": false,
      "inputs": [
        {
          "indexed": true,
          "internalType": "address",
          "name": "owner",
          "type": "address"
        },
        {
          "indexed": true,
          "internalType": "address",
          "name": "operator",
          "type": "address"
        },
        {
          "indexed": false,
          "internalType": "bool",
          "name": "approved",
          "type": "bool"
        }
      ],
      "name": "ApprovalForAll",
      "type": "event"
    },
    {
      "anonymous": false,
      "inputs": [
        {
          "indexed": false,
          "internalType": "bytes32",
          "name": "challengeNumber",
          "type": "bytes32"
        }
      ],
      "name": "ChallengeNumberChange",
      "type": "event"
    },
    {
      "anonymous": false,
      "inputs": [
        {
          "indexed": false,
          "internalType": "uint256",
          "name": "difficulty",
          "type": "uint256"
        }
      ],
      "name": "DifficultyChange",
      "type": "event"
    },
    {
      "anonymous": false,
      "inputs": [
        {
          "indexed": false,
          "internalType": "uint8",
          "name": "version",
          "type": "uint8"
        }
      ],
      "name": "Initialized",
      "type": "event"
    },
    {
      "anonymous": false,
      "inputs": [
        {
          "indexed": true,
          "internalType": "address",
          "name": "from",
          "type": "address"
        },
        {
          "indexed": false,
          "internalType": "uint256",
          "name": "rewardAmount",
          "type": "uint256"
        },
        {
          "indexed": false,
          "internalType": "uint256",
          "name": "epochCount",
          "type": "uint256"
        },
        {
          "indexed": false,
          "internalType": "bytes32",
          "name": "newChallengeNumber",
          "type": "bytes32"
        }
      ],
      "name": "Mint",
      "type": "event"
    },
    {
      "anonymous": false,
      "inputs": [
        {
          "indexed": true,
          "internalType": "address",
          "name": "from",
          "type": "address"
        },
        {
          "indexed": true,
          "internalType": "address",
          "name": "to",
          "type": "address"
        },
        {
          "indexed": true,
          "internalType": "uint256",
          "name": "tokenId",
          "type": "uint256"
        }
      ],
      "name": "Transfer",
      "type": "event"
    },
    {
      "inputs": [],
      "name": "BASE_REWARD",
      "outputs": [
        {
          "internalType": "uint256",
          "name": "",
          "type": "uint256"
        }
      ],
      "stateMutability": "view",
      "type": "function"
    },
    {
      "inputs": [],
      "name": "ITEM_PER_READJUSTMENT",
      "outputs": [
        {
          "internalType": "uint256",
          "name": "",
          "type": "uint256"
        }
      ],
      "stateMutability": "view",
      "type": "function"
    },
    {
      "inputs": [],
      "name": "MAXIMUM_TARGET_DIFFICULTY",
      "outputs": [
        {
          "internalType": "uint256",
          "name": "",
          "type": "uint256"
        }
      ],
      "stateMutability": "view",
      "type": "function"
    },
    {
      "inputs": [],
      "name": "MAX_ADJUSTMENT_PERCENT",
      "outputs": [
        {
          "internalType": "uint256",
          "name": "",
          "type": "uint256"
        }
      ],
      "stateMutability": "view",
      "type": "function"
    },
    {
      "inputs": [],
      "name": "MINIMUM_TARGET_DIFFICULTY",
      "outputs": [
        {
          "internalType": "uint256",
          "name": "",
          "type": "uint256"
        }
      ],
      "stateMutability": "view",
      "type": "function"
    },
    {
      "inputs": [],
      "name": "MINING_RATE_FACTOR",
      "outputs": [
        {
          "internalType": "uint256",
          "name": "",
          "type": "uint256"
        }
      ],
      "stateMutability": "view",
      "type": "function"
    },
    {
      "inputs": [],
      "name": "QUOTIENT_LIMIT",
      "outputs": [
        {
          "internalType": "uint256",
          "name": "",
          "type": "uint256"
        }
      ],
      "stateMutability": "view",
      "type": "function"
    },
    {
      "inputs": [],
      "name": "TARGET_DIVISOR",
      "outputs": [
        {
          "internalType": "uint256",
          "name": "",
          "type": "uint256"
        }
      ],
      "stateMutability": "view",
      "type": "function"
    },
    {
      "inputs": [
        {
          "internalType": "address",
          "name": "to",
          "type": "address"
        },
        {
          "internalType": "uint256",
          "name": "tokenId",
          "type": "uint256"
        }
      ],
      "name": "approve",
      "outputs": [],
      "stateMutability": "nonpayable",
      "type": "function"
    },
    {
      "inputs": [
        {
          "internalType": "address",
          "name": "owner",
          "type": "address"
        }
      ],
      "name": "balanceOf",
      "outputs": [
        {
          "internalType": "uint256",
          "name": "",
          "type": "uint256"
        }
      ],
      "stateMutability": "view",
      "type": "function"
    },
    {
      "inputs": [],
      "name": "baseUri",
      "outputs": [
        {
          "internalType": "string",
          "name": "",
          "type": "string"
        }
      ],
      "stateMutability": "view",
      "type": "function"
    },
    {
      "inputs": [],
      "name": "challengeNumber",
      "outputs": [
        {
          "internalType": "bytes32",
          "name": "",
          "type": "bytes32"
        }
      ],
      "stateMutability": "view",
      "type": "function"
    },
    {
      "inputs": [
        {
          "internalType": "uint256",
          "name": "nonce",
          "type": "uint256"
        },
        {
          "internalType": "bytes32",
          "name": "challengeDigest",
          "type": "bytes32"
        }
      ],
      "name": "checkHash",
      "outputs": [
        {
          "internalType": "bytes32",
          "name": "digest",
          "type": "bytes32"
        }
      ],
      "stateMutability": "view",
      "type": "function"
    },
    {
      "inputs": [],
      "name": "currentTokenId",
      "outputs": [
        {
          "internalType": "uint256",
          "name": "",
          "type": "uint256"
        }
      ],
      "stateMutability": "view",
      "type": "function"
    },
    {
      "inputs": [],
      "name": "decimals",
      "outputs": [
        {
          "internalType": "uint8",
          "name": "",
          "type": "uint8"
        }
      ],
      "stateMutability": "view",
      "type": "function"
    },
    {
      "inputs": [],
      "name": "difficulty",
      "outputs": [
        {
          "internalType": "uint256",
          "name": "",
          "type": "uint256"
        }
      ],
      "stateMutability": "view",
      "type": "function"
    },
    {
      "inputs": [
        {
          "internalType": "uint256",
          "name": "",
          "type": "uint256"
        }
      ],
      "name": "digestForTokenId",
      "outputs": [
        {
          "internalType": "bytes32",
          "name": "",
          "type": "bytes32"
        }
      ],
      "stateMutability": "view",
      "type": "function"
    },
    {
      "inputs": [],
      "name": "epochCount",
      "outputs": [
        {
          "internalType": "uint256",
          "name": "",
          "type": "uint256"
        }
      ],
      "stateMutability": "view",
      "type": "function"
    },
    {
      "inputs": [
        {
          "internalType": "uint256",
          "name": "tokenId",
          "type": "uint256"
        }
      ],
      "name": "getApproved",
      "outputs": [
        {
          "internalType": "address",
          "name": "",
          "type": "address"
        }
      ],
      "stateMutability": "view",
      "type": "function"
    },
    {
      "inputs": [],
      "name": "getChallengeNumber",
      "outputs": [
        {
          "internalType": "bytes32",
          "name": "",
          "type": "bytes32"
        }
      ],
      "stateMutability": "view",
      "type": "function"
    },
    {
      "inputs": [],
      "name": "getMiningDifficulty",
      "outputs": [
        {
          "internalType": "uint256",
          "name": "",
          "type": "uint256"
        }
      ],
      "stateMutability": "view",
      "type": "function"
    },
    {
      "inputs": [],
      "name": "getMiningReward",
      "outputs": [
        {
          "internalType": "uint256",
          "name": "",
          "type": "uint256"
        }
      ],
      "stateMutability": "pure",
      "type": "function"
    },
    {
      "inputs": [],
      "name": "getMiningTarget",
      "outputs": [
        {
          "internalType": "uint256",
          "name": "",
          "type": "uint256"
        }
      ],
      "stateMutability": "view",
      "type": "function"
    },
    {
      "inputs": [],
      "name": "getPlanetMinted",
      "outputs": [
        {
          "internalType": "uint256",
          "name": "",
          "type": "uint256"
        }
      ],
      "stateMutability": "view",
      "type": "function"
    },
    {
      "inputs": [
        {
          "internalType": "uint256",
          "name": "x",
          "type": "uint256"
        },
        {
          "internalType": "uint256",
          "name": "y",
          "type": "uint256"
        }
      ],
      "name": "getPlanetZone",
      "outputs": [
        {
          "internalType": "uint256",
          "name": "zone",
          "type": "uint256"
        }
      ],
      "stateMutability": "pure",
      "type": "function"
    },
    {
      "inputs": [
        {
          "internalType": "uint256",
          "name": "id",
          "type": "uint256"
        }
      ],
      "name": "getTotalStatsPerTokenId",
      "outputs": [
        {
          "internalType": "uint256",
          "name": "",
          "type": "uint256"
        },
        {
          "internalType": "uint256",
          "name": "",
          "type": "uint256"
        },
        {
          "internalType": "uint256",
          "name": "",
          "type": "uint256"
        },
        {
          "internalType": "uint256",
          "name": "",
          "type": "uint256"
        },
        {
          "internalType": "uint256",
          "name": "",
          "type": "uint256"
        },
        {
          "internalType": "uint256",
          "name": "",
          "type": "uint256"
        }
      ],
      "stateMutability": "view",
      "type": "function"
    },
    {
      "inputs": [
        {
          "internalType": "string",
          "name": "_name",
          "type": "string"
        },
        {
          "internalType": "string",
          "name": "_symbol",
          "type": "string"
        },
        {
          "internalType": "string",
          "name": "_baseUri",
          "type": "string"
        }
      ],
      "name": "initialize",
      "outputs": [],
      "stateMutability": "nonpayable",
      "type": "function"
    },
    {
      "inputs": [
        {
          "internalType": "address",
          "name": "owner",
          "type": "address"
        },
        {
          "internalType": "address",
          "name": "operator",
          "type": "address"
        }
      ],
      "name": "isApprovedForAll",
      "outputs": [
        {
          "internalType": "bool",
          "name": "",
          "type": "bool"
        }
      ],
      "stateMutability": "view",
      "type": "function"
    },
    {
      "inputs": [],
      "name": "latestDifficultyPeriodStarted",
      "outputs": [
        {
          "internalType": "uint256",
          "name": "",
          "type": "uint256"
        }
      ],
      "stateMutability": "view",
      "type": "function"
    },
    {
      "inputs": [],
      "name": "maxSupplyForEra",
      "outputs": [
        {
          "internalType": "uint256",
          "name": "",
          "type": "uint256"
        }
      ],
      "stateMutability": "view",
      "type": "function"
    },
    {
      "inputs": [],
      "name": "maximumRigLevel",
      "outputs": [
        {
          "internalType": "uint8",
          "name": "",
          "type": "uint8"
        }
      ],
      "stateMutability": "view",
      "type": "function"
    },
    {
      "inputs": [
        {
          "internalType": "address",
          "name": "",
          "type": "address"
        }
      ],
      "name": "miningRigForAddress",
      "outputs": [
        {
          "internalType": "uint8",
          "name": "",
          "type": "uint8"
        }
      ],
      "stateMutability": "view",
      "type": "function"
    },
    {
      "inputs": [
        {
          "internalType": "uint256",
          "name": "",
          "type": "uint256"
        }
      ],
      "name": "miningRigPercentage",
      "outputs": [
        {
          "internalType": "uint8",
          "name": "",
          "type": "uint8"
        }
      ],
      "stateMutability": "view",
      "type": "function"
    },
    {
      "inputs": [],
      "name": "miningRigUpgradePrice",
      "outputs": [
        {
          "internalType": "uint256",
          "name": "",
          "type": "uint256"
        }
      ],
      "stateMutability": "view",
      "type": "function"
    },
    {
      "inputs": [
        {
          "internalType": "uint256",
          "name": "nonce",
          "type": "uint256"
        },
        {
          "internalType": "bytes32",
          "name": "challengeDigest",
          "type": "bytes32"
        }
      ],
      "name": "mint",
      "outputs": [
        {
          "internalType": "bool",
          "name": "success",
          "type": "bool"
        }
      ],
      "stateMutability": "nonpayable",
      "type": "function"
    },
    {
      "inputs": [],
      "name": "name",
      "outputs": [
        {
          "internalType": "string",
          "name": "",
          "type": "string"
        }
      ],
      "stateMutability": "view",
      "type": "function"
    },
    {
      "inputs": [],
      "name": "owner",
      "outputs": [
        {
          "internalType": "address",
          "name": "",
          "type": "address"
        }
      ],
      "stateMutability": "view",
      "type": "function"
    },
    {
      "inputs": [
        {
          "internalType": "uint256",
          "name": "tokenId",
          "type": "uint256"
        }
      ],
      "name": "ownerOf",
      "outputs": [
        {
          "internalType": "address",
          "name": "",
          "type": "address"
        }
      ],
      "stateMutability": "view",
      "type": "function"
    },
    {
      "inputs": [],
      "name": "rewardEra",
      "outputs": [
        {
          "internalType": "uint256",
          "name": "",
          "type": "uint256"
        }
      ],
      "stateMutability": "view",
      "type": "function"
    },
    {
      "inputs": [
        {
          "internalType": "uint256",
          "name": "",
          "type": "uint256"
        }
      ],
      "name": "rtsBonusForTokenId",
      "outputs": [
        {
          "internalType": "uint256",
          "name": "",
          "type": "uint256"
        }
      ],
      "stateMutability": "view",
      "type": "function"
    },
    {
      "inputs": [
        {
          "internalType": "address",
          "name": "from",
          "type": "address"
        },
        {
          "internalType": "address",
          "name": "to",
          "type": "address"
        },
        {
          "internalType": "uint256",
          "name": "tokenId",
          "type": "uint256"
        }
      ],
      "name": "safeTransferFrom",
      "outputs": [],
      "stateMutability": "nonpayable",
      "type": "function"
    },
    {
      "inputs": [
        {
          "internalType": "address",
          "name": "from",
          "type": "address"
        },
        {
          "internalType": "address",
          "name": "to",
          "type": "address"
        },
        {
          "internalType": "uint256",
          "name": "tokenId",
          "type": "uint256"
        },
        {
          "internalType": "bytes",
          "name": "data",
          "type": "bytes"
        }
      ],
      "name": "safeTransferFrom",
      "outputs": [],
      "stateMutability": "nonpayable",
      "type": "function"
    },
    {
      "inputs": [
        {
          "internalType": "address",
          "name": "operator",
          "type": "address"
        },
        {
          "internalType": "bool",
          "name": "approved",
          "type": "bool"
        }
      ],
      "name": "setApprovalForAll",
      "outputs": [],
      "stateMutability": "nonpayable",
      "type": "function"
    },
    {
      "inputs": [
        {
          "internalType": "string",
          "name": "_baseUri",
          "type": "string"
        }
      ],
      "name": "setBaseUri",
      "outputs": [],
      "stateMutability": "nonpayable",
      "type": "function"
    },
    {
      "inputs": [
        {
          "internalType": "uint256",
          "name": "priceInEth",
          "type": "uint256"
        }
      ],
      "name": "setMiningRigUpgradePrice",
      "outputs": [],
      "stateMutability": "nonpayable",
      "type": "function"
    },
    {
      "inputs": [],
      "name": "startingAverageReward",
      "outputs": [
        {
          "internalType": "uint256",
          "name": "",
          "type": "uint256"
        }
      ],
      "stateMutability": "view",
      "type": "function"
    },
    {
      "inputs": [],
      "name": "statistics",
      "outputs": [
        {
          "internalType": "address",
          "name": "lastRewardTo",
          "type": "address"
        },
        {
          "internalType": "uint256",
          "name": "lastRewardAmount",
          "type": "uint256"
        },
        {
          "internalType": "uint256",
          "name": "lastRewardEthBlockNumber",
          "type": "uint256"
        },
        {
          "internalType": "uint256",
          "name": "lastRewardTimestamp",
          "type": "uint256"
        }
      ],
      "stateMutability": "view",
      "type": "function"
    },
    {
      "inputs": [
        {
          "internalType": "bytes4",
          "name": "interfaceId",
          "type": "bytes4"
        }
      ],
      "name": "supportsInterface",
      "outputs": [
        {
          "internalType": "bool",
          "name": "",
          "type": "bool"
        }
      ],
      "stateMutability": "view",
      "type": "function"
    },
    {
      "inputs": [],
      "name": "symbol",
      "outputs": [
        {
          "internalType": "string",
          "name": "",
          "type": "string"
        }
      ],
      "stateMutability": "view",
      "type": "function"
    },
    {
      "inputs": [
        {
          "internalType": "uint256",
          "name": "tokenId",
          "type": "uint256"
        }
      ],
      "name": "tokenURI",
      "outputs": [
        {
          "internalType": "string",
          "name": "",
          "type": "string"
        }
      ],
      "stateMutability": "view",
      "type": "function"
    },
    {
      "inputs": [],
      "name": "tokensMinted",
      "outputs": [
        {
          "internalType": "uint256",
          "name": "",
          "type": "uint256"
        }
      ],
      "stateMutability": "view",
      "type": "function"
    },
    {
      "inputs": [],
      "name": "totalERSupply",
      "outputs": [
        {
          "internalType": "uint256",
          "name": "",
          "type": "uint256"
        }
      ],
      "stateMutability": "view",
      "type": "function"
    },
    {
      "inputs": [],
      "name": "totalRtsPerEra",
      "outputs": [
        {
          "internalType": "uint256",
          "name": "",
          "type": "uint256"
        }
      ],
      "stateMutability": "view",
      "type": "function"
    },
    {
      "inputs": [
        {
          "internalType": "address",
          "name": "from",
          "type": "address"
        },
        {
          "internalType": "address",
          "name": "to",
          "type": "address"
        },
        {
          "internalType": "uint256",
          "name": "tokenId",
          "type": "uint256"
        }
      ],
      "name": "transferFrom",
      "outputs": [],
      "stateMutability": "nonpayable",
      "type": "function"
    },
    {
      "inputs": [
        {
          "internalType": "uint8",
          "name": "amount",
          "type": "uint8"
        }
      ],
      "name": "upgradeMiningRig",
      "outputs": [],
      "stateMutability": "payable",
      "type": "function"
    },
    {
      "inputs": [],
      "name": "withdraw",
      "outputs": [],
      "stateMutability": "nonpayable",
      "type": "function"
    }
  ],
  "bytecode": "0x608060405234801561001057600080fd5b50615127806100206000396000f3fe60806040526004361061036a5760003560e01c80636a2e19a2116101c6578063a22cb465116100f7578063b88d4fde11610095578063d8bfafa81161006f578063d8bfafa814610cd8578063e09feae314610d03578063e985e9c514610d40578063ee2e561214610d7d5761036a565b8063b88d4fde14610c47578063c87b56dd14610c70578063cb9ae70714610cad5761036a565b8063ac693778116100d1578063ac69377814610b77578063acf86c8714610ba2578063ad1dfe3b14610bdf578063b57d728314610c0a5761036a565b8063a22cb46514610afa578063a465eeaf14610b23578063a6487c5314610b4e5761036a565b806382c890fd1161016457806395d89b411161013e57806395d89b4114610a4d57806395e272bd14610a785780639abc832014610aa6578063a0bcfc7f14610ad15761036a565b806382c890fd146109cc5780638ae0368b146109f75780638da5cb5b14610a225761036a565b806370a08231116101a057806370a08231146108fc5780637c2d542c146109395780637c7f320614610976578063829965cc146109a15761036a565b80636a2e19a2146108645780636a586594146108a65780636de9f32b146108d15761036a565b80632d38bf7a116102a057806347e9c0951161023e5780634ef37628116102185780634ef37628146107945780634fa972e1146107bf57806356b757be146107ea5780636352211e146108275761036a565b806347e9c09514610715578063490203a7146107405780634e8021391461076b5761036a565b80633426e5f51161027a5780633426e5f51461067f5780633ccfd60b146106aa5780633d85d614146106c157806342842e0e146106ec5761036a565b80632d38bf7a146105fe578063313ce5671461062957806332e99708146106545761036a565b8063095ea7b31161030d57806319cae462116102e757806319cae462146105545780631beddf1c1461057f57806322009af6146105aa57806323b872dd146105d55761036a565b8063095ea7b3146104c357806317da485f146104ec5780631801fbe5146105175761036a565b806306fdde031161034957806306fdde031461041457806307a11aeb1461043f578063081812fc1461045b578063095b6d4c146104985761036a565b80629a9b7b1461036f57806301ffc9a71461039a57806303ca2f53146103d7575b600080fd5b34801561037b57600080fd5b50610384610da8565b604051610391919061350a565b60405180910390f35b3480156103a657600080fd5b506103c160048036038101906103bc9190613591565b610dae565b6040516103ce91906135d9565b60405180910390f35b3480156103e357600080fd5b506103fe60048036038101906103f99190613620565b610e90565b60405161040b9190613669565b60405180910390f35b34801561042057600080fd5b50610429610ec4565b6040516104369190613714565b60405180910390f35b61045960048036038101906104549190613762565b610f56565b005b34801561046757600080fd5b50610482600480360381019061047d9190613620565b61104d565b60405161048f91906137d0565b60405180910390f35b3480156104a457600080fd5b506104ad611093565b6040516104ba919061350a565b60405180910390f35b3480156104cf57600080fd5b506104ea60048036038101906104e59190613817565b611099565b005b3480156104f857600080fd5b506105016111b0565b60405161050e919061350a565b60405180910390f35b34801561052357600080fd5b5061053e6004803603810190610539919061388d565b6111ba565b60405161054b91906135d9565b60405180910390f35b34801561056057600080fd5b506105696113d6565b604051610576919061350a565b60405180910390f35b34801561058b57600080fd5b506105946113dc565b6040516105a1919061350a565b60405180910390f35b3480156105b657600080fd5b506105bf6113e1565b6040516105cc919061350a565b60405180910390f35b3480156105e157600080fd5b506105fc60048036038101906105f791906138cd565b6113e6565b005b34801561060a57600080fd5b50610613611446565b604051610620919061350a565b60405180910390f35b34801561063557600080fd5b5061063e61144c565b60405161064b9190613669565b60405180910390f35b34801561066057600080fd5b50610669611451565b604051610676919061350a565b60405180910390f35b34801561068b57600080fd5b5061069461145b565b6040516106a1919061350a565b60405180910390f35b3480156106b657600080fd5b506106bf611460565b005b3480156106cd57600080fd5b506106d661155b565b6040516106e39190613669565b60405180910390f35b3480156106f857600080fd5b50610713600480360381019061070e91906138cd565b61156e565b005b34801561072157600080fd5b5061072a61158e565b604051610737919061350a565b60405180910390f35b34801561074c57600080fd5b50610755611594565b604051610762919061350a565b60405180910390f35b34801561077757600080fd5b50610792600480360381019061078d9190613620565b6115b9565b005b3480156107a057600080fd5b506107a9611653565b6040516107b6919061392f565b60405180910390f35b3480156107cb57600080fd5b506107d461165c565b6040516107e1919061350a565b60405180910390f35b3480156107f657600080fd5b50610811600480360381019061080c9190613620565b61167f565b60405161081e919061350a565b60405180910390f35b34801561083357600080fd5b5061084e60048036038101906108499190613620565b611697565b60405161085b91906137d0565b60405180910390f35b34801561087057600080fd5b5061088b60048036038101906108869190613620565b61171d565b60405161089d9695949392919061394a565b60405180910390f35b3480156108b257600080fd5b506108bb6118b4565b6040516108c8919061350a565b60405180910390f35b3480156108dd57600080fd5b506108e66118bb565b6040516108f3919061350a565b60405180910390f35b34801561090857600080fd5b50610923600480360381019061091e91906139ab565b6118c1565b604051610930919061350a565b60405180910390f35b34801561094557600080fd5b50610960600480360381019061095b919061388d565b611978565b60405161096d919061392f565b60405180910390f35b34801561098257600080fd5b5061098b61198c565b604051610998919061350a565b60405180910390f35b3480156109ad57600080fd5b506109b66119ae565b6040516109c3919061350a565b60405180910390f35b3480156109d857600080fd5b506109e16119b4565b6040516109ee919061350a565b60405180910390f35b348015610a0357600080fd5b50610a0c6119d5565b604051610a19919061392f565b60405180910390f35b348015610a2e57600080fd5b50610a376119db565b604051610a4491906137d0565b60405180910390f35b348015610a5957600080fd5b50610a62611a01565b604051610a6f9190613714565b60405180910390f35b348015610a8457600080fd5b50610a8d611a93565b604051610a9d94939291906139d8565b60405180910390f35b348015610ab257600080fd5b50610abb611ad1565b604051610ac89190613714565b60405180910390f35b348015610add57600080fd5b50610af86004803603810190610af39190613b52565b611b5f565b005b348015610b0657600080fd5b50610b216004803603810190610b1c9190613bc7565b611c02565b005b348015610b2f57600080fd5b50610b38611c18565b604051610b45919061350a565b60405180910390f35b348015610b5a57600080fd5b50610b756004803603810190610b709190613c07565b611c22565b005b348015610b8357600080fd5b50610b8c611f04565b604051610b99919061350a565b60405180910390f35b348015610bae57600080fd5b50610bc96004803603810190610bc49190613cae565b611f0a565b604051610bd6919061350a565b60405180910390f35b348015610beb57600080fd5b50610bf4611fb2565b604051610c01919061350a565b60405180910390f35b348015610c1657600080fd5b50610c316004803603810190610c2c91906139ab565b611fc4565b604051610c3e9190613669565b60405180910390f35b348015610c5357600080fd5b50610c6e6004803603810190610c699190613d8f565b611fe4565b005b348015610c7c57600080fd5b50610c976004803603810190610c929190613620565b612046565b604051610ca49190613714565b60405180910390f35b348015610cb957600080fd5b50610cc26120a6565b604051610ccf919061350a565b60405180910390f35b348015610ce457600080fd5b50610ced6120ac565b604051610cfa919061350a565b60405180910390f35b348015610d0f57600080fd5b50610d2a6004803603810190610d259190613620565b6120b1565b604051610d37919061392f565b60405180910390f35b348015610d4c57600080fd5b50610d676004803603810190610d629190613e12565b6120c9565b604051610d7491906135d9565b60405180910390f35b348015610d8957600080fd5b50610d9261215d565b604051610d9f919061350a565b60405180910390f35b609e5481565b60007f80ac58cd000000000000000000000000000000000000000000000000000000007bffffffffffffffffffffffffffffffffffffffffffffffffffffffff1916827bffffffffffffffffffffffffffffffffffffffffffffffffffffffff19161480610e7957507f5b5e139f000000000000000000000000000000000000000000000000000000007bffffffffffffffffffffffffffffffffffffffffffffffffffffffff1916827bffffffffffffffffffffffffffffffffffffffffffffffffffffffff1916145b80610e895750610e8882612163565b5b9050919050565b60a88181548110610ea057600080fd5b9060005260206000209060209182820401919006915054906101000a900460ff1681565b6060606c8054610ed390613e81565b80601f0160208091040260200160405190810160405280929190818152602001828054610eff90613e81565b8015610f4c5780601f10610f2157610100808354040283529160200191610f4c565b820191906000526020600020905b815481529060010190602001808311610f2f57829003601f168201915b5050505050905090565b8060ff1660a654610f679190613ee1565b341015610f7357600080fd5b60008160a960003373ffffffffffffffffffffffffffffffffffffffff1673ffffffffffffffffffffffffffffffffffffffff16815260200190815260200160002060009054906101000a900460ff16610fcd9190613f23565b905060a760009054906101000a900460ff1660ff168160ff161115610ff157600080fd5b8060a960003373ffffffffffffffffffffffffffffffffffffffff1673ffffffffffffffffffffffffffffffffffffffff16815260200190815260200160002060006101000a81548160ff021916908360ff1602179055505050565b6000611058826121cd565b6070600083815260200190815260200160002060009054906101000a900473ffffffffffffffffffffffffffffffffffffffff169050919050565b6107d081565b60006110a482611697565b90508073ffffffffffffffffffffffffffffffffffffffff168373ffffffffffffffffffffffffffffffffffffffff1603611114576040517f08c379a000000000000000000000000000000000000000000000000000000000815260040161110b90613fca565b60405180910390fd5b8073ffffffffffffffffffffffffffffffffffffffff16611133612218565b73ffffffffffffffffffffffffffffffffffffffff16148061116257506111618161115c612218565b6120c9565b5b6111a1576040517f08c379a00000000000000000000000000000000000000000000000000000000081526004016111989061405c565b60405180910390fd5b6111ab8383612220565b505050565b6000600154905090565b6000609e600081546111cb9061407c565b919050819055609e8190555060006111e384846122d9565b90506001548160001c111561122d576040517f08c379a000000000000000000000000000000000000000000000000000000000815260040161122490614110565b60405180910390fd5b600060a16000609e5481526020019081526020016000205490506000801b811461128c576040517f08c379a00000000000000000000000000000000000000000000000000000000081526004016112839061417c565b60405180910390fd5b8160a16000609e548152602001908152602001600020819055506112b233609e54612351565b60006103e88360001c1660646112c8919061419c565b9050600060648260a860a960003373ffffffffffffffffffffffffffffffffffffffff1673ffffffffffffffffffffffffffffffffffffffff16815260200190815260200160002060009054906101000a900460ff1660ff1681548110611332576113316141d0565b5b90600052602060002090602091828204019190069054906101000a900460ff1660ff1661135f9190613ee1565b611369919061422e565b9050600081111561138f578060aa6000609e548152602001908152602001600020819055505b6113a3818361139e919061419c565b61236f565b5080826113b0919061419c565b600260008282546113c1919061419c565b92505081905550600194505050505092915050565b60015481565b606481565b60fa81565b6113f76113f1612218565b8261244d565b611436576040517f08c379a000000000000000000000000000000000000000000000000000000000815260040161142d906142d1565b60405180910390fd5b6114418383836124e2565b505050565b60a45481565b601281565b6000600154905090565b60b481565b60ab60009054906101000a900473ffffffffffffffffffffffffffffffffffffffff1673ffffffffffffffffffffffffffffffffffffffff163373ffffffffffffffffffffffffffffffffffffffff16146114f0576040517f08c379a00000000000000000000000000000000000000000000000000000000081526004016114e790614363565b60405180910390fd5b60ab60009054906101000a900473ffffffffffffffffffffffffffffffffffffffff1673ffffffffffffffffffffffffffffffffffffffff166108fc479081150290604051600060405180830381858888f19350505050158015611558573d6000803e3d6000fd5b50565b60a760009054906101000a900460ff1681565b61158983838360405180602001604052806000815250611fe4565b505050565b60a65481565b6000601260ff16600a6115a791906144b6565b6103e86115b49190613ee1565b905090565b60ab60009054906101000a900473ffffffffffffffffffffffffffffffffffffffff1673ffffffffffffffffffffffffffffffffffffffff163373ffffffffffffffffffffffffffffffffffffffff1614611649576040517f08c379a000000000000000000000000000000000000000000000000000000000815260040161164090614363565b60405180910390fd5b8060a68190555050565b60008054905090565b601260ff16600a61166d91906144b6565b633b9aca0061167c9190613ee1565b81565b60aa6020528060005260406000206000915090505481565b6000806116a3836127db565b9050600073ffffffffffffffffffffffffffffffffffffffff168173ffffffffffffffffffffffffffffffffffffffff1603611714576040517f08c379a000000000000000000000000000000000000000000000000000000000815260040161170b9061454d565b60405180910390fd5b80915050919050565b600080600080600080600060a160008981526020019081526020016000205460001c905060006103e8603083901c16905060006103e8603c84901c1690506000600a6117698484611f0a565b6117739190613ee1565b9050600060aa60008d8152602001908152602001600020546103e88616606461179c919061419c565b6117a6919061419c565b905060006103e8600c87901c1660fa6117bf919061419c565b905060006103e8601888901c1660fa6117d8919061419c565b905060006103e8602489901c1660fa6117f1919061419c565b90506000851115611891576064858561180a9190613ee1565b611814919061422e565b8461181f919061419c565b93506064858461182f9190613ee1565b611839919061422e565b83611844919061419c565b9250606485836118549190613ee1565b61185e919061422e565b82611869919061419c565b9150606485826118799190613ee1565b611883919061422e565b8161188e919061419c565b90505b838383838a8a9d509d509d509d509d509d50505050505050505091939550919395565b6201000081565b60025481565b60008073ffffffffffffffffffffffffffffffffffffffff168273ffffffffffffffffffffffffffffffffffffffff1603611931576040517f08c379a0000000000000000000000000000000000000000000000000000000008152600401611928906145df565b60405180910390fd5b606f60008373ffffffffffffffffffffffffffffffffffffffff1673ffffffffffffffffffffffffffffffffffffffff168152602001908152602001600020549050919050565b600061198483836122d9565b905092915050565b7d10000000000000000000000000000000000000000000000000000000000081565b60a25481565b601260ff16600a6119c591906144b6565b6103e86119d29190613ee1565b81565b60005481565b60ab60009054906101000a900473ffffffffffffffffffffffffffffffffffffffff1681565b6060606d8054611a1090613e81565b80601f0160208091040260200160405190810160405280929190818152602001828054611a3c90613e81565b8015611a895780601f10611a5e57610100808354040283529160200191611a89565b820191906000526020600020905b815481529060010190602001808311611a6c57829003601f168201915b5050505050905090565b60038060000160009054906101000a900473ffffffffffffffffffffffffffffffffffffffff16908060010154908060020154908060030154905084565b609f8054611ade90613e81565b80601f0160208091040260200160405190810160405280929190818152602001828054611b0a90613e81565b8015611b575780601f10611b2c57610100808354040283529160200191611b57565b820191906000526020600020905b815481529060010190602001808311611b3a57829003601f168201915b505050505081565b60ab60009054906101000a900473ffffffffffffffffffffffffffffffffffffffff1673ffffffffffffffffffffffffffffffffffffffff163373ffffffffffffffffffffffffffffffffffffffff1614611bef576040517f08c379a0000000000000000000000000000000000000000000000000000000008152600401611be690614363565b60405180910390fd5b80609f9081611bfe91906147ab565b5050565b611c14611c0d612218565b8383612818565b5050565b6000609e54905090565b6000600760019054906101000a900460ff16159050808015611c5657506001600760009054906101000a900460ff1660ff16105b80611c855750611c6530612984565b158015611c8457506001600760009054906101000a900460ff1660ff16145b5b611cc4576040517f08c379a0000000000000000000000000000000000000000000000000000000008152600401611cbb906148ef565b60405180910390fd5b6001600760006101000a81548160ff021916908360ff1602179055508015611d02576001600760016101000a81548160ff0219169083151502179055505b600073ffffffffffffffffffffffffffffffffffffffff1660ab60009054906101000a900473ffffffffffffffffffffffffffffffffffffffff1673ffffffffffffffffffffffffffffffffffffffff1614611d5d57600080fd5b3360ab60006101000a81548173ffffffffffffffffffffffffffffffffffffffff021916908373ffffffffffffffffffffffffffffffffffffffff160217905550611da782611b5f565b600143611db4919061490f565b406000819055504360a3819055507d100000000000000000000000000000000000000000000000000000000000600181905550666a94d74f43000060a681905550600a60a760006101000a81548160ff021916908360ff160217905550604051806101600160405280600060ff168152602001600560ff168152602001600a60ff168152602001600f60ff168152602001601660ff168152602001601d60ff168152602001602460ff168152602001602e60ff168152602001603860ff168152602001604260ff168152602001605060ff1681525060a890600b611e9992919061342d565b50611ea484846129a7565b8015611efe576000600760016101000a81548160ff0219169083151502179055507f7f26b83ff96e1f2b6a682f133852f6798a09c465da95921460cefb38474024986001604051611ef5919061497e565b60405180910390a15b50505050565b60a05481565b60006101f4831115611f2b576101f483611f24919061490f565b9250611f3c565b826101f4611f39919061490f565b92505b6101f4821115611f5b576101f482611f54919061490f565b9150611f6c565b816101f4611f69919061490f565b91505b6000611f9a600284611f7e9190614999565b600286611f8b9190614999565b611f95919061419c565b612a04565b9050605081611fa9919061422e565b91505092915050565b60026107d0611fc1919061422e565b81565b60a96020528060005260406000206000915054906101000a900460ff1681565b611ff5611fef612218565b8361244d565b612034576040517f08c379a000000000000000000000000000000000000000000000000000000000815260040161202b906142d1565b60405180910390fd5b61204084848484612ae3565b50505050565b60606000609f805461205790613e81565b905011612073576040518060200160405280600081525061209f565b609f61207e83612b3f565b60405160200161208f929190614aef565b6040516020818303038152906040525b9050919050565b60a35481565b600a81565b60a16020528060005260406000206000915090505481565b6000607160008473ffffffffffffffffffffffffffffffffffffffff1673ffffffffffffffffffffffffffffffffffffffff16815260200190815260200160002060008373ffffffffffffffffffffffffffffffffffffffff1673ffffffffffffffffffffffffffffffffffffffff16815260200190815260200160002060009054906101000a900460ff16905092915050565b60a55481565b60007f01ffc9a7000000000000000000000000000000000000000000000000000000007bffffffffffffffffffffffffffffffffffffffffffffffffffffffff1916827bffffffffffffffffffffffffffffffffffffffffffffffffffffffff1916149050919050565b6121d681612c0d565b612215576040517f08c379a000000000000000000000000000000000000000000000000000000000815260040161220c9061454d565b60405180910390fd5b50565b600033905090565b816070600083815260200190815260200160002060006101000a81548173ffffffffffffffffffffffffffffffffffffffff021916908373ffffffffffffffffffffffffffffffffffffffff160217905550808273ffffffffffffffffffffffffffffffffffffffff1661229383611697565b73ffffffffffffffffffffffffffffffffffffffff167f8c5be1e5ebec7d5bd14f71427d1e84f3dd0314c0f7b2291e5b200ac8c7c3b92560405160405180910390a45050565b6000805433846040516020016122f193929190614ba8565b60405160208183030381529060405280519060200120905081811461234b576040517f08c379a000000000000000000000000000000000000000000000000000000000815260040161234290614c31565b60405180910390fd5b92915050565b61236b828260405180602001604052806000815250612c4e565b5050565b6000601260ff16600a61238291906144b6565b633b9aca006123919190613ee1565b8260025461239f919061419c565b11156123bb57600160a4546123b4919061419c565b60a4819055505b60a2600081546123ca9061407c565b91905081905560a2819055506000600a60a2546123e79190614c51565b036123f6576123f4612ca9565b505b600143612403919061490f565b406000819055507fa25cd6b008631e6914129063de6438ed7fc7d718524038f69c125d14aac34c8560005460405161243b919061392f565b60405180910390a160a2549050919050565b60008061245983611697565b90508073ffffffffffffffffffffffffffffffffffffffff168473ffffffffffffffffffffffffffffffffffffffff16148061249b575061249a81856120c9565b5b806124d957508373ffffffffffffffffffffffffffffffffffffffff166124c18461104d565b73ffffffffffffffffffffffffffffffffffffffff16145b91505092915050565b8273ffffffffffffffffffffffffffffffffffffffff1661250282611697565b73ffffffffffffffffffffffffffffffffffffffff1614612558576040517f08c379a000000000000000000000000000000000000000000000000000000000815260040161254f90614cf4565b60405180910390fd5b600073ffffffffffffffffffffffffffffffffffffffff168273ffffffffffffffffffffffffffffffffffffffff16036125c7576040517f08c379a00000000000000000000000000000000000000000000000000000000081526004016125be90614d86565b60405180910390fd5b6125d48383836001612e9b565b8273ffffffffffffffffffffffffffffffffffffffff166125f482611697565b73ffffffffffffffffffffffffffffffffffffffff161461264a576040517f08c379a000000000000000000000000000000000000000000000000000000000815260040161264190614cf4565b60405180910390fd5b6070600082815260200190815260200160002060006101000a81549073ffffffffffffffffffffffffffffffffffffffff02191690556001606f60008573ffffffffffffffffffffffffffffffffffffffff1673ffffffffffffffffffffffffffffffffffffffff168152602001908152602001600020600082825403925050819055506001606f60008473ffffffffffffffffffffffffffffffffffffffff1673ffffffffffffffffffffffffffffffffffffffff1681526020019081526020016000206000828254019250508190555081606e600083815260200190815260200160002060006101000a81548173ffffffffffffffffffffffffffffffffffffffff021916908373ffffffffffffffffffffffffffffffffffffffff160217905550808273ffffffffffffffffffffffffffffffffffffffff168473ffffffffffffffffffffffffffffffffffffffff167fddf252ad1be2c89b69c2b068fc378daa952ba7f163c4a11628f55a4df523b3ef60405160405180910390a46127d68383836001612ea1565b505050565b6000606e600083815260200190815260200160002060009054906101000a900473ffffffffffffffffffffffffffffffffffffffff169050919050565b8173ffffffffffffffffffffffffffffffffffffffff168373ffffffffffffffffffffffffffffffffffffffff1603612886576040517f08c379a000000000000000000000000000000000000000000000000000000000815260040161287d90614df2565b60405180910390fd5b80607160008573ffffffffffffffffffffffffffffffffffffffff1673ffffffffffffffffffffffffffffffffffffffff16815260200190815260200160002060008473ffffffffffffffffffffffffffffffffffffffff1673ffffffffffffffffffffffffffffffffffffffff16815260200190815260200160002060006101000a81548160ff0219169083151502179055508173ffffffffffffffffffffffffffffffffffffffff168373ffffffffffffffffffffffffffffffffffffffff167f17307eab39ab6107e8899845ad3d59bd9653f200f220920489ca2b5937696c318360405161297791906135d9565b60405180910390a3505050565b6000808273ffffffffffffffffffffffffffffffffffffffff163b119050919050565b600760019054906101000a900460ff166129f6576040517f08c379a00000000000000000000000000000000000000000000000000000000081526004016129ed90614e84565b60405180910390fd5b612a008282612ea7565b5050565b60008160b59150710100000000000000000000000000000000008110612a31578060801c90508160401b91505b69010000000000000000008110612a4f578060401c90508160201b91505b650100000000008110612a69578060201c90508160101b91505b63010000008110612a81578060101c90508160081b91505b620100008101820260121c9150818304820160011c9150818304820160011c9150818304820160011c9150818304820160011c9150818304820160011c9150818304820160011c9150818304820160011c915081828404108203915050919050565b612aee8484846124e2565b612afa84848484612f1a565b612b39576040517f08c379a0000000000000000000000000000000000000000000000000000000008152600401612b3090614f16565b60405180910390fd5b50505050565b606060006001612b4e846130a1565b01905060008167ffffffffffffffff811115612b6d57612b6c613a27565b5b6040519080825280601f01601f191660200182016040528015612b9f5781602001600182028036833780820191505090505b509050600082602001820190505b600115612c02578080600190039150507f3031323334353637383961626364656600000000000000000000000000000000600a86061a8153600a8581612bf657612bf56141ff565b5b04945060008503612bad575b819350505050919050565b60008073ffffffffffffffffffffffffffffffffffffffff16612c2f836127db565b73ffffffffffffffffffffffffffffffffffffffff1614159050919050565b612c5883836131f4565b612c656000848484612f1a565b612ca4576040517f08c379a0000000000000000000000000000000000000000000000000000000008152600401612c9b90614f16565b60405180910390fd5b505050565b600080600a60a254612cbb9190614c51565b14612cca576001549050612e98565b600060a35443612cda919061490f565b90506000600a9050600060b482612cf19190613ee1565b905080831015612d7457600083606483612d0b9190613ee1565b612d15919061422e565b90506000612d3d606483612d29919061490f565b60026107d0612d38919061422e565b613411565b90506107d081600154612d509190613ee1565b612d5a919061422e565b600154612d67919061490f565b6001819055505050612de9565b600081606485612d849190613ee1565b612d8e919061422e565b90506000612db6606483612da2919061490f565b60026107d0612db1919061422e565b613411565b90506107d081600154612dc99190613ee1565b612dd3919061422e565b600154612de0919061419c565b60018190555050505b4360a381905550620100006001541015612e0857620100006001819055505b7d1000000000000000000000000000000000000000000000000000000000006001541115612e56577d1000000000000000000000000000000000000000000000000000000000006001819055505b7f7de206a75889d516f708131b28756018306708c3c6a8305f30a4f2d377d1e94e600154604051612e87919061350a565b60405180910390a160015493505050505b90565b50505050565b50505050565b600760019054906101000a900460ff16612ef6576040517f08c379a0000000000000000000000000000000000000000000000000000000008152600401612eed90614e84565b60405180910390fd5b81606c9081612f0591906147ab565b5080606d9081612f1591906147ab565b505050565b6000612f3b8473ffffffffffffffffffffffffffffffffffffffff16612984565b15613094578373ffffffffffffffffffffffffffffffffffffffff1663150b7a02612f64612218565b8786866040518563ffffffff1660e01b8152600401612f869493929190614f8b565b6020604051808303816000875af1925050508015612fc257506040513d601f19601f82011682018060405250810190612fbf9190614fec565b60015b613044573d8060008114612ff2576040519150601f19603f3d011682016040523d82523d6000602084013e612ff7565b606091505b50600081510361303c576040517f08c379a000000000000000000000000000000000000000000000000000000000815260040161303390614f16565b60405180910390fd5b805181602001fd5b63150b7a0260e01b7bffffffffffffffffffffffffffffffffffffffffffffffffffffffff1916817bffffffffffffffffffffffffffffffffffffffffffffffffffffffff191614915050613099565b600190505b949350505050565b600080600090507a184f03e93ff9f4daa797ed6e38ed64bf6a1f01000000000000000083106130ff577a184f03e93ff9f4daa797ed6e38ed64bf6a1f01000000000000000083816130f5576130f46141ff565b5b0492506040810190505b6d04ee2d6d415b85acef8100000000831061313c576d04ee2d6d415b85acef81000000008381613132576131316141ff565b5b0492506020810190505b662386f26fc10000831061316b57662386f26fc100008381613161576131606141ff565b5b0492506010810190505b6305f5e1008310613194576305f5e100838161318a576131896141ff565b5b0492506008810190505b61271083106131b95761271083816131af576131ae6141ff565b5b0492506004810190505b606483106131dc57606483816131d2576131d16141ff565b5b0492506002810190505b600a83106131eb576001810190505b80915050919050565b600073ffffffffffffffffffffffffffffffffffffffff168273ffffffffffffffffffffffffffffffffffffffff1603613263576040517f08c379a000000000000000000000000000000000000000000000000000000000815260040161325a90615065565b60405180910390fd5b61326c81612c0d565b156132ac576040517f08c379a00000000000000000000000000000000000000000000000000000000081526004016132a3906150d1565b60405180910390fd5b6132ba600083836001612e9b565b6132c381612c0d565b15613303576040517f08c379a00000000000000000000000000000000000000000000000000000000081526004016132fa906150d1565b60405180910390fd5b6001606f60008473ffffffffffffffffffffffffffffffffffffffff1673ffffffffffffffffffffffffffffffffffffffff1681526020019081526020016000206000828254019250508190555081606e600083815260200190815260200160002060006101000a81548173ffffffffffffffffffffffffffffffffffffffff021916908373ffffffffffffffffffffffffffffffffffffffff160217905550808273ffffffffffffffffffffffffffffffffffffffff16600073ffffffffffffffffffffffffffffffffffffffff167fddf252ad1be2c89b69c2b068fc378daa952ba7f163c4a11628f55a4df523b3ef60405160405180910390a461340d600083836001612ea1565b5050565b60008183111561342357819050613427565b8290505b92915050565b82805482825590600052602060002090601f016020900481019282156134c35791602002820160005b8382111561349457835183826101000a81548160ff021916908360ff1602179055509260200192600101602081600001049283019260010302613456565b80156134c15782816101000a81549060ff0219169055600101602081600001049283019260010302613494565b505b5090506134d091906134d4565b5090565b5b808211156134ed5760008160009055506001016134d5565b5090565b6000819050919050565b613504816134f1565b82525050565b600060208201905061351f60008301846134fb565b92915050565b6000604051905090565b600080fd5b600080fd5b60007fffffffff0000000000000000000000000000000000000000000000000000000082169050919050565b61356e81613539565b811461357957600080fd5b50565b60008135905061358b81613565565b92915050565b6000602082840312156135a7576135a661352f565b5b60006135b58482850161357c565b91505092915050565b60008115159050919050565b6135d3816135be565b82525050565b60006020820190506135ee60008301846135ca565b92915050565b6135fd816134f1565b811461360857600080fd5b50565b60008135905061361a816135f4565b92915050565b6000602082840312156136365761363561352f565b5b60006136448482850161360b565b91505092915050565b600060ff82169050919050565b6136638161364d565b82525050565b600060208201905061367e600083018461365a565b92915050565b600081519050919050565b600082825260208201905092915050565b60005b838110156136be5780820151818401526020810190506136a3565b60008484015250505050565b6000601f19601f8301169050919050565b60006136e682613684565b6136f0818561368f565b93506137008185602086016136a0565b613709816136ca565b840191505092915050565b6000602082019050818103600083015261372e81846136db565b905092915050565b61373f8161364d565b811461374a57600080fd5b50565b60008135905061375c81613736565b92915050565b6000602082840312156137785761377761352f565b5b60006137868482850161374d565b91505092915050565b600073ffffffffffffffffffffffffffffffffffffffff82169050919050565b60006137ba8261378f565b9050919050565b6137ca816137af565b82525050565b60006020820190506137e560008301846137c1565b92915050565b6137f4816137af565b81146137ff57600080fd5b50565b600081359050613811816137eb565b92915050565b6000806040838503121561382e5761382d61352f565b5b600061383c85828601613802565b925050602061384d8582860161360b565b9150509250929050565b6000819050919050565b61386a81613857565b811461387557600080fd5b50565b60008135905061388781613861565b92915050565b600080604083850312156138a4576138a361352f565b5b60006138b28582860161360b565b92505060206138c385828601613878565b9150509250929050565b6000806000606084860312156138e6576138e561352f565b5b60006138f486828701613802565b935050602061390586828701613802565b92505060406139168682870161360b565b9150509250925092565b61392981613857565b82525050565b60006020820190506139446000830184613920565b92915050565b600060c08201905061395f60008301896134fb565b61396c60208301886134fb565b61397960408301876134fb565b61398660608301866134fb565b61399360808301856134fb565b6139a060a08301846134fb565b979650505050505050565b6000602082840312156139c1576139c061352f565b5b60006139cf84828501613802565b91505092915050565b60006080820190506139ed60008301876137c1565b6139fa60208301866134fb565b613a0760408301856134fb565b613a1460608301846134fb565b95945050505050565b600080fd5b600080fd5b7f4e487b7100000000000000000000000000000000000000000000000000000000600052604160045260246000fd5b613a5f826136ca565b810181811067ffffffffffffffff82111715613a7e57613a7d613a27565b5b80604052505050565b6000613a91613525565b9050613a9d8282613a56565b919050565b600067ffffffffffffffff821115613abd57613abc613a27565b5b613ac6826136ca565b9050602081019050919050565b82818337600083830152505050565b6000613af5613af084613aa2565b613a87565b905082815260208101848484011115613b1157613b10613a22565b5b613b1c848285613ad3565b509392505050565b600082601f830112613b3957613b38613a1d565b5b8135613b49848260208601613ae2565b91505092915050565b600060208284031215613b6857613b6761352f565b5b600082013567ffffffffffffffff811115613b8657613b85613534565b5b613b9284828501613b24565b91505092915050565b613ba4816135be565b8114613baf57600080fd5b50565b600081359050613bc181613b9b565b92915050565b60008060408385031215613bde57613bdd61352f565b5b6000613bec85828601613802565b9250506020613bfd85828601613bb2565b9150509250929050565b600080600060608486031215613c2057613c1f61352f565b5b600084013567ffffffffffffffff811115613c3e57613c3d613534565b5b613c4a86828701613b24565b935050602084013567ffffffffffffffff811115613c6b57613c6a613534565b5b613c7786828701613b24565b925050604084013567ffffffffffffffff811115613c9857613c97613534565b5b613ca486828701613b24565b9150509250925092565b60008060408385031215613cc557613cc461352f565b5b6000613cd38582860161360b565b9250506020613ce48582860161360b565b9150509250929050565b600067ffffffffffffffff821115613d0957613d08613a27565b5b613d12826136ca565b9050602081019050919050565b6000613d32613d2d84613cee565b613a87565b905082815260208101848484011115613d4e57613d4d613a22565b5b613d59848285613ad3565b509392505050565b600082601f830112613d7657613d75613a1d565b5b8135613d86848260208601613d1f565b91505092915050565b60008060008060808587031215613da957613da861352f565b5b6000613db787828801613802565b9450506020613dc887828801613802565b9350506040613dd98782880161360b565b925050606085013567ffffffffffffffff811115613dfa57613df9613534565b5b613e0687828801613d61565b91505092959194509250565b60008060408385031215613e2957613e2861352f565b5b6000613e3785828601613802565b9250506020613e4885828601613802565b9150509250929050565b7f4e487b7100000000000000000000000000000000000000000000000000000000600052602260045260246000fd5b60006002820490506001821680613e9957607f821691505b602082108103613eac57613eab613e52565b5b50919050565b7f4e487b7100000000000000000000000000000000000000000000000000000000600052601160045260246000fd5b6000613eec826134f1565b9150613ef7836134f1565b9250828202613f05816134f1565b91508282048414831517613f1c57613f1b613eb2565b5b5092915050565b6000613f2e8261364d565b9150613f398361364d565b9250828201905060ff811115613f5257613f51613eb2565b5b92915050565b7f4552433732313a20617070726f76616c20746f2063757272656e74206f776e6560008201527f7200000000000000000000000000000000000000000000000000000000000000602082015250565b6000613fb460218361368f565b9150613fbf82613f58565b604082019050919050565b60006020820190508181036000830152613fe381613fa7565b9050919050565b7f4552433732313a20617070726f76652063616c6c6572206973206e6f7420746f60008201527f6b656e206f776e6572206f7220617070726f76656420666f7220616c6c000000602082015250565b6000614046603d8361368f565b915061405182613fea565b604082019050919050565b6000602082019050818103600083015261407581614039565b9050919050565b6000614087826134f1565b91507fffffffffffffffffffffffffffffffffffffffffffffffffffffffffffffffff82036140b9576140b8613eb2565b5b600182019050919050565b7f4e6f6e636520696e636f72726563740000000000000000000000000000000000600082015250565b60006140fa600f8361368f565b9150614105826140c4565b602082019050919050565b60006020820190508181036000830152614129816140ed565b9050919050565b7f536f6c7574696f6e206578697374000000000000000000000000000000000000600082015250565b6000614166600e8361368f565b915061417182614130565b602082019050919050565b6000602082019050818103600083015261419581614159565b9050919050565b60006141a7826134f1565b91506141b2836134f1565b92508282019050808211156141ca576141c9613eb2565b5b92915050565b7f4e487b7100000000000000000000000000000000000000000000000000000000600052603260045260246000fd5b7f4e487b7100000000000000000000000000000000000000000000000000000000600052601260045260246000fd5b6000614239826134f1565b9150614244836134f1565b925082614254576142536141ff565b5b828204905092915050565b7f4552433732313a2063616c6c6572206973206e6f7420746f6b656e206f776e6560008201527f72206f7220617070726f76656400000000000000000000000000000000000000602082015250565b60006142bb602d8361368f565b91506142c68261425f565b604082019050919050565b600060208201905081810360008301526142ea816142ae565b9050919050565b7f4f6e6c79206f776e657220697320616c6c6f77656420746f20706572666f726d60008201527f207468697320616374696f6e0000000000000000000000000000000000000000602082015250565b600061434d602c8361368f565b9150614358826142f1565b604082019050919050565b6000602082019050818103600083015261437c81614340565b9050919050565b60008160011c9050919050565b6000808291508390505b60018511156143da578086048111156143b6576143b5613eb2565b5b60018516156143c55780820291505b80810290506143d385614383565b945061439a565b94509492505050565b6000826143f357600190506144af565b8161440157600090506144af565b8160018114614417576002811461442157614450565b60019150506144af565b60ff84111561443357614432613eb2565b5b8360020a91508482111561444a57614449613eb2565b5b506144af565b5060208310610133831016604e8410600b84101617156144855782820a9050838111156144805761447f613eb2565b5b6144af565b6144928484846001614390565b925090508184048111156144a9576144a8613eb2565b5b81810290505b9392505050565b60006144c1826134f1565b91506144cc836134f1565b92506144f97fffffffffffffffffffffffffffffffffffffffffffffffffffffffffffffffff84846143e3565b905092915050565b7f4552433732313a20696e76616c696420746f6b656e2049440000000000000000600082015250565b600061453760188361368f565b915061454282614501565b602082019050919050565b600060208201905081810360008301526145668161452a565b9050919050565b7f4552433732313a2061646472657373207a65726f206973206e6f74206120766160008201527f6c6964206f776e65720000000000000000000000000000000000000000000000602082015250565b60006145c960298361368f565b91506145d48261456d565b604082019050919050565b600060208201905081810360008301526145f8816145bc565b9050919050565b60008190508160005260206000209050919050565b60006020601f8301049050919050565b600082821b905092915050565b6000600883026146617fffffffffffffffffffffffffffffffffffffffffffffffffffffffffffffffff82614624565b61466b8683614624565b95508019841693508086168417925050509392505050565b6000819050919050565b60006146a86146a361469e846134f1565b614683565b6134f1565b9050919050565b6000819050919050565b6146c28361468d565b6146d66146ce826146af565b848454614631565b825550505050565b600090565b6146eb6146de565b6146f68184846146b9565b505050565b5b8181101561471a5761470f6000826146e3565b6001810190506146fc565b5050565b601f82111561475f57614730816145ff565b61473984614614565b81016020851015614748578190505b61475c61475485614614565b8301826146fb565b50505b505050565b600082821c905092915050565b600061478260001984600802614764565b1980831691505092915050565b600061479b8383614771565b9150826002028217905092915050565b6147b482613684565b67ffffffffffffffff8111156147cd576147cc613a27565b5b6147d78254613e81565b6147e282828561471e565b600060209050601f8311600181146148155760008415614803578287015190505b61480d858261478f565b865550614875565b601f198416614823866145ff565b60005b8281101561484b57848901518255600182019150602085019450602081019050614826565b868310156148685784890151614864601f891682614771565b8355505b6001600288020188555050505b505050505050565b7f496e697469616c697a61626c653a20636f6e747261637420697320616c72656160008201527f647920696e697469616c697a6564000000000000000000000000000000000000602082015250565b60006148d9602e8361368f565b91506148e48261487d565b604082019050919050565b60006020820190508181036000830152614908816148cc565b9050919050565b600061491a826134f1565b9150614925836134f1565b925082820390508181111561493d5761493c613eb2565b5b92915050565b6000819050919050565b600061496861496361495e84614943565b614683565b61364d565b9050919050565b6149788161494d565b82525050565b6000602082019050614993600083018461496f565b92915050565b60006149a4826134f1565b91506149af8361364d565b92506149dc7fffffffffffffffffffffffffffffffffffffffffffffffffffffffffffffffff84846143e3565b905092915050565b600081905092915050565b600081546149fc81613e81565b614a0681866149e4565b94506001821660008114614a215760018114614a3657614a69565b60ff1983168652811515820286019350614a69565b614a3f856145ff565b60005b83811015614a6157815481890152600182019150602081019050614a42565b838801955050505b50505092915050565b6000614a7d82613684565b614a8781856149e4565b9350614a978185602086016136a0565b80840191505092915050565b7f2e6a736f6e000000000000000000000000000000000000000000000000000000600082015250565b6000614ad96005836149e4565b9150614ae482614aa3565b600582019050919050565b6000614afb82856149ef565b9150614b078284614a72565b9150614b1282614acc565b91508190509392505050565b6000819050919050565b614b39614b3482613857565b614b1e565b82525050565b60008160601b9050919050565b6000614b5782614b3f565b9050919050565b6000614b6982614b4c565b9050919050565b614b81614b7c826137af565b614b5e565b82525050565b6000819050919050565b614ba2614b9d826134f1565b614b87565b82525050565b6000614bb48286614b28565b602082019150614bc48285614b70565b601482019150614bd48284614b91565b602082019150819050949350505050565b7f44696765737420697320646966666572656e7400000000000000000000000000600082015250565b6000614c1b60138361368f565b9150614c2682614be5565b602082019050919050565b60006020820190508181036000830152614c4a81614c0e565b9050919050565b6000614c5c826134f1565b9150614c67836134f1565b925082614c7757614c766141ff565b5b828206905092915050565b7f4552433732313a207472616e736665722066726f6d20696e636f72726563742060008201527f6f776e6572000000000000000000000000000000000000000000000000000000602082015250565b6000614cde60258361368f565b9150614ce982614c82565b604082019050919050565b60006020820190508181036000830152614d0d81614cd1565b9050919050565b7f4552433732313a207472616e7366657220746f20746865207a65726f2061646460008201527f7265737300000000000000000000000000000000000000000000000000000000602082015250565b6000614d7060248361368f565b9150614d7b82614d14565b604082019050919050565b60006020820190508181036000830152614d9f81614d63565b9050919050565b7f4552433732313a20617070726f766520746f2063616c6c657200000000000000600082015250565b6000614ddc60198361368f565b9150614de782614da6565b602082019050919050565b60006020820190508181036000830152614e0b81614dcf565b9050919050565b7f496e697469616c697a61626c653a20636f6e7472616374206973206e6f74206960008201527f6e697469616c697a696e67000000000000000000000000000000000000000000602082015250565b6000614e6e602b8361368f565b9150614e7982614e12565b604082019050919050565b60006020820190508181036000830152614e9d81614e61565b9050919050565b7f4552433732313a207472616e7366657220746f206e6f6e20455243373231526560008201527f63656976657220696d706c656d656e7465720000000000000000000000000000602082015250565b6000614f0060328361368f565b9150614f0b82614ea4565b604082019050919050565b60006020820190508181036000830152614f2f81614ef3565b9050919050565b600081519050919050565b600082825260208201905092915050565b6000614f5d82614f36565b614f678185614f41565b9350614f778185602086016136a0565b614f80816136ca565b840191505092915050565b6000608082019050614fa060008301876137c1565b614fad60208301866137c1565b614fba60408301856134fb565b8181036060830152614fcc8184614f52565b905095945050505050565b600081519050614fe681613565565b92915050565b6000602082840312156150025761500161352f565b5b600061501084828501614fd7565b91505092915050565b7f4552433732313a206d696e7420746f20746865207a65726f2061646472657373600082015250565b600061504f60208361368f565b915061505a82615019565b602082019050919050565b6000602082019050818103600083015261507e81615042565b9050919050565b7f4552433732313a20746f6b656e20616c7265616479206d696e74656400000000600082015250565b60006150bb601c8361368f565b91506150c682615085565b602082019050919050565b600060208201905081810360008301526150ea816150ae565b905091905056fea2646970667358221220af1e5947ead1adf06d2cc406e2a0d9de5dd672843970df745f8e70ee81b2518864736f6c63430008120033",
  "linkReferences": {},
  "deployedLinkReferences": {}
}