{"src/Planets.sol":{"Planets":{"abi":[{"inputs":[{"internalType":"string","name":"_name","type":"string"},{"internalType":"string","name":"_symbol","type":"string"},{"internalType":"string","name":"_baseUri","type":"string"}],"stateMutability":"nonpayable","type":"constructor"},{"anonymous":false,"inputs":[{"indexed":true,"internalType":"address","name":"owner","type":"address"},{"indexed":true,"internalType":"address","name":"spender","type":"address"},{"indexed":true,"internalType":"uint256","name":"id","type":"uint256"}],"name":"Approval","type":"event"},{"anonymous":false,"inputs":[{"indexed":true,"internalType":"address","name":"owner","type":"address"},{"indexed":true,"internalType":"address","name":"operator","type":"address"},{"indexed":false,"internalType":"bool","name":"approved","type":"bool"}],"name":"ApprovalForAll","type":"event"},{"anonymous":false,"inputs":[{"indexed":true,"internalType":"address","name":"from","type":"address"},{"indexed":false,"internalType":"uint256","name":"rewardAmount","type":"uint256"},{"indexed":false,"internalType":"uint256","name":"epochCount","type":"uint256"},{"indexed":false,"internalType":"bytes32","name":"newChallengeNumber","type":"bytes32"}],"name":"Mint","type":"event"},{"anonymous":false,"inputs":[{"indexed":true,"internalType":"address","name":"previousOwner","type":"address"},{"indexed":true,"internalType":"address","name":"newOwner","type":"address"}],"name":"OwnershipTransferred","type":"event"},{"anonymous":false,"inputs":[{"indexed":true,"internalType":"address","name":"from","type":"address"},{"indexed":true,"internalType":"address","name":"to","type":"address"},{"indexed":true,"internalType":"uint256","name":"id","type":"uint256"}],"name":"Transfer","type":"event"},{"inputs":[],"name":"BLOCKS_PER_READJUSTMENT","outputs":[{"internalType":"uint256","name":"","type":"uint256"}],"stateMutability":"view","type":"function"},{"inputs":[],"name":"MAXIMUM_TARGET_DIFFICULTY","outputs":[{"internalType":"uint256","name":"","type":"uint256"}],"stateMutability":"view","type":"function"},{"inputs":[],"name":"MAX_ADJUSTMENT_PERCENT","outputs":[{"internalType":"uint256","name":"","type":"uint256"}],"stateMutability":"view","type":"function"},{"inputs":[],"name":"MINIMUM_TARGET_DIFFICULTY","outputs":[{"internalType":"uint256","name":"","type":"uint256"}],"stateMutability":"view","type":"function"},{"inputs":[],"name":"MINING_RATE_FACTOR","outputs":[{"internalType":"uint256","name":"","type":"uint256"}],"stateMutability":"view","type":"function"},{"inputs":[],"name":"QUOTIENT_LIMIT","outputs":[{"internalType":"uint256","name":"","type":"uint256"}],"stateMutability":"view","type":"function"},{"inputs":[],"name":"TARGET_DIVISOR","outputs":[{"internalType":"uint256","name":"","type":"uint256"}],"stateMutability":"view","type":"function"},{"inputs":[{"internalType":"address","name":"spender","type":"address"},{"internalType":"uint256","name":"id","type":"uint256"}],"name":"approve","outputs":[],"stateMutability":"nonpayable","type":"function"},{"inputs":[{"internalType":"address","name":"owner","type":"address"}],"name":"balanceOf","outputs":[{"internalType":"uint256","name":"","type":"uint256"}],"stateMutability":"view","type":"function"},{"inputs":[],"name":"baseUri","outputs":[{"internalType":"string","name":"","type":"string"}],"stateMutability":"view","type":"function"},{"inputs":[],"name":"challengeNumber","outputs":[{"internalType":"bytes32","name":"","type":"bytes32"}],"stateMutability":"view","type":"function"},{"inputs":[{"internalType":"uint256","name":"nonce","type":"uint256"},{"internalType":"bytes32","name":"challengeDigest","type":"bytes32"}],"name":"checkHash","outputs":[{"internalType":"bytes32","name":"digest","type":"bytes32"}],"stateMutability":"nonpayable","type":"function"},{"inputs":[],"name":"currentTokenId","outputs":[{"internalType":"uint256","name":"","type":"uint256"}],"stateMutability":"view","type":"function"},{"inputs":[],"name":"decimals","outputs":[{"internalType":"uint8","name":"","type":"uint8"}],"stateMutability":"view","type":"function"},{"inputs":[],"name":"difficulty","outputs":[{"internalType":"uint256","name":"","type":"uint256"}],"stateMutability":"view","type":"function"},{"inputs":[],"name":"epochCount","outputs":[{"internalType":"uint256","name":"","type":"uint256"}],"stateMutability":"view","type":"function"},{"inputs":[{"internalType":"uint256","name":"","type":"uint256"}],"name":"getApproved","outputs":[{"internalType":"address","name":"","type":"address"}],"stateMutability":"view","type":"function"},{"inputs":[],"name":"getChallengeNumber","outputs":[{"internalType":"bytes32","name":"","type":"bytes32"}],"stateMutability":"view","type":"function"},{"inputs":[],"name":"getMiningDifficulty","outputs":[{"internalType":"uint256","name":"","type":"uint256"}],"stateMutability":"view","type":"function"},{"inputs":[],"name":"getMiningReward","outputs":[{"internalType":"uint256","name":"","type":"uint256"}],"stateMutability":"view","type":"function"},{"inputs":[],"name":"getMiningTarget","outputs":[{"internalType":"uint256","name":"","type":"uint256"}],"stateMutability":"view","type":"function"},{"inputs":[],"name":"getPlanetMinted","outputs":[{"internalType":"uint256","name":"","type":"uint256"}],"stateMutability":"view","type":"function"},{"inputs":[{"internalType":"address","name":"","type":"address"},{"internalType":"address","name":"","type":"address"}],"name":"isApprovedForAll","outputs":[{"internalType":"bool","name":"","type":"bool"}],"stateMutability":"view","type":"function"},{"inputs":[],"name":"latestDifficultyPeriodStarted","outputs":[{"internalType":"uint256","name":"","type":"uint256"}],"stateMutability":"view","type":"function"},{"inputs":[],"name":"maxSupplyForEra","outputs":[{"internalType":"uint256","name":"","type":"uint256"}],"stateMutability":"view","type":"function"},{"inputs":[{"internalType":"uint256","name":"nonce","type":"uint256"},{"internalType":"bytes32","name":"challengeDigest","type":"bytes32"}],"name":"mint","outputs":[{"internalType":"bool","name":"success","type":"bool"}],"stateMutability":"nonpayable","type":"function"},{"inputs":[],"name":"name","outputs":[{"internalType":"string","name":"","type":"string"}],"stateMutability":"view","type":"function"},{"inputs":[],"name":"owner","outputs":[{"internalType":"address","name":"","type":"address"}],"stateMutability":"view","type":"function"},{"inputs":[{"internalType":"uint256","name":"id","type":"uint256"}],"name":"ownerOf","outputs":[{"internalType":"address","name":"owner","type":"address"}],"stateMutability":"view","type":"function"},{"inputs":[{"internalType":"uint256","name":"","type":"uint256"}],"name":"planetResources","outputs":[{"internalType":"uint256","name":"RTS","type":"uint256"}],"stateMutability":"view","type":"function"},{"inputs":[],"name":"renounceOwnership","outputs":[],"stateMutability":"nonpayable","type":"function"},{"inputs":[],"name":"rewardEra","outputs":[{"internalType":"uint256","name":"","type":"uint256"}],"stateMutability":"view","type":"function"},{"inputs":[{"internalType":"address","name":"from","type":"address"},{"internalType":"address","name":"to","type":"address"},{"internalType":"uint256","name":"id","type":"uint256"}],"name":"safeTransferFrom","outputs":[],"stateMutability":"nonpayable","type":"function"},{"inputs":[{"internalType":"address","name":"from","type":"address"},{"internalType":"address","name":"to","type":"address"},{"internalType":"uint256","name":"id","type":"uint256"},{"internalType":"bytes","name":"data","type":"bytes"}],"name":"safeTransferFrom","outputs":[],"stateMutability":"nonpayable","type":"function"},{"inputs":[{"internalType":"address","name":"operator","type":"address"},{"internalType":"bool","name":"approved","type":"bool"}],"name":"setApprovalForAll","outputs":[],"stateMutability":"nonpayable","type":"function"},{"inputs":[{"internalType":"string","name":"_baseUri","type":"string"}],"name":"setBaseUri","outputs":[],"stateMutability":"nonpayable","type":"function"},{"inputs":[],"name":"startingAverageReward","outputs":[{"internalType":"uint256","name":"","type":"uint256"}],"stateMutability":"view","type":"function"},{"inputs":[],"name":"statistics","outputs":[{"internalType":"address","name":"lastRewardTo","type":"address"},{"internalType":"uint256","name":"lastRewardAmount","type":"uint256"},{"internalType":"uint256","name":"lastRewardEthBlockNumber","type":"uint256"},{"internalType":"uint256","name":"lastRewardTimestamp","type":"uint256"}],"stateMutability":"view","type":"function"},{"inputs":[{"internalType":"bytes4","name":"interfaceId","type":"bytes4"}],"name":"supportsInterface","outputs":[{"internalType":"bool","name":"","type":"bool"}],"stateMutability":"view","type":"function"},{"inputs":[],"name":"symbol","outputs":[{"internalType":"string","name":"","type":"string"}],"stateMutability":"view","type":"function"},{"inputs":[{"internalType":"uint256","name":"id","type":"uint256"}],"name":"tokenURI","outputs":[{"internalType":"string","name":"","type":"string"}],"stateMutability":"view","type":"function"},{"inputs":[],"name":"tokensMinted","outputs":[{"internalType":"uint256","name":"","type":"uint256"}],"stateMutability":"view","type":"function"},{"inputs":[],"name":"totalERSupply","outputs":[{"internalType":"uint256","name":"","type":"uint256"}],"stateMutability":"view","type":"function"},{"inputs":[],"name":"totalRtsPerEra","outputs":[{"internalType":"uint256","name":"","type":"uint256"}],"stateMutability":"view","type":"function"},{"inputs":[{"internalType":"address","name":"from","type":"address"},{"internalType":"address","name":"to","type":"address"},{"internalType":"uint256","name":"id","type":"uint256"}],"name":"transferFrom","outputs":[],"stateMutability":"nonpayable","type":"function"},{"inputs":[{"internalType":"address","name":"newOwner","type":"address"}],"name":"transferOwnership","outputs":[],"stateMutability":"nonpayable","type":"function"}],"evm":{"bytecode":{"linkReferences":{},"object":"6080604052610400601355603c601455620100006016557e200000000000000000000000000000000000000000000000000000000000006017556107d06018556002601854620000509190620003b7565b6019556064601a556012601b60006101000a81548160ff021916908360ff160217905550601b60009054906101000a900460ff1660ff16600a62000095919062000543565b6103e8620000a4919062000594565b601c556000601d55601b60009054906101000a900460ff1660ff16600a620000cd919062000543565b633b9aca00620000de919062000594565b601e556000601f55348015620000f357600080fd5b506040516200453438038062004534833981810160405281019062000119919062000772565b828281600790816200012c919062000a6c565b5080600890816200013e919062000a6c565b5050506200016162000155620001a160201b60201c565b620001a960201b60201c565b62000172816200026f60201b60201c565b60014362000181919062000b53565b406000819055504360158190555060175460018190555050505062000c11565b600033905090565b6000600d60009054906101000a900473ffffffffffffffffffffffffffffffffffffffff16905081600d60006101000a81548173ffffffffffffffffffffffffffffffffffffffff021916908373ffffffffffffffffffffffffffffffffffffffff1602179055508173ffffffffffffffffffffffffffffffffffffffff168173ffffffffffffffffffffffffffffffffffffffff167f8be0079c531659141344cd1fd0a4f28419497f9722a3daafe3b4186f6b6457e060405160405180910390a35050565b6200027f6200029460201b60201c565b80600f908162000290919062000a6c565b5050565b620002a4620001a160201b60201c565b73ffffffffffffffffffffffffffffffffffffffff16620002ca6200032560201b60201c565b73ffffffffffffffffffffffffffffffffffffffff161462000323576040517f08c379a00000000000000000000000000000000000000000000000000000000081526004016200031a9062000bef565b60405180910390fd5b565b6000600d60009054906101000a900473ffffffffffffffffffffffffffffffffffffffff16905090565b6000819050919050565b7f4e487b7100000000000000000000000000000000000000000000000000000000600052601260045260246000fd5b7f4e487b7100000000000000000000000000000000000000000000000000000000600052601160045260246000fd5b6000620003c4826200034f565b9150620003d1836200034f565b925082620003e457620003e362000359565b5b828204905092915050565b60008160011c9050919050565b6000808291508390505b60018511156200044e5780860481111562000426576200042562000388565b5b6001851615620004365780820291505b80810290506200044685620003ef565b945062000406565b94509492505050565b6000826200046957600190506200053c565b816200047957600090506200053c565b81600181146200049257600281146200049d57620004d3565b60019150506200053c565b60ff841115620004b257620004b162000388565b5b8360020a915084821115620004cc57620004cb62000388565b5b506200053c565b5060208310610133831016604e8410600b84101617156200050d5782820a90508381111562000507576200050662000388565b5b6200053c565b6200051c8484846001620003fc565b9250905081840481111562000536576200053562000388565b5b81810290505b9392505050565b600062000550826200034f565b91506200055d836200034f565b92506200058c7fffffffffffffffffffffffffffffffffffffffffffffffffffffffffffffffff848462000457565b905092915050565b6000620005a1826200034f565b9150620005ae836200034f565b9250828202620005be816200034f565b91508282048414831517620005d857620005d762000388565b5b5092915050565b6000604051905090565b600080fd5b600080fd5b600080fd5b600080fd5b6000601f19601f8301169050919050565b7f4e487b7100000000000000000000000000000000000000000000000000000000600052604160045260246000fd5b6200064882620005fd565b810181811067ffffffffffffffff821117156200066a57620006696200060e565b5b80604052505050565b60006200067f620005df565b90506200068d82826200063d565b919050565b600067ffffffffffffffff821115620006b057620006af6200060e565b5b620006bb82620005fd565b9050602081019050919050565b60005b83811015620006e8578082015181840152602081019050620006cb565b60008484015250505050565b60006200070b620007058462000692565b62000673565b9050828152602081018484840111156200072a5762000729620005f8565b5b62000737848285620006c8565b509392505050565b600082601f830112620007575762000756620005f3565b5b815162000769848260208601620006f4565b91505092915050565b6000806000606084860312156200078e576200078d620005e9565b5b600084015167ffffffffffffffff811115620007af57620007ae620005ee565b5b620007bd868287016200073f565b935050602084015167ffffffffffffffff811115620007e157620007e0620005ee565b5b620007ef868287016200073f565b925050604084015167ffffffffffffffff811115620008135762000812620005ee565b5b62000821868287016200073f565b9150509250925092565b600081519050919050565b7f4e487b7100000000000000000000000000000000000000000000000000000000600052602260045260246000fd5b600060028204905060018216806200087e57607f821691505b60208210810362000894576200089362000836565b5b50919050565b60008190508160005260206000209050919050565b60006020601f8301049050919050565b600082821b905092915050565b600060088302620008fe7fffffffffffffffffffffffffffffffffffffffffffffffffffffffffffffffff82620008bf565b6200090a8683620008bf565b95508019841693508086168417925050509392505050565b6000819050919050565b60006200094d6200094762000941846200034f565b62000922565b6200034f565b9050919050565b6000819050919050565b62000969836200092c565b62000981620009788262000954565b848454620008cc565b825550505050565b600090565b6200099862000989565b620009a58184846200095e565b505050565b5b81811015620009cd57620009c16000826200098e565b600181019050620009ab565b5050565b601f82111562000a1c57620009e6816200089a565b620009f184620008af565b8101602085101562000a01578190505b62000a1962000a1085620008af565b830182620009aa565b50505b505050565b600082821c905092915050565b600062000a416000198460080262000a21565b1980831691505092915050565b600062000a5c838362000a2e565b9150826002028217905092915050565b62000a77826200082b565b67ffffffffffffffff81111562000a935762000a926200060e565b5b62000a9f825462000865565b62000aac828285620009d1565b600060209050601f83116001811462000ae4576000841562000acf578287015190505b62000adb858262000a4e565b86555062000b4b565b601f19841662000af4866200089a565b60005b8281101562000b1e5784890151825560018201915060208501945060208101905062000af7565b8683101562000b3e578489015162000b3a601f89168262000a2e565b8355505b6001600288020188555050505b505050505050565b600062000b60826200034f565b915062000b6d836200034f565b925082820390508181111562000b885762000b8762000388565b5b92915050565b600082825260208201905092915050565b7f4f776e61626c653a2063616c6c6572206973206e6f7420746865206f776e6572600082015250565b600062000bd760208362000b8e565b915062000be48262000b9f565b602082019050919050565b6000602082019050818103600083015262000c0a8162000bc8565b9050919050565b6139138062000c216000396000f3fe608060405234801561001057600080fd5b50600436106102895760003560e01c8063715018a61161015c578063a0bcfc7f116100ce578063b88d4fde11610087578063b88d4fde146107a1578063c87b56dd146107bd578063cb9ae707146107ed578063e985e9c51461080b578063ee2e56121461083b578063f2fde38b1461085957610289565b8063a0bcfc7f146106f1578063a22cb4651461070d578063a465eeaf14610729578063ac69377814610747578063ad1dfe3b14610765578063b73042721461078357610289565b806382c890fd1161012057806382c890fd1461063a5780638ae0368b146106585780638da5cb5b1461067657806395d89b411461069457806395e272bd146106b25780639abc8320146106d357610289565b8063715018a614610594578063718a33901461059e5780637c2d542c146105ce5780637c7f3206146105fe578063829965cc1461061c57610289565b80632d38bf7a116102005780634ef37628116101b95780634ef37628146104bc5780634fa972e1146104da5780636352211e146104f85780636a586594146105285780636de9f32b1461054657806370a082311461056457610289565b80632d38bf7a1461040a578063313ce5671461042857806332e99708146104465780633426e5f51461046457806342842e0e14610482578063490203a71461049e57610289565b8063095ea7b311610252578063095ea7b31461034857806317da485f146103645780631801fbe51461038257806319cae462146103b25780631beddf1c146103d057806323b872dd146103ee57610289565b80629a9b7b1461028e57806301ffc9a7146102ac57806306fdde03146102dc578063081812fc146102fa578063095b6d4c1461032a575b600080fd5b610296610875565b6040516102a391906123ba565b60405180910390f35b6102c660048036038101906102c19190612441565b61087b565b6040516102d39190612489565b60405180910390f35b6102e461090d565b6040516102f19190612534565b60405180910390f35b610314600480360381019061030f9190612582565b61099b565b60405161032191906125f0565b60405180910390f35b6103326109ce565b60405161033f91906123ba565b60405180910390f35b610362600480360381019061035d9190612637565b6109d4565b005b61036c610bbd565b60405161037991906123ba565b60405180910390f35b61039c600480360381019061039791906126ad565b610bc7565b6040516103a99190612489565b60405180910390f35b6103ba610dbb565b6040516103c791906123ba565b60405180910390f35b6103d8610dc1565b6040516103e591906123ba565b60405180910390f35b610408600480360381019061040391906126ed565b610dc7565b005b6104126111c6565b60405161041f91906123ba565b60405180910390f35b6104306111cc565b60405161043d919061275c565b60405180910390f35b61044e6111df565b60405161045b91906123ba565b60405180910390f35b61046c6111e9565b60405161047991906123ba565b60405180910390f35b61049c600480360381019061049791906126ed565b6111ef565b005b6104a6611327565b6040516104b391906123ba565b60405180910390f35b6104c461134a565b6040516104d19190612786565b60405180910390f35b6104e2611353565b6040516104ef91906123ba565b60405180910390f35b610512600480360381019061050d9190612582565b611359565b60405161051f91906125f0565b60405180910390f35b610530611404565b60405161053d91906123ba565b60405180910390f35b61054e61140a565b60405161055b91906123ba565b60405180910390f35b61057e600480360381019061057991906127a1565b611410565b60405161058b91906123ba565b60405180910390f35b61059c6114c7565b005b6105b860048036038101906105b39190612582565b6114db565b6040516105c591906123ba565b60405180910390f35b6105e860048036038101906105e391906126ad565b6114f8565b6040516105f59190612786565b60405180910390f35b61060661150c565b60405161061391906123ba565b60405180910390f35b610624611512565b60405161063191906123ba565b60405180910390f35b610642611518565b60405161064f91906123ba565b60405180910390f35b61066061151e565b60405161066d9190612786565b60405180910390f35b61067e611524565b60405161068b91906125f0565b60405180910390f35b61069c61154e565b6040516106a99190612534565b60405180910390f35b6106ba6115dc565b6040516106ca94939291906127ce565b60405180910390f35b6106db61161a565b6040516106e89190612534565b60405180910390f35b61070b60048036038101906107069190612948565b6116a8565b005b610727600480360381019061072291906129bd565b6116c3565b005b6107316117c0565b60405161073e91906123ba565b60405180910390f35b61074f6117ca565b60405161075c91906123ba565b60405180910390f35b61076d6117d0565b60405161077a91906123ba565b60405180910390f35b61078b6117d6565b60405161079891906123ba565b60405180910390f35b6107bb60048036038101906107b69190612a5d565b6117dc565b005b6107d760048036038101906107d29190612582565b61191a565b6040516107e49190612534565b60405180910390f35b6107f561192c565b60405161080291906123ba565b60405180910390f35b61082560048036038101906108209190612ae5565b611932565b6040516108329190612489565b60405180910390f35b610843611961565b60405161085091906123ba565b60405180910390f35b610873600480360381019061086e91906127a1565b611967565b005b600e5481565b60006301ffc9a760e01b827bffffffffffffffffffffffffffffffffffffffffffffffffffffffff191614806108d657506380ac58cd60e01b827bffffffffffffffffffffffffffffffffffffffffffffffffffffffff1916145b806109065750635b5e139f60e01b827bffffffffffffffffffffffffffffffffffffffffffffffffffffffff1916145b9050919050565b6007805461091a90612b54565b80601f016020809104026020016040519081016040528092919081815260200182805461094690612b54565b80156109935780601f1061096857610100808354040283529160200191610993565b820191906000526020600020905b81548152906001019060200180831161097657829003601f168201915b505050505081565b600b6020528060005260406000206000915054906101000a900473ffffffffffffffffffffffffffffffffffffffff1681565b60185481565b60006009600083815260200190815260200160002060009054906101000a900473ffffffffffffffffffffffffffffffffffffffff1690508073ffffffffffffffffffffffffffffffffffffffff163373ffffffffffffffffffffffffffffffffffffffff161480610acc5750600c60008273ffffffffffffffffffffffffffffffffffffffff1673ffffffffffffffffffffffffffffffffffffffff16815260200190815260200160002060003373ffffffffffffffffffffffffffffffffffffffff1673ffffffffffffffffffffffffffffffffffffffff16815260200190815260200160002060009054906101000a900460ff165b610b0b576040517f08c379a0000000000000000000000000000000000000000000000000000000008152600401610b0290612bd1565b60405180910390fd5b82600b600084815260200190815260200160002060006101000a81548173ffffffffffffffffffffffffffffffffffffffff021916908373ffffffffffffffffffffffffffffffffffffffff160217905550818373ffffffffffffffffffffffffffffffffffffffff168273ffffffffffffffffffffffffffffffffffffffff167f8c5be1e5ebec7d5bd14f71427d1e84f3dd0314c0f7b2291e5b200ac8c7c3b92560405160405180910390a4505050565b6000600154905090565b600080610bd484846119ea565b90506001548160001c1115610c1e576040517f08c379a0000000000000000000000000000000000000000000000000000000008152600401610c1590612c3d565b60405180910390fd5b600060116000805481526020019081526020016000205490506000801b8114610c7c576040517f08c379a0000000000000000000000000000000000000000000000000000000008152600401610c7390612ca9565b60405180910390fd5b816011600080548152602001908152602001600020819055506000610c9f611a68565b905060006064601983610cb29190612cf8565b610cbc9190612d69565b905060008183610ccc9190612d9a565b905060008284610cdc9190612dce565b9050600060648383610cee9190612d9a565b610cf89190612d69565b905060006064610d06611a8b565b610d109190612e02565b905060008282610d209190612cf8565b85610d2b9190612dce565b9050600e60008154610d3c90612e33565b919050819055600e81905550610d5433600e54611ada565b60405180602001604052808281525060206000600e54815260200190815260200160002060008201518160000155905050610d8e81611c11565b508060026000828254610da19190612dce565b925050819055506001995050505050505050505092915050565b60015481565b601a5481565b6009600082815260200190815260200160002060009054906101000a900473ffffffffffffffffffffffffffffffffffffffff1673ffffffffffffffffffffffffffffffffffffffff168373ffffffffffffffffffffffffffffffffffffffff1614610e68576040517f08c379a0000000000000000000000000000000000000000000000000000000008152600401610e5f90612ec7565b60405180910390fd5b600073ffffffffffffffffffffffffffffffffffffffff168273ffffffffffffffffffffffffffffffffffffffff1603610ed7576040517f08c379a0000000000000000000000000000000000000000000000000000000008152600401610ece90612f33565b60405180910390fd5b8273ffffffffffffffffffffffffffffffffffffffff163373ffffffffffffffffffffffffffffffffffffffff161480610f975750600c60008473ffffffffffffffffffffffffffffffffffffffff1673ffffffffffffffffffffffffffffffffffffffff16815260200190815260200160002060003373ffffffffffffffffffffffffffffffffffffffff1673ffffffffffffffffffffffffffffffffffffffff16815260200190815260200160002060009054906101000a900460ff165b806110005750600b600082815260200190815260200160002060009054906101000a900473ffffffffffffffffffffffffffffffffffffffff1673ffffffffffffffffffffffffffffffffffffffff163373ffffffffffffffffffffffffffffffffffffffff16145b61103f576040517f08c379a000000000000000000000000000000000000000000000000000000000815260040161103690612bd1565b60405180910390fd5b600a60008473ffffffffffffffffffffffffffffffffffffffff1673ffffffffffffffffffffffffffffffffffffffff1681526020019081526020016000206000815480929190600190039190505550600a60008373ffffffffffffffffffffffffffffffffffffffff1673ffffffffffffffffffffffffffffffffffffffff16815260200190815260200160002060008154809291906001019190505550816009600083815260200190815260200160002060006101000a81548173ffffffffffffffffffffffffffffffffffffffff021916908373ffffffffffffffffffffffffffffffffffffffff160217905550600b600082815260200190815260200160002060006101000a81549073ffffffffffffffffffffffffffffffffffffffff0219169055808273ffffffffffffffffffffffffffffffffffffffff168473ffffffffffffffffffffffffffffffffffffffff167fddf252ad1be2c89b69c2b068fc378daa952ba7f163c4a11628f55a4df523b3ef60405160405180910390a4505050565b601d5481565b601b60009054906101000a900460ff1681565b6000600154905090565b60145481565b6111fa838383610dc7565b60008273ffffffffffffffffffffffffffffffffffffffff163b14806112e3575063150b7a0260e01b7bffffffffffffffffffffffffffffffffffffffffffffffffffffffff19168273ffffffffffffffffffffffffffffffffffffffff1663150b7a023386856040518463ffffffff1660e01b815260040161127f93929190612f8a565b6020604051808303816000875af115801561129e573d6000803e3d6000fd5b505050506040513d601f19601f820116820180604052508101906112c29190612fe9565b7bffffffffffffffffffffffffffffffffffffffffffffffffffffffff1916145b611322576040517f08c379a000000000000000000000000000000000000000000000000000000000815260040161131990613062565b60405180910390fd5b505050565b6000601d54600261133891906131b5565b601c546113459190612d69565b905090565b60008054905090565b601e5481565b60008073ffffffffffffffffffffffffffffffffffffffff166009600084815260200190815260200160002060009054906101000a900473ffffffffffffffffffffffffffffffffffffffff1691508173ffffffffffffffffffffffffffffffffffffffff16036113ff576040517f08c379a00000000000000000000000000000000000000000000000000000000081526004016113f69061324c565b60405180910390fd5b919050565b60165481565b60025481565b60008073ffffffffffffffffffffffffffffffffffffffff168273ffffffffffffffffffffffffffffffffffffffff1603611480576040517f08c379a0000000000000000000000000000000000000000000000000000000008152600401611477906132b8565b60405180910390fd5b600a60008373ffffffffffffffffffffffffffffffffffffffff1673ffffffffffffffffffffffffffffffffffffffff168152602001908152602001600020549050919050565b6114cf611c9a565b6114d96000611d18565b565b602080528060005260406000206000915090508060000154905081565b600061150483836119ea565b905092915050565b60175481565b60125481565b601c5481565b60005481565b6000600d60009054906101000a900473ffffffffffffffffffffffffffffffffffffffff16905090565b6008805461155b90612b54565b80601f016020809104026020016040519081016040528092919081815260200182805461158790612b54565b80156115d45780601f106115a9576101008083540402835291602001916115d4565b820191906000526020600020905b8154815290600101906020018083116115b757829003601f168201915b505050505081565b60038060000160009054906101000a900473ffffffffffffffffffffffffffffffffffffffff16908060010154908060020154908060030154905084565b600f805461162790612b54565b80601f016020809104026020016040519081016040528092919081815260200182805461165390612b54565b80156116a05780601f10611675576101008083540402835291602001916116a0565b820191906000526020600020905b81548152906001019060200180831161168357829003601f168201915b505050505081565b6116b0611c9a565b80600f90816116bf9190613484565b5050565b80600c60003373ffffffffffffffffffffffffffffffffffffffff1673ffffffffffffffffffffffffffffffffffffffff16815260200190815260200160002060008473ffffffffffffffffffffffffffffffffffffffff1673ffffffffffffffffffffffffffffffffffffffff16815260200190815260200160002060006101000a81548160ff0219169083151502179055508173ffffffffffffffffffffffffffffffffffffffff163373ffffffffffffffffffffffffffffffffffffffff167f17307eab39ab6107e8899845ad3d59bd9653f200f220920489ca2b5937696c31836040516117b49190612489565b60405180910390a35050565b6000600e54905090565b60105481565b60195481565b60135481565b6117e7858585610dc7565b60008473ffffffffffffffffffffffffffffffffffffffff163b14806118d4575063150b7a0260e01b7bffffffffffffffffffffffffffffffffffffffffffffffffffffffff19168473ffffffffffffffffffffffffffffffffffffffff1663150b7a0233888787876040518663ffffffff1660e01b8152600401611870959493929190613583565b6020604051808303816000875af115801561188f573d6000803e3d6000fd5b505050506040513d601f19601f820116820180604052508101906118b39190612fe9565b7bffffffffffffffffffffffffffffffffffffffffffffffffffffffff1916145b611913576040517f08c379a000000000000000000000000000000000000000000000000000000000815260040161190a90613062565b60405180910390fd5b5050505050565b606061192582611dde565b9050919050565b60155481565b600c6020528160005260406000206020528060005260406000206000915091509054906101000a900460ff1681565b601f5481565b61196f611c9a565b600073ffffffffffffffffffffffffffffffffffffffff168173ffffffffffffffffffffffffffffffffffffffff16036119de576040517f08c379a00000000000000000000000000000000000000000000000000000000081526004016119d590613643565b60405180910390fd5b6119e781611d18565b50565b6000806000543385604051602001611a04939291906136ed565b604051602081830303815290604052805190602001209050828114611a5e576040517f08c379a0000000000000000000000000000000000000000000000000000000008152600401611a5590613776565b60405180910390fd5b8091505092915050565b6000601d546002611a7991906131b5565b601c54611a869190612d69565b905090565b600080333a434244600143611aa09190612d9a565b4030604051602001611ab89796959493929190613796565b6040516020818303038152906040528051906020012060001c90508091505090565b611ae48282611eac565b60008273ffffffffffffffffffffffffffffffffffffffff163b1480611bce575063150b7a0260e01b7bffffffffffffffffffffffffffffffffffffffffffffffffffffffff19168273ffffffffffffffffffffffffffffffffffffffff1663150b7a02336000856040518463ffffffff1660e01b8152600401611b6a93929190612f8a565b6020604051808303816000875af1158015611b89573d6000803e3d6000fd5b505050506040513d601f19601f82011682018060405250810190611bad9190612fe9565b7bffffffffffffffffffffffffffffffffffffffffffffffffffffffff1916145b611c0d576040517f08c379a0000000000000000000000000000000000000000000000000000000008152600401611c0490613062565b60405180910390fd5b5050565b6000601e5482600254611c249190612dce565b1115611c40576001601d54611c399190612dce565b601d819055505b601260008154611c4f90612e33565b9190508190556012819055506000601354601254611c6d9190612e02565b03611c7c57611c7a6120be565b505b600143611c899190612d9a565b406000819055506012549050919050565b611ca261222a565b73ffffffffffffffffffffffffffffffffffffffff16611cc0611524565b73ffffffffffffffffffffffffffffffffffffffff1614611d16576040517f08c379a0000000000000000000000000000000000000000000000000000000008152600401611d0d90613851565b60405180910390fd5b565b6000600d60009054906101000a900473ffffffffffffffffffffffffffffffffffffffff16905081600d60006101000a81548173ffffffffffffffffffffffffffffffffffffffff021916908373ffffffffffffffffffffffffffffffffffffffff1602179055508173ffffffffffffffffffffffffffffffffffffffff168173ffffffffffffffffffffffffffffffffffffffff167f8be0079c531659141344cd1fd0a4f28419497f9722a3daafe3b4186f6b6457e060405160405180910390a35050565b606060006001611ded84612232565b01905060008167ffffffffffffffff811115611e0c57611e0b61281d565b5b6040519080825280601f01601f191660200182016040528015611e3e5781602001600182028036833780820191505090505b509050600082602001820190505b600115611ea1578080600190039150507f3031323334353637383961626364656600000000000000000000000000000000600a86061a8153600a8581611e9557611e94612d3a565b5b04945060008503611e4c575b819350505050919050565b600073ffffffffffffffffffffffffffffffffffffffff168273ffffffffffffffffffffffffffffffffffffffff1603611f1b576040517f08c379a0000000000000000000000000000000000000000000000000000000008152600401611f1290612f33565b60405180910390fd5b600073ffffffffffffffffffffffffffffffffffffffff166009600083815260200190815260200160002060009054906101000a900473ffffffffffffffffffffffffffffffffffffffff1673ffffffffffffffffffffffffffffffffffffffff1614611fbd576040517f08c379a0000000000000000000000000000000000000000000000000000000008152600401611fb4906138bd565b60405180910390fd5b600a60008373ffffffffffffffffffffffffffffffffffffffff1673ffffffffffffffffffffffffffffffffffffffff16815260200190815260200160002060008154809291906001019190505550816009600083815260200190815260200160002060006101000a81548173ffffffffffffffffffffffffffffffffffffffff021916908373ffffffffffffffffffffffffffffffffffffffff160217905550808273ffffffffffffffffffffffffffffffffffffffff16600073ffffffffffffffffffffffffffffffffffffffff167fddf252ad1be2c89b69c2b068fc378daa952ba7f163c4a11628f55a4df523b3ef60405160405180910390a45050565b6000806013546012546120d19190612e02565b146120e0576001549050612227565b6000601554436120f09190612d9a565b9050600060135490506000601454826121099190612cf8565b90508083101561218157600083601a54836121249190612cf8565b61212e9190612d69565b9050600061214a6064836121429190612d9a565b601954612385565b90506018548160015461215d9190612cf8565b6121679190612d69565b6001546121749190612d9a565b60018190555050506121eb565b600081601a54856121929190612cf8565b61219c9190612d69565b905060006121b86064836121b09190612d9a565b601954612385565b9050601854816001546121cb9190612cf8565b6121d59190612d69565b6001546121e29190612dce565b60018190555050505b436015819055506016546001541015612208576016546001819055505b601754600154111561221e576017546001819055505b60015493505050505b90565b600033905090565b600080600090507a184f03e93ff9f4daa797ed6e38ed64bf6a1f0100000000000000008310612290577a184f03e93ff9f4daa797ed6e38ed64bf6a1f010000000000000000838161228657612285612d3a565b5b0492506040810190505b6d04ee2d6d415b85acef810000000083106122cd576d04ee2d6d415b85acef810000000083816122c3576122c2612d3a565b5b0492506020810190505b662386f26fc1000083106122fc57662386f26fc1000083816122f2576122f1612d3a565b5b0492506010810190505b6305f5e1008310612325576305f5e100838161231b5761231a612d3a565b5b0492506008810190505b612710831061234a5761271083816123405761233f612d3a565b5b0492506004810190505b6064831061236d576064838161236357612362612d3a565b5b0492506002810190505b600a831061237c576001810190505b80915050919050565b6000818311156123975781905061239b565b8290505b92915050565b6000819050919050565b6123b4816123a1565b82525050565b60006020820190506123cf60008301846123ab565b92915050565b6000604051905090565b600080fd5b600080fd5b60007fffffffff0000000000000000000000000000000000000000000000000000000082169050919050565b61241e816123e9565b811461242957600080fd5b50565b60008135905061243b81612415565b92915050565b600060208284031215612457576124566123df565b5b60006124658482850161242c565b91505092915050565b60008115159050919050565b6124838161246e565b82525050565b600060208201905061249e600083018461247a565b92915050565b600081519050919050565b600082825260208201905092915050565b60005b838110156124de5780820151818401526020810190506124c3565b60008484015250505050565b6000601f19601f8301169050919050565b6000612506826124a4565b61251081856124af565b93506125208185602086016124c0565b612529816124ea565b840191505092915050565b6000602082019050818103600083015261254e81846124fb565b905092915050565b61255f816123a1565b811461256a57600080fd5b50565b60008135905061257c81612556565b92915050565b600060208284031215612598576125976123df565b5b60006125a68482850161256d565b91505092915050565b600073ffffffffffffffffffffffffffffffffffffffff82169050919050565b60006125da826125af565b9050919050565b6125ea816125cf565b82525050565b600060208201905061260560008301846125e1565b92915050565b612614816125cf565b811461261f57600080fd5b50565b6000813590506126318161260b565b92915050565b6000806040838503121561264e5761264d6123df565b5b600061265c85828601612622565b925050602061266d8582860161256d565b9150509250929050565b6000819050919050565b61268a81612677565b811461269557600080fd5b50565b6000813590506126a781612681565b92915050565b600080604083850312156126c4576126c36123df565b5b60006126d28582860161256d565b92505060206126e385828601612698565b9150509250929050565b600080600060608486031215612706576127056123df565b5b600061271486828701612622565b935050602061272586828701612622565b92505060406127368682870161256d565b9150509250925092565b600060ff82169050919050565b61275681612740565b82525050565b6000602082019050612771600083018461274d565b92915050565b61278081612677565b82525050565b600060208201905061279b6000830184612777565b92915050565b6000602082840312156127b7576127b66123df565b5b60006127c584828501612622565b91505092915050565b60006080820190506127e360008301876125e1565b6127f060208301866123ab565b6127fd60408301856123ab565b61280a60608301846123ab565b95945050505050565b600080fd5b600080fd5b7f4e487b7100000000000000000000000000000000000000000000000000000000600052604160045260246000fd5b612855826124ea565b810181811067ffffffffffffffff821117156128745761287361281d565b5b80604052505050565b60006128876123d5565b9050612893828261284c565b919050565b600067ffffffffffffffff8211156128b3576128b261281d565b5b6128bc826124ea565b9050602081019050919050565b82818337600083830152505050565b60006128eb6128e684612898565b61287d565b90508281526020810184848401111561290757612906612818565b5b6129128482856128c9565b509392505050565b600082601f83011261292f5761292e612813565b5b813561293f8482602086016128d8565b91505092915050565b60006020828403121561295e5761295d6123df565b5b600082013567ffffffffffffffff81111561297c5761297b6123e4565b5b6129888482850161291a565b91505092915050565b61299a8161246e565b81146129a557600080fd5b50565b6000813590506129b781612991565b92915050565b600080604083850312156129d4576129d36123df565b5b60006129e285828601612622565b92505060206129f3858286016129a8565b9150509250929050565b600080fd5b600080fd5b60008083601f840112612a1d57612a1c612813565b5b8235905067ffffffffffffffff811115612a3a57612a396129fd565b5b602083019150836001820283011115612a5657612a55612a02565b5b9250929050565b600080600080600060808688031215612a7957612a786123df565b5b6000612a8788828901612622565b9550506020612a9888828901612622565b9450506040612aa98882890161256d565b935050606086013567ffffffffffffffff811115612aca57612ac96123e4565b5b612ad688828901612a07565b92509250509295509295909350565b60008060408385031215612afc57612afb6123df565b5b6000612b0a85828601612622565b9250506020612b1b85828601612622565b9150509250929050565b7f4e487b7100000000000000000000000000000000000000000000000000000000600052602260045260246000fd5b60006002820490506001821680612b6c57607f821691505b602082108103612b7f57612b7e612b25565b5b50919050565b7f4e4f545f415554484f52495a4544000000000000000000000000000000000000600082015250565b6000612bbb600e836124af565b9150612bc682612b85565b602082019050919050565b60006020820190508181036000830152612bea81612bae565b9050919050565b7f4e6f6e636520696e636f72726563740000000000000000000000000000000000600082015250565b6000612c27600f836124af565b9150612c3282612bf1565b602082019050919050565b60006020820190508181036000830152612c5681612c1a565b9050919050565b7f536f6c7574696f6e206578697374000000000000000000000000000000000000600082015250565b6000612c93600e836124af565b9150612c9e82612c5d565b602082019050919050565b60006020820190508181036000830152612cc281612c86565b9050919050565b7f4e487b7100000000000000000000000000000000000000000000000000000000600052601160045260246000fd5b6000612d03826123a1565b9150612d0e836123a1565b9250828202612d1c816123a1565b91508282048414831517612d3357612d32612cc9565b5b5092915050565b7f4e487b7100000000000000000000000000000000000000000000000000000000600052601260045260246000fd5b6000612d74826123a1565b9150612d7f836123a1565b925082612d8f57612d8e612d3a565b5b828204905092915050565b6000612da5826123a1565b9150612db0836123a1565b9250828203905081811115612dc857612dc7612cc9565b5b92915050565b6000612dd9826123a1565b9150612de4836123a1565b9250828201905080821115612dfc57612dfb612cc9565b5b92915050565b6000612e0d826123a1565b9150612e18836123a1565b925082612e2857612e27612d3a565b5b828206905092915050565b6000612e3e826123a1565b91507fffffffffffffffffffffffffffffffffffffffffffffffffffffffffffffffff8203612e7057612e6f612cc9565b5b600182019050919050565b7f57524f4e475f46524f4d00000000000000000000000000000000000000000000600082015250565b6000612eb1600a836124af565b9150612ebc82612e7b565b602082019050919050565b60006020820190508181036000830152612ee081612ea4565b9050919050565b7f494e56414c49445f524543495049454e54000000000000000000000000000000600082015250565b6000612f1d6011836124af565b9150612f2882612ee7565b602082019050919050565b60006020820190508181036000830152612f4c81612f10565b9050919050565b600082825260208201905092915050565b50565b6000612f74600083612f53565b9150612f7f82612f64565b600082019050919050565b6000608082019050612f9f60008301866125e1565b612fac60208301856125e1565b612fb960408301846123ab565b8181036060830152612fca81612f67565b9050949350505050565b600081519050612fe381612415565b92915050565b600060208284031215612fff57612ffe6123df565b5b600061300d84828501612fd4565b91505092915050565b7f554e534146455f524543495049454e5400000000000000000000000000000000600082015250565b600061304c6010836124af565b915061305782613016565b602082019050919050565b6000602082019050818103600083015261307b8161303f565b9050919050565b60008160011c9050919050565b6000808291508390505b60018511156130d9578086048111156130b5576130b4612cc9565b5b60018516156130c45780820291505b80810290506130d285613082565b9450613099565b94509492505050565b6000826130f257600190506131ae565b8161310057600090506131ae565b816001811461311657600281146131205761314f565b60019150506131ae565b60ff84111561313257613131612cc9565b5b8360020a91508482111561314957613148612cc9565b5b506131ae565b5060208310610133831016604e8410600b84101617156131845782820a90508381111561317f5761317e612cc9565b5b6131ae565b613191848484600161308f565b925090508184048111156131a8576131a7612cc9565b5b81810290505b9392505050565b60006131c0826123a1565b91506131cb836123a1565b92506131f87fffffffffffffffffffffffffffffffffffffffffffffffffffffffffffffffff84846130e2565b905092915050565b7f4e4f545f4d494e54454400000000000000000000000000000000000000000000600082015250565b6000613236600a836124af565b915061324182613200565b602082019050919050565b6000602082019050818103600083015261326581613229565b9050919050565b7f5a45524f5f414444524553530000000000000000000000000000000000000000600082015250565b60006132a2600c836124af565b91506132ad8261326c565b602082019050919050565b600060208201905081810360008301526132d181613295565b9050919050565b60008190508160005260206000209050919050565b60006020601f8301049050919050565b600082821b905092915050565b60006008830261333a7fffffffffffffffffffffffffffffffffffffffffffffffffffffffffffffffff826132fd565b61334486836132fd565b95508019841693508086168417925050509392505050565b6000819050919050565b600061338161337c613377846123a1565b61335c565b6123a1565b9050919050565b6000819050919050565b61339b83613366565b6133af6133a782613388565b84845461330a565b825550505050565b600090565b6133c46133b7565b6133cf818484613392565b505050565b5b818110156133f3576133e86000826133bc565b6001810190506133d5565b5050565b601f82111561343857613409816132d8565b613412846132ed565b81016020851015613421578190505b61343561342d856132ed565b8301826133d4565b50505b505050565b600082821c905092915050565b600061345b6000198460080261343d565b1980831691505092915050565b6000613474838361344a565b9150826002028217905092915050565b61348d826124a4565b67ffffffffffffffff8111156134a6576134a561281d565b5b6134b08254612b54565b6134bb8282856133f7565b600060209050601f8311600181146134ee57600084156134dc578287015190505b6134e68582613468565b86555061354e565b601f1984166134fc866132d8565b60005b82811015613524578489015182556001820191506020850194506020810190506134ff565b86831015613541578489015161353d601f89168261344a565b8355505b6001600288020188555050505b505050505050565b60006135628385612f53565b935061356f8385846128c9565b613578836124ea565b840190509392505050565b600060808201905061359860008301886125e1565b6135a560208301876125e1565b6135b260408301866123ab565b81810360608301526135c5818486613556565b90509695505050505050565b7f4f776e61626c653a206e6577206f776e657220697320746865207a65726f206160008201527f6464726573730000000000000000000000000000000000000000000000000000602082015250565b600061362d6026836124af565b9150613638826135d1565b604082019050919050565b6000602082019050818103600083015261365c81613620565b9050919050565b6000819050919050565b61367e61367982612677565b613663565b82525050565b60008160601b9050919050565b600061369c82613684565b9050919050565b60006136ae82613691565b9050919050565b6136c66136c1826125cf565b6136a3565b82525050565b6000819050919050565b6136e76136e2826123a1565b6136cc565b82525050565b60006136f9828661366d565b60208201915061370982856136b5565b60148201915061371982846136d6565b602082019150819050949350505050565b7f44696765737420697320646966666572656e7400000000000000000000000000600082015250565b60006137606013836124af565b915061376b8261372a565b602082019050919050565b6000602082019050818103600083015261378f81613753565b9050919050565b600060e0820190506137ab600083018a6125e1565b6137b860208301896123ab565b6137c560408301886123ab565b6137d260608301876123ab565b6137df60808301866123ab565b6137ec60a0830185612777565b6137f960c08301846125e1565b98975050505050505050565b7f4f776e61626c653a2063616c6c6572206973206e6f7420746865206f776e6572600082015250565b600061383b6020836124af565b915061384682613805565b602082019050919050565b6000602082019050818103600083015261386a8161382e565b9050919050565b7f414c52454144595f4d494e544544000000000000000000000000000000000000600082015250565b60006138a7600e836124af565b91506138b282613871565b602082019050919050565b600060208201905081810360008301526138d68161389a565b905091905056fea2646970667358221220f55a6c0a6326d421b5e3b1e1371b2b6a5f94e103e7d163f47bfd134bb365377864736f6c63430008120033","opcodes":"PUSH1 0x80 PUSH1 0x40 MSTORE PUSH2 0x400 PUSH1 0x13 SSTORE PUSH1 0x3C PUSH1 0x14 SSTORE PUSH3 0x10000 PUSH1 0x16 SSTORE PUSH31 0x20000000000000000000000000000000000000000000000000000000000000 PUSH1 0x17 SSTORE PUSH2 0x7D0 PUSH1 0x18 SSTORE PUSH1 0x2 PUSH1 0x18 SLOAD PUSH3 0x50 SWAP2 SWAP1 PUSH3 0x3B7 JUMP JUMPDEST PUSH1 0x19 SSTORE PUSH1 0x64 PUSH1 0x1A SSTORE PUSH1 0x12 PUSH1 0x1B PUSH1 0x0 PUSH2 0x100 EXP DUP2 SLOAD DUP2 PUSH1 0xFF MUL NOT AND SWAP1 DUP4 PUSH1 0xFF AND MUL OR SWAP1 SSTORE POP PUSH1 0x1B PUSH1 0x0 SWAP1 SLOAD SWAP1 PUSH2 0x100 EXP SWAP1 DIV PUSH1 0xFF AND PUSH1 0xFF AND PUSH1 0xA PUSH3 0x95 SWAP2 SWAP1 PUSH3 0x543 JUMP JUMPDEST PUSH2 0x3E8 PUSH3 0xA4 SWAP2 SWAP1 PUSH3 0x594 JUMP JUMPDEST PUSH1 0x1C SSTORE PUSH1 0x0 PUSH1 0x1D SSTORE PUSH1 0x1B PUSH1 0x0 SWAP1 SLOAD SWAP1 PUSH2 0x100 EXP SWAP1 DIV PUSH1 0xFF AND PUSH1 0xFF AND PUSH1 0xA PUSH3 0xCD SWAP2 SWAP1 PUSH3 0x543 JUMP JUMPDEST PUSH4 0x3B9ACA00 PUSH3 0xDE SWAP2 SWAP1 PUSH3 0x594 JUMP JUMPDEST PUSH1 0x1E SSTORE PUSH1 0x0 PUSH1 0x1F SSTORE CALLVALUE DUP1 ISZERO PUSH3 0xF3 JUMPI PUSH1 0x0 DUP1 REVERT JUMPDEST POP PUSH1 0x40 MLOAD PUSH3 0x4534 CODESIZE SUB DUP1 PUSH3 0x4534 DUP4 CODECOPY DUP2 DUP2 ADD PUSH1 0x40 MSTORE DUP2 ADD SWAP1 PUSH3 0x119 SWAP2 SWAP1 PUSH3 0x772 JUMP JUMPDEST DUP3 DUP3 DUP2 PUSH1 0x7 SWAP1 DUP2 PUSH3 0x12C SWAP2 SWAP1 PUSH3 0xA6C JUMP JUMPDEST POP DUP1 PUSH1 0x8 SWAP1 DUP2 PUSH3 0x13E SWAP2 SWAP1 PUSH3 0xA6C JUMP JUMPDEST POP POP POP PUSH3 0x161 PUSH3 0x155 PUSH3 0x1A1 PUSH1 0x20 SHL PUSH1 0x20 SHR JUMP JUMPDEST PUSH3 0x1A9 PUSH1 0x20 SHL PUSH1 0x20 SHR JUMP JUMPDEST PUSH3 0x172 DUP2 PUSH3 0x26F PUSH1 0x20 SHL PUSH1 0x20 SHR JUMP JUMPDEST PUSH1 0x1 NUMBER PUSH3 0x181 SWAP2 SWAP1 PUSH3 0xB53 JUMP JUMPDEST BLOCKHASH PUSH1 0x0 DUP2 SWAP1 SSTORE POP NUMBER PUSH1 0x15 DUP2 SWAP1 SSTORE POP PUSH1 0x17 SLOAD PUSH1 0x1 DUP2 SWAP1 SSTORE POP POP POP POP PUSH3 0xC11 JUMP JUMPDEST PUSH1 0x0 CALLER SWAP1 POP SWAP1 JUMP JUMPDEST PUSH1 0x0 PUSH1 0xD PUSH1 0x0 SWAP1 SLOAD SWAP1 PUSH2 0x100 EXP SWAP1 DIV PUSH20 0xFFFFFFFFFFFFFFFFFFFFFFFFFFFFFFFFFFFFFFFF AND SWAP1 POP DUP2 PUSH1 0xD PUSH1 0x0 PUSH2 0x100 EXP DUP2 SLOAD DUP2 PUSH20 0xFFFFFFFFFFFFFFFFFFFFFFFFFFFFFFFFFFFFFFFF MUL NOT AND SWAP1 DUP4 PUSH20 0xFFFFFFFFFFFFFFFFFFFFFFFFFFFFFFFFFFFFFFFF AND MUL OR SWAP1 SSTORE POP DUP2 PUSH20 0xFFFFFFFFFFFFFFFFFFFFFFFFFFFFFFFFFFFFFFFF AND DUP2 PUSH20 0xFFFFFFFFFFFFFFFFFFFFFFFFFFFFFFFFFFFFFFFF AND PUSH32 0x8BE0079C531659141344CD1FD0A4F28419497F9722A3DAAFE3B4186F6B6457E0 PUSH1 0x40 MLOAD PUSH1 0x40 MLOAD DUP1 SWAP2 SUB SWAP1 LOG3 POP POP JUMP JUMPDEST PUSH3 0x27F PUSH3 0x294 PUSH1 0x20 SHL PUSH1 0x20 SHR JUMP JUMPDEST DUP1 PUSH1 0xF SWAP1 DUP2 PUSH3 0x290 SWAP2 SWAP1 PUSH3 0xA6C JUMP JUMPDEST POP POP JUMP JUMPDEST PUSH3 0x2A4 PUSH3 0x1A1 PUSH1 0x20 SHL PUSH1 0x20 SHR JUMP JUMPDEST PUSH20 0xFFFFFFFFFFFFFFFFFFFFFFFFFFFFFFFFFFFFFFFF AND PUSH3 0x2CA PUSH3 0x325 PUSH1 0x20 SHL PUSH1 0x20 SHR JUMP JUMPDEST PUSH20 0xFFFFFFFFFFFFFFFFFFFFFFFFFFFFFFFFFFFFFFFF AND EQ PUSH3 0x323 JUMPI PUSH1 0x40 MLOAD PUSH32 0x8C379A000000000000000000000000000000000000000000000000000000000 DUP2 MSTORE PUSH1 0x4 ADD PUSH3 0x31A SWAP1 PUSH3 0xBEF JUMP JUMPDEST PUSH1 0x40 MLOAD DUP1 SWAP2 SUB SWAP1 REVERT JUMPDEST JUMP JUMPDEST PUSH1 0x0 PUSH1 0xD PUSH1 0x0 SWAP1 SLOAD SWAP1 PUSH2 0x100 EXP SWAP1 DIV PUSH20 0xFFFFFFFFFFFFFFFFFFFFFFFFFFFFFFFFFFFFFFFF AND SWAP1 POP SWAP1 JUMP JUMPDEST PUSH1 0x0 DUP2 SWAP1 POP SWAP2 SWAP1 POP JUMP JUMPDEST PUSH32 0x4E487B7100000000000000000000000000000000000000000000000000000000 PUSH1 0x0 MSTORE PUSH1 0x12 PUSH1 0x4 MSTORE PUSH1 0x24 PUSH1 0x0 REVERT JUMPDEST PUSH32 0x4E487B7100000000000000000000000000000000000000000000000000000000 PUSH1 0x0 MSTORE PUSH1 0x11 PUSH1 0x4 MSTORE PUSH1 0x24 PUSH1 0x0 REVERT JUMPDEST PUSH1 0x0 PUSH3 0x3C4 DUP3 PUSH3 0x34F JUMP JUMPDEST SWAP2 POP PUSH3 0x3D1 DUP4 PUSH3 0x34F JUMP JUMPDEST SWAP3 POP DUP3 PUSH3 0x3E4 JUMPI PUSH3 0x3E3 PUSH3 0x359 JUMP JUMPDEST JUMPDEST DUP3 DUP3 DIV SWAP1 POP SWAP3 SWAP2 POP POP JUMP JUMPDEST PUSH1 0x0 DUP2 PUSH1 0x1 SHR SWAP1 POP SWAP2 SWAP1 POP JUMP JUMPDEST PUSH1 0x0 DUP1 DUP3 SWAP2 POP DUP4 SWAP1 POP JUMPDEST PUSH1 0x1 DUP6 GT ISZERO PUSH3 0x44E JUMPI DUP1 DUP7 DIV DUP2 GT ISZERO PUSH3 0x426 JUMPI PUSH3 0x425 PUSH3 0x388 JUMP JUMPDEST JUMPDEST PUSH1 0x1 DUP6 AND ISZERO PUSH3 0x436 JUMPI DUP1 DUP3 MUL SWAP2 POP JUMPDEST DUP1 DUP2 MUL SWAP1 POP PUSH3 0x446 DUP6 PUSH3 0x3EF JUMP JUMPDEST SWAP5 POP PUSH3 0x406 JUMP JUMPDEST SWAP5 POP SWAP5 SWAP3 POP POP POP JUMP JUMPDEST PUSH1 0x0 DUP3 PUSH3 0x469 JUMPI PUSH1 0x1 SWAP1 POP PUSH3 0x53C JUMP JUMPDEST DUP2 PUSH3 0x479 JUMPI PUSH1 0x0 SWAP1 POP PUSH3 0x53C JUMP JUMPDEST DUP2 PUSH1 0x1 DUP2 EQ PUSH3 0x492 JUMPI PUSH1 0x2 DUP2 EQ PUSH3 0x49D JUMPI PUSH3 0x4D3 JUMP JUMPDEST PUSH1 0x1 SWAP2 POP POP PUSH3 0x53C JUMP JUMPDEST PUSH1 0xFF DUP5 GT ISZERO PUSH3 0x4B2 JUMPI PUSH3 0x4B1 PUSH3 0x388 JUMP JUMPDEST JUMPDEST DUP4 PUSH1 0x2 EXP SWAP2 POP DUP5 DUP3 GT ISZERO PUSH3 0x4CC JUMPI PUSH3 0x4CB PUSH3 0x388 JUMP JUMPDEST JUMPDEST POP PUSH3 0x53C JUMP JUMPDEST POP PUSH1 0x20 DUP4 LT PUSH2 0x133 DUP4 LT AND PUSH1 0x4E DUP5 LT PUSH1 0xB DUP5 LT AND OR ISZERO PUSH3 0x50D JUMPI DUP3 DUP3 EXP SWAP1 POP DUP4 DUP2 GT ISZERO PUSH3 0x507 JUMPI PUSH3 0x506 PUSH3 0x388 JUMP JUMPDEST JUMPDEST PUSH3 0x53C JUMP JUMPDEST PUSH3 0x51C DUP5 DUP5 DUP5 PUSH1 0x1 PUSH3 0x3FC JUMP JUMPDEST SWAP3 POP SWAP1 POP DUP2 DUP5 DIV DUP2 GT ISZERO PUSH3 0x536 JUMPI PUSH3 0x535 PUSH3 0x388 JUMP JUMPDEST JUMPDEST DUP2 DUP2 MUL SWAP1 POP JUMPDEST SWAP4 SWAP3 POP POP POP JUMP JUMPDEST PUSH1 0x0 PUSH3 0x550 DUP3 PUSH3 0x34F JUMP JUMPDEST SWAP2 POP PUSH3 0x55D DUP4 PUSH3 0x34F JUMP JUMPDEST SWAP3 POP PUSH3 0x58C PUSH32 0xFFFFFFFFFFFFFFFFFFFFFFFFFFFFFFFFFFFFFFFFFFFFFFFFFFFFFFFFFFFFFFFF DUP5 DUP5 PUSH3 0x457 JUMP JUMPDEST SWAP1 POP SWAP3 SWAP2 POP POP JUMP JUMPDEST PUSH1 0x0 PUSH3 0x5A1 DUP3 PUSH3 0x34F JUMP JUMPDEST SWAP2 POP PUSH3 0x5AE DUP4 PUSH3 0x34F JUMP JUMPDEST SWAP3 POP DUP3 DUP3 MUL PUSH3 0x5BE DUP2 PUSH3 0x34F JUMP JUMPDEST SWAP2 POP DUP3 DUP3 DIV DUP5 EQ DUP4 ISZERO OR PUSH3 0x5D8 JUMPI PUSH3 0x5D7 PUSH3 0x388 JUMP JUMPDEST JUMPDEST POP SWAP3 SWAP2 POP POP JUMP JUMPDEST PUSH1 0x0 PUSH1 0x40 MLOAD SWAP1 POP SWAP1 JUMP JUMPDEST PUSH1 0x0 DUP1 REVERT JUMPDEST PUSH1 0x0 DUP1 REVERT JUMPDEST PUSH1 0x0 DUP1 REVERT JUMPDEST PUSH1 0x0 DUP1 REVERT JUMPDEST PUSH1 0x0 PUSH1 0x1F NOT PUSH1 0x1F DUP4 ADD AND SWAP1 POP SWAP2 SWAP1 POP JUMP JUMPDEST PUSH32 0x4E487B7100000000000000000000000000000000000000000000000000000000 PUSH1 0x0 MSTORE PUSH1 0x41 PUSH1 0x4 MSTORE PUSH1 0x24 PUSH1 0x0 REVERT JUMPDEST PUSH3 0x648 DUP3 PUSH3 0x5FD JUMP JUMPDEST DUP2 ADD DUP2 DUP2 LT PUSH8 0xFFFFFFFFFFFFFFFF DUP3 GT OR ISZERO PUSH3 0x66A JUMPI PUSH3 0x669 PUSH3 0x60E JUMP JUMPDEST JUMPDEST DUP1 PUSH1 0x40 MSTORE POP POP POP JUMP JUMPDEST PUSH1 0x0 PUSH3 0x67F PUSH3 0x5DF JUMP JUMPDEST SWAP1 POP PUSH3 0x68D DUP3 DUP3 PUSH3 0x63D JUMP JUMPDEST SWAP2 SWAP1 POP JUMP JUMPDEST PUSH1 0x0 PUSH8 0xFFFFFFFFFFFFFFFF DUP3 GT ISZERO PUSH3 0x6B0 JUMPI PUSH3 0x6AF PUSH3 0x60E JUMP JUMPDEST JUMPDEST PUSH3 0x6BB DUP3 PUSH3 0x5FD JUMP JUMPDEST SWAP1 POP PUSH1 0x20 DUP2 ADD SWAP1 POP SWAP2 SWAP1 POP JUMP JUMPDEST PUSH1 0x0 JUMPDEST DUP4 DUP2 LT ISZERO PUSH3 0x6E8 JUMPI DUP1 DUP3 ADD MLOAD DUP2 DUP5 ADD MSTORE PUSH1 0x20 DUP2 ADD SWAP1 POP PUSH3 0x6CB JUMP JUMPDEST PUSH1 0x0 DUP5 DUP5 ADD MSTORE POP POP POP POP JUMP JUMPDEST PUSH1 0x0 PUSH3 0x70B PUSH3 0x705 DUP5 PUSH3 0x692 JUMP JUMPDEST PUSH3 0x673 JUMP JUMPDEST SWAP1 POP DUP3 DUP2 MSTORE PUSH1 0x20 DUP2 ADD DUP5 DUP5 DUP5 ADD GT ISZERO PUSH3 0x72A JUMPI PUSH3 0x729 PUSH3 0x5F8 JUMP JUMPDEST JUMPDEST PUSH3 0x737 DUP5 DUP3 DUP6 PUSH3 0x6C8 JUMP JUMPDEST POP SWAP4 SWAP3 POP POP POP JUMP JUMPDEST PUSH1 0x0 DUP3 PUSH1 0x1F DUP4 ADD SLT PUSH3 0x757 JUMPI PUSH3 0x756 PUSH3 0x5F3 JUMP JUMPDEST JUMPDEST DUP2 MLOAD PUSH3 0x769 DUP5 DUP3 PUSH1 0x20 DUP7 ADD PUSH3 0x6F4 JUMP JUMPDEST SWAP2 POP POP SWAP3 SWAP2 POP POP JUMP JUMPDEST PUSH1 0x0 DUP1 PUSH1 0x0 PUSH1 0x60 DUP5 DUP7 SUB SLT ISZERO PUSH3 0x78E JUMPI PUSH3 0x78D PUSH3 0x5E9 JUMP JUMPDEST JUMPDEST PUSH1 0x0 DUP5 ADD MLOAD PUSH8 0xFFFFFFFFFFFFFFFF DUP2 GT ISZERO PUSH3 0x7AF JUMPI PUSH3 0x7AE PUSH3 0x5EE JUMP JUMPDEST JUMPDEST PUSH3 0x7BD DUP7 DUP3 DUP8 ADD PUSH3 0x73F JUMP JUMPDEST SWAP4 POP POP PUSH1 0x20 DUP5 ADD MLOAD PUSH8 0xFFFFFFFFFFFFFFFF DUP2 GT ISZERO PUSH3 0x7E1 JUMPI PUSH3 0x7E0 PUSH3 0x5EE JUMP JUMPDEST JUMPDEST PUSH3 0x7EF DUP7 DUP3 DUP8 ADD PUSH3 0x73F JUMP JUMPDEST SWAP3 POP POP PUSH1 0x40 DUP5 ADD MLOAD PUSH8 0xFFFFFFFFFFFFFFFF DUP2 GT ISZERO PUSH3 0x813 JUMPI PUSH3 0x812 PUSH3 0x5EE JUMP JUMPDEST JUMPDEST PUSH3 0x821 DUP7 DUP3 DUP8 ADD PUSH3 0x73F JUMP JUMPDEST SWAP2 POP POP SWAP3 POP SWAP3 POP SWAP3 JUMP JUMPDEST PUSH1 0x0 DUP2 MLOAD SWAP1 POP SWAP2 SWAP1 POP JUMP JUMPDEST PUSH32 0x4E487B7100000000000000000000000000000000000000000000000000000000 PUSH1 0x0 MSTORE PUSH1 0x22 PUSH1 0x4 MSTORE PUSH1 0x24 PUSH1 0x0 REVERT JUMPDEST PUSH1 0x0 PUSH1 0x2 DUP3 DIV SWAP1 POP PUSH1 0x1 DUP3 AND DUP1 PUSH3 0x87E JUMPI PUSH1 0x7F DUP3 AND SWAP2 POP JUMPDEST PUSH1 0x20 DUP3 LT DUP2 SUB PUSH3 0x894 JUMPI PUSH3 0x893 PUSH3 0x836 JUMP JUMPDEST JUMPDEST POP SWAP2 SWAP1 POP JUMP JUMPDEST PUSH1 0x0 DUP2 SWAP1 POP DUP2 PUSH1 0x0 MSTORE PUSH1 0x20 PUSH1 0x0 KECCAK256 SWAP1 POP SWAP2 SWAP1 POP JUMP JUMPDEST PUSH1 0x0 PUSH1 0x20 PUSH1 0x1F DUP4 ADD DIV SWAP1 POP SWAP2 SWAP1 POP JUMP JUMPDEST PUSH1 0x0 DUP3 DUP3 SHL SWAP1 POP SWAP3 SWAP2 POP POP JUMP JUMPDEST PUSH1 0x0 PUSH1 0x8 DUP4 MUL PUSH3 0x8FE PUSH32 0xFFFFFFFFFFFFFFFFFFFFFFFFFFFFFFFFFFFFFFFFFFFFFFFFFFFFFFFFFFFFFFFF DUP3 PUSH3 0x8BF JUMP JUMPDEST PUSH3 0x90A DUP7 DUP4 PUSH3 0x8BF JUMP JUMPDEST SWAP6 POP DUP1 NOT DUP5 AND SWAP4 POP DUP1 DUP7 AND DUP5 OR SWAP3 POP POP POP SWAP4 SWAP3 POP POP POP JUMP JUMPDEST PUSH1 0x0 DUP2 SWAP1 POP SWAP2 SWAP1 POP JUMP JUMPDEST PUSH1 0x0 PUSH3 0x94D PUSH3 0x947 PUSH3 0x941 DUP5 PUSH3 0x34F JUMP JUMPDEST PUSH3 0x922 JUMP JUMPDEST PUSH3 0x34F JUMP JUMPDEST SWAP1 POP SWAP2 SWAP1 POP JUMP JUMPDEST PUSH1 0x0 DUP2 SWAP1 POP SWAP2 SWAP1 POP JUMP JUMPDEST PUSH3 0x969 DUP4 PUSH3 0x92C JUMP JUMPDEST PUSH3 0x981 PUSH3 0x978 DUP3 PUSH3 0x954 JUMP JUMPDEST DUP5 DUP5 SLOAD PUSH3 0x8CC JUMP JUMPDEST DUP3 SSTORE POP POP POP POP JUMP JUMPDEST PUSH1 0x0 SWAP1 JUMP JUMPDEST PUSH3 0x998 PUSH3 0x989 JUMP JUMPDEST PUSH3 0x9A5 DUP2 DUP5 DUP5 PUSH3 0x95E JUMP JUMPDEST POP POP POP JUMP JUMPDEST JUMPDEST DUP2 DUP2 LT ISZERO PUSH3 0x9CD JUMPI PUSH3 0x9C1 PUSH1 0x0 DUP3 PUSH3 0x98E JUMP JUMPDEST PUSH1 0x1 DUP2 ADD SWAP1 POP PUSH3 0x9AB JUMP JUMPDEST POP POP JUMP JUMPDEST PUSH1 0x1F DUP3 GT ISZERO PUSH3 0xA1C JUMPI PUSH3 0x9E6 DUP2 PUSH3 0x89A JUMP JUMPDEST PUSH3 0x9F1 DUP5 PUSH3 0x8AF JUMP JUMPDEST DUP2 ADD PUSH1 0x20 DUP6 LT ISZERO PUSH3 0xA01 JUMPI DUP2 SWAP1 POP JUMPDEST PUSH3 0xA19 PUSH3 0xA10 DUP6 PUSH3 0x8AF JUMP JUMPDEST DUP4 ADD DUP3 PUSH3 0x9AA JUMP JUMPDEST POP POP JUMPDEST POP POP POP JUMP JUMPDEST PUSH1 0x0 DUP3 DUP3 SHR SWAP1 POP SWAP3 SWAP2 POP POP JUMP JUMPDEST PUSH1 0x0 PUSH3 0xA41 PUSH1 0x0 NOT DUP5 PUSH1 0x8 MUL PUSH3 0xA21 JUMP JUMPDEST NOT DUP1 DUP4 AND SWAP2 POP POP SWAP3 SWAP2 POP POP JUMP JUMPDEST PUSH1 0x0 PUSH3 0xA5C DUP4 DUP4 PUSH3 0xA2E JUMP JUMPDEST SWAP2 POP DUP3 PUSH1 0x2 MUL DUP3 OR SWAP1 POP SWAP3 SWAP2 POP POP JUMP JUMPDEST PUSH3 0xA77 DUP3 PUSH3 0x82B JUMP JUMPDEST PUSH8 0xFFFFFFFFFFFFFFFF DUP2 GT ISZERO PUSH3 0xA93 JUMPI PUSH3 0xA92 PUSH3 0x60E JUMP JUMPDEST JUMPDEST PUSH3 0xA9F DUP3 SLOAD PUSH3 0x865 JUMP JUMPDEST PUSH3 0xAAC DUP3 DUP3 DUP6 PUSH3 0x9D1 JUMP JUMPDEST PUSH1 0x0 PUSH1 0x20 SWAP1 POP PUSH1 0x1F DUP4 GT PUSH1 0x1 DUP2 EQ PUSH3 0xAE4 JUMPI PUSH1 0x0 DUP5 ISZERO PUSH3 0xACF JUMPI DUP3 DUP8 ADD MLOAD SWAP1 POP JUMPDEST PUSH3 0xADB DUP6 DUP3 PUSH3 0xA4E JUMP JUMPDEST DUP7 SSTORE POP PUSH3 0xB4B JUMP JUMPDEST PUSH1 0x1F NOT DUP5 AND PUSH3 0xAF4 DUP7 PUSH3 0x89A JUMP JUMPDEST PUSH1 0x0 JUMPDEST DUP3 DUP2 LT ISZERO PUSH3 0xB1E JUMPI DUP5 DUP10 ADD MLOAD DUP3 SSTORE PUSH1 0x1 DUP3 ADD SWAP2 POP PUSH1 0x20 DUP6 ADD SWAP5 POP PUSH1 0x20 DUP2 ADD SWAP1 POP PUSH3 0xAF7 JUMP JUMPDEST DUP7 DUP4 LT ISZERO PUSH3 0xB3E JUMPI DUP5 DUP10 ADD MLOAD PUSH3 0xB3A PUSH1 0x1F DUP10 AND DUP3 PUSH3 0xA2E JUMP JUMPDEST DUP4 SSTORE POP JUMPDEST PUSH1 0x1 PUSH1 0x2 DUP9 MUL ADD DUP9 SSTORE POP POP POP JUMPDEST POP POP POP POP POP POP JUMP JUMPDEST PUSH1 0x0 PUSH3 0xB60 DUP3 PUSH3 0x34F JUMP JUMPDEST SWAP2 POP PUSH3 0xB6D DUP4 PUSH3 0x34F JUMP JUMPDEST SWAP3 POP DUP3 DUP3 SUB SWAP1 POP DUP2 DUP2 GT ISZERO PUSH3 0xB88 JUMPI PUSH3 0xB87 PUSH3 0x388 JUMP JUMPDEST JUMPDEST SWAP3 SWAP2 POP POP JUMP JUMPDEST PUSH1 0x0 DUP3 DUP3 MSTORE PUSH1 0x20 DUP3 ADD SWAP1 POP SWAP3 SWAP2 POP POP JUMP JUMPDEST PUSH32 0x4F776E61626C653A2063616C6C6572206973206E6F7420746865206F776E6572 PUSH1 0x0 DUP3 ADD MSTORE POP JUMP JUMPDEST PUSH1 0x0 PUSH3 0xBD7 PUSH1 0x20 DUP4 PUSH3 0xB8E JUMP JUMPDEST SWAP2 POP PUSH3 0xBE4 DUP3 PUSH3 0xB9F JUMP JUMPDEST PUSH1 0x20 DUP3 ADD SWAP1 POP SWAP2 SWAP1 POP JUMP JUMPDEST PUSH1 0x0 PUSH1 0x20 DUP3 ADD SWAP1 POP DUP2 DUP2 SUB PUSH1 0x0 DUP4 ADD MSTORE PUSH3 0xC0A DUP2 PUSH3 0xBC8 JUMP JUMPDEST SWAP1 POP SWAP2 SWAP1 POP JUMP JUMPDEST PUSH2 0x3913 DUP1 PUSH3 0xC21 PUSH1 0x0 CODECOPY PUSH1 0x0 RETURN INVALID PUSH1 0x80 PUSH1 0x40 MSTORE CALLVALUE DUP1 ISZERO PUSH2 0x10 JUMPI PUSH1 0x0 DUP1 REVERT JUMPDEST POP PUSH1 0x4 CALLDATASIZE LT PUSH2 0x289 JUMPI PUSH1 0x0 CALLDATALOAD PUSH1 0xE0 SHR DUP1 PUSH4 0x715018A6 GT PUSH2 0x15C JUMPI DUP1 PUSH4 0xA0BCFC7F GT PUSH2 0xCE JUMPI DUP1 PUSH4 0xB88D4FDE GT PUSH2 0x87 JUMPI DUP1 PUSH4 0xB88D4FDE EQ PUSH2 0x7A1 JUMPI DUP1 PUSH4 0xC87B56DD EQ PUSH2 0x7BD JUMPI DUP1 PUSH4 0xCB9AE707 EQ PUSH2 0x7ED JUMPI DUP1 PUSH4 0xE985E9C5 EQ PUSH2 0x80B JUMPI DUP1 PUSH4 0xEE2E5612 EQ PUSH2 0x83B JUMPI DUP1 PUSH4 0xF2FDE38B EQ PUSH2 0x859 JUMPI PUSH2 0x289 JUMP JUMPDEST DUP1 PUSH4 0xA0BCFC7F EQ PUSH2 0x6F1 JUMPI DUP1 PUSH4 0xA22CB465 EQ PUSH2 0x70D JUMPI DUP1 PUSH4 0xA465EEAF EQ PUSH2 0x729 JUMPI DUP1 PUSH4 0xAC693778 EQ PUSH2 0x747 JUMPI DUP1 PUSH4 0xAD1DFE3B EQ PUSH2 0x765 JUMPI DUP1 PUSH4 0xB7304272 EQ PUSH2 0x783 JUMPI PUSH2 0x289 JUMP JUMPDEST DUP1 PUSH4 0x82C890FD GT PUSH2 0x120 JUMPI DUP1 PUSH4 0x82C890FD EQ PUSH2 0x63A JUMPI DUP1 PUSH4 0x8AE0368B EQ PUSH2 0x658 JUMPI DUP1 PUSH4 0x8DA5CB5B EQ PUSH2 0x676 JUMPI DUP1 PUSH4 0x95D89B41 EQ PUSH2 0x694 JUMPI DUP1 PUSH4 0x95E272BD EQ PUSH2 0x6B2 JUMPI DUP1 PUSH4 0x9ABC8320 EQ PUSH2 0x6D3 JUMPI PUSH2 0x289 JUMP JUMPDEST DUP1 PUSH4 0x715018A6 EQ PUSH2 0x594 JUMPI DUP1 PUSH4 0x718A3390 EQ PUSH2 0x59E JUMPI DUP1 PUSH4 0x7C2D542C EQ PUSH2 0x5CE JUMPI DUP1 PUSH4 0x7C7F3206 EQ PUSH2 0x5FE JUMPI DUP1 PUSH4 0x829965CC EQ PUSH2 0x61C JUMPI PUSH2 0x289 JUMP JUMPDEST DUP1 PUSH4 0x2D38BF7A GT PUSH2 0x200 JUMPI DUP1 PUSH4 0x4EF37628 GT PUSH2 0x1B9 JUMPI DUP1 PUSH4 0x4EF37628 EQ PUSH2 0x4BC JUMPI DUP1 PUSH4 0x4FA972E1 EQ PUSH2 0x4DA JUMPI DUP1 PUSH4 0x6352211E EQ PUSH2 0x4F8 JUMPI DUP1 PUSH4 0x6A586594 EQ PUSH2 0x528 JUMPI DUP1 PUSH4 0x6DE9F32B EQ PUSH2 0x546 JUMPI DUP1 PUSH4 0x70A08231 EQ PUSH2 0x564 JUMPI PUSH2 0x289 JUMP JUMPDEST DUP1 PUSH4 0x2D38BF7A EQ PUSH2 0x40A JUMPI DUP1 PUSH4 0x313CE567 EQ PUSH2 0x428 JUMPI DUP1 PUSH4 0x32E99708 EQ PUSH2 0x446 JUMPI DUP1 PUSH4 0x3426E5F5 EQ PUSH2 0x464 JUMPI DUP1 PUSH4 0x42842E0E EQ PUSH2 0x482 JUMPI DUP1 PUSH4 0x490203A7 EQ PUSH2 0x49E JUMPI PUSH2 0x289 JUMP JUMPDEST DUP1 PUSH4 0x95EA7B3 GT PUSH2 0x252 JUMPI DUP1 PUSH4 0x95EA7B3 EQ PUSH2 0x348 JUMPI DUP1 PUSH4 0x17DA485F EQ PUSH2 0x364 JUMPI DUP1 PUSH4 0x1801FBE5 EQ PUSH2 0x382 JUMPI DUP1 PUSH4 0x19CAE462 EQ PUSH2 0x3B2 JUMPI DUP1 PUSH4 0x1BEDDF1C EQ PUSH2 0x3D0 JUMPI DUP1 PUSH4 0x23B872DD EQ PUSH2 0x3EE JUMPI PUSH2 0x289 JUMP JUMPDEST DUP1 PUSH3 0x9A9B7B EQ PUSH2 0x28E JUMPI DUP1 PUSH4 0x1FFC9A7 EQ PUSH2 0x2AC JUMPI DUP1 PUSH4 0x6FDDE03 EQ PUSH2 0x2DC JUMPI DUP1 PUSH4 0x81812FC EQ PUSH2 0x2FA JUMPI DUP1 PUSH4 0x95B6D4C EQ PUSH2 0x32A JUMPI JUMPDEST PUSH1 0x0 DUP1 REVERT JUMPDEST PUSH2 0x296 PUSH2 0x875 JUMP JUMPDEST PUSH1 0x40 MLOAD PUSH2 0x2A3 SWAP2 SWAP1 PUSH2 0x23BA JUMP JUMPDEST PUSH1 0x40 MLOAD DUP1 SWAP2 SUB SWAP1 RETURN JUMPDEST PUSH2 0x2C6 PUSH1 0x4 DUP1 CALLDATASIZE SUB DUP2 ADD SWAP1 PUSH2 0x2C1 SWAP2 SWAP1 PUSH2 0x2441 JUMP JUMPDEST PUSH2 0x87B JUMP JUMPDEST PUSH1 0x40 MLOAD PUSH2 0x2D3 SWAP2 SWAP1 PUSH2 0x2489 JUMP JUMPDEST PUSH1 0x40 MLOAD DUP1 SWAP2 SUB SWAP1 RETURN JUMPDEST PUSH2 0x2E4 PUSH2 0x90D JUMP JUMPDEST PUSH1 0x40 MLOAD PUSH2 0x2F1 SWAP2 SWAP1 PUSH2 0x2534 JUMP JUMPDEST PUSH1 0x40 MLOAD DUP1 SWAP2 SUB SWAP1 RETURN JUMPDEST PUSH2 0x314 PUSH1 0x4 DUP1 CALLDATASIZE SUB DUP2 ADD SWAP1 PUSH2 0x30F SWAP2 SWAP1 PUSH2 0x2582 JUMP JUMPDEST PUSH2 0x99B JUMP JUMPDEST PUSH1 0x40 MLOAD PUSH2 0x321 SWAP2 SWAP1 PUSH2 0x25F0 JUMP JUMPDEST PUSH1 0x40 MLOAD DUP1 SWAP2 SUB SWAP1 RETURN JUMPDEST PUSH2 0x332 PUSH2 0x9CE JUMP JUMPDEST PUSH1 0x40 MLOAD PUSH2 0x33F SWAP2 SWAP1 PUSH2 0x23BA JUMP JUMPDEST PUSH1 0x40 MLOAD DUP1 SWAP2 SUB SWAP1 RETURN JUMPDEST PUSH2 0x362 PUSH1 0x4 DUP1 CALLDATASIZE SUB DUP2 ADD SWAP1 PUSH2 0x35D SWAP2 SWAP1 PUSH2 0x2637 JUMP JUMPDEST PUSH2 0x9D4 JUMP JUMPDEST STOP JUMPDEST PUSH2 0x36C PUSH2 0xBBD JUMP JUMPDEST PUSH1 0x40 MLOAD PUSH2 0x379 SWAP2 SWAP1 PUSH2 0x23BA JUMP JUMPDEST PUSH1 0x40 MLOAD DUP1 SWAP2 SUB SWAP1 RETURN JUMPDEST PUSH2 0x39C PUSH1 0x4 DUP1 CALLDATASIZE SUB DUP2 ADD SWAP1 PUSH2 0x397 SWAP2 SWAP1 PUSH2 0x26AD JUMP JUMPDEST PUSH2 0xBC7 JUMP JUMPDEST PUSH1 0x40 MLOAD PUSH2 0x3A9 SWAP2 SWAP1 PUSH2 0x2489 JUMP JUMPDEST PUSH1 0x40 MLOAD DUP1 SWAP2 SUB SWAP1 RETURN JUMPDEST PUSH2 0x3BA PUSH2 0xDBB JUMP JUMPDEST PUSH1 0x40 MLOAD PUSH2 0x3C7 SWAP2 SWAP1 PUSH2 0x23BA JUMP JUMPDEST PUSH1 0x40 MLOAD DUP1 SWAP2 SUB SWAP1 RETURN JUMPDEST PUSH2 0x3D8 PUSH2 0xDC1 JUMP JUMPDEST PUSH1 0x40 MLOAD PUSH2 0x3E5 SWAP2 SWAP1 PUSH2 0x23BA JUMP JUMPDEST PUSH1 0x40 MLOAD DUP1 SWAP2 SUB SWAP1 RETURN JUMPDEST PUSH2 0x408 PUSH1 0x4 DUP1 CALLDATASIZE SUB DUP2 ADD SWAP1 PUSH2 0x403 SWAP2 SWAP1 PUSH2 0x26ED JUMP JUMPDEST PUSH2 0xDC7 JUMP JUMPDEST STOP JUMPDEST PUSH2 0x412 PUSH2 0x11C6 JUMP JUMPDEST PUSH1 0x40 MLOAD PUSH2 0x41F SWAP2 SWAP1 PUSH2 0x23BA JUMP JUMPDEST PUSH1 0x40 MLOAD DUP1 SWAP2 SUB SWAP1 RETURN JUMPDEST PUSH2 0x430 PUSH2 0x11CC JUMP JUMPDEST PUSH1 0x40 MLOAD PUSH2 0x43D SWAP2 SWAP1 PUSH2 0x275C JUMP JUMPDEST PUSH1 0x40 MLOAD DUP1 SWAP2 SUB SWAP1 RETURN JUMPDEST PUSH2 0x44E PUSH2 0x11DF JUMP JUMPDEST PUSH1 0x40 MLOAD PUSH2 0x45B SWAP2 SWAP1 PUSH2 0x23BA JUMP JUMPDEST PUSH1 0x40 MLOAD DUP1 SWAP2 SUB SWAP1 RETURN JUMPDEST PUSH2 0x46C PUSH2 0x11E9 JUMP JUMPDEST PUSH1 0x40 MLOAD PUSH2 0x479 SWAP2 SWAP1 PUSH2 0x23BA JUMP JUMPDEST PUSH1 0x40 MLOAD DUP1 SWAP2 SUB SWAP1 RETURN JUMPDEST PUSH2 0x49C PUSH1 0x4 DUP1 CALLDATASIZE SUB DUP2 ADD SWAP1 PUSH2 0x497 SWAP2 SWAP1 PUSH2 0x26ED JUMP JUMPDEST PUSH2 0x11EF JUMP JUMPDEST STOP JUMPDEST PUSH2 0x4A6 PUSH2 0x1327 JUMP JUMPDEST PUSH1 0x40 MLOAD PUSH2 0x4B3 SWAP2 SWAP1 PUSH2 0x23BA JUMP JUMPDEST PUSH1 0x40 MLOAD DUP1 SWAP2 SUB SWAP1 RETURN JUMPDEST PUSH2 0x4C4 PUSH2 0x134A JUMP JUMPDEST PUSH1 0x40 MLOAD PUSH2 0x4D1 SWAP2 SWAP1 PUSH2 0x2786 JUMP JUMPDEST PUSH1 0x40 MLOAD DUP1 SWAP2 SUB SWAP1 RETURN JUMPDEST PUSH2 0x4E2 PUSH2 0x1353 JUMP JUMPDEST PUSH1 0x40 MLOAD PUSH2 0x4EF SWAP2 SWAP1 PUSH2 0x23BA JUMP JUMPDEST PUSH1 0x40 MLOAD DUP1 SWAP2 SUB SWAP1 RETURN JUMPDEST PUSH2 0x512 PUSH1 0x4 DUP1 CALLDATASIZE SUB DUP2 ADD SWAP1 PUSH2 0x50D SWAP2 SWAP1 PUSH2 0x2582 JUMP JUMPDEST PUSH2 0x1359 JUMP JUMPDEST PUSH1 0x40 MLOAD PUSH2 0x51F SWAP2 SWAP1 PUSH2 0x25F0 JUMP JUMPDEST PUSH1 0x40 MLOAD DUP1 SWAP2 SUB SWAP1 RETURN JUMPDEST PUSH2 0x530 PUSH2 0x1404 JUMP JUMPDEST PUSH1 0x40 MLOAD PUSH2 0x53D SWAP2 SWAP1 PUSH2 0x23BA JUMP JUMPDEST PUSH1 0x40 MLOAD DUP1 SWAP2 SUB SWAP1 RETURN JUMPDEST PUSH2 0x54E PUSH2 0x140A JUMP JUMPDEST PUSH1 0x40 MLOAD PUSH2 0x55B SWAP2 SWAP1 PUSH2 0x23BA JUMP JUMPDEST PUSH1 0x40 MLOAD DUP1 SWAP2 SUB SWAP1 RETURN JUMPDEST PUSH2 0x57E PUSH1 0x4 DUP1 CALLDATASIZE SUB DUP2 ADD SWAP1 PUSH2 0x579 SWAP2 SWAP1 PUSH2 0x27A1 JUMP JUMPDEST PUSH2 0x1410 JUMP JUMPDEST PUSH1 0x40 MLOAD PUSH2 0x58B SWAP2 SWAP1 PUSH2 0x23BA JUMP JUMPDEST PUSH1 0x40 MLOAD DUP1 SWAP2 SUB SWAP1 RETURN JUMPDEST PUSH2 0x59C PUSH2 0x14C7 JUMP JUMPDEST STOP JUMPDEST PUSH2 0x5B8 PUSH1 0x4 DUP1 CALLDATASIZE SUB DUP2 ADD SWAP1 PUSH2 0x5B3 SWAP2 SWAP1 PUSH2 0x2582 JUMP JUMPDEST PUSH2 0x14DB JUMP JUMPDEST PUSH1 0x40 MLOAD PUSH2 0x5C5 SWAP2 SWAP1 PUSH2 0x23BA JUMP JUMPDEST PUSH1 0x40 MLOAD DUP1 SWAP2 SUB SWAP1 RETURN JUMPDEST PUSH2 0x5E8 PUSH1 0x4 DUP1 CALLDATASIZE SUB DUP2 ADD SWAP1 PUSH2 0x5E3 SWAP2 SWAP1 PUSH2 0x26AD JUMP JUMPDEST PUSH2 0x14F8 JUMP JUMPDEST PUSH1 0x40 MLOAD PUSH2 0x5F5 SWAP2 SWAP1 PUSH2 0x2786 JUMP JUMPDEST PUSH1 0x40 MLOAD DUP1 SWAP2 SUB SWAP1 RETURN JUMPDEST PUSH2 0x606 PUSH2 0x150C JUMP JUMPDEST PUSH1 0x40 MLOAD PUSH2 0x613 SWAP2 SWAP1 PUSH2 0x23BA JUMP JUMPDEST PUSH1 0x40 MLOAD DUP1 SWAP2 SUB SWAP1 RETURN JUMPDEST PUSH2 0x624 PUSH2 0x1512 JUMP JUMPDEST PUSH1 0x40 MLOAD PUSH2 0x631 SWAP2 SWAP1 PUSH2 0x23BA JUMP JUMPDEST PUSH1 0x40 MLOAD DUP1 SWAP2 SUB SWAP1 RETURN JUMPDEST PUSH2 0x642 PUSH2 0x1518 JUMP JUMPDEST PUSH1 0x40 MLOAD PUSH2 0x64F SWAP2 SWAP1 PUSH2 0x23BA JUMP JUMPDEST PUSH1 0x40 MLOAD DUP1 SWAP2 SUB SWAP1 RETURN JUMPDEST PUSH2 0x660 PUSH2 0x151E JUMP JUMPDEST PUSH1 0x40 MLOAD PUSH2 0x66D SWAP2 SWAP1 PUSH2 0x2786 JUMP JUMPDEST PUSH1 0x40 MLOAD DUP1 SWAP2 SUB SWAP1 RETURN JUMPDEST PUSH2 0x67E PUSH2 0x1524 JUMP JUMPDEST PUSH1 0x40 MLOAD PUSH2 0x68B SWAP2 SWAP1 PUSH2 0x25F0 JUMP JUMPDEST PUSH1 0x40 MLOAD DUP1 SWAP2 SUB SWAP1 RETURN JUMPDEST PUSH2 0x69C PUSH2 0x154E JUMP JUMPDEST PUSH1 0x40 MLOAD PUSH2 0x6A9 SWAP2 SWAP1 PUSH2 0x2534 JUMP JUMPDEST PUSH1 0x40 MLOAD DUP1 SWAP2 SUB SWAP1 RETURN JUMPDEST PUSH2 0x6BA PUSH2 0x15DC JUMP JUMPDEST PUSH1 0x40 MLOAD PUSH2 0x6CA SWAP5 SWAP4 SWAP3 SWAP2 SWAP1 PUSH2 0x27CE JUMP JUMPDEST PUSH1 0x40 MLOAD DUP1 SWAP2 SUB SWAP1 RETURN JUMPDEST PUSH2 0x6DB PUSH2 0x161A JUMP JUMPDEST PUSH1 0x40 MLOAD PUSH2 0x6E8 SWAP2 SWAP1 PUSH2 0x2534 JUMP JUMPDEST PUSH1 0x40 MLOAD DUP1 SWAP2 SUB SWAP1 RETURN JUMPDEST PUSH2 0x70B PUSH1 0x4 DUP1 CALLDATASIZE SUB DUP2 ADD SWAP1 PUSH2 0x706 SWAP2 SWAP1 PUSH2 0x2948 JUMP JUMPDEST PUSH2 0x16A8 JUMP JUMPDEST STOP JUMPDEST PUSH2 0x727 PUSH1 0x4 DUP1 CALLDATASIZE SUB DUP2 ADD SWAP1 PUSH2 0x722 SWAP2 SWAP1 PUSH2 0x29BD JUMP JUMPDEST PUSH2 0x16C3 JUMP JUMPDEST STOP JUMPDEST PUSH2 0x731 PUSH2 0x17C0 JUMP JUMPDEST PUSH1 0x40 MLOAD PUSH2 0x73E SWAP2 SWAP1 PUSH2 0x23BA JUMP JUMPDEST PUSH1 0x40 MLOAD DUP1 SWAP2 SUB SWAP1 RETURN JUMPDEST PUSH2 0x74F PUSH2 0x17CA JUMP JUMPDEST PUSH1 0x40 MLOAD PUSH2 0x75C SWAP2 SWAP1 PUSH2 0x23BA JUMP JUMPDEST PUSH1 0x40 MLOAD DUP1 SWAP2 SUB SWAP1 RETURN JUMPDEST PUSH2 0x76D PUSH2 0x17D0 JUMP JUMPDEST PUSH1 0x40 MLOAD PUSH2 0x77A SWAP2 SWAP1 PUSH2 0x23BA JUMP JUMPDEST PUSH1 0x40 MLOAD DUP1 SWAP2 SUB SWAP1 RETURN JUMPDEST PUSH2 0x78B PUSH2 0x17D6 JUMP JUMPDEST PUSH1 0x40 MLOAD PUSH2 0x798 SWAP2 SWAP1 PUSH2 0x23BA JUMP JUMPDEST PUSH1 0x40 MLOAD DUP1 SWAP2 SUB SWAP1 RETURN JUMPDEST PUSH2 0x7BB PUSH1 0x4 DUP1 CALLDATASIZE SUB DUP2 ADD SWAP1 PUSH2 0x7B6 SWAP2 SWAP1 PUSH2 0x2A5D JUMP JUMPDEST PUSH2 0x17DC JUMP JUMPDEST STOP JUMPDEST PUSH2 0x7D7 PUSH1 0x4 DUP1 CALLDATASIZE SUB DUP2 ADD SWAP1 PUSH2 0x7D2 SWAP2 SWAP1 PUSH2 0x2582 JUMP JUMPDEST PUSH2 0x191A JUMP JUMPDEST PUSH1 0x40 MLOAD PUSH2 0x7E4 SWAP2 SWAP1 PUSH2 0x2534 JUMP JUMPDEST PUSH1 0x40 MLOAD DUP1 SWAP2 SUB SWAP1 RETURN JUMPDEST PUSH2 0x7F5 PUSH2 0x192C JUMP JUMPDEST PUSH1 0x40 MLOAD PUSH2 0x802 SWAP2 SWAP1 PUSH2 0x23BA JUMP JUMPDEST PUSH1 0x40 MLOAD DUP1 SWAP2 SUB SWAP1 RETURN JUMPDEST PUSH2 0x825 PUSH1 0x4 DUP1 CALLDATASIZE SUB DUP2 ADD SWAP1 PUSH2 0x820 SWAP2 SWAP1 PUSH2 0x2AE5 JUMP JUMPDEST PUSH2 0x1932 JUMP JUMPDEST PUSH1 0x40 MLOAD PUSH2 0x832 SWAP2 SWAP1 PUSH2 0x2489 JUMP JUMPDEST PUSH1 0x40 MLOAD DUP1 SWAP2 SUB SWAP1 RETURN JUMPDEST PUSH2 0x843 PUSH2 0x1961 JUMP JUMPDEST PUSH1 0x40 MLOAD PUSH2 0x850 SWAP2 SWAP1 PUSH2 0x23BA JUMP JUMPDEST PUSH1 0x40 MLOAD DUP1 SWAP2 SUB SWAP1 RETURN JUMPDEST PUSH2 0x873 PUSH1 0x4 DUP1 CALLDATASIZE SUB DUP2 ADD SWAP1 PUSH2 0x86E SWAP2 SWAP1 PUSH2 0x27A1 JUMP JUMPDEST PUSH2 0x1967 JUMP JUMPDEST STOP JUMPDEST PUSH1 0xE SLOAD DUP2 JUMP JUMPDEST PUSH1 0x0 PUSH4 0x1FFC9A7 PUSH1 0xE0 SHL DUP3 PUSH28 0xFFFFFFFFFFFFFFFFFFFFFFFFFFFFFFFFFFFFFFFFFFFFFFFFFFFFFFFF NOT AND EQ DUP1 PUSH2 0x8D6 JUMPI POP PUSH4 0x80AC58CD PUSH1 0xE0 SHL DUP3 PUSH28 0xFFFFFFFFFFFFFFFFFFFFFFFFFFFFFFFFFFFFFFFFFFFFFFFFFFFFFFFF NOT AND EQ JUMPDEST DUP1 PUSH2 0x906 JUMPI POP PUSH4 0x5B5E139F PUSH1 0xE0 SHL DUP3 PUSH28 0xFFFFFFFFFFFFFFFFFFFFFFFFFFFFFFFFFFFFFFFFFFFFFFFFFFFFFFFF NOT AND EQ JUMPDEST SWAP1 POP SWAP2 SWAP1 POP JUMP JUMPDEST PUSH1 0x7 DUP1 SLOAD PUSH2 0x91A SWAP1 PUSH2 0x2B54 JUMP JUMPDEST DUP1 PUSH1 0x1F ADD PUSH1 0x20 DUP1 SWAP2 DIV MUL PUSH1 0x20 ADD PUSH1 0x40 MLOAD SWAP1 DUP2 ADD PUSH1 0x40 MSTORE DUP1 SWAP3 SWAP2 SWAP1 DUP2 DUP2 MSTORE PUSH1 0x20 ADD DUP3 DUP1 SLOAD PUSH2 0x946 SWAP1 PUSH2 0x2B54 JUMP JUMPDEST DUP1 ISZERO PUSH2 0x993 JUMPI DUP1 PUSH1 0x1F LT PUSH2 0x968 JUMPI PUSH2 0x100 DUP1 DUP4 SLOAD DIV MUL DUP4 MSTORE SWAP2 PUSH1 0x20 ADD SWAP2 PUSH2 0x993 JUMP JUMPDEST DUP3 ADD SWAP2 SWAP1 PUSH1 0x0 MSTORE PUSH1 0x20 PUSH1 0x0 KECCAK256 SWAP1 JUMPDEST DUP2 SLOAD DUP2 MSTORE SWAP1 PUSH1 0x1 ADD SWAP1 PUSH1 0x20 ADD DUP1 DUP4 GT PUSH2 0x976 JUMPI DUP3 SWAP1 SUB PUSH1 0x1F AND DUP3 ADD SWAP2 JUMPDEST POP POP POP POP POP DUP2 JUMP JUMPDEST PUSH1 0xB PUSH1 0x20 MSTORE DUP1 PUSH1 0x0 MSTORE PUSH1 0x40 PUSH1 0x0 KECCAK256 PUSH1 0x0 SWAP2 POP SLOAD SWAP1 PUSH2 0x100 EXP SWAP1 DIV PUSH20 0xFFFFFFFFFFFFFFFFFFFFFFFFFFFFFFFFFFFFFFFF AND DUP2 JUMP JUMPDEST PUSH1 0x18 SLOAD DUP2 JUMP JUMPDEST PUSH1 0x0 PUSH1 0x9 PUSH1 0x0 DUP4 DUP2 MSTORE PUSH1 0x20 ADD SWAP1 DUP2 MSTORE PUSH1 0x20 ADD PUSH1 0x0 KECCAK256 PUSH1 0x0 SWAP1 SLOAD SWAP1 PUSH2 0x100 EXP SWAP1 DIV PUSH20 0xFFFFFFFFFFFFFFFFFFFFFFFFFFFFFFFFFFFFFFFF AND SWAP1 POP DUP1 PUSH20 0xFFFFFFFFFFFFFFFFFFFFFFFFFFFFFFFFFFFFFFFF AND CALLER PUSH20 0xFFFFFFFFFFFFFFFFFFFFFFFFFFFFFFFFFFFFFFFF AND EQ DUP1 PUSH2 0xACC JUMPI POP PUSH1 0xC PUSH1 0x0 DUP3 PUSH20 0xFFFFFFFFFFFFFFFFFFFFFFFFFFFFFFFFFFFFFFFF AND PUSH20 0xFFFFFFFFFFFFFFFFFFFFFFFFFFFFFFFFFFFFFFFF AND DUP2 MSTORE PUSH1 0x20 ADD SWAP1 DUP2 MSTORE PUSH1 0x20 ADD PUSH1 0x0 KECCAK256 PUSH1 0x0 CALLER PUSH20 0xFFFFFFFFFFFFFFFFFFFFFFFFFFFFFFFFFFFFFFFF AND PUSH20 0xFFFFFFFFFFFFFFFFFFFFFFFFFFFFFFFFFFFFFFFF AND DUP2 MSTORE PUSH1 0x20 ADD SWAP1 DUP2 MSTORE PUSH1 0x20 ADD PUSH1 0x0 KECCAK256 PUSH1 0x0 SWAP1 SLOAD SWAP1 PUSH2 0x100 EXP SWAP1 DIV PUSH1 0xFF AND JUMPDEST PUSH2 0xB0B JUMPI PUSH1 0x40 MLOAD PUSH32 0x8C379A000000000000000000000000000000000000000000000000000000000 DUP2 MSTORE PUSH1 0x4 ADD PUSH2 0xB02 SWAP1 PUSH2 0x2BD1 JUMP JUMPDEST PUSH1 0x40 MLOAD DUP1 SWAP2 SUB SWAP1 REVERT JUMPDEST DUP3 PUSH1 0xB PUSH1 0x0 DUP5 DUP2 MSTORE PUSH1 0x20 ADD SWAP1 DUP2 MSTORE PUSH1 0x20 ADD PUSH1 0x0 KECCAK256 PUSH1 0x0 PUSH2 0x100 EXP DUP2 SLOAD DUP2 PUSH20 0xFFFFFFFFFFFFFFFFFFFFFFFFFFFFFFFFFFFFFFFF MUL NOT AND SWAP1 DUP4 PUSH20 0xFFFFFFFFFFFFFFFFFFFFFFFFFFFFFFFFFFFFFFFF AND MUL OR SWAP1 SSTORE POP DUP2 DUP4 PUSH20 0xFFFFFFFFFFFFFFFFFFFFFFFFFFFFFFFFFFFFFFFF AND DUP3 PUSH20 0xFFFFFFFFFFFFFFFFFFFFFFFFFFFFFFFFFFFFFFFF AND PUSH32 0x8C5BE1E5EBEC7D5BD14F71427D1E84F3DD0314C0F7B2291E5B200AC8C7C3B925 PUSH1 0x40 MLOAD PUSH1 0x40 MLOAD DUP1 SWAP2 SUB SWAP1 LOG4 POP POP POP JUMP JUMPDEST PUSH1 0x0 PUSH1 0x1 SLOAD SWAP1 POP SWAP1 JUMP JUMPDEST PUSH1 0x0 DUP1 PUSH2 0xBD4 DUP5 DUP5 PUSH2 0x19EA JUMP JUMPDEST SWAP1 POP PUSH1 0x1 SLOAD DUP2 PUSH1 0x0 SHR GT ISZERO PUSH2 0xC1E JUMPI PUSH1 0x40 MLOAD PUSH32 0x8C379A000000000000000000000000000000000000000000000000000000000 DUP2 MSTORE PUSH1 0x4 ADD PUSH2 0xC15 SWAP1 PUSH2 0x2C3D JUMP JUMPDEST PUSH1 0x40 MLOAD DUP1 SWAP2 SUB SWAP1 REVERT JUMPDEST PUSH1 0x0 PUSH1 0x11 PUSH1 0x0 DUP1 SLOAD DUP2 MSTORE PUSH1 0x20 ADD SWAP1 DUP2 MSTORE PUSH1 0x20 ADD PUSH1 0x0 KECCAK256 SLOAD SWAP1 POP PUSH1 0x0 DUP1 SHL DUP2 EQ PUSH2 0xC7C JUMPI PUSH1 0x40 MLOAD PUSH32 0x8C379A000000000000000000000000000000000000000000000000000000000 DUP2 MSTORE PUSH1 0x4 ADD PUSH2 0xC73 SWAP1 PUSH2 0x2CA9 JUMP JUMPDEST PUSH1 0x40 MLOAD DUP1 SWAP2 SUB SWAP1 REVERT JUMPDEST DUP2 PUSH1 0x11 PUSH1 0x0 DUP1 SLOAD DUP2 MSTORE PUSH1 0x20 ADD SWAP1 DUP2 MSTORE PUSH1 0x20 ADD PUSH1 0x0 KECCAK256 DUP2 SWAP1 SSTORE POP PUSH1 0x0 PUSH2 0xC9F PUSH2 0x1A68 JUMP JUMPDEST SWAP1 POP PUSH1 0x0 PUSH1 0x64 PUSH1 0x19 DUP4 PUSH2 0xCB2 SWAP2 SWAP1 PUSH2 0x2CF8 JUMP JUMPDEST PUSH2 0xCBC SWAP2 SWAP1 PUSH2 0x2D69 JUMP JUMPDEST SWAP1 POP PUSH1 0x0 DUP2 DUP4 PUSH2 0xCCC SWAP2 SWAP1 PUSH2 0x2D9A JUMP JUMPDEST SWAP1 POP PUSH1 0x0 DUP3 DUP5 PUSH2 0xCDC SWAP2 SWAP1 PUSH2 0x2DCE JUMP JUMPDEST SWAP1 POP PUSH1 0x0 PUSH1 0x64 DUP4 DUP4 PUSH2 0xCEE SWAP2 SWAP1 PUSH2 0x2D9A JUMP JUMPDEST PUSH2 0xCF8 SWAP2 SWAP1 PUSH2 0x2D69 JUMP JUMPDEST SWAP1 POP PUSH1 0x0 PUSH1 0x64 PUSH2 0xD06 PUSH2 0x1A8B JUMP JUMPDEST PUSH2 0xD10 SWAP2 SWAP1 PUSH2 0x2E02 JUMP JUMPDEST SWAP1 POP PUSH1 0x0 DUP3 DUP3 PUSH2 0xD20 SWAP2 SWAP1 PUSH2 0x2CF8 JUMP JUMPDEST DUP6 PUSH2 0xD2B SWAP2 SWAP1 PUSH2 0x2DCE JUMP JUMPDEST SWAP1 POP PUSH1 0xE PUSH1 0x0 DUP2 SLOAD PUSH2 0xD3C SWAP1 PUSH2 0x2E33 JUMP JUMPDEST SWAP2 SWAP1 POP DUP2 SWAP1 SSTORE PUSH1 0xE DUP2 SWAP1 SSTORE POP PUSH2 0xD54 CALLER PUSH1 0xE SLOAD PUSH2 0x1ADA JUMP JUMPDEST PUSH1 0x40 MLOAD DUP1 PUSH1 0x20 ADD PUSH1 0x40 MSTORE DUP1 DUP3 DUP2 MSTORE POP PUSH1 0x20 PUSH1 0x0 PUSH1 0xE SLOAD DUP2 MSTORE PUSH1 0x20 ADD SWAP1 DUP2 MSTORE PUSH1 0x20 ADD PUSH1 0x0 KECCAK256 PUSH1 0x0 DUP3 ADD MLOAD DUP2 PUSH1 0x0 ADD SSTORE SWAP1 POP POP PUSH2 0xD8E DUP2 PUSH2 0x1C11 JUMP JUMPDEST POP DUP1 PUSH1 0x2 PUSH1 0x0 DUP3 DUP3 SLOAD PUSH2 0xDA1 SWAP2 SWAP1 PUSH2 0x2DCE JUMP JUMPDEST SWAP3 POP POP DUP2 SWAP1 SSTORE POP PUSH1 0x1 SWAP10 POP POP POP POP POP POP POP POP POP POP SWAP3 SWAP2 POP POP JUMP JUMPDEST PUSH1 0x1 SLOAD DUP2 JUMP JUMPDEST PUSH1 0x1A SLOAD DUP2 JUMP JUMPDEST PUSH1 0x9 PUSH1 0x0 DUP3 DUP2 MSTORE PUSH1 0x20 ADD SWAP1 DUP2 MSTORE PUSH1 0x20 ADD PUSH1 0x0 KECCAK256 PUSH1 0x0 SWAP1 SLOAD SWAP1 PUSH2 0x100 EXP SWAP1 DIV PUSH20 0xFFFFFFFFFFFFFFFFFFFFFFFFFFFFFFFFFFFFFFFF AND PUSH20 0xFFFFFFFFFFFFFFFFFFFFFFFFFFFFFFFFFFFFFFFF AND DUP4 PUSH20 0xFFFFFFFFFFFFFFFFFFFFFFFFFFFFFFFFFFFFFFFF AND EQ PUSH2 0xE68 JUMPI PUSH1 0x40 MLOAD PUSH32 0x8C379A000000000000000000000000000000000000000000000000000000000 DUP2 MSTORE PUSH1 0x4 ADD PUSH2 0xE5F SWAP1 PUSH2 0x2EC7 JUMP JUMPDEST PUSH1 0x40 MLOAD DUP1 SWAP2 SUB SWAP1 REVERT JUMPDEST PUSH1 0x0 PUSH20 0xFFFFFFFFFFFFFFFFFFFFFFFFFFFFFFFFFFFFFFFF AND DUP3 PUSH20 0xFFFFFFFFFFFFFFFFFFFFFFFFFFFFFFFFFFFFFFFF AND SUB PUSH2 0xED7 JUMPI PUSH1 0x40 MLOAD PUSH32 0x8C379A000000000000000000000000000000000000000000000000000000000 DUP2 MSTORE PUSH1 0x4 ADD PUSH2 0xECE SWAP1 PUSH2 0x2F33 JUMP JUMPDEST PUSH1 0x40 MLOAD DUP1 SWAP2 SUB SWAP1 REVERT JUMPDEST DUP3 PUSH20 0xFFFFFFFFFFFFFFFFFFFFFFFFFFFFFFFFFFFFFFFF AND CALLER PUSH20 0xFFFFFFFFFFFFFFFFFFFFFFFFFFFFFFFFFFFFFFFF AND EQ DUP1 PUSH2 0xF97 JUMPI POP PUSH1 0xC PUSH1 0x0 DUP5 PUSH20 0xFFFFFFFFFFFFFFFFFFFFFFFFFFFFFFFFFFFFFFFF AND PUSH20 0xFFFFFFFFFFFFFFFFFFFFFFFFFFFFFFFFFFFFFFFF AND DUP2 MSTORE PUSH1 0x20 ADD SWAP1 DUP2 MSTORE PUSH1 0x20 ADD PUSH1 0x0 KECCAK256 PUSH1 0x0 CALLER PUSH20 0xFFFFFFFFFFFFFFFFFFFFFFFFFFFFFFFFFFFFFFFF AND PUSH20 0xFFFFFFFFFFFFFFFFFFFFFFFFFFFFFFFFFFFFFFFF AND DUP2 MSTORE PUSH1 0x20 ADD SWAP1 DUP2 MSTORE PUSH1 0x20 ADD PUSH1 0x0 KECCAK256 PUSH1 0x0 SWAP1 SLOAD SWAP1 PUSH2 0x100 EXP SWAP1 DIV PUSH1 0xFF AND JUMPDEST DUP1 PUSH2 0x1000 JUMPI POP PUSH1 0xB PUSH1 0x0 DUP3 DUP2 MSTORE PUSH1 0x20 ADD SWAP1 DUP2 MSTORE PUSH1 0x20 ADD PUSH1 0x0 KECCAK256 PUSH1 0x0 SWAP1 SLOAD SWAP1 PUSH2 0x100 EXP SWAP1 DIV PUSH20 0xFFFFFFFFFFFFFFFFFFFFFFFFFFFFFFFFFFFFFFFF AND PUSH20 0xFFFFFFFFFFFFFFFFFFFFFFFFFFFFFFFFFFFFFFFF AND CALLER PUSH20 0xFFFFFFFFFFFFFFFFFFFFFFFFFFFFFFFFFFFFFFFF AND EQ JUMPDEST PUSH2 0x103F JUMPI PUSH1 0x40 MLOAD PUSH32 0x8C379A000000000000000000000000000000000000000000000000000000000 DUP2 MSTORE PUSH1 0x4 ADD PUSH2 0x1036 SWAP1 PUSH2 0x2BD1 JUMP JUMPDEST PUSH1 0x40 MLOAD DUP1 SWAP2 SUB SWAP1 REVERT JUMPDEST PUSH1 0xA PUSH1 0x0 DUP5 PUSH20 0xFFFFFFFFFFFFFFFFFFFFFFFFFFFFFFFFFFFFFFFF AND PUSH20 0xFFFFFFFFFFFFFFFFFFFFFFFFFFFFFFFFFFFFFFFF AND DUP2 MSTORE PUSH1 0x20 ADD SWAP1 DUP2 MSTORE PUSH1 0x20 ADD PUSH1 0x0 KECCAK256 PUSH1 0x0 DUP2 SLOAD DUP1 SWAP3 SWAP2 SWAP1 PUSH1 0x1 SWAP1 SUB SWAP2 SWAP1 POP SSTORE POP PUSH1 0xA PUSH1 0x0 DUP4 PUSH20 0xFFFFFFFFFFFFFFFFFFFFFFFFFFFFFFFFFFFFFFFF AND PUSH20 0xFFFFFFFFFFFFFFFFFFFFFFFFFFFFFFFFFFFFFFFF AND DUP2 MSTORE PUSH1 0x20 ADD SWAP1 DUP2 MSTORE PUSH1 0x20 ADD PUSH1 0x0 KECCAK256 PUSH1 0x0 DUP2 SLOAD DUP1 SWAP3 SWAP2 SWAP1 PUSH1 0x1 ADD SWAP2 SWAP1 POP SSTORE POP DUP2 PUSH1 0x9 PUSH1 0x0 DUP4 DUP2 MSTORE PUSH1 0x20 ADD SWAP1 DUP2 MSTORE PUSH1 0x20 ADD PUSH1 0x0 KECCAK256 PUSH1 0x0 PUSH2 0x100 EXP DUP2 SLOAD DUP2 PUSH20 0xFFFFFFFFFFFFFFFFFFFFFFFFFFFFFFFFFFFFFFFF MUL NOT AND SWAP1 DUP4 PUSH20 0xFFFFFFFFFFFFFFFFFFFFFFFFFFFFFFFFFFFFFFFF AND MUL OR SWAP1 SSTORE POP PUSH1 0xB PUSH1 0x0 DUP3 DUP2 MSTORE PUSH1 0x20 ADD SWAP1 DUP2 MSTORE PUSH1 0x20 ADD PUSH1 0x0 KECCAK256 PUSH1 0x0 PUSH2 0x100 EXP DUP2 SLOAD SWAP1 PUSH20 0xFFFFFFFFFFFFFFFFFFFFFFFFFFFFFFFFFFFFFFFF MUL NOT AND SWAP1 SSTORE DUP1 DUP3 PUSH20 0xFFFFFFFFFFFFFFFFFFFFFFFFFFFFFFFFFFFFFFFF AND DUP5 PUSH20 0xFFFFFFFFFFFFFFFFFFFFFFFFFFFFFFFFFFFFFFFF AND PUSH32 0xDDF252AD1BE2C89B69C2B068FC378DAA952BA7F163C4A11628F55A4DF523B3EF PUSH1 0x40 MLOAD PUSH1 0x40 MLOAD DUP1 SWAP2 SUB SWAP1 LOG4 POP POP POP JUMP JUMPDEST PUSH1 0x1D SLOAD DUP2 JUMP JUMPDEST PUSH1 0x1B PUSH1 0x0 SWAP1 SLOAD SWAP1 PUSH2 0x100 EXP SWAP1 DIV PUSH1 0xFF AND DUP2 JUMP JUMPDEST PUSH1 0x0 PUSH1 0x1 SLOAD SWAP1 POP SWAP1 JUMP JUMPDEST PUSH1 0x14 SLOAD DUP2 JUMP JUMPDEST PUSH2 0x11FA DUP4 DUP4 DUP4 PUSH2 0xDC7 JUMP JUMPDEST PUSH1 0x0 DUP3 PUSH20 0xFFFFFFFFFFFFFFFFFFFFFFFFFFFFFFFFFFFFFFFF AND EXTCODESIZE EQ DUP1 PUSH2 0x12E3 JUMPI POP PUSH4 0x150B7A02 PUSH1 0xE0 SHL PUSH28 0xFFFFFFFFFFFFFFFFFFFFFFFFFFFFFFFFFFFFFFFFFFFFFFFFFFFFFFFF NOT AND DUP3 PUSH20 0xFFFFFFFFFFFFFFFFFFFFFFFFFFFFFFFFFFFFFFFF AND PUSH4 0x150B7A02 CALLER DUP7 DUP6 PUSH1 0x40 MLOAD DUP5 PUSH4 0xFFFFFFFF AND PUSH1 0xE0 SHL DUP2 MSTORE PUSH1 0x4 ADD PUSH2 0x127F SWAP4 SWAP3 SWAP2 SWAP1 PUSH2 0x2F8A JUMP JUMPDEST PUSH1 0x20 PUSH1 0x40 MLOAD DUP1 DUP4 SUB DUP2 PUSH1 0x0 DUP8 GAS CALL ISZERO DUP1 ISZERO PUSH2 0x129E JUMPI RETURNDATASIZE PUSH1 0x0 DUP1 RETURNDATACOPY RETURNDATASIZE PUSH1 0x0 REVERT JUMPDEST POP POP POP POP PUSH1 0x40 MLOAD RETURNDATASIZE PUSH1 0x1F NOT PUSH1 0x1F DUP3 ADD AND DUP3 ADD DUP1 PUSH1 0x40 MSTORE POP DUP2 ADD SWAP1 PUSH2 0x12C2 SWAP2 SWAP1 PUSH2 0x2FE9 JUMP JUMPDEST PUSH28 0xFFFFFFFFFFFFFFFFFFFFFFFFFFFFFFFFFFFFFFFFFFFFFFFFFFFFFFFF NOT AND EQ JUMPDEST PUSH2 0x1322 JUMPI PUSH1 0x40 MLOAD PUSH32 0x8C379A000000000000000000000000000000000000000000000000000000000 DUP2 MSTORE PUSH1 0x4 ADD PUSH2 0x1319 SWAP1 PUSH2 0x3062 JUMP JUMPDEST PUSH1 0x40 MLOAD DUP1 SWAP2 SUB SWAP1 REVERT JUMPDEST POP POP POP JUMP JUMPDEST PUSH1 0x0 PUSH1 0x1D SLOAD PUSH1 0x2 PUSH2 0x1338 SWAP2 SWAP1 PUSH2 0x31B5 JUMP JUMPDEST PUSH1 0x1C SLOAD PUSH2 0x1345 SWAP2 SWAP1 PUSH2 0x2D69 JUMP JUMPDEST SWAP1 POP SWAP1 JUMP JUMPDEST PUSH1 0x0 DUP1 SLOAD SWAP1 POP SWAP1 JUMP JUMPDEST PUSH1 0x1E SLOAD DUP2 JUMP JUMPDEST PUSH1 0x0 DUP1 PUSH20 0xFFFFFFFFFFFFFFFFFFFFFFFFFFFFFFFFFFFFFFFF AND PUSH1 0x9 PUSH1 0x0 DUP5 DUP2 MSTORE PUSH1 0x20 ADD SWAP1 DUP2 MSTORE PUSH1 0x20 ADD PUSH1 0x0 KECCAK256 PUSH1 0x0 SWAP1 SLOAD SWAP1 PUSH2 0x100 EXP SWAP1 DIV PUSH20 0xFFFFFFFFFFFFFFFFFFFFFFFFFFFFFFFFFFFFFFFF AND SWAP2 POP DUP2 PUSH20 0xFFFFFFFFFFFFFFFFFFFFFFFFFFFFFFFFFFFFFFFF AND SUB PUSH2 0x13FF JUMPI PUSH1 0x40 MLOAD PUSH32 0x8C379A000000000000000000000000000000000000000000000000000000000 DUP2 MSTORE PUSH1 0x4 ADD PUSH2 0x13F6 SWAP1 PUSH2 0x324C JUMP JUMPDEST PUSH1 0x40 MLOAD DUP1 SWAP2 SUB SWAP1 REVERT JUMPDEST SWAP2 SWAP1 POP JUMP JUMPDEST PUSH1 0x16 SLOAD DUP2 JUMP JUMPDEST PUSH1 0x2 SLOAD DUP2 JUMP JUMPDEST PUSH1 0x0 DUP1 PUSH20 0xFFFFFFFFFFFFFFFFFFFFFFFFFFFFFFFFFFFFFFFF AND DUP3 PUSH20 0xFFFFFFFFFFFFFFFFFFFFFFFFFFFFFFFFFFFFFFFF AND SUB PUSH2 0x1480 JUMPI PUSH1 0x40 MLOAD PUSH32 0x8C379A000000000000000000000000000000000000000000000000000000000 DUP2 MSTORE PUSH1 0x4 ADD PUSH2 0x1477 SWAP1 PUSH2 0x32B8 JUMP JUMPDEST PUSH1 0x40 MLOAD DUP1 SWAP2 SUB SWAP1 REVERT JUMPDEST PUSH1 0xA PUSH1 0x0 DUP4 PUSH20 0xFFFFFFFFFFFFFFFFFFFFFFFFFFFFFFFFFFFFFFFF AND PUSH20 0xFFFFFFFFFFFFFFFFFFFFFFFFFFFFFFFFFFFFFFFF AND DUP2 MSTORE PUSH1 0x20 ADD SWAP1 DUP2 MSTORE PUSH1 0x20 ADD PUSH1 0x0 KECCAK256 SLOAD SWAP1 POP SWAP2 SWAP1 POP JUMP JUMPDEST PUSH2 0x14CF PUSH2 0x1C9A JUMP JUMPDEST PUSH2 0x14D9 PUSH1 0x0 PUSH2 0x1D18 JUMP JUMPDEST JUMP JUMPDEST PUSH1 0x20 DUP1 MSTORE DUP1 PUSH1 0x0 MSTORE PUSH1 0x40 PUSH1 0x0 KECCAK256 PUSH1 0x0 SWAP2 POP SWAP1 POP DUP1 PUSH1 0x0 ADD SLOAD SWAP1 POP DUP2 JUMP JUMPDEST PUSH1 0x0 PUSH2 0x1504 DUP4 DUP4 PUSH2 0x19EA JUMP JUMPDEST SWAP1 POP SWAP3 SWAP2 POP POP JUMP JUMPDEST PUSH1 0x17 SLOAD DUP2 JUMP JUMPDEST PUSH1 0x12 SLOAD DUP2 JUMP JUMPDEST PUSH1 0x1C SLOAD DUP2 JUMP JUMPDEST PUSH1 0x0 SLOAD DUP2 JUMP JUMPDEST PUSH1 0x0 PUSH1 0xD PUSH1 0x0 SWAP1 SLOAD SWAP1 PUSH2 0x100 EXP SWAP1 DIV PUSH20 0xFFFFFFFFFFFFFFFFFFFFFFFFFFFFFFFFFFFFFFFF AND SWAP1 POP SWAP1 JUMP JUMPDEST PUSH1 0x8 DUP1 SLOAD PUSH2 0x155B SWAP1 PUSH2 0x2B54 JUMP JUMPDEST DUP1 PUSH1 0x1F ADD PUSH1 0x20 DUP1 SWAP2 DIV MUL PUSH1 0x20 ADD PUSH1 0x40 MLOAD SWAP1 DUP2 ADD PUSH1 0x40 MSTORE DUP1 SWAP3 SWAP2 SWAP1 DUP2 DUP2 MSTORE PUSH1 0x20 ADD DUP3 DUP1 SLOAD PUSH2 0x1587 SWAP1 PUSH2 0x2B54 JUMP JUMPDEST DUP1 ISZERO PUSH2 0x15D4 JUMPI DUP1 PUSH1 0x1F LT PUSH2 0x15A9 JUMPI PUSH2 0x100 DUP1 DUP4 SLOAD DIV MUL DUP4 MSTORE SWAP2 PUSH1 0x20 ADD SWAP2 PUSH2 0x15D4 JUMP JUMPDEST DUP3 ADD SWAP2 SWAP1 PUSH1 0x0 MSTORE PUSH1 0x20 PUSH1 0x0 KECCAK256 SWAP1 JUMPDEST DUP2 SLOAD DUP2 MSTORE SWAP1 PUSH1 0x1 ADD SWAP1 PUSH1 0x20 ADD DUP1 DUP4 GT PUSH2 0x15B7 JUMPI DUP3 SWAP1 SUB PUSH1 0x1F AND DUP3 ADD SWAP2 JUMPDEST POP POP POP POP POP DUP2 JUMP JUMPDEST PUSH1 0x3 DUP1 PUSH1 0x0 ADD PUSH1 0x0 SWAP1 SLOAD SWAP1 PUSH2 0x100 EXP SWAP1 DIV PUSH20 0xFFFFFFFFFFFFFFFFFFFFFFFFFFFFFFFFFFFFFFFF AND SWAP1 DUP1 PUSH1 0x1 ADD SLOAD SWAP1 DUP1 PUSH1 0x2 ADD SLOAD SWAP1 DUP1 PUSH1 0x3 ADD SLOAD SWAP1 POP DUP5 JUMP JUMPDEST PUSH1 0xF DUP1 SLOAD PUSH2 0x1627 SWAP1 PUSH2 0x2B54 JUMP JUMPDEST DUP1 PUSH1 0x1F ADD PUSH1 0x20 DUP1 SWAP2 DIV MUL PUSH1 0x20 ADD PUSH1 0x40 MLOAD SWAP1 DUP2 ADD PUSH1 0x40 MSTORE DUP1 SWAP3 SWAP2 SWAP1 DUP2 DUP2 MSTORE PUSH1 0x20 ADD DUP3 DUP1 SLOAD PUSH2 0x1653 SWAP1 PUSH2 0x2B54 JUMP JUMPDEST DUP1 ISZERO PUSH2 0x16A0 JUMPI DUP1 PUSH1 0x1F LT PUSH2 0x1675 JUMPI PUSH2 0x100 DUP1 DUP4 SLOAD DIV MUL DUP4 MSTORE SWAP2 PUSH1 0x20 ADD SWAP2 PUSH2 0x16A0 JUMP JUMPDEST DUP3 ADD SWAP2 SWAP1 PUSH1 0x0 MSTORE PUSH1 0x20 PUSH1 0x0 KECCAK256 SWAP1 JUMPDEST DUP2 SLOAD DUP2 MSTORE SWAP1 PUSH1 0x1 ADD SWAP1 PUSH1 0x20 ADD DUP1 DUP4 GT PUSH2 0x1683 JUMPI DUP3 SWAP1 SUB PUSH1 0x1F AND DUP3 ADD SWAP2 JUMPDEST POP POP POP POP POP DUP2 JUMP JUMPDEST PUSH2 0x16B0 PUSH2 0x1C9A JUMP JUMPDEST DUP1 PUSH1 0xF SWAP1 DUP2 PUSH2 0x16BF SWAP2 SWAP1 PUSH2 0x3484 JUMP JUMPDEST POP POP JUMP JUMPDEST DUP1 PUSH1 0xC PUSH1 0x0 CALLER PUSH20 0xFFFFFFFFFFFFFFFFFFFFFFFFFFFFFFFFFFFFFFFF AND PUSH20 0xFFFFFFFFFFFFFFFFFFFFFFFFFFFFFFFFFFFFFFFF AND DUP2 MSTORE PUSH1 0x20 ADD SWAP1 DUP2 MSTORE PUSH1 0x20 ADD PUSH1 0x0 KECCAK256 PUSH1 0x0 DUP5 PUSH20 0xFFFFFFFFFFFFFFFFFFFFFFFFFFFFFFFFFFFFFFFF AND PUSH20 0xFFFFFFFFFFFFFFFFFFFFFFFFFFFFFFFFFFFFFFFF AND DUP2 MSTORE PUSH1 0x20 ADD SWAP1 DUP2 MSTORE PUSH1 0x20 ADD PUSH1 0x0 KECCAK256 PUSH1 0x0 PUSH2 0x100 EXP DUP2 SLOAD DUP2 PUSH1 0xFF MUL NOT AND SWAP1 DUP4 ISZERO ISZERO MUL OR SWAP1 SSTORE POP DUP2 PUSH20 0xFFFFFFFFFFFFFFFFFFFFFFFFFFFFFFFFFFFFFFFF AND CALLER PUSH20 0xFFFFFFFFFFFFFFFFFFFFFFFFFFFFFFFFFFFFFFFF AND PUSH32 0x17307EAB39AB6107E8899845AD3D59BD9653F200F220920489CA2B5937696C31 DUP4 PUSH1 0x40 MLOAD PUSH2 0x17B4 SWAP2 SWAP1 PUSH2 0x2489 JUMP JUMPDEST PUSH1 0x40 MLOAD DUP1 SWAP2 SUB SWAP1 LOG3 POP POP JUMP JUMPDEST PUSH1 0x0 PUSH1 0xE SLOAD SWAP1 POP SWAP1 JUMP JUMPDEST PUSH1 0x10 SLOAD DUP2 JUMP JUMPDEST PUSH1 0x19 SLOAD DUP2 JUMP JUMPDEST PUSH1 0x13 SLOAD DUP2 JUMP JUMPDEST PUSH2 0x17E7 DUP6 DUP6 DUP6 PUSH2 0xDC7 JUMP JUMPDEST PUSH1 0x0 DUP5 PUSH20 0xFFFFFFFFFFFFFFFFFFFFFFFFFFFFFFFFFFFFFFFF AND EXTCODESIZE EQ DUP1 PUSH2 0x18D4 JUMPI POP PUSH4 0x150B7A02 PUSH1 0xE0 SHL PUSH28 0xFFFFFFFFFFFFFFFFFFFFFFFFFFFFFFFFFFFFFFFFFFFFFFFFFFFFFFFF NOT AND DUP5 PUSH20 0xFFFFFFFFFFFFFFFFFFFFFFFFFFFFFFFFFFFFFFFF AND PUSH4 0x150B7A02 CALLER DUP9 DUP8 DUP8 DUP8 PUSH1 0x40 MLOAD DUP7 PUSH4 0xFFFFFFFF AND PUSH1 0xE0 SHL DUP2 MSTORE PUSH1 0x4 ADD PUSH2 0x1870 SWAP6 SWAP5 SWAP4 SWAP3 SWAP2 SWAP1 PUSH2 0x3583 JUMP JUMPDEST PUSH1 0x20 PUSH1 0x40 MLOAD DUP1 DUP4 SUB DUP2 PUSH1 0x0 DUP8 GAS CALL ISZERO DUP1 ISZERO PUSH2 0x188F JUMPI RETURNDATASIZE PUSH1 0x0 DUP1 RETURNDATACOPY RETURNDATASIZE PUSH1 0x0 REVERT JUMPDEST POP POP POP POP PUSH1 0x40 MLOAD RETURNDATASIZE PUSH1 0x1F NOT PUSH1 0x1F DUP3 ADD AND DUP3 ADD DUP1 PUSH1 0x40 MSTORE POP DUP2 ADD SWAP1 PUSH2 0x18B3 SWAP2 SWAP1 PUSH2 0x2FE9 JUMP JUMPDEST PUSH28 0xFFFFFFFFFFFFFFFFFFFFFFFFFFFFFFFFFFFFFFFFFFFFFFFFFFFFFFFF NOT AND EQ JUMPDEST PUSH2 0x1913 JUMPI PUSH1 0x40 MLOAD PUSH32 0x8C379A000000000000000000000000000000000000000000000000000000000 DUP2 MSTORE PUSH1 0x4 ADD PUSH2 0x190A SWAP1 PUSH2 0x3062 JUMP JUMPDEST PUSH1 0x40 MLOAD DUP1 SWAP2 SUB SWAP1 REVERT JUMPDEST POP POP POP POP POP JUMP JUMPDEST PUSH1 0x60 PUSH2 0x1925 DUP3 PUSH2 0x1DDE JUMP JUMPDEST SWAP1 POP SWAP2 SWAP1 POP JUMP JUMPDEST PUSH1 0x15 SLOAD DUP2 JUMP JUMPDEST PUSH1 0xC PUSH1 0x20 MSTORE DUP2 PUSH1 0x0 MSTORE PUSH1 0x40 PUSH1 0x0 KECCAK256 PUSH1 0x20 MSTORE DUP1 PUSH1 0x0 MSTORE PUSH1 0x40 PUSH1 0x0 KECCAK256 PUSH1 0x0 SWAP2 POP SWAP2 POP SWAP1 SLOAD SWAP1 PUSH2 0x100 EXP SWAP1 DIV PUSH1 0xFF AND DUP2 JUMP JUMPDEST PUSH1 0x1F SLOAD DUP2 JUMP JUMPDEST PUSH2 0x196F PUSH2 0x1C9A JUMP JUMPDEST PUSH1 0x0 PUSH20 0xFFFFFFFFFFFFFFFFFFFFFFFFFFFFFFFFFFFFFFFF AND DUP2 PUSH20 0xFFFFFFFFFFFFFFFFFFFFFFFFFFFFFFFFFFFFFFFF AND SUB PUSH2 0x19DE JUMPI PUSH1 0x40 MLOAD PUSH32 0x8C379A000000000000000000000000000000000000000000000000000000000 DUP2 MSTORE PUSH1 0x4 ADD PUSH2 0x19D5 SWAP1 PUSH2 0x3643 JUMP JUMPDEST PUSH1 0x40 MLOAD DUP1 SWAP2 SUB SWAP1 REVERT JUMPDEST PUSH2 0x19E7 DUP2 PUSH2 0x1D18 JUMP JUMPDEST POP JUMP JUMPDEST PUSH1 0x0 DUP1 PUSH1 0x0 SLOAD CALLER DUP6 PUSH1 0x40 MLOAD PUSH1 0x20 ADD PUSH2 0x1A04 SWAP4 SWAP3 SWAP2 SWAP1 PUSH2 0x36ED JUMP JUMPDEST PUSH1 0x40 MLOAD PUSH1 0x20 DUP2 DUP4 SUB SUB DUP2 MSTORE SWAP1 PUSH1 0x40 MSTORE DUP1 MLOAD SWAP1 PUSH1 0x20 ADD KECCAK256 SWAP1 POP DUP3 DUP2 EQ PUSH2 0x1A5E JUMPI PUSH1 0x40 MLOAD PUSH32 0x8C379A000000000000000000000000000000000000000000000000000000000 DUP2 MSTORE PUSH1 0x4 ADD PUSH2 0x1A55 SWAP1 PUSH2 0x3776 JUMP JUMPDEST PUSH1 0x40 MLOAD DUP1 SWAP2 SUB SWAP1 REVERT JUMPDEST DUP1 SWAP2 POP POP SWAP3 SWAP2 POP POP JUMP JUMPDEST PUSH1 0x0 PUSH1 0x1D SLOAD PUSH1 0x2 PUSH2 0x1A79 SWAP2 SWAP1 PUSH2 0x31B5 JUMP JUMPDEST PUSH1 0x1C SLOAD PUSH2 0x1A86 SWAP2 SWAP1 PUSH2 0x2D69 JUMP JUMPDEST SWAP1 POP SWAP1 JUMP JUMPDEST PUSH1 0x0 DUP1 CALLER GASPRICE NUMBER TIMESTAMP PREVRANDAO PUSH1 0x1 NUMBER PUSH2 0x1AA0 SWAP2 SWAP1 PUSH2 0x2D9A JUMP JUMPDEST BLOCKHASH ADDRESS PUSH1 0x40 MLOAD PUSH1 0x20 ADD PUSH2 0x1AB8 SWAP8 SWAP7 SWAP6 SWAP5 SWAP4 SWAP3 SWAP2 SWAP1 PUSH2 0x3796 JUMP JUMPDEST PUSH1 0x40 MLOAD PUSH1 0x20 DUP2 DUP4 SUB SUB DUP2 MSTORE SWAP1 PUSH1 0x40 MSTORE DUP1 MLOAD SWAP1 PUSH1 0x20 ADD KECCAK256 PUSH1 0x0 SHR SWAP1 POP DUP1 SWAP2 POP POP SWAP1 JUMP JUMPDEST PUSH2 0x1AE4 DUP3 DUP3 PUSH2 0x1EAC JUMP JUMPDEST PUSH1 0x0 DUP3 PUSH20 0xFFFFFFFFFFFFFFFFFFFFFFFFFFFFFFFFFFFFFFFF AND EXTCODESIZE EQ DUP1 PUSH2 0x1BCE JUMPI POP PUSH4 0x150B7A02 PUSH1 0xE0 SHL PUSH28 0xFFFFFFFFFFFFFFFFFFFFFFFFFFFFFFFFFFFFFFFFFFFFFFFFFFFFFFFF NOT AND DUP3 PUSH20 0xFFFFFFFFFFFFFFFFFFFFFFFFFFFFFFFFFFFFFFFF AND PUSH4 0x150B7A02 CALLER PUSH1 0x0 DUP6 PUSH1 0x40 MLOAD DUP5 PUSH4 0xFFFFFFFF AND PUSH1 0xE0 SHL DUP2 MSTORE PUSH1 0x4 ADD PUSH2 0x1B6A SWAP4 SWAP3 SWAP2 SWAP1 PUSH2 0x2F8A JUMP JUMPDEST PUSH1 0x20 PUSH1 0x40 MLOAD DUP1 DUP4 SUB DUP2 PUSH1 0x0 DUP8 GAS CALL ISZERO DUP1 ISZERO PUSH2 0x1B89 JUMPI RETURNDATASIZE PUSH1 0x0 DUP1 RETURNDATACOPY RETURNDATASIZE PUSH1 0x0 REVERT JUMPDEST POP POP POP POP PUSH1 0x40 MLOAD RETURNDATASIZE PUSH1 0x1F NOT PUSH1 0x1F DUP3 ADD AND DUP3 ADD DUP1 PUSH1 0x40 MSTORE POP DUP2 ADD SWAP1 PUSH2 0x1BAD SWAP2 SWAP1 PUSH2 0x2FE9 JUMP JUMPDEST PUSH28 0xFFFFFFFFFFFFFFFFFFFFFFFFFFFFFFFFFFFFFFFFFFFFFFFFFFFFFFFF NOT AND EQ JUMPDEST PUSH2 0x1C0D JUMPI PUSH1 0x40 MLOAD PUSH32 0x8C379A000000000000000000000000000000000000000000000000000000000 DUP2 MSTORE PUSH1 0x4 ADD PUSH2 0x1C04 SWAP1 PUSH2 0x3062 JUMP JUMPDEST PUSH1 0x40 MLOAD DUP1 SWAP2 SUB SWAP1 REVERT JUMPDEST POP POP JUMP JUMPDEST PUSH1 0x0 PUSH1 0x1E SLOAD DUP3 PUSH1 0x2 SLOAD PUSH2 0x1C24 SWAP2 SWAP1 PUSH2 0x2DCE JUMP JUMPDEST GT ISZERO PUSH2 0x1C40 JUMPI PUSH1 0x1 PUSH1 0x1D SLOAD PUSH2 0x1C39 SWAP2 SWAP1 PUSH2 0x2DCE JUMP JUMPDEST PUSH1 0x1D DUP2 SWAP1 SSTORE POP JUMPDEST PUSH1 0x12 PUSH1 0x0 DUP2 SLOAD PUSH2 0x1C4F SWAP1 PUSH2 0x2E33 JUMP JUMPDEST SWAP2 SWAP1 POP DUP2 SWAP1 SSTORE PUSH1 0x12 DUP2 SWAP1 SSTORE POP PUSH1 0x0 PUSH1 0x13 SLOAD PUSH1 0x12 SLOAD PUSH2 0x1C6D SWAP2 SWAP1 PUSH2 0x2E02 JUMP JUMPDEST SUB PUSH2 0x1C7C JUMPI PUSH2 0x1C7A PUSH2 0x20BE JUMP JUMPDEST POP JUMPDEST PUSH1 0x1 NUMBER PUSH2 0x1C89 SWAP2 SWAP1 PUSH2 0x2D9A JUMP JUMPDEST BLOCKHASH PUSH1 0x0 DUP2 SWAP1 SSTORE POP PUSH1 0x12 SLOAD SWAP1 POP SWAP2 SWAP1 POP JUMP JUMPDEST PUSH2 0x1CA2 PUSH2 0x222A JUMP JUMPDEST PUSH20 0xFFFFFFFFFFFFFFFFFFFFFFFFFFFFFFFFFFFFFFFF AND PUSH2 0x1CC0 PUSH2 0x1524 JUMP JUMPDEST PUSH20 0xFFFFFFFFFFFFFFFFFFFFFFFFFFFFFFFFFFFFFFFF AND EQ PUSH2 0x1D16 JUMPI PUSH1 0x40 MLOAD PUSH32 0x8C379A000000000000000000000000000000000000000000000000000000000 DUP2 MSTORE PUSH1 0x4 ADD PUSH2 0x1D0D SWAP1 PUSH2 0x3851 JUMP JUMPDEST PUSH1 0x40 MLOAD DUP1 SWAP2 SUB SWAP1 REVERT JUMPDEST JUMP JUMPDEST PUSH1 0x0 PUSH1 0xD PUSH1 0x0 SWAP1 SLOAD SWAP1 PUSH2 0x100 EXP SWAP1 DIV PUSH20 0xFFFFFFFFFFFFFFFFFFFFFFFFFFFFFFFFFFFFFFFF AND SWAP1 POP DUP2 PUSH1 0xD PUSH1 0x0 PUSH2 0x100 EXP DUP2 SLOAD DUP2 PUSH20 0xFFFFFFFFFFFFFFFFFFFFFFFFFFFFFFFFFFFFFFFF MUL NOT AND SWAP1 DUP4 PUSH20 0xFFFFFFFFFFFFFFFFFFFFFFFFFFFFFFFFFFFFFFFF AND MUL OR SWAP1 SSTORE POP DUP2 PUSH20 0xFFFFFFFFFFFFFFFFFFFFFFFFFFFFFFFFFFFFFFFF AND DUP2 PUSH20 0xFFFFFFFFFFFFFFFFFFFFFFFFFFFFFFFFFFFFFFFF AND PUSH32 0x8BE0079C531659141344CD1FD0A4F28419497F9722A3DAAFE3B4186F6B6457E0 PUSH1 0x40 MLOAD PUSH1 0x40 MLOAD DUP1 SWAP2 SUB SWAP1 LOG3 POP POP JUMP JUMPDEST PUSH1 0x60 PUSH1 0x0 PUSH1 0x1 PUSH2 0x1DED DUP5 PUSH2 0x2232 JUMP JUMPDEST ADD SWAP1 POP PUSH1 0x0 DUP2 PUSH8 0xFFFFFFFFFFFFFFFF DUP2 GT ISZERO PUSH2 0x1E0C JUMPI PUSH2 0x1E0B PUSH2 0x281D JUMP JUMPDEST JUMPDEST PUSH1 0x40 MLOAD SWAP1 DUP1 DUP3 MSTORE DUP1 PUSH1 0x1F ADD PUSH1 0x1F NOT AND PUSH1 0x20 ADD DUP3 ADD PUSH1 0x40 MSTORE DUP1 ISZERO PUSH2 0x1E3E JUMPI DUP2 PUSH1 0x20 ADD PUSH1 0x1 DUP3 MUL DUP1 CALLDATASIZE DUP4 CALLDATACOPY DUP1 DUP3 ADD SWAP2 POP POP SWAP1 POP JUMPDEST POP SWAP1 POP PUSH1 0x0 DUP3 PUSH1 0x20 ADD DUP3 ADD SWAP1 POP JUMPDEST PUSH1 0x1 ISZERO PUSH2 0x1EA1 JUMPI DUP1 DUP1 PUSH1 0x1 SWAP1 SUB SWAP2 POP POP PUSH32 0x3031323334353637383961626364656600000000000000000000000000000000 PUSH1 0xA DUP7 MOD BYTE DUP2 MSTORE8 PUSH1 0xA DUP6 DUP2 PUSH2 0x1E95 JUMPI PUSH2 0x1E94 PUSH2 0x2D3A JUMP JUMPDEST JUMPDEST DIV SWAP5 POP PUSH1 0x0 DUP6 SUB PUSH2 0x1E4C JUMPI JUMPDEST DUP2 SWAP4 POP POP POP POP SWAP2 SWAP1 POP JUMP JUMPDEST PUSH1 0x0 PUSH20 0xFFFFFFFFFFFFFFFFFFFFFFFFFFFFFFFFFFFFFFFF AND DUP3 PUSH20 0xFFFFFFFFFFFFFFFFFFFFFFFFFFFFFFFFFFFFFFFF AND SUB PUSH2 0x1F1B JUMPI PUSH1 0x40 MLOAD PUSH32 0x8C379A000000000000000000000000000000000000000000000000000000000 DUP2 MSTORE PUSH1 0x4 ADD PUSH2 0x1F12 SWAP1 PUSH2 0x2F33 JUMP JUMPDEST PUSH1 0x40 MLOAD DUP1 SWAP2 SUB SWAP1 REVERT JUMPDEST PUSH1 0x0 PUSH20 0xFFFFFFFFFFFFFFFFFFFFFFFFFFFFFFFFFFFFFFFF AND PUSH1 0x9 PUSH1 0x0 DUP4 DUP2 MSTORE PUSH1 0x20 ADD SWAP1 DUP2 MSTORE PUSH1 0x20 ADD PUSH1 0x0 KECCAK256 PUSH1 0x0 SWAP1 SLOAD SWAP1 PUSH2 0x100 EXP SWAP1 DIV PUSH20 0xFFFFFFFFFFFFFFFFFFFFFFFFFFFFFFFFFFFFFFFF AND PUSH20 0xFFFFFFFFFFFFFFFFFFFFFFFFFFFFFFFFFFFFFFFF AND EQ PUSH2 0x1FBD JUMPI PUSH1 0x40 MLOAD PUSH32 0x8C379A000000000000000000000000000000000000000000000000000000000 DUP2 MSTORE PUSH1 0x4 ADD PUSH2 0x1FB4 SWAP1 PUSH2 0x38BD JUMP JUMPDEST PUSH1 0x40 MLOAD DUP1 SWAP2 SUB SWAP1 REVERT JUMPDEST PUSH1 0xA PUSH1 0x0 DUP4 PUSH20 0xFFFFFFFFFFFFFFFFFFFFFFFFFFFFFFFFFFFFFFFF AND PUSH20 0xFFFFFFFFFFFFFFFFFFFFFFFFFFFFFFFFFFFFFFFF AND DUP2 MSTORE PUSH1 0x20 ADD SWAP1 DUP2 MSTORE PUSH1 0x20 ADD PUSH1 0x0 KECCAK256 PUSH1 0x0 DUP2 SLOAD DUP1 SWAP3 SWAP2 SWAP1 PUSH1 0x1 ADD SWAP2 SWAP1 POP SSTORE POP DUP2 PUSH1 0x9 PUSH1 0x0 DUP4 DUP2 MSTORE PUSH1 0x20 ADD SWAP1 DUP2 MSTORE PUSH1 0x20 ADD PUSH1 0x0 KECCAK256 PUSH1 0x0 PUSH2 0x100 EXP DUP2 SLOAD DUP2 PUSH20 0xFFFFFFFFFFFFFFFFFFFFFFFFFFFFFFFFFFFFFFFF MUL NOT AND SWAP1 DUP4 PUSH20 0xFFFFFFFFFFFFFFFFFFFFFFFFFFFFFFFFFFFFFFFF AND MUL OR SWAP1 SSTORE POP DUP1 DUP3 PUSH20 0xFFFFFFFFFFFFFFFFFFFFFFFFFFFFFFFFFFFFFFFF AND PUSH1 0x0 PUSH20 0xFFFFFFFFFFFFFFFFFFFFFFFFFFFFFFFFFFFFFFFF AND PUSH32 0xDDF252AD1BE2C89B69C2B068FC378DAA952BA7F163C4A11628F55A4DF523B3EF PUSH1 0x40 MLOAD PUSH1 0x40 MLOAD DUP1 SWAP2 SUB SWAP1 LOG4 POP POP JUMP JUMPDEST PUSH1 0x0 DUP1 PUSH1 0x13 SLOAD PUSH1 0x12 SLOAD PUSH2 0x20D1 SWAP2 SWAP1 PUSH2 0x2E02 JUMP JUMPDEST EQ PUSH2 0x20E0 JUMPI PUSH1 0x1 SLOAD SWAP1 POP PUSH2 0x2227 JUMP JUMPDEST PUSH1 0x0 PUSH1 0x15 SLOAD NUMBER PUSH2 0x20F0 SWAP2 SWAP1 PUSH2 0x2D9A JUMP JUMPDEST SWAP1 POP PUSH1 0x0 PUSH1 0x13 SLOAD SWAP1 POP PUSH1 0x0 PUSH1 0x14 SLOAD DUP3 PUSH2 0x2109 SWAP2 SWAP1 PUSH2 0x2CF8 JUMP JUMPDEST SWAP1 POP DUP1 DUP4 LT ISZERO PUSH2 0x2181 JUMPI PUSH1 0x0 DUP4 PUSH1 0x1A SLOAD DUP4 PUSH2 0x2124 SWAP2 SWAP1 PUSH2 0x2CF8 JUMP JUMPDEST PUSH2 0x212E SWAP2 SWAP1 PUSH2 0x2D69 JUMP JUMPDEST SWAP1 POP PUSH1 0x0 PUSH2 0x214A PUSH1 0x64 DUP4 PUSH2 0x2142 SWAP2 SWAP1 PUSH2 0x2D9A JUMP JUMPDEST PUSH1 0x19 SLOAD PUSH2 0x2385 JUMP JUMPDEST SWAP1 POP PUSH1 0x18 SLOAD DUP2 PUSH1 0x1 SLOAD PUSH2 0x215D SWAP2 SWAP1 PUSH2 0x2CF8 JUMP JUMPDEST PUSH2 0x2167 SWAP2 SWAP1 PUSH2 0x2D69 JUMP JUMPDEST PUSH1 0x1 SLOAD PUSH2 0x2174 SWAP2 SWAP1 PUSH2 0x2D9A JUMP JUMPDEST PUSH1 0x1 DUP2 SWAP1 SSTORE POP POP POP PUSH2 0x21EB JUMP JUMPDEST PUSH1 0x0 DUP2 PUSH1 0x1A SLOAD DUP6 PUSH2 0x2192 SWAP2 SWAP1 PUSH2 0x2CF8 JUMP JUMPDEST PUSH2 0x219C SWAP2 SWAP1 PUSH2 0x2D69 JUMP JUMPDEST SWAP1 POP PUSH1 0x0 PUSH2 0x21B8 PUSH1 0x64 DUP4 PUSH2 0x21B0 SWAP2 SWAP1 PUSH2 0x2D9A JUMP JUMPDEST PUSH1 0x19 SLOAD PUSH2 0x2385 JUMP JUMPDEST SWAP1 POP PUSH1 0x18 SLOAD DUP2 PUSH1 0x1 SLOAD PUSH2 0x21CB SWAP2 SWAP1 PUSH2 0x2CF8 JUMP JUMPDEST PUSH2 0x21D5 SWAP2 SWAP1 PUSH2 0x2D69 JUMP JUMPDEST PUSH1 0x1 SLOAD PUSH2 0x21E2 SWAP2 SWAP1 PUSH2 0x2DCE JUMP JUMPDEST PUSH1 0x1 DUP2 SWAP1 SSTORE POP POP POP JUMPDEST NUMBER PUSH1 0x15 DUP2 SWAP1 SSTORE POP PUSH1 0x16 SLOAD PUSH1 0x1 SLOAD LT ISZERO PUSH2 0x2208 JUMPI PUSH1 0x16 SLOAD PUSH1 0x1 DUP2 SWAP1 SSTORE POP JUMPDEST PUSH1 0x17 SLOAD PUSH1 0x1 SLOAD GT ISZERO PUSH2 0x221E JUMPI PUSH1 0x17 SLOAD PUSH1 0x1 DUP2 SWAP1 SSTORE POP JUMPDEST PUSH1 0x1 SLOAD SWAP4 POP POP POP POP JUMPDEST SWAP1 JUMP JUMPDEST PUSH1 0x0 CALLER SWAP1 POP SWAP1 JUMP JUMPDEST PUSH1 0x0 DUP1 PUSH1 0x0 SWAP1 POP PUSH27 0x184F03E93FF9F4DAA797ED6E38ED64BF6A1F010000000000000000 DUP4 LT PUSH2 0x2290 JUMPI PUSH27 0x184F03E93FF9F4DAA797ED6E38ED64BF6A1F010000000000000000 DUP4 DUP2 PUSH2 0x2286 JUMPI PUSH2 0x2285 PUSH2 0x2D3A JUMP JUMPDEST JUMPDEST DIV SWAP3 POP PUSH1 0x40 DUP2 ADD SWAP1 POP JUMPDEST PUSH14 0x4EE2D6D415B85ACEF8100000000 DUP4 LT PUSH2 0x22CD JUMPI PUSH14 0x4EE2D6D415B85ACEF8100000000 DUP4 DUP2 PUSH2 0x22C3 JUMPI PUSH2 0x22C2 PUSH2 0x2D3A JUMP JUMPDEST JUMPDEST DIV SWAP3 POP PUSH1 0x20 DUP2 ADD SWAP1 POP JUMPDEST PUSH7 0x2386F26FC10000 DUP4 LT PUSH2 0x22FC JUMPI PUSH7 0x2386F26FC10000 DUP4 DUP2 PUSH2 0x22F2 JUMPI PUSH2 0x22F1 PUSH2 0x2D3A JUMP JUMPDEST JUMPDEST DIV SWAP3 POP PUSH1 0x10 DUP2 ADD SWAP1 POP JUMPDEST PUSH4 0x5F5E100 DUP4 LT PUSH2 0x2325 JUMPI PUSH4 0x5F5E100 DUP4 DUP2 PUSH2 0x231B JUMPI PUSH2 0x231A PUSH2 0x2D3A JUMP JUMPDEST JUMPDEST DIV SWAP3 POP PUSH1 0x8 DUP2 ADD SWAP1 POP JUMPDEST PUSH2 0x2710 DUP4 LT PUSH2 0x234A JUMPI PUSH2 0x2710 DUP4 DUP2 PUSH2 0x2340 JUMPI PUSH2 0x233F PUSH2 0x2D3A JUMP JUMPDEST JUMPDEST DIV SWAP3 POP PUSH1 0x4 DUP2 ADD SWAP1 POP JUMPDEST PUSH1 0x64 DUP4 LT PUSH2 0x236D JUMPI PUSH1 0x64 DUP4 DUP2 PUSH2 0x2363 JUMPI PUSH2 0x2362 PUSH2 0x2D3A JUMP JUMPDEST JUMPDEST DIV SWAP3 POP PUSH1 0x2 DUP2 ADD SWAP1 POP JUMPDEST PUSH1 0xA DUP4 LT PUSH2 0x237C JUMPI PUSH1 0x1 DUP2 ADD SWAP1 POP JUMPDEST DUP1 SWAP2 POP POP SWAP2 SWAP1 POP JUMP JUMPDEST PUSH1 0x0 DUP2 DUP4 GT ISZERO PUSH2 0x2397 JUMPI DUP2 SWAP1 POP PUSH2 0x239B JUMP JUMPDEST DUP3 SWAP1 POP JUMPDEST SWAP3 SWAP2 POP POP JUMP JUMPDEST PUSH1 0x0 DUP2 SWAP1 POP SWAP2 SWAP1 POP JUMP JUMPDEST PUSH2 0x23B4 DUP2 PUSH2 0x23A1 JUMP JUMPDEST DUP3 MSTORE POP POP JUMP JUMPDEST PUSH1 0x0 PUSH1 0x20 DUP3 ADD SWAP1 POP PUSH2 0x23CF PUSH1 0x0 DUP4 ADD DUP5 PUSH2 0x23AB JUMP JUMPDEST SWAP3 SWAP2 POP POP JUMP JUMPDEST PUSH1 0x0 PUSH1 0x40 MLOAD SWAP1 POP SWAP1 JUMP JUMPDEST PUSH1 0x0 DUP1 REVERT JUMPDEST PUSH1 0x0 DUP1 REVERT JUMPDEST PUSH1 0x0 PUSH32 0xFFFFFFFF00000000000000000000000000000000000000000000000000000000 DUP3 AND SWAP1 POP SWAP2 SWAP1 POP JUMP JUMPDEST PUSH2 0x241E DUP2 PUSH2 0x23E9 JUMP JUMPDEST DUP2 EQ PUSH2 0x2429 JUMPI PUSH1 0x0 DUP1 REVERT JUMPDEST POP JUMP JUMPDEST PUSH1 0x0 DUP2 CALLDATALOAD SWAP1 POP PUSH2 0x243B DUP2 PUSH2 0x2415 JUMP JUMPDEST SWAP3 SWAP2 POP POP JUMP JUMPDEST PUSH1 0x0 PUSH1 0x20 DUP3 DUP5 SUB SLT ISZERO PUSH2 0x2457 JUMPI PUSH2 0x2456 PUSH2 0x23DF JUMP JUMPDEST JUMPDEST PUSH1 0x0 PUSH2 0x2465 DUP5 DUP3 DUP6 ADD PUSH2 0x242C JUMP JUMPDEST SWAP2 POP POP SWAP3 SWAP2 POP POP JUMP JUMPDEST PUSH1 0x0 DUP2 ISZERO ISZERO SWAP1 POP SWAP2 SWAP1 POP JUMP JUMPDEST PUSH2 0x2483 DUP2 PUSH2 0x246E JUMP JUMPDEST DUP3 MSTORE POP POP JUMP JUMPDEST PUSH1 0x0 PUSH1 0x20 DUP3 ADD SWAP1 POP PUSH2 0x249E PUSH1 0x0 DUP4 ADD DUP5 PUSH2 0x247A JUMP JUMPDEST SWAP3 SWAP2 POP POP JUMP JUMPDEST PUSH1 0x0 DUP2 MLOAD SWAP1 POP SWAP2 SWAP1 POP JUMP JUMPDEST PUSH1 0x0 DUP3 DUP3 MSTORE PUSH1 0x20 DUP3 ADD SWAP1 POP SWAP3 SWAP2 POP POP JUMP JUMPDEST PUSH1 0x0 JUMPDEST DUP4 DUP2 LT ISZERO PUSH2 0x24DE JUMPI DUP1 DUP3 ADD MLOAD DUP2 DUP5 ADD MSTORE PUSH1 0x20 DUP2 ADD SWAP1 POP PUSH2 0x24C3 JUMP JUMPDEST PUSH1 0x0 DUP5 DUP5 ADD MSTORE POP POP POP POP JUMP JUMPDEST PUSH1 0x0 PUSH1 0x1F NOT PUSH1 0x1F DUP4 ADD AND SWAP1 POP SWAP2 SWAP1 POP JUMP JUMPDEST PUSH1 0x0 PUSH2 0x2506 DUP3 PUSH2 0x24A4 JUMP JUMPDEST PUSH2 0x2510 DUP2 DUP6 PUSH2 0x24AF JUMP JUMPDEST SWAP4 POP PUSH2 0x2520 DUP2 DUP6 PUSH1 0x20 DUP7 ADD PUSH2 0x24C0 JUMP JUMPDEST PUSH2 0x2529 DUP2 PUSH2 0x24EA JUMP JUMPDEST DUP5 ADD SWAP2 POP POP SWAP3 SWAP2 POP POP JUMP JUMPDEST PUSH1 0x0 PUSH1 0x20 DUP3 ADD SWAP1 POP DUP2 DUP2 SUB PUSH1 0x0 DUP4 ADD MSTORE PUSH2 0x254E DUP2 DUP5 PUSH2 0x24FB JUMP JUMPDEST SWAP1 POP SWAP3 SWAP2 POP POP JUMP JUMPDEST PUSH2 0x255F DUP2 PUSH2 0x23A1 JUMP JUMPDEST DUP2 EQ PUSH2 0x256A JUMPI PUSH1 0x0 DUP1 REVERT JUMPDEST POP JUMP JUMPDEST PUSH1 0x0 DUP2 CALLDATALOAD SWAP1 POP PUSH2 0x257C DUP2 PUSH2 0x2556 JUMP JUMPDEST SWAP3 SWAP2 POP POP JUMP JUMPDEST PUSH1 0x0 PUSH1 0x20 DUP3 DUP5 SUB SLT ISZERO PUSH2 0x2598 JUMPI PUSH2 0x2597 PUSH2 0x23DF JUMP JUMPDEST JUMPDEST PUSH1 0x0 PUSH2 0x25A6 DUP5 DUP3 DUP6 ADD PUSH2 0x256D JUMP JUMPDEST SWAP2 POP POP SWAP3 SWAP2 POP POP JUMP JUMPDEST PUSH1 0x0 PUSH20 0xFFFFFFFFFFFFFFFFFFFFFFFFFFFFFFFFFFFFFFFF DUP3 AND SWAP1 POP SWAP2 SWAP1 POP JUMP JUMPDEST PUSH1 0x0 PUSH2 0x25DA DUP3 PUSH2 0x25AF JUMP JUMPDEST SWAP1 POP SWAP2 SWAP1 POP JUMP JUMPDEST PUSH2 0x25EA DUP2 PUSH2 0x25CF JUMP JUMPDEST DUP3 MSTORE POP POP JUMP JUMPDEST PUSH1 0x0 PUSH1 0x20 DUP3 ADD SWAP1 POP PUSH2 0x2605 PUSH1 0x0 DUP4 ADD DUP5 PUSH2 0x25E1 JUMP JUMPDEST SWAP3 SWAP2 POP POP JUMP JUMPDEST PUSH2 0x2614 DUP2 PUSH2 0x25CF JUMP JUMPDEST DUP2 EQ PUSH2 0x261F JUMPI PUSH1 0x0 DUP1 REVERT JUMPDEST POP JUMP JUMPDEST PUSH1 0x0 DUP2 CALLDATALOAD SWAP1 POP PUSH2 0x2631 DUP2 PUSH2 0x260B JUMP JUMPDEST SWAP3 SWAP2 POP POP JUMP JUMPDEST PUSH1 0x0 DUP1 PUSH1 0x40 DUP4 DUP6 SUB SLT ISZERO PUSH2 0x264E JUMPI PUSH2 0x264D PUSH2 0x23DF JUMP JUMPDEST JUMPDEST PUSH1 0x0 PUSH2 0x265C DUP6 DUP3 DUP7 ADD PUSH2 0x2622 JUMP JUMPDEST SWAP3 POP POP PUSH1 0x20 PUSH2 0x266D DUP6 DUP3 DUP7 ADD PUSH2 0x256D JUMP JUMPDEST SWAP2 POP POP SWAP3 POP SWAP3 SWAP1 POP JUMP JUMPDEST PUSH1 0x0 DUP2 SWAP1 POP SWAP2 SWAP1 POP JUMP JUMPDEST PUSH2 0x268A DUP2 PUSH2 0x2677 JUMP JUMPDEST DUP2 EQ PUSH2 0x2695 JUMPI PUSH1 0x0 DUP1 REVERT JUMPDEST POP JUMP JUMPDEST PUSH1 0x0 DUP2 CALLDATALOAD SWAP1 POP PUSH2 0x26A7 DUP2 PUSH2 0x2681 JUMP JUMPDEST SWAP3 SWAP2 POP POP JUMP JUMPDEST PUSH1 0x0 DUP1 PUSH1 0x40 DUP4 DUP6 SUB SLT ISZERO PUSH2 0x26C4 JUMPI PUSH2 0x26C3 PUSH2 0x23DF JUMP JUMPDEST JUMPDEST PUSH1 0x0 PUSH2 0x26D2 DUP6 DUP3 DUP7 ADD PUSH2 0x256D JUMP JUMPDEST SWAP3 POP POP PUSH1 0x20 PUSH2 0x26E3 DUP6 DUP3 DUP7 ADD PUSH2 0x2698 JUMP JUMPDEST SWAP2 POP POP SWAP3 POP SWAP3 SWAP1 POP JUMP JUMPDEST PUSH1 0x0 DUP1 PUSH1 0x0 PUSH1 0x60 DUP5 DUP7 SUB SLT ISZERO PUSH2 0x2706 JUMPI PUSH2 0x2705 PUSH2 0x23DF JUMP JUMPDEST JUMPDEST PUSH1 0x0 PUSH2 0x2714 DUP7 DUP3 DUP8 ADD PUSH2 0x2622 JUMP JUMPDEST SWAP4 POP POP PUSH1 0x20 PUSH2 0x2725 DUP7 DUP3 DUP8 ADD PUSH2 0x2622 JUMP JUMPDEST SWAP3 POP POP PUSH1 0x40 PUSH2 0x2736 DUP7 DUP3 DUP8 ADD PUSH2 0x256D JUMP JUMPDEST SWAP2 POP POP SWAP3 POP SWAP3 POP SWAP3 JUMP JUMPDEST PUSH1 0x0 PUSH1 0xFF DUP3 AND SWAP1 POP SWAP2 SWAP1 POP JUMP JUMPDEST PUSH2 0x2756 DUP2 PUSH2 0x2740 JUMP JUMPDEST DUP3 MSTORE POP POP JUMP JUMPDEST PUSH1 0x0 PUSH1 0x20 DUP3 ADD SWAP1 POP PUSH2 0x2771 PUSH1 0x0 DUP4 ADD DUP5 PUSH2 0x274D JUMP JUMPDEST SWAP3 SWAP2 POP POP JUMP JUMPDEST PUSH2 0x2780 DUP2 PUSH2 0x2677 JUMP JUMPDEST DUP3 MSTORE POP POP JUMP JUMPDEST PUSH1 0x0 PUSH1 0x20 DUP3 ADD SWAP1 POP PUSH2 0x279B PUSH1 0x0 DUP4 ADD DUP5 PUSH2 0x2777 JUMP JUMPDEST SWAP3 SWAP2 POP POP JUMP JUMPDEST PUSH1 0x0 PUSH1 0x20 DUP3 DUP5 SUB SLT ISZERO PUSH2 0x27B7 JUMPI PUSH2 0x27B6 PUSH2 0x23DF JUMP JUMPDEST JUMPDEST PUSH1 0x0 PUSH2 0x27C5 DUP5 DUP3 DUP6 ADD PUSH2 0x2622 JUMP JUMPDEST SWAP2 POP POP SWAP3 SWAP2 POP POP JUMP JUMPDEST PUSH1 0x0 PUSH1 0x80 DUP3 ADD SWAP1 POP PUSH2 0x27E3 PUSH1 0x0 DUP4 ADD DUP8 PUSH2 0x25E1 JUMP JUMPDEST PUSH2 0x27F0 PUSH1 0x20 DUP4 ADD DUP7 PUSH2 0x23AB JUMP JUMPDEST PUSH2 0x27FD PUSH1 0x40 DUP4 ADD DUP6 PUSH2 0x23AB JUMP JUMPDEST PUSH2 0x280A PUSH1 0x60 DUP4 ADD DUP5 PUSH2 0x23AB JUMP JUMPDEST SWAP6 SWAP5 POP POP POP POP POP JUMP JUMPDEST PUSH1 0x0 DUP1 REVERT JUMPDEST PUSH1 0x0 DUP1 REVERT JUMPDEST PUSH32 0x4E487B7100000000000000000000000000000000000000000000000000000000 PUSH1 0x0 MSTORE PUSH1 0x41 PUSH1 0x4 MSTORE PUSH1 0x24 PUSH1 0x0 REVERT JUMPDEST PUSH2 0x2855 DUP3 PUSH2 0x24EA JUMP JUMPDEST DUP2 ADD DUP2 DUP2 LT PUSH8 0xFFFFFFFFFFFFFFFF DUP3 GT OR ISZERO PUSH2 0x2874 JUMPI PUSH2 0x2873 PUSH2 0x281D JUMP JUMPDEST JUMPDEST DUP1 PUSH1 0x40 MSTORE POP POP POP JUMP JUMPDEST PUSH1 0x0 PUSH2 0x2887 PUSH2 0x23D5 JUMP JUMPDEST SWAP1 POP PUSH2 0x2893 DUP3 DUP3 PUSH2 0x284C JUMP JUMPDEST SWAP2 SWAP1 POP JUMP JUMPDEST PUSH1 0x0 PUSH8 0xFFFFFFFFFFFFFFFF DUP3 GT ISZERO PUSH2 0x28B3 JUMPI PUSH2 0x28B2 PUSH2 0x281D JUMP JUMPDEST JUMPDEST PUSH2 0x28BC DUP3 PUSH2 0x24EA JUMP JUMPDEST SWAP1 POP PUSH1 0x20 DUP2 ADD SWAP1 POP SWAP2 SWAP1 POP JUMP JUMPDEST DUP3 DUP2 DUP4 CALLDATACOPY PUSH1 0x0 DUP4 DUP4 ADD MSTORE POP POP POP JUMP JUMPDEST PUSH1 0x0 PUSH2 0x28EB PUSH2 0x28E6 DUP5 PUSH2 0x2898 JUMP JUMPDEST PUSH2 0x287D JUMP JUMPDEST SWAP1 POP DUP3 DUP2 MSTORE PUSH1 0x20 DUP2 ADD DUP5 DUP5 DUP5 ADD GT ISZERO PUSH2 0x2907 JUMPI PUSH2 0x2906 PUSH2 0x2818 JUMP JUMPDEST JUMPDEST PUSH2 0x2912 DUP5 DUP3 DUP6 PUSH2 0x28C9 JUMP JUMPDEST POP SWAP4 SWAP3 POP POP POP JUMP JUMPDEST PUSH1 0x0 DUP3 PUSH1 0x1F DUP4 ADD SLT PUSH2 0x292F JUMPI PUSH2 0x292E PUSH2 0x2813 JUMP JUMPDEST JUMPDEST DUP2 CALLDATALOAD PUSH2 0x293F DUP5 DUP3 PUSH1 0x20 DUP7 ADD PUSH2 0x28D8 JUMP JUMPDEST SWAP2 POP POP SWAP3 SWAP2 POP POP JUMP JUMPDEST PUSH1 0x0 PUSH1 0x20 DUP3 DUP5 SUB SLT ISZERO PUSH2 0x295E JUMPI PUSH2 0x295D PUSH2 0x23DF JUMP JUMPDEST JUMPDEST PUSH1 0x0 DUP3 ADD CALLDATALOAD PUSH8 0xFFFFFFFFFFFFFFFF DUP2 GT ISZERO PUSH2 0x297C JUMPI PUSH2 0x297B PUSH2 0x23E4 JUMP JUMPDEST JUMPDEST PUSH2 0x2988 DUP5 DUP3 DUP6 ADD PUSH2 0x291A JUMP JUMPDEST SWAP2 POP POP SWAP3 SWAP2 POP POP JUMP JUMPDEST PUSH2 0x299A DUP2 PUSH2 0x246E JUMP JUMPDEST DUP2 EQ PUSH2 0x29A5 JUMPI PUSH1 0x0 DUP1 REVERT JUMPDEST POP JUMP JUMPDEST PUSH1 0x0 DUP2 CALLDATALOAD SWAP1 POP PUSH2 0x29B7 DUP2 PUSH2 0x2991 JUMP JUMPDEST SWAP3 SWAP2 POP POP JUMP JUMPDEST PUSH1 0x0 DUP1 PUSH1 0x40 DUP4 DUP6 SUB SLT ISZERO PUSH2 0x29D4 JUMPI PUSH2 0x29D3 PUSH2 0x23DF JUMP JUMPDEST JUMPDEST PUSH1 0x0 PUSH2 0x29E2 DUP6 DUP3 DUP7 ADD PUSH2 0x2622 JUMP JUMPDEST SWAP3 POP POP PUSH1 0x20 PUSH2 0x29F3 DUP6 DUP3 DUP7 ADD PUSH2 0x29A8 JUMP JUMPDEST SWAP2 POP POP SWAP3 POP SWAP3 SWAP1 POP JUMP JUMPDEST PUSH1 0x0 DUP1 REVERT JUMPDEST PUSH1 0x0 DUP1 REVERT JUMPDEST PUSH1 0x0 DUP1 DUP4 PUSH1 0x1F DUP5 ADD SLT PUSH2 0x2A1D JUMPI PUSH2 0x2A1C PUSH2 0x2813 JUMP JUMPDEST JUMPDEST DUP3 CALLDATALOAD SWAP1 POP PUSH8 0xFFFFFFFFFFFFFFFF DUP2 GT ISZERO PUSH2 0x2A3A JUMPI PUSH2 0x2A39 PUSH2 0x29FD JUMP JUMPDEST JUMPDEST PUSH1 0x20 DUP4 ADD SWAP2 POP DUP4 PUSH1 0x1 DUP3 MUL DUP4 ADD GT ISZERO PUSH2 0x2A56 JUMPI PUSH2 0x2A55 PUSH2 0x2A02 JUMP JUMPDEST JUMPDEST SWAP3 POP SWAP3 SWAP1 POP JUMP JUMPDEST PUSH1 0x0 DUP1 PUSH1 0x0 DUP1 PUSH1 0x0 PUSH1 0x80 DUP7 DUP9 SUB SLT ISZERO PUSH2 0x2A79 JUMPI PUSH2 0x2A78 PUSH2 0x23DF JUMP JUMPDEST JUMPDEST PUSH1 0x0 PUSH2 0x2A87 DUP9 DUP3 DUP10 ADD PUSH2 0x2622 JUMP JUMPDEST SWAP6 POP POP PUSH1 0x20 PUSH2 0x2A98 DUP9 DUP3 DUP10 ADD PUSH2 0x2622 JUMP JUMPDEST SWAP5 POP POP PUSH1 0x40 PUSH2 0x2AA9 DUP9 DUP3 DUP10 ADD PUSH2 0x256D JUMP JUMPDEST SWAP4 POP POP PUSH1 0x60 DUP7 ADD CALLDATALOAD PUSH8 0xFFFFFFFFFFFFFFFF DUP2 GT ISZERO PUSH2 0x2ACA JUMPI PUSH2 0x2AC9 PUSH2 0x23E4 JUMP JUMPDEST JUMPDEST PUSH2 0x2AD6 DUP9 DUP3 DUP10 ADD PUSH2 0x2A07 JUMP JUMPDEST SWAP3 POP SWAP3 POP POP SWAP3 SWAP6 POP SWAP3 SWAP6 SWAP1 SWAP4 POP JUMP JUMPDEST PUSH1 0x0 DUP1 PUSH1 0x40 DUP4 DUP6 SUB SLT ISZERO PUSH2 0x2AFC JUMPI PUSH2 0x2AFB PUSH2 0x23DF JUMP JUMPDEST JUMPDEST PUSH1 0x0 PUSH2 0x2B0A DUP6 DUP3 DUP7 ADD PUSH2 0x2622 JUMP JUMPDEST SWAP3 POP POP PUSH1 0x20 PUSH2 0x2B1B DUP6 DUP3 DUP7 ADD PUSH2 0x2622 JUMP JUMPDEST SWAP2 POP POP SWAP3 POP SWAP3 SWAP1 POP JUMP JUMPDEST PUSH32 0x4E487B7100000000000000000000000000000000000000000000000000000000 PUSH1 0x0 MSTORE PUSH1 0x22 PUSH1 0x4 MSTORE PUSH1 0x24 PUSH1 0x0 REVERT JUMPDEST PUSH1 0x0 PUSH1 0x2 DUP3 DIV SWAP1 POP PUSH1 0x1 DUP3 AND DUP1 PUSH2 0x2B6C JUMPI PUSH1 0x7F DUP3 AND SWAP2 POP JUMPDEST PUSH1 0x20 DUP3 LT DUP2 SUB PUSH2 0x2B7F JUMPI PUSH2 0x2B7E PUSH2 0x2B25 JUMP JUMPDEST JUMPDEST POP SWAP2 SWAP1 POP JUMP JUMPDEST PUSH32 0x4E4F545F415554484F52495A4544000000000000000000000000000000000000 PUSH1 0x0 DUP3 ADD MSTORE POP JUMP JUMPDEST PUSH1 0x0 PUSH2 0x2BBB PUSH1 0xE DUP4 PUSH2 0x24AF JUMP JUMPDEST SWAP2 POP PUSH2 0x2BC6 DUP3 PUSH2 0x2B85 JUMP JUMPDEST PUSH1 0x20 DUP3 ADD SWAP1 POP SWAP2 SWAP1 POP JUMP JUMPDEST PUSH1 0x0 PUSH1 0x20 DUP3 ADD SWAP1 POP DUP2 DUP2 SUB PUSH1 0x0 DUP4 ADD MSTORE PUSH2 0x2BEA DUP2 PUSH2 0x2BAE JUMP JUMPDEST SWAP1 POP SWAP2 SWAP1 POP JUMP JUMPDEST PUSH32 0x4E6F6E636520696E636F72726563740000000000000000000000000000000000 PUSH1 0x0 DUP3 ADD MSTORE POP JUMP JUMPDEST PUSH1 0x0 PUSH2 0x2C27 PUSH1 0xF DUP4 PUSH2 0x24AF JUMP JUMPDEST SWAP2 POP PUSH2 0x2C32 DUP3 PUSH2 0x2BF1 JUMP JUMPDEST PUSH1 0x20 DUP3 ADD SWAP1 POP SWAP2 SWAP1 POP JUMP JUMPDEST PUSH1 0x0 PUSH1 0x20 DUP3 ADD SWAP1 POP DUP2 DUP2 SUB PUSH1 0x0 DUP4 ADD MSTORE PUSH2 0x2C56 DUP2 PUSH2 0x2C1A JUMP JUMPDEST SWAP1 POP SWAP2 SWAP1 POP JUMP JUMPDEST PUSH32 0x536F6C7574696F6E206578697374000000000000000000000000000000000000 PUSH1 0x0 DUP3 ADD MSTORE POP JUMP JUMPDEST PUSH1 0x0 PUSH2 0x2C93 PUSH1 0xE DUP4 PUSH2 0x24AF JUMP JUMPDEST SWAP2 POP PUSH2 0x2C9E DUP3 PUSH2 0x2C5D JUMP JUMPDEST PUSH1 0x20 DUP3 ADD SWAP1 POP SWAP2 SWAP1 POP JUMP JUMPDEST PUSH1 0x0 PUSH1 0x20 DUP3 ADD SWAP1 POP DUP2 DUP2 SUB PUSH1 0x0 DUP4 ADD MSTORE PUSH2 0x2CC2 DUP2 PUSH2 0x2C86 JUMP JUMPDEST SWAP1 POP SWAP2 SWAP1 POP JUMP JUMPDEST PUSH32 0x4E487B7100000000000000000000000000000000000000000000000000000000 PUSH1 0x0 MSTORE PUSH1 0x11 PUSH1 0x4 MSTORE PUSH1 0x24 PUSH1 0x0 REVERT JUMPDEST PUSH1 0x0 PUSH2 0x2D03 DUP3 PUSH2 0x23A1 JUMP JUMPDEST SWAP2 POP PUSH2 0x2D0E DUP4 PUSH2 0x23A1 JUMP JUMPDEST SWAP3 POP DUP3 DUP3 MUL PUSH2 0x2D1C DUP2 PUSH2 0x23A1 JUMP JUMPDEST SWAP2 POP DUP3 DUP3 DIV DUP5 EQ DUP4 ISZERO OR PUSH2 0x2D33 JUMPI PUSH2 0x2D32 PUSH2 0x2CC9 JUMP JUMPDEST JUMPDEST POP SWAP3 SWAP2 POP POP JUMP JUMPDEST PUSH32 0x4E487B7100000000000000000000000000000000000000000000000000000000 PUSH1 0x0 MSTORE PUSH1 0x12 PUSH1 0x4 MSTORE PUSH1 0x24 PUSH1 0x0 REVERT JUMPDEST PUSH1 0x0 PUSH2 0x2D74 DUP3 PUSH2 0x23A1 JUMP JUMPDEST SWAP2 POP PUSH2 0x2D7F DUP4 PUSH2 0x23A1 JUMP JUMPDEST SWAP3 POP DUP3 PUSH2 0x2D8F JUMPI PUSH2 0x2D8E PUSH2 0x2D3A JUMP JUMPDEST JUMPDEST DUP3 DUP3 DIV SWAP1 POP SWAP3 SWAP2 POP POP JUMP JUMPDEST PUSH1 0x0 PUSH2 0x2DA5 DUP3 PUSH2 0x23A1 JUMP JUMPDEST SWAP2 POP PUSH2 0x2DB0 DUP4 PUSH2 0x23A1 JUMP JUMPDEST SWAP3 POP DUP3 DUP3 SUB SWAP1 POP DUP2 DUP2 GT ISZERO PUSH2 0x2DC8 JUMPI PUSH2 0x2DC7 PUSH2 0x2CC9 JUMP JUMPDEST JUMPDEST SWAP3 SWAP2 POP POP JUMP JUMPDEST PUSH1 0x0 PUSH2 0x2DD9 DUP3 PUSH2 0x23A1 JUMP JUMPDEST SWAP2 POP PUSH2 0x2DE4 DUP4 PUSH2 0x23A1 JUMP JUMPDEST SWAP3 POP DUP3 DUP3 ADD SWAP1 POP DUP1 DUP3 GT ISZERO PUSH2 0x2DFC JUMPI PUSH2 0x2DFB PUSH2 0x2CC9 JUMP JUMPDEST JUMPDEST SWAP3 SWAP2 POP POP JUMP JUMPDEST PUSH1 0x0 PUSH2 0x2E0D DUP3 PUSH2 0x23A1 JUMP JUMPDEST SWAP2 POP PUSH2 0x2E18 DUP4 PUSH2 0x23A1 JUMP JUMPDEST SWAP3 POP DUP3 PUSH2 0x2E28 JUMPI PUSH2 0x2E27 PUSH2 0x2D3A JUMP JUMPDEST JUMPDEST DUP3 DUP3 MOD SWAP1 POP SWAP3 SWAP2 POP POP JUMP JUMPDEST PUSH1 0x0 PUSH2 0x2E3E DUP3 PUSH2 0x23A1 JUMP JUMPDEST SWAP2 POP PUSH32 0xFFFFFFFFFFFFFFFFFFFFFFFFFFFFFFFFFFFFFFFFFFFFFFFFFFFFFFFFFFFFFFFF DUP3 SUB PUSH2 0x2E70 JUMPI PUSH2 0x2E6F PUSH2 0x2CC9 JUMP JUMPDEST JUMPDEST PUSH1 0x1 DUP3 ADD SWAP1 POP SWAP2 SWAP1 POP JUMP JUMPDEST PUSH32 0x57524F4E475F46524F4D00000000000000000000000000000000000000000000 PUSH1 0x0 DUP3 ADD MSTORE POP JUMP JUMPDEST PUSH1 0x0 PUSH2 0x2EB1 PUSH1 0xA DUP4 PUSH2 0x24AF JUMP JUMPDEST SWAP2 POP PUSH2 0x2EBC DUP3 PUSH2 0x2E7B JUMP JUMPDEST PUSH1 0x20 DUP3 ADD SWAP1 POP SWAP2 SWAP1 POP JUMP JUMPDEST PUSH1 0x0 PUSH1 0x20 DUP3 ADD SWAP1 POP DUP2 DUP2 SUB PUSH1 0x0 DUP4 ADD MSTORE PUSH2 0x2EE0 DUP2 PUSH2 0x2EA4 JUMP JUMPDEST SWAP1 POP SWAP2 SWAP1 POP JUMP JUMPDEST PUSH32 0x494E56414C49445F524543495049454E54000000000000000000000000000000 PUSH1 0x0 DUP3 ADD MSTORE POP JUMP JUMPDEST PUSH1 0x0 PUSH2 0x2F1D PUSH1 0x11 DUP4 PUSH2 0x24AF JUMP JUMPDEST SWAP2 POP PUSH2 0x2F28 DUP3 PUSH2 0x2EE7 JUMP JUMPDEST PUSH1 0x20 DUP3 ADD SWAP1 POP SWAP2 SWAP1 POP JUMP JUMPDEST PUSH1 0x0 PUSH1 0x20 DUP3 ADD SWAP1 POP DUP2 DUP2 SUB PUSH1 0x0 DUP4 ADD MSTORE PUSH2 0x2F4C DUP2 PUSH2 0x2F10 JUMP JUMPDEST SWAP1 POP SWAP2 SWAP1 POP JUMP JUMPDEST PUSH1 0x0 DUP3 DUP3 MSTORE PUSH1 0x20 DUP3 ADD SWAP1 POP SWAP3 SWAP2 POP POP JUMP JUMPDEST POP JUMP JUMPDEST PUSH1 0x0 PUSH2 0x2F74 PUSH1 0x0 DUP4 PUSH2 0x2F53 JUMP JUMPDEST SWAP2 POP PUSH2 0x2F7F DUP3 PUSH2 0x2F64 JUMP JUMPDEST PUSH1 0x0 DUP3 ADD SWAP1 POP SWAP2 SWAP1 POP JUMP JUMPDEST PUSH1 0x0 PUSH1 0x80 DUP3 ADD SWAP1 POP PUSH2 0x2F9F PUSH1 0x0 DUP4 ADD DUP7 PUSH2 0x25E1 JUMP JUMPDEST PUSH2 0x2FAC PUSH1 0x20 DUP4 ADD DUP6 PUSH2 0x25E1 JUMP JUMPDEST PUSH2 0x2FB9 PUSH1 0x40 DUP4 ADD DUP5 PUSH2 0x23AB JUMP JUMPDEST DUP2 DUP2 SUB PUSH1 0x60 DUP4 ADD MSTORE PUSH2 0x2FCA DUP2 PUSH2 0x2F67 JUMP JUMPDEST SWAP1 POP SWAP5 SWAP4 POP POP POP POP JUMP JUMPDEST PUSH1 0x0 DUP2 MLOAD SWAP1 POP PUSH2 0x2FE3 DUP2 PUSH2 0x2415 JUMP JUMPDEST SWAP3 SWAP2 POP POP JUMP JUMPDEST PUSH1 0x0 PUSH1 0x20 DUP3 DUP5 SUB SLT ISZERO PUSH2 0x2FFF JUMPI PUSH2 0x2FFE PUSH2 0x23DF JUMP JUMPDEST JUMPDEST PUSH1 0x0 PUSH2 0x300D DUP5 DUP3 DUP6 ADD PUSH2 0x2FD4 JUMP JUMPDEST SWAP2 POP POP SWAP3 SWAP2 POP POP JUMP JUMPDEST PUSH32 0x554E534146455F524543495049454E5400000000000000000000000000000000 PUSH1 0x0 DUP3 ADD MSTORE POP JUMP JUMPDEST PUSH1 0x0 PUSH2 0x304C PUSH1 0x10 DUP4 PUSH2 0x24AF JUMP JUMPDEST SWAP2 POP PUSH2 0x3057 DUP3 PUSH2 0x3016 JUMP JUMPDEST PUSH1 0x20 DUP3 ADD SWAP1 POP SWAP2 SWAP1 POP JUMP JUMPDEST PUSH1 0x0 PUSH1 0x20 DUP3 ADD SWAP1 POP DUP2 DUP2 SUB PUSH1 0x0 DUP4 ADD MSTORE PUSH2 0x307B DUP2 PUSH2 0x303F JUMP JUMPDEST SWAP1 POP SWAP2 SWAP1 POP JUMP JUMPDEST PUSH1 0x0 DUP2 PUSH1 0x1 SHR SWAP1 POP SWAP2 SWAP1 POP JUMP JUMPDEST PUSH1 0x0 DUP1 DUP3 SWAP2 POP DUP4 SWAP1 POP JUMPDEST PUSH1 0x1 DUP6 GT ISZERO PUSH2 0x30D9 JUMPI DUP1 DUP7 DIV DUP2 GT ISZERO PUSH2 0x30B5 JUMPI PUSH2 0x30B4 PUSH2 0x2CC9 JUMP JUMPDEST JUMPDEST PUSH1 0x1 DUP6 AND ISZERO PUSH2 0x30C4 JUMPI DUP1 DUP3 MUL SWAP2 POP JUMPDEST DUP1 DUP2 MUL SWAP1 POP PUSH2 0x30D2 DUP6 PUSH2 0x3082 JUMP JUMPDEST SWAP5 POP PUSH2 0x3099 JUMP JUMPDEST SWAP5 POP SWAP5 SWAP3 POP POP POP JUMP JUMPDEST PUSH1 0x0 DUP3 PUSH2 0x30F2 JUMPI PUSH1 0x1 SWAP1 POP PUSH2 0x31AE JUMP JUMPDEST DUP2 PUSH2 0x3100 JUMPI PUSH1 0x0 SWAP1 POP PUSH2 0x31AE JUMP JUMPDEST DUP2 PUSH1 0x1 DUP2 EQ PUSH2 0x3116 JUMPI PUSH1 0x2 DUP2 EQ PUSH2 0x3120 JUMPI PUSH2 0x314F JUMP JUMPDEST PUSH1 0x1 SWAP2 POP POP PUSH2 0x31AE JUMP JUMPDEST PUSH1 0xFF DUP5 GT ISZERO PUSH2 0x3132 JUMPI PUSH2 0x3131 PUSH2 0x2CC9 JUMP JUMPDEST JUMPDEST DUP4 PUSH1 0x2 EXP SWAP2 POP DUP5 DUP3 GT ISZERO PUSH2 0x3149 JUMPI PUSH2 0x3148 PUSH2 0x2CC9 JUMP JUMPDEST JUMPDEST POP PUSH2 0x31AE JUMP JUMPDEST POP PUSH1 0x20 DUP4 LT PUSH2 0x133 DUP4 LT AND PUSH1 0x4E DUP5 LT PUSH1 0xB DUP5 LT AND OR ISZERO PUSH2 0x3184 JUMPI DUP3 DUP3 EXP SWAP1 POP DUP4 DUP2 GT ISZERO PUSH2 0x317F JUMPI PUSH2 0x317E PUSH2 0x2CC9 JUMP JUMPDEST JUMPDEST PUSH2 0x31AE JUMP JUMPDEST PUSH2 0x3191 DUP5 DUP5 DUP5 PUSH1 0x1 PUSH2 0x308F JUMP JUMPDEST SWAP3 POP SWAP1 POP DUP2 DUP5 DIV DUP2 GT ISZERO PUSH2 0x31A8 JUMPI PUSH2 0x31A7 PUSH2 0x2CC9 JUMP JUMPDEST JUMPDEST DUP2 DUP2 MUL SWAP1 POP JUMPDEST SWAP4 SWAP3 POP POP POP JUMP JUMPDEST PUSH1 0x0 PUSH2 0x31C0 DUP3 PUSH2 0x23A1 JUMP JUMPDEST SWAP2 POP PUSH2 0x31CB DUP4 PUSH2 0x23A1 JUMP JUMPDEST SWAP3 POP PUSH2 0x31F8 PUSH32 0xFFFFFFFFFFFFFFFFFFFFFFFFFFFFFFFFFFFFFFFFFFFFFFFFFFFFFFFFFFFFFFFF DUP5 DUP5 PUSH2 0x30E2 JUMP JUMPDEST SWAP1 POP SWAP3 SWAP2 POP POP JUMP JUMPDEST PUSH32 0x4E4F545F4D494E54454400000000000000000000000000000000000000000000 PUSH1 0x0 DUP3 ADD MSTORE POP JUMP JUMPDEST PUSH1 0x0 PUSH2 0x3236 PUSH1 0xA DUP4 PUSH2 0x24AF JUMP JUMPDEST SWAP2 POP PUSH2 0x3241 DUP3 PUSH2 0x3200 JUMP JUMPDEST PUSH1 0x20 DUP3 ADD SWAP1 POP SWAP2 SWAP1 POP JUMP JUMPDEST PUSH1 0x0 PUSH1 0x20 DUP3 ADD SWAP1 POP DUP2 DUP2 SUB PUSH1 0x0 DUP4 ADD MSTORE PUSH2 0x3265 DUP2 PUSH2 0x3229 JUMP JUMPDEST SWAP1 POP SWAP2 SWAP1 POP JUMP JUMPDEST PUSH32 0x5A45524F5F414444524553530000000000000000000000000000000000000000 PUSH1 0x0 DUP3 ADD MSTORE POP JUMP JUMPDEST PUSH1 0x0 PUSH2 0x32A2 PUSH1 0xC DUP4 PUSH2 0x24AF JUMP JUMPDEST SWAP2 POP PUSH2 0x32AD DUP3 PUSH2 0x326C JUMP JUMPDEST PUSH1 0x20 DUP3 ADD SWAP1 POP SWAP2 SWAP1 POP JUMP JUMPDEST PUSH1 0x0 PUSH1 0x20 DUP3 ADD SWAP1 POP DUP2 DUP2 SUB PUSH1 0x0 DUP4 ADD MSTORE PUSH2 0x32D1 DUP2 PUSH2 0x3295 JUMP JUMPDEST SWAP1 POP SWAP2 SWAP1 POP JUMP JUMPDEST PUSH1 0x0 DUP2 SWAP1 POP DUP2 PUSH1 0x0 MSTORE PUSH1 0x20 PUSH1 0x0 KECCAK256 SWAP1 POP SWAP2 SWAP1 POP JUMP JUMPDEST PUSH1 0x0 PUSH1 0x20 PUSH1 0x1F DUP4 ADD DIV SWAP1 POP SWAP2 SWAP1 POP JUMP JUMPDEST PUSH1 0x0 DUP3 DUP3 SHL SWAP1 POP SWAP3 SWAP2 POP POP JUMP JUMPDEST PUSH1 0x0 PUSH1 0x8 DUP4 MUL PUSH2 0x333A PUSH32 0xFFFFFFFFFFFFFFFFFFFFFFFFFFFFFFFFFFFFFFFFFFFFFFFFFFFFFFFFFFFFFFFF DUP3 PUSH2 0x32FD JUMP JUMPDEST PUSH2 0x3344 DUP7 DUP4 PUSH2 0x32FD JUMP JUMPDEST SWAP6 POP DUP1 NOT DUP5 AND SWAP4 POP DUP1 DUP7 AND DUP5 OR SWAP3 POP POP POP SWAP4 SWAP3 POP POP POP JUMP JUMPDEST PUSH1 0x0 DUP2 SWAP1 POP SWAP2 SWAP1 POP JUMP JUMPDEST PUSH1 0x0 PUSH2 0x3381 PUSH2 0x337C PUSH2 0x3377 DUP5 PUSH2 0x23A1 JUMP JUMPDEST PUSH2 0x335C JUMP JUMPDEST PUSH2 0x23A1 JUMP JUMPDEST SWAP1 POP SWAP2 SWAP1 POP JUMP JUMPDEST PUSH1 0x0 DUP2 SWAP1 POP SWAP2 SWAP1 POP JUMP JUMPDEST PUSH2 0x339B DUP4 PUSH2 0x3366 JUMP JUMPDEST PUSH2 0x33AF PUSH2 0x33A7 DUP3 PUSH2 0x3388 JUMP JUMPDEST DUP5 DUP5 SLOAD PUSH2 0x330A JUMP JUMPDEST DUP3 SSTORE POP POP POP POP JUMP JUMPDEST PUSH1 0x0 SWAP1 JUMP JUMPDEST PUSH2 0x33C4 PUSH2 0x33B7 JUMP JUMPDEST PUSH2 0x33CF DUP2 DUP5 DUP5 PUSH2 0x3392 JUMP JUMPDEST POP POP POP JUMP JUMPDEST JUMPDEST DUP2 DUP2 LT ISZERO PUSH2 0x33F3 JUMPI PUSH2 0x33E8 PUSH1 0x0 DUP3 PUSH2 0x33BC JUMP JUMPDEST PUSH1 0x1 DUP2 ADD SWAP1 POP PUSH2 0x33D5 JUMP JUMPDEST POP POP JUMP JUMPDEST PUSH1 0x1F DUP3 GT ISZERO PUSH2 0x3438 JUMPI PUSH2 0x3409 DUP2 PUSH2 0x32D8 JUMP JUMPDEST PUSH2 0x3412 DUP5 PUSH2 0x32ED JUMP JUMPDEST DUP2 ADD PUSH1 0x20 DUP6 LT ISZERO PUSH2 0x3421 JUMPI DUP2 SWAP1 POP JUMPDEST PUSH2 0x3435 PUSH2 0x342D DUP6 PUSH2 0x32ED JUMP JUMPDEST DUP4 ADD DUP3 PUSH2 0x33D4 JUMP JUMPDEST POP POP JUMPDEST POP POP POP JUMP JUMPDEST PUSH1 0x0 DUP3 DUP3 SHR SWAP1 POP SWAP3 SWAP2 POP POP JUMP JUMPDEST PUSH1 0x0 PUSH2 0x345B PUSH1 0x0 NOT DUP5 PUSH1 0x8 MUL PUSH2 0x343D JUMP JUMPDEST NOT DUP1 DUP4 AND SWAP2 POP POP SWAP3 SWAP2 POP POP JUMP JUMPDEST PUSH1 0x0 PUSH2 0x3474 DUP4 DUP4 PUSH2 0x344A JUMP JUMPDEST SWAP2 POP DUP3 PUSH1 0x2 MUL DUP3 OR SWAP1 POP SWAP3 SWAP2 POP POP JUMP JUMPDEST PUSH2 0x348D DUP3 PUSH2 0x24A4 JUMP JUMPDEST PUSH8 0xFFFFFFFFFFFFFFFF DUP2 GT ISZERO PUSH2 0x34A6 JUMPI PUSH2 0x34A5 PUSH2 0x281D JUMP JUMPDEST JUMPDEST PUSH2 0x34B0 DUP3 SLOAD PUSH2 0x2B54 JUMP JUMPDEST PUSH2 0x34BB DUP3 DUP3 DUP6 PUSH2 0x33F7 JUMP JUMPDEST PUSH1 0x0 PUSH1 0x20 SWAP1 POP PUSH1 0x1F DUP4 GT PUSH1 0x1 DUP2 EQ PUSH2 0x34EE JUMPI PUSH1 0x0 DUP5 ISZERO PUSH2 0x34DC JUMPI DUP3 DUP8 ADD MLOAD SWAP1 POP JUMPDEST PUSH2 0x34E6 DUP6 DUP3 PUSH2 0x3468 JUMP JUMPDEST DUP7 SSTORE POP PUSH2 0x354E JUMP JUMPDEST PUSH1 0x1F NOT DUP5 AND PUSH2 0x34FC DUP7 PUSH2 0x32D8 JUMP JUMPDEST PUSH1 0x0 JUMPDEST DUP3 DUP2 LT ISZERO PUSH2 0x3524 JUMPI DUP5 DUP10 ADD MLOAD DUP3 SSTORE PUSH1 0x1 DUP3 ADD SWAP2 POP PUSH1 0x20 DUP6 ADD SWAP5 POP PUSH1 0x20 DUP2 ADD SWAP1 POP PUSH2 0x34FF JUMP JUMPDEST DUP7 DUP4 LT ISZERO PUSH2 0x3541 JUMPI DUP5 DUP10 ADD MLOAD PUSH2 0x353D PUSH1 0x1F DUP10 AND DUP3 PUSH2 0x344A JUMP JUMPDEST DUP4 SSTORE POP JUMPDEST PUSH1 0x1 PUSH1 0x2 DUP9 MUL ADD DUP9 SSTORE POP POP POP JUMPDEST POP POP POP POP POP POP JUMP JUMPDEST PUSH1 0x0 PUSH2 0x3562 DUP4 DUP6 PUSH2 0x2F53 JUMP JUMPDEST SWAP4 POP PUSH2 0x356F DUP4 DUP6 DUP5 PUSH2 0x28C9 JUMP JUMPDEST PUSH2 0x3578 DUP4 PUSH2 0x24EA JUMP JUMPDEST DUP5 ADD SWAP1 POP SWAP4 SWAP3 POP POP POP JUMP JUMPDEST PUSH1 0x0 PUSH1 0x80 DUP3 ADD SWAP1 POP PUSH2 0x3598 PUSH1 0x0 DUP4 ADD DUP9 PUSH2 0x25E1 JUMP JUMPDEST PUSH2 0x35A5 PUSH1 0x20 DUP4 ADD DUP8 PUSH2 0x25E1 JUMP JUMPDEST PUSH2 0x35B2 PUSH1 0x40 DUP4 ADD DUP7 PUSH2 0x23AB JUMP JUMPDEST DUP2 DUP2 SUB PUSH1 0x60 DUP4 ADD MSTORE PUSH2 0x35C5 DUP2 DUP5 DUP7 PUSH2 0x3556 JUMP JUMPDEST SWAP1 POP SWAP7 SWAP6 POP POP POP POP POP POP JUMP JUMPDEST PUSH32 0x4F776E61626C653A206E6577206F776E657220697320746865207A65726F2061 PUSH1 0x0 DUP3 ADD MSTORE PUSH32 0x6464726573730000000000000000000000000000000000000000000000000000 PUSH1 0x20 DUP3 ADD MSTORE POP JUMP JUMPDEST PUSH1 0x0 PUSH2 0x362D PUSH1 0x26 DUP4 PUSH2 0x24AF JUMP JUMPDEST SWAP2 POP PUSH2 0x3638 DUP3 PUSH2 0x35D1 JUMP JUMPDEST PUSH1 0x40 DUP3 ADD SWAP1 POP SWAP2 SWAP1 POP JUMP JUMPDEST PUSH1 0x0 PUSH1 0x20 DUP3 ADD SWAP1 POP DUP2 DUP2 SUB PUSH1 0x0 DUP4 ADD MSTORE PUSH2 0x365C DUP2 PUSH2 0x3620 JUMP JUMPDEST SWAP1 POP SWAP2 SWAP1 POP JUMP JUMPDEST PUSH1 0x0 DUP2 SWAP1 POP SWAP2 SWAP1 POP JUMP JUMPDEST PUSH2 0x367E PUSH2 0x3679 DUP3 PUSH2 0x2677 JUMP JUMPDEST PUSH2 0x3663 JUMP JUMPDEST DUP3 MSTORE POP POP JUMP JUMPDEST PUSH1 0x0 DUP2 PUSH1 0x60 SHL SWAP1 POP SWAP2 SWAP1 POP JUMP JUMPDEST PUSH1 0x0 PUSH2 0x369C DUP3 PUSH2 0x3684 JUMP JUMPDEST SWAP1 POP SWAP2 SWAP1 POP JUMP JUMPDEST PUSH1 0x0 PUSH2 0x36AE DUP3 PUSH2 0x3691 JUMP JUMPDEST SWAP1 POP SWAP2 SWAP1 POP JUMP JUMPDEST PUSH2 0x36C6 PUSH2 0x36C1 DUP3 PUSH2 0x25CF JUMP JUMPDEST PUSH2 0x36A3 JUMP JUMPDEST DUP3 MSTORE POP POP JUMP JUMPDEST PUSH1 0x0 DUP2 SWAP1 POP SWAP2 SWAP1 POP JUMP JUMPDEST PUSH2 0x36E7 PUSH2 0x36E2 DUP3 PUSH2 0x23A1 JUMP JUMPDEST PUSH2 0x36CC JUMP JUMPDEST DUP3 MSTORE POP POP JUMP JUMPDEST PUSH1 0x0 PUSH2 0x36F9 DUP3 DUP7 PUSH2 0x366D JUMP JUMPDEST PUSH1 0x20 DUP3 ADD SWAP2 POP PUSH2 0x3709 DUP3 DUP6 PUSH2 0x36B5 JUMP JUMPDEST PUSH1 0x14 DUP3 ADD SWAP2 POP PUSH2 0x3719 DUP3 DUP5 PUSH2 0x36D6 JUMP JUMPDEST PUSH1 0x20 DUP3 ADD SWAP2 POP DUP2 SWAP1 POP SWAP5 SWAP4 POP POP POP POP JUMP JUMPDEST PUSH32 0x44696765737420697320646966666572656E7400000000000000000000000000 PUSH1 0x0 DUP3 ADD MSTORE POP JUMP JUMPDEST PUSH1 0x0 PUSH2 0x3760 PUSH1 0x13 DUP4 PUSH2 0x24AF JUMP JUMPDEST SWAP2 POP PUSH2 0x376B DUP3 PUSH2 0x372A JUMP JUMPDEST PUSH1 0x20 DUP3 ADD SWAP1 POP SWAP2 SWAP1 POP JUMP JUMPDEST PUSH1 0x0 PUSH1 0x20 DUP3 ADD SWAP1 POP DUP2 DUP2 SUB PUSH1 0x0 DUP4 ADD MSTORE PUSH2 0x378F DUP2 PUSH2 0x3753 JUMP JUMPDEST SWAP1 POP SWAP2 SWAP1 POP JUMP JUMPDEST PUSH1 0x0 PUSH1 0xE0 DUP3 ADD SWAP1 POP PUSH2 0x37AB PUSH1 0x0 DUP4 ADD DUP11 PUSH2 0x25E1 JUMP JUMPDEST PUSH2 0x37B8 PUSH1 0x20 DUP4 ADD DUP10 PUSH2 0x23AB JUMP JUMPDEST PUSH2 0x37C5 PUSH1 0x40 DUP4 ADD DUP9 PUSH2 0x23AB JUMP JUMPDEST PUSH2 0x37D2 PUSH1 0x60 DUP4 ADD DUP8 PUSH2 0x23AB JUMP JUMPDEST PUSH2 0x37DF PUSH1 0x80 DUP4 ADD DUP7 PUSH2 0x23AB JUMP JUMPDEST PUSH2 0x37EC PUSH1 0xA0 DUP4 ADD DUP6 PUSH2 0x2777 JUMP JUMPDEST PUSH2 0x37F9 PUSH1 0xC0 DUP4 ADD DUP5 PUSH2 0x25E1 JUMP JUMPDEST SWAP9 SWAP8 POP POP POP POP POP POP POP POP JUMP JUMPDEST PUSH32 0x4F776E61626C653A2063616C6C6572206973206E6F7420746865206F776E6572 PUSH1 0x0 DUP3 ADD MSTORE POP JUMP JUMPDEST PUSH1 0x0 PUSH2 0x383B PUSH1 0x20 DUP4 PUSH2 0x24AF JUMP JUMPDEST SWAP2 POP PUSH2 0x3846 DUP3 PUSH2 0x3805 JUMP JUMPDEST PUSH1 0x20 DUP3 ADD SWAP1 POP SWAP2 SWAP1 POP JUMP JUMPDEST PUSH1 0x0 PUSH1 0x20 DUP3 ADD SWAP1 POP DUP2 DUP2 SUB PUSH1 0x0 DUP4 ADD MSTORE PUSH2 0x386A DUP2 PUSH2 0x382E JUMP JUMPDEST SWAP1 POP SWAP2 SWAP1 POP JUMP JUMPDEST PUSH32 0x414C52454144595F4D494E544544000000000000000000000000000000000000 PUSH1 0x0 DUP3 ADD MSTORE POP JUMP JUMPDEST PUSH1 0x0 PUSH2 0x38A7 PUSH1 0xE DUP4 PUSH2 0x24AF JUMP JUMPDEST SWAP2 POP PUSH2 0x38B2 DUP3 PUSH2 0x3871 JUMP JUMPDEST PUSH1 0x20 DUP3 ADD SWAP1 POP SWAP2 SWAP1 POP JUMP JUMPDEST PUSH1 0x0 PUSH1 0x20 DUP3 ADD SWAP1 POP DUP2 DUP2 SUB PUSH1 0x0 DUP4 ADD MSTORE PUSH2 0x38D6 DUP2 PUSH2 0x389A JUMP JUMPDEST SWAP1 POP SWAP2 SWAP1 POP JUMP INVALID LOG2 PUSH5 0x6970667358 0x22 SLT KECCAK256 CREATE2 GAS PUSH13 0xA6326D421B5E3B1E1371B2B6A 0x5F SWAP5 0xE1 SUB 0xE7 0xD1 PUSH4 0xF47BFD13 0x4B 0xB3 PUSH6 0x377864736F6C PUSH4 0x43000812 STOP CALLER "},"methodIdentifiers":{"BLOCKS_PER_READJUSTMENT()":"b7304272","MAXIMUM_TARGET_DIFFICULTY()":"7c7f3206","MAX_ADJUSTMENT_PERCENT()":"1beddf1c","MINIMUM_TARGET_DIFFICULTY()":"6a586594","MINING_RATE_FACTOR()":"3426e5f5","QUOTIENT_LIMIT()":"ad1dfe3b","TARGET_DIVISOR()":"095b6d4c","approve(address,uint256)":"095ea7b3","balanceOf(address)":"70a08231","baseUri()":"9abc8320","challengeNumber()":"8ae0368b","checkHash(uint256,bytes32)":"7c2d542c","currentTokenId()":"009a9b7b","decimals()":"313ce567","difficulty()":"19cae462","epochCount()":"829965cc","getApproved(uint256)":"081812fc","getChallengeNumber()":"4ef37628","getMiningDifficulty()":"17da485f","getMiningReward()":"490203a7","getMiningTarget()":"32e99708","getPlanetMinted()":"a465eeaf","isApprovedForAll(address,address)":"e985e9c5","latestDifficultyPeriodStarted()":"cb9ae707","maxSupplyForEra()":"4fa972e1","mint(uint256,bytes32)":"1801fbe5","name()":"06fdde03","owner()":"8da5cb5b","ownerOf(uint256)":"6352211e","planetResources(uint256)":"718a3390","renounceOwnership()":"715018a6","rewardEra()":"2d38bf7a","safeTransferFrom(address,address,uint256)":"42842e0e","safeTransferFrom(address,address,uint256,bytes)":"b88d4fde","setApprovalForAll(address,bool)":"a22cb465","setBaseUri(string)":"a0bcfc7f","startingAverageReward()":"82c890fd","statistics()":"95e272bd","supportsInterface(bytes4)":"01ffc9a7","symbol()":"95d89b41","tokenURI(uint256)":"c87b56dd","tokensMinted()":"6de9f32b","totalERSupply()":"ac693778","totalRtsPerEra()":"ee2e5612","transferFrom(address,address,uint256)":"23b872dd","transferOwnership(address)":"f2fde38b"}}}}}