{"src/PlanetsV2_test.sol":{"Planets":{"abi":[{"anonymous":false,"inputs":[{"indexed":true,"internalType":"address","name":"owner","type":"address"},{"indexed":true,"internalType":"address","name":"approved","type":"address"},{"indexed":true,"internalType":"uint256","name":"tokenId","type":"uint256"}],"name":"Approval","type":"event"},{"anonymous":false,"inputs":[{"indexed":true,"internalType":"address","name":"owner","type":"address"},{"indexed":true,"internalType":"address","name":"operator","type":"address"},{"indexed":false,"internalType":"bool","name":"approved","type":"bool"}],"name":"ApprovalForAll","type":"event"},{"anonymous":false,"inputs":[{"indexed":false,"internalType":"uint256","name":"difficulty","type":"uint256"}],"name":"DifficultyChange","type":"event"},{"anonymous":false,"inputs":[{"indexed":false,"internalType":"uint8","name":"version","type":"uint8"}],"name":"Initialized","type":"event"},{"anonymous":false,"inputs":[{"indexed":true,"internalType":"address","name":"from","type":"address"},{"indexed":false,"internalType":"uint256","name":"rewardAmount","type":"uint256"},{"indexed":false,"internalType":"uint256","name":"epochCount","type":"uint256"},{"indexed":false,"internalType":"bytes32","name":"newChallengeNumber","type":"bytes32"}],"name":"Mint","type":"event"},{"anonymous":false,"inputs":[{"indexed":true,"internalType":"address","name":"from","type":"address"},{"indexed":true,"internalType":"address","name":"to","type":"address"},{"indexed":true,"internalType":"uint256","name":"tokenId","type":"uint256"}],"name":"Transfer","type":"event"},{"inputs":[],"name":"BASE_REWARD","outputs":[{"internalType":"uint256","name":"","type":"uint256"}],"stateMutability":"view","type":"function"},{"inputs":[],"name":"BLOCKS_PER_READJUSTMENT","outputs":[{"internalType":"uint256","name":"","type":"uint256"}],"stateMutability":"view","type":"function"},{"inputs":[],"name":"MAXIMUM_TARGET_DIFFICULTY","outputs":[{"internalType":"uint256","name":"","type":"uint256"}],"stateMutability":"view","type":"function"},{"inputs":[],"name":"MAX_ADJUSTMENT_PERCENT","outputs":[{"internalType":"uint256","name":"","type":"uint256"}],"stateMutability":"view","type":"function"},{"inputs":[],"name":"MINIMUM_TARGET_DIFFICULTY","outputs":[{"internalType":"uint256","name":"","type":"uint256"}],"stateMutability":"view","type":"function"},{"inputs":[],"name":"MINING_RATE_FACTOR","outputs":[{"internalType":"uint256","name":"","type":"uint256"}],"stateMutability":"view","type":"function"},{"inputs":[],"name":"QUOTIENT_LIMIT","outputs":[{"internalType":"uint256","name":"","type":"uint256"}],"stateMutability":"view","type":"function"},{"inputs":[],"name":"TARGET_DIVISOR","outputs":[{"internalType":"uint256","name":"","type":"uint256"}],"stateMutability":"view","type":"function"},{"inputs":[{"internalType":"address","name":"to","type":"address"},{"internalType":"uint256","name":"tokenId","type":"uint256"}],"name":"approve","outputs":[],"stateMutability":"nonpayable","type":"function"},{"inputs":[{"internalType":"address","name":"owner","type":"address"}],"name":"balanceOf","outputs":[{"internalType":"uint256","name":"","type":"uint256"}],"stateMutability":"view","type":"function"},{"inputs":[],"name":"baseUri","outputs":[{"internalType":"string","name":"","type":"string"}],"stateMutability":"view","type":"function"},{"inputs":[],"name":"challengeNumber","outputs":[{"internalType":"bytes32","name":"","type":"bytes32"}],"stateMutability":"view","type":"function"},{"inputs":[{"internalType":"uint256","name":"nonce","type":"uint256"},{"internalType":"bytes32","name":"challengeDigest","type":"bytes32"}],"name":"checkHash","outputs":[{"internalType":"bytes32","name":"digest","type":"bytes32"}],"stateMutability":"view","type":"function"},{"inputs":[],"name":"currentTokenId","outputs":[{"internalType":"uint256","name":"","type":"uint256"}],"stateMutability":"view","type":"function"},{"inputs":[],"name":"decimals","outputs":[{"internalType":"uint8","name":"","type":"uint8"}],"stateMutability":"view","type":"function"},{"inputs":[],"name":"difficulty","outputs":[{"internalType":"uint256","name":"","type":"uint256"}],"stateMutability":"view","type":"function"},{"inputs":[{"internalType":"uint256","name":"","type":"uint256"}],"name":"digestForTokenId","outputs":[{"internalType":"bytes32","name":"","type":"bytes32"}],"stateMutability":"view","type":"function"},{"inputs":[],"name":"epochCount","outputs":[{"internalType":"uint256","name":"","type":"uint256"}],"stateMutability":"view","type":"function"},{"inputs":[{"internalType":"uint256","name":"tokenId","type":"uint256"}],"name":"getApproved","outputs":[{"internalType":"address","name":"","type":"address"}],"stateMutability":"view","type":"function"},{"inputs":[],"name":"getChallengeNumber","outputs":[{"internalType":"bytes32","name":"","type":"bytes32"}],"stateMutability":"view","type":"function"},{"inputs":[],"name":"getMiningDifficulty","outputs":[{"internalType":"uint256","name":"","type":"uint256"}],"stateMutability":"view","type":"function"},{"inputs":[],"name":"getMiningReward","outputs":[{"internalType":"uint256","name":"","type":"uint256"}],"stateMutability":"pure","type":"function"},{"inputs":[],"name":"getMiningTarget","outputs":[{"internalType":"uint256","name":"","type":"uint256"}],"stateMutability":"view","type":"function"},{"inputs":[],"name":"getPlanetMinted","outputs":[{"internalType":"uint256","name":"","type":"uint256"}],"stateMutability":"view","type":"function"},{"inputs":[{"internalType":"uint256","name":"x","type":"uint256"},{"internalType":"uint256","name":"y","type":"uint256"}],"name":"getPlanetZone","outputs":[{"internalType":"uint256","name":"zone","type":"uint256"}],"stateMutability":"pure","type":"function"},{"inputs":[{"internalType":"uint256","name":"id","type":"uint256"}],"name":"getTotalStatsPerTokenId","outputs":[{"internalType":"uint256","name":"","type":"uint256"},{"internalType":"uint256","name":"","type":"uint256"},{"internalType":"uint256","name":"","type":"uint256"},{"internalType":"uint256","name":"","type":"uint256"},{"internalType":"uint256","name":"","type":"uint256"},{"internalType":"uint256","name":"","type":"uint256"}],"stateMutability":"view","type":"function"},{"inputs":[{"internalType":"string","name":"_name","type":"string"},{"internalType":"string","name":"_symbol","type":"string"},{"internalType":"string","name":"_baseUri","type":"string"}],"name":"initialize","outputs":[],"stateMutability":"nonpayable","type":"function"},{"inputs":[{"internalType":"address","name":"owner","type":"address"},{"internalType":"address","name":"operator","type":"address"}],"name":"isApprovedForAll","outputs":[{"internalType":"bool","name":"","type":"bool"}],"stateMutability":"view","type":"function"},{"inputs":[],"name":"latestDifficultyPeriodStarted","outputs":[{"internalType":"uint256","name":"","type":"uint256"}],"stateMutability":"view","type":"function"},{"inputs":[],"name":"maxSupplyForEra","outputs":[{"internalType":"uint256","name":"","type":"uint256"}],"stateMutability":"view","type":"function"},{"inputs":[],"name":"maximumRigLevel","outputs":[{"internalType":"uint8","name":"","type":"uint8"}],"stateMutability":"view","type":"function"},{"inputs":[{"internalType":"address","name":"","type":"address"}],"name":"miningRigForAddress","outputs":[{"internalType":"uint8","name":"","type":"uint8"}],"stateMutability":"view","type":"function"},{"inputs":[{"internalType":"uint256","name":"","type":"uint256"}],"name":"miningRigPercentage","outputs":[{"internalType":"uint8","name":"","type":"uint8"}],"stateMutability":"view","type":"function"},{"inputs":[],"name":"miningRigUpgradePrice","outputs":[{"internalType":"uint256","name":"","type":"uint256"}],"stateMutability":"view","type":"function"},{"inputs":[{"internalType":"uint256","name":"nonce","type":"uint256"},{"internalType":"bytes32","name":"challengeDigest","type":"bytes32"}],"name":"mint","outputs":[{"internalType":"bool","name":"success","type":"bool"}],"stateMutability":"nonpayable","type":"function"},{"inputs":[],"name":"name","outputs":[{"internalType":"string","name":"","type":"string"}],"stateMutability":"view","type":"function"},{"inputs":[],"name":"owner","outputs":[{"internalType":"address","name":"","type":"address"}],"stateMutability":"view","type":"function"},{"inputs":[{"internalType":"uint256","name":"tokenId","type":"uint256"}],"name":"ownerOf","outputs":[{"internalType":"address","name":"","type":"address"}],"stateMutability":"view","type":"function"},{"inputs":[],"name":"rewardEra","outputs":[{"internalType":"uint256","name":"","type":"uint256"}],"stateMutability":"view","type":"function"},{"inputs":[{"internalType":"uint256","name":"","type":"uint256"}],"name":"rtsBonusForTokenId","outputs":[{"internalType":"uint256","name":"","type":"uint256"}],"stateMutability":"view","type":"function"},{"inputs":[{"internalType":"address","name":"from","type":"address"},{"internalType":"address","name":"to","type":"address"},{"internalType":"uint256","name":"tokenId","type":"uint256"}],"name":"safeTransferFrom","outputs":[],"stateMutability":"nonpayable","type":"function"},{"inputs":[{"internalType":"address","name":"from","type":"address"},{"internalType":"address","name":"to","type":"address"},{"internalType":"uint256","name":"tokenId","type":"uint256"},{"internalType":"bytes","name":"data","type":"bytes"}],"name":"safeTransferFrom","outputs":[],"stateMutability":"nonpayable","type":"function"},{"inputs":[{"internalType":"address","name":"operator","type":"address"},{"internalType":"bool","name":"approved","type":"bool"}],"name":"setApprovalForAll","outputs":[],"stateMutability":"nonpayable","type":"function"},{"inputs":[{"internalType":"string","name":"_baseUri","type":"string"}],"name":"setBaseUri","outputs":[],"stateMutability":"nonpayable","type":"function"},{"inputs":[{"internalType":"uint256","name":"priceInEth","type":"uint256"}],"name":"setMiningRigUpgradePrice","outputs":[],"stateMutability":"nonpayable","type":"function"},{"inputs":[],"name":"startingAverageReward","outputs":[{"internalType":"uint256","name":"","type":"uint256"}],"stateMutability":"view","type":"function"},{"inputs":[],"name":"statistics","outputs":[{"internalType":"address","name":"lastRewardTo","type":"address"},{"internalType":"uint256","name":"lastRewardAmount","type":"uint256"},{"internalType":"uint256","name":"lastRewardEthBlockNumber","type":"uint256"},{"internalType":"uint256","name":"lastRewardTimestamp","type":"uint256"}],"stateMutability":"view","type":"function"},{"inputs":[{"internalType":"bytes4","name":"interfaceId","type":"bytes4"}],"name":"supportsInterface","outputs":[{"internalType":"bool","name":"","type":"bool"}],"stateMutability":"view","type":"function"},{"inputs":[],"name":"symbol","outputs":[{"internalType":"string","name":"","type":"string"}],"stateMutability":"view","type":"function"},{"inputs":[{"internalType":"uint256","name":"tokenId","type":"uint256"}],"name":"tokenURI","outputs":[{"internalType":"string","name":"","type":"string"}],"stateMutability":"view","type":"function"},{"inputs":[],"name":"tokensMinted","outputs":[{"internalType":"uint256","name":"","type":"uint256"}],"stateMutability":"view","type":"function"},{"inputs":[],"name":"totalERSupply","outputs":[{"internalType":"uint256","name":"","type":"uint256"}],"stateMutability":"view","type":"function"},{"inputs":[],"name":"totalRtsPerEra","outputs":[{"internalType":"uint256","name":"","type":"uint256"}],"stateMutability":"view","type":"function"},{"inputs":[{"internalType":"address","name":"from","type":"address"},{"internalType":"address","name":"to","type":"address"},{"internalType":"uint256","name":"tokenId","type":"uint256"}],"name":"transferFrom","outputs":[],"stateMutability":"nonpayable","type":"function"},{"inputs":[{"internalType":"uint8","name":"amount","type":"uint8"}],"name":"upgradeMiningRig","outputs":[],"stateMutability":"payable","type":"function"},{"inputs":[],"name":"value","outputs":[{"internalType":"uint256","name":"","type":"uint256"}],"stateMutability":"view","type":"function"},{"inputs":[],"name":"withdraw","outputs":[],"stateMutability":"nonpayable","type":"function"}],"evm":{"bytecode":{"linkReferences":{},"object":"608060405234801561001057600080fd5b50614e1b806100206000396000f3fe6080604052600436106103755760003560e01c80636352211e116101d1578063a0bcfc7f11610102578063b57d7283116100a0578063cb9ae7071161006f578063cb9ae70714610d0e578063e09feae314610d39578063e985e9c514610d76578063ee2e561214610db357610375565b8063b57d728314610c40578063b730427214610c7d578063b88d4fde14610ca8578063c87b56dd14610cd157610375565b8063a6487c53116100dc578063a6487c5314610b84578063ac69377814610bad578063acf86c8714610bd8578063ad1dfe3b14610c1557610375565b8063a0bcfc7f14610b07578063a22cb46514610b30578063a465eeaf14610b5957610375565b8063829965cc1161016f5780638da5cb5b116101495780638da5cb5b14610a5857806395d89b4114610a8357806395e272bd14610aae5780639abc832014610adc57610375565b8063829965cc146109d757806382c890fd14610a025780638ae0368b14610a2d57610375565b80636de9f32b116101ab5780636de9f32b1461090757806370a08231146109325780637c2d542c1461096f5780637c7f3206146109ac57610375565b80636352211e1461085d5780636a2e19a21461089a5780636a586594146108dc57610375565b80632d38bf7a116102ab57806342842e0e116102495780634e802139116102235780634e802139146107a15780634ef37628146107ca5780634fa972e1146107f557806356b757be1461082057610375565b806342842e0e1461072257806347e9c0951461074b578063490203a71461077657610375565b80633426e5f5116102855780633426e5f51461068a5780633ccfd60b146106b55780633d85d614146106cc5780633fa4f245146106f757610375565b80632d38bf7a14610609578063313ce5671461063457806332e997081461065f57610375565b8063095ea7b31161031857806319cae462116102f257806319cae4621461055f5780631beddf1c1461058a57806322009af6146105b557806323b872dd146105e057610375565b8063095ea7b3146104ce57806317da485f146104f75780631801fbe51461052257610375565b806306fdde031161035457806306fdde031461041f57806307a11aeb1461044a578063081812fc14610466578063095b6d4c146104a357610375565b80629a9b7b1461037a57806301ffc9a7146103a557806303ca2f53146103e2575b600080fd5b34801561038657600080fd5b5061038f610dde565b60405161039c919061322f565b60405180910390f35b3480156103b157600080fd5b506103cc60048036038101906103c791906132b6565b610de4565b6040516103d991906132fe565b60405180910390f35b3480156103ee57600080fd5b5061040960048036038101906104049190613345565b610ec6565b604051610416919061338e565b60405180910390f35b34801561042b57600080fd5b50610434610efa565b6040516104419190613439565b60405180910390f35b610464600480360381019061045f9190613487565b610f8c565b005b34801561047257600080fd5b5061048d60048036038101906104889190613345565b611083565b60405161049a91906134f5565b60405180910390f35b3480156104af57600080fd5b506104b86110c9565b6040516104c5919061322f565b60405180910390f35b3480156104da57600080fd5b506104f560048036038101906104f0919061353c565b6110cf565b005b34801561050357600080fd5b5061050c6111e6565b604051610519919061322f565b60405180910390f35b34801561052e57600080fd5b50610549600480360381019061054491906135b2565b6111f0565b60405161055691906132fe565b60405180910390f35b34801561056b57600080fd5b506105746113eb565b604051610581919061322f565b60405180910390f35b34801561059657600080fd5b5061059f6113f1565b6040516105ac919061322f565b60405180910390f35b3480156105c157600080fd5b506105ca6113f6565b6040516105d7919061322f565b60405180910390f35b3480156105ec57600080fd5b50610607600480360381019061060291906135f2565b6113fb565b005b34801561061557600080fd5b5061061e61145b565b60405161062b919061322f565b60405180910390f35b34801561064057600080fd5b50610649611461565b604051610656919061338e565b60405180910390f35b34801561066b57600080fd5b50610674611466565b604051610681919061322f565b60405180910390f35b34801561069657600080fd5b5061069f611470565b6040516106ac919061322f565b60405180910390f35b3480156106c157600080fd5b506106ca611475565b005b3480156106d857600080fd5b506106e1611570565b6040516106ee919061338e565b60405180910390f35b34801561070357600080fd5b5061070c611583565b604051610719919061322f565b60405180910390f35b34801561072e57600080fd5b50610749600480360381019061074491906135f2565b611588565b005b34801561075757600080fd5b506107606115a8565b60405161076d919061322f565b60405180910390f35b34801561078257600080fd5b5061078b6115ae565b604051610798919061322f565b60405180910390f35b3480156107ad57600080fd5b506107c860048036038101906107c39190613345565b6115d3565b005b3480156107d657600080fd5b506107df61166d565b6040516107ec9190613654565b60405180910390f35b34801561080157600080fd5b5061080a611676565b604051610817919061322f565b60405180910390f35b34801561082c57600080fd5b5061084760048036038101906108429190613345565b611699565b604051610854919061322f565b60405180910390f35b34801561086957600080fd5b50610884600480360381019061087f9190613345565b6116b1565b60405161089191906134f5565b60405180910390f35b3480156108a657600080fd5b506108c160048036038101906108bc9190613345565b611737565b6040516108d39695949392919061366f565b60405180910390f35b3480156108e857600080fd5b506108f16118c2565b6040516108fe919061322f565b60405180910390f35b34801561091357600080fd5b5061091c6118c9565b604051610929919061322f565b60405180910390f35b34801561093e57600080fd5b50610959600480360381019061095491906136d0565b6118cf565b604051610966919061322f565b60405180910390f35b34801561097b57600080fd5b50610996600480360381019061099191906135b2565b611986565b6040516109a39190613654565b60405180910390f35b3480156109b857600080fd5b506109c161199a565b6040516109ce919061322f565b60405180910390f35b3480156109e357600080fd5b506109ec6119bd565b6040516109f9919061322f565b60405180910390f35b348015610a0e57600080fd5b50610a176119c3565b604051610a24919061322f565b60405180910390f35b348015610a3957600080fd5b50610a426119e4565b604051610a4f9190613654565b60405180910390f35b348015610a6457600080fd5b50610a6d6119ea565b604051610a7a91906134f5565b60405180910390f35b348015610a8f57600080fd5b50610a98611a10565b604051610aa59190613439565b60405180910390f35b348015610aba57600080fd5b50610ac3611aa2565b604051610ad394939291906136fd565b60405180910390f35b348015610ae857600080fd5b50610af1611ae0565b604051610afe9190613439565b60405180910390f35b348015610b1357600080fd5b50610b2e6004803603810190610b299190613877565b611b6e565b005b348015610b3c57600080fd5b50610b576004803603810190610b5291906138ec565b611c11565b005b348015610b6557600080fd5b50610b6e611c27565b604051610b7b919061322f565b60405180910390f35b348015610b9057600080fd5b50610bab6004803603810190610ba6919061392c565b611c31565b005b348015610bb957600080fd5b50610bc2611f14565b604051610bcf919061322f565b60405180910390f35b348015610be457600080fd5b50610bff6004803603810190610bfa91906139d3565b611f1a565b604051610c0c919061322f565b60405180910390f35b348015610c2157600080fd5b50610c2a611fc2565b604051610c37919061322f565b60405180910390f35b348015610c4c57600080fd5b50610c676004803603810190610c6291906136d0565b611fd4565b604051610c74919061338e565b60405180910390f35b348015610c8957600080fd5b50610c92611ff4565b604051610c9f919061322f565b60405180910390f35b348015610cb457600080fd5b50610ccf6004803603810190610cca9190613ab4565b611ffa565b005b348015610cdd57600080fd5b50610cf86004803603810190610cf39190613345565b61205c565b604051610d059190613439565b60405180910390f35b348015610d1a57600080fd5b50610d236120bc565b604051610d30919061322f565b60405180910390f35b348015610d4557600080fd5b50610d606004803603810190610d5b9190613345565b6120c2565b604051610d6d9190613654565b60405180910390f35b348015610d8257600080fd5b50610d9d6004803603810190610d989190613b37565b6120da565b604051610daa91906132fe565b60405180910390f35b348015610dbf57600080fd5b50610dc861216e565b604051610dd5919061322f565b60405180910390f35b609e5481565b60007f80ac58cd000000000000000000000000000000000000000000000000000000007bffffffffffffffffffffffffffffffffffffffffffffffffffffffff1916827bffffffffffffffffffffffffffffffffffffffffffffffffffffffff19161480610eaf57507f5b5e139f000000000000000000000000000000000000000000000000000000007bffffffffffffffffffffffffffffffffffffffffffffffffffffffff1916827bffffffffffffffffffffffffffffffffffffffffffffffffffffffff1916145b80610ebf5750610ebe82612174565b5b9050919050565b60a88181548110610ed657600080fd5b9060005260206000209060209182820401919006915054906101000a900460ff1681565b6060606c8054610f0990613ba6565b80601f0160208091040260200160405190810160405280929190818152602001828054610f3590613ba6565b8015610f825780601f10610f5757610100808354040283529160200191610f82565b820191906000526020600020905b815481529060010190602001808311610f6557829003601f168201915b5050505050905090565b8060ff1660a654610f9d9190613c06565b341015610fa957600080fd5b60008160a960003373ffffffffffffffffffffffffffffffffffffffff1673ffffffffffffffffffffffffffffffffffffffff16815260200190815260200160002060009054906101000a900460ff166110039190613c48565b905060a760009054906101000a900460ff1660ff168160ff16111561102757600080fd5b8060a960003373ffffffffffffffffffffffffffffffffffffffff1673ffffffffffffffffffffffffffffffffffffffff16815260200190815260200160002060006101000a81548160ff021916908360ff1602179055505050565b600061108e826121de565b6070600083815260200190815260200160002060009054906101000a900473ffffffffffffffffffffffffffffffffffffffff169050919050565b6107d081565b60006110da826116b1565b90508073ffffffffffffffffffffffffffffffffffffffff168373ffffffffffffffffffffffffffffffffffffffff160361114a576040517f08c379a000000000000000000000000000000000000000000000000000000000815260040161114190613cef565b60405180910390fd5b8073ffffffffffffffffffffffffffffffffffffffff16611169612229565b73ffffffffffffffffffffffffffffffffffffffff161480611198575061119781611192612229565b6120da565b5b6111d7576040517f08c379a00000000000000000000000000000000000000000000000000000000081526004016111ce90613d81565b60405180910390fd5b6111e18383612231565b505050565b6000600154905090565b6000609e6000815461120190613da1565b919050819055609e81905550600061121984846122ea565b90506001548160001c1115611263576040517f08c379a000000000000000000000000000000000000000000000000000000000815260040161125a90613e35565b60405180910390fd5b600060a16000609e5481526020019081526020016000205490506000801b81146112c2576040517f08c379a00000000000000000000000000000000000000000000000000000000081526004016112b990613ea1565b60405180910390fd5b8160a16000609e548152602001908152602001600020819055506112e833609e54612362565b60006103e88360001c169050600060648260a860a960003373ffffffffffffffffffffffffffffffffffffffff1673ffffffffffffffffffffffffffffffffffffffff16815260200190815260200160002060009054906101000a900460ff1660ff168154811061135c5761135b613ec1565b5b90600052602060002090602091828204019190069054906101000a900460ff1660ff166113899190613c06565b6113939190613f1f565b905060008111156113b9578060aa6000609e548152602001908152602001600020819055505b80826113c59190613f50565b600260008282546113d69190613f50565b92505081905550600194505050505092915050565b60015481565b606481565b60fa81565b61140c611406612229565b82612380565b61144b576040517f08c379a000000000000000000000000000000000000000000000000000000000815260040161144290613ff6565b60405180910390fd5b611456838383612415565b505050565b60a45481565b601281565b6000600154905090565b603c81565b60ab60009054906101000a900473ffffffffffffffffffffffffffffffffffffffff1673ffffffffffffffffffffffffffffffffffffffff163373ffffffffffffffffffffffffffffffffffffffff1614611505576040517f08c379a00000000000000000000000000000000000000000000000000000000081526004016114fc90614088565b60405180910390fd5b60ab60009054906101000a900473ffffffffffffffffffffffffffffffffffffffff1673ffffffffffffffffffffffffffffffffffffffff166108fc479081150290604051600060405180830381858888f1935050505015801561156d573d6000803e3d6000fd5b50565b60a760009054906101000a900460ff1681565b602a81565b6115a383838360405180602001604052806000815250611ffa565b505050565b60a65481565b6000601260ff16600a6115c191906141db565b6103e86115ce9190613c06565b905090565b60ab60009054906101000a900473ffffffffffffffffffffffffffffffffffffffff1673ffffffffffffffffffffffffffffffffffffffff163373ffffffffffffffffffffffffffffffffffffffff1614611663576040517f08c379a000000000000000000000000000000000000000000000000000000000815260040161165a90614088565b60405180910390fd5b8060a68190555050565b60008054905090565b601260ff16600a61168791906141db565b633b9aca006116969190613c06565b81565b60aa6020528060005260406000206000915090505481565b6000806116bd8361270e565b9050600073ffffffffffffffffffffffffffffffffffffffff168173ffffffffffffffffffffffffffffffffffffffff160361172e576040517f08c379a000000000000000000000000000000000000000000000000000000000815260040161172590614272565b60405180910390fd5b80915050919050565b600080600080600080600060a160008981526020019081526020016000205460001c905060006103e8603083901c16905060006103e8603c84901c1690506000600a6117838484611f1a565b61178d9190613c06565b9050600060aa60008d8152602001908152602001600020546103e886166117b49190613f50565b905060006103e8600c87901c1660fa6117cd9190613f50565b905060006103e8601888901c1660fa6117e69190613f50565b905060006103e8602489901c1660fa6117ff9190613f50565b9050600085111561189f57606485856118189190613c06565b6118229190613f1f565b8461182d9190613f50565b93506064858461183d9190613c06565b6118479190613f1f565b836118529190613f50565b9250606485836118629190613c06565b61186c9190613f1f565b826118779190613f50565b9150606485826118879190613c06565b6118919190613f1f565b8161189c9190613f50565b90505b838383838a8a9d509d509d509d509d509d50505050505050505091939550919395565b6201000081565b60025481565b60008073ffffffffffffffffffffffffffffffffffffffff168273ffffffffffffffffffffffffffffffffffffffff160361193f576040517f08c379a000000000000000000000000000000000000000000000000000000000815260040161193690614304565b60405180910390fd5b606f60008373ffffffffffffffffffffffffffffffffffffffff1673ffffffffffffffffffffffffffffffffffffffff168152602001908152602001600020549050919050565b600061199283836122ea565b905092915050565b7e2000000000000000000000000000000000000000000000000000000000000081565b60a25481565b601260ff16600a6119d491906141db565b6103e86119e19190613c06565b81565b60005481565b60ab60009054906101000a900473ffffffffffffffffffffffffffffffffffffffff1681565b6060606d8054611a1f90613ba6565b80601f0160208091040260200160405190810160405280929190818152602001828054611a4b90613ba6565b8015611a985780601f10611a6d57610100808354040283529160200191611a98565b820191906000526020600020905b815481529060010190602001808311611a7b57829003601f168201915b5050505050905090565b60038060000160009054906101000a900473ffffffffffffffffffffffffffffffffffffffff16908060010154908060020154908060030154905084565b609f8054611aed90613ba6565b80601f0160208091040260200160405190810160405280929190818152602001828054611b1990613ba6565b8015611b665780601f10611b3b57610100808354040283529160200191611b66565b820191906000526020600020905b815481529060010190602001808311611b4957829003601f168201915b505050505081565b60ab60009054906101000a900473ffffffffffffffffffffffffffffffffffffffff1673ffffffffffffffffffffffffffffffffffffffff163373ffffffffffffffffffffffffffffffffffffffff1614611bfe576040517f08c379a0000000000000000000000000000000000000000000000000000000008152600401611bf590614088565b60405180910390fd5b80609f9081611c0d91906144d0565b5050565b611c23611c1c612229565b838361274b565b5050565b6000609e54905090565b6000600760019054906101000a900460ff16159050808015611c6557506001600760009054906101000a900460ff1660ff16105b80611c945750611c74306128b7565b158015611c9357506001600760009054906101000a900460ff1660ff16145b5b611cd3576040517f08c379a0000000000000000000000000000000000000000000000000000000008152600401611cca90614614565b60405180910390fd5b6001600760006101000a81548160ff021916908360ff1602179055508015611d11576001600760016101000a81548160ff0219169083151502179055505b600073ffffffffffffffffffffffffffffffffffffffff1660ab60009054906101000a900473ffffffffffffffffffffffffffffffffffffffff1673ffffffffffffffffffffffffffffffffffffffff1614611d6c57600080fd5b3360ab60006101000a81548173ffffffffffffffffffffffffffffffffffffffff021916908373ffffffffffffffffffffffffffffffffffffffff160217905550611db682611b6e565b600143611dc39190614634565b406000819055504360a3819055507e20000000000000000000000000000000000000000000000000000000000000600181905550666a94d74f43000060a681905550600a60a760006101000a81548160ff021916908360ff160217905550604051806101600160405280600060ff168152602001600560ff168152602001600a60ff168152602001600f60ff168152602001601660ff168152602001601d60ff168152602001602460ff168152602001602e60ff168152602001603860ff168152602001604260ff168152602001605060ff1681525060a890600b611ea9929190613152565b50611eb484846128da565b8015611f0e576000600760016101000a81548160ff0219169083151502179055507f7f26b83ff96e1f2b6a682f133852f6798a09c465da95921460cefb38474024986001604051611f0591906146a3565b60405180910390a15b50505050565b60a05481565b60006101f4831115611f3b576101f483611f349190614634565b9250611f4c565b826101f4611f499190614634565b92505b6101f4821115611f6b576101f482611f649190614634565b9150611f7c565b816101f4611f799190614634565b91505b6000611faa600284611f8e91906146be565b600286611f9b91906146be565b611fa59190613f50565b612937565b9050605081611fb99190613f1f565b91505092915050565b60026107d0611fd19190613f1f565b81565b60a96020528060005260406000206000915054906101000a900460ff1681565b61040081565b61200b612005612229565b83612380565b61204a576040517f08c379a000000000000000000000000000000000000000000000000000000000815260040161204190613ff6565b60405180910390fd5b61205684848484612a16565b50505050565b60606000609f805461206d90613ba6565b90501161208957604051806020016040528060008152506120b5565b609f61209483612a72565b6040516020016120a5929190614814565b6040516020818303038152906040525b9050919050565b60a35481565b60a16020528060005260406000206000915090505481565b6000607160008473ffffffffffffffffffffffffffffffffffffffff1673ffffffffffffffffffffffffffffffffffffffff16815260200190815260200160002060008373ffffffffffffffffffffffffffffffffffffffff1673ffffffffffffffffffffffffffffffffffffffff16815260200190815260200160002060009054906101000a900460ff16905092915050565b60a55481565b60007f01ffc9a7000000000000000000000000000000000000000000000000000000007bffffffffffffffffffffffffffffffffffffffffffffffffffffffff1916827bffffffffffffffffffffffffffffffffffffffffffffffffffffffff1916149050919050565b6121e781612b40565b612226576040517f08c379a000000000000000000000000000000000000000000000000000000000815260040161221d90614272565b60405180910390fd5b50565b600033905090565b816070600083815260200190815260200160002060006101000a81548173ffffffffffffffffffffffffffffffffffffffff021916908373ffffffffffffffffffffffffffffffffffffffff160217905550808273ffffffffffffffffffffffffffffffffffffffff166122a4836116b1565b73ffffffffffffffffffffffffffffffffffffffff167f8c5be1e5ebec7d5bd14f71427d1e84f3dd0314c0f7b2291e5b200ac8c7c3b92560405160405180910390a45050565b600080543384604051602001612302939291906148cd565b60405160208183030381529060405280519060200120905081811461235c576040517f08c379a000000000000000000000000000000000000000000000000000000000815260040161235390614956565b60405180910390fd5b92915050565b61237c828260405180602001604052806000815250612b81565b5050565b60008061238c836116b1565b90508073ffffffffffffffffffffffffffffffffffffffff168473ffffffffffffffffffffffffffffffffffffffff1614806123ce57506123cd81856120da565b5b8061240c57508373ffffffffffffffffffffffffffffffffffffffff166123f484611083565b73ffffffffffffffffffffffffffffffffffffffff16145b91505092915050565b8273ffffffffffffffffffffffffffffffffffffffff16612435826116b1565b73ffffffffffffffffffffffffffffffffffffffff161461248b576040517f08c379a0000000000000000000000000000000000000000000000000000000008152600401612482906149e8565b60405180910390fd5b600073ffffffffffffffffffffffffffffffffffffffff168273ffffffffffffffffffffffffffffffffffffffff16036124fa576040517f08c379a00000000000000000000000000000000000000000000000000000000081526004016124f190614a7a565b60405180910390fd5b6125078383836001612bdc565b8273ffffffffffffffffffffffffffffffffffffffff16612527826116b1565b73ffffffffffffffffffffffffffffffffffffffff161461257d576040517f08c379a0000000000000000000000000000000000000000000000000000000008152600401612574906149e8565b60405180910390fd5b6070600082815260200190815260200160002060006101000a81549073ffffffffffffffffffffffffffffffffffffffff02191690556001606f60008573ffffffffffffffffffffffffffffffffffffffff1673ffffffffffffffffffffffffffffffffffffffff168152602001908152602001600020600082825403925050819055506001606f60008473ffffffffffffffffffffffffffffffffffffffff1673ffffffffffffffffffffffffffffffffffffffff1681526020019081526020016000206000828254019250508190555081606e600083815260200190815260200160002060006101000a81548173ffffffffffffffffffffffffffffffffffffffff021916908373ffffffffffffffffffffffffffffffffffffffff160217905550808273ffffffffffffffffffffffffffffffffffffffff168473ffffffffffffffffffffffffffffffffffffffff167fddf252ad1be2c89b69c2b068fc378daa952ba7f163c4a11628f55a4df523b3ef60405160405180910390a46127098383836001612be2565b505050565b6000606e600083815260200190815260200160002060009054906101000a900473ffffffffffffffffffffffffffffffffffffffff169050919050565b8173ffffffffffffffffffffffffffffffffffffffff168373ffffffffffffffffffffffffffffffffffffffff16036127b9576040517f08c379a00000000000000000000000000000000000000000000000000000000081526004016127b090614ae6565b60405180910390fd5b80607160008573ffffffffffffffffffffffffffffffffffffffff1673ffffffffffffffffffffffffffffffffffffffff16815260200190815260200160002060008473ffffffffffffffffffffffffffffffffffffffff1673ffffffffffffffffffffffffffffffffffffffff16815260200190815260200160002060006101000a81548160ff0219169083151502179055508173ffffffffffffffffffffffffffffffffffffffff168373ffffffffffffffffffffffffffffffffffffffff167f17307eab39ab6107e8899845ad3d59bd9653f200f220920489ca2b5937696c31836040516128aa91906132fe565b60405180910390a3505050565b6000808273ffffffffffffffffffffffffffffffffffffffff163b119050919050565b600760019054906101000a900460ff16612929576040517f08c379a000000000000000000000000000000000000000000000000000000000815260040161292090614b78565b60405180910390fd5b6129338282612be8565b5050565b60008160b59150710100000000000000000000000000000000008110612964578060801c90508160401b91505b69010000000000000000008110612982578060401c90508160201b91505b65010000000000811061299c578060201c90508160101b91505b630100000081106129b4578060101c90508160081b91505b620100008101820260121c9150818304820160011c9150818304820160011c9150818304820160011c9150818304820160011c9150818304820160011c9150818304820160011c9150818304820160011c915081828404108203915050919050565b612a21848484612415565b612a2d84848484612c5b565b612a6c576040517f08c379a0000000000000000000000000000000000000000000000000000000008152600401612a6390614c0a565b60405180910390fd5b50505050565b606060006001612a8184612de2565b01905060008167ffffffffffffffff811115612aa057612a9f61374c565b5b6040519080825280601f01601f191660200182016040528015612ad25781602001600182028036833780820191505090505b509050600082602001820190505b600115612b35578080600190039150507f3031323334353637383961626364656600000000000000000000000000000000600a86061a8153600a8581612b2957612b28613ef0565b5b04945060008503612ae0575b819350505050919050565b60008073ffffffffffffffffffffffffffffffffffffffff16612b628361270e565b73ffffffffffffffffffffffffffffffffffffffff1614159050919050565b612b8b8383612f35565b612b986000848484612c5b565b612bd7576040517f08c379a0000000000000000000000000000000000000000000000000000000008152600401612bce90614c0a565b60405180910390fd5b505050565b50505050565b50505050565b600760019054906101000a900460ff16612c37576040517f08c379a0000000000000000000000000000000000000000000000000000000008152600401612c2e90614b78565b60405180910390fd5b81606c9081612c4691906144d0565b5080606d9081612c5691906144d0565b505050565b6000612c7c8473ffffffffffffffffffffffffffffffffffffffff166128b7565b15612dd5578373ffffffffffffffffffffffffffffffffffffffff1663150b7a02612ca5612229565b8786866040518563ffffffff1660e01b8152600401612cc79493929190614c7f565b6020604051808303816000875af1925050508015612d0357506040513d601f19601f82011682018060405250810190612d009190614ce0565b60015b612d85573d8060008114612d33576040519150601f19603f3d011682016040523d82523d6000602084013e612d38565b606091505b506000815103612d7d576040517f08c379a0000000000000000000000000000000000000000000000000000000008152600401612d7490614c0a565b60405180910390fd5b805181602001fd5b63150b7a0260e01b7bffffffffffffffffffffffffffffffffffffffffffffffffffffffff1916817bffffffffffffffffffffffffffffffffffffffffffffffffffffffff191614915050612dda565b600190505b949350505050565b600080600090507a184f03e93ff9f4daa797ed6e38ed64bf6a1f0100000000000000008310612e40577a184f03e93ff9f4daa797ed6e38ed64bf6a1f0100000000000000008381612e3657612e35613ef0565b5b0492506040810190505b6d04ee2d6d415b85acef81000000008310612e7d576d04ee2d6d415b85acef81000000008381612e7357612e72613ef0565b5b0492506020810190505b662386f26fc100008310612eac57662386f26fc100008381612ea257612ea1613ef0565b5b0492506010810190505b6305f5e1008310612ed5576305f5e1008381612ecb57612eca613ef0565b5b0492506008810190505b6127108310612efa576127108381612ef057612eef613ef0565b5b0492506004810190505b60648310612f1d5760648381612f1357612f12613ef0565b5b0492506002810190505b600a8310612f2c576001810190505b80915050919050565b600073ffffffffffffffffffffffffffffffffffffffff168273ffffffffffffffffffffffffffffffffffffffff1603612fa4576040517f08c379a0000000000000000000000000000000000000000000000000000000008152600401612f9b90614d59565b60405180910390fd5b612fad81612b40565b15612fed576040517f08c379a0000000000000000000000000000000000000000000000000000000008152600401612fe490614dc5565b60405180910390fd5b612ffb600083836001612bdc565b61300481612b40565b15613044576040517f08c379a000000000000000000000000000000000000000000000000000000000815260040161303b90614dc5565b60405180910390fd5b6001606f60008473ffffffffffffffffffffffffffffffffffffffff1673ffffffffffffffffffffffffffffffffffffffff1681526020019081526020016000206000828254019250508190555081606e600083815260200190815260200160002060006101000a81548173ffffffffffffffffffffffffffffffffffffffff021916908373ffffffffffffffffffffffffffffffffffffffff160217905550808273ffffffffffffffffffffffffffffffffffffffff16600073ffffffffffffffffffffffffffffffffffffffff167fddf252ad1be2c89b69c2b068fc378daa952ba7f163c4a11628f55a4df523b3ef60405160405180910390a461314e600083836001612be2565b5050565b82805482825590600052602060002090601f016020900481019282156131e85791602002820160005b838211156131b957835183826101000a81548160ff021916908360ff160217905550926020019260010160208160000104928301926001030261317b565b80156131e65782816101000a81549060ff02191690556001016020816000010492830192600103026131b9565b505b5090506131f591906131f9565b5090565b5b808211156132125760008160009055506001016131fa565b5090565b6000819050919050565b61322981613216565b82525050565b60006020820190506132446000830184613220565b92915050565b6000604051905090565b600080fd5b600080fd5b60007fffffffff0000000000000000000000000000000000000000000000000000000082169050919050565b6132938161325e565b811461329e57600080fd5b50565b6000813590506132b08161328a565b92915050565b6000602082840312156132cc576132cb613254565b5b60006132da848285016132a1565b91505092915050565b60008115159050919050565b6132f8816132e3565b82525050565b600060208201905061331360008301846132ef565b92915050565b61332281613216565b811461332d57600080fd5b50565b60008135905061333f81613319565b92915050565b60006020828403121561335b5761335a613254565b5b600061336984828501613330565b91505092915050565b600060ff82169050919050565b61338881613372565b82525050565b60006020820190506133a3600083018461337f565b92915050565b600081519050919050565b600082825260208201905092915050565b60005b838110156133e35780820151818401526020810190506133c8565b60008484015250505050565b6000601f19601f8301169050919050565b600061340b826133a9565b61341581856133b4565b93506134258185602086016133c5565b61342e816133ef565b840191505092915050565b600060208201905081810360008301526134538184613400565b905092915050565b61346481613372565b811461346f57600080fd5b50565b6000813590506134818161345b565b92915050565b60006020828403121561349d5761349c613254565b5b60006134ab84828501613472565b91505092915050565b600073ffffffffffffffffffffffffffffffffffffffff82169050919050565b60006134df826134b4565b9050919050565b6134ef816134d4565b82525050565b600060208201905061350a60008301846134e6565b92915050565b613519816134d4565b811461352457600080fd5b50565b60008135905061353681613510565b92915050565b6000806040838503121561355357613552613254565b5b600061356185828601613527565b925050602061357285828601613330565b9150509250929050565b6000819050919050565b61358f8161357c565b811461359a57600080fd5b50565b6000813590506135ac81613586565b92915050565b600080604083850312156135c9576135c8613254565b5b60006135d785828601613330565b92505060206135e88582860161359d565b9150509250929050565b60008060006060848603121561360b5761360a613254565b5b600061361986828701613527565b935050602061362a86828701613527565b925050604061363b86828701613330565b9150509250925092565b61364e8161357c565b82525050565b60006020820190506136696000830184613645565b92915050565b600060c0820190506136846000830189613220565b6136916020830188613220565b61369e6040830187613220565b6136ab6060830186613220565b6136b86080830185613220565b6136c560a0830184613220565b979650505050505050565b6000602082840312156136e6576136e5613254565b5b60006136f484828501613527565b91505092915050565b600060808201905061371260008301876134e6565b61371f6020830186613220565b61372c6040830185613220565b6137396060830184613220565b95945050505050565b600080fd5b600080fd5b7f4e487b7100000000000000000000000000000000000000000000000000000000600052604160045260246000fd5b613784826133ef565b810181811067ffffffffffffffff821117156137a3576137a261374c565b5b80604052505050565b60006137b661324a565b90506137c2828261377b565b919050565b600067ffffffffffffffff8211156137e2576137e161374c565b5b6137eb826133ef565b9050602081019050919050565b82818337600083830152505050565b600061381a613815846137c7565b6137ac565b90508281526020810184848401111561383657613835613747565b5b6138418482856137f8565b509392505050565b600082601f83011261385e5761385d613742565b5b813561386e848260208601613807565b91505092915050565b60006020828403121561388d5761388c613254565b5b600082013567ffffffffffffffff8111156138ab576138aa613259565b5b6138b784828501613849565b91505092915050565b6138c9816132e3565b81146138d457600080fd5b50565b6000813590506138e6816138c0565b92915050565b6000806040838503121561390357613902613254565b5b600061391185828601613527565b9250506020613922858286016138d7565b9150509250929050565b60008060006060848603121561394557613944613254565b5b600084013567ffffffffffffffff81111561396357613962613259565b5b61396f86828701613849565b935050602084013567ffffffffffffffff8111156139905761398f613259565b5b61399c86828701613849565b925050604084013567ffffffffffffffff8111156139bd576139bc613259565b5b6139c986828701613849565b9150509250925092565b600080604083850312156139ea576139e9613254565b5b60006139f885828601613330565b9250506020613a0985828601613330565b9150509250929050565b600067ffffffffffffffff821115613a2e57613a2d61374c565b5b613a37826133ef565b9050602081019050919050565b6000613a57613a5284613a13565b6137ac565b905082815260208101848484011115613a7357613a72613747565b5b613a7e8482856137f8565b509392505050565b600082601f830112613a9b57613a9a613742565b5b8135613aab848260208601613a44565b91505092915050565b60008060008060808587031215613ace57613acd613254565b5b6000613adc87828801613527565b9450506020613aed87828801613527565b9350506040613afe87828801613330565b925050606085013567ffffffffffffffff811115613b1f57613b1e613259565b5b613b2b87828801613a86565b91505092959194509250565b60008060408385031215613b4e57613b4d613254565b5b6000613b5c85828601613527565b9250506020613b6d85828601613527565b9150509250929050565b7f4e487b7100000000000000000000000000000000000000000000000000000000600052602260045260246000fd5b60006002820490506001821680613bbe57607f821691505b602082108103613bd157613bd0613b77565b5b50919050565b7f4e487b7100000000000000000000000000000000000000000000000000000000600052601160045260246000fd5b6000613c1182613216565b9150613c1c83613216565b9250828202613c2a81613216565b91508282048414831517613c4157613c40613bd7565b5b5092915050565b6000613c5382613372565b9150613c5e83613372565b9250828201905060ff811115613c7757613c76613bd7565b5b92915050565b7f4552433732313a20617070726f76616c20746f2063757272656e74206f776e6560008201527f7200000000000000000000000000000000000000000000000000000000000000602082015250565b6000613cd96021836133b4565b9150613ce482613c7d565b604082019050919050565b60006020820190508181036000830152613d0881613ccc565b9050919050565b7f4552433732313a20617070726f76652063616c6c6572206973206e6f7420746f60008201527f6b656e206f776e6572206f7220617070726f76656420666f7220616c6c000000602082015250565b6000613d6b603d836133b4565b9150613d7682613d0f565b604082019050919050565b60006020820190508181036000830152613d9a81613d5e565b9050919050565b6000613dac82613216565b91507fffffffffffffffffffffffffffffffffffffffffffffffffffffffffffffffff8203613dde57613ddd613bd7565b5b600182019050919050565b7f4e6f6e636520696e636f72726563740000000000000000000000000000000000600082015250565b6000613e1f600f836133b4565b9150613e2a82613de9565b602082019050919050565b60006020820190508181036000830152613e4e81613e12565b9050919050565b7f536f6c7574696f6e206578697374000000000000000000000000000000000000600082015250565b6000613e8b600e836133b4565b9150613e9682613e55565b602082019050919050565b60006020820190508181036000830152613eba81613e7e565b9050919050565b7f4e487b7100000000000000000000000000000000000000000000000000000000600052603260045260246000fd5b7f4e487b7100000000000000000000000000000000000000000000000000000000600052601260045260246000fd5b6000613f2a82613216565b9150613f3583613216565b925082613f4557613f44613ef0565b5b828204905092915050565b6000613f5b82613216565b9150613f6683613216565b9250828201905080821115613f7e57613f7d613bd7565b5b92915050565b7f4552433732313a2063616c6c6572206973206e6f7420746f6b656e206f776e6560008201527f72206f7220617070726f76656400000000000000000000000000000000000000602082015250565b6000613fe0602d836133b4565b9150613feb82613f84565b604082019050919050565b6000602082019050818103600083015261400f81613fd3565b9050919050565b7f4f6e6c79206f776e657220697320616c6c6f77656420746f20706572666f726d60008201527f207468697320616374696f6e0000000000000000000000000000000000000000602082015250565b6000614072602c836133b4565b915061407d82614016565b604082019050919050565b600060208201905081810360008301526140a181614065565b9050919050565b60008160011c9050919050565b6000808291508390505b60018511156140ff578086048111156140db576140da613bd7565b5b60018516156140ea5780820291505b80810290506140f8856140a8565b94506140bf565b94509492505050565b60008261411857600190506141d4565b8161412657600090506141d4565b816001811461413c576002811461414657614175565b60019150506141d4565b60ff84111561415857614157613bd7565b5b8360020a91508482111561416f5761416e613bd7565b5b506141d4565b5060208310610133831016604e8410600b84101617156141aa5782820a9050838111156141a5576141a4613bd7565b5b6141d4565b6141b784848460016140b5565b925090508184048111156141ce576141cd613bd7565b5b81810290505b9392505050565b60006141e682613216565b91506141f183613216565b925061421e7fffffffffffffffffffffffffffffffffffffffffffffffffffffffffffffffff8484614108565b905092915050565b7f4552433732313a20696e76616c696420746f6b656e2049440000000000000000600082015250565b600061425c6018836133b4565b915061426782614226565b602082019050919050565b6000602082019050818103600083015261428b8161424f565b9050919050565b7f4552433732313a2061646472657373207a65726f206973206e6f74206120766160008201527f6c6964206f776e65720000000000000000000000000000000000000000000000602082015250565b60006142ee6029836133b4565b91506142f982614292565b604082019050919050565b6000602082019050818103600083015261431d816142e1565b9050919050565b60008190508160005260206000209050919050565b60006020601f8301049050919050565b600082821b905092915050565b6000600883026143867fffffffffffffffffffffffffffffffffffffffffffffffffffffffffffffffff82614349565b6143908683614349565b95508019841693508086168417925050509392505050565b6000819050919050565b60006143cd6143c86143c384613216565b6143a8565b613216565b9050919050565b6000819050919050565b6143e7836143b2565b6143fb6143f3826143d4565b848454614356565b825550505050565b600090565b614410614403565b61441b8184846143de565b505050565b5b8181101561443f57614434600082614408565b600181019050614421565b5050565b601f8211156144845761445581614324565b61445e84614339565b8101602085101561446d578190505b61448161447985614339565b830182614420565b50505b505050565b600082821c905092915050565b60006144a760001984600802614489565b1980831691505092915050565b60006144c08383614496565b9150826002028217905092915050565b6144d9826133a9565b67ffffffffffffffff8111156144f2576144f161374c565b5b6144fc8254613ba6565b614507828285614443565b600060209050601f83116001811461453a5760008415614528578287015190505b61453285826144b4565b86555061459a565b601f19841661454886614324565b60005b828110156145705784890151825560018201915060208501945060208101905061454b565b8683101561458d5784890151614589601f891682614496565b8355505b6001600288020188555050505b505050505050565b7f496e697469616c697a61626c653a20636f6e747261637420697320616c72656160008201527f647920696e697469616c697a6564000000000000000000000000000000000000602082015250565b60006145fe602e836133b4565b9150614609826145a2565b604082019050919050565b6000602082019050818103600083015261462d816145f1565b9050919050565b600061463f82613216565b915061464a83613216565b925082820390508181111561466257614661613bd7565b5b92915050565b6000819050919050565b600061468d61468861468384614668565b6143a8565b613372565b9050919050565b61469d81614672565b82525050565b60006020820190506146b86000830184614694565b92915050565b60006146c982613216565b91506146d483613372565b92506147017fffffffffffffffffffffffffffffffffffffffffffffffffffffffffffffffff8484614108565b905092915050565b600081905092915050565b6000815461472181613ba6565b61472b8186614709565b94506001821660008114614746576001811461475b5761478e565b60ff198316865281151582028601935061478e565b61476485614324565b60005b8381101561478657815481890152600182019150602081019050614767565b838801955050505b50505092915050565b60006147a2826133a9565b6147ac8185614709565b93506147bc8185602086016133c5565b80840191505092915050565b7f2e6a736f6e000000000000000000000000000000000000000000000000000000600082015250565b60006147fe600583614709565b9150614809826147c8565b600582019050919050565b60006148208285614714565b915061482c8284614797565b9150614837826147f1565b91508190509392505050565b6000819050919050565b61485e6148598261357c565b614843565b82525050565b60008160601b9050919050565b600061487c82614864565b9050919050565b600061488e82614871565b9050919050565b6148a66148a1826134d4565b614883565b82525050565b6000819050919050565b6148c76148c282613216565b6148ac565b82525050565b60006148d9828661484d565b6020820191506148e98285614895565b6014820191506148f982846148b6565b602082019150819050949350505050565b7f44696765737420697320646966666572656e7400000000000000000000000000600082015250565b60006149406013836133b4565b915061494b8261490a565b602082019050919050565b6000602082019050818103600083015261496f81614933565b9050919050565b7f4552433732313a207472616e736665722066726f6d20696e636f72726563742060008201527f6f776e6572000000000000000000000000000000000000000000000000000000602082015250565b60006149d26025836133b4565b91506149dd82614976565b604082019050919050565b60006020820190508181036000830152614a01816149c5565b9050919050565b7f4552433732313a207472616e7366657220746f20746865207a65726f2061646460008201527f7265737300000000000000000000000000000000000000000000000000000000602082015250565b6000614a646024836133b4565b9150614a6f82614a08565b604082019050919050565b60006020820190508181036000830152614a9381614a57565b9050919050565b7f4552433732313a20617070726f766520746f2063616c6c657200000000000000600082015250565b6000614ad06019836133b4565b9150614adb82614a9a565b602082019050919050565b60006020820190508181036000830152614aff81614ac3565b9050919050565b7f496e697469616c697a61626c653a20636f6e7472616374206973206e6f74206960008201527f6e697469616c697a696e67000000000000000000000000000000000000000000602082015250565b6000614b62602b836133b4565b9150614b6d82614b06565b604082019050919050565b60006020820190508181036000830152614b9181614b55565b9050919050565b7f4552433732313a207472616e7366657220746f206e6f6e20455243373231526560008201527f63656976657220696d706c656d656e7465720000000000000000000000000000602082015250565b6000614bf46032836133b4565b9150614bff82614b98565b604082019050919050565b60006020820190508181036000830152614c2381614be7565b9050919050565b600081519050919050565b600082825260208201905092915050565b6000614c5182614c2a565b614c5b8185614c35565b9350614c6b8185602086016133c5565b614c74816133ef565b840191505092915050565b6000608082019050614c9460008301876134e6565b614ca160208301866134e6565b614cae6040830185613220565b8181036060830152614cc08184614c46565b905095945050505050565b600081519050614cda8161328a565b92915050565b600060208284031215614cf657614cf5613254565b5b6000614d0484828501614ccb565b91505092915050565b7f4552433732313a206d696e7420746f20746865207a65726f2061646472657373600082015250565b6000614d436020836133b4565b9150614d4e82614d0d565b602082019050919050565b60006020820190508181036000830152614d7281614d36565b9050919050565b7f4552433732313a20746f6b656e20616c7265616479206d696e74656400000000600082015250565b6000614daf601c836133b4565b9150614dba82614d79565b602082019050919050565b60006020820190508181036000830152614dde81614da2565b905091905056fea264697066735822122048420185d018aa5d6378963275b9b458aea8bb95c83354db87a51b99c64a39bb64736f6c63430008120033","opcodes":"PUSH1 0x80 PUSH1 0x40 MSTORE CALLVALUE DUP1 ISZERO PUSH2 0x10 JUMPI PUSH1 0x0 DUP1 REVERT JUMPDEST POP PUSH2 0x4E1B DUP1 PUSH2 0x20 PUSH1 0x0 CODECOPY PUSH1 0x0 RETURN INVALID PUSH1 0x80 PUSH1 0x40 MSTORE PUSH1 0x4 CALLDATASIZE LT PUSH2 0x375 JUMPI PUSH1 0x0 CALLDATALOAD PUSH1 0xE0 SHR DUP1 PUSH4 0x6352211E GT PUSH2 0x1D1 JUMPI DUP1 PUSH4 0xA0BCFC7F GT PUSH2 0x102 JUMPI DUP1 PUSH4 0xB57D7283 GT PUSH2 0xA0 JUMPI DUP1 PUSH4 0xCB9AE707 GT PUSH2 0x6F JUMPI DUP1 PUSH4 0xCB9AE707 EQ PUSH2 0xD0E JUMPI DUP1 PUSH4 0xE09FEAE3 EQ PUSH2 0xD39 JUMPI DUP1 PUSH4 0xE985E9C5 EQ PUSH2 0xD76 JUMPI DUP1 PUSH4 0xEE2E5612 EQ PUSH2 0xDB3 JUMPI PUSH2 0x375 JUMP JUMPDEST DUP1 PUSH4 0xB57D7283 EQ PUSH2 0xC40 JUMPI DUP1 PUSH4 0xB7304272 EQ PUSH2 0xC7D JUMPI DUP1 PUSH4 0xB88D4FDE EQ PUSH2 0xCA8 JUMPI DUP1 PUSH4 0xC87B56DD EQ PUSH2 0xCD1 JUMPI PUSH2 0x375 JUMP JUMPDEST DUP1 PUSH4 0xA6487C53 GT PUSH2 0xDC JUMPI DUP1 PUSH4 0xA6487C53 EQ PUSH2 0xB84 JUMPI DUP1 PUSH4 0xAC693778 EQ PUSH2 0xBAD JUMPI DUP1 PUSH4 0xACF86C87 EQ PUSH2 0xBD8 JUMPI DUP1 PUSH4 0xAD1DFE3B EQ PUSH2 0xC15 JUMPI PUSH2 0x375 JUMP JUMPDEST DUP1 PUSH4 0xA0BCFC7F EQ PUSH2 0xB07 JUMPI DUP1 PUSH4 0xA22CB465 EQ PUSH2 0xB30 JUMPI DUP1 PUSH4 0xA465EEAF EQ PUSH2 0xB59 JUMPI PUSH2 0x375 JUMP JUMPDEST DUP1 PUSH4 0x829965CC GT PUSH2 0x16F JUMPI DUP1 PUSH4 0x8DA5CB5B GT PUSH2 0x149 JUMPI DUP1 PUSH4 0x8DA5CB5B EQ PUSH2 0xA58 JUMPI DUP1 PUSH4 0x95D89B41 EQ PUSH2 0xA83 JUMPI DUP1 PUSH4 0x95E272BD EQ PUSH2 0xAAE JUMPI DUP1 PUSH4 0x9ABC8320 EQ PUSH2 0xADC JUMPI PUSH2 0x375 JUMP JUMPDEST DUP1 PUSH4 0x829965CC EQ PUSH2 0x9D7 JUMPI DUP1 PUSH4 0x82C890FD EQ PUSH2 0xA02 JUMPI DUP1 PUSH4 0x8AE0368B EQ PUSH2 0xA2D JUMPI PUSH2 0x375 JUMP JUMPDEST DUP1 PUSH4 0x6DE9F32B GT PUSH2 0x1AB JUMPI DUP1 PUSH4 0x6DE9F32B EQ PUSH2 0x907 JUMPI DUP1 PUSH4 0x70A08231 EQ PUSH2 0x932 JUMPI DUP1 PUSH4 0x7C2D542C EQ PUSH2 0x96F JUMPI DUP1 PUSH4 0x7C7F3206 EQ PUSH2 0x9AC JUMPI PUSH2 0x375 JUMP JUMPDEST DUP1 PUSH4 0x6352211E EQ PUSH2 0x85D JUMPI DUP1 PUSH4 0x6A2E19A2 EQ PUSH2 0x89A JUMPI DUP1 PUSH4 0x6A586594 EQ PUSH2 0x8DC JUMPI PUSH2 0x375 JUMP JUMPDEST DUP1 PUSH4 0x2D38BF7A GT PUSH2 0x2AB JUMPI DUP1 PUSH4 0x42842E0E GT PUSH2 0x249 JUMPI DUP1 PUSH4 0x4E802139 GT PUSH2 0x223 JUMPI DUP1 PUSH4 0x4E802139 EQ PUSH2 0x7A1 JUMPI DUP1 PUSH4 0x4EF37628 EQ PUSH2 0x7CA JUMPI DUP1 PUSH4 0x4FA972E1 EQ PUSH2 0x7F5 JUMPI DUP1 PUSH4 0x56B757BE EQ PUSH2 0x820 JUMPI PUSH2 0x375 JUMP JUMPDEST DUP1 PUSH4 0x42842E0E EQ PUSH2 0x722 JUMPI DUP1 PUSH4 0x47E9C095 EQ PUSH2 0x74B JUMPI DUP1 PUSH4 0x490203A7 EQ PUSH2 0x776 JUMPI PUSH2 0x375 JUMP JUMPDEST DUP1 PUSH4 0x3426E5F5 GT PUSH2 0x285 JUMPI DUP1 PUSH4 0x3426E5F5 EQ PUSH2 0x68A JUMPI DUP1 PUSH4 0x3CCFD60B EQ PUSH2 0x6B5 JUMPI DUP1 PUSH4 0x3D85D614 EQ PUSH2 0x6CC JUMPI DUP1 PUSH4 0x3FA4F245 EQ PUSH2 0x6F7 JUMPI PUSH2 0x375 JUMP JUMPDEST DUP1 PUSH4 0x2D38BF7A EQ PUSH2 0x609 JUMPI DUP1 PUSH4 0x313CE567 EQ PUSH2 0x634 JUMPI DUP1 PUSH4 0x32E99708 EQ PUSH2 0x65F JUMPI PUSH2 0x375 JUMP JUMPDEST DUP1 PUSH4 0x95EA7B3 GT PUSH2 0x318 JUMPI DUP1 PUSH4 0x19CAE462 GT PUSH2 0x2F2 JUMPI DUP1 PUSH4 0x19CAE462 EQ PUSH2 0x55F JUMPI DUP1 PUSH4 0x1BEDDF1C EQ PUSH2 0x58A JUMPI DUP1 PUSH4 0x22009AF6 EQ PUSH2 0x5B5 JUMPI DUP1 PUSH4 0x23B872DD EQ PUSH2 0x5E0 JUMPI PUSH2 0x375 JUMP JUMPDEST DUP1 PUSH4 0x95EA7B3 EQ PUSH2 0x4CE JUMPI DUP1 PUSH4 0x17DA485F EQ PUSH2 0x4F7 JUMPI DUP1 PUSH4 0x1801FBE5 EQ PUSH2 0x522 JUMPI PUSH2 0x375 JUMP JUMPDEST DUP1 PUSH4 0x6FDDE03 GT PUSH2 0x354 JUMPI DUP1 PUSH4 0x6FDDE03 EQ PUSH2 0x41F JUMPI DUP1 PUSH4 0x7A11AEB EQ PUSH2 0x44A JUMPI DUP1 PUSH4 0x81812FC EQ PUSH2 0x466 JUMPI DUP1 PUSH4 0x95B6D4C EQ PUSH2 0x4A3 JUMPI PUSH2 0x375 JUMP JUMPDEST DUP1 PUSH3 0x9A9B7B EQ PUSH2 0x37A JUMPI DUP1 PUSH4 0x1FFC9A7 EQ PUSH2 0x3A5 JUMPI DUP1 PUSH4 0x3CA2F53 EQ PUSH2 0x3E2 JUMPI JUMPDEST PUSH1 0x0 DUP1 REVERT JUMPDEST CALLVALUE DUP1 ISZERO PUSH2 0x386 JUMPI PUSH1 0x0 DUP1 REVERT JUMPDEST POP PUSH2 0x38F PUSH2 0xDDE JUMP JUMPDEST PUSH1 0x40 MLOAD PUSH2 0x39C SWAP2 SWAP1 PUSH2 0x322F JUMP JUMPDEST PUSH1 0x40 MLOAD DUP1 SWAP2 SUB SWAP1 RETURN JUMPDEST CALLVALUE DUP1 ISZERO PUSH2 0x3B1 JUMPI PUSH1 0x0 DUP1 REVERT JUMPDEST POP PUSH2 0x3CC PUSH1 0x4 DUP1 CALLDATASIZE SUB DUP2 ADD SWAP1 PUSH2 0x3C7 SWAP2 SWAP1 PUSH2 0x32B6 JUMP JUMPDEST PUSH2 0xDE4 JUMP JUMPDEST PUSH1 0x40 MLOAD PUSH2 0x3D9 SWAP2 SWAP1 PUSH2 0x32FE JUMP JUMPDEST PUSH1 0x40 MLOAD DUP1 SWAP2 SUB SWAP1 RETURN JUMPDEST CALLVALUE DUP1 ISZERO PUSH2 0x3EE JUMPI PUSH1 0x0 DUP1 REVERT JUMPDEST POP PUSH2 0x409 PUSH1 0x4 DUP1 CALLDATASIZE SUB DUP2 ADD SWAP1 PUSH2 0x404 SWAP2 SWAP1 PUSH2 0x3345 JUMP JUMPDEST PUSH2 0xEC6 JUMP JUMPDEST PUSH1 0x40 MLOAD PUSH2 0x416 SWAP2 SWAP1 PUSH2 0x338E JUMP JUMPDEST PUSH1 0x40 MLOAD DUP1 SWAP2 SUB SWAP1 RETURN JUMPDEST CALLVALUE DUP1 ISZERO PUSH2 0x42B JUMPI PUSH1 0x0 DUP1 REVERT JUMPDEST POP PUSH2 0x434 PUSH2 0xEFA JUMP JUMPDEST PUSH1 0x40 MLOAD PUSH2 0x441 SWAP2 SWAP1 PUSH2 0x3439 JUMP JUMPDEST PUSH1 0x40 MLOAD DUP1 SWAP2 SUB SWAP1 RETURN JUMPDEST PUSH2 0x464 PUSH1 0x4 DUP1 CALLDATASIZE SUB DUP2 ADD SWAP1 PUSH2 0x45F SWAP2 SWAP1 PUSH2 0x3487 JUMP JUMPDEST PUSH2 0xF8C JUMP JUMPDEST STOP JUMPDEST CALLVALUE DUP1 ISZERO PUSH2 0x472 JUMPI PUSH1 0x0 DUP1 REVERT JUMPDEST POP PUSH2 0x48D PUSH1 0x4 DUP1 CALLDATASIZE SUB DUP2 ADD SWAP1 PUSH2 0x488 SWAP2 SWAP1 PUSH2 0x3345 JUMP JUMPDEST PUSH2 0x1083 JUMP JUMPDEST PUSH1 0x40 MLOAD PUSH2 0x49A SWAP2 SWAP1 PUSH2 0x34F5 JUMP JUMPDEST PUSH1 0x40 MLOAD DUP1 SWAP2 SUB SWAP1 RETURN JUMPDEST CALLVALUE DUP1 ISZERO PUSH2 0x4AF JUMPI PUSH1 0x0 DUP1 REVERT JUMPDEST POP PUSH2 0x4B8 PUSH2 0x10C9 JUMP JUMPDEST PUSH1 0x40 MLOAD PUSH2 0x4C5 SWAP2 SWAP1 PUSH2 0x322F JUMP JUMPDEST PUSH1 0x40 MLOAD DUP1 SWAP2 SUB SWAP1 RETURN JUMPDEST CALLVALUE DUP1 ISZERO PUSH2 0x4DA JUMPI PUSH1 0x0 DUP1 REVERT JUMPDEST POP PUSH2 0x4F5 PUSH1 0x4 DUP1 CALLDATASIZE SUB DUP2 ADD SWAP1 PUSH2 0x4F0 SWAP2 SWAP1 PUSH2 0x353C JUMP JUMPDEST PUSH2 0x10CF JUMP JUMPDEST STOP JUMPDEST CALLVALUE DUP1 ISZERO PUSH2 0x503 JUMPI PUSH1 0x0 DUP1 REVERT JUMPDEST POP PUSH2 0x50C PUSH2 0x11E6 JUMP JUMPDEST PUSH1 0x40 MLOAD PUSH2 0x519 SWAP2 SWAP1 PUSH2 0x322F JUMP JUMPDEST PUSH1 0x40 MLOAD DUP1 SWAP2 SUB SWAP1 RETURN JUMPDEST CALLVALUE DUP1 ISZERO PUSH2 0x52E JUMPI PUSH1 0x0 DUP1 REVERT JUMPDEST POP PUSH2 0x549 PUSH1 0x4 DUP1 CALLDATASIZE SUB DUP2 ADD SWAP1 PUSH2 0x544 SWAP2 SWAP1 PUSH2 0x35B2 JUMP JUMPDEST PUSH2 0x11F0 JUMP JUMPDEST PUSH1 0x40 MLOAD PUSH2 0x556 SWAP2 SWAP1 PUSH2 0x32FE JUMP JUMPDEST PUSH1 0x40 MLOAD DUP1 SWAP2 SUB SWAP1 RETURN JUMPDEST CALLVALUE DUP1 ISZERO PUSH2 0x56B JUMPI PUSH1 0x0 DUP1 REVERT JUMPDEST POP PUSH2 0x574 PUSH2 0x13EB JUMP JUMPDEST PUSH1 0x40 MLOAD PUSH2 0x581 SWAP2 SWAP1 PUSH2 0x322F JUMP JUMPDEST PUSH1 0x40 MLOAD DUP1 SWAP2 SUB SWAP1 RETURN JUMPDEST CALLVALUE DUP1 ISZERO PUSH2 0x596 JUMPI PUSH1 0x0 DUP1 REVERT JUMPDEST POP PUSH2 0x59F PUSH2 0x13F1 JUMP JUMPDEST PUSH1 0x40 MLOAD PUSH2 0x5AC SWAP2 SWAP1 PUSH2 0x322F JUMP JUMPDEST PUSH1 0x40 MLOAD DUP1 SWAP2 SUB SWAP1 RETURN JUMPDEST CALLVALUE DUP1 ISZERO PUSH2 0x5C1 JUMPI PUSH1 0x0 DUP1 REVERT JUMPDEST POP PUSH2 0x5CA PUSH2 0x13F6 JUMP JUMPDEST PUSH1 0x40 MLOAD PUSH2 0x5D7 SWAP2 SWAP1 PUSH2 0x322F JUMP JUMPDEST PUSH1 0x40 MLOAD DUP1 SWAP2 SUB SWAP1 RETURN JUMPDEST CALLVALUE DUP1 ISZERO PUSH2 0x5EC JUMPI PUSH1 0x0 DUP1 REVERT JUMPDEST POP PUSH2 0x607 PUSH1 0x4 DUP1 CALLDATASIZE SUB DUP2 ADD SWAP1 PUSH2 0x602 SWAP2 SWAP1 PUSH2 0x35F2 JUMP JUMPDEST PUSH2 0x13FB JUMP JUMPDEST STOP JUMPDEST CALLVALUE DUP1 ISZERO PUSH2 0x615 JUMPI PUSH1 0x0 DUP1 REVERT JUMPDEST POP PUSH2 0x61E PUSH2 0x145B JUMP JUMPDEST PUSH1 0x40 MLOAD PUSH2 0x62B SWAP2 SWAP1 PUSH2 0x322F JUMP JUMPDEST PUSH1 0x40 MLOAD DUP1 SWAP2 SUB SWAP1 RETURN JUMPDEST CALLVALUE DUP1 ISZERO PUSH2 0x640 JUMPI PUSH1 0x0 DUP1 REVERT JUMPDEST POP PUSH2 0x649 PUSH2 0x1461 JUMP JUMPDEST PUSH1 0x40 MLOAD PUSH2 0x656 SWAP2 SWAP1 PUSH2 0x338E JUMP JUMPDEST PUSH1 0x40 MLOAD DUP1 SWAP2 SUB SWAP1 RETURN JUMPDEST CALLVALUE DUP1 ISZERO PUSH2 0x66B JUMPI PUSH1 0x0 DUP1 REVERT JUMPDEST POP PUSH2 0x674 PUSH2 0x1466 JUMP JUMPDEST PUSH1 0x40 MLOAD PUSH2 0x681 SWAP2 SWAP1 PUSH2 0x322F JUMP JUMPDEST PUSH1 0x40 MLOAD DUP1 SWAP2 SUB SWAP1 RETURN JUMPDEST CALLVALUE DUP1 ISZERO PUSH2 0x696 JUMPI PUSH1 0x0 DUP1 REVERT JUMPDEST POP PUSH2 0x69F PUSH2 0x1470 JUMP JUMPDEST PUSH1 0x40 MLOAD PUSH2 0x6AC SWAP2 SWAP1 PUSH2 0x322F JUMP JUMPDEST PUSH1 0x40 MLOAD DUP1 SWAP2 SUB SWAP1 RETURN JUMPDEST CALLVALUE DUP1 ISZERO PUSH2 0x6C1 JUMPI PUSH1 0x0 DUP1 REVERT JUMPDEST POP PUSH2 0x6CA PUSH2 0x1475 JUMP JUMPDEST STOP JUMPDEST CALLVALUE DUP1 ISZERO PUSH2 0x6D8 JUMPI PUSH1 0x0 DUP1 REVERT JUMPDEST POP PUSH2 0x6E1 PUSH2 0x1570 JUMP JUMPDEST PUSH1 0x40 MLOAD PUSH2 0x6EE SWAP2 SWAP1 PUSH2 0x338E JUMP JUMPDEST PUSH1 0x40 MLOAD DUP1 SWAP2 SUB SWAP1 RETURN JUMPDEST CALLVALUE DUP1 ISZERO PUSH2 0x703 JUMPI PUSH1 0x0 DUP1 REVERT JUMPDEST POP PUSH2 0x70C PUSH2 0x1583 JUMP JUMPDEST PUSH1 0x40 MLOAD PUSH2 0x719 SWAP2 SWAP1 PUSH2 0x322F JUMP JUMPDEST PUSH1 0x40 MLOAD DUP1 SWAP2 SUB SWAP1 RETURN JUMPDEST CALLVALUE DUP1 ISZERO PUSH2 0x72E JUMPI PUSH1 0x0 DUP1 REVERT JUMPDEST POP PUSH2 0x749 PUSH1 0x4 DUP1 CALLDATASIZE SUB DUP2 ADD SWAP1 PUSH2 0x744 SWAP2 SWAP1 PUSH2 0x35F2 JUMP JUMPDEST PUSH2 0x1588 JUMP JUMPDEST STOP JUMPDEST CALLVALUE DUP1 ISZERO PUSH2 0x757 JUMPI PUSH1 0x0 DUP1 REVERT JUMPDEST POP PUSH2 0x760 PUSH2 0x15A8 JUMP JUMPDEST PUSH1 0x40 MLOAD PUSH2 0x76D SWAP2 SWAP1 PUSH2 0x322F JUMP JUMPDEST PUSH1 0x40 MLOAD DUP1 SWAP2 SUB SWAP1 RETURN JUMPDEST CALLVALUE DUP1 ISZERO PUSH2 0x782 JUMPI PUSH1 0x0 DUP1 REVERT JUMPDEST POP PUSH2 0x78B PUSH2 0x15AE JUMP JUMPDEST PUSH1 0x40 MLOAD PUSH2 0x798 SWAP2 SWAP1 PUSH2 0x322F JUMP JUMPDEST PUSH1 0x40 MLOAD DUP1 SWAP2 SUB SWAP1 RETURN JUMPDEST CALLVALUE DUP1 ISZERO PUSH2 0x7AD JUMPI PUSH1 0x0 DUP1 REVERT JUMPDEST POP PUSH2 0x7C8 PUSH1 0x4 DUP1 CALLDATASIZE SUB DUP2 ADD SWAP1 PUSH2 0x7C3 SWAP2 SWAP1 PUSH2 0x3345 JUMP JUMPDEST PUSH2 0x15D3 JUMP JUMPDEST STOP JUMPDEST CALLVALUE DUP1 ISZERO PUSH2 0x7D6 JUMPI PUSH1 0x0 DUP1 REVERT JUMPDEST POP PUSH2 0x7DF PUSH2 0x166D JUMP JUMPDEST PUSH1 0x40 MLOAD PUSH2 0x7EC SWAP2 SWAP1 PUSH2 0x3654 JUMP JUMPDEST PUSH1 0x40 MLOAD DUP1 SWAP2 SUB SWAP1 RETURN JUMPDEST CALLVALUE DUP1 ISZERO PUSH2 0x801 JUMPI PUSH1 0x0 DUP1 REVERT JUMPDEST POP PUSH2 0x80A PUSH2 0x1676 JUMP JUMPDEST PUSH1 0x40 MLOAD PUSH2 0x817 SWAP2 SWAP1 PUSH2 0x322F JUMP JUMPDEST PUSH1 0x40 MLOAD DUP1 SWAP2 SUB SWAP1 RETURN JUMPDEST CALLVALUE DUP1 ISZERO PUSH2 0x82C JUMPI PUSH1 0x0 DUP1 REVERT JUMPDEST POP PUSH2 0x847 PUSH1 0x4 DUP1 CALLDATASIZE SUB DUP2 ADD SWAP1 PUSH2 0x842 SWAP2 SWAP1 PUSH2 0x3345 JUMP JUMPDEST PUSH2 0x1699 JUMP JUMPDEST PUSH1 0x40 MLOAD PUSH2 0x854 SWAP2 SWAP1 PUSH2 0x322F JUMP JUMPDEST PUSH1 0x40 MLOAD DUP1 SWAP2 SUB SWAP1 RETURN JUMPDEST CALLVALUE DUP1 ISZERO PUSH2 0x869 JUMPI PUSH1 0x0 DUP1 REVERT JUMPDEST POP PUSH2 0x884 PUSH1 0x4 DUP1 CALLDATASIZE SUB DUP2 ADD SWAP1 PUSH2 0x87F SWAP2 SWAP1 PUSH2 0x3345 JUMP JUMPDEST PUSH2 0x16B1 JUMP JUMPDEST PUSH1 0x40 MLOAD PUSH2 0x891 SWAP2 SWAP1 PUSH2 0x34F5 JUMP JUMPDEST PUSH1 0x40 MLOAD DUP1 SWAP2 SUB SWAP1 RETURN JUMPDEST CALLVALUE DUP1 ISZERO PUSH2 0x8A6 JUMPI PUSH1 0x0 DUP1 REVERT JUMPDEST POP PUSH2 0x8C1 PUSH1 0x4 DUP1 CALLDATASIZE SUB DUP2 ADD SWAP1 PUSH2 0x8BC SWAP2 SWAP1 PUSH2 0x3345 JUMP JUMPDEST PUSH2 0x1737 JUMP JUMPDEST PUSH1 0x40 MLOAD PUSH2 0x8D3 SWAP7 SWAP6 SWAP5 SWAP4 SWAP3 SWAP2 SWAP1 PUSH2 0x366F JUMP JUMPDEST PUSH1 0x40 MLOAD DUP1 SWAP2 SUB SWAP1 RETURN JUMPDEST CALLVALUE DUP1 ISZERO PUSH2 0x8E8 JUMPI PUSH1 0x0 DUP1 REVERT JUMPDEST POP PUSH2 0x8F1 PUSH2 0x18C2 JUMP JUMPDEST PUSH1 0x40 MLOAD PUSH2 0x8FE SWAP2 SWAP1 PUSH2 0x322F JUMP JUMPDEST PUSH1 0x40 MLOAD DUP1 SWAP2 SUB SWAP1 RETURN JUMPDEST CALLVALUE DUP1 ISZERO PUSH2 0x913 JUMPI PUSH1 0x0 DUP1 REVERT JUMPDEST POP PUSH2 0x91C PUSH2 0x18C9 JUMP JUMPDEST PUSH1 0x40 MLOAD PUSH2 0x929 SWAP2 SWAP1 PUSH2 0x322F JUMP JUMPDEST PUSH1 0x40 MLOAD DUP1 SWAP2 SUB SWAP1 RETURN JUMPDEST CALLVALUE DUP1 ISZERO PUSH2 0x93E JUMPI PUSH1 0x0 DUP1 REVERT JUMPDEST POP PUSH2 0x959 PUSH1 0x4 DUP1 CALLDATASIZE SUB DUP2 ADD SWAP1 PUSH2 0x954 SWAP2 SWAP1 PUSH2 0x36D0 JUMP JUMPDEST PUSH2 0x18CF JUMP JUMPDEST PUSH1 0x40 MLOAD PUSH2 0x966 SWAP2 SWAP1 PUSH2 0x322F JUMP JUMPDEST PUSH1 0x40 MLOAD DUP1 SWAP2 SUB SWAP1 RETURN JUMPDEST CALLVALUE DUP1 ISZERO PUSH2 0x97B JUMPI PUSH1 0x0 DUP1 REVERT JUMPDEST POP PUSH2 0x996 PUSH1 0x4 DUP1 CALLDATASIZE SUB DUP2 ADD SWAP1 PUSH2 0x991 SWAP2 SWAP1 PUSH2 0x35B2 JUMP JUMPDEST PUSH2 0x1986 JUMP JUMPDEST PUSH1 0x40 MLOAD PUSH2 0x9A3 SWAP2 SWAP1 PUSH2 0x3654 JUMP JUMPDEST PUSH1 0x40 MLOAD DUP1 SWAP2 SUB SWAP1 RETURN JUMPDEST CALLVALUE DUP1 ISZERO PUSH2 0x9B8 JUMPI PUSH1 0x0 DUP1 REVERT JUMPDEST POP PUSH2 0x9C1 PUSH2 0x199A JUMP JUMPDEST PUSH1 0x40 MLOAD PUSH2 0x9CE SWAP2 SWAP1 PUSH2 0x322F JUMP JUMPDEST PUSH1 0x40 MLOAD DUP1 SWAP2 SUB SWAP1 RETURN JUMPDEST CALLVALUE DUP1 ISZERO PUSH2 0x9E3 JUMPI PUSH1 0x0 DUP1 REVERT JUMPDEST POP PUSH2 0x9EC PUSH2 0x19BD JUMP JUMPDEST PUSH1 0x40 MLOAD PUSH2 0x9F9 SWAP2 SWAP1 PUSH2 0x322F JUMP JUMPDEST PUSH1 0x40 MLOAD DUP1 SWAP2 SUB SWAP1 RETURN JUMPDEST CALLVALUE DUP1 ISZERO PUSH2 0xA0E JUMPI PUSH1 0x0 DUP1 REVERT JUMPDEST POP PUSH2 0xA17 PUSH2 0x19C3 JUMP JUMPDEST PUSH1 0x40 MLOAD PUSH2 0xA24 SWAP2 SWAP1 PUSH2 0x322F JUMP JUMPDEST PUSH1 0x40 MLOAD DUP1 SWAP2 SUB SWAP1 RETURN JUMPDEST CALLVALUE DUP1 ISZERO PUSH2 0xA39 JUMPI PUSH1 0x0 DUP1 REVERT JUMPDEST POP PUSH2 0xA42 PUSH2 0x19E4 JUMP JUMPDEST PUSH1 0x40 MLOAD PUSH2 0xA4F SWAP2 SWAP1 PUSH2 0x3654 JUMP JUMPDEST PUSH1 0x40 MLOAD DUP1 SWAP2 SUB SWAP1 RETURN JUMPDEST CALLVALUE DUP1 ISZERO PUSH2 0xA64 JUMPI PUSH1 0x0 DUP1 REVERT JUMPDEST POP PUSH2 0xA6D PUSH2 0x19EA JUMP JUMPDEST PUSH1 0x40 MLOAD PUSH2 0xA7A SWAP2 SWAP1 PUSH2 0x34F5 JUMP JUMPDEST PUSH1 0x40 MLOAD DUP1 SWAP2 SUB SWAP1 RETURN JUMPDEST CALLVALUE DUP1 ISZERO PUSH2 0xA8F JUMPI PUSH1 0x0 DUP1 REVERT JUMPDEST POP PUSH2 0xA98 PUSH2 0x1A10 JUMP JUMPDEST PUSH1 0x40 MLOAD PUSH2 0xAA5 SWAP2 SWAP1 PUSH2 0x3439 JUMP JUMPDEST PUSH1 0x40 MLOAD DUP1 SWAP2 SUB SWAP1 RETURN JUMPDEST CALLVALUE DUP1 ISZERO PUSH2 0xABA JUMPI PUSH1 0x0 DUP1 REVERT JUMPDEST POP PUSH2 0xAC3 PUSH2 0x1AA2 JUMP JUMPDEST PUSH1 0x40 MLOAD PUSH2 0xAD3 SWAP5 SWAP4 SWAP3 SWAP2 SWAP1 PUSH2 0x36FD JUMP JUMPDEST PUSH1 0x40 MLOAD DUP1 SWAP2 SUB SWAP1 RETURN JUMPDEST CALLVALUE DUP1 ISZERO PUSH2 0xAE8 JUMPI PUSH1 0x0 DUP1 REVERT JUMPDEST POP PUSH2 0xAF1 PUSH2 0x1AE0 JUMP JUMPDEST PUSH1 0x40 MLOAD PUSH2 0xAFE SWAP2 SWAP1 PUSH2 0x3439 JUMP JUMPDEST PUSH1 0x40 MLOAD DUP1 SWAP2 SUB SWAP1 RETURN JUMPDEST CALLVALUE DUP1 ISZERO PUSH2 0xB13 JUMPI PUSH1 0x0 DUP1 REVERT JUMPDEST POP PUSH2 0xB2E PUSH1 0x4 DUP1 CALLDATASIZE SUB DUP2 ADD SWAP1 PUSH2 0xB29 SWAP2 SWAP1 PUSH2 0x3877 JUMP JUMPDEST PUSH2 0x1B6E JUMP JUMPDEST STOP JUMPDEST CALLVALUE DUP1 ISZERO PUSH2 0xB3C JUMPI PUSH1 0x0 DUP1 REVERT JUMPDEST POP PUSH2 0xB57 PUSH1 0x4 DUP1 CALLDATASIZE SUB DUP2 ADD SWAP1 PUSH2 0xB52 SWAP2 SWAP1 PUSH2 0x38EC JUMP JUMPDEST PUSH2 0x1C11 JUMP JUMPDEST STOP JUMPDEST CALLVALUE DUP1 ISZERO PUSH2 0xB65 JUMPI PUSH1 0x0 DUP1 REVERT JUMPDEST POP PUSH2 0xB6E PUSH2 0x1C27 JUMP JUMPDEST PUSH1 0x40 MLOAD PUSH2 0xB7B SWAP2 SWAP1 PUSH2 0x322F JUMP JUMPDEST PUSH1 0x40 MLOAD DUP1 SWAP2 SUB SWAP1 RETURN JUMPDEST CALLVALUE DUP1 ISZERO PUSH2 0xB90 JUMPI PUSH1 0x0 DUP1 REVERT JUMPDEST POP PUSH2 0xBAB PUSH1 0x4 DUP1 CALLDATASIZE SUB DUP2 ADD SWAP1 PUSH2 0xBA6 SWAP2 SWAP1 PUSH2 0x392C JUMP JUMPDEST PUSH2 0x1C31 JUMP JUMPDEST STOP JUMPDEST CALLVALUE DUP1 ISZERO PUSH2 0xBB9 JUMPI PUSH1 0x0 DUP1 REVERT JUMPDEST POP PUSH2 0xBC2 PUSH2 0x1F14 JUMP JUMPDEST PUSH1 0x40 MLOAD PUSH2 0xBCF SWAP2 SWAP1 PUSH2 0x322F JUMP JUMPDEST PUSH1 0x40 MLOAD DUP1 SWAP2 SUB SWAP1 RETURN JUMPDEST CALLVALUE DUP1 ISZERO PUSH2 0xBE4 JUMPI PUSH1 0x0 DUP1 REVERT JUMPDEST POP PUSH2 0xBFF PUSH1 0x4 DUP1 CALLDATASIZE SUB DUP2 ADD SWAP1 PUSH2 0xBFA SWAP2 SWAP1 PUSH2 0x39D3 JUMP JUMPDEST PUSH2 0x1F1A JUMP JUMPDEST PUSH1 0x40 MLOAD PUSH2 0xC0C SWAP2 SWAP1 PUSH2 0x322F JUMP JUMPDEST PUSH1 0x40 MLOAD DUP1 SWAP2 SUB SWAP1 RETURN JUMPDEST CALLVALUE DUP1 ISZERO PUSH2 0xC21 JUMPI PUSH1 0x0 DUP1 REVERT JUMPDEST POP PUSH2 0xC2A PUSH2 0x1FC2 JUMP JUMPDEST PUSH1 0x40 MLOAD PUSH2 0xC37 SWAP2 SWAP1 PUSH2 0x322F JUMP JUMPDEST PUSH1 0x40 MLOAD DUP1 SWAP2 SUB SWAP1 RETURN JUMPDEST CALLVALUE DUP1 ISZERO PUSH2 0xC4C JUMPI PUSH1 0x0 DUP1 REVERT JUMPDEST POP PUSH2 0xC67 PUSH1 0x4 DUP1 CALLDATASIZE SUB DUP2 ADD SWAP1 PUSH2 0xC62 SWAP2 SWAP1 PUSH2 0x36D0 JUMP JUMPDEST PUSH2 0x1FD4 JUMP JUMPDEST PUSH1 0x40 MLOAD PUSH2 0xC74 SWAP2 SWAP1 PUSH2 0x338E JUMP JUMPDEST PUSH1 0x40 MLOAD DUP1 SWAP2 SUB SWAP1 RETURN JUMPDEST CALLVALUE DUP1 ISZERO PUSH2 0xC89 JUMPI PUSH1 0x0 DUP1 REVERT JUMPDEST POP PUSH2 0xC92 PUSH2 0x1FF4 JUMP JUMPDEST PUSH1 0x40 MLOAD PUSH2 0xC9F SWAP2 SWAP1 PUSH2 0x322F JUMP JUMPDEST PUSH1 0x40 MLOAD DUP1 SWAP2 SUB SWAP1 RETURN JUMPDEST CALLVALUE DUP1 ISZERO PUSH2 0xCB4 JUMPI PUSH1 0x0 DUP1 REVERT JUMPDEST POP PUSH2 0xCCF PUSH1 0x4 DUP1 CALLDATASIZE SUB DUP2 ADD SWAP1 PUSH2 0xCCA SWAP2 SWAP1 PUSH2 0x3AB4 JUMP JUMPDEST PUSH2 0x1FFA JUMP JUMPDEST STOP JUMPDEST CALLVALUE DUP1 ISZERO PUSH2 0xCDD JUMPI PUSH1 0x0 DUP1 REVERT JUMPDEST POP PUSH2 0xCF8 PUSH1 0x4 DUP1 CALLDATASIZE SUB DUP2 ADD SWAP1 PUSH2 0xCF3 SWAP2 SWAP1 PUSH2 0x3345 JUMP JUMPDEST PUSH2 0x205C JUMP JUMPDEST PUSH1 0x40 MLOAD PUSH2 0xD05 SWAP2 SWAP1 PUSH2 0x3439 JUMP JUMPDEST PUSH1 0x40 MLOAD DUP1 SWAP2 SUB SWAP1 RETURN JUMPDEST CALLVALUE DUP1 ISZERO PUSH2 0xD1A JUMPI PUSH1 0x0 DUP1 REVERT JUMPDEST POP PUSH2 0xD23 PUSH2 0x20BC JUMP JUMPDEST PUSH1 0x40 MLOAD PUSH2 0xD30 SWAP2 SWAP1 PUSH2 0x322F JUMP JUMPDEST PUSH1 0x40 MLOAD DUP1 SWAP2 SUB SWAP1 RETURN JUMPDEST CALLVALUE DUP1 ISZERO PUSH2 0xD45 JUMPI PUSH1 0x0 DUP1 REVERT JUMPDEST POP PUSH2 0xD60 PUSH1 0x4 DUP1 CALLDATASIZE SUB DUP2 ADD SWAP1 PUSH2 0xD5B SWAP2 SWAP1 PUSH2 0x3345 JUMP JUMPDEST PUSH2 0x20C2 JUMP JUMPDEST PUSH1 0x40 MLOAD PUSH2 0xD6D SWAP2 SWAP1 PUSH2 0x3654 JUMP JUMPDEST PUSH1 0x40 MLOAD DUP1 SWAP2 SUB SWAP1 RETURN JUMPDEST CALLVALUE DUP1 ISZERO PUSH2 0xD82 JUMPI PUSH1 0x0 DUP1 REVERT JUMPDEST POP PUSH2 0xD9D PUSH1 0x4 DUP1 CALLDATASIZE SUB DUP2 ADD SWAP1 PUSH2 0xD98 SWAP2 SWAP1 PUSH2 0x3B37 JUMP JUMPDEST PUSH2 0x20DA JUMP JUMPDEST PUSH1 0x40 MLOAD PUSH2 0xDAA SWAP2 SWAP1 PUSH2 0x32FE JUMP JUMPDEST PUSH1 0x40 MLOAD DUP1 SWAP2 SUB SWAP1 RETURN JUMPDEST CALLVALUE DUP1 ISZERO PUSH2 0xDBF JUMPI PUSH1 0x0 DUP1 REVERT JUMPDEST POP PUSH2 0xDC8 PUSH2 0x216E JUMP JUMPDEST PUSH1 0x40 MLOAD PUSH2 0xDD5 SWAP2 SWAP1 PUSH2 0x322F JUMP JUMPDEST PUSH1 0x40 MLOAD DUP1 SWAP2 SUB SWAP1 RETURN JUMPDEST PUSH1 0x9E SLOAD DUP2 JUMP JUMPDEST PUSH1 0x0 PUSH32 0x80AC58CD00000000000000000000000000000000000000000000000000000000 PUSH28 0xFFFFFFFFFFFFFFFFFFFFFFFFFFFFFFFFFFFFFFFFFFFFFFFFFFFFFFFF NOT AND DUP3 PUSH28 0xFFFFFFFFFFFFFFFFFFFFFFFFFFFFFFFFFFFFFFFFFFFFFFFFFFFFFFFF NOT AND EQ DUP1 PUSH2 0xEAF JUMPI POP PUSH32 0x5B5E139F00000000000000000000000000000000000000000000000000000000 PUSH28 0xFFFFFFFFFFFFFFFFFFFFFFFFFFFFFFFFFFFFFFFFFFFFFFFFFFFFFFFF NOT AND DUP3 PUSH28 0xFFFFFFFFFFFFFFFFFFFFFFFFFFFFFFFFFFFFFFFFFFFFFFFFFFFFFFFF NOT AND EQ JUMPDEST DUP1 PUSH2 0xEBF JUMPI POP PUSH2 0xEBE DUP3 PUSH2 0x2174 JUMP JUMPDEST JUMPDEST SWAP1 POP SWAP2 SWAP1 POP JUMP JUMPDEST PUSH1 0xA8 DUP2 DUP2 SLOAD DUP2 LT PUSH2 0xED6 JUMPI PUSH1 0x0 DUP1 REVERT JUMPDEST SWAP1 PUSH1 0x0 MSTORE PUSH1 0x20 PUSH1 0x0 KECCAK256 SWAP1 PUSH1 0x20 SWAP2 DUP3 DUP3 DIV ADD SWAP2 SWAP1 MOD SWAP2 POP SLOAD SWAP1 PUSH2 0x100 EXP SWAP1 DIV PUSH1 0xFF AND DUP2 JUMP JUMPDEST PUSH1 0x60 PUSH1 0x6C DUP1 SLOAD PUSH2 0xF09 SWAP1 PUSH2 0x3BA6 JUMP JUMPDEST DUP1 PUSH1 0x1F ADD PUSH1 0x20 DUP1 SWAP2 DIV MUL PUSH1 0x20 ADD PUSH1 0x40 MLOAD SWAP1 DUP2 ADD PUSH1 0x40 MSTORE DUP1 SWAP3 SWAP2 SWAP1 DUP2 DUP2 MSTORE PUSH1 0x20 ADD DUP3 DUP1 SLOAD PUSH2 0xF35 SWAP1 PUSH2 0x3BA6 JUMP JUMPDEST DUP1 ISZERO PUSH2 0xF82 JUMPI DUP1 PUSH1 0x1F LT PUSH2 0xF57 JUMPI PUSH2 0x100 DUP1 DUP4 SLOAD DIV MUL DUP4 MSTORE SWAP2 PUSH1 0x20 ADD SWAP2 PUSH2 0xF82 JUMP JUMPDEST DUP3 ADD SWAP2 SWAP1 PUSH1 0x0 MSTORE PUSH1 0x20 PUSH1 0x0 KECCAK256 SWAP1 JUMPDEST DUP2 SLOAD DUP2 MSTORE SWAP1 PUSH1 0x1 ADD SWAP1 PUSH1 0x20 ADD DUP1 DUP4 GT PUSH2 0xF65 JUMPI DUP3 SWAP1 SUB PUSH1 0x1F AND DUP3 ADD SWAP2 JUMPDEST POP POP POP POP POP SWAP1 POP SWAP1 JUMP JUMPDEST DUP1 PUSH1 0xFF AND PUSH1 0xA6 SLOAD PUSH2 0xF9D SWAP2 SWAP1 PUSH2 0x3C06 JUMP JUMPDEST CALLVALUE LT ISZERO PUSH2 0xFA9 JUMPI PUSH1 0x0 DUP1 REVERT JUMPDEST PUSH1 0x0 DUP2 PUSH1 0xA9 PUSH1 0x0 CALLER PUSH20 0xFFFFFFFFFFFFFFFFFFFFFFFFFFFFFFFFFFFFFFFF AND PUSH20 0xFFFFFFFFFFFFFFFFFFFFFFFFFFFFFFFFFFFFFFFF AND DUP2 MSTORE PUSH1 0x20 ADD SWAP1 DUP2 MSTORE PUSH1 0x20 ADD PUSH1 0x0 KECCAK256 PUSH1 0x0 SWAP1 SLOAD SWAP1 PUSH2 0x100 EXP SWAP1 DIV PUSH1 0xFF AND PUSH2 0x1003 SWAP2 SWAP1 PUSH2 0x3C48 JUMP JUMPDEST SWAP1 POP PUSH1 0xA7 PUSH1 0x0 SWAP1 SLOAD SWAP1 PUSH2 0x100 EXP SWAP1 DIV PUSH1 0xFF AND PUSH1 0xFF AND DUP2 PUSH1 0xFF AND GT ISZERO PUSH2 0x1027 JUMPI PUSH1 0x0 DUP1 REVERT JUMPDEST DUP1 PUSH1 0xA9 PUSH1 0x0 CALLER PUSH20 0xFFFFFFFFFFFFFFFFFFFFFFFFFFFFFFFFFFFFFFFF AND PUSH20 0xFFFFFFFFFFFFFFFFFFFFFFFFFFFFFFFFFFFFFFFF AND DUP2 MSTORE PUSH1 0x20 ADD SWAP1 DUP2 MSTORE PUSH1 0x20 ADD PUSH1 0x0 KECCAK256 PUSH1 0x0 PUSH2 0x100 EXP DUP2 SLOAD DUP2 PUSH1 0xFF MUL NOT AND SWAP1 DUP4 PUSH1 0xFF AND MUL OR SWAP1 SSTORE POP POP POP JUMP JUMPDEST PUSH1 0x0 PUSH2 0x108E DUP3 PUSH2 0x21DE JUMP JUMPDEST PUSH1 0x70 PUSH1 0x0 DUP4 DUP2 MSTORE PUSH1 0x20 ADD SWAP1 DUP2 MSTORE PUSH1 0x20 ADD PUSH1 0x0 KECCAK256 PUSH1 0x0 SWAP1 SLOAD SWAP1 PUSH2 0x100 EXP SWAP1 DIV PUSH20 0xFFFFFFFFFFFFFFFFFFFFFFFFFFFFFFFFFFFFFFFF AND SWAP1 POP SWAP2 SWAP1 POP JUMP JUMPDEST PUSH2 0x7D0 DUP2 JUMP JUMPDEST PUSH1 0x0 PUSH2 0x10DA DUP3 PUSH2 0x16B1 JUMP JUMPDEST SWAP1 POP DUP1 PUSH20 0xFFFFFFFFFFFFFFFFFFFFFFFFFFFFFFFFFFFFFFFF AND DUP4 PUSH20 0xFFFFFFFFFFFFFFFFFFFFFFFFFFFFFFFFFFFFFFFF AND SUB PUSH2 0x114A JUMPI PUSH1 0x40 MLOAD PUSH32 0x8C379A000000000000000000000000000000000000000000000000000000000 DUP2 MSTORE PUSH1 0x4 ADD PUSH2 0x1141 SWAP1 PUSH2 0x3CEF JUMP JUMPDEST PUSH1 0x40 MLOAD DUP1 SWAP2 SUB SWAP1 REVERT JUMPDEST DUP1 PUSH20 0xFFFFFFFFFFFFFFFFFFFFFFFFFFFFFFFFFFFFFFFF AND PUSH2 0x1169 PUSH2 0x2229 JUMP JUMPDEST PUSH20 0xFFFFFFFFFFFFFFFFFFFFFFFFFFFFFFFFFFFFFFFF AND EQ DUP1 PUSH2 0x1198 JUMPI POP PUSH2 0x1197 DUP2 PUSH2 0x1192 PUSH2 0x2229 JUMP JUMPDEST PUSH2 0x20DA JUMP JUMPDEST JUMPDEST PUSH2 0x11D7 JUMPI PUSH1 0x40 MLOAD PUSH32 0x8C379A000000000000000000000000000000000000000000000000000000000 DUP2 MSTORE PUSH1 0x4 ADD PUSH2 0x11CE SWAP1 PUSH2 0x3D81 JUMP JUMPDEST PUSH1 0x40 MLOAD DUP1 SWAP2 SUB SWAP1 REVERT JUMPDEST PUSH2 0x11E1 DUP4 DUP4 PUSH2 0x2231 JUMP JUMPDEST POP POP POP JUMP JUMPDEST PUSH1 0x0 PUSH1 0x1 SLOAD SWAP1 POP SWAP1 JUMP JUMPDEST PUSH1 0x0 PUSH1 0x9E PUSH1 0x0 DUP2 SLOAD PUSH2 0x1201 SWAP1 PUSH2 0x3DA1 JUMP JUMPDEST SWAP2 SWAP1 POP DUP2 SWAP1 SSTORE PUSH1 0x9E DUP2 SWAP1 SSTORE POP PUSH1 0x0 PUSH2 0x1219 DUP5 DUP5 PUSH2 0x22EA JUMP JUMPDEST SWAP1 POP PUSH1 0x1 SLOAD DUP2 PUSH1 0x0 SHR GT ISZERO PUSH2 0x1263 JUMPI PUSH1 0x40 MLOAD PUSH32 0x8C379A000000000000000000000000000000000000000000000000000000000 DUP2 MSTORE PUSH1 0x4 ADD PUSH2 0x125A SWAP1 PUSH2 0x3E35 JUMP JUMPDEST PUSH1 0x40 MLOAD DUP1 SWAP2 SUB SWAP1 REVERT JUMPDEST PUSH1 0x0 PUSH1 0xA1 PUSH1 0x0 PUSH1 0x9E SLOAD DUP2 MSTORE PUSH1 0x20 ADD SWAP1 DUP2 MSTORE PUSH1 0x20 ADD PUSH1 0x0 KECCAK256 SLOAD SWAP1 POP PUSH1 0x0 DUP1 SHL DUP2 EQ PUSH2 0x12C2 JUMPI PUSH1 0x40 MLOAD PUSH32 0x8C379A000000000000000000000000000000000000000000000000000000000 DUP2 MSTORE PUSH1 0x4 ADD PUSH2 0x12B9 SWAP1 PUSH2 0x3EA1 JUMP JUMPDEST PUSH1 0x40 MLOAD DUP1 SWAP2 SUB SWAP1 REVERT JUMPDEST DUP2 PUSH1 0xA1 PUSH1 0x0 PUSH1 0x9E SLOAD DUP2 MSTORE PUSH1 0x20 ADD SWAP1 DUP2 MSTORE PUSH1 0x20 ADD PUSH1 0x0 KECCAK256 DUP2 SWAP1 SSTORE POP PUSH2 0x12E8 CALLER PUSH1 0x9E SLOAD PUSH2 0x2362 JUMP JUMPDEST PUSH1 0x0 PUSH2 0x3E8 DUP4 PUSH1 0x0 SHR AND SWAP1 POP PUSH1 0x0 PUSH1 0x64 DUP3 PUSH1 0xA8 PUSH1 0xA9 PUSH1 0x0 CALLER PUSH20 0xFFFFFFFFFFFFFFFFFFFFFFFFFFFFFFFFFFFFFFFF AND PUSH20 0xFFFFFFFFFFFFFFFFFFFFFFFFFFFFFFFFFFFFFFFF AND DUP2 MSTORE PUSH1 0x20 ADD SWAP1 DUP2 MSTORE PUSH1 0x20 ADD PUSH1 0x0 KECCAK256 PUSH1 0x0 SWAP1 SLOAD SWAP1 PUSH2 0x100 EXP SWAP1 DIV PUSH1 0xFF AND PUSH1 0xFF AND DUP2 SLOAD DUP2 LT PUSH2 0x135C JUMPI PUSH2 0x135B PUSH2 0x3EC1 JUMP JUMPDEST JUMPDEST SWAP1 PUSH1 0x0 MSTORE PUSH1 0x20 PUSH1 0x0 KECCAK256 SWAP1 PUSH1 0x20 SWAP2 DUP3 DUP3 DIV ADD SWAP2 SWAP1 MOD SWAP1 SLOAD SWAP1 PUSH2 0x100 EXP SWAP1 DIV PUSH1 0xFF AND PUSH1 0xFF AND PUSH2 0x1389 SWAP2 SWAP1 PUSH2 0x3C06 JUMP JUMPDEST PUSH2 0x1393 SWAP2 SWAP1 PUSH2 0x3F1F JUMP JUMPDEST SWAP1 POP PUSH1 0x0 DUP2 GT ISZERO PUSH2 0x13B9 JUMPI DUP1 PUSH1 0xAA PUSH1 0x0 PUSH1 0x9E SLOAD DUP2 MSTORE PUSH1 0x20 ADD SWAP1 DUP2 MSTORE PUSH1 0x20 ADD PUSH1 0x0 KECCAK256 DUP2 SWAP1 SSTORE POP JUMPDEST DUP1 DUP3 PUSH2 0x13C5 SWAP2 SWAP1 PUSH2 0x3F50 JUMP JUMPDEST PUSH1 0x2 PUSH1 0x0 DUP3 DUP3 SLOAD PUSH2 0x13D6 SWAP2 SWAP1 PUSH2 0x3F50 JUMP JUMPDEST SWAP3 POP POP DUP2 SWAP1 SSTORE POP PUSH1 0x1 SWAP5 POP POP POP POP POP SWAP3 SWAP2 POP POP JUMP JUMPDEST PUSH1 0x1 SLOAD DUP2 JUMP JUMPDEST PUSH1 0x64 DUP2 JUMP JUMPDEST PUSH1 0xFA DUP2 JUMP JUMPDEST PUSH2 0x140C PUSH2 0x1406 PUSH2 0x2229 JUMP JUMPDEST DUP3 PUSH2 0x2380 JUMP JUMPDEST PUSH2 0x144B JUMPI PUSH1 0x40 MLOAD PUSH32 0x8C379A000000000000000000000000000000000000000000000000000000000 DUP2 MSTORE PUSH1 0x4 ADD PUSH2 0x1442 SWAP1 PUSH2 0x3FF6 JUMP JUMPDEST PUSH1 0x40 MLOAD DUP1 SWAP2 SUB SWAP1 REVERT JUMPDEST PUSH2 0x1456 DUP4 DUP4 DUP4 PUSH2 0x2415 JUMP JUMPDEST POP POP POP JUMP JUMPDEST PUSH1 0xA4 SLOAD DUP2 JUMP JUMPDEST PUSH1 0x12 DUP2 JUMP JUMPDEST PUSH1 0x0 PUSH1 0x1 SLOAD SWAP1 POP SWAP1 JUMP JUMPDEST PUSH1 0x3C DUP2 JUMP JUMPDEST PUSH1 0xAB PUSH1 0x0 SWAP1 SLOAD SWAP1 PUSH2 0x100 EXP SWAP1 DIV PUSH20 0xFFFFFFFFFFFFFFFFFFFFFFFFFFFFFFFFFFFFFFFF AND PUSH20 0xFFFFFFFFFFFFFFFFFFFFFFFFFFFFFFFFFFFFFFFF AND CALLER PUSH20 0xFFFFFFFFFFFFFFFFFFFFFFFFFFFFFFFFFFFFFFFF AND EQ PUSH2 0x1505 JUMPI PUSH1 0x40 MLOAD PUSH32 0x8C379A000000000000000000000000000000000000000000000000000000000 DUP2 MSTORE PUSH1 0x4 ADD PUSH2 0x14FC SWAP1 PUSH2 0x4088 JUMP JUMPDEST PUSH1 0x40 MLOAD DUP1 SWAP2 SUB SWAP1 REVERT JUMPDEST PUSH1 0xAB PUSH1 0x0 SWAP1 SLOAD SWAP1 PUSH2 0x100 EXP SWAP1 DIV PUSH20 0xFFFFFFFFFFFFFFFFFFFFFFFFFFFFFFFFFFFFFFFF AND PUSH20 0xFFFFFFFFFFFFFFFFFFFFFFFFFFFFFFFFFFFFFFFF AND PUSH2 0x8FC SELFBALANCE SWAP1 DUP2 ISZERO MUL SWAP1 PUSH1 0x40 MLOAD PUSH1 0x0 PUSH1 0x40 MLOAD DUP1 DUP4 SUB DUP2 DUP6 DUP9 DUP9 CALL SWAP4 POP POP POP POP ISZERO DUP1 ISZERO PUSH2 0x156D JUMPI RETURNDATASIZE PUSH1 0x0 DUP1 RETURNDATACOPY RETURNDATASIZE PUSH1 0x0 REVERT JUMPDEST POP JUMP JUMPDEST PUSH1 0xA7 PUSH1 0x0 SWAP1 SLOAD SWAP1 PUSH2 0x100 EXP SWAP1 DIV PUSH1 0xFF AND DUP2 JUMP JUMPDEST PUSH1 0x2A DUP2 JUMP JUMPDEST PUSH2 0x15A3 DUP4 DUP4 DUP4 PUSH1 0x40 MLOAD DUP1 PUSH1 0x20 ADD PUSH1 0x40 MSTORE DUP1 PUSH1 0x0 DUP2 MSTORE POP PUSH2 0x1FFA JUMP JUMPDEST POP POP POP JUMP JUMPDEST PUSH1 0xA6 SLOAD DUP2 JUMP JUMPDEST PUSH1 0x0 PUSH1 0x12 PUSH1 0xFF AND PUSH1 0xA PUSH2 0x15C1 SWAP2 SWAP1 PUSH2 0x41DB JUMP JUMPDEST PUSH2 0x3E8 PUSH2 0x15CE SWAP2 SWAP1 PUSH2 0x3C06 JUMP JUMPDEST SWAP1 POP SWAP1 JUMP JUMPDEST PUSH1 0xAB PUSH1 0x0 SWAP1 SLOAD SWAP1 PUSH2 0x100 EXP SWAP1 DIV PUSH20 0xFFFFFFFFFFFFFFFFFFFFFFFFFFFFFFFFFFFFFFFF AND PUSH20 0xFFFFFFFFFFFFFFFFFFFFFFFFFFFFFFFFFFFFFFFF AND CALLER PUSH20 0xFFFFFFFFFFFFFFFFFFFFFFFFFFFFFFFFFFFFFFFF AND EQ PUSH2 0x1663 JUMPI PUSH1 0x40 MLOAD PUSH32 0x8C379A000000000000000000000000000000000000000000000000000000000 DUP2 MSTORE PUSH1 0x4 ADD PUSH2 0x165A SWAP1 PUSH2 0x4088 JUMP JUMPDEST PUSH1 0x40 MLOAD DUP1 SWAP2 SUB SWAP1 REVERT JUMPDEST DUP1 PUSH1 0xA6 DUP2 SWAP1 SSTORE POP POP JUMP JUMPDEST PUSH1 0x0 DUP1 SLOAD SWAP1 POP SWAP1 JUMP JUMPDEST PUSH1 0x12 PUSH1 0xFF AND PUSH1 0xA PUSH2 0x1687 SWAP2 SWAP1 PUSH2 0x41DB JUMP JUMPDEST PUSH4 0x3B9ACA00 PUSH2 0x1696 SWAP2 SWAP1 PUSH2 0x3C06 JUMP JUMPDEST DUP2 JUMP JUMPDEST PUSH1 0xAA PUSH1 0x20 MSTORE DUP1 PUSH1 0x0 MSTORE PUSH1 0x40 PUSH1 0x0 KECCAK256 PUSH1 0x0 SWAP2 POP SWAP1 POP SLOAD DUP2 JUMP JUMPDEST PUSH1 0x0 DUP1 PUSH2 0x16BD DUP4 PUSH2 0x270E JUMP JUMPDEST SWAP1 POP PUSH1 0x0 PUSH20 0xFFFFFFFFFFFFFFFFFFFFFFFFFFFFFFFFFFFFFFFF AND DUP2 PUSH20 0xFFFFFFFFFFFFFFFFFFFFFFFFFFFFFFFFFFFFFFFF AND SUB PUSH2 0x172E JUMPI PUSH1 0x40 MLOAD PUSH32 0x8C379A000000000000000000000000000000000000000000000000000000000 DUP2 MSTORE PUSH1 0x4 ADD PUSH2 0x1725 SWAP1 PUSH2 0x4272 JUMP JUMPDEST PUSH1 0x40 MLOAD DUP1 SWAP2 SUB SWAP1 REVERT JUMPDEST DUP1 SWAP2 POP POP SWAP2 SWAP1 POP JUMP JUMPDEST PUSH1 0x0 DUP1 PUSH1 0x0 DUP1 PUSH1 0x0 DUP1 PUSH1 0x0 PUSH1 0xA1 PUSH1 0x0 DUP10 DUP2 MSTORE PUSH1 0x20 ADD SWAP1 DUP2 MSTORE PUSH1 0x20 ADD PUSH1 0x0 KECCAK256 SLOAD PUSH1 0x0 SHR SWAP1 POP PUSH1 0x0 PUSH2 0x3E8 PUSH1 0x30 DUP4 SWAP1 SHR AND SWAP1 POP PUSH1 0x0 PUSH2 0x3E8 PUSH1 0x3C DUP5 SWAP1 SHR AND SWAP1 POP PUSH1 0x0 PUSH1 0xA PUSH2 0x1783 DUP5 DUP5 PUSH2 0x1F1A JUMP JUMPDEST PUSH2 0x178D SWAP2 SWAP1 PUSH2 0x3C06 JUMP JUMPDEST SWAP1 POP PUSH1 0x0 PUSH1 0xAA PUSH1 0x0 DUP14 DUP2 MSTORE PUSH1 0x20 ADD SWAP1 DUP2 MSTORE PUSH1 0x20 ADD PUSH1 0x0 KECCAK256 SLOAD PUSH2 0x3E8 DUP7 AND PUSH2 0x17B4 SWAP2 SWAP1 PUSH2 0x3F50 JUMP JUMPDEST SWAP1 POP PUSH1 0x0 PUSH2 0x3E8 PUSH1 0xC DUP8 SWAP1 SHR AND PUSH1 0xFA PUSH2 0x17CD SWAP2 SWAP1 PUSH2 0x3F50 JUMP JUMPDEST SWAP1 POP PUSH1 0x0 PUSH2 0x3E8 PUSH1 0x18 DUP9 SWAP1 SHR AND PUSH1 0xFA PUSH2 0x17E6 SWAP2 SWAP1 PUSH2 0x3F50 JUMP JUMPDEST SWAP1 POP PUSH1 0x0 PUSH2 0x3E8 PUSH1 0x24 DUP10 SWAP1 SHR AND PUSH1 0xFA PUSH2 0x17FF SWAP2 SWAP1 PUSH2 0x3F50 JUMP JUMPDEST SWAP1 POP PUSH1 0x0 DUP6 GT ISZERO PUSH2 0x189F JUMPI PUSH1 0x64 DUP6 DUP6 PUSH2 0x1818 SWAP2 SWAP1 PUSH2 0x3C06 JUMP JUMPDEST PUSH2 0x1822 SWAP2 SWAP1 PUSH2 0x3F1F JUMP JUMPDEST DUP5 PUSH2 0x182D SWAP2 SWAP1 PUSH2 0x3F50 JUMP JUMPDEST SWAP4 POP PUSH1 0x64 DUP6 DUP5 PUSH2 0x183D SWAP2 SWAP1 PUSH2 0x3C06 JUMP JUMPDEST PUSH2 0x1847 SWAP2 SWAP1 PUSH2 0x3F1F JUMP JUMPDEST DUP4 PUSH2 0x1852 SWAP2 SWAP1 PUSH2 0x3F50 JUMP JUMPDEST SWAP3 POP PUSH1 0x64 DUP6 DUP4 PUSH2 0x1862 SWAP2 SWAP1 PUSH2 0x3C06 JUMP JUMPDEST PUSH2 0x186C SWAP2 SWAP1 PUSH2 0x3F1F JUMP JUMPDEST DUP3 PUSH2 0x1877 SWAP2 SWAP1 PUSH2 0x3F50 JUMP JUMPDEST SWAP2 POP PUSH1 0x64 DUP6 DUP3 PUSH2 0x1887 SWAP2 SWAP1 PUSH2 0x3C06 JUMP JUMPDEST PUSH2 0x1891 SWAP2 SWAP1 PUSH2 0x3F1F JUMP JUMPDEST DUP2 PUSH2 0x189C SWAP2 SWAP1 PUSH2 0x3F50 JUMP JUMPDEST SWAP1 POP JUMPDEST DUP4 DUP4 DUP4 DUP4 DUP11 DUP11 SWAP14 POP SWAP14 POP SWAP14 POP SWAP14 POP SWAP14 POP SWAP14 POP POP POP POP POP POP POP POP POP SWAP2 SWAP4 SWAP6 POP SWAP2 SWAP4 SWAP6 JUMP JUMPDEST PUSH3 0x10000 DUP2 JUMP JUMPDEST PUSH1 0x2 SLOAD DUP2 JUMP JUMPDEST PUSH1 0x0 DUP1 PUSH20 0xFFFFFFFFFFFFFFFFFFFFFFFFFFFFFFFFFFFFFFFF AND DUP3 PUSH20 0xFFFFFFFFFFFFFFFFFFFFFFFFFFFFFFFFFFFFFFFF AND SUB PUSH2 0x193F JUMPI PUSH1 0x40 MLOAD PUSH32 0x8C379A000000000000000000000000000000000000000000000000000000000 DUP2 MSTORE PUSH1 0x4 ADD PUSH2 0x1936 SWAP1 PUSH2 0x4304 JUMP JUMPDEST PUSH1 0x40 MLOAD DUP1 SWAP2 SUB SWAP1 REVERT JUMPDEST PUSH1 0x6F PUSH1 0x0 DUP4 PUSH20 0xFFFFFFFFFFFFFFFFFFFFFFFFFFFFFFFFFFFFFFFF AND PUSH20 0xFFFFFFFFFFFFFFFFFFFFFFFFFFFFFFFFFFFFFFFF AND DUP2 MSTORE PUSH1 0x20 ADD SWAP1 DUP2 MSTORE PUSH1 0x20 ADD PUSH1 0x0 KECCAK256 SLOAD SWAP1 POP SWAP2 SWAP1 POP JUMP JUMPDEST PUSH1 0x0 PUSH2 0x1992 DUP4 DUP4 PUSH2 0x22EA JUMP JUMPDEST SWAP1 POP SWAP3 SWAP2 POP POP JUMP JUMPDEST PUSH31 0x20000000000000000000000000000000000000000000000000000000000000 DUP2 JUMP JUMPDEST PUSH1 0xA2 SLOAD DUP2 JUMP JUMPDEST PUSH1 0x12 PUSH1 0xFF AND PUSH1 0xA PUSH2 0x19D4 SWAP2 SWAP1 PUSH2 0x41DB JUMP JUMPDEST PUSH2 0x3E8 PUSH2 0x19E1 SWAP2 SWAP1 PUSH2 0x3C06 JUMP JUMPDEST DUP2 JUMP JUMPDEST PUSH1 0x0 SLOAD DUP2 JUMP JUMPDEST PUSH1 0xAB PUSH1 0x0 SWAP1 SLOAD SWAP1 PUSH2 0x100 EXP SWAP1 DIV PUSH20 0xFFFFFFFFFFFFFFFFFFFFFFFFFFFFFFFFFFFFFFFF AND DUP2 JUMP JUMPDEST PUSH1 0x60 PUSH1 0x6D DUP1 SLOAD PUSH2 0x1A1F SWAP1 PUSH2 0x3BA6 JUMP JUMPDEST DUP1 PUSH1 0x1F ADD PUSH1 0x20 DUP1 SWAP2 DIV MUL PUSH1 0x20 ADD PUSH1 0x40 MLOAD SWAP1 DUP2 ADD PUSH1 0x40 MSTORE DUP1 SWAP3 SWAP2 SWAP1 DUP2 DUP2 MSTORE PUSH1 0x20 ADD DUP3 DUP1 SLOAD PUSH2 0x1A4B SWAP1 PUSH2 0x3BA6 JUMP JUMPDEST DUP1 ISZERO PUSH2 0x1A98 JUMPI DUP1 PUSH1 0x1F LT PUSH2 0x1A6D JUMPI PUSH2 0x100 DUP1 DUP4 SLOAD DIV MUL DUP4 MSTORE SWAP2 PUSH1 0x20 ADD SWAP2 PUSH2 0x1A98 JUMP JUMPDEST DUP3 ADD SWAP2 SWAP1 PUSH1 0x0 MSTORE PUSH1 0x20 PUSH1 0x0 KECCAK256 SWAP1 JUMPDEST DUP2 SLOAD DUP2 MSTORE SWAP1 PUSH1 0x1 ADD SWAP1 PUSH1 0x20 ADD DUP1 DUP4 GT PUSH2 0x1A7B JUMPI DUP3 SWAP1 SUB PUSH1 0x1F AND DUP3 ADD SWAP2 JUMPDEST POP POP POP POP POP SWAP1 POP SWAP1 JUMP JUMPDEST PUSH1 0x3 DUP1 PUSH1 0x0 ADD PUSH1 0x0 SWAP1 SLOAD SWAP1 PUSH2 0x100 EXP SWAP1 DIV PUSH20 0xFFFFFFFFFFFFFFFFFFFFFFFFFFFFFFFFFFFFFFFF AND SWAP1 DUP1 PUSH1 0x1 ADD SLOAD SWAP1 DUP1 PUSH1 0x2 ADD SLOAD SWAP1 DUP1 PUSH1 0x3 ADD SLOAD SWAP1 POP DUP5 JUMP JUMPDEST PUSH1 0x9F DUP1 SLOAD PUSH2 0x1AED SWAP1 PUSH2 0x3BA6 JUMP JUMPDEST DUP1 PUSH1 0x1F ADD PUSH1 0x20 DUP1 SWAP2 DIV MUL PUSH1 0x20 ADD PUSH1 0x40 MLOAD SWAP1 DUP2 ADD PUSH1 0x40 MSTORE DUP1 SWAP3 SWAP2 SWAP1 DUP2 DUP2 MSTORE PUSH1 0x20 ADD DUP3 DUP1 SLOAD PUSH2 0x1B19 SWAP1 PUSH2 0x3BA6 JUMP JUMPDEST DUP1 ISZERO PUSH2 0x1B66 JUMPI DUP1 PUSH1 0x1F LT PUSH2 0x1B3B JUMPI PUSH2 0x100 DUP1 DUP4 SLOAD DIV MUL DUP4 MSTORE SWAP2 PUSH1 0x20 ADD SWAP2 PUSH2 0x1B66 JUMP JUMPDEST DUP3 ADD SWAP2 SWAP1 PUSH1 0x0 MSTORE PUSH1 0x20 PUSH1 0x0 KECCAK256 SWAP1 JUMPDEST DUP2 SLOAD DUP2 MSTORE SWAP1 PUSH1 0x1 ADD SWAP1 PUSH1 0x20 ADD DUP1 DUP4 GT PUSH2 0x1B49 JUMPI DUP3 SWAP1 SUB PUSH1 0x1F AND DUP3 ADD SWAP2 JUMPDEST POP POP POP POP POP DUP2 JUMP JUMPDEST PUSH1 0xAB PUSH1 0x0 SWAP1 SLOAD SWAP1 PUSH2 0x100 EXP SWAP1 DIV PUSH20 0xFFFFFFFFFFFFFFFFFFFFFFFFFFFFFFFFFFFFFFFF AND PUSH20 0xFFFFFFFFFFFFFFFFFFFFFFFFFFFFFFFFFFFFFFFF AND CALLER PUSH20 0xFFFFFFFFFFFFFFFFFFFFFFFFFFFFFFFFFFFFFFFF AND EQ PUSH2 0x1BFE JUMPI PUSH1 0x40 MLOAD PUSH32 0x8C379A000000000000000000000000000000000000000000000000000000000 DUP2 MSTORE PUSH1 0x4 ADD PUSH2 0x1BF5 SWAP1 PUSH2 0x4088 JUMP JUMPDEST PUSH1 0x40 MLOAD DUP1 SWAP2 SUB SWAP1 REVERT JUMPDEST DUP1 PUSH1 0x9F SWAP1 DUP2 PUSH2 0x1C0D SWAP2 SWAP1 PUSH2 0x44D0 JUMP JUMPDEST POP POP JUMP JUMPDEST PUSH2 0x1C23 PUSH2 0x1C1C PUSH2 0x2229 JUMP JUMPDEST DUP4 DUP4 PUSH2 0x274B JUMP JUMPDEST POP POP JUMP JUMPDEST PUSH1 0x0 PUSH1 0x9E SLOAD SWAP1 POP SWAP1 JUMP JUMPDEST PUSH1 0x0 PUSH1 0x7 PUSH1 0x1 SWAP1 SLOAD SWAP1 PUSH2 0x100 EXP SWAP1 DIV PUSH1 0xFF AND ISZERO SWAP1 POP DUP1 DUP1 ISZERO PUSH2 0x1C65 JUMPI POP PUSH1 0x1 PUSH1 0x7 PUSH1 0x0 SWAP1 SLOAD SWAP1 PUSH2 0x100 EXP SWAP1 DIV PUSH1 0xFF AND PUSH1 0xFF AND LT JUMPDEST DUP1 PUSH2 0x1C94 JUMPI POP PUSH2 0x1C74 ADDRESS PUSH2 0x28B7 JUMP JUMPDEST ISZERO DUP1 ISZERO PUSH2 0x1C93 JUMPI POP PUSH1 0x1 PUSH1 0x7 PUSH1 0x0 SWAP1 SLOAD SWAP1 PUSH2 0x100 EXP SWAP1 DIV PUSH1 0xFF AND PUSH1 0xFF AND EQ JUMPDEST JUMPDEST PUSH2 0x1CD3 JUMPI PUSH1 0x40 MLOAD PUSH32 0x8C379A000000000000000000000000000000000000000000000000000000000 DUP2 MSTORE PUSH1 0x4 ADD PUSH2 0x1CCA SWAP1 PUSH2 0x4614 JUMP JUMPDEST PUSH1 0x40 MLOAD DUP1 SWAP2 SUB SWAP1 REVERT JUMPDEST PUSH1 0x1 PUSH1 0x7 PUSH1 0x0 PUSH2 0x100 EXP DUP2 SLOAD DUP2 PUSH1 0xFF MUL NOT AND SWAP1 DUP4 PUSH1 0xFF AND MUL OR SWAP1 SSTORE POP DUP1 ISZERO PUSH2 0x1D11 JUMPI PUSH1 0x1 PUSH1 0x7 PUSH1 0x1 PUSH2 0x100 EXP DUP2 SLOAD DUP2 PUSH1 0xFF MUL NOT AND SWAP1 DUP4 ISZERO ISZERO MUL OR SWAP1 SSTORE POP JUMPDEST PUSH1 0x0 PUSH20 0xFFFFFFFFFFFFFFFFFFFFFFFFFFFFFFFFFFFFFFFF AND PUSH1 0xAB PUSH1 0x0 SWAP1 SLOAD SWAP1 PUSH2 0x100 EXP SWAP1 DIV PUSH20 0xFFFFFFFFFFFFFFFFFFFFFFFFFFFFFFFFFFFFFFFF AND PUSH20 0xFFFFFFFFFFFFFFFFFFFFFFFFFFFFFFFFFFFFFFFF AND EQ PUSH2 0x1D6C JUMPI PUSH1 0x0 DUP1 REVERT JUMPDEST CALLER PUSH1 0xAB PUSH1 0x0 PUSH2 0x100 EXP DUP2 SLOAD DUP2 PUSH20 0xFFFFFFFFFFFFFFFFFFFFFFFFFFFFFFFFFFFFFFFF MUL NOT AND SWAP1 DUP4 PUSH20 0xFFFFFFFFFFFFFFFFFFFFFFFFFFFFFFFFFFFFFFFF AND MUL OR SWAP1 SSTORE POP PUSH2 0x1DB6 DUP3 PUSH2 0x1B6E JUMP JUMPDEST PUSH1 0x1 NUMBER PUSH2 0x1DC3 SWAP2 SWAP1 PUSH2 0x4634 JUMP JUMPDEST BLOCKHASH PUSH1 0x0 DUP2 SWAP1 SSTORE POP NUMBER PUSH1 0xA3 DUP2 SWAP1 SSTORE POP PUSH31 0x20000000000000000000000000000000000000000000000000000000000000 PUSH1 0x1 DUP2 SWAP1 SSTORE POP PUSH7 0x6A94D74F430000 PUSH1 0xA6 DUP2 SWAP1 SSTORE POP PUSH1 0xA PUSH1 0xA7 PUSH1 0x0 PUSH2 0x100 EXP DUP2 SLOAD DUP2 PUSH1 0xFF MUL NOT AND SWAP1 DUP4 PUSH1 0xFF AND MUL OR SWAP1 SSTORE POP PUSH1 0x40 MLOAD DUP1 PUSH2 0x160 ADD PUSH1 0x40 MSTORE DUP1 PUSH1 0x0 PUSH1 0xFF AND DUP2 MSTORE PUSH1 0x20 ADD PUSH1 0x5 PUSH1 0xFF AND DUP2 MSTORE PUSH1 0x20 ADD PUSH1 0xA PUSH1 0xFF AND DUP2 MSTORE PUSH1 0x20 ADD PUSH1 0xF PUSH1 0xFF AND DUP2 MSTORE PUSH1 0x20 ADD PUSH1 0x16 PUSH1 0xFF AND DUP2 MSTORE PUSH1 0x20 ADD PUSH1 0x1D PUSH1 0xFF AND DUP2 MSTORE PUSH1 0x20 ADD PUSH1 0x24 PUSH1 0xFF AND DUP2 MSTORE PUSH1 0x20 ADD PUSH1 0x2E PUSH1 0xFF AND DUP2 MSTORE PUSH1 0x20 ADD PUSH1 0x38 PUSH1 0xFF AND DUP2 MSTORE PUSH1 0x20 ADD PUSH1 0x42 PUSH1 0xFF AND DUP2 MSTORE PUSH1 0x20 ADD PUSH1 0x50 PUSH1 0xFF AND DUP2 MSTORE POP PUSH1 0xA8 SWAP1 PUSH1 0xB PUSH2 0x1EA9 SWAP3 SWAP2 SWAP1 PUSH2 0x3152 JUMP JUMPDEST POP PUSH2 0x1EB4 DUP5 DUP5 PUSH2 0x28DA JUMP JUMPDEST DUP1 ISZERO PUSH2 0x1F0E JUMPI PUSH1 0x0 PUSH1 0x7 PUSH1 0x1 PUSH2 0x100 EXP DUP2 SLOAD DUP2 PUSH1 0xFF MUL NOT AND SWAP1 DUP4 ISZERO ISZERO MUL OR SWAP1 SSTORE POP PUSH32 0x7F26B83FF96E1F2B6A682F133852F6798A09C465DA95921460CEFB3847402498 PUSH1 0x1 PUSH1 0x40 MLOAD PUSH2 0x1F05 SWAP2 SWAP1 PUSH2 0x46A3 JUMP JUMPDEST PUSH1 0x40 MLOAD DUP1 SWAP2 SUB SWAP1 LOG1 JUMPDEST POP POP POP POP JUMP JUMPDEST PUSH1 0xA0 SLOAD DUP2 JUMP JUMPDEST PUSH1 0x0 PUSH2 0x1F4 DUP4 GT ISZERO PUSH2 0x1F3B JUMPI PUSH2 0x1F4 DUP4 PUSH2 0x1F34 SWAP2 SWAP1 PUSH2 0x4634 JUMP JUMPDEST SWAP3 POP PUSH2 0x1F4C JUMP JUMPDEST DUP3 PUSH2 0x1F4 PUSH2 0x1F49 SWAP2 SWAP1 PUSH2 0x4634 JUMP JUMPDEST SWAP3 POP JUMPDEST PUSH2 0x1F4 DUP3 GT ISZERO PUSH2 0x1F6B JUMPI PUSH2 0x1F4 DUP3 PUSH2 0x1F64 SWAP2 SWAP1 PUSH2 0x4634 JUMP JUMPDEST SWAP2 POP PUSH2 0x1F7C JUMP JUMPDEST DUP2 PUSH2 0x1F4 PUSH2 0x1F79 SWAP2 SWAP1 PUSH2 0x4634 JUMP JUMPDEST SWAP2 POP JUMPDEST PUSH1 0x0 PUSH2 0x1FAA PUSH1 0x2 DUP5 PUSH2 0x1F8E SWAP2 SWAP1 PUSH2 0x46BE JUMP JUMPDEST PUSH1 0x2 DUP7 PUSH2 0x1F9B SWAP2 SWAP1 PUSH2 0x46BE JUMP JUMPDEST PUSH2 0x1FA5 SWAP2 SWAP1 PUSH2 0x3F50 JUMP JUMPDEST PUSH2 0x2937 JUMP JUMPDEST SWAP1 POP PUSH1 0x50 DUP2 PUSH2 0x1FB9 SWAP2 SWAP1 PUSH2 0x3F1F JUMP JUMPDEST SWAP2 POP POP SWAP3 SWAP2 POP POP JUMP JUMPDEST PUSH1 0x2 PUSH2 0x7D0 PUSH2 0x1FD1 SWAP2 SWAP1 PUSH2 0x3F1F JUMP JUMPDEST DUP2 JUMP JUMPDEST PUSH1 0xA9 PUSH1 0x20 MSTORE DUP1 PUSH1 0x0 MSTORE PUSH1 0x40 PUSH1 0x0 KECCAK256 PUSH1 0x0 SWAP2 POP SLOAD SWAP1 PUSH2 0x100 EXP SWAP1 DIV PUSH1 0xFF AND DUP2 JUMP JUMPDEST PUSH2 0x400 DUP2 JUMP JUMPDEST PUSH2 0x200B PUSH2 0x2005 PUSH2 0x2229 JUMP JUMPDEST DUP4 PUSH2 0x2380 JUMP JUMPDEST PUSH2 0x204A JUMPI PUSH1 0x40 MLOAD PUSH32 0x8C379A000000000000000000000000000000000000000000000000000000000 DUP2 MSTORE PUSH1 0x4 ADD PUSH2 0x2041 SWAP1 PUSH2 0x3FF6 JUMP JUMPDEST PUSH1 0x40 MLOAD DUP1 SWAP2 SUB SWAP1 REVERT JUMPDEST PUSH2 0x2056 DUP5 DUP5 DUP5 DUP5 PUSH2 0x2A16 JUMP JUMPDEST POP POP POP POP JUMP JUMPDEST PUSH1 0x60 PUSH1 0x0 PUSH1 0x9F DUP1 SLOAD PUSH2 0x206D SWAP1 PUSH2 0x3BA6 JUMP JUMPDEST SWAP1 POP GT PUSH2 0x2089 JUMPI PUSH1 0x40 MLOAD DUP1 PUSH1 0x20 ADD PUSH1 0x40 MSTORE DUP1 PUSH1 0x0 DUP2 MSTORE POP PUSH2 0x20B5 JUMP JUMPDEST PUSH1 0x9F PUSH2 0x2094 DUP4 PUSH2 0x2A72 JUMP JUMPDEST PUSH1 0x40 MLOAD PUSH1 0x20 ADD PUSH2 0x20A5 SWAP3 SWAP2 SWAP1 PUSH2 0x4814 JUMP JUMPDEST PUSH1 0x40 MLOAD PUSH1 0x20 DUP2 DUP4 SUB SUB DUP2 MSTORE SWAP1 PUSH1 0x40 MSTORE JUMPDEST SWAP1 POP SWAP2 SWAP1 POP JUMP JUMPDEST PUSH1 0xA3 SLOAD DUP2 JUMP JUMPDEST PUSH1 0xA1 PUSH1 0x20 MSTORE DUP1 PUSH1 0x0 MSTORE PUSH1 0x40 PUSH1 0x0 KECCAK256 PUSH1 0x0 SWAP2 POP SWAP1 POP SLOAD DUP2 JUMP JUMPDEST PUSH1 0x0 PUSH1 0x71 PUSH1 0x0 DUP5 PUSH20 0xFFFFFFFFFFFFFFFFFFFFFFFFFFFFFFFFFFFFFFFF AND PUSH20 0xFFFFFFFFFFFFFFFFFFFFFFFFFFFFFFFFFFFFFFFF AND DUP2 MSTORE PUSH1 0x20 ADD SWAP1 DUP2 MSTORE PUSH1 0x20 ADD PUSH1 0x0 KECCAK256 PUSH1 0x0 DUP4 PUSH20 0xFFFFFFFFFFFFFFFFFFFFFFFFFFFFFFFFFFFFFFFF AND PUSH20 0xFFFFFFFFFFFFFFFFFFFFFFFFFFFFFFFFFFFFFFFF AND DUP2 MSTORE PUSH1 0x20 ADD SWAP1 DUP2 MSTORE PUSH1 0x20 ADD PUSH1 0x0 KECCAK256 PUSH1 0x0 SWAP1 SLOAD SWAP1 PUSH2 0x100 EXP SWAP1 DIV PUSH1 0xFF AND SWAP1 POP SWAP3 SWAP2 POP POP JUMP JUMPDEST PUSH1 0xA5 SLOAD DUP2 JUMP JUMPDEST PUSH1 0x0 PUSH32 0x1FFC9A700000000000000000000000000000000000000000000000000000000 PUSH28 0xFFFFFFFFFFFFFFFFFFFFFFFFFFFFFFFFFFFFFFFFFFFFFFFFFFFFFFFF NOT AND DUP3 PUSH28 0xFFFFFFFFFFFFFFFFFFFFFFFFFFFFFFFFFFFFFFFFFFFFFFFFFFFFFFFF NOT AND EQ SWAP1 POP SWAP2 SWAP1 POP JUMP JUMPDEST PUSH2 0x21E7 DUP2 PUSH2 0x2B40 JUMP JUMPDEST PUSH2 0x2226 JUMPI PUSH1 0x40 MLOAD PUSH32 0x8C379A000000000000000000000000000000000000000000000000000000000 DUP2 MSTORE PUSH1 0x4 ADD PUSH2 0x221D SWAP1 PUSH2 0x4272 JUMP JUMPDEST PUSH1 0x40 MLOAD DUP1 SWAP2 SUB SWAP1 REVERT JUMPDEST POP JUMP JUMPDEST PUSH1 0x0 CALLER SWAP1 POP SWAP1 JUMP JUMPDEST DUP2 PUSH1 0x70 PUSH1 0x0 DUP4 DUP2 MSTORE PUSH1 0x20 ADD SWAP1 DUP2 MSTORE PUSH1 0x20 ADD PUSH1 0x0 KECCAK256 PUSH1 0x0 PUSH2 0x100 EXP DUP2 SLOAD DUP2 PUSH20 0xFFFFFFFFFFFFFFFFFFFFFFFFFFFFFFFFFFFFFFFF MUL NOT AND SWAP1 DUP4 PUSH20 0xFFFFFFFFFFFFFFFFFFFFFFFFFFFFFFFFFFFFFFFF AND MUL OR SWAP1 SSTORE POP DUP1 DUP3 PUSH20 0xFFFFFFFFFFFFFFFFFFFFFFFFFFFFFFFFFFFFFFFF AND PUSH2 0x22A4 DUP4 PUSH2 0x16B1 JUMP JUMPDEST PUSH20 0xFFFFFFFFFFFFFFFFFFFFFFFFFFFFFFFFFFFFFFFF AND PUSH32 0x8C5BE1E5EBEC7D5BD14F71427D1E84F3DD0314C0F7B2291E5B200AC8C7C3B925 PUSH1 0x40 MLOAD PUSH1 0x40 MLOAD DUP1 SWAP2 SUB SWAP1 LOG4 POP POP JUMP JUMPDEST PUSH1 0x0 DUP1 SLOAD CALLER DUP5 PUSH1 0x40 MLOAD PUSH1 0x20 ADD PUSH2 0x2302 SWAP4 SWAP3 SWAP2 SWAP1 PUSH2 0x48CD JUMP JUMPDEST PUSH1 0x40 MLOAD PUSH1 0x20 DUP2 DUP4 SUB SUB DUP2 MSTORE SWAP1 PUSH1 0x40 MSTORE DUP1 MLOAD SWAP1 PUSH1 0x20 ADD KECCAK256 SWAP1 POP DUP2 DUP2 EQ PUSH2 0x235C JUMPI PUSH1 0x40 MLOAD PUSH32 0x8C379A000000000000000000000000000000000000000000000000000000000 DUP2 MSTORE PUSH1 0x4 ADD PUSH2 0x2353 SWAP1 PUSH2 0x4956 JUMP JUMPDEST PUSH1 0x40 MLOAD DUP1 SWAP2 SUB SWAP1 REVERT JUMPDEST SWAP3 SWAP2 POP POP JUMP JUMPDEST PUSH2 0x237C DUP3 DUP3 PUSH1 0x40 MLOAD DUP1 PUSH1 0x20 ADD PUSH1 0x40 MSTORE DUP1 PUSH1 0x0 DUP2 MSTORE POP PUSH2 0x2B81 JUMP JUMPDEST POP POP JUMP JUMPDEST PUSH1 0x0 DUP1 PUSH2 0x238C DUP4 PUSH2 0x16B1 JUMP JUMPDEST SWAP1 POP DUP1 PUSH20 0xFFFFFFFFFFFFFFFFFFFFFFFFFFFFFFFFFFFFFFFF AND DUP5 PUSH20 0xFFFFFFFFFFFFFFFFFFFFFFFFFFFFFFFFFFFFFFFF AND EQ DUP1 PUSH2 0x23CE JUMPI POP PUSH2 0x23CD DUP2 DUP6 PUSH2 0x20DA JUMP JUMPDEST JUMPDEST DUP1 PUSH2 0x240C JUMPI POP DUP4 PUSH20 0xFFFFFFFFFFFFFFFFFFFFFFFFFFFFFFFFFFFFFFFF AND PUSH2 0x23F4 DUP5 PUSH2 0x1083 JUMP JUMPDEST PUSH20 0xFFFFFFFFFFFFFFFFFFFFFFFFFFFFFFFFFFFFFFFF AND EQ JUMPDEST SWAP2 POP POP SWAP3 SWAP2 POP POP JUMP JUMPDEST DUP3 PUSH20 0xFFFFFFFFFFFFFFFFFFFFFFFFFFFFFFFFFFFFFFFF AND PUSH2 0x2435 DUP3 PUSH2 0x16B1 JUMP JUMPDEST PUSH20 0xFFFFFFFFFFFFFFFFFFFFFFFFFFFFFFFFFFFFFFFF AND EQ PUSH2 0x248B JUMPI PUSH1 0x40 MLOAD PUSH32 0x8C379A000000000000000000000000000000000000000000000000000000000 DUP2 MSTORE PUSH1 0x4 ADD PUSH2 0x2482 SWAP1 PUSH2 0x49E8 JUMP JUMPDEST PUSH1 0x40 MLOAD DUP1 SWAP2 SUB SWAP1 REVERT JUMPDEST PUSH1 0x0 PUSH20 0xFFFFFFFFFFFFFFFFFFFFFFFFFFFFFFFFFFFFFFFF AND DUP3 PUSH20 0xFFFFFFFFFFFFFFFFFFFFFFFFFFFFFFFFFFFFFFFF AND SUB PUSH2 0x24FA JUMPI PUSH1 0x40 MLOAD PUSH32 0x8C379A000000000000000000000000000000000000000000000000000000000 DUP2 MSTORE PUSH1 0x4 ADD PUSH2 0x24F1 SWAP1 PUSH2 0x4A7A JUMP JUMPDEST PUSH1 0x40 MLOAD DUP1 SWAP2 SUB SWAP1 REVERT JUMPDEST PUSH2 0x2507 DUP4 DUP4 DUP4 PUSH1 0x1 PUSH2 0x2BDC JUMP JUMPDEST DUP3 PUSH20 0xFFFFFFFFFFFFFFFFFFFFFFFFFFFFFFFFFFFFFFFF AND PUSH2 0x2527 DUP3 PUSH2 0x16B1 JUMP JUMPDEST PUSH20 0xFFFFFFFFFFFFFFFFFFFFFFFFFFFFFFFFFFFFFFFF AND EQ PUSH2 0x257D JUMPI PUSH1 0x40 MLOAD PUSH32 0x8C379A000000000000000000000000000000000000000000000000000000000 DUP2 MSTORE PUSH1 0x4 ADD PUSH2 0x2574 SWAP1 PUSH2 0x49E8 JUMP JUMPDEST PUSH1 0x40 MLOAD DUP1 SWAP2 SUB SWAP1 REVERT JUMPDEST PUSH1 0x70 PUSH1 0x0 DUP3 DUP2 MSTORE PUSH1 0x20 ADD SWAP1 DUP2 MSTORE PUSH1 0x20 ADD PUSH1 0x0 KECCAK256 PUSH1 0x0 PUSH2 0x100 EXP DUP2 SLOAD SWAP1 PUSH20 0xFFFFFFFFFFFFFFFFFFFFFFFFFFFFFFFFFFFFFFFF MUL NOT AND SWAP1 SSTORE PUSH1 0x1 PUSH1 0x6F PUSH1 0x0 DUP6 PUSH20 0xFFFFFFFFFFFFFFFFFFFFFFFFFFFFFFFFFFFFFFFF AND PUSH20 0xFFFFFFFFFFFFFFFFFFFFFFFFFFFFFFFFFFFFFFFF AND DUP2 MSTORE PUSH1 0x20 ADD SWAP1 DUP2 MSTORE PUSH1 0x20 ADD PUSH1 0x0 KECCAK256 PUSH1 0x0 DUP3 DUP3 SLOAD SUB SWAP3 POP POP DUP2 SWAP1 SSTORE POP PUSH1 0x1 PUSH1 0x6F PUSH1 0x0 DUP5 PUSH20 0xFFFFFFFFFFFFFFFFFFFFFFFFFFFFFFFFFFFFFFFF AND PUSH20 0xFFFFFFFFFFFFFFFFFFFFFFFFFFFFFFFFFFFFFFFF AND DUP2 MSTORE PUSH1 0x20 ADD SWAP1 DUP2 MSTORE PUSH1 0x20 ADD PUSH1 0x0 KECCAK256 PUSH1 0x0 DUP3 DUP3 SLOAD ADD SWAP3 POP POP DUP2 SWAP1 SSTORE POP DUP2 PUSH1 0x6E PUSH1 0x0 DUP4 DUP2 MSTORE PUSH1 0x20 ADD SWAP1 DUP2 MSTORE PUSH1 0x20 ADD PUSH1 0x0 KECCAK256 PUSH1 0x0 PUSH2 0x100 EXP DUP2 SLOAD DUP2 PUSH20 0xFFFFFFFFFFFFFFFFFFFFFFFFFFFFFFFFFFFFFFFF MUL NOT AND SWAP1 DUP4 PUSH20 0xFFFFFFFFFFFFFFFFFFFFFFFFFFFFFFFFFFFFFFFF AND MUL OR SWAP1 SSTORE POP DUP1 DUP3 PUSH20 0xFFFFFFFFFFFFFFFFFFFFFFFFFFFFFFFFFFFFFFFF AND DUP5 PUSH20 0xFFFFFFFFFFFFFFFFFFFFFFFFFFFFFFFFFFFFFFFF AND PUSH32 0xDDF252AD1BE2C89B69C2B068FC378DAA952BA7F163C4A11628F55A4DF523B3EF PUSH1 0x40 MLOAD PUSH1 0x40 MLOAD DUP1 SWAP2 SUB SWAP1 LOG4 PUSH2 0x2709 DUP4 DUP4 DUP4 PUSH1 0x1 PUSH2 0x2BE2 JUMP JUMPDEST POP POP POP JUMP JUMPDEST PUSH1 0x0 PUSH1 0x6E PUSH1 0x0 DUP4 DUP2 MSTORE PUSH1 0x20 ADD SWAP1 DUP2 MSTORE PUSH1 0x20 ADD PUSH1 0x0 KECCAK256 PUSH1 0x0 SWAP1 SLOAD SWAP1 PUSH2 0x100 EXP SWAP1 DIV PUSH20 0xFFFFFFFFFFFFFFFFFFFFFFFFFFFFFFFFFFFFFFFF AND SWAP1 POP SWAP2 SWAP1 POP JUMP JUMPDEST DUP2 PUSH20 0xFFFFFFFFFFFFFFFFFFFFFFFFFFFFFFFFFFFFFFFF AND DUP4 PUSH20 0xFFFFFFFFFFFFFFFFFFFFFFFFFFFFFFFFFFFFFFFF AND SUB PUSH2 0x27B9 JUMPI PUSH1 0x40 MLOAD PUSH32 0x8C379A000000000000000000000000000000000000000000000000000000000 DUP2 MSTORE PUSH1 0x4 ADD PUSH2 0x27B0 SWAP1 PUSH2 0x4AE6 JUMP JUMPDEST PUSH1 0x40 MLOAD DUP1 SWAP2 SUB SWAP1 REVERT JUMPDEST DUP1 PUSH1 0x71 PUSH1 0x0 DUP6 PUSH20 0xFFFFFFFFFFFFFFFFFFFFFFFFFFFFFFFFFFFFFFFF AND PUSH20 0xFFFFFFFFFFFFFFFFFFFFFFFFFFFFFFFFFFFFFFFF AND DUP2 MSTORE PUSH1 0x20 ADD SWAP1 DUP2 MSTORE PUSH1 0x20 ADD PUSH1 0x0 KECCAK256 PUSH1 0x0 DUP5 PUSH20 0xFFFFFFFFFFFFFFFFFFFFFFFFFFFFFFFFFFFFFFFF AND PUSH20 0xFFFFFFFFFFFFFFFFFFFFFFFFFFFFFFFFFFFFFFFF AND DUP2 MSTORE PUSH1 0x20 ADD SWAP1 DUP2 MSTORE PUSH1 0x20 ADD PUSH1 0x0 KECCAK256 PUSH1 0x0 PUSH2 0x100 EXP DUP2 SLOAD DUP2 PUSH1 0xFF MUL NOT AND SWAP1 DUP4 ISZERO ISZERO MUL OR SWAP1 SSTORE POP DUP2 PUSH20 0xFFFFFFFFFFFFFFFFFFFFFFFFFFFFFFFFFFFFFFFF AND DUP4 PUSH20 0xFFFFFFFFFFFFFFFFFFFFFFFFFFFFFFFFFFFFFFFF AND PUSH32 0x17307EAB39AB6107E8899845AD3D59BD9653F200F220920489CA2B5937696C31 DUP4 PUSH1 0x40 MLOAD PUSH2 0x28AA SWAP2 SWAP1 PUSH2 0x32FE JUMP JUMPDEST PUSH1 0x40 MLOAD DUP1 SWAP2 SUB SWAP1 LOG3 POP POP POP JUMP JUMPDEST PUSH1 0x0 DUP1 DUP3 PUSH20 0xFFFFFFFFFFFFFFFFFFFFFFFFFFFFFFFFFFFFFFFF AND EXTCODESIZE GT SWAP1 POP SWAP2 SWAP1 POP JUMP JUMPDEST PUSH1 0x7 PUSH1 0x1 SWAP1 SLOAD SWAP1 PUSH2 0x100 EXP SWAP1 DIV PUSH1 0xFF AND PUSH2 0x2929 JUMPI PUSH1 0x40 MLOAD PUSH32 0x8C379A000000000000000000000000000000000000000000000000000000000 DUP2 MSTORE PUSH1 0x4 ADD PUSH2 0x2920 SWAP1 PUSH2 0x4B78 JUMP JUMPDEST PUSH1 0x40 MLOAD DUP1 SWAP2 SUB SWAP1 REVERT JUMPDEST PUSH2 0x2933 DUP3 DUP3 PUSH2 0x2BE8 JUMP JUMPDEST POP POP JUMP JUMPDEST PUSH1 0x0 DUP2 PUSH1 0xB5 SWAP2 POP PUSH18 0x10000000000000000000000000000000000 DUP2 LT PUSH2 0x2964 JUMPI DUP1 PUSH1 0x80 SHR SWAP1 POP DUP2 PUSH1 0x40 SHL SWAP2 POP JUMPDEST PUSH10 0x1000000000000000000 DUP2 LT PUSH2 0x2982 JUMPI DUP1 PUSH1 0x40 SHR SWAP1 POP DUP2 PUSH1 0x20 SHL SWAP2 POP JUMPDEST PUSH6 0x10000000000 DUP2 LT PUSH2 0x299C JUMPI DUP1 PUSH1 0x20 SHR SWAP1 POP DUP2 PUSH1 0x10 SHL SWAP2 POP JUMPDEST PUSH4 0x1000000 DUP2 LT PUSH2 0x29B4 JUMPI DUP1 PUSH1 0x10 SHR SWAP1 POP DUP2 PUSH1 0x8 SHL SWAP2 POP JUMPDEST PUSH3 0x10000 DUP2 ADD DUP3 MUL PUSH1 0x12 SHR SWAP2 POP DUP2 DUP4 DIV DUP3 ADD PUSH1 0x1 SHR SWAP2 POP DUP2 DUP4 DIV DUP3 ADD PUSH1 0x1 SHR SWAP2 POP DUP2 DUP4 DIV DUP3 ADD PUSH1 0x1 SHR SWAP2 POP DUP2 DUP4 DIV DUP3 ADD PUSH1 0x1 SHR SWAP2 POP DUP2 DUP4 DIV DUP3 ADD PUSH1 0x1 SHR SWAP2 POP DUP2 DUP4 DIV DUP3 ADD PUSH1 0x1 SHR SWAP2 POP DUP2 DUP4 DIV DUP3 ADD PUSH1 0x1 SHR SWAP2 POP DUP2 DUP3 DUP5 DIV LT DUP3 SUB SWAP2 POP POP SWAP2 SWAP1 POP JUMP JUMPDEST PUSH2 0x2A21 DUP5 DUP5 DUP5 PUSH2 0x2415 JUMP JUMPDEST PUSH2 0x2A2D DUP5 DUP5 DUP5 DUP5 PUSH2 0x2C5B JUMP JUMPDEST PUSH2 0x2A6C JUMPI PUSH1 0x40 MLOAD PUSH32 0x8C379A000000000000000000000000000000000000000000000000000000000 DUP2 MSTORE PUSH1 0x4 ADD PUSH2 0x2A63 SWAP1 PUSH2 0x4C0A JUMP JUMPDEST PUSH1 0x40 MLOAD DUP1 SWAP2 SUB SWAP1 REVERT JUMPDEST POP POP POP POP JUMP JUMPDEST PUSH1 0x60 PUSH1 0x0 PUSH1 0x1 PUSH2 0x2A81 DUP5 PUSH2 0x2DE2 JUMP JUMPDEST ADD SWAP1 POP PUSH1 0x0 DUP2 PUSH8 0xFFFFFFFFFFFFFFFF DUP2 GT ISZERO PUSH2 0x2AA0 JUMPI PUSH2 0x2A9F PUSH2 0x374C JUMP JUMPDEST JUMPDEST PUSH1 0x40 MLOAD SWAP1 DUP1 DUP3 MSTORE DUP1 PUSH1 0x1F ADD PUSH1 0x1F NOT AND PUSH1 0x20 ADD DUP3 ADD PUSH1 0x40 MSTORE DUP1 ISZERO PUSH2 0x2AD2 JUMPI DUP2 PUSH1 0x20 ADD PUSH1 0x1 DUP3 MUL DUP1 CALLDATASIZE DUP4 CALLDATACOPY DUP1 DUP3 ADD SWAP2 POP POP SWAP1 POP JUMPDEST POP SWAP1 POP PUSH1 0x0 DUP3 PUSH1 0x20 ADD DUP3 ADD SWAP1 POP JUMPDEST PUSH1 0x1 ISZERO PUSH2 0x2B35 JUMPI DUP1 DUP1 PUSH1 0x1 SWAP1 SUB SWAP2 POP POP PUSH32 0x3031323334353637383961626364656600000000000000000000000000000000 PUSH1 0xA DUP7 MOD BYTE DUP2 MSTORE8 PUSH1 0xA DUP6 DUP2 PUSH2 0x2B29 JUMPI PUSH2 0x2B28 PUSH2 0x3EF0 JUMP JUMPDEST JUMPDEST DIV SWAP5 POP PUSH1 0x0 DUP6 SUB PUSH2 0x2AE0 JUMPI JUMPDEST DUP2 SWAP4 POP POP POP POP SWAP2 SWAP1 POP JUMP JUMPDEST PUSH1 0x0 DUP1 PUSH20 0xFFFFFFFFFFFFFFFFFFFFFFFFFFFFFFFFFFFFFFFF AND PUSH2 0x2B62 DUP4 PUSH2 0x270E JUMP JUMPDEST PUSH20 0xFFFFFFFFFFFFFFFFFFFFFFFFFFFFFFFFFFFFFFFF AND EQ ISZERO SWAP1 POP SWAP2 SWAP1 POP JUMP JUMPDEST PUSH2 0x2B8B DUP4 DUP4 PUSH2 0x2F35 JUMP JUMPDEST PUSH2 0x2B98 PUSH1 0x0 DUP5 DUP5 DUP5 PUSH2 0x2C5B JUMP JUMPDEST PUSH2 0x2BD7 JUMPI PUSH1 0x40 MLOAD PUSH32 0x8C379A000000000000000000000000000000000000000000000000000000000 DUP2 MSTORE PUSH1 0x4 ADD PUSH2 0x2BCE SWAP1 PUSH2 0x4C0A JUMP JUMPDEST PUSH1 0x40 MLOAD DUP1 SWAP2 SUB SWAP1 REVERT JUMPDEST POP POP POP JUMP JUMPDEST POP POP POP POP JUMP JUMPDEST POP POP POP POP JUMP JUMPDEST PUSH1 0x7 PUSH1 0x1 SWAP1 SLOAD SWAP1 PUSH2 0x100 EXP SWAP1 DIV PUSH1 0xFF AND PUSH2 0x2C37 JUMPI PUSH1 0x40 MLOAD PUSH32 0x8C379A000000000000000000000000000000000000000000000000000000000 DUP2 MSTORE PUSH1 0x4 ADD PUSH2 0x2C2E SWAP1 PUSH2 0x4B78 JUMP JUMPDEST PUSH1 0x40 MLOAD DUP1 SWAP2 SUB SWAP1 REVERT JUMPDEST DUP2 PUSH1 0x6C SWAP1 DUP2 PUSH2 0x2C46 SWAP2 SWAP1 PUSH2 0x44D0 JUMP JUMPDEST POP DUP1 PUSH1 0x6D SWAP1 DUP2 PUSH2 0x2C56 SWAP2 SWAP1 PUSH2 0x44D0 JUMP JUMPDEST POP POP POP JUMP JUMPDEST PUSH1 0x0 PUSH2 0x2C7C DUP5 PUSH20 0xFFFFFFFFFFFFFFFFFFFFFFFFFFFFFFFFFFFFFFFF AND PUSH2 0x28B7 JUMP JUMPDEST ISZERO PUSH2 0x2DD5 JUMPI DUP4 PUSH20 0xFFFFFFFFFFFFFFFFFFFFFFFFFFFFFFFFFFFFFFFF AND PUSH4 0x150B7A02 PUSH2 0x2CA5 PUSH2 0x2229 JUMP JUMPDEST DUP8 DUP7 DUP7 PUSH1 0x40 MLOAD DUP6 PUSH4 0xFFFFFFFF AND PUSH1 0xE0 SHL DUP2 MSTORE PUSH1 0x4 ADD PUSH2 0x2CC7 SWAP5 SWAP4 SWAP3 SWAP2 SWAP1 PUSH2 0x4C7F JUMP JUMPDEST PUSH1 0x20 PUSH1 0x40 MLOAD DUP1 DUP4 SUB DUP2 PUSH1 0x0 DUP8 GAS CALL SWAP3 POP POP POP DUP1 ISZERO PUSH2 0x2D03 JUMPI POP PUSH1 0x40 MLOAD RETURNDATASIZE PUSH1 0x1F NOT PUSH1 0x1F DUP3 ADD AND DUP3 ADD DUP1 PUSH1 0x40 MSTORE POP DUP2 ADD SWAP1 PUSH2 0x2D00 SWAP2 SWAP1 PUSH2 0x4CE0 JUMP JUMPDEST PUSH1 0x1 JUMPDEST PUSH2 0x2D85 JUMPI RETURNDATASIZE DUP1 PUSH1 0x0 DUP2 EQ PUSH2 0x2D33 JUMPI PUSH1 0x40 MLOAD SWAP2 POP PUSH1 0x1F NOT PUSH1 0x3F RETURNDATASIZE ADD AND DUP3 ADD PUSH1 0x40 MSTORE RETURNDATASIZE DUP3 MSTORE RETURNDATASIZE PUSH1 0x0 PUSH1 0x20 DUP5 ADD RETURNDATACOPY PUSH2 0x2D38 JUMP JUMPDEST PUSH1 0x60 SWAP2 POP JUMPDEST POP PUSH1 0x0 DUP2 MLOAD SUB PUSH2 0x2D7D JUMPI PUSH1 0x40 MLOAD PUSH32 0x8C379A000000000000000000000000000000000000000000000000000000000 DUP2 MSTORE PUSH1 0x4 ADD PUSH2 0x2D74 SWAP1 PUSH2 0x4C0A JUMP JUMPDEST PUSH1 0x40 MLOAD DUP1 SWAP2 SUB SWAP1 REVERT JUMPDEST DUP1 MLOAD DUP2 PUSH1 0x20 ADD REVERT JUMPDEST PUSH4 0x150B7A02 PUSH1 0xE0 SHL PUSH28 0xFFFFFFFFFFFFFFFFFFFFFFFFFFFFFFFFFFFFFFFFFFFFFFFFFFFFFFFF NOT AND DUP2 PUSH28 0xFFFFFFFFFFFFFFFFFFFFFFFFFFFFFFFFFFFFFFFFFFFFFFFFFFFFFFFF NOT AND EQ SWAP2 POP POP PUSH2 0x2DDA JUMP JUMPDEST PUSH1 0x1 SWAP1 POP JUMPDEST SWAP5 SWAP4 POP POP POP POP JUMP JUMPDEST PUSH1 0x0 DUP1 PUSH1 0x0 SWAP1 POP PUSH27 0x184F03E93FF9F4DAA797ED6E38ED64BF6A1F010000000000000000 DUP4 LT PUSH2 0x2E40 JUMPI PUSH27 0x184F03E93FF9F4DAA797ED6E38ED64BF6A1F010000000000000000 DUP4 DUP2 PUSH2 0x2E36 JUMPI PUSH2 0x2E35 PUSH2 0x3EF0 JUMP JUMPDEST JUMPDEST DIV SWAP3 POP PUSH1 0x40 DUP2 ADD SWAP1 POP JUMPDEST PUSH14 0x4EE2D6D415B85ACEF8100000000 DUP4 LT PUSH2 0x2E7D JUMPI PUSH14 0x4EE2D6D415B85ACEF8100000000 DUP4 DUP2 PUSH2 0x2E73 JUMPI PUSH2 0x2E72 PUSH2 0x3EF0 JUMP JUMPDEST JUMPDEST DIV SWAP3 POP PUSH1 0x20 DUP2 ADD SWAP1 POP JUMPDEST PUSH7 0x2386F26FC10000 DUP4 LT PUSH2 0x2EAC JUMPI PUSH7 0x2386F26FC10000 DUP4 DUP2 PUSH2 0x2EA2 JUMPI PUSH2 0x2EA1 PUSH2 0x3EF0 JUMP JUMPDEST JUMPDEST DIV SWAP3 POP PUSH1 0x10 DUP2 ADD SWAP1 POP JUMPDEST PUSH4 0x5F5E100 DUP4 LT PUSH2 0x2ED5 JUMPI PUSH4 0x5F5E100 DUP4 DUP2 PUSH2 0x2ECB JUMPI PUSH2 0x2ECA PUSH2 0x3EF0 JUMP JUMPDEST JUMPDEST DIV SWAP3 POP PUSH1 0x8 DUP2 ADD SWAP1 POP JUMPDEST PUSH2 0x2710 DUP4 LT PUSH2 0x2EFA JUMPI PUSH2 0x2710 DUP4 DUP2 PUSH2 0x2EF0 JUMPI PUSH2 0x2EEF PUSH2 0x3EF0 JUMP JUMPDEST JUMPDEST DIV SWAP3 POP PUSH1 0x4 DUP2 ADD SWAP1 POP JUMPDEST PUSH1 0x64 DUP4 LT PUSH2 0x2F1D JUMPI PUSH1 0x64 DUP4 DUP2 PUSH2 0x2F13 JUMPI PUSH2 0x2F12 PUSH2 0x3EF0 JUMP JUMPDEST JUMPDEST DIV SWAP3 POP PUSH1 0x2 DUP2 ADD SWAP1 POP JUMPDEST PUSH1 0xA DUP4 LT PUSH2 0x2F2C JUMPI PUSH1 0x1 DUP2 ADD SWAP1 POP JUMPDEST DUP1 SWAP2 POP POP SWAP2 SWAP1 POP JUMP JUMPDEST PUSH1 0x0 PUSH20 0xFFFFFFFFFFFFFFFFFFFFFFFFFFFFFFFFFFFFFFFF AND DUP3 PUSH20 0xFFFFFFFFFFFFFFFFFFFFFFFFFFFFFFFFFFFFFFFF AND SUB PUSH2 0x2FA4 JUMPI PUSH1 0x40 MLOAD PUSH32 0x8C379A000000000000000000000000000000000000000000000000000000000 DUP2 MSTORE PUSH1 0x4 ADD PUSH2 0x2F9B SWAP1 PUSH2 0x4D59 JUMP JUMPDEST PUSH1 0x40 MLOAD DUP1 SWAP2 SUB SWAP1 REVERT JUMPDEST PUSH2 0x2FAD DUP2 PUSH2 0x2B40 JUMP JUMPDEST ISZERO PUSH2 0x2FED JUMPI PUSH1 0x40 MLOAD PUSH32 0x8C379A000000000000000000000000000000000000000000000000000000000 DUP2 MSTORE PUSH1 0x4 ADD PUSH2 0x2FE4 SWAP1 PUSH2 0x4DC5 JUMP JUMPDEST PUSH1 0x40 MLOAD DUP1 SWAP2 SUB SWAP1 REVERT JUMPDEST PUSH2 0x2FFB PUSH1 0x0 DUP4 DUP4 PUSH1 0x1 PUSH2 0x2BDC JUMP JUMPDEST PUSH2 0x3004 DUP2 PUSH2 0x2B40 JUMP JUMPDEST ISZERO PUSH2 0x3044 JUMPI PUSH1 0x40 MLOAD PUSH32 0x8C379A000000000000000000000000000000000000000000000000000000000 DUP2 MSTORE PUSH1 0x4 ADD PUSH2 0x303B SWAP1 PUSH2 0x4DC5 JUMP JUMPDEST PUSH1 0x40 MLOAD DUP1 SWAP2 SUB SWAP1 REVERT JUMPDEST PUSH1 0x1 PUSH1 0x6F PUSH1 0x0 DUP5 PUSH20 0xFFFFFFFFFFFFFFFFFFFFFFFFFFFFFFFFFFFFFFFF AND PUSH20 0xFFFFFFFFFFFFFFFFFFFFFFFFFFFFFFFFFFFFFFFF AND DUP2 MSTORE PUSH1 0x20 ADD SWAP1 DUP2 MSTORE PUSH1 0x20 ADD PUSH1 0x0 KECCAK256 PUSH1 0x0 DUP3 DUP3 SLOAD ADD SWAP3 POP POP DUP2 SWAP1 SSTORE POP DUP2 PUSH1 0x6E PUSH1 0x0 DUP4 DUP2 MSTORE PUSH1 0x20 ADD SWAP1 DUP2 MSTORE PUSH1 0x20 ADD PUSH1 0x0 KECCAK256 PUSH1 0x0 PUSH2 0x100 EXP DUP2 SLOAD DUP2 PUSH20 0xFFFFFFFFFFFFFFFFFFFFFFFFFFFFFFFFFFFFFFFF MUL NOT AND SWAP1 DUP4 PUSH20 0xFFFFFFFFFFFFFFFFFFFFFFFFFFFFFFFFFFFFFFFF AND MUL OR SWAP1 SSTORE POP DUP1 DUP3 PUSH20 0xFFFFFFFFFFFFFFFFFFFFFFFFFFFFFFFFFFFFFFFF AND PUSH1 0x0 PUSH20 0xFFFFFFFFFFFFFFFFFFFFFFFFFFFFFFFFFFFFFFFF AND PUSH32 0xDDF252AD1BE2C89B69C2B068FC378DAA952BA7F163C4A11628F55A4DF523B3EF PUSH1 0x40 MLOAD PUSH1 0x40 MLOAD DUP1 SWAP2 SUB SWAP1 LOG4 PUSH2 0x314E PUSH1 0x0 DUP4 DUP4 PUSH1 0x1 PUSH2 0x2BE2 JUMP JUMPDEST POP POP JUMP JUMPDEST DUP3 DUP1 SLOAD DUP3 DUP3 SSTORE SWAP1 PUSH1 0x0 MSTORE PUSH1 0x20 PUSH1 0x0 KECCAK256 SWAP1 PUSH1 0x1F ADD PUSH1 0x20 SWAP1 DIV DUP2 ADD SWAP3 DUP3 ISZERO PUSH2 0x31E8 JUMPI SWAP2 PUSH1 0x20 MUL DUP3 ADD PUSH1 0x0 JUMPDEST DUP4 DUP3 GT ISZERO PUSH2 0x31B9 JUMPI DUP4 MLOAD DUP4 DUP3 PUSH2 0x100 EXP DUP2 SLOAD DUP2 PUSH1 0xFF MUL NOT AND SWAP1 DUP4 PUSH1 0xFF AND MUL OR SWAP1 SSTORE POP SWAP3 PUSH1 0x20 ADD SWAP3 PUSH1 0x1 ADD PUSH1 0x20 DUP2 PUSH1 0x0 ADD DIV SWAP3 DUP4 ADD SWAP3 PUSH1 0x1 SUB MUL PUSH2 0x317B JUMP JUMPDEST DUP1 ISZERO PUSH2 0x31E6 JUMPI DUP3 DUP2 PUSH2 0x100 EXP DUP2 SLOAD SWAP1 PUSH1 0xFF MUL NOT AND SWAP1 SSTORE PUSH1 0x1 ADD PUSH1 0x20 DUP2 PUSH1 0x0 ADD DIV SWAP3 DUP4 ADD SWAP3 PUSH1 0x1 SUB MUL PUSH2 0x31B9 JUMP JUMPDEST POP JUMPDEST POP SWAP1 POP PUSH2 0x31F5 SWAP2 SWAP1 PUSH2 0x31F9 JUMP JUMPDEST POP SWAP1 JUMP JUMPDEST JUMPDEST DUP1 DUP3 GT ISZERO PUSH2 0x3212 JUMPI PUSH1 0x0 DUP2 PUSH1 0x0 SWAP1 SSTORE POP PUSH1 0x1 ADD PUSH2 0x31FA JUMP JUMPDEST POP SWAP1 JUMP JUMPDEST PUSH1 0x0 DUP2 SWAP1 POP SWAP2 SWAP1 POP JUMP JUMPDEST PUSH2 0x3229 DUP2 PUSH2 0x3216 JUMP JUMPDEST DUP3 MSTORE POP POP JUMP JUMPDEST PUSH1 0x0 PUSH1 0x20 DUP3 ADD SWAP1 POP PUSH2 0x3244 PUSH1 0x0 DUP4 ADD DUP5 PUSH2 0x3220 JUMP JUMPDEST SWAP3 SWAP2 POP POP JUMP JUMPDEST PUSH1 0x0 PUSH1 0x40 MLOAD SWAP1 POP SWAP1 JUMP JUMPDEST PUSH1 0x0 DUP1 REVERT JUMPDEST PUSH1 0x0 DUP1 REVERT JUMPDEST PUSH1 0x0 PUSH32 0xFFFFFFFF00000000000000000000000000000000000000000000000000000000 DUP3 AND SWAP1 POP SWAP2 SWAP1 POP JUMP JUMPDEST PUSH2 0x3293 DUP2 PUSH2 0x325E JUMP JUMPDEST DUP2 EQ PUSH2 0x329E JUMPI PUSH1 0x0 DUP1 REVERT JUMPDEST POP JUMP JUMPDEST PUSH1 0x0 DUP2 CALLDATALOAD SWAP1 POP PUSH2 0x32B0 DUP2 PUSH2 0x328A JUMP JUMPDEST SWAP3 SWAP2 POP POP JUMP JUMPDEST PUSH1 0x0 PUSH1 0x20 DUP3 DUP5 SUB SLT ISZERO PUSH2 0x32CC JUMPI PUSH2 0x32CB PUSH2 0x3254 JUMP JUMPDEST JUMPDEST PUSH1 0x0 PUSH2 0x32DA DUP5 DUP3 DUP6 ADD PUSH2 0x32A1 JUMP JUMPDEST SWAP2 POP POP SWAP3 SWAP2 POP POP JUMP JUMPDEST PUSH1 0x0 DUP2 ISZERO ISZERO SWAP1 POP SWAP2 SWAP1 POP JUMP JUMPDEST PUSH2 0x32F8 DUP2 PUSH2 0x32E3 JUMP JUMPDEST DUP3 MSTORE POP POP JUMP JUMPDEST PUSH1 0x0 PUSH1 0x20 DUP3 ADD SWAP1 POP PUSH2 0x3313 PUSH1 0x0 DUP4 ADD DUP5 PUSH2 0x32EF JUMP JUMPDEST SWAP3 SWAP2 POP POP JUMP JUMPDEST PUSH2 0x3322 DUP2 PUSH2 0x3216 JUMP JUMPDEST DUP2 EQ PUSH2 0x332D JUMPI PUSH1 0x0 DUP1 REVERT JUMPDEST POP JUMP JUMPDEST PUSH1 0x0 DUP2 CALLDATALOAD SWAP1 POP PUSH2 0x333F DUP2 PUSH2 0x3319 JUMP JUMPDEST SWAP3 SWAP2 POP POP JUMP JUMPDEST PUSH1 0x0 PUSH1 0x20 DUP3 DUP5 SUB SLT ISZERO PUSH2 0x335B JUMPI PUSH2 0x335A PUSH2 0x3254 JUMP JUMPDEST JUMPDEST PUSH1 0x0 PUSH2 0x3369 DUP5 DUP3 DUP6 ADD PUSH2 0x3330 JUMP JUMPDEST SWAP2 POP POP SWAP3 SWAP2 POP POP JUMP JUMPDEST PUSH1 0x0 PUSH1 0xFF DUP3 AND SWAP1 POP SWAP2 SWAP1 POP JUMP JUMPDEST PUSH2 0x3388 DUP2 PUSH2 0x3372 JUMP JUMPDEST DUP3 MSTORE POP POP JUMP JUMPDEST PUSH1 0x0 PUSH1 0x20 DUP3 ADD SWAP1 POP PUSH2 0x33A3 PUSH1 0x0 DUP4 ADD DUP5 PUSH2 0x337F JUMP JUMPDEST SWAP3 SWAP2 POP POP JUMP JUMPDEST PUSH1 0x0 DUP2 MLOAD SWAP1 POP SWAP2 SWAP1 POP JUMP JUMPDEST PUSH1 0x0 DUP3 DUP3 MSTORE PUSH1 0x20 DUP3 ADD SWAP1 POP SWAP3 SWAP2 POP POP JUMP JUMPDEST PUSH1 0x0 JUMPDEST DUP4 DUP2 LT ISZERO PUSH2 0x33E3 JUMPI DUP1 DUP3 ADD MLOAD DUP2 DUP5 ADD MSTORE PUSH1 0x20 DUP2 ADD SWAP1 POP PUSH2 0x33C8 JUMP JUMPDEST PUSH1 0x0 DUP5 DUP5 ADD MSTORE POP POP POP POP JUMP JUMPDEST PUSH1 0x0 PUSH1 0x1F NOT PUSH1 0x1F DUP4 ADD AND SWAP1 POP SWAP2 SWAP1 POP JUMP JUMPDEST PUSH1 0x0 PUSH2 0x340B DUP3 PUSH2 0x33A9 JUMP JUMPDEST PUSH2 0x3415 DUP2 DUP6 PUSH2 0x33B4 JUMP JUMPDEST SWAP4 POP PUSH2 0x3425 DUP2 DUP6 PUSH1 0x20 DUP7 ADD PUSH2 0x33C5 JUMP JUMPDEST PUSH2 0x342E DUP2 PUSH2 0x33EF JUMP JUMPDEST DUP5 ADD SWAP2 POP POP SWAP3 SWAP2 POP POP JUMP JUMPDEST PUSH1 0x0 PUSH1 0x20 DUP3 ADD SWAP1 POP DUP2 DUP2 SUB PUSH1 0x0 DUP4 ADD MSTORE PUSH2 0x3453 DUP2 DUP5 PUSH2 0x3400 JUMP JUMPDEST SWAP1 POP SWAP3 SWAP2 POP POP JUMP JUMPDEST PUSH2 0x3464 DUP2 PUSH2 0x3372 JUMP JUMPDEST DUP2 EQ PUSH2 0x346F JUMPI PUSH1 0x0 DUP1 REVERT JUMPDEST POP JUMP JUMPDEST PUSH1 0x0 DUP2 CALLDATALOAD SWAP1 POP PUSH2 0x3481 DUP2 PUSH2 0x345B JUMP JUMPDEST SWAP3 SWAP2 POP POP JUMP JUMPDEST PUSH1 0x0 PUSH1 0x20 DUP3 DUP5 SUB SLT ISZERO PUSH2 0x349D JUMPI PUSH2 0x349C PUSH2 0x3254 JUMP JUMPDEST JUMPDEST PUSH1 0x0 PUSH2 0x34AB DUP5 DUP3 DUP6 ADD PUSH2 0x3472 JUMP JUMPDEST SWAP2 POP POP SWAP3 SWAP2 POP POP JUMP JUMPDEST PUSH1 0x0 PUSH20 0xFFFFFFFFFFFFFFFFFFFFFFFFFFFFFFFFFFFFFFFF DUP3 AND SWAP1 POP SWAP2 SWAP1 POP JUMP JUMPDEST PUSH1 0x0 PUSH2 0x34DF DUP3 PUSH2 0x34B4 JUMP JUMPDEST SWAP1 POP SWAP2 SWAP1 POP JUMP JUMPDEST PUSH2 0x34EF DUP2 PUSH2 0x34D4 JUMP JUMPDEST DUP3 MSTORE POP POP JUMP JUMPDEST PUSH1 0x0 PUSH1 0x20 DUP3 ADD SWAP1 POP PUSH2 0x350A PUSH1 0x0 DUP4 ADD DUP5 PUSH2 0x34E6 JUMP JUMPDEST SWAP3 SWAP2 POP POP JUMP JUMPDEST PUSH2 0x3519 DUP2 PUSH2 0x34D4 JUMP JUMPDEST DUP2 EQ PUSH2 0x3524 JUMPI PUSH1 0x0 DUP1 REVERT JUMPDEST POP JUMP JUMPDEST PUSH1 0x0 DUP2 CALLDATALOAD SWAP1 POP PUSH2 0x3536 DUP2 PUSH2 0x3510 JUMP JUMPDEST SWAP3 SWAP2 POP POP JUMP JUMPDEST PUSH1 0x0 DUP1 PUSH1 0x40 DUP4 DUP6 SUB SLT ISZERO PUSH2 0x3553 JUMPI PUSH2 0x3552 PUSH2 0x3254 JUMP JUMPDEST JUMPDEST PUSH1 0x0 PUSH2 0x3561 DUP6 DUP3 DUP7 ADD PUSH2 0x3527 JUMP JUMPDEST SWAP3 POP POP PUSH1 0x20 PUSH2 0x3572 DUP6 DUP3 DUP7 ADD PUSH2 0x3330 JUMP JUMPDEST SWAP2 POP POP SWAP3 POP SWAP3 SWAP1 POP JUMP JUMPDEST PUSH1 0x0 DUP2 SWAP1 POP SWAP2 SWAP1 POP JUMP JUMPDEST PUSH2 0x358F DUP2 PUSH2 0x357C JUMP JUMPDEST DUP2 EQ PUSH2 0x359A JUMPI PUSH1 0x0 DUP1 REVERT JUMPDEST POP JUMP JUMPDEST PUSH1 0x0 DUP2 CALLDATALOAD SWAP1 POP PUSH2 0x35AC DUP2 PUSH2 0x3586 JUMP JUMPDEST SWAP3 SWAP2 POP POP JUMP JUMPDEST PUSH1 0x0 DUP1 PUSH1 0x40 DUP4 DUP6 SUB SLT ISZERO PUSH2 0x35C9 JUMPI PUSH2 0x35C8 PUSH2 0x3254 JUMP JUMPDEST JUMPDEST PUSH1 0x0 PUSH2 0x35D7 DUP6 DUP3 DUP7 ADD PUSH2 0x3330 JUMP JUMPDEST SWAP3 POP POP PUSH1 0x20 PUSH2 0x35E8 DUP6 DUP3 DUP7 ADD PUSH2 0x359D JUMP JUMPDEST SWAP2 POP POP SWAP3 POP SWAP3 SWAP1 POP JUMP JUMPDEST PUSH1 0x0 DUP1 PUSH1 0x0 PUSH1 0x60 DUP5 DUP7 SUB SLT ISZERO PUSH2 0x360B JUMPI PUSH2 0x360A PUSH2 0x3254 JUMP JUMPDEST JUMPDEST PUSH1 0x0 PUSH2 0x3619 DUP7 DUP3 DUP8 ADD PUSH2 0x3527 JUMP JUMPDEST SWAP4 POP POP PUSH1 0x20 PUSH2 0x362A DUP7 DUP3 DUP8 ADD PUSH2 0x3527 JUMP JUMPDEST SWAP3 POP POP PUSH1 0x40 PUSH2 0x363B DUP7 DUP3 DUP8 ADD PUSH2 0x3330 JUMP JUMPDEST SWAP2 POP POP SWAP3 POP SWAP3 POP SWAP3 JUMP JUMPDEST PUSH2 0x364E DUP2 PUSH2 0x357C JUMP JUMPDEST DUP3 MSTORE POP POP JUMP JUMPDEST PUSH1 0x0 PUSH1 0x20 DUP3 ADD SWAP1 POP PUSH2 0x3669 PUSH1 0x0 DUP4 ADD DUP5 PUSH2 0x3645 JUMP JUMPDEST SWAP3 SWAP2 POP POP JUMP JUMPDEST PUSH1 0x0 PUSH1 0xC0 DUP3 ADD SWAP1 POP PUSH2 0x3684 PUSH1 0x0 DUP4 ADD DUP10 PUSH2 0x3220 JUMP JUMPDEST PUSH2 0x3691 PUSH1 0x20 DUP4 ADD DUP9 PUSH2 0x3220 JUMP JUMPDEST PUSH2 0x369E PUSH1 0x40 DUP4 ADD DUP8 PUSH2 0x3220 JUMP JUMPDEST PUSH2 0x36AB PUSH1 0x60 DUP4 ADD DUP7 PUSH2 0x3220 JUMP JUMPDEST PUSH2 0x36B8 PUSH1 0x80 DUP4 ADD DUP6 PUSH2 0x3220 JUMP JUMPDEST PUSH2 0x36C5 PUSH1 0xA0 DUP4 ADD DUP5 PUSH2 0x3220 JUMP JUMPDEST SWAP8 SWAP7 POP POP POP POP POP POP POP JUMP JUMPDEST PUSH1 0x0 PUSH1 0x20 DUP3 DUP5 SUB SLT ISZERO PUSH2 0x36E6 JUMPI PUSH2 0x36E5 PUSH2 0x3254 JUMP JUMPDEST JUMPDEST PUSH1 0x0 PUSH2 0x36F4 DUP5 DUP3 DUP6 ADD PUSH2 0x3527 JUMP JUMPDEST SWAP2 POP POP SWAP3 SWAP2 POP POP JUMP JUMPDEST PUSH1 0x0 PUSH1 0x80 DUP3 ADD SWAP1 POP PUSH2 0x3712 PUSH1 0x0 DUP4 ADD DUP8 PUSH2 0x34E6 JUMP JUMPDEST PUSH2 0x371F PUSH1 0x20 DUP4 ADD DUP7 PUSH2 0x3220 JUMP JUMPDEST PUSH2 0x372C PUSH1 0x40 DUP4 ADD DUP6 PUSH2 0x3220 JUMP JUMPDEST PUSH2 0x3739 PUSH1 0x60 DUP4 ADD DUP5 PUSH2 0x3220 JUMP JUMPDEST SWAP6 SWAP5 POP POP POP POP POP JUMP JUMPDEST PUSH1 0x0 DUP1 REVERT JUMPDEST PUSH1 0x0 DUP1 REVERT JUMPDEST PUSH32 0x4E487B7100000000000000000000000000000000000000000000000000000000 PUSH1 0x0 MSTORE PUSH1 0x41 PUSH1 0x4 MSTORE PUSH1 0x24 PUSH1 0x0 REVERT JUMPDEST PUSH2 0x3784 DUP3 PUSH2 0x33EF JUMP JUMPDEST DUP2 ADD DUP2 DUP2 LT PUSH8 0xFFFFFFFFFFFFFFFF DUP3 GT OR ISZERO PUSH2 0x37A3 JUMPI PUSH2 0x37A2 PUSH2 0x374C JUMP JUMPDEST JUMPDEST DUP1 PUSH1 0x40 MSTORE POP POP POP JUMP JUMPDEST PUSH1 0x0 PUSH2 0x37B6 PUSH2 0x324A JUMP JUMPDEST SWAP1 POP PUSH2 0x37C2 DUP3 DUP3 PUSH2 0x377B JUMP JUMPDEST SWAP2 SWAP1 POP JUMP JUMPDEST PUSH1 0x0 PUSH8 0xFFFFFFFFFFFFFFFF DUP3 GT ISZERO PUSH2 0x37E2 JUMPI PUSH2 0x37E1 PUSH2 0x374C JUMP JUMPDEST JUMPDEST PUSH2 0x37EB DUP3 PUSH2 0x33EF JUMP JUMPDEST SWAP1 POP PUSH1 0x20 DUP2 ADD SWAP1 POP SWAP2 SWAP1 POP JUMP JUMPDEST DUP3 DUP2 DUP4 CALLDATACOPY PUSH1 0x0 DUP4 DUP4 ADD MSTORE POP POP POP JUMP JUMPDEST PUSH1 0x0 PUSH2 0x381A PUSH2 0x3815 DUP5 PUSH2 0x37C7 JUMP JUMPDEST PUSH2 0x37AC JUMP JUMPDEST SWAP1 POP DUP3 DUP2 MSTORE PUSH1 0x20 DUP2 ADD DUP5 DUP5 DUP5 ADD GT ISZERO PUSH2 0x3836 JUMPI PUSH2 0x3835 PUSH2 0x3747 JUMP JUMPDEST JUMPDEST PUSH2 0x3841 DUP5 DUP3 DUP6 PUSH2 0x37F8 JUMP JUMPDEST POP SWAP4 SWAP3 POP POP POP JUMP JUMPDEST PUSH1 0x0 DUP3 PUSH1 0x1F DUP4 ADD SLT PUSH2 0x385E JUMPI PUSH2 0x385D PUSH2 0x3742 JUMP JUMPDEST JUMPDEST DUP2 CALLDATALOAD PUSH2 0x386E DUP5 DUP3 PUSH1 0x20 DUP7 ADD PUSH2 0x3807 JUMP JUMPDEST SWAP2 POP POP SWAP3 SWAP2 POP POP JUMP JUMPDEST PUSH1 0x0 PUSH1 0x20 DUP3 DUP5 SUB SLT ISZERO PUSH2 0x388D JUMPI PUSH2 0x388C PUSH2 0x3254 JUMP JUMPDEST JUMPDEST PUSH1 0x0 DUP3 ADD CALLDATALOAD PUSH8 0xFFFFFFFFFFFFFFFF DUP2 GT ISZERO PUSH2 0x38AB JUMPI PUSH2 0x38AA PUSH2 0x3259 JUMP JUMPDEST JUMPDEST PUSH2 0x38B7 DUP5 DUP3 DUP6 ADD PUSH2 0x3849 JUMP JUMPDEST SWAP2 POP POP SWAP3 SWAP2 POP POP JUMP JUMPDEST PUSH2 0x38C9 DUP2 PUSH2 0x32E3 JUMP JUMPDEST DUP2 EQ PUSH2 0x38D4 JUMPI PUSH1 0x0 DUP1 REVERT JUMPDEST POP JUMP JUMPDEST PUSH1 0x0 DUP2 CALLDATALOAD SWAP1 POP PUSH2 0x38E6 DUP2 PUSH2 0x38C0 JUMP JUMPDEST SWAP3 SWAP2 POP POP JUMP JUMPDEST PUSH1 0x0 DUP1 PUSH1 0x40 DUP4 DUP6 SUB SLT ISZERO PUSH2 0x3903 JUMPI PUSH2 0x3902 PUSH2 0x3254 JUMP JUMPDEST JUMPDEST PUSH1 0x0 PUSH2 0x3911 DUP6 DUP3 DUP7 ADD PUSH2 0x3527 JUMP JUMPDEST SWAP3 POP POP PUSH1 0x20 PUSH2 0x3922 DUP6 DUP3 DUP7 ADD PUSH2 0x38D7 JUMP JUMPDEST SWAP2 POP POP SWAP3 POP SWAP3 SWAP1 POP JUMP JUMPDEST PUSH1 0x0 DUP1 PUSH1 0x0 PUSH1 0x60 DUP5 DUP7 SUB SLT ISZERO PUSH2 0x3945 JUMPI PUSH2 0x3944 PUSH2 0x3254 JUMP JUMPDEST JUMPDEST PUSH1 0x0 DUP5 ADD CALLDATALOAD PUSH8 0xFFFFFFFFFFFFFFFF DUP2 GT ISZERO PUSH2 0x3963 JUMPI PUSH2 0x3962 PUSH2 0x3259 JUMP JUMPDEST JUMPDEST PUSH2 0x396F DUP7 DUP3 DUP8 ADD PUSH2 0x3849 JUMP JUMPDEST SWAP4 POP POP PUSH1 0x20 DUP5 ADD CALLDATALOAD PUSH8 0xFFFFFFFFFFFFFFFF DUP2 GT ISZERO PUSH2 0x3990 JUMPI PUSH2 0x398F PUSH2 0x3259 JUMP JUMPDEST JUMPDEST PUSH2 0x399C DUP7 DUP3 DUP8 ADD PUSH2 0x3849 JUMP JUMPDEST SWAP3 POP POP PUSH1 0x40 DUP5 ADD CALLDATALOAD PUSH8 0xFFFFFFFFFFFFFFFF DUP2 GT ISZERO PUSH2 0x39BD JUMPI PUSH2 0x39BC PUSH2 0x3259 JUMP JUMPDEST JUMPDEST PUSH2 0x39C9 DUP7 DUP3 DUP8 ADD PUSH2 0x3849 JUMP JUMPDEST SWAP2 POP POP SWAP3 POP SWAP3 POP SWAP3 JUMP JUMPDEST PUSH1 0x0 DUP1 PUSH1 0x40 DUP4 DUP6 SUB SLT ISZERO PUSH2 0x39EA JUMPI PUSH2 0x39E9 PUSH2 0x3254 JUMP JUMPDEST JUMPDEST PUSH1 0x0 PUSH2 0x39F8 DUP6 DUP3 DUP7 ADD PUSH2 0x3330 JUMP JUMPDEST SWAP3 POP POP PUSH1 0x20 PUSH2 0x3A09 DUP6 DUP3 DUP7 ADD PUSH2 0x3330 JUMP JUMPDEST SWAP2 POP POP SWAP3 POP SWAP3 SWAP1 POP JUMP JUMPDEST PUSH1 0x0 PUSH8 0xFFFFFFFFFFFFFFFF DUP3 GT ISZERO PUSH2 0x3A2E JUMPI PUSH2 0x3A2D PUSH2 0x374C JUMP JUMPDEST JUMPDEST PUSH2 0x3A37 DUP3 PUSH2 0x33EF JUMP JUMPDEST SWAP1 POP PUSH1 0x20 DUP2 ADD SWAP1 POP SWAP2 SWAP1 POP JUMP JUMPDEST PUSH1 0x0 PUSH2 0x3A57 PUSH2 0x3A52 DUP5 PUSH2 0x3A13 JUMP JUMPDEST PUSH2 0x37AC JUMP JUMPDEST SWAP1 POP DUP3 DUP2 MSTORE PUSH1 0x20 DUP2 ADD DUP5 DUP5 DUP5 ADD GT ISZERO PUSH2 0x3A73 JUMPI PUSH2 0x3A72 PUSH2 0x3747 JUMP JUMPDEST JUMPDEST PUSH2 0x3A7E DUP5 DUP3 DUP6 PUSH2 0x37F8 JUMP JUMPDEST POP SWAP4 SWAP3 POP POP POP JUMP JUMPDEST PUSH1 0x0 DUP3 PUSH1 0x1F DUP4 ADD SLT PUSH2 0x3A9B JUMPI PUSH2 0x3A9A PUSH2 0x3742 JUMP JUMPDEST JUMPDEST DUP2 CALLDATALOAD PUSH2 0x3AAB DUP5 DUP3 PUSH1 0x20 DUP7 ADD PUSH2 0x3A44 JUMP JUMPDEST SWAP2 POP POP SWAP3 SWAP2 POP POP JUMP JUMPDEST PUSH1 0x0 DUP1 PUSH1 0x0 DUP1 PUSH1 0x80 DUP6 DUP8 SUB SLT ISZERO PUSH2 0x3ACE JUMPI PUSH2 0x3ACD PUSH2 0x3254 JUMP JUMPDEST JUMPDEST PUSH1 0x0 PUSH2 0x3ADC DUP8 DUP3 DUP9 ADD PUSH2 0x3527 JUMP JUMPDEST SWAP5 POP POP PUSH1 0x20 PUSH2 0x3AED DUP8 DUP3 DUP9 ADD PUSH2 0x3527 JUMP JUMPDEST SWAP4 POP POP PUSH1 0x40 PUSH2 0x3AFE DUP8 DUP3 DUP9 ADD PUSH2 0x3330 JUMP JUMPDEST SWAP3 POP POP PUSH1 0x60 DUP6 ADD CALLDATALOAD PUSH8 0xFFFFFFFFFFFFFFFF DUP2 GT ISZERO PUSH2 0x3B1F JUMPI PUSH2 0x3B1E PUSH2 0x3259 JUMP JUMPDEST JUMPDEST PUSH2 0x3B2B DUP8 DUP3 DUP9 ADD PUSH2 0x3A86 JUMP JUMPDEST SWAP2 POP POP SWAP3 SWAP6 SWAP2 SWAP5 POP SWAP3 POP JUMP JUMPDEST PUSH1 0x0 DUP1 PUSH1 0x40 DUP4 DUP6 SUB SLT ISZERO PUSH2 0x3B4E JUMPI PUSH2 0x3B4D PUSH2 0x3254 JUMP JUMPDEST JUMPDEST PUSH1 0x0 PUSH2 0x3B5C DUP6 DUP3 DUP7 ADD PUSH2 0x3527 JUMP JUMPDEST SWAP3 POP POP PUSH1 0x20 PUSH2 0x3B6D DUP6 DUP3 DUP7 ADD PUSH2 0x3527 JUMP JUMPDEST SWAP2 POP POP SWAP3 POP SWAP3 SWAP1 POP JUMP JUMPDEST PUSH32 0x4E487B7100000000000000000000000000000000000000000000000000000000 PUSH1 0x0 MSTORE PUSH1 0x22 PUSH1 0x4 MSTORE PUSH1 0x24 PUSH1 0x0 REVERT JUMPDEST PUSH1 0x0 PUSH1 0x2 DUP3 DIV SWAP1 POP PUSH1 0x1 DUP3 AND DUP1 PUSH2 0x3BBE JUMPI PUSH1 0x7F DUP3 AND SWAP2 POP JUMPDEST PUSH1 0x20 DUP3 LT DUP2 SUB PUSH2 0x3BD1 JUMPI PUSH2 0x3BD0 PUSH2 0x3B77 JUMP JUMPDEST JUMPDEST POP SWAP2 SWAP1 POP JUMP JUMPDEST PUSH32 0x4E487B7100000000000000000000000000000000000000000000000000000000 PUSH1 0x0 MSTORE PUSH1 0x11 PUSH1 0x4 MSTORE PUSH1 0x24 PUSH1 0x0 REVERT JUMPDEST PUSH1 0x0 PUSH2 0x3C11 DUP3 PUSH2 0x3216 JUMP JUMPDEST SWAP2 POP PUSH2 0x3C1C DUP4 PUSH2 0x3216 JUMP JUMPDEST SWAP3 POP DUP3 DUP3 MUL PUSH2 0x3C2A DUP2 PUSH2 0x3216 JUMP JUMPDEST SWAP2 POP DUP3 DUP3 DIV DUP5 EQ DUP4 ISZERO OR PUSH2 0x3C41 JUMPI PUSH2 0x3C40 PUSH2 0x3BD7 JUMP JUMPDEST JUMPDEST POP SWAP3 SWAP2 POP POP JUMP JUMPDEST PUSH1 0x0 PUSH2 0x3C53 DUP3 PUSH2 0x3372 JUMP JUMPDEST SWAP2 POP PUSH2 0x3C5E DUP4 PUSH2 0x3372 JUMP JUMPDEST SWAP3 POP DUP3 DUP3 ADD SWAP1 POP PUSH1 0xFF DUP2 GT ISZERO PUSH2 0x3C77 JUMPI PUSH2 0x3C76 PUSH2 0x3BD7 JUMP JUMPDEST JUMPDEST SWAP3 SWAP2 POP POP JUMP JUMPDEST PUSH32 0x4552433732313A20617070726F76616C20746F2063757272656E74206F776E65 PUSH1 0x0 DUP3 ADD MSTORE PUSH32 0x7200000000000000000000000000000000000000000000000000000000000000 PUSH1 0x20 DUP3 ADD MSTORE POP JUMP JUMPDEST PUSH1 0x0 PUSH2 0x3CD9 PUSH1 0x21 DUP4 PUSH2 0x33B4 JUMP JUMPDEST SWAP2 POP PUSH2 0x3CE4 DUP3 PUSH2 0x3C7D JUMP JUMPDEST PUSH1 0x40 DUP3 ADD SWAP1 POP SWAP2 SWAP1 POP JUMP JUMPDEST PUSH1 0x0 PUSH1 0x20 DUP3 ADD SWAP1 POP DUP2 DUP2 SUB PUSH1 0x0 DUP4 ADD MSTORE PUSH2 0x3D08 DUP2 PUSH2 0x3CCC JUMP JUMPDEST SWAP1 POP SWAP2 SWAP1 POP JUMP JUMPDEST PUSH32 0x4552433732313A20617070726F76652063616C6C6572206973206E6F7420746F PUSH1 0x0 DUP3 ADD MSTORE PUSH32 0x6B656E206F776E6572206F7220617070726F76656420666F7220616C6C000000 PUSH1 0x20 DUP3 ADD MSTORE POP JUMP JUMPDEST PUSH1 0x0 PUSH2 0x3D6B PUSH1 0x3D DUP4 PUSH2 0x33B4 JUMP JUMPDEST SWAP2 POP PUSH2 0x3D76 DUP3 PUSH2 0x3D0F JUMP JUMPDEST PUSH1 0x40 DUP3 ADD SWAP1 POP SWAP2 SWAP1 POP JUMP JUMPDEST PUSH1 0x0 PUSH1 0x20 DUP3 ADD SWAP1 POP DUP2 DUP2 SUB PUSH1 0x0 DUP4 ADD MSTORE PUSH2 0x3D9A DUP2 PUSH2 0x3D5E JUMP JUMPDEST SWAP1 POP SWAP2 SWAP1 POP JUMP JUMPDEST PUSH1 0x0 PUSH2 0x3DAC DUP3 PUSH2 0x3216 JUMP JUMPDEST SWAP2 POP PUSH32 0xFFFFFFFFFFFFFFFFFFFFFFFFFFFFFFFFFFFFFFFFFFFFFFFFFFFFFFFFFFFFFFFF DUP3 SUB PUSH2 0x3DDE JUMPI PUSH2 0x3DDD PUSH2 0x3BD7 JUMP JUMPDEST JUMPDEST PUSH1 0x1 DUP3 ADD SWAP1 POP SWAP2 SWAP1 POP JUMP JUMPDEST PUSH32 0x4E6F6E636520696E636F72726563740000000000000000000000000000000000 PUSH1 0x0 DUP3 ADD MSTORE POP JUMP JUMPDEST PUSH1 0x0 PUSH2 0x3E1F PUSH1 0xF DUP4 PUSH2 0x33B4 JUMP JUMPDEST SWAP2 POP PUSH2 0x3E2A DUP3 PUSH2 0x3DE9 JUMP JUMPDEST PUSH1 0x20 DUP3 ADD SWAP1 POP SWAP2 SWAP1 POP JUMP JUMPDEST PUSH1 0x0 PUSH1 0x20 DUP3 ADD SWAP1 POP DUP2 DUP2 SUB PUSH1 0x0 DUP4 ADD MSTORE PUSH2 0x3E4E DUP2 PUSH2 0x3E12 JUMP JUMPDEST SWAP1 POP SWAP2 SWAP1 POP JUMP JUMPDEST PUSH32 0x536F6C7574696F6E206578697374000000000000000000000000000000000000 PUSH1 0x0 DUP3 ADD MSTORE POP JUMP JUMPDEST PUSH1 0x0 PUSH2 0x3E8B PUSH1 0xE DUP4 PUSH2 0x33B4 JUMP JUMPDEST SWAP2 POP PUSH2 0x3E96 DUP3 PUSH2 0x3E55 JUMP JUMPDEST PUSH1 0x20 DUP3 ADD SWAP1 POP SWAP2 SWAP1 POP JUMP JUMPDEST PUSH1 0x0 PUSH1 0x20 DUP3 ADD SWAP1 POP DUP2 DUP2 SUB PUSH1 0x0 DUP4 ADD MSTORE PUSH2 0x3EBA DUP2 PUSH2 0x3E7E JUMP JUMPDEST SWAP1 POP SWAP2 SWAP1 POP JUMP JUMPDEST PUSH32 0x4E487B7100000000000000000000000000000000000000000000000000000000 PUSH1 0x0 MSTORE PUSH1 0x32 PUSH1 0x4 MSTORE PUSH1 0x24 PUSH1 0x0 REVERT JUMPDEST PUSH32 0x4E487B7100000000000000000000000000000000000000000000000000000000 PUSH1 0x0 MSTORE PUSH1 0x12 PUSH1 0x4 MSTORE PUSH1 0x24 PUSH1 0x0 REVERT JUMPDEST PUSH1 0x0 PUSH2 0x3F2A DUP3 PUSH2 0x3216 JUMP JUMPDEST SWAP2 POP PUSH2 0x3F35 DUP4 PUSH2 0x3216 JUMP JUMPDEST SWAP3 POP DUP3 PUSH2 0x3F45 JUMPI PUSH2 0x3F44 PUSH2 0x3EF0 JUMP JUMPDEST JUMPDEST DUP3 DUP3 DIV SWAP1 POP SWAP3 SWAP2 POP POP JUMP JUMPDEST PUSH1 0x0 PUSH2 0x3F5B DUP3 PUSH2 0x3216 JUMP JUMPDEST SWAP2 POP PUSH2 0x3F66 DUP4 PUSH2 0x3216 JUMP JUMPDEST SWAP3 POP DUP3 DUP3 ADD SWAP1 POP DUP1 DUP3 GT ISZERO PUSH2 0x3F7E JUMPI PUSH2 0x3F7D PUSH2 0x3BD7 JUMP JUMPDEST JUMPDEST SWAP3 SWAP2 POP POP JUMP JUMPDEST PUSH32 0x4552433732313A2063616C6C6572206973206E6F7420746F6B656E206F776E65 PUSH1 0x0 DUP3 ADD MSTORE PUSH32 0x72206F7220617070726F76656400000000000000000000000000000000000000 PUSH1 0x20 DUP3 ADD MSTORE POP JUMP JUMPDEST PUSH1 0x0 PUSH2 0x3FE0 PUSH1 0x2D DUP4 PUSH2 0x33B4 JUMP JUMPDEST SWAP2 POP PUSH2 0x3FEB DUP3 PUSH2 0x3F84 JUMP JUMPDEST PUSH1 0x40 DUP3 ADD SWAP1 POP SWAP2 SWAP1 POP JUMP JUMPDEST PUSH1 0x0 PUSH1 0x20 DUP3 ADD SWAP1 POP DUP2 DUP2 SUB PUSH1 0x0 DUP4 ADD MSTORE PUSH2 0x400F DUP2 PUSH2 0x3FD3 JUMP JUMPDEST SWAP1 POP SWAP2 SWAP1 POP JUMP JUMPDEST PUSH32 0x4F6E6C79206F776E657220697320616C6C6F77656420746F20706572666F726D PUSH1 0x0 DUP3 ADD MSTORE PUSH32 0x207468697320616374696F6E0000000000000000000000000000000000000000 PUSH1 0x20 DUP3 ADD MSTORE POP JUMP JUMPDEST PUSH1 0x0 PUSH2 0x4072 PUSH1 0x2C DUP4 PUSH2 0x33B4 JUMP JUMPDEST SWAP2 POP PUSH2 0x407D DUP3 PUSH2 0x4016 JUMP JUMPDEST PUSH1 0x40 DUP3 ADD SWAP1 POP SWAP2 SWAP1 POP JUMP JUMPDEST PUSH1 0x0 PUSH1 0x20 DUP3 ADD SWAP1 POP DUP2 DUP2 SUB PUSH1 0x0 DUP4 ADD MSTORE PUSH2 0x40A1 DUP2 PUSH2 0x4065 JUMP JUMPDEST SWAP1 POP SWAP2 SWAP1 POP JUMP JUMPDEST PUSH1 0x0 DUP2 PUSH1 0x1 SHR SWAP1 POP SWAP2 SWAP1 POP JUMP JUMPDEST PUSH1 0x0 DUP1 DUP3 SWAP2 POP DUP4 SWAP1 POP JUMPDEST PUSH1 0x1 DUP6 GT ISZERO PUSH2 0x40FF JUMPI DUP1 DUP7 DIV DUP2 GT ISZERO PUSH2 0x40DB JUMPI PUSH2 0x40DA PUSH2 0x3BD7 JUMP JUMPDEST JUMPDEST PUSH1 0x1 DUP6 AND ISZERO PUSH2 0x40EA JUMPI DUP1 DUP3 MUL SWAP2 POP JUMPDEST DUP1 DUP2 MUL SWAP1 POP PUSH2 0x40F8 DUP6 PUSH2 0x40A8 JUMP JUMPDEST SWAP5 POP PUSH2 0x40BF JUMP JUMPDEST SWAP5 POP SWAP5 SWAP3 POP POP POP JUMP JUMPDEST PUSH1 0x0 DUP3 PUSH2 0x4118 JUMPI PUSH1 0x1 SWAP1 POP PUSH2 0x41D4 JUMP JUMPDEST DUP2 PUSH2 0x4126 JUMPI PUSH1 0x0 SWAP1 POP PUSH2 0x41D4 JUMP JUMPDEST DUP2 PUSH1 0x1 DUP2 EQ PUSH2 0x413C JUMPI PUSH1 0x2 DUP2 EQ PUSH2 0x4146 JUMPI PUSH2 0x4175 JUMP JUMPDEST PUSH1 0x1 SWAP2 POP POP PUSH2 0x41D4 JUMP JUMPDEST PUSH1 0xFF DUP5 GT ISZERO PUSH2 0x4158 JUMPI PUSH2 0x4157 PUSH2 0x3BD7 JUMP JUMPDEST JUMPDEST DUP4 PUSH1 0x2 EXP SWAP2 POP DUP5 DUP3 GT ISZERO PUSH2 0x416F JUMPI PUSH2 0x416E PUSH2 0x3BD7 JUMP JUMPDEST JUMPDEST POP PUSH2 0x41D4 JUMP JUMPDEST POP PUSH1 0x20 DUP4 LT PUSH2 0x133 DUP4 LT AND PUSH1 0x4E DUP5 LT PUSH1 0xB DUP5 LT AND OR ISZERO PUSH2 0x41AA JUMPI DUP3 DUP3 EXP SWAP1 POP DUP4 DUP2 GT ISZERO PUSH2 0x41A5 JUMPI PUSH2 0x41A4 PUSH2 0x3BD7 JUMP JUMPDEST JUMPDEST PUSH2 0x41D4 JUMP JUMPDEST PUSH2 0x41B7 DUP5 DUP5 DUP5 PUSH1 0x1 PUSH2 0x40B5 JUMP JUMPDEST SWAP3 POP SWAP1 POP DUP2 DUP5 DIV DUP2 GT ISZERO PUSH2 0x41CE JUMPI PUSH2 0x41CD PUSH2 0x3BD7 JUMP JUMPDEST JUMPDEST DUP2 DUP2 MUL SWAP1 POP JUMPDEST SWAP4 SWAP3 POP POP POP JUMP JUMPDEST PUSH1 0x0 PUSH2 0x41E6 DUP3 PUSH2 0x3216 JUMP JUMPDEST SWAP2 POP PUSH2 0x41F1 DUP4 PUSH2 0x3216 JUMP JUMPDEST SWAP3 POP PUSH2 0x421E PUSH32 0xFFFFFFFFFFFFFFFFFFFFFFFFFFFFFFFFFFFFFFFFFFFFFFFFFFFFFFFFFFFFFFFF DUP5 DUP5 PUSH2 0x4108 JUMP JUMPDEST SWAP1 POP SWAP3 SWAP2 POP POP JUMP JUMPDEST PUSH32 0x4552433732313A20696E76616C696420746F6B656E2049440000000000000000 PUSH1 0x0 DUP3 ADD MSTORE POP JUMP JUMPDEST PUSH1 0x0 PUSH2 0x425C PUSH1 0x18 DUP4 PUSH2 0x33B4 JUMP JUMPDEST SWAP2 POP PUSH2 0x4267 DUP3 PUSH2 0x4226 JUMP JUMPDEST PUSH1 0x20 DUP3 ADD SWAP1 POP SWAP2 SWAP1 POP JUMP JUMPDEST PUSH1 0x0 PUSH1 0x20 DUP3 ADD SWAP1 POP DUP2 DUP2 SUB PUSH1 0x0 DUP4 ADD MSTORE PUSH2 0x428B DUP2 PUSH2 0x424F JUMP JUMPDEST SWAP1 POP SWAP2 SWAP1 POP JUMP JUMPDEST PUSH32 0x4552433732313A2061646472657373207A65726F206973206E6F742061207661 PUSH1 0x0 DUP3 ADD MSTORE PUSH32 0x6C6964206F776E65720000000000000000000000000000000000000000000000 PUSH1 0x20 DUP3 ADD MSTORE POP JUMP JUMPDEST PUSH1 0x0 PUSH2 0x42EE PUSH1 0x29 DUP4 PUSH2 0x33B4 JUMP JUMPDEST SWAP2 POP PUSH2 0x42F9 DUP3 PUSH2 0x4292 JUMP JUMPDEST PUSH1 0x40 DUP3 ADD SWAP1 POP SWAP2 SWAP1 POP JUMP JUMPDEST PUSH1 0x0 PUSH1 0x20 DUP3 ADD SWAP1 POP DUP2 DUP2 SUB PUSH1 0x0 DUP4 ADD MSTORE PUSH2 0x431D DUP2 PUSH2 0x42E1 JUMP JUMPDEST SWAP1 POP SWAP2 SWAP1 POP JUMP JUMPDEST PUSH1 0x0 DUP2 SWAP1 POP DUP2 PUSH1 0x0 MSTORE PUSH1 0x20 PUSH1 0x0 KECCAK256 SWAP1 POP SWAP2 SWAP1 POP JUMP JUMPDEST PUSH1 0x0 PUSH1 0x20 PUSH1 0x1F DUP4 ADD DIV SWAP1 POP SWAP2 SWAP1 POP JUMP JUMPDEST PUSH1 0x0 DUP3 DUP3 SHL SWAP1 POP SWAP3 SWAP2 POP POP JUMP JUMPDEST PUSH1 0x0 PUSH1 0x8 DUP4 MUL PUSH2 0x4386 PUSH32 0xFFFFFFFFFFFFFFFFFFFFFFFFFFFFFFFFFFFFFFFFFFFFFFFFFFFFFFFFFFFFFFFF DUP3 PUSH2 0x4349 JUMP JUMPDEST PUSH2 0x4390 DUP7 DUP4 PUSH2 0x4349 JUMP JUMPDEST SWAP6 POP DUP1 NOT DUP5 AND SWAP4 POP DUP1 DUP7 AND DUP5 OR SWAP3 POP POP POP SWAP4 SWAP3 POP POP POP JUMP JUMPDEST PUSH1 0x0 DUP2 SWAP1 POP SWAP2 SWAP1 POP JUMP JUMPDEST PUSH1 0x0 PUSH2 0x43CD PUSH2 0x43C8 PUSH2 0x43C3 DUP5 PUSH2 0x3216 JUMP JUMPDEST PUSH2 0x43A8 JUMP JUMPDEST PUSH2 0x3216 JUMP JUMPDEST SWAP1 POP SWAP2 SWAP1 POP JUMP JUMPDEST PUSH1 0x0 DUP2 SWAP1 POP SWAP2 SWAP1 POP JUMP JUMPDEST PUSH2 0x43E7 DUP4 PUSH2 0x43B2 JUMP JUMPDEST PUSH2 0x43FB PUSH2 0x43F3 DUP3 PUSH2 0x43D4 JUMP JUMPDEST DUP5 DUP5 SLOAD PUSH2 0x4356 JUMP JUMPDEST DUP3 SSTORE POP POP POP POP JUMP JUMPDEST PUSH1 0x0 SWAP1 JUMP JUMPDEST PUSH2 0x4410 PUSH2 0x4403 JUMP JUMPDEST PUSH2 0x441B DUP2 DUP5 DUP5 PUSH2 0x43DE JUMP JUMPDEST POP POP POP JUMP JUMPDEST JUMPDEST DUP2 DUP2 LT ISZERO PUSH2 0x443F JUMPI PUSH2 0x4434 PUSH1 0x0 DUP3 PUSH2 0x4408 JUMP JUMPDEST PUSH1 0x1 DUP2 ADD SWAP1 POP PUSH2 0x4421 JUMP JUMPDEST POP POP JUMP JUMPDEST PUSH1 0x1F DUP3 GT ISZERO PUSH2 0x4484 JUMPI PUSH2 0x4455 DUP2 PUSH2 0x4324 JUMP JUMPDEST PUSH2 0x445E DUP5 PUSH2 0x4339 JUMP JUMPDEST DUP2 ADD PUSH1 0x20 DUP6 LT ISZERO PUSH2 0x446D JUMPI DUP2 SWAP1 POP JUMPDEST PUSH2 0x4481 PUSH2 0x4479 DUP6 PUSH2 0x4339 JUMP JUMPDEST DUP4 ADD DUP3 PUSH2 0x4420 JUMP JUMPDEST POP POP JUMPDEST POP POP POP JUMP JUMPDEST PUSH1 0x0 DUP3 DUP3 SHR SWAP1 POP SWAP3 SWAP2 POP POP JUMP JUMPDEST PUSH1 0x0 PUSH2 0x44A7 PUSH1 0x0 NOT DUP5 PUSH1 0x8 MUL PUSH2 0x4489 JUMP JUMPDEST NOT DUP1 DUP4 AND SWAP2 POP POP SWAP3 SWAP2 POP POP JUMP JUMPDEST PUSH1 0x0 PUSH2 0x44C0 DUP4 DUP4 PUSH2 0x4496 JUMP JUMPDEST SWAP2 POP DUP3 PUSH1 0x2 MUL DUP3 OR SWAP1 POP SWAP3 SWAP2 POP POP JUMP JUMPDEST PUSH2 0x44D9 DUP3 PUSH2 0x33A9 JUMP JUMPDEST PUSH8 0xFFFFFFFFFFFFFFFF DUP2 GT ISZERO PUSH2 0x44F2 JUMPI PUSH2 0x44F1 PUSH2 0x374C JUMP JUMPDEST JUMPDEST PUSH2 0x44FC DUP3 SLOAD PUSH2 0x3BA6 JUMP JUMPDEST PUSH2 0x4507 DUP3 DUP3 DUP6 PUSH2 0x4443 JUMP JUMPDEST PUSH1 0x0 PUSH1 0x20 SWAP1 POP PUSH1 0x1F DUP4 GT PUSH1 0x1 DUP2 EQ PUSH2 0x453A JUMPI PUSH1 0x0 DUP5 ISZERO PUSH2 0x4528 JUMPI DUP3 DUP8 ADD MLOAD SWAP1 POP JUMPDEST PUSH2 0x4532 DUP6 DUP3 PUSH2 0x44B4 JUMP JUMPDEST DUP7 SSTORE POP PUSH2 0x459A JUMP JUMPDEST PUSH1 0x1F NOT DUP5 AND PUSH2 0x4548 DUP7 PUSH2 0x4324 JUMP JUMPDEST PUSH1 0x0 JUMPDEST DUP3 DUP2 LT ISZERO PUSH2 0x4570 JUMPI DUP5 DUP10 ADD MLOAD DUP3 SSTORE PUSH1 0x1 DUP3 ADD SWAP2 POP PUSH1 0x20 DUP6 ADD SWAP5 POP PUSH1 0x20 DUP2 ADD SWAP1 POP PUSH2 0x454B JUMP JUMPDEST DUP7 DUP4 LT ISZERO PUSH2 0x458D JUMPI DUP5 DUP10 ADD MLOAD PUSH2 0x4589 PUSH1 0x1F DUP10 AND DUP3 PUSH2 0x4496 JUMP JUMPDEST DUP4 SSTORE POP JUMPDEST PUSH1 0x1 PUSH1 0x2 DUP9 MUL ADD DUP9 SSTORE POP POP POP JUMPDEST POP POP POP POP POP POP JUMP JUMPDEST PUSH32 0x496E697469616C697A61626C653A20636F6E747261637420697320616C726561 PUSH1 0x0 DUP3 ADD MSTORE PUSH32 0x647920696E697469616C697A6564000000000000000000000000000000000000 PUSH1 0x20 DUP3 ADD MSTORE POP JUMP JUMPDEST PUSH1 0x0 PUSH2 0x45FE PUSH1 0x2E DUP4 PUSH2 0x33B4 JUMP JUMPDEST SWAP2 POP PUSH2 0x4609 DUP3 PUSH2 0x45A2 JUMP JUMPDEST PUSH1 0x40 DUP3 ADD SWAP1 POP SWAP2 SWAP1 POP JUMP JUMPDEST PUSH1 0x0 PUSH1 0x20 DUP3 ADD SWAP1 POP DUP2 DUP2 SUB PUSH1 0x0 DUP4 ADD MSTORE PUSH2 0x462D DUP2 PUSH2 0x45F1 JUMP JUMPDEST SWAP1 POP SWAP2 SWAP1 POP JUMP JUMPDEST PUSH1 0x0 PUSH2 0x463F DUP3 PUSH2 0x3216 JUMP JUMPDEST SWAP2 POP PUSH2 0x464A DUP4 PUSH2 0x3216 JUMP JUMPDEST SWAP3 POP DUP3 DUP3 SUB SWAP1 POP DUP2 DUP2 GT ISZERO PUSH2 0x4662 JUMPI PUSH2 0x4661 PUSH2 0x3BD7 JUMP JUMPDEST JUMPDEST SWAP3 SWAP2 POP POP JUMP JUMPDEST PUSH1 0x0 DUP2 SWAP1 POP SWAP2 SWAP1 POP JUMP JUMPDEST PUSH1 0x0 PUSH2 0x468D PUSH2 0x4688 PUSH2 0x4683 DUP5 PUSH2 0x4668 JUMP JUMPDEST PUSH2 0x43A8 JUMP JUMPDEST PUSH2 0x3372 JUMP JUMPDEST SWAP1 POP SWAP2 SWAP1 POP JUMP JUMPDEST PUSH2 0x469D DUP2 PUSH2 0x4672 JUMP JUMPDEST DUP3 MSTORE POP POP JUMP JUMPDEST PUSH1 0x0 PUSH1 0x20 DUP3 ADD SWAP1 POP PUSH2 0x46B8 PUSH1 0x0 DUP4 ADD DUP5 PUSH2 0x4694 JUMP JUMPDEST SWAP3 SWAP2 POP POP JUMP JUMPDEST PUSH1 0x0 PUSH2 0x46C9 DUP3 PUSH2 0x3216 JUMP JUMPDEST SWAP2 POP PUSH2 0x46D4 DUP4 PUSH2 0x3372 JUMP JUMPDEST SWAP3 POP PUSH2 0x4701 PUSH32 0xFFFFFFFFFFFFFFFFFFFFFFFFFFFFFFFFFFFFFFFFFFFFFFFFFFFFFFFFFFFFFFFF DUP5 DUP5 PUSH2 0x4108 JUMP JUMPDEST SWAP1 POP SWAP3 SWAP2 POP POP JUMP JUMPDEST PUSH1 0x0 DUP2 SWAP1 POP SWAP3 SWAP2 POP POP JUMP JUMPDEST PUSH1 0x0 DUP2 SLOAD PUSH2 0x4721 DUP2 PUSH2 0x3BA6 JUMP JUMPDEST PUSH2 0x472B DUP2 DUP7 PUSH2 0x4709 JUMP JUMPDEST SWAP5 POP PUSH1 0x1 DUP3 AND PUSH1 0x0 DUP2 EQ PUSH2 0x4746 JUMPI PUSH1 0x1 DUP2 EQ PUSH2 0x475B JUMPI PUSH2 0x478E JUMP JUMPDEST PUSH1 0xFF NOT DUP4 AND DUP7 MSTORE DUP2 ISZERO ISZERO DUP3 MUL DUP7 ADD SWAP4 POP PUSH2 0x478E JUMP JUMPDEST PUSH2 0x4764 DUP6 PUSH2 0x4324 JUMP JUMPDEST PUSH1 0x0 JUMPDEST DUP4 DUP2 LT ISZERO PUSH2 0x4786 JUMPI DUP2 SLOAD DUP2 DUP10 ADD MSTORE PUSH1 0x1 DUP3 ADD SWAP2 POP PUSH1 0x20 DUP2 ADD SWAP1 POP PUSH2 0x4767 JUMP JUMPDEST DUP4 DUP9 ADD SWAP6 POP POP POP JUMPDEST POP POP POP SWAP3 SWAP2 POP POP JUMP JUMPDEST PUSH1 0x0 PUSH2 0x47A2 DUP3 PUSH2 0x33A9 JUMP JUMPDEST PUSH2 0x47AC DUP2 DUP6 PUSH2 0x4709 JUMP JUMPDEST SWAP4 POP PUSH2 0x47BC DUP2 DUP6 PUSH1 0x20 DUP7 ADD PUSH2 0x33C5 JUMP JUMPDEST DUP1 DUP5 ADD SWAP2 POP POP SWAP3 SWAP2 POP POP JUMP JUMPDEST PUSH32 0x2E6A736F6E000000000000000000000000000000000000000000000000000000 PUSH1 0x0 DUP3 ADD MSTORE POP JUMP JUMPDEST PUSH1 0x0 PUSH2 0x47FE PUSH1 0x5 DUP4 PUSH2 0x4709 JUMP JUMPDEST SWAP2 POP PUSH2 0x4809 DUP3 PUSH2 0x47C8 JUMP JUMPDEST PUSH1 0x5 DUP3 ADD SWAP1 POP SWAP2 SWAP1 POP JUMP JUMPDEST PUSH1 0x0 PUSH2 0x4820 DUP3 DUP6 PUSH2 0x4714 JUMP JUMPDEST SWAP2 POP PUSH2 0x482C DUP3 DUP5 PUSH2 0x4797 JUMP JUMPDEST SWAP2 POP PUSH2 0x4837 DUP3 PUSH2 0x47F1 JUMP JUMPDEST SWAP2 POP DUP2 SWAP1 POP SWAP4 SWAP3 POP POP POP JUMP JUMPDEST PUSH1 0x0 DUP2 SWAP1 POP SWAP2 SWAP1 POP JUMP JUMPDEST PUSH2 0x485E PUSH2 0x4859 DUP3 PUSH2 0x357C JUMP JUMPDEST PUSH2 0x4843 JUMP JUMPDEST DUP3 MSTORE POP POP JUMP JUMPDEST PUSH1 0x0 DUP2 PUSH1 0x60 SHL SWAP1 POP SWAP2 SWAP1 POP JUMP JUMPDEST PUSH1 0x0 PUSH2 0x487C DUP3 PUSH2 0x4864 JUMP JUMPDEST SWAP1 POP SWAP2 SWAP1 POP JUMP JUMPDEST PUSH1 0x0 PUSH2 0x488E DUP3 PUSH2 0x4871 JUMP JUMPDEST SWAP1 POP SWAP2 SWAP1 POP JUMP JUMPDEST PUSH2 0x48A6 PUSH2 0x48A1 DUP3 PUSH2 0x34D4 JUMP JUMPDEST PUSH2 0x4883 JUMP JUMPDEST DUP3 MSTORE POP POP JUMP JUMPDEST PUSH1 0x0 DUP2 SWAP1 POP SWAP2 SWAP1 POP JUMP JUMPDEST PUSH2 0x48C7 PUSH2 0x48C2 DUP3 PUSH2 0x3216 JUMP JUMPDEST PUSH2 0x48AC JUMP JUMPDEST DUP3 MSTORE POP POP JUMP JUMPDEST PUSH1 0x0 PUSH2 0x48D9 DUP3 DUP7 PUSH2 0x484D JUMP JUMPDEST PUSH1 0x20 DUP3 ADD SWAP2 POP PUSH2 0x48E9 DUP3 DUP6 PUSH2 0x4895 JUMP JUMPDEST PUSH1 0x14 DUP3 ADD SWAP2 POP PUSH2 0x48F9 DUP3 DUP5 PUSH2 0x48B6 JUMP JUMPDEST PUSH1 0x20 DUP3 ADD SWAP2 POP DUP2 SWAP1 POP SWAP5 SWAP4 POP POP POP POP JUMP JUMPDEST PUSH32 0x44696765737420697320646966666572656E7400000000000000000000000000 PUSH1 0x0 DUP3 ADD MSTORE POP JUMP JUMPDEST PUSH1 0x0 PUSH2 0x4940 PUSH1 0x13 DUP4 PUSH2 0x33B4 JUMP JUMPDEST SWAP2 POP PUSH2 0x494B DUP3 PUSH2 0x490A JUMP JUMPDEST PUSH1 0x20 DUP3 ADD SWAP1 POP SWAP2 SWAP1 POP JUMP JUMPDEST PUSH1 0x0 PUSH1 0x20 DUP3 ADD SWAP1 POP DUP2 DUP2 SUB PUSH1 0x0 DUP4 ADD MSTORE PUSH2 0x496F DUP2 PUSH2 0x4933 JUMP JUMPDEST SWAP1 POP SWAP2 SWAP1 POP JUMP JUMPDEST PUSH32 0x4552433732313A207472616E736665722066726F6D20696E636F727265637420 PUSH1 0x0 DUP3 ADD MSTORE PUSH32 0x6F776E6572000000000000000000000000000000000000000000000000000000 PUSH1 0x20 DUP3 ADD MSTORE POP JUMP JUMPDEST PUSH1 0x0 PUSH2 0x49D2 PUSH1 0x25 DUP4 PUSH2 0x33B4 JUMP JUMPDEST SWAP2 POP PUSH2 0x49DD DUP3 PUSH2 0x4976 JUMP JUMPDEST PUSH1 0x40 DUP3 ADD SWAP1 POP SWAP2 SWAP1 POP JUMP JUMPDEST PUSH1 0x0 PUSH1 0x20 DUP3 ADD SWAP1 POP DUP2 DUP2 SUB PUSH1 0x0 DUP4 ADD MSTORE PUSH2 0x4A01 DUP2 PUSH2 0x49C5 JUMP JUMPDEST SWAP1 POP SWAP2 SWAP1 POP JUMP JUMPDEST PUSH32 0x4552433732313A207472616E7366657220746F20746865207A65726F20616464 PUSH1 0x0 DUP3 ADD MSTORE PUSH32 0x7265737300000000000000000000000000000000000000000000000000000000 PUSH1 0x20 DUP3 ADD MSTORE POP JUMP JUMPDEST PUSH1 0x0 PUSH2 0x4A64 PUSH1 0x24 DUP4 PUSH2 0x33B4 JUMP JUMPDEST SWAP2 POP PUSH2 0x4A6F DUP3 PUSH2 0x4A08 JUMP JUMPDEST PUSH1 0x40 DUP3 ADD SWAP1 POP SWAP2 SWAP1 POP JUMP JUMPDEST PUSH1 0x0 PUSH1 0x20 DUP3 ADD SWAP1 POP DUP2 DUP2 SUB PUSH1 0x0 DUP4 ADD MSTORE PUSH2 0x4A93 DUP2 PUSH2 0x4A57 JUMP JUMPDEST SWAP1 POP SWAP2 SWAP1 POP JUMP JUMPDEST PUSH32 0x4552433732313A20617070726F766520746F2063616C6C657200000000000000 PUSH1 0x0 DUP3 ADD MSTORE POP JUMP JUMPDEST PUSH1 0x0 PUSH2 0x4AD0 PUSH1 0x19 DUP4 PUSH2 0x33B4 JUMP JUMPDEST SWAP2 POP PUSH2 0x4ADB DUP3 PUSH2 0x4A9A JUMP JUMPDEST PUSH1 0x20 DUP3 ADD SWAP1 POP SWAP2 SWAP1 POP JUMP JUMPDEST PUSH1 0x0 PUSH1 0x20 DUP3 ADD SWAP1 POP DUP2 DUP2 SUB PUSH1 0x0 DUP4 ADD MSTORE PUSH2 0x4AFF DUP2 PUSH2 0x4AC3 JUMP JUMPDEST SWAP1 POP SWAP2 SWAP1 POP JUMP JUMPDEST PUSH32 0x496E697469616C697A61626C653A20636F6E7472616374206973206E6F742069 PUSH1 0x0 DUP3 ADD MSTORE PUSH32 0x6E697469616C697A696E67000000000000000000000000000000000000000000 PUSH1 0x20 DUP3 ADD MSTORE POP JUMP JUMPDEST PUSH1 0x0 PUSH2 0x4B62 PUSH1 0x2B DUP4 PUSH2 0x33B4 JUMP JUMPDEST SWAP2 POP PUSH2 0x4B6D DUP3 PUSH2 0x4B06 JUMP JUMPDEST PUSH1 0x40 DUP3 ADD SWAP1 POP SWAP2 SWAP1 POP JUMP JUMPDEST PUSH1 0x0 PUSH1 0x20 DUP3 ADD SWAP1 POP DUP2 DUP2 SUB PUSH1 0x0 DUP4 ADD MSTORE PUSH2 0x4B91 DUP2 PUSH2 0x4B55 JUMP JUMPDEST SWAP1 POP SWAP2 SWAP1 POP JUMP JUMPDEST PUSH32 0x4552433732313A207472616E7366657220746F206E6F6E204552433732315265 PUSH1 0x0 DUP3 ADD MSTORE PUSH32 0x63656976657220696D706C656D656E7465720000000000000000000000000000 PUSH1 0x20 DUP3 ADD MSTORE POP JUMP JUMPDEST PUSH1 0x0 PUSH2 0x4BF4 PUSH1 0x32 DUP4 PUSH2 0x33B4 JUMP JUMPDEST SWAP2 POP PUSH2 0x4BFF DUP3 PUSH2 0x4B98 JUMP JUMPDEST PUSH1 0x40 DUP3 ADD SWAP1 POP SWAP2 SWAP1 POP JUMP JUMPDEST PUSH1 0x0 PUSH1 0x20 DUP3 ADD SWAP1 POP DUP2 DUP2 SUB PUSH1 0x0 DUP4 ADD MSTORE PUSH2 0x4C23 DUP2 PUSH2 0x4BE7 JUMP JUMPDEST SWAP1 POP SWAP2 SWAP1 POP JUMP JUMPDEST PUSH1 0x0 DUP2 MLOAD SWAP1 POP SWAP2 SWAP1 POP JUMP JUMPDEST PUSH1 0x0 DUP3 DUP3 MSTORE PUSH1 0x20 DUP3 ADD SWAP1 POP SWAP3 SWAP2 POP POP JUMP JUMPDEST PUSH1 0x0 PUSH2 0x4C51 DUP3 PUSH2 0x4C2A JUMP JUMPDEST PUSH2 0x4C5B DUP2 DUP6 PUSH2 0x4C35 JUMP JUMPDEST SWAP4 POP PUSH2 0x4C6B DUP2 DUP6 PUSH1 0x20 DUP7 ADD PUSH2 0x33C5 JUMP JUMPDEST PUSH2 0x4C74 DUP2 PUSH2 0x33EF JUMP JUMPDEST DUP5 ADD SWAP2 POP POP SWAP3 SWAP2 POP POP JUMP JUMPDEST PUSH1 0x0 PUSH1 0x80 DUP3 ADD SWAP1 POP PUSH2 0x4C94 PUSH1 0x0 DUP4 ADD DUP8 PUSH2 0x34E6 JUMP JUMPDEST PUSH2 0x4CA1 PUSH1 0x20 DUP4 ADD DUP7 PUSH2 0x34E6 JUMP JUMPDEST PUSH2 0x4CAE PUSH1 0x40 DUP4 ADD DUP6 PUSH2 0x3220 JUMP JUMPDEST DUP2 DUP2 SUB PUSH1 0x60 DUP4 ADD MSTORE PUSH2 0x4CC0 DUP2 DUP5 PUSH2 0x4C46 JUMP JUMPDEST SWAP1 POP SWAP6 SWAP5 POP POP POP POP POP JUMP JUMPDEST PUSH1 0x0 DUP2 MLOAD SWAP1 POP PUSH2 0x4CDA DUP2 PUSH2 0x328A JUMP JUMPDEST SWAP3 SWAP2 POP POP JUMP JUMPDEST PUSH1 0x0 PUSH1 0x20 DUP3 DUP5 SUB SLT ISZERO PUSH2 0x4CF6 JUMPI PUSH2 0x4CF5 PUSH2 0x3254 JUMP JUMPDEST JUMPDEST PUSH1 0x0 PUSH2 0x4D04 DUP5 DUP3 DUP6 ADD PUSH2 0x4CCB JUMP JUMPDEST SWAP2 POP POP SWAP3 SWAP2 POP POP JUMP JUMPDEST PUSH32 0x4552433732313A206D696E7420746F20746865207A65726F2061646472657373 PUSH1 0x0 DUP3 ADD MSTORE POP JUMP JUMPDEST PUSH1 0x0 PUSH2 0x4D43 PUSH1 0x20 DUP4 PUSH2 0x33B4 JUMP JUMPDEST SWAP2 POP PUSH2 0x4D4E DUP3 PUSH2 0x4D0D JUMP JUMPDEST PUSH1 0x20 DUP3 ADD SWAP1 POP SWAP2 SWAP1 POP JUMP JUMPDEST PUSH1 0x0 PUSH1 0x20 DUP3 ADD SWAP1 POP DUP2 DUP2 SUB PUSH1 0x0 DUP4 ADD MSTORE PUSH2 0x4D72 DUP2 PUSH2 0x4D36 JUMP JUMPDEST SWAP1 POP SWAP2 SWAP1 POP JUMP JUMPDEST PUSH32 0x4552433732313A20746F6B656E20616C7265616479206D696E74656400000000 PUSH1 0x0 DUP3 ADD MSTORE POP JUMP JUMPDEST PUSH1 0x0 PUSH2 0x4DAF PUSH1 0x1C DUP4 PUSH2 0x33B4 JUMP JUMPDEST SWAP2 POP PUSH2 0x4DBA DUP3 PUSH2 0x4D79 JUMP JUMPDEST PUSH1 0x20 DUP3 ADD SWAP1 POP SWAP2 SWAP1 POP JUMP JUMPDEST PUSH1 0x0 PUSH1 0x20 DUP3 ADD SWAP1 POP DUP2 DUP2 SUB PUSH1 0x0 DUP4 ADD MSTORE PUSH2 0x4DDE DUP2 PUSH2 0x4DA2 JUMP JUMPDEST SWAP1 POP SWAP2 SWAP1 POP JUMP INVALID LOG2 PUSH5 0x6970667358 0x22 SLT KECCAK256 BASEFEE TIMESTAMP ADD DUP6 0xD0 XOR 0xAA 0x5D PUSH4 0x78963275 0xB9 0xB4 PC 0xAE 0xA8 0xBB SWAP6 0xC8 CALLER SLOAD 0xDB DUP8 0xA5 SHL SWAP10 0xC6 0x4A CODECOPY 0xBB PUSH5 0x736F6C6343 STOP ADDMOD SLT STOP CALLER "},"methodIdentifiers":{"BASE_REWARD()":"22009af6","BLOCKS_PER_READJUSTMENT()":"b7304272","MAXIMUM_TARGET_DIFFICULTY()":"7c7f3206","MAX_ADJUSTMENT_PERCENT()":"1beddf1c","MINIMUM_TARGET_DIFFICULTY()":"6a586594","MINING_RATE_FACTOR()":"3426e5f5","QUOTIENT_LIMIT()":"ad1dfe3b","TARGET_DIVISOR()":"095b6d4c","approve(address,uint256)":"095ea7b3","balanceOf(address)":"70a08231","baseUri()":"9abc8320","challengeNumber()":"8ae0368b","checkHash(uint256,bytes32)":"7c2d542c","currentTokenId()":"009a9b7b","decimals()":"313ce567","difficulty()":"19cae462","digestForTokenId(uint256)":"e09feae3","epochCount()":"829965cc","getApproved(uint256)":"081812fc","getChallengeNumber()":"4ef37628","getMiningDifficulty()":"17da485f","getMiningReward()":"490203a7","getMiningTarget()":"32e99708","getPlanetMinted()":"a465eeaf","getPlanetZone(uint256,uint256)":"acf86c87","getTotalStatsPerTokenId(uint256)":"6a2e19a2","initialize(string,string,string)":"a6487c53","isApprovedForAll(address,address)":"e985e9c5","latestDifficultyPeriodStarted()":"cb9ae707","maxSupplyForEra()":"4fa972e1","maximumRigLevel()":"3d85d614","miningRigForAddress(address)":"b57d7283","miningRigPercentage(uint256)":"03ca2f53","miningRigUpgradePrice()":"47e9c095","mint(uint256,bytes32)":"1801fbe5","name()":"06fdde03","owner()":"8da5cb5b","ownerOf(uint256)":"6352211e","rewardEra()":"2d38bf7a","rtsBonusForTokenId(uint256)":"56b757be","safeTransferFrom(address,address,uint256)":"42842e0e","safeTransferFrom(address,address,uint256,bytes)":"b88d4fde","setApprovalForAll(address,bool)":"a22cb465","setBaseUri(string)":"a0bcfc7f","setMiningRigUpgradePrice(uint256)":"4e802139","startingAverageReward()":"82c890fd","statistics()":"95e272bd","supportsInterface(bytes4)":"01ffc9a7","symbol()":"95d89b41","tokenURI(uint256)":"c87b56dd","tokensMinted()":"6de9f32b","totalERSupply()":"ac693778","totalRtsPerEra()":"ee2e5612","transferFrom(address,address,uint256)":"23b872dd","upgradeMiningRig(uint8)":"07a11aeb","value()":"3fa4f245","withdraw()":"3ccfd60b"}},"storageLayout":{"storage":[{"astId":4411,"contract":"src/PlanetsV2_test.sol:Planets","label":"challengeNumber","offset":0,"slot":"0","type":"t_bytes32"},{"astId":4413,"contract":"src/PlanetsV2_test.sol:Planets","label":"difficulty","offset":0,"slot":"1","type":"t_uint256"},{"astId":4415,"contract":"src/PlanetsV2_test.sol:Planets","label":"tokensMinted","offset":0,"slot":"2","type":"t_uint256"},{"astId":4427,"contract":"src/PlanetsV2_test.sol:Planets","label":"statistics","offset":0,"slot":"3","type":"t_struct(Statistics)4424_storage"},{"astId":6,"contract":"src/PlanetsV2_test.sol:Planets","label":"_initialized","offset":0,"slot":"7","type":"t_uint8"},{"astId":9,"contract":"src/PlanetsV2_test.sol:Planets","label":"_initializing","offset":1,"slot":"7","type":"t_bool"},{"astId":1652,"contract":"src/PlanetsV2_test.sol:Planets","label":"__gap","offset":0,"slot":"8","type":"t_array(t_uint256)50_storage"},{"astId":1925,"contract":"src/PlanetsV2_test.sol:Planets","label":"__gap","offset":0,"slot":"58","type":"t_array(t_uint256)50_storage"},{"astId":197,"contract":"src/PlanetsV2_test.sol:Planets","label":"_name","offset":0,"slot":"108","type":"t_string_storage"},{"astId":199,"contract":"src/PlanetsV2_test.sol:Planets","label":"_symbol","offset":0,"slot":"109","type":"t_string_storage"},{"astId":203,"contract":"src/PlanetsV2_test.sol:Planets","label":"_owners","offset":0,"slot":"110","type":"t_mapping(t_uint256,t_address)"},{"astId":207,"contract":"src/PlanetsV2_test.sol:Planets","label":"_balances","offset":0,"slot":"111","type":"t_mapping(t_address,t_uint256)"},{"astId":211,"contract":"src/PlanetsV2_test.sol:Planets","label":"_tokenApprovals","offset":0,"slot":"112","type":"t_mapping(t_uint256,t_address)"},{"astId":217,"contract":"src/PlanetsV2_test.sol:Planets","label":"_operatorApprovals","offset":0,"slot":"113","type":"t_mapping(t_address,t_mapping(t_address,t_bool))"},{"astId":1119,"contract":"src/PlanetsV2_test.sol:Planets","label":"__gap","offset":0,"slot":"114","type":"t_array(t_uint256)44_storage"},{"astId":5529,"contract":"src/PlanetsV2_test.sol:Planets","label":"currentTokenId","offset":0,"slot":"158","type":"t_uint256"},{"astId":5531,"contract":"src/PlanetsV2_test.sol:Planets","label":"baseUri","offset":0,"slot":"159","type":"t_string_storage"},{"astId":5533,"contract":"src/PlanetsV2_test.sol:Planets","label":"totalERSupply","offset":0,"slot":"160","type":"t_uint256"},{"astId":5537,"contract":"src/PlanetsV2_test.sol:Planets","label":"digestForTokenId","offset":0,"slot":"161","type":"t_mapping(t_uint256,t_bytes32)"},{"astId":5539,"contract":"src/PlanetsV2_test.sol:Planets","label":"epochCount","offset":0,"slot":"162","type":"t_uint256"},{"astId":5547,"contract":"src/PlanetsV2_test.sol:Planets","label":"latestDifficultyPeriodStarted","offset":0,"slot":"163","type":"t_uint256"},{"astId":5583,"contract":"src/PlanetsV2_test.sol:Planets","label":"rewardEra","offset":0,"slot":"164","type":"t_uint256"},{"astId":5595,"contract":"src/PlanetsV2_test.sol:Planets","label":"totalRtsPerEra","offset":0,"slot":"165","type":"t_uint256"},{"astId":5600,"contract":"src/PlanetsV2_test.sol:Planets","label":"miningRigUpgradePrice","offset":0,"slot":"166","type":"t_uint256"},{"astId":5602,"contract":"src/PlanetsV2_test.sol:Planets","label":"maximumRigLevel","offset":0,"slot":"167","type":"t_uint8"},{"astId":5605,"contract":"src/PlanetsV2_test.sol:Planets","label":"miningRigPercentage","offset":0,"slot":"168","type":"t_array(t_uint8)dyn_storage"},{"astId":5609,"contract":"src/PlanetsV2_test.sol:Planets","label":"miningRigForAddress","offset":0,"slot":"169","type":"t_mapping(t_address,t_uint8)"},{"astId":5613,"contract":"src/PlanetsV2_test.sol:Planets","label":"rtsBonusForTokenId","offset":0,"slot":"170","type":"t_mapping(t_uint256,t_uint256)"},{"astId":5615,"contract":"src/PlanetsV2_test.sol:Planets","label":"owner","offset":0,"slot":"171","type":"t_address"}],"types":{"t_address":{"encoding":"inplace","label":"address","numberOfBytes":"20"},"t_array(t_uint256)44_storage":{"base":"t_uint256","encoding":"inplace","label":"uint256[44]","numberOfBytes":"1408"},"t_array(t_uint256)50_storage":{"base":"t_uint256","encoding":"inplace","label":"uint256[50]","numberOfBytes":"1600"},"t_array(t_uint8)dyn_storage":{"base":"t_uint8","encoding":"dynamic_array","label":"uint8[]","numberOfBytes":"32"},"t_bool":{"encoding":"inplace","label":"bool","numberOfBytes":"1"},"t_bytes32":{"encoding":"inplace","label":"bytes32","numberOfBytes":"32"},"t_mapping(t_address,t_bool)":{"encoding":"mapping","key":"t_address","label":"mapping(address => bool)","numberOfBytes":"32","value":"t_bool"},"t_mapping(t_address,t_mapping(t_address,t_bool))":{"encoding":"mapping","key":"t_address","label":"mapping(address => mapping(address => bool))","numberOfBytes":"32","value":"t_mapping(t_address,t_bool)"},"t_mapping(t_address,t_uint256)":{"encoding":"mapping","key":"t_address","label":"mapping(address => uint256)","numberOfBytes":"32","value":"t_uint256"},"t_mapping(t_address,t_uint8)":{"encoding":"mapping","key":"t_address","label":"mapping(address => uint8)","numberOfBytes":"32","value":"t_uint8"},"t_mapping(t_uint256,t_address)":{"encoding":"mapping","key":"t_uint256","label":"mapping(uint256 => address)","numberOfBytes":"32","value":"t_address"},"t_mapping(t_uint256,t_bytes32)":{"encoding":"mapping","key":"t_uint256","label":"mapping(uint256 => bytes32)","numberOfBytes":"32","value":"t_bytes32"},"t_mapping(t_uint256,t_uint256)":{"encoding":"mapping","key":"t_uint256","label":"mapping(uint256 => uint256)","numberOfBytes":"32","value":"t_uint256"},"t_string_storage":{"encoding":"bytes","label":"string","numberOfBytes":"32"},"t_struct(Statistics)4424_storage":{"encoding":"inplace","label":"struct AbstractERC918.Statistics","members":[{"astId":4417,"contract":"src/PlanetsV2_test.sol:Planets","label":"lastRewardTo","offset":0,"slot":"0","type":"t_address"},{"astId":4419,"contract":"src/PlanetsV2_test.sol:Planets","label":"lastRewardAmount","offset":0,"slot":"1","type":"t_uint256"},{"astId":4421,"contract":"src/PlanetsV2_test.sol:Planets","label":"lastRewardEthBlockNumber","offset":0,"slot":"2","type":"t_uint256"},{"astId":4423,"contract":"src/PlanetsV2_test.sol:Planets","label":"lastRewardTimestamp","offset":0,"slot":"3","type":"t_uint256"}],"numberOfBytes":"128"},"t_uint256":{"encoding":"inplace","label":"uint256","numberOfBytes":"32"},"t_uint8":{"encoding":"inplace","label":"uint8","numberOfBytes":"1"}}}}}}