{"src/Planets.sol":{"Planets":{"abi":[{"anonymous":false,"inputs":[{"indexed":true,"internalType":"address","name":"owner","type":"address"},{"indexed":true,"internalType":"address","name":"approved","type":"address"},{"indexed":true,"internalType":"uint256","name":"tokenId","type":"uint256"}],"name":"Approval","type":"event"},{"anonymous":false,"inputs":[{"indexed":true,"internalType":"address","name":"owner","type":"address"},{"indexed":true,"internalType":"address","name":"operator","type":"address"},{"indexed":false,"internalType":"bool","name":"approved","type":"bool"}],"name":"ApprovalForAll","type":"event"},{"anonymous":false,"inputs":[{"indexed":false,"internalType":"uint256","name":"difficulty","type":"uint256"}],"name":"DifficultyChange","type":"event"},{"anonymous":false,"inputs":[{"indexed":false,"internalType":"uint8","name":"version","type":"uint8"}],"name":"Initialized","type":"event"},{"anonymous":false,"inputs":[{"indexed":true,"internalType":"address","name":"from","type":"address"},{"indexed":false,"internalType":"uint256","name":"rewardAmount","type":"uint256"},{"indexed":false,"internalType":"uint256","name":"epochCount","type":"uint256"},{"indexed":false,"internalType":"bytes32","name":"newChallengeNumber","type":"bytes32"}],"name":"Mint","type":"event"},{"anonymous":false,"inputs":[{"indexed":true,"internalType":"address","name":"from","type":"address"},{"indexed":true,"internalType":"address","name":"to","type":"address"},{"indexed":true,"internalType":"uint256","name":"tokenId","type":"uint256"}],"name":"Transfer","type":"event"},{"inputs":[],"name":"BASE_REWARD","outputs":[{"internalType":"uint256","name":"","type":"uint256"}],"stateMutability":"view","type":"function"},{"inputs":[],"name":"BLOCKS_PER_READJUSTMENT","outputs":[{"internalType":"uint256","name":"","type":"uint256"}],"stateMutability":"view","type":"function"},{"inputs":[],"name":"MAXIMUM_TARGET_DIFFICULTY","outputs":[{"internalType":"uint256","name":"","type":"uint256"}],"stateMutability":"view","type":"function"},{"inputs":[],"name":"MAX_ADJUSTMENT_PERCENT","outputs":[{"internalType":"uint256","name":"","type":"uint256"}],"stateMutability":"view","type":"function"},{"inputs":[],"name":"MINIMUM_TARGET_DIFFICULTY","outputs":[{"internalType":"uint256","name":"","type":"uint256"}],"stateMutability":"view","type":"function"},{"inputs":[],"name":"MINING_RATE_FACTOR","outputs":[{"internalType":"uint256","name":"","type":"uint256"}],"stateMutability":"view","type":"function"},{"inputs":[],"name":"QUOTIENT_LIMIT","outputs":[{"internalType":"uint256","name":"","type":"uint256"}],"stateMutability":"view","type":"function"},{"inputs":[],"name":"TARGET_DIVISOR","outputs":[{"internalType":"uint256","name":"","type":"uint256"}],"stateMutability":"view","type":"function"},{"inputs":[{"internalType":"address","name":"to","type":"address"},{"internalType":"uint256","name":"tokenId","type":"uint256"}],"name":"approve","outputs":[],"stateMutability":"nonpayable","type":"function"},{"inputs":[{"internalType":"address","name":"owner","type":"address"}],"name":"balanceOf","outputs":[{"internalType":"uint256","name":"","type":"uint256"}],"stateMutability":"view","type":"function"},{"inputs":[],"name":"baseUri","outputs":[{"internalType":"string","name":"","type":"string"}],"stateMutability":"view","type":"function"},{"inputs":[],"name":"challengeNumber","outputs":[{"internalType":"bytes32","name":"","type":"bytes32"}],"stateMutability":"view","type":"function"},{"inputs":[{"internalType":"uint256","name":"nonce","type":"uint256"},{"internalType":"bytes32","name":"challengeDigest","type":"bytes32"}],"name":"checkHash","outputs":[{"internalType":"bytes32","name":"digest","type":"bytes32"}],"stateMutability":"view","type":"function"},{"inputs":[],"name":"currentTokenId","outputs":[{"internalType":"uint256","name":"","type":"uint256"}],"stateMutability":"view","type":"function"},{"inputs":[],"name":"decimals","outputs":[{"internalType":"uint8","name":"","type":"uint8"}],"stateMutability":"view","type":"function"},{"inputs":[],"name":"difficulty","outputs":[{"internalType":"uint256","name":"","type":"uint256"}],"stateMutability":"view","type":"function"},{"inputs":[{"internalType":"uint256","name":"","type":"uint256"}],"name":"digestForTokenId","outputs":[{"internalType":"bytes32","name":"","type":"bytes32"}],"stateMutability":"view","type":"function"},{"inputs":[],"name":"epochCount","outputs":[{"internalType":"uint256","name":"","type":"uint256"}],"stateMutability":"view","type":"function"},{"inputs":[{"internalType":"uint256","name":"tokenId","type":"uint256"}],"name":"getApproved","outputs":[{"internalType":"address","name":"","type":"address"}],"stateMutability":"view","type":"function"},{"inputs":[],"name":"getChallengeNumber","outputs":[{"internalType":"bytes32","name":"","type":"bytes32"}],"stateMutability":"view","type":"function"},{"inputs":[],"name":"getMiningDifficulty","outputs":[{"internalType":"uint256","name":"","type":"uint256"}],"stateMutability":"view","type":"function"},{"inputs":[],"name":"getMiningReward","outputs":[{"internalType":"uint256","name":"","type":"uint256"}],"stateMutability":"pure","type":"function"},{"inputs":[],"name":"getMiningTarget","outputs":[{"internalType":"uint256","name":"","type":"uint256"}],"stateMutability":"view","type":"function"},{"inputs":[],"name":"getPlanetMinted","outputs":[{"internalType":"uint256","name":"","type":"uint256"}],"stateMutability":"view","type":"function"},{"inputs":[{"internalType":"uint256","name":"x","type":"uint256"},{"internalType":"uint256","name":"y","type":"uint256"}],"name":"getPlanetZone","outputs":[{"internalType":"uint256","name":"zone","type":"uint256"}],"stateMutability":"pure","type":"function"},{"inputs":[{"internalType":"uint256","name":"id","type":"uint256"}],"name":"getTotalStatsPerTokenId","outputs":[{"internalType":"uint256","name":"","type":"uint256"},{"internalType":"uint256","name":"","type":"uint256"},{"internalType":"uint256","name":"","type":"uint256"},{"internalType":"uint256","name":"","type":"uint256"},{"internalType":"uint256","name":"","type":"uint256"},{"internalType":"uint256","name":"","type":"uint256"}],"stateMutability":"view","type":"function"},{"inputs":[{"internalType":"string","name":"_name","type":"string"},{"internalType":"string","name":"_symbol","type":"string"},{"internalType":"string","name":"_baseUri","type":"string"}],"name":"initialize","outputs":[],"stateMutability":"nonpayable","type":"function"},{"inputs":[{"internalType":"address","name":"owner","type":"address"},{"internalType":"address","name":"operator","type":"address"}],"name":"isApprovedForAll","outputs":[{"internalType":"bool","name":"","type":"bool"}],"stateMutability":"view","type":"function"},{"inputs":[],"name":"latestDifficultyPeriodStarted","outputs":[{"internalType":"uint256","name":"","type":"uint256"}],"stateMutability":"view","type":"function"},{"inputs":[],"name":"maxSupplyForEra","outputs":[{"internalType":"uint256","name":"","type":"uint256"}],"stateMutability":"view","type":"function"},{"inputs":[],"name":"maximumRigLevel","outputs":[{"internalType":"uint8","name":"","type":"uint8"}],"stateMutability":"view","type":"function"},{"inputs":[{"internalType":"address","name":"","type":"address"}],"name":"miningRigForAddress","outputs":[{"internalType":"uint8","name":"","type":"uint8"}],"stateMutability":"view","type":"function"},{"inputs":[{"internalType":"uint256","name":"","type":"uint256"}],"name":"miningRigPercentage","outputs":[{"internalType":"uint8","name":"","type":"uint8"}],"stateMutability":"view","type":"function"},{"inputs":[],"name":"miningRigUpgradePrice","outputs":[{"internalType":"uint256","name":"","type":"uint256"}],"stateMutability":"view","type":"function"},{"inputs":[{"internalType":"uint256","name":"nonce","type":"uint256"},{"internalType":"bytes32","name":"challengeDigest","type":"bytes32"}],"name":"mint","outputs":[{"internalType":"bool","name":"success","type":"bool"}],"stateMutability":"nonpayable","type":"function"},{"inputs":[],"name":"name","outputs":[{"internalType":"string","name":"","type":"string"}],"stateMutability":"view","type":"function"},{"inputs":[],"name":"owner","outputs":[{"internalType":"address","name":"","type":"address"}],"stateMutability":"view","type":"function"},{"inputs":[{"internalType":"uint256","name":"tokenId","type":"uint256"}],"name":"ownerOf","outputs":[{"internalType":"address","name":"","type":"address"}],"stateMutability":"view","type":"function"},{"inputs":[],"name":"rewardEra","outputs":[{"internalType":"uint256","name":"","type":"uint256"}],"stateMutability":"view","type":"function"},{"inputs":[{"internalType":"uint256","name":"","type":"uint256"}],"name":"rtsBonusForTokenId","outputs":[{"internalType":"uint256","name":"","type":"uint256"}],"stateMutability":"view","type":"function"},{"inputs":[{"internalType":"address","name":"from","type":"address"},{"internalType":"address","name":"to","type":"address"},{"internalType":"uint256","name":"tokenId","type":"uint256"}],"name":"safeTransferFrom","outputs":[],"stateMutability":"nonpayable","type":"function"},{"inputs":[{"internalType":"address","name":"from","type":"address"},{"internalType":"address","name":"to","type":"address"},{"internalType":"uint256","name":"tokenId","type":"uint256"},{"internalType":"bytes","name":"data","type":"bytes"}],"name":"safeTransferFrom","outputs":[],"stateMutability":"nonpayable","type":"function"},{"inputs":[{"internalType":"address","name":"operator","type":"address"},{"internalType":"bool","name":"approved","type":"bool"}],"name":"setApprovalForAll","outputs":[],"stateMutability":"nonpayable","type":"function"},{"inputs":[{"internalType":"string","name":"_baseUri","type":"string"}],"name":"setBaseUri","outputs":[],"stateMutability":"nonpayable","type":"function"},{"inputs":[{"internalType":"uint256","name":"priceInEth","type":"uint256"}],"name":"setMiningRigUpgradePrice","outputs":[],"stateMutability":"nonpayable","type":"function"},{"inputs":[],"name":"startingAverageReward","outputs":[{"internalType":"uint256","name":"","type":"uint256"}],"stateMutability":"view","type":"function"},{"inputs":[],"name":"statistics","outputs":[{"internalType":"address","name":"lastRewardTo","type":"address"},{"internalType":"uint256","name":"lastRewardAmount","type":"uint256"},{"internalType":"uint256","name":"lastRewardEthBlockNumber","type":"uint256"},{"internalType":"uint256","name":"lastRewardTimestamp","type":"uint256"}],"stateMutability":"view","type":"function"},{"inputs":[{"internalType":"bytes4","name":"interfaceId","type":"bytes4"}],"name":"supportsInterface","outputs":[{"internalType":"bool","name":"","type":"bool"}],"stateMutability":"view","type":"function"},{"inputs":[],"name":"symbol","outputs":[{"internalType":"string","name":"","type":"string"}],"stateMutability":"view","type":"function"},{"inputs":[{"internalType":"uint256","name":"tokenId","type":"uint256"}],"name":"tokenURI","outputs":[{"internalType":"string","name":"","type":"string"}],"stateMutability":"view","type":"function"},{"inputs":[],"name":"tokensMinted","outputs":[{"internalType":"uint256","name":"","type":"uint256"}],"stateMutability":"view","type":"function"},{"inputs":[],"name":"totalERSupply","outputs":[{"internalType":"uint256","name":"","type":"uint256"}],"stateMutability":"view","type":"function"},{"inputs":[],"name":"totalRtsPerEra","outputs":[{"internalType":"uint256","name":"","type":"uint256"}],"stateMutability":"view","type":"function"},{"inputs":[{"internalType":"address","name":"from","type":"address"},{"internalType":"address","name":"to","type":"address"},{"internalType":"uint256","name":"tokenId","type":"uint256"}],"name":"transferFrom","outputs":[],"stateMutability":"nonpayable","type":"function"},{"inputs":[{"internalType":"uint8","name":"amount","type":"uint8"}],"name":"upgradeMiningRig","outputs":[],"stateMutability":"payable","type":"function"},{"inputs":[],"name":"withdraw","outputs":[],"stateMutability":"nonpayable","type":"function"}],"evm":{"bytecode":{"linkReferences":{},"object":"608060405234801561001057600080fd5b50614de0806100206000396000f3fe60806040526004361061036a5760003560e01c80636a2e19a2116101c6578063a22cb465116100f7578063b730427211610095578063cb9ae7071161006f578063cb9ae70714610cd8578063e09feae314610d03578063e985e9c514610d40578063ee2e561214610d7d5761036a565b8063b730427214610c47578063b88d4fde14610c72578063c87b56dd14610c9b5761036a565b8063ac693778116100d1578063ac69377814610b77578063acf86c8714610ba2578063ad1dfe3b14610bdf578063b57d728314610c0a5761036a565b8063a22cb46514610afa578063a465eeaf14610b23578063a6487c5314610b4e5761036a565b806382c890fd1161016457806395d89b411161013e57806395d89b4114610a4d57806395e272bd14610a785780639abc832014610aa6578063a0bcfc7f14610ad15761036a565b806382c890fd146109cc5780638ae0368b146109f75780638da5cb5b14610a225761036a565b806370a08231116101a057806370a08231146108fc5780637c2d542c146109395780637c7f320614610976578063829965cc146109a15761036a565b80636a2e19a2146108645780636a586594146108a65780636de9f32b146108d15761036a565b80632d38bf7a116102a057806347e9c0951161023e5780634ef37628116102185780634ef37628146107945780634fa972e1146107bf57806356b757be146107ea5780636352211e146108275761036a565b806347e9c09514610715578063490203a7146107405780634e8021391461076b5761036a565b80633426e5f51161027a5780633426e5f51461067f5780633ccfd60b146106aa5780633d85d614146106c157806342842e0e146106ec5761036a565b80632d38bf7a146105fe578063313ce5671461062957806332e99708146106545761036a565b8063095ea7b31161030d57806319cae462116102e757806319cae462146105545780631beddf1c1461057f57806322009af6146105aa57806323b872dd146105d55761036a565b8063095ea7b3146104c357806317da485f146104ec5780631801fbe5146105175761036a565b806306fdde031161034957806306fdde031461041457806307a11aeb1461043f578063081812fc1461045b578063095b6d4c146104985761036a565b80629a9b7b1461036f57806301ffc9a71461039a57806303ca2f53146103d7575b600080fd5b34801561037b57600080fd5b50610384610da8565b60405161039191906131f4565b60405180910390f35b3480156103a657600080fd5b506103c160048036038101906103bc919061327b565b610dae565b6040516103ce91906132c3565b60405180910390f35b3480156103e357600080fd5b506103fe60048036038101906103f9919061330a565b610e90565b60405161040b9190613353565b60405180910390f35b34801561042057600080fd5b50610429610ec4565b60405161043691906133fe565b60405180910390f35b6104596004803603810190610454919061344c565b610f56565b005b34801561046757600080fd5b50610482600480360381019061047d919061330a565b61104d565b60405161048f91906134ba565b60405180910390f35b3480156104a457600080fd5b506104ad611093565b6040516104ba91906131f4565b60405180910390f35b3480156104cf57600080fd5b506104ea60048036038101906104e59190613501565b611099565b005b3480156104f857600080fd5b506105016111b0565b60405161050e91906131f4565b60405180910390f35b34801561052357600080fd5b5061053e60048036038101906105399190613577565b6111ba565b60405161054b91906132c3565b60405180910390f35b34801561056057600080fd5b506105696113b5565b60405161057691906131f4565b60405180910390f35b34801561058b57600080fd5b506105946113bb565b6040516105a191906131f4565b60405180910390f35b3480156105b657600080fd5b506105bf6113c0565b6040516105cc91906131f4565b60405180910390f35b3480156105e157600080fd5b506105fc60048036038101906105f791906135b7565b6113c5565b005b34801561060a57600080fd5b50610613611425565b60405161062091906131f4565b60405180910390f35b34801561063557600080fd5b5061063e61142b565b60405161064b9190613353565b60405180910390f35b34801561066057600080fd5b50610669611430565b60405161067691906131f4565b60405180910390f35b34801561068b57600080fd5b5061069461143a565b6040516106a191906131f4565b60405180910390f35b3480156106b657600080fd5b506106bf61143f565b005b3480156106cd57600080fd5b506106d661153a565b6040516106e39190613353565b60405180910390f35b3480156106f857600080fd5b50610713600480360381019061070e91906135b7565b61154d565b005b34801561072157600080fd5b5061072a61156d565b60405161073791906131f4565b60405180910390f35b34801561074c57600080fd5b50610755611573565b60405161076291906131f4565b60405180910390f35b34801561077757600080fd5b50610792600480360381019061078d919061330a565b611598565b005b3480156107a057600080fd5b506107a9611632565b6040516107b69190613619565b60405180910390f35b3480156107cb57600080fd5b506107d461163b565b6040516107e191906131f4565b60405180910390f35b3480156107f657600080fd5b50610811600480360381019061080c919061330a565b61165e565b60405161081e91906131f4565b60405180910390f35b34801561083357600080fd5b5061084e6004803603810190610849919061330a565b611676565b60405161085b91906134ba565b60405180910390f35b34801561087057600080fd5b5061088b6004803603810190610886919061330a565b6116fc565b60405161089d96959493929190613634565b60405180910390f35b3480156108b257600080fd5b506108bb611887565b6040516108c891906131f4565b60405180910390f35b3480156108dd57600080fd5b506108e661188e565b6040516108f391906131f4565b60405180910390f35b34801561090857600080fd5b50610923600480360381019061091e9190613695565b611894565b60405161093091906131f4565b60405180910390f35b34801561094557600080fd5b50610960600480360381019061095b9190613577565b61194b565b60405161096d9190613619565b60405180910390f35b34801561098257600080fd5b5061098b61195f565b60405161099891906131f4565b60405180910390f35b3480156109ad57600080fd5b506109b6611982565b6040516109c391906131f4565b60405180910390f35b3480156109d857600080fd5b506109e1611988565b6040516109ee91906131f4565b60405180910390f35b348015610a0357600080fd5b50610a0c6119a9565b604051610a199190613619565b60405180910390f35b348015610a2e57600080fd5b50610a376119af565b604051610a4491906134ba565b60405180910390f35b348015610a5957600080fd5b50610a626119d5565b604051610a6f91906133fe565b60405180910390f35b348015610a8457600080fd5b50610a8d611a67565b604051610a9d94939291906136c2565b60405180910390f35b348015610ab257600080fd5b50610abb611aa5565b604051610ac891906133fe565b60405180910390f35b348015610add57600080fd5b50610af86004803603810190610af3919061383c565b611b33565b005b348015610b0657600080fd5b50610b216004803603810190610b1c91906138b1565b611bd6565b005b348015610b2f57600080fd5b50610b38611bec565b604051610b4591906131f4565b60405180910390f35b348015610b5a57600080fd5b50610b756004803603810190610b7091906138f1565b611bf6565b005b348015610b8357600080fd5b50610b8c611ed9565b604051610b9991906131f4565b60405180910390f35b348015610bae57600080fd5b50610bc96004803603810190610bc49190613998565b611edf565b604051610bd691906131f4565b60405180910390f35b348015610beb57600080fd5b50610bf4611f87565b604051610c0191906131f4565b60405180910390f35b348015610c1657600080fd5b50610c316004803603810190610c2c9190613695565b611f99565b604051610c3e9190613353565b60405180910390f35b348015610c5357600080fd5b50610c5c611fb9565b604051610c6991906131f4565b60405180910390f35b348015610c7e57600080fd5b50610c996004803603810190610c949190613a79565b611fbf565b005b348015610ca757600080fd5b50610cc26004803603810190610cbd919061330a565b612021565b604051610ccf91906133fe565b60405180910390f35b348015610ce457600080fd5b50610ced612081565b604051610cfa91906131f4565b60405180910390f35b348015610d0f57600080fd5b50610d2a6004803603810190610d25919061330a565b612087565b604051610d379190613619565b60405180910390f35b348015610d4c57600080fd5b50610d676004803603810190610d629190613afc565b61209f565b604051610d7491906132c3565b60405180910390f35b348015610d8957600080fd5b50610d92612133565b604051610d9f91906131f4565b60405180910390f35b609e5481565b60007f80ac58cd000000000000000000000000000000000000000000000000000000007bffffffffffffffffffffffffffffffffffffffffffffffffffffffff1916827bffffffffffffffffffffffffffffffffffffffffffffffffffffffff19161480610e7957507f5b5e139f000000000000000000000000000000000000000000000000000000007bffffffffffffffffffffffffffffffffffffffffffffffffffffffff1916827bffffffffffffffffffffffffffffffffffffffffffffffffffffffff1916145b80610e895750610e8882612139565b5b9050919050565b60a88181548110610ea057600080fd5b9060005260206000209060209182820401919006915054906101000a900460ff1681565b6060606c8054610ed390613b6b565b80601f0160208091040260200160405190810160405280929190818152602001828054610eff90613b6b565b8015610f4c5780601f10610f2157610100808354040283529160200191610f4c565b820191906000526020600020905b815481529060010190602001808311610f2f57829003601f168201915b5050505050905090565b8060ff1660a654610f679190613bcb565b341015610f7357600080fd5b60008160a960003373ffffffffffffffffffffffffffffffffffffffff1673ffffffffffffffffffffffffffffffffffffffff16815260200190815260200160002060009054906101000a900460ff16610fcd9190613c0d565b905060a760009054906101000a900460ff1660ff168160ff161115610ff157600080fd5b8060a960003373ffffffffffffffffffffffffffffffffffffffff1673ffffffffffffffffffffffffffffffffffffffff16815260200190815260200160002060006101000a81548160ff021916908360ff1602179055505050565b6000611058826121a3565b6070600083815260200190815260200160002060009054906101000a900473ffffffffffffffffffffffffffffffffffffffff169050919050565b6107d081565b60006110a482611676565b90508073ffffffffffffffffffffffffffffffffffffffff168373ffffffffffffffffffffffffffffffffffffffff1603611114576040517f08c379a000000000000000000000000000000000000000000000000000000000815260040161110b90613cb4565b60405180910390fd5b8073ffffffffffffffffffffffffffffffffffffffff166111336121ee565b73ffffffffffffffffffffffffffffffffffffffff16148061116257506111618161115c6121ee565b61209f565b5b6111a1576040517f08c379a000000000000000000000000000000000000000000000000000000000815260040161119890613d46565b60405180910390fd5b6111ab83836121f6565b505050565b6000600154905090565b6000609e600081546111cb90613d66565b919050819055609e8190555060006111e384846122af565b90506001548160001c111561122d576040517f08c379a000000000000000000000000000000000000000000000000000000000815260040161122490613dfa565b60405180910390fd5b600060a16000609e5481526020019081526020016000205490506000801b811461128c576040517f08c379a000000000000000000000000000000000000000000000000000000000815260040161128390613e66565b60405180910390fd5b8160a16000609e548152602001908152602001600020819055506112b233609e54612327565b60006103e88360001c169050600060648260a860a960003373ffffffffffffffffffffffffffffffffffffffff1673ffffffffffffffffffffffffffffffffffffffff16815260200190815260200160002060009054906101000a900460ff1660ff168154811061132657611325613e86565b5b90600052602060002090602091828204019190069054906101000a900460ff1660ff166113539190613bcb565b61135d9190613ee4565b90506000811115611383578060aa6000609e548152602001908152602001600020819055505b808261138f9190613f15565b600260008282546113a09190613f15565b92505081905550600194505050505092915050565b60015481565b606481565b60fa81565b6113d66113d06121ee565b82612345565b611415576040517f08c379a000000000000000000000000000000000000000000000000000000000815260040161140c90613fbb565b60405180910390fd5b6114208383836123da565b505050565b60a45481565b601281565b6000600154905090565b603c81565b60ab60009054906101000a900473ffffffffffffffffffffffffffffffffffffffff1673ffffffffffffffffffffffffffffffffffffffff163373ffffffffffffffffffffffffffffffffffffffff16146114cf576040517f08c379a00000000000000000000000000000000000000000000000000000000081526004016114c69061404d565b60405180910390fd5b60ab60009054906101000a900473ffffffffffffffffffffffffffffffffffffffff1673ffffffffffffffffffffffffffffffffffffffff166108fc479081150290604051600060405180830381858888f19350505050158015611537573d6000803e3d6000fd5b50565b60a760009054906101000a900460ff1681565b61156883838360405180602001604052806000815250611fbf565b505050565b60a65481565b6000601260ff16600a61158691906141a0565b6103e86115939190613bcb565b905090565b60ab60009054906101000a900473ffffffffffffffffffffffffffffffffffffffff1673ffffffffffffffffffffffffffffffffffffffff163373ffffffffffffffffffffffffffffffffffffffff1614611628576040517f08c379a000000000000000000000000000000000000000000000000000000000815260040161161f9061404d565b60405180910390fd5b8060a68190555050565b60008054905090565b601260ff16600a61164c91906141a0565b633b9aca0061165b9190613bcb565b81565b60aa6020528060005260406000206000915090505481565b600080611682836126d3565b9050600073ffffffffffffffffffffffffffffffffffffffff168173ffffffffffffffffffffffffffffffffffffffff16036116f3576040517f08c379a00000000000000000000000000000000000000000000000000000000081526004016116ea90614237565b60405180910390fd5b80915050919050565b600080600080600080600060a160008981526020019081526020016000205460001c905060006103e8603083901c16905060006103e8603c84901c1690506000600a6117488484611edf565b6117529190613bcb565b9050600060aa60008d8152602001908152602001600020546103e886166117799190613f15565b905060006103e8600c87901c1660fa6117929190613f15565b905060006103e8601888901c1660fa6117ab9190613f15565b905060006103e8602489901c1660fa6117c49190613f15565b9050600085111561186457606485856117dd9190613bcb565b6117e79190613ee4565b846117f29190613f15565b9350606485846118029190613bcb565b61180c9190613ee4565b836118179190613f15565b9250606485836118279190613bcb565b6118319190613ee4565b8261183c9190613f15565b91506064858261184c9190613bcb565b6118569190613ee4565b816118619190613f15565b90505b838383838a8a9d509d509d509d509d509d50505050505050505091939550919395565b6201000081565b60025481565b60008073ffffffffffffffffffffffffffffffffffffffff168273ffffffffffffffffffffffffffffffffffffffff1603611904576040517f08c379a00000000000000000000000000000000000000000000000000000000081526004016118fb906142c9565b60405180910390fd5b606f60008373ffffffffffffffffffffffffffffffffffffffff1673ffffffffffffffffffffffffffffffffffffffff168152602001908152602001600020549050919050565b600061195783836122af565b905092915050565b7e2000000000000000000000000000000000000000000000000000000000000081565b60a25481565b601260ff16600a61199991906141a0565b6103e86119a69190613bcb565b81565b60005481565b60ab60009054906101000a900473ffffffffffffffffffffffffffffffffffffffff1681565b6060606d80546119e490613b6b565b80601f0160208091040260200160405190810160405280929190818152602001828054611a1090613b6b565b8015611a5d5780601f10611a3257610100808354040283529160200191611a5d565b820191906000526020600020905b815481529060010190602001808311611a4057829003601f168201915b5050505050905090565b60038060000160009054906101000a900473ffffffffffffffffffffffffffffffffffffffff16908060010154908060020154908060030154905084565b609f8054611ab290613b6b565b80601f0160208091040260200160405190810160405280929190818152602001828054611ade90613b6b565b8015611b2b5780601f10611b0057610100808354040283529160200191611b2b565b820191906000526020600020905b815481529060010190602001808311611b0e57829003601f168201915b505050505081565b60ab60009054906101000a900473ffffffffffffffffffffffffffffffffffffffff1673ffffffffffffffffffffffffffffffffffffffff163373ffffffffffffffffffffffffffffffffffffffff1614611bc3576040517f08c379a0000000000000000000000000000000000000000000000000000000008152600401611bba9061404d565b60405180910390fd5b80609f9081611bd29190614495565b5050565b611be8611be16121ee565b8383612710565b5050565b6000609e54905090565b6000600760019054906101000a900460ff16159050808015611c2a57506001600760009054906101000a900460ff1660ff16105b80611c595750611c393061287c565b158015611c5857506001600760009054906101000a900460ff1660ff16145b5b611c98576040517f08c379a0000000000000000000000000000000000000000000000000000000008152600401611c8f906145d9565b60405180910390fd5b6001600760006101000a81548160ff021916908360ff1602179055508015611cd6576001600760016101000a81548160ff0219169083151502179055505b600073ffffffffffffffffffffffffffffffffffffffff1660ab60009054906101000a900473ffffffffffffffffffffffffffffffffffffffff1673ffffffffffffffffffffffffffffffffffffffff1614611d3157600080fd5b3360ab60006101000a81548173ffffffffffffffffffffffffffffffffffffffff021916908373ffffffffffffffffffffffffffffffffffffffff160217905550611d7b82611b33565b600143611d8891906145f9565b406000819055504360a3819055507e20000000000000000000000000000000000000000000000000000000000000600181905550666a94d74f43000060a681905550600a60a760006101000a81548160ff021916908360ff160217905550604051806101600160405280600060ff168152602001600560ff168152602001600a60ff168152602001600f60ff168152602001601660ff168152602001601d60ff168152602001602460ff168152602001602e60ff168152602001603860ff168152602001604260ff168152602001605060ff1681525060a890600b611e6e929190613117565b50611e79848461289f565b8015611ed3576000600760016101000a81548160ff0219169083151502179055507f7f26b83ff96e1f2b6a682f133852f6798a09c465da95921460cefb38474024986001604051611eca9190614668565b60405180910390a15b50505050565b60a05481565b60006101f4831115611f00576101f483611ef991906145f9565b9250611f11565b826101f4611f0e91906145f9565b92505b6101f4821115611f30576101f482611f2991906145f9565b9150611f41565b816101f4611f3e91906145f9565b91505b6000611f6f600284611f539190614683565b600286611f609190614683565b611f6a9190613f15565b6128fc565b9050605081611f7e9190613ee4565b91505092915050565b60026107d0611f969190613ee4565b81565b60a96020528060005260406000206000915054906101000a900460ff1681565b61040081565b611fd0611fca6121ee565b83612345565b61200f576040517f08c379a000000000000000000000000000000000000000000000000000000000815260040161200690613fbb565b60405180910390fd5b61201b848484846129db565b50505050565b60606000609f805461203290613b6b565b90501161204e576040518060200160405280600081525061207a565b609f61205983612a37565b60405160200161206a9291906147d9565b6040516020818303038152906040525b9050919050565b60a35481565b60a16020528060005260406000206000915090505481565b6000607160008473ffffffffffffffffffffffffffffffffffffffff1673ffffffffffffffffffffffffffffffffffffffff16815260200190815260200160002060008373ffffffffffffffffffffffffffffffffffffffff1673ffffffffffffffffffffffffffffffffffffffff16815260200190815260200160002060009054906101000a900460ff16905092915050565b60a55481565b60007f01ffc9a7000000000000000000000000000000000000000000000000000000007bffffffffffffffffffffffffffffffffffffffffffffffffffffffff1916827bffffffffffffffffffffffffffffffffffffffffffffffffffffffff1916149050919050565b6121ac81612b05565b6121eb576040517f08c379a00000000000000000000000000000000000000000000000000000000081526004016121e290614237565b60405180910390fd5b50565b600033905090565b816070600083815260200190815260200160002060006101000a81548173ffffffffffffffffffffffffffffffffffffffff021916908373ffffffffffffffffffffffffffffffffffffffff160217905550808273ffffffffffffffffffffffffffffffffffffffff1661226983611676565b73ffffffffffffffffffffffffffffffffffffffff167f8c5be1e5ebec7d5bd14f71427d1e84f3dd0314c0f7b2291e5b200ac8c7c3b92560405160405180910390a45050565b6000805433846040516020016122c793929190614892565b604051602081830303815290604052805190602001209050818114612321576040517f08c379a00000000000000000000000000000000000000000000000000000000081526004016123189061491b565b60405180910390fd5b92915050565b612341828260405180602001604052806000815250612b46565b5050565b60008061235183611676565b90508073ffffffffffffffffffffffffffffffffffffffff168473ffffffffffffffffffffffffffffffffffffffff1614806123935750612392818561209f565b5b806123d157508373ffffffffffffffffffffffffffffffffffffffff166123b98461104d565b73ffffffffffffffffffffffffffffffffffffffff16145b91505092915050565b8273ffffffffffffffffffffffffffffffffffffffff166123fa82611676565b73ffffffffffffffffffffffffffffffffffffffff1614612450576040517f08c379a0000000000000000000000000000000000000000000000000000000008152600401612447906149ad565b60405180910390fd5b600073ffffffffffffffffffffffffffffffffffffffff168273ffffffffffffffffffffffffffffffffffffffff16036124bf576040517f08c379a00000000000000000000000000000000000000000000000000000000081526004016124b690614a3f565b60405180910390fd5b6124cc8383836001612ba1565b8273ffffffffffffffffffffffffffffffffffffffff166124ec82611676565b73ffffffffffffffffffffffffffffffffffffffff1614612542576040517f08c379a0000000000000000000000000000000000000000000000000000000008152600401612539906149ad565b60405180910390fd5b6070600082815260200190815260200160002060006101000a81549073ffffffffffffffffffffffffffffffffffffffff02191690556001606f60008573ffffffffffffffffffffffffffffffffffffffff1673ffffffffffffffffffffffffffffffffffffffff168152602001908152602001600020600082825403925050819055506001606f60008473ffffffffffffffffffffffffffffffffffffffff1673ffffffffffffffffffffffffffffffffffffffff1681526020019081526020016000206000828254019250508190555081606e600083815260200190815260200160002060006101000a81548173ffffffffffffffffffffffffffffffffffffffff021916908373ffffffffffffffffffffffffffffffffffffffff160217905550808273ffffffffffffffffffffffffffffffffffffffff168473ffffffffffffffffffffffffffffffffffffffff167fddf252ad1be2c89b69c2b068fc378daa952ba7f163c4a11628f55a4df523b3ef60405160405180910390a46126ce8383836001612ba7565b505050565b6000606e600083815260200190815260200160002060009054906101000a900473ffffffffffffffffffffffffffffffffffffffff169050919050565b8173ffffffffffffffffffffffffffffffffffffffff168373ffffffffffffffffffffffffffffffffffffffff160361277e576040517f08c379a000000000000000000000000000000000000000000000000000000000815260040161277590614aab565b60405180910390fd5b80607160008573ffffffffffffffffffffffffffffffffffffffff1673ffffffffffffffffffffffffffffffffffffffff16815260200190815260200160002060008473ffffffffffffffffffffffffffffffffffffffff1673ffffffffffffffffffffffffffffffffffffffff16815260200190815260200160002060006101000a81548160ff0219169083151502179055508173ffffffffffffffffffffffffffffffffffffffff168373ffffffffffffffffffffffffffffffffffffffff167f17307eab39ab6107e8899845ad3d59bd9653f200f220920489ca2b5937696c318360405161286f91906132c3565b60405180910390a3505050565b6000808273ffffffffffffffffffffffffffffffffffffffff163b119050919050565b600760019054906101000a900460ff166128ee576040517f08c379a00000000000000000000000000000000000000000000000000000000081526004016128e590614b3d565b60405180910390fd5b6128f88282612bad565b5050565b60008160b59150710100000000000000000000000000000000008110612929578060801c90508160401b91505b69010000000000000000008110612947578060401c90508160201b91505b650100000000008110612961578060201c90508160101b91505b63010000008110612979578060101c90508160081b91505b620100008101820260121c9150818304820160011c9150818304820160011c9150818304820160011c9150818304820160011c9150818304820160011c9150818304820160011c9150818304820160011c915081828404108203915050919050565b6129e68484846123da565b6129f284848484612c20565b612a31576040517f08c379a0000000000000000000000000000000000000000000000000000000008152600401612a2890614bcf565b60405180910390fd5b50505050565b606060006001612a4684612da7565b01905060008167ffffffffffffffff811115612a6557612a64613711565b5b6040519080825280601f01601f191660200182016040528015612a975781602001600182028036833780820191505090505b509050600082602001820190505b600115612afa578080600190039150507f3031323334353637383961626364656600000000000000000000000000000000600a86061a8153600a8581612aee57612aed613eb5565b5b04945060008503612aa5575b819350505050919050565b60008073ffffffffffffffffffffffffffffffffffffffff16612b27836126d3565b73ffffffffffffffffffffffffffffffffffffffff1614159050919050565b612b508383612efa565b612b5d6000848484612c20565b612b9c576040517f08c379a0000000000000000000000000000000000000000000000000000000008152600401612b9390614bcf565b60405180910390fd5b505050565b50505050565b50505050565b600760019054906101000a900460ff16612bfc576040517f08c379a0000000000000000000000000000000000000000000000000000000008152600401612bf390614b3d565b60405180910390fd5b81606c9081612c0b9190614495565b5080606d9081612c1b9190614495565b505050565b6000612c418473ffffffffffffffffffffffffffffffffffffffff1661287c565b15612d9a578373ffffffffffffffffffffffffffffffffffffffff1663150b7a02612c6a6121ee565b8786866040518563ffffffff1660e01b8152600401612c8c9493929190614c44565b6020604051808303816000875af1925050508015612cc857506040513d601f19601f82011682018060405250810190612cc59190614ca5565b60015b612d4a573d8060008114612cf8576040519150601f19603f3d011682016040523d82523d6000602084013e612cfd565b606091505b506000815103612d42576040517f08c379a0000000000000000000000000000000000000000000000000000000008152600401612d3990614bcf565b60405180910390fd5b805181602001fd5b63150b7a0260e01b7bffffffffffffffffffffffffffffffffffffffffffffffffffffffff1916817bffffffffffffffffffffffffffffffffffffffffffffffffffffffff191614915050612d9f565b600190505b949350505050565b600080600090507a184f03e93ff9f4daa797ed6e38ed64bf6a1f0100000000000000008310612e05577a184f03e93ff9f4daa797ed6e38ed64bf6a1f0100000000000000008381612dfb57612dfa613eb5565b5b0492506040810190505b6d04ee2d6d415b85acef81000000008310612e42576d04ee2d6d415b85acef81000000008381612e3857612e37613eb5565b5b0492506020810190505b662386f26fc100008310612e7157662386f26fc100008381612e6757612e66613eb5565b5b0492506010810190505b6305f5e1008310612e9a576305f5e1008381612e9057612e8f613eb5565b5b0492506008810190505b6127108310612ebf576127108381612eb557612eb4613eb5565b5b0492506004810190505b60648310612ee25760648381612ed857612ed7613eb5565b5b0492506002810190505b600a8310612ef1576001810190505b80915050919050565b600073ffffffffffffffffffffffffffffffffffffffff168273ffffffffffffffffffffffffffffffffffffffff1603612f69576040517f08c379a0000000000000000000000000000000000000000000000000000000008152600401612f6090614d1e565b60405180910390fd5b612f7281612b05565b15612fb2576040517f08c379a0000000000000000000000000000000000000000000000000000000008152600401612fa990614d8a565b60405180910390fd5b612fc0600083836001612ba1565b612fc981612b05565b15613009576040517f08c379a000000000000000000000000000000000000000000000000000000000815260040161300090614d8a565b60405180910390fd5b6001606f60008473ffffffffffffffffffffffffffffffffffffffff1673ffffffffffffffffffffffffffffffffffffffff1681526020019081526020016000206000828254019250508190555081606e600083815260200190815260200160002060006101000a81548173ffffffffffffffffffffffffffffffffffffffff021916908373ffffffffffffffffffffffffffffffffffffffff160217905550808273ffffffffffffffffffffffffffffffffffffffff16600073ffffffffffffffffffffffffffffffffffffffff167fddf252ad1be2c89b69c2b068fc378daa952ba7f163c4a11628f55a4df523b3ef60405160405180910390a4613113600083836001612ba7565b5050565b82805482825590600052602060002090601f016020900481019282156131ad5791602002820160005b8382111561317e57835183826101000a81548160ff021916908360ff1602179055509260200192600101602081600001049283019260010302613140565b80156131ab5782816101000a81549060ff021916905560010160208160000104928301926001030261317e565b505b5090506131ba91906131be565b5090565b5b808211156131d75760008160009055506001016131bf565b5090565b6000819050919050565b6131ee816131db565b82525050565b600060208201905061320960008301846131e5565b92915050565b6000604051905090565b600080fd5b600080fd5b60007fffffffff0000000000000000000000000000000000000000000000000000000082169050919050565b61325881613223565b811461326357600080fd5b50565b6000813590506132758161324f565b92915050565b60006020828403121561329157613290613219565b5b600061329f84828501613266565b91505092915050565b60008115159050919050565b6132bd816132a8565b82525050565b60006020820190506132d860008301846132b4565b92915050565b6132e7816131db565b81146132f257600080fd5b50565b600081359050613304816132de565b92915050565b6000602082840312156133205761331f613219565b5b600061332e848285016132f5565b91505092915050565b600060ff82169050919050565b61334d81613337565b82525050565b60006020820190506133686000830184613344565b92915050565b600081519050919050565b600082825260208201905092915050565b60005b838110156133a857808201518184015260208101905061338d565b60008484015250505050565b6000601f19601f8301169050919050565b60006133d08261336e565b6133da8185613379565b93506133ea81856020860161338a565b6133f3816133b4565b840191505092915050565b6000602082019050818103600083015261341881846133c5565b905092915050565b61342981613337565b811461343457600080fd5b50565b60008135905061344681613420565b92915050565b60006020828403121561346257613461613219565b5b600061347084828501613437565b91505092915050565b600073ffffffffffffffffffffffffffffffffffffffff82169050919050565b60006134a482613479565b9050919050565b6134b481613499565b82525050565b60006020820190506134cf60008301846134ab565b92915050565b6134de81613499565b81146134e957600080fd5b50565b6000813590506134fb816134d5565b92915050565b6000806040838503121561351857613517613219565b5b6000613526858286016134ec565b9250506020613537858286016132f5565b9150509250929050565b6000819050919050565b61355481613541565b811461355f57600080fd5b50565b6000813590506135718161354b565b92915050565b6000806040838503121561358e5761358d613219565b5b600061359c858286016132f5565b92505060206135ad85828601613562565b9150509250929050565b6000806000606084860312156135d0576135cf613219565b5b60006135de868287016134ec565b93505060206135ef868287016134ec565b9250506040613600868287016132f5565b9150509250925092565b61361381613541565b82525050565b600060208201905061362e600083018461360a565b92915050565b600060c08201905061364960008301896131e5565b61365660208301886131e5565b61366360408301876131e5565b61367060608301866131e5565b61367d60808301856131e5565b61368a60a08301846131e5565b979650505050505050565b6000602082840312156136ab576136aa613219565b5b60006136b9848285016134ec565b91505092915050565b60006080820190506136d760008301876134ab565b6136e460208301866131e5565b6136f160408301856131e5565b6136fe60608301846131e5565b95945050505050565b600080fd5b600080fd5b7f4e487b7100000000000000000000000000000000000000000000000000000000600052604160045260246000fd5b613749826133b4565b810181811067ffffffffffffffff8211171561376857613767613711565b5b80604052505050565b600061377b61320f565b90506137878282613740565b919050565b600067ffffffffffffffff8211156137a7576137a6613711565b5b6137b0826133b4565b9050602081019050919050565b82818337600083830152505050565b60006137df6137da8461378c565b613771565b9050828152602081018484840111156137fb576137fa61370c565b5b6138068482856137bd565b509392505050565b600082601f83011261382357613822613707565b5b81356138338482602086016137cc565b91505092915050565b60006020828403121561385257613851613219565b5b600082013567ffffffffffffffff8111156138705761386f61321e565b5b61387c8482850161380e565b91505092915050565b61388e816132a8565b811461389957600080fd5b50565b6000813590506138ab81613885565b92915050565b600080604083850312156138c8576138c7613219565b5b60006138d6858286016134ec565b92505060206138e78582860161389c565b9150509250929050565b60008060006060848603121561390a57613909613219565b5b600084013567ffffffffffffffff8111156139285761392761321e565b5b6139348682870161380e565b935050602084013567ffffffffffffffff8111156139555761395461321e565b5b6139618682870161380e565b925050604084013567ffffffffffffffff8111156139825761398161321e565b5b61398e8682870161380e565b9150509250925092565b600080604083850312156139af576139ae613219565b5b60006139bd858286016132f5565b92505060206139ce858286016132f5565b9150509250929050565b600067ffffffffffffffff8211156139f3576139f2613711565b5b6139fc826133b4565b9050602081019050919050565b6000613a1c613a17846139d8565b613771565b905082815260208101848484011115613a3857613a3761370c565b5b613a438482856137bd565b509392505050565b600082601f830112613a6057613a5f613707565b5b8135613a70848260208601613a09565b91505092915050565b60008060008060808587031215613a9357613a92613219565b5b6000613aa1878288016134ec565b9450506020613ab2878288016134ec565b9350506040613ac3878288016132f5565b925050606085013567ffffffffffffffff811115613ae457613ae361321e565b5b613af087828801613a4b565b91505092959194509250565b60008060408385031215613b1357613b12613219565b5b6000613b21858286016134ec565b9250506020613b32858286016134ec565b9150509250929050565b7f4e487b7100000000000000000000000000000000000000000000000000000000600052602260045260246000fd5b60006002820490506001821680613b8357607f821691505b602082108103613b9657613b95613b3c565b5b50919050565b7f4e487b7100000000000000000000000000000000000000000000000000000000600052601160045260246000fd5b6000613bd6826131db565b9150613be1836131db565b9250828202613bef816131db565b91508282048414831517613c0657613c05613b9c565b5b5092915050565b6000613c1882613337565b9150613c2383613337565b9250828201905060ff811115613c3c57613c3b613b9c565b5b92915050565b7f4552433732313a20617070726f76616c20746f2063757272656e74206f776e6560008201527f7200000000000000000000000000000000000000000000000000000000000000602082015250565b6000613c9e602183613379565b9150613ca982613c42565b604082019050919050565b60006020820190508181036000830152613ccd81613c91565b9050919050565b7f4552433732313a20617070726f76652063616c6c6572206973206e6f7420746f60008201527f6b656e206f776e6572206f7220617070726f76656420666f7220616c6c000000602082015250565b6000613d30603d83613379565b9150613d3b82613cd4565b604082019050919050565b60006020820190508181036000830152613d5f81613d23565b9050919050565b6000613d71826131db565b91507fffffffffffffffffffffffffffffffffffffffffffffffffffffffffffffffff8203613da357613da2613b9c565b5b600182019050919050565b7f4e6f6e636520696e636f72726563740000000000000000000000000000000000600082015250565b6000613de4600f83613379565b9150613def82613dae565b602082019050919050565b60006020820190508181036000830152613e1381613dd7565b9050919050565b7f536f6c7574696f6e206578697374000000000000000000000000000000000000600082015250565b6000613e50600e83613379565b9150613e5b82613e1a565b602082019050919050565b60006020820190508181036000830152613e7f81613e43565b9050919050565b7f4e487b7100000000000000000000000000000000000000000000000000000000600052603260045260246000fd5b7f4e487b7100000000000000000000000000000000000000000000000000000000600052601260045260246000fd5b6000613eef826131db565b9150613efa836131db565b925082613f0a57613f09613eb5565b5b828204905092915050565b6000613f20826131db565b9150613f2b836131db565b9250828201905080821115613f4357613f42613b9c565b5b92915050565b7f4552433732313a2063616c6c6572206973206e6f7420746f6b656e206f776e6560008201527f72206f7220617070726f76656400000000000000000000000000000000000000602082015250565b6000613fa5602d83613379565b9150613fb082613f49565b604082019050919050565b60006020820190508181036000830152613fd481613f98565b9050919050565b7f4f6e6c79206f776e657220697320616c6c6f77656420746f20706572666f726d60008201527f207468697320616374696f6e0000000000000000000000000000000000000000602082015250565b6000614037602c83613379565b915061404282613fdb565b604082019050919050565b600060208201905081810360008301526140668161402a565b9050919050565b60008160011c9050919050565b6000808291508390505b60018511156140c4578086048111156140a05761409f613b9c565b5b60018516156140af5780820291505b80810290506140bd8561406d565b9450614084565b94509492505050565b6000826140dd5760019050614199565b816140eb5760009050614199565b8160018114614101576002811461410b5761413a565b6001915050614199565b60ff84111561411d5761411c613b9c565b5b8360020a91508482111561413457614133613b9c565b5b50614199565b5060208310610133831016604e8410600b841016171561416f5782820a90508381111561416a57614169613b9c565b5b614199565b61417c848484600161407a565b9250905081840481111561419357614192613b9c565b5b81810290505b9392505050565b60006141ab826131db565b91506141b6836131db565b92506141e37fffffffffffffffffffffffffffffffffffffffffffffffffffffffffffffffff84846140cd565b905092915050565b7f4552433732313a20696e76616c696420746f6b656e2049440000000000000000600082015250565b6000614221601883613379565b915061422c826141eb565b602082019050919050565b6000602082019050818103600083015261425081614214565b9050919050565b7f4552433732313a2061646472657373207a65726f206973206e6f74206120766160008201527f6c6964206f776e65720000000000000000000000000000000000000000000000602082015250565b60006142b3602983613379565b91506142be82614257565b604082019050919050565b600060208201905081810360008301526142e2816142a6565b9050919050565b60008190508160005260206000209050919050565b60006020601f8301049050919050565b600082821b905092915050565b60006008830261434b7fffffffffffffffffffffffffffffffffffffffffffffffffffffffffffffffff8261430e565b614355868361430e565b95508019841693508086168417925050509392505050565b6000819050919050565b600061439261438d614388846131db565b61436d565b6131db565b9050919050565b6000819050919050565b6143ac83614377565b6143c06143b882614399565b84845461431b565b825550505050565b600090565b6143d56143c8565b6143e08184846143a3565b505050565b5b81811015614404576143f96000826143cd565b6001810190506143e6565b5050565b601f8211156144495761441a816142e9565b614423846142fe565b81016020851015614432578190505b61444661443e856142fe565b8301826143e5565b50505b505050565b600082821c905092915050565b600061446c6000198460080261444e565b1980831691505092915050565b6000614485838361445b565b9150826002028217905092915050565b61449e8261336e565b67ffffffffffffffff8111156144b7576144b6613711565b5b6144c18254613b6b565b6144cc828285614408565b600060209050601f8311600181146144ff57600084156144ed578287015190505b6144f78582614479565b86555061455f565b601f19841661450d866142e9565b60005b8281101561453557848901518255600182019150602085019450602081019050614510565b86831015614552578489015161454e601f89168261445b565b8355505b6001600288020188555050505b505050505050565b7f496e697469616c697a61626c653a20636f6e747261637420697320616c72656160008201527f647920696e697469616c697a6564000000000000000000000000000000000000602082015250565b60006145c3602e83613379565b91506145ce82614567565b604082019050919050565b600060208201905081810360008301526145f2816145b6565b9050919050565b6000614604826131db565b915061460f836131db565b925082820390508181111561462757614626613b9c565b5b92915050565b6000819050919050565b600061465261464d6146488461462d565b61436d565b613337565b9050919050565b61466281614637565b82525050565b600060208201905061467d6000830184614659565b92915050565b600061468e826131db565b915061469983613337565b92506146c67fffffffffffffffffffffffffffffffffffffffffffffffffffffffffffffffff84846140cd565b905092915050565b600081905092915050565b600081546146e681613b6b565b6146f081866146ce565b9450600182166000811461470b576001811461472057614753565b60ff1983168652811515820286019350614753565b614729856142e9565b60005b8381101561474b5781548189015260018201915060208101905061472c565b838801955050505b50505092915050565b60006147678261336e565b61477181856146ce565b935061478181856020860161338a565b80840191505092915050565b7f2e6a736f6e000000000000000000000000000000000000000000000000000000600082015250565b60006147c36005836146ce565b91506147ce8261478d565b600582019050919050565b60006147e582856146d9565b91506147f1828461475c565b91506147fc826147b6565b91508190509392505050565b6000819050919050565b61482361481e82613541565b614808565b82525050565b60008160601b9050919050565b600061484182614829565b9050919050565b600061485382614836565b9050919050565b61486b61486682613499565b614848565b82525050565b6000819050919050565b61488c614887826131db565b614871565b82525050565b600061489e8286614812565b6020820191506148ae828561485a565b6014820191506148be828461487b565b602082019150819050949350505050565b7f44696765737420697320646966666572656e7400000000000000000000000000600082015250565b6000614905601383613379565b9150614910826148cf565b602082019050919050565b60006020820190508181036000830152614934816148f8565b9050919050565b7f4552433732313a207472616e736665722066726f6d20696e636f72726563742060008201527f6f776e6572000000000000000000000000000000000000000000000000000000602082015250565b6000614997602583613379565b91506149a28261493b565b604082019050919050565b600060208201905081810360008301526149c68161498a565b9050919050565b7f4552433732313a207472616e7366657220746f20746865207a65726f2061646460008201527f7265737300000000000000000000000000000000000000000000000000000000602082015250565b6000614a29602483613379565b9150614a34826149cd565b604082019050919050565b60006020820190508181036000830152614a5881614a1c565b9050919050565b7f4552433732313a20617070726f766520746f2063616c6c657200000000000000600082015250565b6000614a95601983613379565b9150614aa082614a5f565b602082019050919050565b60006020820190508181036000830152614ac481614a88565b9050919050565b7f496e697469616c697a61626c653a20636f6e7472616374206973206e6f74206960008201527f6e697469616c697a696e67000000000000000000000000000000000000000000602082015250565b6000614b27602b83613379565b9150614b3282614acb565b604082019050919050565b60006020820190508181036000830152614b5681614b1a565b9050919050565b7f4552433732313a207472616e7366657220746f206e6f6e20455243373231526560008201527f63656976657220696d706c656d656e7465720000000000000000000000000000602082015250565b6000614bb9603283613379565b9150614bc482614b5d565b604082019050919050565b60006020820190508181036000830152614be881614bac565b9050919050565b600081519050919050565b600082825260208201905092915050565b6000614c1682614bef565b614c208185614bfa565b9350614c3081856020860161338a565b614c39816133b4565b840191505092915050565b6000608082019050614c5960008301876134ab565b614c6660208301866134ab565b614c7360408301856131e5565b8181036060830152614c858184614c0b565b905095945050505050565b600081519050614c9f8161324f565b92915050565b600060208284031215614cbb57614cba613219565b5b6000614cc984828501614c90565b91505092915050565b7f4552433732313a206d696e7420746f20746865207a65726f2061646472657373600082015250565b6000614d08602083613379565b9150614d1382614cd2565b602082019050919050565b60006020820190508181036000830152614d3781614cfb565b9050919050565b7f4552433732313a20746f6b656e20616c7265616479206d696e74656400000000600082015250565b6000614d74601c83613379565b9150614d7f82614d3e565b602082019050919050565b60006020820190508181036000830152614da381614d67565b905091905056fea2646970667358221220d62b0ed9bf052bec7e8d6a56daf63af037ec2429b8eeeea9136ff04308b9f1c764736f6c63430008120033","opcodes":"PUSH1 0x80 PUSH1 0x40 MSTORE CALLVALUE DUP1 ISZERO PUSH2 0x10 JUMPI PUSH1 0x0 DUP1 REVERT JUMPDEST POP PUSH2 0x4DE0 DUP1 PUSH2 0x20 PUSH1 0x0 CODECOPY PUSH1 0x0 RETURN INVALID PUSH1 0x80 PUSH1 0x40 MSTORE PUSH1 0x4 CALLDATASIZE LT PUSH2 0x36A JUMPI PUSH1 0x0 CALLDATALOAD PUSH1 0xE0 SHR DUP1 PUSH4 0x6A2E19A2 GT PUSH2 0x1C6 JUMPI DUP1 PUSH4 0xA22CB465 GT PUSH2 0xF7 JUMPI DUP1 PUSH4 0xB7304272 GT PUSH2 0x95 JUMPI DUP1 PUSH4 0xCB9AE707 GT PUSH2 0x6F JUMPI DUP1 PUSH4 0xCB9AE707 EQ PUSH2 0xCD8 JUMPI DUP1 PUSH4 0xE09FEAE3 EQ PUSH2 0xD03 JUMPI DUP1 PUSH4 0xE985E9C5 EQ PUSH2 0xD40 JUMPI DUP1 PUSH4 0xEE2E5612 EQ PUSH2 0xD7D JUMPI PUSH2 0x36A JUMP JUMPDEST DUP1 PUSH4 0xB7304272 EQ PUSH2 0xC47 JUMPI DUP1 PUSH4 0xB88D4FDE EQ PUSH2 0xC72 JUMPI DUP1 PUSH4 0xC87B56DD EQ PUSH2 0xC9B JUMPI PUSH2 0x36A JUMP JUMPDEST DUP1 PUSH4 0xAC693778 GT PUSH2 0xD1 JUMPI DUP1 PUSH4 0xAC693778 EQ PUSH2 0xB77 JUMPI DUP1 PUSH4 0xACF86C87 EQ PUSH2 0xBA2 JUMPI DUP1 PUSH4 0xAD1DFE3B EQ PUSH2 0xBDF JUMPI DUP1 PUSH4 0xB57D7283 EQ PUSH2 0xC0A JUMPI PUSH2 0x36A JUMP JUMPDEST DUP1 PUSH4 0xA22CB465 EQ PUSH2 0xAFA JUMPI DUP1 PUSH4 0xA465EEAF EQ PUSH2 0xB23 JUMPI DUP1 PUSH4 0xA6487C53 EQ PUSH2 0xB4E JUMPI PUSH2 0x36A JUMP JUMPDEST DUP1 PUSH4 0x82C890FD GT PUSH2 0x164 JUMPI DUP1 PUSH4 0x95D89B41 GT PUSH2 0x13E JUMPI DUP1 PUSH4 0x95D89B41 EQ PUSH2 0xA4D JUMPI DUP1 PUSH4 0x95E272BD EQ PUSH2 0xA78 JUMPI DUP1 PUSH4 0x9ABC8320 EQ PUSH2 0xAA6 JUMPI DUP1 PUSH4 0xA0BCFC7F EQ PUSH2 0xAD1 JUMPI PUSH2 0x36A JUMP JUMPDEST DUP1 PUSH4 0x82C890FD EQ PUSH2 0x9CC JUMPI DUP1 PUSH4 0x8AE0368B EQ PUSH2 0x9F7 JUMPI DUP1 PUSH4 0x8DA5CB5B EQ PUSH2 0xA22 JUMPI PUSH2 0x36A JUMP JUMPDEST DUP1 PUSH4 0x70A08231 GT PUSH2 0x1A0 JUMPI DUP1 PUSH4 0x70A08231 EQ PUSH2 0x8FC JUMPI DUP1 PUSH4 0x7C2D542C EQ PUSH2 0x939 JUMPI DUP1 PUSH4 0x7C7F3206 EQ PUSH2 0x976 JUMPI DUP1 PUSH4 0x829965CC EQ PUSH2 0x9A1 JUMPI PUSH2 0x36A JUMP JUMPDEST DUP1 PUSH4 0x6A2E19A2 EQ PUSH2 0x864 JUMPI DUP1 PUSH4 0x6A586594 EQ PUSH2 0x8A6 JUMPI DUP1 PUSH4 0x6DE9F32B EQ PUSH2 0x8D1 JUMPI PUSH2 0x36A JUMP JUMPDEST DUP1 PUSH4 0x2D38BF7A GT PUSH2 0x2A0 JUMPI DUP1 PUSH4 0x47E9C095 GT PUSH2 0x23E JUMPI DUP1 PUSH4 0x4EF37628 GT PUSH2 0x218 JUMPI DUP1 PUSH4 0x4EF37628 EQ PUSH2 0x794 JUMPI DUP1 PUSH4 0x4FA972E1 EQ PUSH2 0x7BF JUMPI DUP1 PUSH4 0x56B757BE EQ PUSH2 0x7EA JUMPI DUP1 PUSH4 0x6352211E EQ PUSH2 0x827 JUMPI PUSH2 0x36A JUMP JUMPDEST DUP1 PUSH4 0x47E9C095 EQ PUSH2 0x715 JUMPI DUP1 PUSH4 0x490203A7 EQ PUSH2 0x740 JUMPI DUP1 PUSH4 0x4E802139 EQ PUSH2 0x76B JUMPI PUSH2 0x36A JUMP JUMPDEST DUP1 PUSH4 0x3426E5F5 GT PUSH2 0x27A JUMPI DUP1 PUSH4 0x3426E5F5 EQ PUSH2 0x67F JUMPI DUP1 PUSH4 0x3CCFD60B EQ PUSH2 0x6AA JUMPI DUP1 PUSH4 0x3D85D614 EQ PUSH2 0x6C1 JUMPI DUP1 PUSH4 0x42842E0E EQ PUSH2 0x6EC JUMPI PUSH2 0x36A JUMP JUMPDEST DUP1 PUSH4 0x2D38BF7A EQ PUSH2 0x5FE JUMPI DUP1 PUSH4 0x313CE567 EQ PUSH2 0x629 JUMPI DUP1 PUSH4 0x32E99708 EQ PUSH2 0x654 JUMPI PUSH2 0x36A JUMP JUMPDEST DUP1 PUSH4 0x95EA7B3 GT PUSH2 0x30D JUMPI DUP1 PUSH4 0x19CAE462 GT PUSH2 0x2E7 JUMPI DUP1 PUSH4 0x19CAE462 EQ PUSH2 0x554 JUMPI DUP1 PUSH4 0x1BEDDF1C EQ PUSH2 0x57F JUMPI DUP1 PUSH4 0x22009AF6 EQ PUSH2 0x5AA JUMPI DUP1 PUSH4 0x23B872DD EQ PUSH2 0x5D5 JUMPI PUSH2 0x36A JUMP JUMPDEST DUP1 PUSH4 0x95EA7B3 EQ PUSH2 0x4C3 JUMPI DUP1 PUSH4 0x17DA485F EQ PUSH2 0x4EC JUMPI DUP1 PUSH4 0x1801FBE5 EQ PUSH2 0x517 JUMPI PUSH2 0x36A JUMP JUMPDEST DUP1 PUSH4 0x6FDDE03 GT PUSH2 0x349 JUMPI DUP1 PUSH4 0x6FDDE03 EQ PUSH2 0x414 JUMPI DUP1 PUSH4 0x7A11AEB EQ PUSH2 0x43F JUMPI DUP1 PUSH4 0x81812FC EQ PUSH2 0x45B JUMPI DUP1 PUSH4 0x95B6D4C EQ PUSH2 0x498 JUMPI PUSH2 0x36A JUMP JUMPDEST DUP1 PUSH3 0x9A9B7B EQ PUSH2 0x36F JUMPI DUP1 PUSH4 0x1FFC9A7 EQ PUSH2 0x39A JUMPI DUP1 PUSH4 0x3CA2F53 EQ PUSH2 0x3D7 JUMPI JUMPDEST PUSH1 0x0 DUP1 REVERT JUMPDEST CALLVALUE DUP1 ISZERO PUSH2 0x37B JUMPI PUSH1 0x0 DUP1 REVERT JUMPDEST POP PUSH2 0x384 PUSH2 0xDA8 JUMP JUMPDEST PUSH1 0x40 MLOAD PUSH2 0x391 SWAP2 SWAP1 PUSH2 0x31F4 JUMP JUMPDEST PUSH1 0x40 MLOAD DUP1 SWAP2 SUB SWAP1 RETURN JUMPDEST CALLVALUE DUP1 ISZERO PUSH2 0x3A6 JUMPI PUSH1 0x0 DUP1 REVERT JUMPDEST POP PUSH2 0x3C1 PUSH1 0x4 DUP1 CALLDATASIZE SUB DUP2 ADD SWAP1 PUSH2 0x3BC SWAP2 SWAP1 PUSH2 0x327B JUMP JUMPDEST PUSH2 0xDAE JUMP JUMPDEST PUSH1 0x40 MLOAD PUSH2 0x3CE SWAP2 SWAP1 PUSH2 0x32C3 JUMP JUMPDEST PUSH1 0x40 MLOAD DUP1 SWAP2 SUB SWAP1 RETURN JUMPDEST CALLVALUE DUP1 ISZERO PUSH2 0x3E3 JUMPI PUSH1 0x0 DUP1 REVERT JUMPDEST POP PUSH2 0x3FE PUSH1 0x4 DUP1 CALLDATASIZE SUB DUP2 ADD SWAP1 PUSH2 0x3F9 SWAP2 SWAP1 PUSH2 0x330A JUMP JUMPDEST PUSH2 0xE90 JUMP JUMPDEST PUSH1 0x40 MLOAD PUSH2 0x40B SWAP2 SWAP1 PUSH2 0x3353 JUMP JUMPDEST PUSH1 0x40 MLOAD DUP1 SWAP2 SUB SWAP1 RETURN JUMPDEST CALLVALUE DUP1 ISZERO PUSH2 0x420 JUMPI PUSH1 0x0 DUP1 REVERT JUMPDEST POP PUSH2 0x429 PUSH2 0xEC4 JUMP JUMPDEST PUSH1 0x40 MLOAD PUSH2 0x436 SWAP2 SWAP1 PUSH2 0x33FE JUMP JUMPDEST PUSH1 0x40 MLOAD DUP1 SWAP2 SUB SWAP1 RETURN JUMPDEST PUSH2 0x459 PUSH1 0x4 DUP1 CALLDATASIZE SUB DUP2 ADD SWAP1 PUSH2 0x454 SWAP2 SWAP1 PUSH2 0x344C JUMP JUMPDEST PUSH2 0xF56 JUMP JUMPDEST STOP JUMPDEST CALLVALUE DUP1 ISZERO PUSH2 0x467 JUMPI PUSH1 0x0 DUP1 REVERT JUMPDEST POP PUSH2 0x482 PUSH1 0x4 DUP1 CALLDATASIZE SUB DUP2 ADD SWAP1 PUSH2 0x47D SWAP2 SWAP1 PUSH2 0x330A JUMP JUMPDEST PUSH2 0x104D JUMP JUMPDEST PUSH1 0x40 MLOAD PUSH2 0x48F SWAP2 SWAP1 PUSH2 0x34BA JUMP JUMPDEST PUSH1 0x40 MLOAD DUP1 SWAP2 SUB SWAP1 RETURN JUMPDEST CALLVALUE DUP1 ISZERO PUSH2 0x4A4 JUMPI PUSH1 0x0 DUP1 REVERT JUMPDEST POP PUSH2 0x4AD PUSH2 0x1093 JUMP JUMPDEST PUSH1 0x40 MLOAD PUSH2 0x4BA SWAP2 SWAP1 PUSH2 0x31F4 JUMP JUMPDEST PUSH1 0x40 MLOAD DUP1 SWAP2 SUB SWAP1 RETURN JUMPDEST CALLVALUE DUP1 ISZERO PUSH2 0x4CF JUMPI PUSH1 0x0 DUP1 REVERT JUMPDEST POP PUSH2 0x4EA PUSH1 0x4 DUP1 CALLDATASIZE SUB DUP2 ADD SWAP1 PUSH2 0x4E5 SWAP2 SWAP1 PUSH2 0x3501 JUMP JUMPDEST PUSH2 0x1099 JUMP JUMPDEST STOP JUMPDEST CALLVALUE DUP1 ISZERO PUSH2 0x4F8 JUMPI PUSH1 0x0 DUP1 REVERT JUMPDEST POP PUSH2 0x501 PUSH2 0x11B0 JUMP JUMPDEST PUSH1 0x40 MLOAD PUSH2 0x50E SWAP2 SWAP1 PUSH2 0x31F4 JUMP JUMPDEST PUSH1 0x40 MLOAD DUP1 SWAP2 SUB SWAP1 RETURN JUMPDEST CALLVALUE DUP1 ISZERO PUSH2 0x523 JUMPI PUSH1 0x0 DUP1 REVERT JUMPDEST POP PUSH2 0x53E PUSH1 0x4 DUP1 CALLDATASIZE SUB DUP2 ADD SWAP1 PUSH2 0x539 SWAP2 SWAP1 PUSH2 0x3577 JUMP JUMPDEST PUSH2 0x11BA JUMP JUMPDEST PUSH1 0x40 MLOAD PUSH2 0x54B SWAP2 SWAP1 PUSH2 0x32C3 JUMP JUMPDEST PUSH1 0x40 MLOAD DUP1 SWAP2 SUB SWAP1 RETURN JUMPDEST CALLVALUE DUP1 ISZERO PUSH2 0x560 JUMPI PUSH1 0x0 DUP1 REVERT JUMPDEST POP PUSH2 0x569 PUSH2 0x13B5 JUMP JUMPDEST PUSH1 0x40 MLOAD PUSH2 0x576 SWAP2 SWAP1 PUSH2 0x31F4 JUMP JUMPDEST PUSH1 0x40 MLOAD DUP1 SWAP2 SUB SWAP1 RETURN JUMPDEST CALLVALUE DUP1 ISZERO PUSH2 0x58B JUMPI PUSH1 0x0 DUP1 REVERT JUMPDEST POP PUSH2 0x594 PUSH2 0x13BB JUMP JUMPDEST PUSH1 0x40 MLOAD PUSH2 0x5A1 SWAP2 SWAP1 PUSH2 0x31F4 JUMP JUMPDEST PUSH1 0x40 MLOAD DUP1 SWAP2 SUB SWAP1 RETURN JUMPDEST CALLVALUE DUP1 ISZERO PUSH2 0x5B6 JUMPI PUSH1 0x0 DUP1 REVERT JUMPDEST POP PUSH2 0x5BF PUSH2 0x13C0 JUMP JUMPDEST PUSH1 0x40 MLOAD PUSH2 0x5CC SWAP2 SWAP1 PUSH2 0x31F4 JUMP JUMPDEST PUSH1 0x40 MLOAD DUP1 SWAP2 SUB SWAP1 RETURN JUMPDEST CALLVALUE DUP1 ISZERO PUSH2 0x5E1 JUMPI PUSH1 0x0 DUP1 REVERT JUMPDEST POP PUSH2 0x5FC PUSH1 0x4 DUP1 CALLDATASIZE SUB DUP2 ADD SWAP1 PUSH2 0x5F7 SWAP2 SWAP1 PUSH2 0x35B7 JUMP JUMPDEST PUSH2 0x13C5 JUMP JUMPDEST STOP JUMPDEST CALLVALUE DUP1 ISZERO PUSH2 0x60A JUMPI PUSH1 0x0 DUP1 REVERT JUMPDEST POP PUSH2 0x613 PUSH2 0x1425 JUMP JUMPDEST PUSH1 0x40 MLOAD PUSH2 0x620 SWAP2 SWAP1 PUSH2 0x31F4 JUMP JUMPDEST PUSH1 0x40 MLOAD DUP1 SWAP2 SUB SWAP1 RETURN JUMPDEST CALLVALUE DUP1 ISZERO PUSH2 0x635 JUMPI PUSH1 0x0 DUP1 REVERT JUMPDEST POP PUSH2 0x63E PUSH2 0x142B JUMP JUMPDEST PUSH1 0x40 MLOAD PUSH2 0x64B SWAP2 SWAP1 PUSH2 0x3353 JUMP JUMPDEST PUSH1 0x40 MLOAD DUP1 SWAP2 SUB SWAP1 RETURN JUMPDEST CALLVALUE DUP1 ISZERO PUSH2 0x660 JUMPI PUSH1 0x0 DUP1 REVERT JUMPDEST POP PUSH2 0x669 PUSH2 0x1430 JUMP JUMPDEST PUSH1 0x40 MLOAD PUSH2 0x676 SWAP2 SWAP1 PUSH2 0x31F4 JUMP JUMPDEST PUSH1 0x40 MLOAD DUP1 SWAP2 SUB SWAP1 RETURN JUMPDEST CALLVALUE DUP1 ISZERO PUSH2 0x68B JUMPI PUSH1 0x0 DUP1 REVERT JUMPDEST POP PUSH2 0x694 PUSH2 0x143A JUMP JUMPDEST PUSH1 0x40 MLOAD PUSH2 0x6A1 SWAP2 SWAP1 PUSH2 0x31F4 JUMP JUMPDEST PUSH1 0x40 MLOAD DUP1 SWAP2 SUB SWAP1 RETURN JUMPDEST CALLVALUE DUP1 ISZERO PUSH2 0x6B6 JUMPI PUSH1 0x0 DUP1 REVERT JUMPDEST POP PUSH2 0x6BF PUSH2 0x143F JUMP JUMPDEST STOP JUMPDEST CALLVALUE DUP1 ISZERO PUSH2 0x6CD JUMPI PUSH1 0x0 DUP1 REVERT JUMPDEST POP PUSH2 0x6D6 PUSH2 0x153A JUMP JUMPDEST PUSH1 0x40 MLOAD PUSH2 0x6E3 SWAP2 SWAP1 PUSH2 0x3353 JUMP JUMPDEST PUSH1 0x40 MLOAD DUP1 SWAP2 SUB SWAP1 RETURN JUMPDEST CALLVALUE DUP1 ISZERO PUSH2 0x6F8 JUMPI PUSH1 0x0 DUP1 REVERT JUMPDEST POP PUSH2 0x713 PUSH1 0x4 DUP1 CALLDATASIZE SUB DUP2 ADD SWAP1 PUSH2 0x70E SWAP2 SWAP1 PUSH2 0x35B7 JUMP JUMPDEST PUSH2 0x154D JUMP JUMPDEST STOP JUMPDEST CALLVALUE DUP1 ISZERO PUSH2 0x721 JUMPI PUSH1 0x0 DUP1 REVERT JUMPDEST POP PUSH2 0x72A PUSH2 0x156D JUMP JUMPDEST PUSH1 0x40 MLOAD PUSH2 0x737 SWAP2 SWAP1 PUSH2 0x31F4 JUMP JUMPDEST PUSH1 0x40 MLOAD DUP1 SWAP2 SUB SWAP1 RETURN JUMPDEST CALLVALUE DUP1 ISZERO PUSH2 0x74C JUMPI PUSH1 0x0 DUP1 REVERT JUMPDEST POP PUSH2 0x755 PUSH2 0x1573 JUMP JUMPDEST PUSH1 0x40 MLOAD PUSH2 0x762 SWAP2 SWAP1 PUSH2 0x31F4 JUMP JUMPDEST PUSH1 0x40 MLOAD DUP1 SWAP2 SUB SWAP1 RETURN JUMPDEST CALLVALUE DUP1 ISZERO PUSH2 0x777 JUMPI PUSH1 0x0 DUP1 REVERT JUMPDEST POP PUSH2 0x792 PUSH1 0x4 DUP1 CALLDATASIZE SUB DUP2 ADD SWAP1 PUSH2 0x78D SWAP2 SWAP1 PUSH2 0x330A JUMP JUMPDEST PUSH2 0x1598 JUMP JUMPDEST STOP JUMPDEST CALLVALUE DUP1 ISZERO PUSH2 0x7A0 JUMPI PUSH1 0x0 DUP1 REVERT JUMPDEST POP PUSH2 0x7A9 PUSH2 0x1632 JUMP JUMPDEST PUSH1 0x40 MLOAD PUSH2 0x7B6 SWAP2 SWAP1 PUSH2 0x3619 JUMP JUMPDEST PUSH1 0x40 MLOAD DUP1 SWAP2 SUB SWAP1 RETURN JUMPDEST CALLVALUE DUP1 ISZERO PUSH2 0x7CB JUMPI PUSH1 0x0 DUP1 REVERT JUMPDEST POP PUSH2 0x7D4 PUSH2 0x163B JUMP JUMPDEST PUSH1 0x40 MLOAD PUSH2 0x7E1 SWAP2 SWAP1 PUSH2 0x31F4 JUMP JUMPDEST PUSH1 0x40 MLOAD DUP1 SWAP2 SUB SWAP1 RETURN JUMPDEST CALLVALUE DUP1 ISZERO PUSH2 0x7F6 JUMPI PUSH1 0x0 DUP1 REVERT JUMPDEST POP PUSH2 0x811 PUSH1 0x4 DUP1 CALLDATASIZE SUB DUP2 ADD SWAP1 PUSH2 0x80C SWAP2 SWAP1 PUSH2 0x330A JUMP JUMPDEST PUSH2 0x165E JUMP JUMPDEST PUSH1 0x40 MLOAD PUSH2 0x81E SWAP2 SWAP1 PUSH2 0x31F4 JUMP JUMPDEST PUSH1 0x40 MLOAD DUP1 SWAP2 SUB SWAP1 RETURN JUMPDEST CALLVALUE DUP1 ISZERO PUSH2 0x833 JUMPI PUSH1 0x0 DUP1 REVERT JUMPDEST POP PUSH2 0x84E PUSH1 0x4 DUP1 CALLDATASIZE SUB DUP2 ADD SWAP1 PUSH2 0x849 SWAP2 SWAP1 PUSH2 0x330A JUMP JUMPDEST PUSH2 0x1676 JUMP JUMPDEST PUSH1 0x40 MLOAD PUSH2 0x85B SWAP2 SWAP1 PUSH2 0x34BA JUMP JUMPDEST PUSH1 0x40 MLOAD DUP1 SWAP2 SUB SWAP1 RETURN JUMPDEST CALLVALUE DUP1 ISZERO PUSH2 0x870 JUMPI PUSH1 0x0 DUP1 REVERT JUMPDEST POP PUSH2 0x88B PUSH1 0x4 DUP1 CALLDATASIZE SUB DUP2 ADD SWAP1 PUSH2 0x886 SWAP2 SWAP1 PUSH2 0x330A JUMP JUMPDEST PUSH2 0x16FC JUMP JUMPDEST PUSH1 0x40 MLOAD PUSH2 0x89D SWAP7 SWAP6 SWAP5 SWAP4 SWAP3 SWAP2 SWAP1 PUSH2 0x3634 JUMP JUMPDEST PUSH1 0x40 MLOAD DUP1 SWAP2 SUB SWAP1 RETURN JUMPDEST CALLVALUE DUP1 ISZERO PUSH2 0x8B2 JUMPI PUSH1 0x0 DUP1 REVERT JUMPDEST POP PUSH2 0x8BB PUSH2 0x1887 JUMP JUMPDEST PUSH1 0x40 MLOAD PUSH2 0x8C8 SWAP2 SWAP1 PUSH2 0x31F4 JUMP JUMPDEST PUSH1 0x40 MLOAD DUP1 SWAP2 SUB SWAP1 RETURN JUMPDEST CALLVALUE DUP1 ISZERO PUSH2 0x8DD JUMPI PUSH1 0x0 DUP1 REVERT JUMPDEST POP PUSH2 0x8E6 PUSH2 0x188E JUMP JUMPDEST PUSH1 0x40 MLOAD PUSH2 0x8F3 SWAP2 SWAP1 PUSH2 0x31F4 JUMP JUMPDEST PUSH1 0x40 MLOAD DUP1 SWAP2 SUB SWAP1 RETURN JUMPDEST CALLVALUE DUP1 ISZERO PUSH2 0x908 JUMPI PUSH1 0x0 DUP1 REVERT JUMPDEST POP PUSH2 0x923 PUSH1 0x4 DUP1 CALLDATASIZE SUB DUP2 ADD SWAP1 PUSH2 0x91E SWAP2 SWAP1 PUSH2 0x3695 JUMP JUMPDEST PUSH2 0x1894 JUMP JUMPDEST PUSH1 0x40 MLOAD PUSH2 0x930 SWAP2 SWAP1 PUSH2 0x31F4 JUMP JUMPDEST PUSH1 0x40 MLOAD DUP1 SWAP2 SUB SWAP1 RETURN JUMPDEST CALLVALUE DUP1 ISZERO PUSH2 0x945 JUMPI PUSH1 0x0 DUP1 REVERT JUMPDEST POP PUSH2 0x960 PUSH1 0x4 DUP1 CALLDATASIZE SUB DUP2 ADD SWAP1 PUSH2 0x95B SWAP2 SWAP1 PUSH2 0x3577 JUMP JUMPDEST PUSH2 0x194B JUMP JUMPDEST PUSH1 0x40 MLOAD PUSH2 0x96D SWAP2 SWAP1 PUSH2 0x3619 JUMP JUMPDEST PUSH1 0x40 MLOAD DUP1 SWAP2 SUB SWAP1 RETURN JUMPDEST CALLVALUE DUP1 ISZERO PUSH2 0x982 JUMPI PUSH1 0x0 DUP1 REVERT JUMPDEST POP PUSH2 0x98B PUSH2 0x195F JUMP JUMPDEST PUSH1 0x40 MLOAD PUSH2 0x998 SWAP2 SWAP1 PUSH2 0x31F4 JUMP JUMPDEST PUSH1 0x40 MLOAD DUP1 SWAP2 SUB SWAP1 RETURN JUMPDEST CALLVALUE DUP1 ISZERO PUSH2 0x9AD JUMPI PUSH1 0x0 DUP1 REVERT JUMPDEST POP PUSH2 0x9B6 PUSH2 0x1982 JUMP JUMPDEST PUSH1 0x40 MLOAD PUSH2 0x9C3 SWAP2 SWAP1 PUSH2 0x31F4 JUMP JUMPDEST PUSH1 0x40 MLOAD DUP1 SWAP2 SUB SWAP1 RETURN JUMPDEST CALLVALUE DUP1 ISZERO PUSH2 0x9D8 JUMPI PUSH1 0x0 DUP1 REVERT JUMPDEST POP PUSH2 0x9E1 PUSH2 0x1988 JUMP JUMPDEST PUSH1 0x40 MLOAD PUSH2 0x9EE SWAP2 SWAP1 PUSH2 0x31F4 JUMP JUMPDEST PUSH1 0x40 MLOAD DUP1 SWAP2 SUB SWAP1 RETURN JUMPDEST CALLVALUE DUP1 ISZERO PUSH2 0xA03 JUMPI PUSH1 0x0 DUP1 REVERT JUMPDEST POP PUSH2 0xA0C PUSH2 0x19A9 JUMP JUMPDEST PUSH1 0x40 MLOAD PUSH2 0xA19 SWAP2 SWAP1 PUSH2 0x3619 JUMP JUMPDEST PUSH1 0x40 MLOAD DUP1 SWAP2 SUB SWAP1 RETURN JUMPDEST CALLVALUE DUP1 ISZERO PUSH2 0xA2E JUMPI PUSH1 0x0 DUP1 REVERT JUMPDEST POP PUSH2 0xA37 PUSH2 0x19AF JUMP JUMPDEST PUSH1 0x40 MLOAD PUSH2 0xA44 SWAP2 SWAP1 PUSH2 0x34BA JUMP JUMPDEST PUSH1 0x40 MLOAD DUP1 SWAP2 SUB SWAP1 RETURN JUMPDEST CALLVALUE DUP1 ISZERO PUSH2 0xA59 JUMPI PUSH1 0x0 DUP1 REVERT JUMPDEST POP PUSH2 0xA62 PUSH2 0x19D5 JUMP JUMPDEST PUSH1 0x40 MLOAD PUSH2 0xA6F SWAP2 SWAP1 PUSH2 0x33FE JUMP JUMPDEST PUSH1 0x40 MLOAD DUP1 SWAP2 SUB SWAP1 RETURN JUMPDEST CALLVALUE DUP1 ISZERO PUSH2 0xA84 JUMPI PUSH1 0x0 DUP1 REVERT JUMPDEST POP PUSH2 0xA8D PUSH2 0x1A67 JUMP JUMPDEST PUSH1 0x40 MLOAD PUSH2 0xA9D SWAP5 SWAP4 SWAP3 SWAP2 SWAP1 PUSH2 0x36C2 JUMP JUMPDEST PUSH1 0x40 MLOAD DUP1 SWAP2 SUB SWAP1 RETURN JUMPDEST CALLVALUE DUP1 ISZERO PUSH2 0xAB2 JUMPI PUSH1 0x0 DUP1 REVERT JUMPDEST POP PUSH2 0xABB PUSH2 0x1AA5 JUMP JUMPDEST PUSH1 0x40 MLOAD PUSH2 0xAC8 SWAP2 SWAP1 PUSH2 0x33FE JUMP JUMPDEST PUSH1 0x40 MLOAD DUP1 SWAP2 SUB SWAP1 RETURN JUMPDEST CALLVALUE DUP1 ISZERO PUSH2 0xADD JUMPI PUSH1 0x0 DUP1 REVERT JUMPDEST POP PUSH2 0xAF8 PUSH1 0x4 DUP1 CALLDATASIZE SUB DUP2 ADD SWAP1 PUSH2 0xAF3 SWAP2 SWAP1 PUSH2 0x383C JUMP JUMPDEST PUSH2 0x1B33 JUMP JUMPDEST STOP JUMPDEST CALLVALUE DUP1 ISZERO PUSH2 0xB06 JUMPI PUSH1 0x0 DUP1 REVERT JUMPDEST POP PUSH2 0xB21 PUSH1 0x4 DUP1 CALLDATASIZE SUB DUP2 ADD SWAP1 PUSH2 0xB1C SWAP2 SWAP1 PUSH2 0x38B1 JUMP JUMPDEST PUSH2 0x1BD6 JUMP JUMPDEST STOP JUMPDEST CALLVALUE DUP1 ISZERO PUSH2 0xB2F JUMPI PUSH1 0x0 DUP1 REVERT JUMPDEST POP PUSH2 0xB38 PUSH2 0x1BEC JUMP JUMPDEST PUSH1 0x40 MLOAD PUSH2 0xB45 SWAP2 SWAP1 PUSH2 0x31F4 JUMP JUMPDEST PUSH1 0x40 MLOAD DUP1 SWAP2 SUB SWAP1 RETURN JUMPDEST CALLVALUE DUP1 ISZERO PUSH2 0xB5A JUMPI PUSH1 0x0 DUP1 REVERT JUMPDEST POP PUSH2 0xB75 PUSH1 0x4 DUP1 CALLDATASIZE SUB DUP2 ADD SWAP1 PUSH2 0xB70 SWAP2 SWAP1 PUSH2 0x38F1 JUMP JUMPDEST PUSH2 0x1BF6 JUMP JUMPDEST STOP JUMPDEST CALLVALUE DUP1 ISZERO PUSH2 0xB83 JUMPI PUSH1 0x0 DUP1 REVERT JUMPDEST POP PUSH2 0xB8C PUSH2 0x1ED9 JUMP JUMPDEST PUSH1 0x40 MLOAD PUSH2 0xB99 SWAP2 SWAP1 PUSH2 0x31F4 JUMP JUMPDEST PUSH1 0x40 MLOAD DUP1 SWAP2 SUB SWAP1 RETURN JUMPDEST CALLVALUE DUP1 ISZERO PUSH2 0xBAE JUMPI PUSH1 0x0 DUP1 REVERT JUMPDEST POP PUSH2 0xBC9 PUSH1 0x4 DUP1 CALLDATASIZE SUB DUP2 ADD SWAP1 PUSH2 0xBC4 SWAP2 SWAP1 PUSH2 0x3998 JUMP JUMPDEST PUSH2 0x1EDF JUMP JUMPDEST PUSH1 0x40 MLOAD PUSH2 0xBD6 SWAP2 SWAP1 PUSH2 0x31F4 JUMP JUMPDEST PUSH1 0x40 MLOAD DUP1 SWAP2 SUB SWAP1 RETURN JUMPDEST CALLVALUE DUP1 ISZERO PUSH2 0xBEB JUMPI PUSH1 0x0 DUP1 REVERT JUMPDEST POP PUSH2 0xBF4 PUSH2 0x1F87 JUMP JUMPDEST PUSH1 0x40 MLOAD PUSH2 0xC01 SWAP2 SWAP1 PUSH2 0x31F4 JUMP JUMPDEST PUSH1 0x40 MLOAD DUP1 SWAP2 SUB SWAP1 RETURN JUMPDEST CALLVALUE DUP1 ISZERO PUSH2 0xC16 JUMPI PUSH1 0x0 DUP1 REVERT JUMPDEST POP PUSH2 0xC31 PUSH1 0x4 DUP1 CALLDATASIZE SUB DUP2 ADD SWAP1 PUSH2 0xC2C SWAP2 SWAP1 PUSH2 0x3695 JUMP JUMPDEST PUSH2 0x1F99 JUMP JUMPDEST PUSH1 0x40 MLOAD PUSH2 0xC3E SWAP2 SWAP1 PUSH2 0x3353 JUMP JUMPDEST PUSH1 0x40 MLOAD DUP1 SWAP2 SUB SWAP1 RETURN JUMPDEST CALLVALUE DUP1 ISZERO PUSH2 0xC53 JUMPI PUSH1 0x0 DUP1 REVERT JUMPDEST POP PUSH2 0xC5C PUSH2 0x1FB9 JUMP JUMPDEST PUSH1 0x40 MLOAD PUSH2 0xC69 SWAP2 SWAP1 PUSH2 0x31F4 JUMP JUMPDEST PUSH1 0x40 MLOAD DUP1 SWAP2 SUB SWAP1 RETURN JUMPDEST CALLVALUE DUP1 ISZERO PUSH2 0xC7E JUMPI PUSH1 0x0 DUP1 REVERT JUMPDEST POP PUSH2 0xC99 PUSH1 0x4 DUP1 CALLDATASIZE SUB DUP2 ADD SWAP1 PUSH2 0xC94 SWAP2 SWAP1 PUSH2 0x3A79 JUMP JUMPDEST PUSH2 0x1FBF JUMP JUMPDEST STOP JUMPDEST CALLVALUE DUP1 ISZERO PUSH2 0xCA7 JUMPI PUSH1 0x0 DUP1 REVERT JUMPDEST POP PUSH2 0xCC2 PUSH1 0x4 DUP1 CALLDATASIZE SUB DUP2 ADD SWAP1 PUSH2 0xCBD SWAP2 SWAP1 PUSH2 0x330A JUMP JUMPDEST PUSH2 0x2021 JUMP JUMPDEST PUSH1 0x40 MLOAD PUSH2 0xCCF SWAP2 SWAP1 PUSH2 0x33FE JUMP JUMPDEST PUSH1 0x40 MLOAD DUP1 SWAP2 SUB SWAP1 RETURN JUMPDEST CALLVALUE DUP1 ISZERO PUSH2 0xCE4 JUMPI PUSH1 0x0 DUP1 REVERT JUMPDEST POP PUSH2 0xCED PUSH2 0x2081 JUMP JUMPDEST PUSH1 0x40 MLOAD PUSH2 0xCFA SWAP2 SWAP1 PUSH2 0x31F4 JUMP JUMPDEST PUSH1 0x40 MLOAD DUP1 SWAP2 SUB SWAP1 RETURN JUMPDEST CALLVALUE DUP1 ISZERO PUSH2 0xD0F JUMPI PUSH1 0x0 DUP1 REVERT JUMPDEST POP PUSH2 0xD2A PUSH1 0x4 DUP1 CALLDATASIZE SUB DUP2 ADD SWAP1 PUSH2 0xD25 SWAP2 SWAP1 PUSH2 0x330A JUMP JUMPDEST PUSH2 0x2087 JUMP JUMPDEST PUSH1 0x40 MLOAD PUSH2 0xD37 SWAP2 SWAP1 PUSH2 0x3619 JUMP JUMPDEST PUSH1 0x40 MLOAD DUP1 SWAP2 SUB SWAP1 RETURN JUMPDEST CALLVALUE DUP1 ISZERO PUSH2 0xD4C JUMPI PUSH1 0x0 DUP1 REVERT JUMPDEST POP PUSH2 0xD67 PUSH1 0x4 DUP1 CALLDATASIZE SUB DUP2 ADD SWAP1 PUSH2 0xD62 SWAP2 SWAP1 PUSH2 0x3AFC JUMP JUMPDEST PUSH2 0x209F JUMP JUMPDEST PUSH1 0x40 MLOAD PUSH2 0xD74 SWAP2 SWAP1 PUSH2 0x32C3 JUMP JUMPDEST PUSH1 0x40 MLOAD DUP1 SWAP2 SUB SWAP1 RETURN JUMPDEST CALLVALUE DUP1 ISZERO PUSH2 0xD89 JUMPI PUSH1 0x0 DUP1 REVERT JUMPDEST POP PUSH2 0xD92 PUSH2 0x2133 JUMP JUMPDEST PUSH1 0x40 MLOAD PUSH2 0xD9F SWAP2 SWAP1 PUSH2 0x31F4 JUMP JUMPDEST PUSH1 0x40 MLOAD DUP1 SWAP2 SUB SWAP1 RETURN JUMPDEST PUSH1 0x9E SLOAD DUP2 JUMP JUMPDEST PUSH1 0x0 PUSH32 0x80AC58CD00000000000000000000000000000000000000000000000000000000 PUSH28 0xFFFFFFFFFFFFFFFFFFFFFFFFFFFFFFFFFFFFFFFFFFFFFFFFFFFFFFFF NOT AND DUP3 PUSH28 0xFFFFFFFFFFFFFFFFFFFFFFFFFFFFFFFFFFFFFFFFFFFFFFFFFFFFFFFF NOT AND EQ DUP1 PUSH2 0xE79 JUMPI POP PUSH32 0x5B5E139F00000000000000000000000000000000000000000000000000000000 PUSH28 0xFFFFFFFFFFFFFFFFFFFFFFFFFFFFFFFFFFFFFFFFFFFFFFFFFFFFFFFF NOT AND DUP3 PUSH28 0xFFFFFFFFFFFFFFFFFFFFFFFFFFFFFFFFFFFFFFFFFFFFFFFFFFFFFFFF NOT AND EQ JUMPDEST DUP1 PUSH2 0xE89 JUMPI POP PUSH2 0xE88 DUP3 PUSH2 0x2139 JUMP JUMPDEST JUMPDEST SWAP1 POP SWAP2 SWAP1 POP JUMP JUMPDEST PUSH1 0xA8 DUP2 DUP2 SLOAD DUP2 LT PUSH2 0xEA0 JUMPI PUSH1 0x0 DUP1 REVERT JUMPDEST SWAP1 PUSH1 0x0 MSTORE PUSH1 0x20 PUSH1 0x0 KECCAK256 SWAP1 PUSH1 0x20 SWAP2 DUP3 DUP3 DIV ADD SWAP2 SWAP1 MOD SWAP2 POP SLOAD SWAP1 PUSH2 0x100 EXP SWAP1 DIV PUSH1 0xFF AND DUP2 JUMP JUMPDEST PUSH1 0x60 PUSH1 0x6C DUP1 SLOAD PUSH2 0xED3 SWAP1 PUSH2 0x3B6B JUMP JUMPDEST DUP1 PUSH1 0x1F ADD PUSH1 0x20 DUP1 SWAP2 DIV MUL PUSH1 0x20 ADD PUSH1 0x40 MLOAD SWAP1 DUP2 ADD PUSH1 0x40 MSTORE DUP1 SWAP3 SWAP2 SWAP1 DUP2 DUP2 MSTORE PUSH1 0x20 ADD DUP3 DUP1 SLOAD PUSH2 0xEFF SWAP1 PUSH2 0x3B6B JUMP JUMPDEST DUP1 ISZERO PUSH2 0xF4C JUMPI DUP1 PUSH1 0x1F LT PUSH2 0xF21 JUMPI PUSH2 0x100 DUP1 DUP4 SLOAD DIV MUL DUP4 MSTORE SWAP2 PUSH1 0x20 ADD SWAP2 PUSH2 0xF4C JUMP JUMPDEST DUP3 ADD SWAP2 SWAP1 PUSH1 0x0 MSTORE PUSH1 0x20 PUSH1 0x0 KECCAK256 SWAP1 JUMPDEST DUP2 SLOAD DUP2 MSTORE SWAP1 PUSH1 0x1 ADD SWAP1 PUSH1 0x20 ADD DUP1 DUP4 GT PUSH2 0xF2F JUMPI DUP3 SWAP1 SUB PUSH1 0x1F AND DUP3 ADD SWAP2 JUMPDEST POP POP POP POP POP SWAP1 POP SWAP1 JUMP JUMPDEST DUP1 PUSH1 0xFF AND PUSH1 0xA6 SLOAD PUSH2 0xF67 SWAP2 SWAP1 PUSH2 0x3BCB JUMP JUMPDEST CALLVALUE LT ISZERO PUSH2 0xF73 JUMPI PUSH1 0x0 DUP1 REVERT JUMPDEST PUSH1 0x0 DUP2 PUSH1 0xA9 PUSH1 0x0 CALLER PUSH20 0xFFFFFFFFFFFFFFFFFFFFFFFFFFFFFFFFFFFFFFFF AND PUSH20 0xFFFFFFFFFFFFFFFFFFFFFFFFFFFFFFFFFFFFFFFF AND DUP2 MSTORE PUSH1 0x20 ADD SWAP1 DUP2 MSTORE PUSH1 0x20 ADD PUSH1 0x0 KECCAK256 PUSH1 0x0 SWAP1 SLOAD SWAP1 PUSH2 0x100 EXP SWAP1 DIV PUSH1 0xFF AND PUSH2 0xFCD SWAP2 SWAP1 PUSH2 0x3C0D JUMP JUMPDEST SWAP1 POP PUSH1 0xA7 PUSH1 0x0 SWAP1 SLOAD SWAP1 PUSH2 0x100 EXP SWAP1 DIV PUSH1 0xFF AND PUSH1 0xFF AND DUP2 PUSH1 0xFF AND GT ISZERO PUSH2 0xFF1 JUMPI PUSH1 0x0 DUP1 REVERT JUMPDEST DUP1 PUSH1 0xA9 PUSH1 0x0 CALLER PUSH20 0xFFFFFFFFFFFFFFFFFFFFFFFFFFFFFFFFFFFFFFFF AND PUSH20 0xFFFFFFFFFFFFFFFFFFFFFFFFFFFFFFFFFFFFFFFF AND DUP2 MSTORE PUSH1 0x20 ADD SWAP1 DUP2 MSTORE PUSH1 0x20 ADD PUSH1 0x0 KECCAK256 PUSH1 0x0 PUSH2 0x100 EXP DUP2 SLOAD DUP2 PUSH1 0xFF MUL NOT AND SWAP1 DUP4 PUSH1 0xFF AND MUL OR SWAP1 SSTORE POP POP POP JUMP JUMPDEST PUSH1 0x0 PUSH2 0x1058 DUP3 PUSH2 0x21A3 JUMP JUMPDEST PUSH1 0x70 PUSH1 0x0 DUP4 DUP2 MSTORE PUSH1 0x20 ADD SWAP1 DUP2 MSTORE PUSH1 0x20 ADD PUSH1 0x0 KECCAK256 PUSH1 0x0 SWAP1 SLOAD SWAP1 PUSH2 0x100 EXP SWAP1 DIV PUSH20 0xFFFFFFFFFFFFFFFFFFFFFFFFFFFFFFFFFFFFFFFF AND SWAP1 POP SWAP2 SWAP1 POP JUMP JUMPDEST PUSH2 0x7D0 DUP2 JUMP JUMPDEST PUSH1 0x0 PUSH2 0x10A4 DUP3 PUSH2 0x1676 JUMP JUMPDEST SWAP1 POP DUP1 PUSH20 0xFFFFFFFFFFFFFFFFFFFFFFFFFFFFFFFFFFFFFFFF AND DUP4 PUSH20 0xFFFFFFFFFFFFFFFFFFFFFFFFFFFFFFFFFFFFFFFF AND SUB PUSH2 0x1114 JUMPI PUSH1 0x40 MLOAD PUSH32 0x8C379A000000000000000000000000000000000000000000000000000000000 DUP2 MSTORE PUSH1 0x4 ADD PUSH2 0x110B SWAP1 PUSH2 0x3CB4 JUMP JUMPDEST PUSH1 0x40 MLOAD DUP1 SWAP2 SUB SWAP1 REVERT JUMPDEST DUP1 PUSH20 0xFFFFFFFFFFFFFFFFFFFFFFFFFFFFFFFFFFFFFFFF AND PUSH2 0x1133 PUSH2 0x21EE JUMP JUMPDEST PUSH20 0xFFFFFFFFFFFFFFFFFFFFFFFFFFFFFFFFFFFFFFFF AND EQ DUP1 PUSH2 0x1162 JUMPI POP PUSH2 0x1161 DUP2 PUSH2 0x115C PUSH2 0x21EE JUMP JUMPDEST PUSH2 0x209F JUMP JUMPDEST JUMPDEST PUSH2 0x11A1 JUMPI PUSH1 0x40 MLOAD PUSH32 0x8C379A000000000000000000000000000000000000000000000000000000000 DUP2 MSTORE PUSH1 0x4 ADD PUSH2 0x1198 SWAP1 PUSH2 0x3D46 JUMP JUMPDEST PUSH1 0x40 MLOAD DUP1 SWAP2 SUB SWAP1 REVERT JUMPDEST PUSH2 0x11AB DUP4 DUP4 PUSH2 0x21F6 JUMP JUMPDEST POP POP POP JUMP JUMPDEST PUSH1 0x0 PUSH1 0x1 SLOAD SWAP1 POP SWAP1 JUMP JUMPDEST PUSH1 0x0 PUSH1 0x9E PUSH1 0x0 DUP2 SLOAD PUSH2 0x11CB SWAP1 PUSH2 0x3D66 JUMP JUMPDEST SWAP2 SWAP1 POP DUP2 SWAP1 SSTORE PUSH1 0x9E DUP2 SWAP1 SSTORE POP PUSH1 0x0 PUSH2 0x11E3 DUP5 DUP5 PUSH2 0x22AF JUMP JUMPDEST SWAP1 POP PUSH1 0x1 SLOAD DUP2 PUSH1 0x0 SHR GT ISZERO PUSH2 0x122D JUMPI PUSH1 0x40 MLOAD PUSH32 0x8C379A000000000000000000000000000000000000000000000000000000000 DUP2 MSTORE PUSH1 0x4 ADD PUSH2 0x1224 SWAP1 PUSH2 0x3DFA JUMP JUMPDEST PUSH1 0x40 MLOAD DUP1 SWAP2 SUB SWAP1 REVERT JUMPDEST PUSH1 0x0 PUSH1 0xA1 PUSH1 0x0 PUSH1 0x9E SLOAD DUP2 MSTORE PUSH1 0x20 ADD SWAP1 DUP2 MSTORE PUSH1 0x20 ADD PUSH1 0x0 KECCAK256 SLOAD SWAP1 POP PUSH1 0x0 DUP1 SHL DUP2 EQ PUSH2 0x128C JUMPI PUSH1 0x40 MLOAD PUSH32 0x8C379A000000000000000000000000000000000000000000000000000000000 DUP2 MSTORE PUSH1 0x4 ADD PUSH2 0x1283 SWAP1 PUSH2 0x3E66 JUMP JUMPDEST PUSH1 0x40 MLOAD DUP1 SWAP2 SUB SWAP1 REVERT JUMPDEST DUP2 PUSH1 0xA1 PUSH1 0x0 PUSH1 0x9E SLOAD DUP2 MSTORE PUSH1 0x20 ADD SWAP1 DUP2 MSTORE PUSH1 0x20 ADD PUSH1 0x0 KECCAK256 DUP2 SWAP1 SSTORE POP PUSH2 0x12B2 CALLER PUSH1 0x9E SLOAD PUSH2 0x2327 JUMP JUMPDEST PUSH1 0x0 PUSH2 0x3E8 DUP4 PUSH1 0x0 SHR AND SWAP1 POP PUSH1 0x0 PUSH1 0x64 DUP3 PUSH1 0xA8 PUSH1 0xA9 PUSH1 0x0 CALLER PUSH20 0xFFFFFFFFFFFFFFFFFFFFFFFFFFFFFFFFFFFFFFFF AND PUSH20 0xFFFFFFFFFFFFFFFFFFFFFFFFFFFFFFFFFFFFFFFF AND DUP2 MSTORE PUSH1 0x20 ADD SWAP1 DUP2 MSTORE PUSH1 0x20 ADD PUSH1 0x0 KECCAK256 PUSH1 0x0 SWAP1 SLOAD SWAP1 PUSH2 0x100 EXP SWAP1 DIV PUSH1 0xFF AND PUSH1 0xFF AND DUP2 SLOAD DUP2 LT PUSH2 0x1326 JUMPI PUSH2 0x1325 PUSH2 0x3E86 JUMP JUMPDEST JUMPDEST SWAP1 PUSH1 0x0 MSTORE PUSH1 0x20 PUSH1 0x0 KECCAK256 SWAP1 PUSH1 0x20 SWAP2 DUP3 DUP3 DIV ADD SWAP2 SWAP1 MOD SWAP1 SLOAD SWAP1 PUSH2 0x100 EXP SWAP1 DIV PUSH1 0xFF AND PUSH1 0xFF AND PUSH2 0x1353 SWAP2 SWAP1 PUSH2 0x3BCB JUMP JUMPDEST PUSH2 0x135D SWAP2 SWAP1 PUSH2 0x3EE4 JUMP JUMPDEST SWAP1 POP PUSH1 0x0 DUP2 GT ISZERO PUSH2 0x1383 JUMPI DUP1 PUSH1 0xAA PUSH1 0x0 PUSH1 0x9E SLOAD DUP2 MSTORE PUSH1 0x20 ADD SWAP1 DUP2 MSTORE PUSH1 0x20 ADD PUSH1 0x0 KECCAK256 DUP2 SWAP1 SSTORE POP JUMPDEST DUP1 DUP3 PUSH2 0x138F SWAP2 SWAP1 PUSH2 0x3F15 JUMP JUMPDEST PUSH1 0x2 PUSH1 0x0 DUP3 DUP3 SLOAD PUSH2 0x13A0 SWAP2 SWAP1 PUSH2 0x3F15 JUMP JUMPDEST SWAP3 POP POP DUP2 SWAP1 SSTORE POP PUSH1 0x1 SWAP5 POP POP POP POP POP SWAP3 SWAP2 POP POP JUMP JUMPDEST PUSH1 0x1 SLOAD DUP2 JUMP JUMPDEST PUSH1 0x64 DUP2 JUMP JUMPDEST PUSH1 0xFA DUP2 JUMP JUMPDEST PUSH2 0x13D6 PUSH2 0x13D0 PUSH2 0x21EE JUMP JUMPDEST DUP3 PUSH2 0x2345 JUMP JUMPDEST PUSH2 0x1415 JUMPI PUSH1 0x40 MLOAD PUSH32 0x8C379A000000000000000000000000000000000000000000000000000000000 DUP2 MSTORE PUSH1 0x4 ADD PUSH2 0x140C SWAP1 PUSH2 0x3FBB JUMP JUMPDEST PUSH1 0x40 MLOAD DUP1 SWAP2 SUB SWAP1 REVERT JUMPDEST PUSH2 0x1420 DUP4 DUP4 DUP4 PUSH2 0x23DA JUMP JUMPDEST POP POP POP JUMP JUMPDEST PUSH1 0xA4 SLOAD DUP2 JUMP JUMPDEST PUSH1 0x12 DUP2 JUMP JUMPDEST PUSH1 0x0 PUSH1 0x1 SLOAD SWAP1 POP SWAP1 JUMP JUMPDEST PUSH1 0x3C DUP2 JUMP JUMPDEST PUSH1 0xAB PUSH1 0x0 SWAP1 SLOAD SWAP1 PUSH2 0x100 EXP SWAP1 DIV PUSH20 0xFFFFFFFFFFFFFFFFFFFFFFFFFFFFFFFFFFFFFFFF AND PUSH20 0xFFFFFFFFFFFFFFFFFFFFFFFFFFFFFFFFFFFFFFFF AND CALLER PUSH20 0xFFFFFFFFFFFFFFFFFFFFFFFFFFFFFFFFFFFFFFFF AND EQ PUSH2 0x14CF JUMPI PUSH1 0x40 MLOAD PUSH32 0x8C379A000000000000000000000000000000000000000000000000000000000 DUP2 MSTORE PUSH1 0x4 ADD PUSH2 0x14C6 SWAP1 PUSH2 0x404D JUMP JUMPDEST PUSH1 0x40 MLOAD DUP1 SWAP2 SUB SWAP1 REVERT JUMPDEST PUSH1 0xAB PUSH1 0x0 SWAP1 SLOAD SWAP1 PUSH2 0x100 EXP SWAP1 DIV PUSH20 0xFFFFFFFFFFFFFFFFFFFFFFFFFFFFFFFFFFFFFFFF AND PUSH20 0xFFFFFFFFFFFFFFFFFFFFFFFFFFFFFFFFFFFFFFFF AND PUSH2 0x8FC SELFBALANCE SWAP1 DUP2 ISZERO MUL SWAP1 PUSH1 0x40 MLOAD PUSH1 0x0 PUSH1 0x40 MLOAD DUP1 DUP4 SUB DUP2 DUP6 DUP9 DUP9 CALL SWAP4 POP POP POP POP ISZERO DUP1 ISZERO PUSH2 0x1537 JUMPI RETURNDATASIZE PUSH1 0x0 DUP1 RETURNDATACOPY RETURNDATASIZE PUSH1 0x0 REVERT JUMPDEST POP JUMP JUMPDEST PUSH1 0xA7 PUSH1 0x0 SWAP1 SLOAD SWAP1 PUSH2 0x100 EXP SWAP1 DIV PUSH1 0xFF AND DUP2 JUMP JUMPDEST PUSH2 0x1568 DUP4 DUP4 DUP4 PUSH1 0x40 MLOAD DUP1 PUSH1 0x20 ADD PUSH1 0x40 MSTORE DUP1 PUSH1 0x0 DUP2 MSTORE POP PUSH2 0x1FBF JUMP JUMPDEST POP POP POP JUMP JUMPDEST PUSH1 0xA6 SLOAD DUP2 JUMP JUMPDEST PUSH1 0x0 PUSH1 0x12 PUSH1 0xFF AND PUSH1 0xA PUSH2 0x1586 SWAP2 SWAP1 PUSH2 0x41A0 JUMP JUMPDEST PUSH2 0x3E8 PUSH2 0x1593 SWAP2 SWAP1 PUSH2 0x3BCB JUMP JUMPDEST SWAP1 POP SWAP1 JUMP JUMPDEST PUSH1 0xAB PUSH1 0x0 SWAP1 SLOAD SWAP1 PUSH2 0x100 EXP SWAP1 DIV PUSH20 0xFFFFFFFFFFFFFFFFFFFFFFFFFFFFFFFFFFFFFFFF AND PUSH20 0xFFFFFFFFFFFFFFFFFFFFFFFFFFFFFFFFFFFFFFFF AND CALLER PUSH20 0xFFFFFFFFFFFFFFFFFFFFFFFFFFFFFFFFFFFFFFFF AND EQ PUSH2 0x1628 JUMPI PUSH1 0x40 MLOAD PUSH32 0x8C379A000000000000000000000000000000000000000000000000000000000 DUP2 MSTORE PUSH1 0x4 ADD PUSH2 0x161F SWAP1 PUSH2 0x404D JUMP JUMPDEST PUSH1 0x40 MLOAD DUP1 SWAP2 SUB SWAP1 REVERT JUMPDEST DUP1 PUSH1 0xA6 DUP2 SWAP1 SSTORE POP POP JUMP JUMPDEST PUSH1 0x0 DUP1 SLOAD SWAP1 POP SWAP1 JUMP JUMPDEST PUSH1 0x12 PUSH1 0xFF AND PUSH1 0xA PUSH2 0x164C SWAP2 SWAP1 PUSH2 0x41A0 JUMP JUMPDEST PUSH4 0x3B9ACA00 PUSH2 0x165B SWAP2 SWAP1 PUSH2 0x3BCB JUMP JUMPDEST DUP2 JUMP JUMPDEST PUSH1 0xAA PUSH1 0x20 MSTORE DUP1 PUSH1 0x0 MSTORE PUSH1 0x40 PUSH1 0x0 KECCAK256 PUSH1 0x0 SWAP2 POP SWAP1 POP SLOAD DUP2 JUMP JUMPDEST PUSH1 0x0 DUP1 PUSH2 0x1682 DUP4 PUSH2 0x26D3 JUMP JUMPDEST SWAP1 POP PUSH1 0x0 PUSH20 0xFFFFFFFFFFFFFFFFFFFFFFFFFFFFFFFFFFFFFFFF AND DUP2 PUSH20 0xFFFFFFFFFFFFFFFFFFFFFFFFFFFFFFFFFFFFFFFF AND SUB PUSH2 0x16F3 JUMPI PUSH1 0x40 MLOAD PUSH32 0x8C379A000000000000000000000000000000000000000000000000000000000 DUP2 MSTORE PUSH1 0x4 ADD PUSH2 0x16EA SWAP1 PUSH2 0x4237 JUMP JUMPDEST PUSH1 0x40 MLOAD DUP1 SWAP2 SUB SWAP1 REVERT JUMPDEST DUP1 SWAP2 POP POP SWAP2 SWAP1 POP JUMP JUMPDEST PUSH1 0x0 DUP1 PUSH1 0x0 DUP1 PUSH1 0x0 DUP1 PUSH1 0x0 PUSH1 0xA1 PUSH1 0x0 DUP10 DUP2 MSTORE PUSH1 0x20 ADD SWAP1 DUP2 MSTORE PUSH1 0x20 ADD PUSH1 0x0 KECCAK256 SLOAD PUSH1 0x0 SHR SWAP1 POP PUSH1 0x0 PUSH2 0x3E8 PUSH1 0x30 DUP4 SWAP1 SHR AND SWAP1 POP PUSH1 0x0 PUSH2 0x3E8 PUSH1 0x3C DUP5 SWAP1 SHR AND SWAP1 POP PUSH1 0x0 PUSH1 0xA PUSH2 0x1748 DUP5 DUP5 PUSH2 0x1EDF JUMP JUMPDEST PUSH2 0x1752 SWAP2 SWAP1 PUSH2 0x3BCB JUMP JUMPDEST SWAP1 POP PUSH1 0x0 PUSH1 0xAA PUSH1 0x0 DUP14 DUP2 MSTORE PUSH1 0x20 ADD SWAP1 DUP2 MSTORE PUSH1 0x20 ADD PUSH1 0x0 KECCAK256 SLOAD PUSH2 0x3E8 DUP7 AND PUSH2 0x1779 SWAP2 SWAP1 PUSH2 0x3F15 JUMP JUMPDEST SWAP1 POP PUSH1 0x0 PUSH2 0x3E8 PUSH1 0xC DUP8 SWAP1 SHR AND PUSH1 0xFA PUSH2 0x1792 SWAP2 SWAP1 PUSH2 0x3F15 JUMP JUMPDEST SWAP1 POP PUSH1 0x0 PUSH2 0x3E8 PUSH1 0x18 DUP9 SWAP1 SHR AND PUSH1 0xFA PUSH2 0x17AB SWAP2 SWAP1 PUSH2 0x3F15 JUMP JUMPDEST SWAP1 POP PUSH1 0x0 PUSH2 0x3E8 PUSH1 0x24 DUP10 SWAP1 SHR AND PUSH1 0xFA PUSH2 0x17C4 SWAP2 SWAP1 PUSH2 0x3F15 JUMP JUMPDEST SWAP1 POP PUSH1 0x0 DUP6 GT ISZERO PUSH2 0x1864 JUMPI PUSH1 0x64 DUP6 DUP6 PUSH2 0x17DD SWAP2 SWAP1 PUSH2 0x3BCB JUMP JUMPDEST PUSH2 0x17E7 SWAP2 SWAP1 PUSH2 0x3EE4 JUMP JUMPDEST DUP5 PUSH2 0x17F2 SWAP2 SWAP1 PUSH2 0x3F15 JUMP JUMPDEST SWAP4 POP PUSH1 0x64 DUP6 DUP5 PUSH2 0x1802 SWAP2 SWAP1 PUSH2 0x3BCB JUMP JUMPDEST PUSH2 0x180C SWAP2 SWAP1 PUSH2 0x3EE4 JUMP JUMPDEST DUP4 PUSH2 0x1817 SWAP2 SWAP1 PUSH2 0x3F15 JUMP JUMPDEST SWAP3 POP PUSH1 0x64 DUP6 DUP4 PUSH2 0x1827 SWAP2 SWAP1 PUSH2 0x3BCB JUMP JUMPDEST PUSH2 0x1831 SWAP2 SWAP1 PUSH2 0x3EE4 JUMP JUMPDEST DUP3 PUSH2 0x183C SWAP2 SWAP1 PUSH2 0x3F15 JUMP JUMPDEST SWAP2 POP PUSH1 0x64 DUP6 DUP3 PUSH2 0x184C SWAP2 SWAP1 PUSH2 0x3BCB JUMP JUMPDEST PUSH2 0x1856 SWAP2 SWAP1 PUSH2 0x3EE4 JUMP JUMPDEST DUP2 PUSH2 0x1861 SWAP2 SWAP1 PUSH2 0x3F15 JUMP JUMPDEST SWAP1 POP JUMPDEST DUP4 DUP4 DUP4 DUP4 DUP11 DUP11 SWAP14 POP SWAP14 POP SWAP14 POP SWAP14 POP SWAP14 POP SWAP14 POP POP POP POP POP POP POP POP POP SWAP2 SWAP4 SWAP6 POP SWAP2 SWAP4 SWAP6 JUMP JUMPDEST PUSH3 0x10000 DUP2 JUMP JUMPDEST PUSH1 0x2 SLOAD DUP2 JUMP JUMPDEST PUSH1 0x0 DUP1 PUSH20 0xFFFFFFFFFFFFFFFFFFFFFFFFFFFFFFFFFFFFFFFF AND DUP3 PUSH20 0xFFFFFFFFFFFFFFFFFFFFFFFFFFFFFFFFFFFFFFFF AND SUB PUSH2 0x1904 JUMPI PUSH1 0x40 MLOAD PUSH32 0x8C379A000000000000000000000000000000000000000000000000000000000 DUP2 MSTORE PUSH1 0x4 ADD PUSH2 0x18FB SWAP1 PUSH2 0x42C9 JUMP JUMPDEST PUSH1 0x40 MLOAD DUP1 SWAP2 SUB SWAP1 REVERT JUMPDEST PUSH1 0x6F PUSH1 0x0 DUP4 PUSH20 0xFFFFFFFFFFFFFFFFFFFFFFFFFFFFFFFFFFFFFFFF AND PUSH20 0xFFFFFFFFFFFFFFFFFFFFFFFFFFFFFFFFFFFFFFFF AND DUP2 MSTORE PUSH1 0x20 ADD SWAP1 DUP2 MSTORE PUSH1 0x20 ADD PUSH1 0x0 KECCAK256 SLOAD SWAP1 POP SWAP2 SWAP1 POP JUMP JUMPDEST PUSH1 0x0 PUSH2 0x1957 DUP4 DUP4 PUSH2 0x22AF JUMP JUMPDEST SWAP1 POP SWAP3 SWAP2 POP POP JUMP JUMPDEST PUSH31 0x20000000000000000000000000000000000000000000000000000000000000 DUP2 JUMP JUMPDEST PUSH1 0xA2 SLOAD DUP2 JUMP JUMPDEST PUSH1 0x12 PUSH1 0xFF AND PUSH1 0xA PUSH2 0x1999 SWAP2 SWAP1 PUSH2 0x41A0 JUMP JUMPDEST PUSH2 0x3E8 PUSH2 0x19A6 SWAP2 SWAP1 PUSH2 0x3BCB JUMP JUMPDEST DUP2 JUMP JUMPDEST PUSH1 0x0 SLOAD DUP2 JUMP JUMPDEST PUSH1 0xAB PUSH1 0x0 SWAP1 SLOAD SWAP1 PUSH2 0x100 EXP SWAP1 DIV PUSH20 0xFFFFFFFFFFFFFFFFFFFFFFFFFFFFFFFFFFFFFFFF AND DUP2 JUMP JUMPDEST PUSH1 0x60 PUSH1 0x6D DUP1 SLOAD PUSH2 0x19E4 SWAP1 PUSH2 0x3B6B JUMP JUMPDEST DUP1 PUSH1 0x1F ADD PUSH1 0x20 DUP1 SWAP2 DIV MUL PUSH1 0x20 ADD PUSH1 0x40 MLOAD SWAP1 DUP2 ADD PUSH1 0x40 MSTORE DUP1 SWAP3 SWAP2 SWAP1 DUP2 DUP2 MSTORE PUSH1 0x20 ADD DUP3 DUP1 SLOAD PUSH2 0x1A10 SWAP1 PUSH2 0x3B6B JUMP JUMPDEST DUP1 ISZERO PUSH2 0x1A5D JUMPI DUP1 PUSH1 0x1F LT PUSH2 0x1A32 JUMPI PUSH2 0x100 DUP1 DUP4 SLOAD DIV MUL DUP4 MSTORE SWAP2 PUSH1 0x20 ADD SWAP2 PUSH2 0x1A5D JUMP JUMPDEST DUP3 ADD SWAP2 SWAP1 PUSH1 0x0 MSTORE PUSH1 0x20 PUSH1 0x0 KECCAK256 SWAP1 JUMPDEST DUP2 SLOAD DUP2 MSTORE SWAP1 PUSH1 0x1 ADD SWAP1 PUSH1 0x20 ADD DUP1 DUP4 GT PUSH2 0x1A40 JUMPI DUP3 SWAP1 SUB PUSH1 0x1F AND DUP3 ADD SWAP2 JUMPDEST POP POP POP POP POP SWAP1 POP SWAP1 JUMP JUMPDEST PUSH1 0x3 DUP1 PUSH1 0x0 ADD PUSH1 0x0 SWAP1 SLOAD SWAP1 PUSH2 0x100 EXP SWAP1 DIV PUSH20 0xFFFFFFFFFFFFFFFFFFFFFFFFFFFFFFFFFFFFFFFF AND SWAP1 DUP1 PUSH1 0x1 ADD SLOAD SWAP1 DUP1 PUSH1 0x2 ADD SLOAD SWAP1 DUP1 PUSH1 0x3 ADD SLOAD SWAP1 POP DUP5 JUMP JUMPDEST PUSH1 0x9F DUP1 SLOAD PUSH2 0x1AB2 SWAP1 PUSH2 0x3B6B JUMP JUMPDEST DUP1 PUSH1 0x1F ADD PUSH1 0x20 DUP1 SWAP2 DIV MUL PUSH1 0x20 ADD PUSH1 0x40 MLOAD SWAP1 DUP2 ADD PUSH1 0x40 MSTORE DUP1 SWAP3 SWAP2 SWAP1 DUP2 DUP2 MSTORE PUSH1 0x20 ADD DUP3 DUP1 SLOAD PUSH2 0x1ADE SWAP1 PUSH2 0x3B6B JUMP JUMPDEST DUP1 ISZERO PUSH2 0x1B2B JUMPI DUP1 PUSH1 0x1F LT PUSH2 0x1B00 JUMPI PUSH2 0x100 DUP1 DUP4 SLOAD DIV MUL DUP4 MSTORE SWAP2 PUSH1 0x20 ADD SWAP2 PUSH2 0x1B2B JUMP JUMPDEST DUP3 ADD SWAP2 SWAP1 PUSH1 0x0 MSTORE PUSH1 0x20 PUSH1 0x0 KECCAK256 SWAP1 JUMPDEST DUP2 SLOAD DUP2 MSTORE SWAP1 PUSH1 0x1 ADD SWAP1 PUSH1 0x20 ADD DUP1 DUP4 GT PUSH2 0x1B0E JUMPI DUP3 SWAP1 SUB PUSH1 0x1F AND DUP3 ADD SWAP2 JUMPDEST POP POP POP POP POP DUP2 JUMP JUMPDEST PUSH1 0xAB PUSH1 0x0 SWAP1 SLOAD SWAP1 PUSH2 0x100 EXP SWAP1 DIV PUSH20 0xFFFFFFFFFFFFFFFFFFFFFFFFFFFFFFFFFFFFFFFF AND PUSH20 0xFFFFFFFFFFFFFFFFFFFFFFFFFFFFFFFFFFFFFFFF AND CALLER PUSH20 0xFFFFFFFFFFFFFFFFFFFFFFFFFFFFFFFFFFFFFFFF AND EQ PUSH2 0x1BC3 JUMPI PUSH1 0x40 MLOAD PUSH32 0x8C379A000000000000000000000000000000000000000000000000000000000 DUP2 MSTORE PUSH1 0x4 ADD PUSH2 0x1BBA SWAP1 PUSH2 0x404D JUMP JUMPDEST PUSH1 0x40 MLOAD DUP1 SWAP2 SUB SWAP1 REVERT JUMPDEST DUP1 PUSH1 0x9F SWAP1 DUP2 PUSH2 0x1BD2 SWAP2 SWAP1 PUSH2 0x4495 JUMP JUMPDEST POP POP JUMP JUMPDEST PUSH2 0x1BE8 PUSH2 0x1BE1 PUSH2 0x21EE JUMP JUMPDEST DUP4 DUP4 PUSH2 0x2710 JUMP JUMPDEST POP POP JUMP JUMPDEST PUSH1 0x0 PUSH1 0x9E SLOAD SWAP1 POP SWAP1 JUMP JUMPDEST PUSH1 0x0 PUSH1 0x7 PUSH1 0x1 SWAP1 SLOAD SWAP1 PUSH2 0x100 EXP SWAP1 DIV PUSH1 0xFF AND ISZERO SWAP1 POP DUP1 DUP1 ISZERO PUSH2 0x1C2A JUMPI POP PUSH1 0x1 PUSH1 0x7 PUSH1 0x0 SWAP1 SLOAD SWAP1 PUSH2 0x100 EXP SWAP1 DIV PUSH1 0xFF AND PUSH1 0xFF AND LT JUMPDEST DUP1 PUSH2 0x1C59 JUMPI POP PUSH2 0x1C39 ADDRESS PUSH2 0x287C JUMP JUMPDEST ISZERO DUP1 ISZERO PUSH2 0x1C58 JUMPI POP PUSH1 0x1 PUSH1 0x7 PUSH1 0x0 SWAP1 SLOAD SWAP1 PUSH2 0x100 EXP SWAP1 DIV PUSH1 0xFF AND PUSH1 0xFF AND EQ JUMPDEST JUMPDEST PUSH2 0x1C98 JUMPI PUSH1 0x40 MLOAD PUSH32 0x8C379A000000000000000000000000000000000000000000000000000000000 DUP2 MSTORE PUSH1 0x4 ADD PUSH2 0x1C8F SWAP1 PUSH2 0x45D9 JUMP JUMPDEST PUSH1 0x40 MLOAD DUP1 SWAP2 SUB SWAP1 REVERT JUMPDEST PUSH1 0x1 PUSH1 0x7 PUSH1 0x0 PUSH2 0x100 EXP DUP2 SLOAD DUP2 PUSH1 0xFF MUL NOT AND SWAP1 DUP4 PUSH1 0xFF AND MUL OR SWAP1 SSTORE POP DUP1 ISZERO PUSH2 0x1CD6 JUMPI PUSH1 0x1 PUSH1 0x7 PUSH1 0x1 PUSH2 0x100 EXP DUP2 SLOAD DUP2 PUSH1 0xFF MUL NOT AND SWAP1 DUP4 ISZERO ISZERO MUL OR SWAP1 SSTORE POP JUMPDEST PUSH1 0x0 PUSH20 0xFFFFFFFFFFFFFFFFFFFFFFFFFFFFFFFFFFFFFFFF AND PUSH1 0xAB PUSH1 0x0 SWAP1 SLOAD SWAP1 PUSH2 0x100 EXP SWAP1 DIV PUSH20 0xFFFFFFFFFFFFFFFFFFFFFFFFFFFFFFFFFFFFFFFF AND PUSH20 0xFFFFFFFFFFFFFFFFFFFFFFFFFFFFFFFFFFFFFFFF AND EQ PUSH2 0x1D31 JUMPI PUSH1 0x0 DUP1 REVERT JUMPDEST CALLER PUSH1 0xAB PUSH1 0x0 PUSH2 0x100 EXP DUP2 SLOAD DUP2 PUSH20 0xFFFFFFFFFFFFFFFFFFFFFFFFFFFFFFFFFFFFFFFF MUL NOT AND SWAP1 DUP4 PUSH20 0xFFFFFFFFFFFFFFFFFFFFFFFFFFFFFFFFFFFFFFFF AND MUL OR SWAP1 SSTORE POP PUSH2 0x1D7B DUP3 PUSH2 0x1B33 JUMP JUMPDEST PUSH1 0x1 NUMBER PUSH2 0x1D88 SWAP2 SWAP1 PUSH2 0x45F9 JUMP JUMPDEST BLOCKHASH PUSH1 0x0 DUP2 SWAP1 SSTORE POP NUMBER PUSH1 0xA3 DUP2 SWAP1 SSTORE POP PUSH31 0x20000000000000000000000000000000000000000000000000000000000000 PUSH1 0x1 DUP2 SWAP1 SSTORE POP PUSH7 0x6A94D74F430000 PUSH1 0xA6 DUP2 SWAP1 SSTORE POP PUSH1 0xA PUSH1 0xA7 PUSH1 0x0 PUSH2 0x100 EXP DUP2 SLOAD DUP2 PUSH1 0xFF MUL NOT AND SWAP1 DUP4 PUSH1 0xFF AND MUL OR SWAP1 SSTORE POP PUSH1 0x40 MLOAD DUP1 PUSH2 0x160 ADD PUSH1 0x40 MSTORE DUP1 PUSH1 0x0 PUSH1 0xFF AND DUP2 MSTORE PUSH1 0x20 ADD PUSH1 0x5 PUSH1 0xFF AND DUP2 MSTORE PUSH1 0x20 ADD PUSH1 0xA PUSH1 0xFF AND DUP2 MSTORE PUSH1 0x20 ADD PUSH1 0xF PUSH1 0xFF AND DUP2 MSTORE PUSH1 0x20 ADD PUSH1 0x16 PUSH1 0xFF AND DUP2 MSTORE PUSH1 0x20 ADD PUSH1 0x1D PUSH1 0xFF AND DUP2 MSTORE PUSH1 0x20 ADD PUSH1 0x24 PUSH1 0xFF AND DUP2 MSTORE PUSH1 0x20 ADD PUSH1 0x2E PUSH1 0xFF AND DUP2 MSTORE PUSH1 0x20 ADD PUSH1 0x38 PUSH1 0xFF AND DUP2 MSTORE PUSH1 0x20 ADD PUSH1 0x42 PUSH1 0xFF AND DUP2 MSTORE PUSH1 0x20 ADD PUSH1 0x50 PUSH1 0xFF AND DUP2 MSTORE POP PUSH1 0xA8 SWAP1 PUSH1 0xB PUSH2 0x1E6E SWAP3 SWAP2 SWAP1 PUSH2 0x3117 JUMP JUMPDEST POP PUSH2 0x1E79 DUP5 DUP5 PUSH2 0x289F JUMP JUMPDEST DUP1 ISZERO PUSH2 0x1ED3 JUMPI PUSH1 0x0 PUSH1 0x7 PUSH1 0x1 PUSH2 0x100 EXP DUP2 SLOAD DUP2 PUSH1 0xFF MUL NOT AND SWAP1 DUP4 ISZERO ISZERO MUL OR SWAP1 SSTORE POP PUSH32 0x7F26B83FF96E1F2B6A682F133852F6798A09C465DA95921460CEFB3847402498 PUSH1 0x1 PUSH1 0x40 MLOAD PUSH2 0x1ECA SWAP2 SWAP1 PUSH2 0x4668 JUMP JUMPDEST PUSH1 0x40 MLOAD DUP1 SWAP2 SUB SWAP1 LOG1 JUMPDEST POP POP POP POP JUMP JUMPDEST PUSH1 0xA0 SLOAD DUP2 JUMP JUMPDEST PUSH1 0x0 PUSH2 0x1F4 DUP4 GT ISZERO PUSH2 0x1F00 JUMPI PUSH2 0x1F4 DUP4 PUSH2 0x1EF9 SWAP2 SWAP1 PUSH2 0x45F9 JUMP JUMPDEST SWAP3 POP PUSH2 0x1F11 JUMP JUMPDEST DUP3 PUSH2 0x1F4 PUSH2 0x1F0E SWAP2 SWAP1 PUSH2 0x45F9 JUMP JUMPDEST SWAP3 POP JUMPDEST PUSH2 0x1F4 DUP3 GT ISZERO PUSH2 0x1F30 JUMPI PUSH2 0x1F4 DUP3 PUSH2 0x1F29 SWAP2 SWAP1 PUSH2 0x45F9 JUMP JUMPDEST SWAP2 POP PUSH2 0x1F41 JUMP JUMPDEST DUP2 PUSH2 0x1F4 PUSH2 0x1F3E SWAP2 SWAP1 PUSH2 0x45F9 JUMP JUMPDEST SWAP2 POP JUMPDEST PUSH1 0x0 PUSH2 0x1F6F PUSH1 0x2 DUP5 PUSH2 0x1F53 SWAP2 SWAP1 PUSH2 0x4683 JUMP JUMPDEST PUSH1 0x2 DUP7 PUSH2 0x1F60 SWAP2 SWAP1 PUSH2 0x4683 JUMP JUMPDEST PUSH2 0x1F6A SWAP2 SWAP1 PUSH2 0x3F15 JUMP JUMPDEST PUSH2 0x28FC JUMP JUMPDEST SWAP1 POP PUSH1 0x50 DUP2 PUSH2 0x1F7E SWAP2 SWAP1 PUSH2 0x3EE4 JUMP JUMPDEST SWAP2 POP POP SWAP3 SWAP2 POP POP JUMP JUMPDEST PUSH1 0x2 PUSH2 0x7D0 PUSH2 0x1F96 SWAP2 SWAP1 PUSH2 0x3EE4 JUMP JUMPDEST DUP2 JUMP JUMPDEST PUSH1 0xA9 PUSH1 0x20 MSTORE DUP1 PUSH1 0x0 MSTORE PUSH1 0x40 PUSH1 0x0 KECCAK256 PUSH1 0x0 SWAP2 POP SLOAD SWAP1 PUSH2 0x100 EXP SWAP1 DIV PUSH1 0xFF AND DUP2 JUMP JUMPDEST PUSH2 0x400 DUP2 JUMP JUMPDEST PUSH2 0x1FD0 PUSH2 0x1FCA PUSH2 0x21EE JUMP JUMPDEST DUP4 PUSH2 0x2345 JUMP JUMPDEST PUSH2 0x200F JUMPI PUSH1 0x40 MLOAD PUSH32 0x8C379A000000000000000000000000000000000000000000000000000000000 DUP2 MSTORE PUSH1 0x4 ADD PUSH2 0x2006 SWAP1 PUSH2 0x3FBB JUMP JUMPDEST PUSH1 0x40 MLOAD DUP1 SWAP2 SUB SWAP1 REVERT JUMPDEST PUSH2 0x201B DUP5 DUP5 DUP5 DUP5 PUSH2 0x29DB JUMP JUMPDEST POP POP POP POP JUMP JUMPDEST PUSH1 0x60 PUSH1 0x0 PUSH1 0x9F DUP1 SLOAD PUSH2 0x2032 SWAP1 PUSH2 0x3B6B JUMP JUMPDEST SWAP1 POP GT PUSH2 0x204E JUMPI PUSH1 0x40 MLOAD DUP1 PUSH1 0x20 ADD PUSH1 0x40 MSTORE DUP1 PUSH1 0x0 DUP2 MSTORE POP PUSH2 0x207A JUMP JUMPDEST PUSH1 0x9F PUSH2 0x2059 DUP4 PUSH2 0x2A37 JUMP JUMPDEST PUSH1 0x40 MLOAD PUSH1 0x20 ADD PUSH2 0x206A SWAP3 SWAP2 SWAP1 PUSH2 0x47D9 JUMP JUMPDEST PUSH1 0x40 MLOAD PUSH1 0x20 DUP2 DUP4 SUB SUB DUP2 MSTORE SWAP1 PUSH1 0x40 MSTORE JUMPDEST SWAP1 POP SWAP2 SWAP1 POP JUMP JUMPDEST PUSH1 0xA3 SLOAD DUP2 JUMP JUMPDEST PUSH1 0xA1 PUSH1 0x20 MSTORE DUP1 PUSH1 0x0 MSTORE PUSH1 0x40 PUSH1 0x0 KECCAK256 PUSH1 0x0 SWAP2 POP SWAP1 POP SLOAD DUP2 JUMP JUMPDEST PUSH1 0x0 PUSH1 0x71 PUSH1 0x0 DUP5 PUSH20 0xFFFFFFFFFFFFFFFFFFFFFFFFFFFFFFFFFFFFFFFF AND PUSH20 0xFFFFFFFFFFFFFFFFFFFFFFFFFFFFFFFFFFFFFFFF AND DUP2 MSTORE PUSH1 0x20 ADD SWAP1 DUP2 MSTORE PUSH1 0x20 ADD PUSH1 0x0 KECCAK256 PUSH1 0x0 DUP4 PUSH20 0xFFFFFFFFFFFFFFFFFFFFFFFFFFFFFFFFFFFFFFFF AND PUSH20 0xFFFFFFFFFFFFFFFFFFFFFFFFFFFFFFFFFFFFFFFF AND DUP2 MSTORE PUSH1 0x20 ADD SWAP1 DUP2 MSTORE PUSH1 0x20 ADD PUSH1 0x0 KECCAK256 PUSH1 0x0 SWAP1 SLOAD SWAP1 PUSH2 0x100 EXP SWAP1 DIV PUSH1 0xFF AND SWAP1 POP SWAP3 SWAP2 POP POP JUMP JUMPDEST PUSH1 0xA5 SLOAD DUP2 JUMP JUMPDEST PUSH1 0x0 PUSH32 0x1FFC9A700000000000000000000000000000000000000000000000000000000 PUSH28 0xFFFFFFFFFFFFFFFFFFFFFFFFFFFFFFFFFFFFFFFFFFFFFFFFFFFFFFFF NOT AND DUP3 PUSH28 0xFFFFFFFFFFFFFFFFFFFFFFFFFFFFFFFFFFFFFFFFFFFFFFFFFFFFFFFF NOT AND EQ SWAP1 POP SWAP2 SWAP1 POP JUMP JUMPDEST PUSH2 0x21AC DUP2 PUSH2 0x2B05 JUMP JUMPDEST PUSH2 0x21EB JUMPI PUSH1 0x40 MLOAD PUSH32 0x8C379A000000000000000000000000000000000000000000000000000000000 DUP2 MSTORE PUSH1 0x4 ADD PUSH2 0x21E2 SWAP1 PUSH2 0x4237 JUMP JUMPDEST PUSH1 0x40 MLOAD DUP1 SWAP2 SUB SWAP1 REVERT JUMPDEST POP JUMP JUMPDEST PUSH1 0x0 CALLER SWAP1 POP SWAP1 JUMP JUMPDEST DUP2 PUSH1 0x70 PUSH1 0x0 DUP4 DUP2 MSTORE PUSH1 0x20 ADD SWAP1 DUP2 MSTORE PUSH1 0x20 ADD PUSH1 0x0 KECCAK256 PUSH1 0x0 PUSH2 0x100 EXP DUP2 SLOAD DUP2 PUSH20 0xFFFFFFFFFFFFFFFFFFFFFFFFFFFFFFFFFFFFFFFF MUL NOT AND SWAP1 DUP4 PUSH20 0xFFFFFFFFFFFFFFFFFFFFFFFFFFFFFFFFFFFFFFFF AND MUL OR SWAP1 SSTORE POP DUP1 DUP3 PUSH20 0xFFFFFFFFFFFFFFFFFFFFFFFFFFFFFFFFFFFFFFFF AND PUSH2 0x2269 DUP4 PUSH2 0x1676 JUMP JUMPDEST PUSH20 0xFFFFFFFFFFFFFFFFFFFFFFFFFFFFFFFFFFFFFFFF AND PUSH32 0x8C5BE1E5EBEC7D5BD14F71427D1E84F3DD0314C0F7B2291E5B200AC8C7C3B925 PUSH1 0x40 MLOAD PUSH1 0x40 MLOAD DUP1 SWAP2 SUB SWAP1 LOG4 POP POP JUMP JUMPDEST PUSH1 0x0 DUP1 SLOAD CALLER DUP5 PUSH1 0x40 MLOAD PUSH1 0x20 ADD PUSH2 0x22C7 SWAP4 SWAP3 SWAP2 SWAP1 PUSH2 0x4892 JUMP JUMPDEST PUSH1 0x40 MLOAD PUSH1 0x20 DUP2 DUP4 SUB SUB DUP2 MSTORE SWAP1 PUSH1 0x40 MSTORE DUP1 MLOAD SWAP1 PUSH1 0x20 ADD KECCAK256 SWAP1 POP DUP2 DUP2 EQ PUSH2 0x2321 JUMPI PUSH1 0x40 MLOAD PUSH32 0x8C379A000000000000000000000000000000000000000000000000000000000 DUP2 MSTORE PUSH1 0x4 ADD PUSH2 0x2318 SWAP1 PUSH2 0x491B JUMP JUMPDEST PUSH1 0x40 MLOAD DUP1 SWAP2 SUB SWAP1 REVERT JUMPDEST SWAP3 SWAP2 POP POP JUMP JUMPDEST PUSH2 0x2341 DUP3 DUP3 PUSH1 0x40 MLOAD DUP1 PUSH1 0x20 ADD PUSH1 0x40 MSTORE DUP1 PUSH1 0x0 DUP2 MSTORE POP PUSH2 0x2B46 JUMP JUMPDEST POP POP JUMP JUMPDEST PUSH1 0x0 DUP1 PUSH2 0x2351 DUP4 PUSH2 0x1676 JUMP JUMPDEST SWAP1 POP DUP1 PUSH20 0xFFFFFFFFFFFFFFFFFFFFFFFFFFFFFFFFFFFFFFFF AND DUP5 PUSH20 0xFFFFFFFFFFFFFFFFFFFFFFFFFFFFFFFFFFFFFFFF AND EQ DUP1 PUSH2 0x2393 JUMPI POP PUSH2 0x2392 DUP2 DUP6 PUSH2 0x209F JUMP JUMPDEST JUMPDEST DUP1 PUSH2 0x23D1 JUMPI POP DUP4 PUSH20 0xFFFFFFFFFFFFFFFFFFFFFFFFFFFFFFFFFFFFFFFF AND PUSH2 0x23B9 DUP5 PUSH2 0x104D JUMP JUMPDEST PUSH20 0xFFFFFFFFFFFFFFFFFFFFFFFFFFFFFFFFFFFFFFFF AND EQ JUMPDEST SWAP2 POP POP SWAP3 SWAP2 POP POP JUMP JUMPDEST DUP3 PUSH20 0xFFFFFFFFFFFFFFFFFFFFFFFFFFFFFFFFFFFFFFFF AND PUSH2 0x23FA DUP3 PUSH2 0x1676 JUMP JUMPDEST PUSH20 0xFFFFFFFFFFFFFFFFFFFFFFFFFFFFFFFFFFFFFFFF AND EQ PUSH2 0x2450 JUMPI PUSH1 0x40 MLOAD PUSH32 0x8C379A000000000000000000000000000000000000000000000000000000000 DUP2 MSTORE PUSH1 0x4 ADD PUSH2 0x2447 SWAP1 PUSH2 0x49AD JUMP JUMPDEST PUSH1 0x40 MLOAD DUP1 SWAP2 SUB SWAP1 REVERT JUMPDEST PUSH1 0x0 PUSH20 0xFFFFFFFFFFFFFFFFFFFFFFFFFFFFFFFFFFFFFFFF AND DUP3 PUSH20 0xFFFFFFFFFFFFFFFFFFFFFFFFFFFFFFFFFFFFFFFF AND SUB PUSH2 0x24BF JUMPI PUSH1 0x40 MLOAD PUSH32 0x8C379A000000000000000000000000000000000000000000000000000000000 DUP2 MSTORE PUSH1 0x4 ADD PUSH2 0x24B6 SWAP1 PUSH2 0x4A3F JUMP JUMPDEST PUSH1 0x40 MLOAD DUP1 SWAP2 SUB SWAP1 REVERT JUMPDEST PUSH2 0x24CC DUP4 DUP4 DUP4 PUSH1 0x1 PUSH2 0x2BA1 JUMP JUMPDEST DUP3 PUSH20 0xFFFFFFFFFFFFFFFFFFFFFFFFFFFFFFFFFFFFFFFF AND PUSH2 0x24EC DUP3 PUSH2 0x1676 JUMP JUMPDEST PUSH20 0xFFFFFFFFFFFFFFFFFFFFFFFFFFFFFFFFFFFFFFFF AND EQ PUSH2 0x2542 JUMPI PUSH1 0x40 MLOAD PUSH32 0x8C379A000000000000000000000000000000000000000000000000000000000 DUP2 MSTORE PUSH1 0x4 ADD PUSH2 0x2539 SWAP1 PUSH2 0x49AD JUMP JUMPDEST PUSH1 0x40 MLOAD DUP1 SWAP2 SUB SWAP1 REVERT JUMPDEST PUSH1 0x70 PUSH1 0x0 DUP3 DUP2 MSTORE PUSH1 0x20 ADD SWAP1 DUP2 MSTORE PUSH1 0x20 ADD PUSH1 0x0 KECCAK256 PUSH1 0x0 PUSH2 0x100 EXP DUP2 SLOAD SWAP1 PUSH20 0xFFFFFFFFFFFFFFFFFFFFFFFFFFFFFFFFFFFFFFFF MUL NOT AND SWAP1 SSTORE PUSH1 0x1 PUSH1 0x6F PUSH1 0x0 DUP6 PUSH20 0xFFFFFFFFFFFFFFFFFFFFFFFFFFFFFFFFFFFFFFFF AND PUSH20 0xFFFFFFFFFFFFFFFFFFFFFFFFFFFFFFFFFFFFFFFF AND DUP2 MSTORE PUSH1 0x20 ADD SWAP1 DUP2 MSTORE PUSH1 0x20 ADD PUSH1 0x0 KECCAK256 PUSH1 0x0 DUP3 DUP3 SLOAD SUB SWAP3 POP POP DUP2 SWAP1 SSTORE POP PUSH1 0x1 PUSH1 0x6F PUSH1 0x0 DUP5 PUSH20 0xFFFFFFFFFFFFFFFFFFFFFFFFFFFFFFFFFFFFFFFF AND PUSH20 0xFFFFFFFFFFFFFFFFFFFFFFFFFFFFFFFFFFFFFFFF AND DUP2 MSTORE PUSH1 0x20 ADD SWAP1 DUP2 MSTORE PUSH1 0x20 ADD PUSH1 0x0 KECCAK256 PUSH1 0x0 DUP3 DUP3 SLOAD ADD SWAP3 POP POP DUP2 SWAP1 SSTORE POP DUP2 PUSH1 0x6E PUSH1 0x0 DUP4 DUP2 MSTORE PUSH1 0x20 ADD SWAP1 DUP2 MSTORE PUSH1 0x20 ADD PUSH1 0x0 KECCAK256 PUSH1 0x0 PUSH2 0x100 EXP DUP2 SLOAD DUP2 PUSH20 0xFFFFFFFFFFFFFFFFFFFFFFFFFFFFFFFFFFFFFFFF MUL NOT AND SWAP1 DUP4 PUSH20 0xFFFFFFFFFFFFFFFFFFFFFFFFFFFFFFFFFFFFFFFF AND MUL OR SWAP1 SSTORE POP DUP1 DUP3 PUSH20 0xFFFFFFFFFFFFFFFFFFFFFFFFFFFFFFFFFFFFFFFF AND DUP5 PUSH20 0xFFFFFFFFFFFFFFFFFFFFFFFFFFFFFFFFFFFFFFFF AND PUSH32 0xDDF252AD1BE2C89B69C2B068FC378DAA952BA7F163C4A11628F55A4DF523B3EF PUSH1 0x40 MLOAD PUSH1 0x40 MLOAD DUP1 SWAP2 SUB SWAP1 LOG4 PUSH2 0x26CE DUP4 DUP4 DUP4 PUSH1 0x1 PUSH2 0x2BA7 JUMP JUMPDEST POP POP POP JUMP JUMPDEST PUSH1 0x0 PUSH1 0x6E PUSH1 0x0 DUP4 DUP2 MSTORE PUSH1 0x20 ADD SWAP1 DUP2 MSTORE PUSH1 0x20 ADD PUSH1 0x0 KECCAK256 PUSH1 0x0 SWAP1 SLOAD SWAP1 PUSH2 0x100 EXP SWAP1 DIV PUSH20 0xFFFFFFFFFFFFFFFFFFFFFFFFFFFFFFFFFFFFFFFF AND SWAP1 POP SWAP2 SWAP1 POP JUMP JUMPDEST DUP2 PUSH20 0xFFFFFFFFFFFFFFFFFFFFFFFFFFFFFFFFFFFFFFFF AND DUP4 PUSH20 0xFFFFFFFFFFFFFFFFFFFFFFFFFFFFFFFFFFFFFFFF AND SUB PUSH2 0x277E JUMPI PUSH1 0x40 MLOAD PUSH32 0x8C379A000000000000000000000000000000000000000000000000000000000 DUP2 MSTORE PUSH1 0x4 ADD PUSH2 0x2775 SWAP1 PUSH2 0x4AAB JUMP JUMPDEST PUSH1 0x40 MLOAD DUP1 SWAP2 SUB SWAP1 REVERT JUMPDEST DUP1 PUSH1 0x71 PUSH1 0x0 DUP6 PUSH20 0xFFFFFFFFFFFFFFFFFFFFFFFFFFFFFFFFFFFFFFFF AND PUSH20 0xFFFFFFFFFFFFFFFFFFFFFFFFFFFFFFFFFFFFFFFF AND DUP2 MSTORE PUSH1 0x20 ADD SWAP1 DUP2 MSTORE PUSH1 0x20 ADD PUSH1 0x0 KECCAK256 PUSH1 0x0 DUP5 PUSH20 0xFFFFFFFFFFFFFFFFFFFFFFFFFFFFFFFFFFFFFFFF AND PUSH20 0xFFFFFFFFFFFFFFFFFFFFFFFFFFFFFFFFFFFFFFFF AND DUP2 MSTORE PUSH1 0x20 ADD SWAP1 DUP2 MSTORE PUSH1 0x20 ADD PUSH1 0x0 KECCAK256 PUSH1 0x0 PUSH2 0x100 EXP DUP2 SLOAD DUP2 PUSH1 0xFF MUL NOT AND SWAP1 DUP4 ISZERO ISZERO MUL OR SWAP1 SSTORE POP DUP2 PUSH20 0xFFFFFFFFFFFFFFFFFFFFFFFFFFFFFFFFFFFFFFFF AND DUP4 PUSH20 0xFFFFFFFFFFFFFFFFFFFFFFFFFFFFFFFFFFFFFFFF AND PUSH32 0x17307EAB39AB6107E8899845AD3D59BD9653F200F220920489CA2B5937696C31 DUP4 PUSH1 0x40 MLOAD PUSH2 0x286F SWAP2 SWAP1 PUSH2 0x32C3 JUMP JUMPDEST PUSH1 0x40 MLOAD DUP1 SWAP2 SUB SWAP1 LOG3 POP POP POP JUMP JUMPDEST PUSH1 0x0 DUP1 DUP3 PUSH20 0xFFFFFFFFFFFFFFFFFFFFFFFFFFFFFFFFFFFFFFFF AND EXTCODESIZE GT SWAP1 POP SWAP2 SWAP1 POP JUMP JUMPDEST PUSH1 0x7 PUSH1 0x1 SWAP1 SLOAD SWAP1 PUSH2 0x100 EXP SWAP1 DIV PUSH1 0xFF AND PUSH2 0x28EE JUMPI PUSH1 0x40 MLOAD PUSH32 0x8C379A000000000000000000000000000000000000000000000000000000000 DUP2 MSTORE PUSH1 0x4 ADD PUSH2 0x28E5 SWAP1 PUSH2 0x4B3D JUMP JUMPDEST PUSH1 0x40 MLOAD DUP1 SWAP2 SUB SWAP1 REVERT JUMPDEST PUSH2 0x28F8 DUP3 DUP3 PUSH2 0x2BAD JUMP JUMPDEST POP POP JUMP JUMPDEST PUSH1 0x0 DUP2 PUSH1 0xB5 SWAP2 POP PUSH18 0x10000000000000000000000000000000000 DUP2 LT PUSH2 0x2929 JUMPI DUP1 PUSH1 0x80 SHR SWAP1 POP DUP2 PUSH1 0x40 SHL SWAP2 POP JUMPDEST PUSH10 0x1000000000000000000 DUP2 LT PUSH2 0x2947 JUMPI DUP1 PUSH1 0x40 SHR SWAP1 POP DUP2 PUSH1 0x20 SHL SWAP2 POP JUMPDEST PUSH6 0x10000000000 DUP2 LT PUSH2 0x2961 JUMPI DUP1 PUSH1 0x20 SHR SWAP1 POP DUP2 PUSH1 0x10 SHL SWAP2 POP JUMPDEST PUSH4 0x1000000 DUP2 LT PUSH2 0x2979 JUMPI DUP1 PUSH1 0x10 SHR SWAP1 POP DUP2 PUSH1 0x8 SHL SWAP2 POP JUMPDEST PUSH3 0x10000 DUP2 ADD DUP3 MUL PUSH1 0x12 SHR SWAP2 POP DUP2 DUP4 DIV DUP3 ADD PUSH1 0x1 SHR SWAP2 POP DUP2 DUP4 DIV DUP3 ADD PUSH1 0x1 SHR SWAP2 POP DUP2 DUP4 DIV DUP3 ADD PUSH1 0x1 SHR SWAP2 POP DUP2 DUP4 DIV DUP3 ADD PUSH1 0x1 SHR SWAP2 POP DUP2 DUP4 DIV DUP3 ADD PUSH1 0x1 SHR SWAP2 POP DUP2 DUP4 DIV DUP3 ADD PUSH1 0x1 SHR SWAP2 POP DUP2 DUP4 DIV DUP3 ADD PUSH1 0x1 SHR SWAP2 POP DUP2 DUP3 DUP5 DIV LT DUP3 SUB SWAP2 POP POP SWAP2 SWAP1 POP JUMP JUMPDEST PUSH2 0x29E6 DUP5 DUP5 DUP5 PUSH2 0x23DA JUMP JUMPDEST PUSH2 0x29F2 DUP5 DUP5 DUP5 DUP5 PUSH2 0x2C20 JUMP JUMPDEST PUSH2 0x2A31 JUMPI PUSH1 0x40 MLOAD PUSH32 0x8C379A000000000000000000000000000000000000000000000000000000000 DUP2 MSTORE PUSH1 0x4 ADD PUSH2 0x2A28 SWAP1 PUSH2 0x4BCF JUMP JUMPDEST PUSH1 0x40 MLOAD DUP1 SWAP2 SUB SWAP1 REVERT JUMPDEST POP POP POP POP JUMP JUMPDEST PUSH1 0x60 PUSH1 0x0 PUSH1 0x1 PUSH2 0x2A46 DUP5 PUSH2 0x2DA7 JUMP JUMPDEST ADD SWAP1 POP PUSH1 0x0 DUP2 PUSH8 0xFFFFFFFFFFFFFFFF DUP2 GT ISZERO PUSH2 0x2A65 JUMPI PUSH2 0x2A64 PUSH2 0x3711 JUMP JUMPDEST JUMPDEST PUSH1 0x40 MLOAD SWAP1 DUP1 DUP3 MSTORE DUP1 PUSH1 0x1F ADD PUSH1 0x1F NOT AND PUSH1 0x20 ADD DUP3 ADD PUSH1 0x40 MSTORE DUP1 ISZERO PUSH2 0x2A97 JUMPI DUP2 PUSH1 0x20 ADD PUSH1 0x1 DUP3 MUL DUP1 CALLDATASIZE DUP4 CALLDATACOPY DUP1 DUP3 ADD SWAP2 POP POP SWAP1 POP JUMPDEST POP SWAP1 POP PUSH1 0x0 DUP3 PUSH1 0x20 ADD DUP3 ADD SWAP1 POP JUMPDEST PUSH1 0x1 ISZERO PUSH2 0x2AFA JUMPI DUP1 DUP1 PUSH1 0x1 SWAP1 SUB SWAP2 POP POP PUSH32 0x3031323334353637383961626364656600000000000000000000000000000000 PUSH1 0xA DUP7 MOD BYTE DUP2 MSTORE8 PUSH1 0xA DUP6 DUP2 PUSH2 0x2AEE JUMPI PUSH2 0x2AED PUSH2 0x3EB5 JUMP JUMPDEST JUMPDEST DIV SWAP5 POP PUSH1 0x0 DUP6 SUB PUSH2 0x2AA5 JUMPI JUMPDEST DUP2 SWAP4 POP POP POP POP SWAP2 SWAP1 POP JUMP JUMPDEST PUSH1 0x0 DUP1 PUSH20 0xFFFFFFFFFFFFFFFFFFFFFFFFFFFFFFFFFFFFFFFF AND PUSH2 0x2B27 DUP4 PUSH2 0x26D3 JUMP JUMPDEST PUSH20 0xFFFFFFFFFFFFFFFFFFFFFFFFFFFFFFFFFFFFFFFF AND EQ ISZERO SWAP1 POP SWAP2 SWAP1 POP JUMP JUMPDEST PUSH2 0x2B50 DUP4 DUP4 PUSH2 0x2EFA JUMP JUMPDEST PUSH2 0x2B5D PUSH1 0x0 DUP5 DUP5 DUP5 PUSH2 0x2C20 JUMP JUMPDEST PUSH2 0x2B9C JUMPI PUSH1 0x40 MLOAD PUSH32 0x8C379A000000000000000000000000000000000000000000000000000000000 DUP2 MSTORE PUSH1 0x4 ADD PUSH2 0x2B93 SWAP1 PUSH2 0x4BCF JUMP JUMPDEST PUSH1 0x40 MLOAD DUP1 SWAP2 SUB SWAP1 REVERT JUMPDEST POP POP POP JUMP JUMPDEST POP POP POP POP JUMP JUMPDEST POP POP POP POP JUMP JUMPDEST PUSH1 0x7 PUSH1 0x1 SWAP1 SLOAD SWAP1 PUSH2 0x100 EXP SWAP1 DIV PUSH1 0xFF AND PUSH2 0x2BFC JUMPI PUSH1 0x40 MLOAD PUSH32 0x8C379A000000000000000000000000000000000000000000000000000000000 DUP2 MSTORE PUSH1 0x4 ADD PUSH2 0x2BF3 SWAP1 PUSH2 0x4B3D JUMP JUMPDEST PUSH1 0x40 MLOAD DUP1 SWAP2 SUB SWAP1 REVERT JUMPDEST DUP2 PUSH1 0x6C SWAP1 DUP2 PUSH2 0x2C0B SWAP2 SWAP1 PUSH2 0x4495 JUMP JUMPDEST POP DUP1 PUSH1 0x6D SWAP1 DUP2 PUSH2 0x2C1B SWAP2 SWAP1 PUSH2 0x4495 JUMP JUMPDEST POP POP POP JUMP JUMPDEST PUSH1 0x0 PUSH2 0x2C41 DUP5 PUSH20 0xFFFFFFFFFFFFFFFFFFFFFFFFFFFFFFFFFFFFFFFF AND PUSH2 0x287C JUMP JUMPDEST ISZERO PUSH2 0x2D9A JUMPI DUP4 PUSH20 0xFFFFFFFFFFFFFFFFFFFFFFFFFFFFFFFFFFFFFFFF AND PUSH4 0x150B7A02 PUSH2 0x2C6A PUSH2 0x21EE JUMP JUMPDEST DUP8 DUP7 DUP7 PUSH1 0x40 MLOAD DUP6 PUSH4 0xFFFFFFFF AND PUSH1 0xE0 SHL DUP2 MSTORE PUSH1 0x4 ADD PUSH2 0x2C8C SWAP5 SWAP4 SWAP3 SWAP2 SWAP1 PUSH2 0x4C44 JUMP JUMPDEST PUSH1 0x20 PUSH1 0x40 MLOAD DUP1 DUP4 SUB DUP2 PUSH1 0x0 DUP8 GAS CALL SWAP3 POP POP POP DUP1 ISZERO PUSH2 0x2CC8 JUMPI POP PUSH1 0x40 MLOAD RETURNDATASIZE PUSH1 0x1F NOT PUSH1 0x1F DUP3 ADD AND DUP3 ADD DUP1 PUSH1 0x40 MSTORE POP DUP2 ADD SWAP1 PUSH2 0x2CC5 SWAP2 SWAP1 PUSH2 0x4CA5 JUMP JUMPDEST PUSH1 0x1 JUMPDEST PUSH2 0x2D4A JUMPI RETURNDATASIZE DUP1 PUSH1 0x0 DUP2 EQ PUSH2 0x2CF8 JUMPI PUSH1 0x40 MLOAD SWAP2 POP PUSH1 0x1F NOT PUSH1 0x3F RETURNDATASIZE ADD AND DUP3 ADD PUSH1 0x40 MSTORE RETURNDATASIZE DUP3 MSTORE RETURNDATASIZE PUSH1 0x0 PUSH1 0x20 DUP5 ADD RETURNDATACOPY PUSH2 0x2CFD JUMP JUMPDEST PUSH1 0x60 SWAP2 POP JUMPDEST POP PUSH1 0x0 DUP2 MLOAD SUB PUSH2 0x2D42 JUMPI PUSH1 0x40 MLOAD PUSH32 0x8C379A000000000000000000000000000000000000000000000000000000000 DUP2 MSTORE PUSH1 0x4 ADD PUSH2 0x2D39 SWAP1 PUSH2 0x4BCF JUMP JUMPDEST PUSH1 0x40 MLOAD DUP1 SWAP2 SUB SWAP1 REVERT JUMPDEST DUP1 MLOAD DUP2 PUSH1 0x20 ADD REVERT JUMPDEST PUSH4 0x150B7A02 PUSH1 0xE0 SHL PUSH28 0xFFFFFFFFFFFFFFFFFFFFFFFFFFFFFFFFFFFFFFFFFFFFFFFFFFFFFFFF NOT AND DUP2 PUSH28 0xFFFFFFFFFFFFFFFFFFFFFFFFFFFFFFFFFFFFFFFFFFFFFFFFFFFFFFFF NOT AND EQ SWAP2 POP POP PUSH2 0x2D9F JUMP JUMPDEST PUSH1 0x1 SWAP1 POP JUMPDEST SWAP5 SWAP4 POP POP POP POP JUMP JUMPDEST PUSH1 0x0 DUP1 PUSH1 0x0 SWAP1 POP PUSH27 0x184F03E93FF9F4DAA797ED6E38ED64BF6A1F010000000000000000 DUP4 LT PUSH2 0x2E05 JUMPI PUSH27 0x184F03E93FF9F4DAA797ED6E38ED64BF6A1F010000000000000000 DUP4 DUP2 PUSH2 0x2DFB JUMPI PUSH2 0x2DFA PUSH2 0x3EB5 JUMP JUMPDEST JUMPDEST DIV SWAP3 POP PUSH1 0x40 DUP2 ADD SWAP1 POP JUMPDEST PUSH14 0x4EE2D6D415B85ACEF8100000000 DUP4 LT PUSH2 0x2E42 JUMPI PUSH14 0x4EE2D6D415B85ACEF8100000000 DUP4 DUP2 PUSH2 0x2E38 JUMPI PUSH2 0x2E37 PUSH2 0x3EB5 JUMP JUMPDEST JUMPDEST DIV SWAP3 POP PUSH1 0x20 DUP2 ADD SWAP1 POP JUMPDEST PUSH7 0x2386F26FC10000 DUP4 LT PUSH2 0x2E71 JUMPI PUSH7 0x2386F26FC10000 DUP4 DUP2 PUSH2 0x2E67 JUMPI PUSH2 0x2E66 PUSH2 0x3EB5 JUMP JUMPDEST JUMPDEST DIV SWAP3 POP PUSH1 0x10 DUP2 ADD SWAP1 POP JUMPDEST PUSH4 0x5F5E100 DUP4 LT PUSH2 0x2E9A JUMPI PUSH4 0x5F5E100 DUP4 DUP2 PUSH2 0x2E90 JUMPI PUSH2 0x2E8F PUSH2 0x3EB5 JUMP JUMPDEST JUMPDEST DIV SWAP3 POP PUSH1 0x8 DUP2 ADD SWAP1 POP JUMPDEST PUSH2 0x2710 DUP4 LT PUSH2 0x2EBF JUMPI PUSH2 0x2710 DUP4 DUP2 PUSH2 0x2EB5 JUMPI PUSH2 0x2EB4 PUSH2 0x3EB5 JUMP JUMPDEST JUMPDEST DIV SWAP3 POP PUSH1 0x4 DUP2 ADD SWAP1 POP JUMPDEST PUSH1 0x64 DUP4 LT PUSH2 0x2EE2 JUMPI PUSH1 0x64 DUP4 DUP2 PUSH2 0x2ED8 JUMPI PUSH2 0x2ED7 PUSH2 0x3EB5 JUMP JUMPDEST JUMPDEST DIV SWAP3 POP PUSH1 0x2 DUP2 ADD SWAP1 POP JUMPDEST PUSH1 0xA DUP4 LT PUSH2 0x2EF1 JUMPI PUSH1 0x1 DUP2 ADD SWAP1 POP JUMPDEST DUP1 SWAP2 POP POP SWAP2 SWAP1 POP JUMP JUMPDEST PUSH1 0x0 PUSH20 0xFFFFFFFFFFFFFFFFFFFFFFFFFFFFFFFFFFFFFFFF AND DUP3 PUSH20 0xFFFFFFFFFFFFFFFFFFFFFFFFFFFFFFFFFFFFFFFF AND SUB PUSH2 0x2F69 JUMPI PUSH1 0x40 MLOAD PUSH32 0x8C379A000000000000000000000000000000000000000000000000000000000 DUP2 MSTORE PUSH1 0x4 ADD PUSH2 0x2F60 SWAP1 PUSH2 0x4D1E JUMP JUMPDEST PUSH1 0x40 MLOAD DUP1 SWAP2 SUB SWAP1 REVERT JUMPDEST PUSH2 0x2F72 DUP2 PUSH2 0x2B05 JUMP JUMPDEST ISZERO PUSH2 0x2FB2 JUMPI PUSH1 0x40 MLOAD PUSH32 0x8C379A000000000000000000000000000000000000000000000000000000000 DUP2 MSTORE PUSH1 0x4 ADD PUSH2 0x2FA9 SWAP1 PUSH2 0x4D8A JUMP JUMPDEST PUSH1 0x40 MLOAD DUP1 SWAP2 SUB SWAP1 REVERT JUMPDEST PUSH2 0x2FC0 PUSH1 0x0 DUP4 DUP4 PUSH1 0x1 PUSH2 0x2BA1 JUMP JUMPDEST PUSH2 0x2FC9 DUP2 PUSH2 0x2B05 JUMP JUMPDEST ISZERO PUSH2 0x3009 JUMPI PUSH1 0x40 MLOAD PUSH32 0x8C379A000000000000000000000000000000000000000000000000000000000 DUP2 MSTORE PUSH1 0x4 ADD PUSH2 0x3000 SWAP1 PUSH2 0x4D8A JUMP JUMPDEST PUSH1 0x40 MLOAD DUP1 SWAP2 SUB SWAP1 REVERT JUMPDEST PUSH1 0x1 PUSH1 0x6F PUSH1 0x0 DUP5 PUSH20 0xFFFFFFFFFFFFFFFFFFFFFFFFFFFFFFFFFFFFFFFF AND PUSH20 0xFFFFFFFFFFFFFFFFFFFFFFFFFFFFFFFFFFFFFFFF AND DUP2 MSTORE PUSH1 0x20 ADD SWAP1 DUP2 MSTORE PUSH1 0x20 ADD PUSH1 0x0 KECCAK256 PUSH1 0x0 DUP3 DUP3 SLOAD ADD SWAP3 POP POP DUP2 SWAP1 SSTORE POP DUP2 PUSH1 0x6E PUSH1 0x0 DUP4 DUP2 MSTORE PUSH1 0x20 ADD SWAP1 DUP2 MSTORE PUSH1 0x20 ADD PUSH1 0x0 KECCAK256 PUSH1 0x0 PUSH2 0x100 EXP DUP2 SLOAD DUP2 PUSH20 0xFFFFFFFFFFFFFFFFFFFFFFFFFFFFFFFFFFFFFFFF MUL NOT AND SWAP1 DUP4 PUSH20 0xFFFFFFFFFFFFFFFFFFFFFFFFFFFFFFFFFFFFFFFF AND MUL OR SWAP1 SSTORE POP DUP1 DUP3 PUSH20 0xFFFFFFFFFFFFFFFFFFFFFFFFFFFFFFFFFFFFFFFF AND PUSH1 0x0 PUSH20 0xFFFFFFFFFFFFFFFFFFFFFFFFFFFFFFFFFFFFFFFF AND PUSH32 0xDDF252AD1BE2C89B69C2B068FC378DAA952BA7F163C4A11628F55A4DF523B3EF PUSH1 0x40 MLOAD PUSH1 0x40 MLOAD DUP1 SWAP2 SUB SWAP1 LOG4 PUSH2 0x3113 PUSH1 0x0 DUP4 DUP4 PUSH1 0x1 PUSH2 0x2BA7 JUMP JUMPDEST POP POP JUMP JUMPDEST DUP3 DUP1 SLOAD DUP3 DUP3 SSTORE SWAP1 PUSH1 0x0 MSTORE PUSH1 0x20 PUSH1 0x0 KECCAK256 SWAP1 PUSH1 0x1F ADD PUSH1 0x20 SWAP1 DIV DUP2 ADD SWAP3 DUP3 ISZERO PUSH2 0x31AD JUMPI SWAP2 PUSH1 0x20 MUL DUP3 ADD PUSH1 0x0 JUMPDEST DUP4 DUP3 GT ISZERO PUSH2 0x317E JUMPI DUP4 MLOAD DUP4 DUP3 PUSH2 0x100 EXP DUP2 SLOAD DUP2 PUSH1 0xFF MUL NOT AND SWAP1 DUP4 PUSH1 0xFF AND MUL OR SWAP1 SSTORE POP SWAP3 PUSH1 0x20 ADD SWAP3 PUSH1 0x1 ADD PUSH1 0x20 DUP2 PUSH1 0x0 ADD DIV SWAP3 DUP4 ADD SWAP3 PUSH1 0x1 SUB MUL PUSH2 0x3140 JUMP JUMPDEST DUP1 ISZERO PUSH2 0x31AB JUMPI DUP3 DUP2 PUSH2 0x100 EXP DUP2 SLOAD SWAP1 PUSH1 0xFF MUL NOT AND SWAP1 SSTORE PUSH1 0x1 ADD PUSH1 0x20 DUP2 PUSH1 0x0 ADD DIV SWAP3 DUP4 ADD SWAP3 PUSH1 0x1 SUB MUL PUSH2 0x317E JUMP JUMPDEST POP JUMPDEST POP SWAP1 POP PUSH2 0x31BA SWAP2 SWAP1 PUSH2 0x31BE JUMP JUMPDEST POP SWAP1 JUMP JUMPDEST JUMPDEST DUP1 DUP3 GT ISZERO PUSH2 0x31D7 JUMPI PUSH1 0x0 DUP2 PUSH1 0x0 SWAP1 SSTORE POP PUSH1 0x1 ADD PUSH2 0x31BF JUMP JUMPDEST POP SWAP1 JUMP JUMPDEST PUSH1 0x0 DUP2 SWAP1 POP SWAP2 SWAP1 POP JUMP JUMPDEST PUSH2 0x31EE DUP2 PUSH2 0x31DB JUMP JUMPDEST DUP3 MSTORE POP POP JUMP JUMPDEST PUSH1 0x0 PUSH1 0x20 DUP3 ADD SWAP1 POP PUSH2 0x3209 PUSH1 0x0 DUP4 ADD DUP5 PUSH2 0x31E5 JUMP JUMPDEST SWAP3 SWAP2 POP POP JUMP JUMPDEST PUSH1 0x0 PUSH1 0x40 MLOAD SWAP1 POP SWAP1 JUMP JUMPDEST PUSH1 0x0 DUP1 REVERT JUMPDEST PUSH1 0x0 DUP1 REVERT JUMPDEST PUSH1 0x0 PUSH32 0xFFFFFFFF00000000000000000000000000000000000000000000000000000000 DUP3 AND SWAP1 POP SWAP2 SWAP1 POP JUMP JUMPDEST PUSH2 0x3258 DUP2 PUSH2 0x3223 JUMP JUMPDEST DUP2 EQ PUSH2 0x3263 JUMPI PUSH1 0x0 DUP1 REVERT JUMPDEST POP JUMP JUMPDEST PUSH1 0x0 DUP2 CALLDATALOAD SWAP1 POP PUSH2 0x3275 DUP2 PUSH2 0x324F JUMP JUMPDEST SWAP3 SWAP2 POP POP JUMP JUMPDEST PUSH1 0x0 PUSH1 0x20 DUP3 DUP5 SUB SLT ISZERO PUSH2 0x3291 JUMPI PUSH2 0x3290 PUSH2 0x3219 JUMP JUMPDEST JUMPDEST PUSH1 0x0 PUSH2 0x329F DUP5 DUP3 DUP6 ADD PUSH2 0x3266 JUMP JUMPDEST SWAP2 POP POP SWAP3 SWAP2 POP POP JUMP JUMPDEST PUSH1 0x0 DUP2 ISZERO ISZERO SWAP1 POP SWAP2 SWAP1 POP JUMP JUMPDEST PUSH2 0x32BD DUP2 PUSH2 0x32A8 JUMP JUMPDEST DUP3 MSTORE POP POP JUMP JUMPDEST PUSH1 0x0 PUSH1 0x20 DUP3 ADD SWAP1 POP PUSH2 0x32D8 PUSH1 0x0 DUP4 ADD DUP5 PUSH2 0x32B4 JUMP JUMPDEST SWAP3 SWAP2 POP POP JUMP JUMPDEST PUSH2 0x32E7 DUP2 PUSH2 0x31DB JUMP JUMPDEST DUP2 EQ PUSH2 0x32F2 JUMPI PUSH1 0x0 DUP1 REVERT JUMPDEST POP JUMP JUMPDEST PUSH1 0x0 DUP2 CALLDATALOAD SWAP1 POP PUSH2 0x3304 DUP2 PUSH2 0x32DE JUMP JUMPDEST SWAP3 SWAP2 POP POP JUMP JUMPDEST PUSH1 0x0 PUSH1 0x20 DUP3 DUP5 SUB SLT ISZERO PUSH2 0x3320 JUMPI PUSH2 0x331F PUSH2 0x3219 JUMP JUMPDEST JUMPDEST PUSH1 0x0 PUSH2 0x332E DUP5 DUP3 DUP6 ADD PUSH2 0x32F5 JUMP JUMPDEST SWAP2 POP POP SWAP3 SWAP2 POP POP JUMP JUMPDEST PUSH1 0x0 PUSH1 0xFF DUP3 AND SWAP1 POP SWAP2 SWAP1 POP JUMP JUMPDEST PUSH2 0x334D DUP2 PUSH2 0x3337 JUMP JUMPDEST DUP3 MSTORE POP POP JUMP JUMPDEST PUSH1 0x0 PUSH1 0x20 DUP3 ADD SWAP1 POP PUSH2 0x3368 PUSH1 0x0 DUP4 ADD DUP5 PUSH2 0x3344 JUMP JUMPDEST SWAP3 SWAP2 POP POP JUMP JUMPDEST PUSH1 0x0 DUP2 MLOAD SWAP1 POP SWAP2 SWAP1 POP JUMP JUMPDEST PUSH1 0x0 DUP3 DUP3 MSTORE PUSH1 0x20 DUP3 ADD SWAP1 POP SWAP3 SWAP2 POP POP JUMP JUMPDEST PUSH1 0x0 JUMPDEST DUP4 DUP2 LT ISZERO PUSH2 0x33A8 JUMPI DUP1 DUP3 ADD MLOAD DUP2 DUP5 ADD MSTORE PUSH1 0x20 DUP2 ADD SWAP1 POP PUSH2 0x338D JUMP JUMPDEST PUSH1 0x0 DUP5 DUP5 ADD MSTORE POP POP POP POP JUMP JUMPDEST PUSH1 0x0 PUSH1 0x1F NOT PUSH1 0x1F DUP4 ADD AND SWAP1 POP SWAP2 SWAP1 POP JUMP JUMPDEST PUSH1 0x0 PUSH2 0x33D0 DUP3 PUSH2 0x336E JUMP JUMPDEST PUSH2 0x33DA DUP2 DUP6 PUSH2 0x3379 JUMP JUMPDEST SWAP4 POP PUSH2 0x33EA DUP2 DUP6 PUSH1 0x20 DUP7 ADD PUSH2 0x338A JUMP JUMPDEST PUSH2 0x33F3 DUP2 PUSH2 0x33B4 JUMP JUMPDEST DUP5 ADD SWAP2 POP POP SWAP3 SWAP2 POP POP JUMP JUMPDEST PUSH1 0x0 PUSH1 0x20 DUP3 ADD SWAP1 POP DUP2 DUP2 SUB PUSH1 0x0 DUP4 ADD MSTORE PUSH2 0x3418 DUP2 DUP5 PUSH2 0x33C5 JUMP JUMPDEST SWAP1 POP SWAP3 SWAP2 POP POP JUMP JUMPDEST PUSH2 0x3429 DUP2 PUSH2 0x3337 JUMP JUMPDEST DUP2 EQ PUSH2 0x3434 JUMPI PUSH1 0x0 DUP1 REVERT JUMPDEST POP JUMP JUMPDEST PUSH1 0x0 DUP2 CALLDATALOAD SWAP1 POP PUSH2 0x3446 DUP2 PUSH2 0x3420 JUMP JUMPDEST SWAP3 SWAP2 POP POP JUMP JUMPDEST PUSH1 0x0 PUSH1 0x20 DUP3 DUP5 SUB SLT ISZERO PUSH2 0x3462 JUMPI PUSH2 0x3461 PUSH2 0x3219 JUMP JUMPDEST JUMPDEST PUSH1 0x0 PUSH2 0x3470 DUP5 DUP3 DUP6 ADD PUSH2 0x3437 JUMP JUMPDEST SWAP2 POP POP SWAP3 SWAP2 POP POP JUMP JUMPDEST PUSH1 0x0 PUSH20 0xFFFFFFFFFFFFFFFFFFFFFFFFFFFFFFFFFFFFFFFF DUP3 AND SWAP1 POP SWAP2 SWAP1 POP JUMP JUMPDEST PUSH1 0x0 PUSH2 0x34A4 DUP3 PUSH2 0x3479 JUMP JUMPDEST SWAP1 POP SWAP2 SWAP1 POP JUMP JUMPDEST PUSH2 0x34B4 DUP2 PUSH2 0x3499 JUMP JUMPDEST DUP3 MSTORE POP POP JUMP JUMPDEST PUSH1 0x0 PUSH1 0x20 DUP3 ADD SWAP1 POP PUSH2 0x34CF PUSH1 0x0 DUP4 ADD DUP5 PUSH2 0x34AB JUMP JUMPDEST SWAP3 SWAP2 POP POP JUMP JUMPDEST PUSH2 0x34DE DUP2 PUSH2 0x3499 JUMP JUMPDEST DUP2 EQ PUSH2 0x34E9 JUMPI PUSH1 0x0 DUP1 REVERT JUMPDEST POP JUMP JUMPDEST PUSH1 0x0 DUP2 CALLDATALOAD SWAP1 POP PUSH2 0x34FB DUP2 PUSH2 0x34D5 JUMP JUMPDEST SWAP3 SWAP2 POP POP JUMP JUMPDEST PUSH1 0x0 DUP1 PUSH1 0x40 DUP4 DUP6 SUB SLT ISZERO PUSH2 0x3518 JUMPI PUSH2 0x3517 PUSH2 0x3219 JUMP JUMPDEST JUMPDEST PUSH1 0x0 PUSH2 0x3526 DUP6 DUP3 DUP7 ADD PUSH2 0x34EC JUMP JUMPDEST SWAP3 POP POP PUSH1 0x20 PUSH2 0x3537 DUP6 DUP3 DUP7 ADD PUSH2 0x32F5 JUMP JUMPDEST SWAP2 POP POP SWAP3 POP SWAP3 SWAP1 POP JUMP JUMPDEST PUSH1 0x0 DUP2 SWAP1 POP SWAP2 SWAP1 POP JUMP JUMPDEST PUSH2 0x3554 DUP2 PUSH2 0x3541 JUMP JUMPDEST DUP2 EQ PUSH2 0x355F JUMPI PUSH1 0x0 DUP1 REVERT JUMPDEST POP JUMP JUMPDEST PUSH1 0x0 DUP2 CALLDATALOAD SWAP1 POP PUSH2 0x3571 DUP2 PUSH2 0x354B JUMP JUMPDEST SWAP3 SWAP2 POP POP JUMP JUMPDEST PUSH1 0x0 DUP1 PUSH1 0x40 DUP4 DUP6 SUB SLT ISZERO PUSH2 0x358E JUMPI PUSH2 0x358D PUSH2 0x3219 JUMP JUMPDEST JUMPDEST PUSH1 0x0 PUSH2 0x359C DUP6 DUP3 DUP7 ADD PUSH2 0x32F5 JUMP JUMPDEST SWAP3 POP POP PUSH1 0x20 PUSH2 0x35AD DUP6 DUP3 DUP7 ADD PUSH2 0x3562 JUMP JUMPDEST SWAP2 POP POP SWAP3 POP SWAP3 SWAP1 POP JUMP JUMPDEST PUSH1 0x0 DUP1 PUSH1 0x0 PUSH1 0x60 DUP5 DUP7 SUB SLT ISZERO PUSH2 0x35D0 JUMPI PUSH2 0x35CF PUSH2 0x3219 JUMP JUMPDEST JUMPDEST PUSH1 0x0 PUSH2 0x35DE DUP7 DUP3 DUP8 ADD PUSH2 0x34EC JUMP JUMPDEST SWAP4 POP POP PUSH1 0x20 PUSH2 0x35EF DUP7 DUP3 DUP8 ADD PUSH2 0x34EC JUMP JUMPDEST SWAP3 POP POP PUSH1 0x40 PUSH2 0x3600 DUP7 DUP3 DUP8 ADD PUSH2 0x32F5 JUMP JUMPDEST SWAP2 POP POP SWAP3 POP SWAP3 POP SWAP3 JUMP JUMPDEST PUSH2 0x3613 DUP2 PUSH2 0x3541 JUMP JUMPDEST DUP3 MSTORE POP POP JUMP JUMPDEST PUSH1 0x0 PUSH1 0x20 DUP3 ADD SWAP1 POP PUSH2 0x362E PUSH1 0x0 DUP4 ADD DUP5 PUSH2 0x360A JUMP JUMPDEST SWAP3 SWAP2 POP POP JUMP JUMPDEST PUSH1 0x0 PUSH1 0xC0 DUP3 ADD SWAP1 POP PUSH2 0x3649 PUSH1 0x0 DUP4 ADD DUP10 PUSH2 0x31E5 JUMP JUMPDEST PUSH2 0x3656 PUSH1 0x20 DUP4 ADD DUP9 PUSH2 0x31E5 JUMP JUMPDEST PUSH2 0x3663 PUSH1 0x40 DUP4 ADD DUP8 PUSH2 0x31E5 JUMP JUMPDEST PUSH2 0x3670 PUSH1 0x60 DUP4 ADD DUP7 PUSH2 0x31E5 JUMP JUMPDEST PUSH2 0x367D PUSH1 0x80 DUP4 ADD DUP6 PUSH2 0x31E5 JUMP JUMPDEST PUSH2 0x368A PUSH1 0xA0 DUP4 ADD DUP5 PUSH2 0x31E5 JUMP JUMPDEST SWAP8 SWAP7 POP POP POP POP POP POP POP JUMP JUMPDEST PUSH1 0x0 PUSH1 0x20 DUP3 DUP5 SUB SLT ISZERO PUSH2 0x36AB JUMPI PUSH2 0x36AA PUSH2 0x3219 JUMP JUMPDEST JUMPDEST PUSH1 0x0 PUSH2 0x36B9 DUP5 DUP3 DUP6 ADD PUSH2 0x34EC JUMP JUMPDEST SWAP2 POP POP SWAP3 SWAP2 POP POP JUMP JUMPDEST PUSH1 0x0 PUSH1 0x80 DUP3 ADD SWAP1 POP PUSH2 0x36D7 PUSH1 0x0 DUP4 ADD DUP8 PUSH2 0x34AB JUMP JUMPDEST PUSH2 0x36E4 PUSH1 0x20 DUP4 ADD DUP7 PUSH2 0x31E5 JUMP JUMPDEST PUSH2 0x36F1 PUSH1 0x40 DUP4 ADD DUP6 PUSH2 0x31E5 JUMP JUMPDEST PUSH2 0x36FE PUSH1 0x60 DUP4 ADD DUP5 PUSH2 0x31E5 JUMP JUMPDEST SWAP6 SWAP5 POP POP POP POP POP JUMP JUMPDEST PUSH1 0x0 DUP1 REVERT JUMPDEST PUSH1 0x0 DUP1 REVERT JUMPDEST PUSH32 0x4E487B7100000000000000000000000000000000000000000000000000000000 PUSH1 0x0 MSTORE PUSH1 0x41 PUSH1 0x4 MSTORE PUSH1 0x24 PUSH1 0x0 REVERT JUMPDEST PUSH2 0x3749 DUP3 PUSH2 0x33B4 JUMP JUMPDEST DUP2 ADD DUP2 DUP2 LT PUSH8 0xFFFFFFFFFFFFFFFF DUP3 GT OR ISZERO PUSH2 0x3768 JUMPI PUSH2 0x3767 PUSH2 0x3711 JUMP JUMPDEST JUMPDEST DUP1 PUSH1 0x40 MSTORE POP POP POP JUMP JUMPDEST PUSH1 0x0 PUSH2 0x377B PUSH2 0x320F JUMP JUMPDEST SWAP1 POP PUSH2 0x3787 DUP3 DUP3 PUSH2 0x3740 JUMP JUMPDEST SWAP2 SWAP1 POP JUMP JUMPDEST PUSH1 0x0 PUSH8 0xFFFFFFFFFFFFFFFF DUP3 GT ISZERO PUSH2 0x37A7 JUMPI PUSH2 0x37A6 PUSH2 0x3711 JUMP JUMPDEST JUMPDEST PUSH2 0x37B0 DUP3 PUSH2 0x33B4 JUMP JUMPDEST SWAP1 POP PUSH1 0x20 DUP2 ADD SWAP1 POP SWAP2 SWAP1 POP JUMP JUMPDEST DUP3 DUP2 DUP4 CALLDATACOPY PUSH1 0x0 DUP4 DUP4 ADD MSTORE POP POP POP JUMP JUMPDEST PUSH1 0x0 PUSH2 0x37DF PUSH2 0x37DA DUP5 PUSH2 0x378C JUMP JUMPDEST PUSH2 0x3771 JUMP JUMPDEST SWAP1 POP DUP3 DUP2 MSTORE PUSH1 0x20 DUP2 ADD DUP5 DUP5 DUP5 ADD GT ISZERO PUSH2 0x37FB JUMPI PUSH2 0x37FA PUSH2 0x370C JUMP JUMPDEST JUMPDEST PUSH2 0x3806 DUP5 DUP3 DUP6 PUSH2 0x37BD JUMP JUMPDEST POP SWAP4 SWAP3 POP POP POP JUMP JUMPDEST PUSH1 0x0 DUP3 PUSH1 0x1F DUP4 ADD SLT PUSH2 0x3823 JUMPI PUSH2 0x3822 PUSH2 0x3707 JUMP JUMPDEST JUMPDEST DUP2 CALLDATALOAD PUSH2 0x3833 DUP5 DUP3 PUSH1 0x20 DUP7 ADD PUSH2 0x37CC JUMP JUMPDEST SWAP2 POP POP SWAP3 SWAP2 POP POP JUMP JUMPDEST PUSH1 0x0 PUSH1 0x20 DUP3 DUP5 SUB SLT ISZERO PUSH2 0x3852 JUMPI PUSH2 0x3851 PUSH2 0x3219 JUMP JUMPDEST JUMPDEST PUSH1 0x0 DUP3 ADD CALLDATALOAD PUSH8 0xFFFFFFFFFFFFFFFF DUP2 GT ISZERO PUSH2 0x3870 JUMPI PUSH2 0x386F PUSH2 0x321E JUMP JUMPDEST JUMPDEST PUSH2 0x387C DUP5 DUP3 DUP6 ADD PUSH2 0x380E JUMP JUMPDEST SWAP2 POP POP SWAP3 SWAP2 POP POP JUMP JUMPDEST PUSH2 0x388E DUP2 PUSH2 0x32A8 JUMP JUMPDEST DUP2 EQ PUSH2 0x3899 JUMPI PUSH1 0x0 DUP1 REVERT JUMPDEST POP JUMP JUMPDEST PUSH1 0x0 DUP2 CALLDATALOAD SWAP1 POP PUSH2 0x38AB DUP2 PUSH2 0x3885 JUMP JUMPDEST SWAP3 SWAP2 POP POP JUMP JUMPDEST PUSH1 0x0 DUP1 PUSH1 0x40 DUP4 DUP6 SUB SLT ISZERO PUSH2 0x38C8 JUMPI PUSH2 0x38C7 PUSH2 0x3219 JUMP JUMPDEST JUMPDEST PUSH1 0x0 PUSH2 0x38D6 DUP6 DUP3 DUP7 ADD PUSH2 0x34EC JUMP JUMPDEST SWAP3 POP POP PUSH1 0x20 PUSH2 0x38E7 DUP6 DUP3 DUP7 ADD PUSH2 0x389C JUMP JUMPDEST SWAP2 POP POP SWAP3 POP SWAP3 SWAP1 POP JUMP JUMPDEST PUSH1 0x0 DUP1 PUSH1 0x0 PUSH1 0x60 DUP5 DUP7 SUB SLT ISZERO PUSH2 0x390A JUMPI PUSH2 0x3909 PUSH2 0x3219 JUMP JUMPDEST JUMPDEST PUSH1 0x0 DUP5 ADD CALLDATALOAD PUSH8 0xFFFFFFFFFFFFFFFF DUP2 GT ISZERO PUSH2 0x3928 JUMPI PUSH2 0x3927 PUSH2 0x321E JUMP JUMPDEST JUMPDEST PUSH2 0x3934 DUP7 DUP3 DUP8 ADD PUSH2 0x380E JUMP JUMPDEST SWAP4 POP POP PUSH1 0x20 DUP5 ADD CALLDATALOAD PUSH8 0xFFFFFFFFFFFFFFFF DUP2 GT ISZERO PUSH2 0x3955 JUMPI PUSH2 0x3954 PUSH2 0x321E JUMP JUMPDEST JUMPDEST PUSH2 0x3961 DUP7 DUP3 DUP8 ADD PUSH2 0x380E JUMP JUMPDEST SWAP3 POP POP PUSH1 0x40 DUP5 ADD CALLDATALOAD PUSH8 0xFFFFFFFFFFFFFFFF DUP2 GT ISZERO PUSH2 0x3982 JUMPI PUSH2 0x3981 PUSH2 0x321E JUMP JUMPDEST JUMPDEST PUSH2 0x398E DUP7 DUP3 DUP8 ADD PUSH2 0x380E JUMP JUMPDEST SWAP2 POP POP SWAP3 POP SWAP3 POP SWAP3 JUMP JUMPDEST PUSH1 0x0 DUP1 PUSH1 0x40 DUP4 DUP6 SUB SLT ISZERO PUSH2 0x39AF JUMPI PUSH2 0x39AE PUSH2 0x3219 JUMP JUMPDEST JUMPDEST PUSH1 0x0 PUSH2 0x39BD DUP6 DUP3 DUP7 ADD PUSH2 0x32F5 JUMP JUMPDEST SWAP3 POP POP PUSH1 0x20 PUSH2 0x39CE DUP6 DUP3 DUP7 ADD PUSH2 0x32F5 JUMP JUMPDEST SWAP2 POP POP SWAP3 POP SWAP3 SWAP1 POP JUMP JUMPDEST PUSH1 0x0 PUSH8 0xFFFFFFFFFFFFFFFF DUP3 GT ISZERO PUSH2 0x39F3 JUMPI PUSH2 0x39F2 PUSH2 0x3711 JUMP JUMPDEST JUMPDEST PUSH2 0x39FC DUP3 PUSH2 0x33B4 JUMP JUMPDEST SWAP1 POP PUSH1 0x20 DUP2 ADD SWAP1 POP SWAP2 SWAP1 POP JUMP JUMPDEST PUSH1 0x0 PUSH2 0x3A1C PUSH2 0x3A17 DUP5 PUSH2 0x39D8 JUMP JUMPDEST PUSH2 0x3771 JUMP JUMPDEST SWAP1 POP DUP3 DUP2 MSTORE PUSH1 0x20 DUP2 ADD DUP5 DUP5 DUP5 ADD GT ISZERO PUSH2 0x3A38 JUMPI PUSH2 0x3A37 PUSH2 0x370C JUMP JUMPDEST JUMPDEST PUSH2 0x3A43 DUP5 DUP3 DUP6 PUSH2 0x37BD JUMP JUMPDEST POP SWAP4 SWAP3 POP POP POP JUMP JUMPDEST PUSH1 0x0 DUP3 PUSH1 0x1F DUP4 ADD SLT PUSH2 0x3A60 JUMPI PUSH2 0x3A5F PUSH2 0x3707 JUMP JUMPDEST JUMPDEST DUP2 CALLDATALOAD PUSH2 0x3A70 DUP5 DUP3 PUSH1 0x20 DUP7 ADD PUSH2 0x3A09 JUMP JUMPDEST SWAP2 POP POP SWAP3 SWAP2 POP POP JUMP JUMPDEST PUSH1 0x0 DUP1 PUSH1 0x0 DUP1 PUSH1 0x80 DUP6 DUP8 SUB SLT ISZERO PUSH2 0x3A93 JUMPI PUSH2 0x3A92 PUSH2 0x3219 JUMP JUMPDEST JUMPDEST PUSH1 0x0 PUSH2 0x3AA1 DUP8 DUP3 DUP9 ADD PUSH2 0x34EC JUMP JUMPDEST SWAP5 POP POP PUSH1 0x20 PUSH2 0x3AB2 DUP8 DUP3 DUP9 ADD PUSH2 0x34EC JUMP JUMPDEST SWAP4 POP POP PUSH1 0x40 PUSH2 0x3AC3 DUP8 DUP3 DUP9 ADD PUSH2 0x32F5 JUMP JUMPDEST SWAP3 POP POP PUSH1 0x60 DUP6 ADD CALLDATALOAD PUSH8 0xFFFFFFFFFFFFFFFF DUP2 GT ISZERO PUSH2 0x3AE4 JUMPI PUSH2 0x3AE3 PUSH2 0x321E JUMP JUMPDEST JUMPDEST PUSH2 0x3AF0 DUP8 DUP3 DUP9 ADD PUSH2 0x3A4B JUMP JUMPDEST SWAP2 POP POP SWAP3 SWAP6 SWAP2 SWAP5 POP SWAP3 POP JUMP JUMPDEST PUSH1 0x0 DUP1 PUSH1 0x40 DUP4 DUP6 SUB SLT ISZERO PUSH2 0x3B13 JUMPI PUSH2 0x3B12 PUSH2 0x3219 JUMP JUMPDEST JUMPDEST PUSH1 0x0 PUSH2 0x3B21 DUP6 DUP3 DUP7 ADD PUSH2 0x34EC JUMP JUMPDEST SWAP3 POP POP PUSH1 0x20 PUSH2 0x3B32 DUP6 DUP3 DUP7 ADD PUSH2 0x34EC JUMP JUMPDEST SWAP2 POP POP SWAP3 POP SWAP3 SWAP1 POP JUMP JUMPDEST PUSH32 0x4E487B7100000000000000000000000000000000000000000000000000000000 PUSH1 0x0 MSTORE PUSH1 0x22 PUSH1 0x4 MSTORE PUSH1 0x24 PUSH1 0x0 REVERT JUMPDEST PUSH1 0x0 PUSH1 0x2 DUP3 DIV SWAP1 POP PUSH1 0x1 DUP3 AND DUP1 PUSH2 0x3B83 JUMPI PUSH1 0x7F DUP3 AND SWAP2 POP JUMPDEST PUSH1 0x20 DUP3 LT DUP2 SUB PUSH2 0x3B96 JUMPI PUSH2 0x3B95 PUSH2 0x3B3C JUMP JUMPDEST JUMPDEST POP SWAP2 SWAP1 POP JUMP JUMPDEST PUSH32 0x4E487B7100000000000000000000000000000000000000000000000000000000 PUSH1 0x0 MSTORE PUSH1 0x11 PUSH1 0x4 MSTORE PUSH1 0x24 PUSH1 0x0 REVERT JUMPDEST PUSH1 0x0 PUSH2 0x3BD6 DUP3 PUSH2 0x31DB JUMP JUMPDEST SWAP2 POP PUSH2 0x3BE1 DUP4 PUSH2 0x31DB JUMP JUMPDEST SWAP3 POP DUP3 DUP3 MUL PUSH2 0x3BEF DUP2 PUSH2 0x31DB JUMP JUMPDEST SWAP2 POP DUP3 DUP3 DIV DUP5 EQ DUP4 ISZERO OR PUSH2 0x3C06 JUMPI PUSH2 0x3C05 PUSH2 0x3B9C JUMP JUMPDEST JUMPDEST POP SWAP3 SWAP2 POP POP JUMP JUMPDEST PUSH1 0x0 PUSH2 0x3C18 DUP3 PUSH2 0x3337 JUMP JUMPDEST SWAP2 POP PUSH2 0x3C23 DUP4 PUSH2 0x3337 JUMP JUMPDEST SWAP3 POP DUP3 DUP3 ADD SWAP1 POP PUSH1 0xFF DUP2 GT ISZERO PUSH2 0x3C3C JUMPI PUSH2 0x3C3B PUSH2 0x3B9C JUMP JUMPDEST JUMPDEST SWAP3 SWAP2 POP POP JUMP JUMPDEST PUSH32 0x4552433732313A20617070726F76616C20746F2063757272656E74206F776E65 PUSH1 0x0 DUP3 ADD MSTORE PUSH32 0x7200000000000000000000000000000000000000000000000000000000000000 PUSH1 0x20 DUP3 ADD MSTORE POP JUMP JUMPDEST PUSH1 0x0 PUSH2 0x3C9E PUSH1 0x21 DUP4 PUSH2 0x3379 JUMP JUMPDEST SWAP2 POP PUSH2 0x3CA9 DUP3 PUSH2 0x3C42 JUMP JUMPDEST PUSH1 0x40 DUP3 ADD SWAP1 POP SWAP2 SWAP1 POP JUMP JUMPDEST PUSH1 0x0 PUSH1 0x20 DUP3 ADD SWAP1 POP DUP2 DUP2 SUB PUSH1 0x0 DUP4 ADD MSTORE PUSH2 0x3CCD DUP2 PUSH2 0x3C91 JUMP JUMPDEST SWAP1 POP SWAP2 SWAP1 POP JUMP JUMPDEST PUSH32 0x4552433732313A20617070726F76652063616C6C6572206973206E6F7420746F PUSH1 0x0 DUP3 ADD MSTORE PUSH32 0x6B656E206F776E6572206F7220617070726F76656420666F7220616C6C000000 PUSH1 0x20 DUP3 ADD MSTORE POP JUMP JUMPDEST PUSH1 0x0 PUSH2 0x3D30 PUSH1 0x3D DUP4 PUSH2 0x3379 JUMP JUMPDEST SWAP2 POP PUSH2 0x3D3B DUP3 PUSH2 0x3CD4 JUMP JUMPDEST PUSH1 0x40 DUP3 ADD SWAP1 POP SWAP2 SWAP1 POP JUMP JUMPDEST PUSH1 0x0 PUSH1 0x20 DUP3 ADD SWAP1 POP DUP2 DUP2 SUB PUSH1 0x0 DUP4 ADD MSTORE PUSH2 0x3D5F DUP2 PUSH2 0x3D23 JUMP JUMPDEST SWAP1 POP SWAP2 SWAP1 POP JUMP JUMPDEST PUSH1 0x0 PUSH2 0x3D71 DUP3 PUSH2 0x31DB JUMP JUMPDEST SWAP2 POP PUSH32 0xFFFFFFFFFFFFFFFFFFFFFFFFFFFFFFFFFFFFFFFFFFFFFFFFFFFFFFFFFFFFFFFF DUP3 SUB PUSH2 0x3DA3 JUMPI PUSH2 0x3DA2 PUSH2 0x3B9C JUMP JUMPDEST JUMPDEST PUSH1 0x1 DUP3 ADD SWAP1 POP SWAP2 SWAP1 POP JUMP JUMPDEST PUSH32 0x4E6F6E636520696E636F72726563740000000000000000000000000000000000 PUSH1 0x0 DUP3 ADD MSTORE POP JUMP JUMPDEST PUSH1 0x0 PUSH2 0x3DE4 PUSH1 0xF DUP4 PUSH2 0x3379 JUMP JUMPDEST SWAP2 POP PUSH2 0x3DEF DUP3 PUSH2 0x3DAE JUMP JUMPDEST PUSH1 0x20 DUP3 ADD SWAP1 POP SWAP2 SWAP1 POP JUMP JUMPDEST PUSH1 0x0 PUSH1 0x20 DUP3 ADD SWAP1 POP DUP2 DUP2 SUB PUSH1 0x0 DUP4 ADD MSTORE PUSH2 0x3E13 DUP2 PUSH2 0x3DD7 JUMP JUMPDEST SWAP1 POP SWAP2 SWAP1 POP JUMP JUMPDEST PUSH32 0x536F6C7574696F6E206578697374000000000000000000000000000000000000 PUSH1 0x0 DUP3 ADD MSTORE POP JUMP JUMPDEST PUSH1 0x0 PUSH2 0x3E50 PUSH1 0xE DUP4 PUSH2 0x3379 JUMP JUMPDEST SWAP2 POP PUSH2 0x3E5B DUP3 PUSH2 0x3E1A JUMP JUMPDEST PUSH1 0x20 DUP3 ADD SWAP1 POP SWAP2 SWAP1 POP JUMP JUMPDEST PUSH1 0x0 PUSH1 0x20 DUP3 ADD SWAP1 POP DUP2 DUP2 SUB PUSH1 0x0 DUP4 ADD MSTORE PUSH2 0x3E7F DUP2 PUSH2 0x3E43 JUMP JUMPDEST SWAP1 POP SWAP2 SWAP1 POP JUMP JUMPDEST PUSH32 0x4E487B7100000000000000000000000000000000000000000000000000000000 PUSH1 0x0 MSTORE PUSH1 0x32 PUSH1 0x4 MSTORE PUSH1 0x24 PUSH1 0x0 REVERT JUMPDEST PUSH32 0x4E487B7100000000000000000000000000000000000000000000000000000000 PUSH1 0x0 MSTORE PUSH1 0x12 PUSH1 0x4 MSTORE PUSH1 0x24 PUSH1 0x0 REVERT JUMPDEST PUSH1 0x0 PUSH2 0x3EEF DUP3 PUSH2 0x31DB JUMP JUMPDEST SWAP2 POP PUSH2 0x3EFA DUP4 PUSH2 0x31DB JUMP JUMPDEST SWAP3 POP DUP3 PUSH2 0x3F0A JUMPI PUSH2 0x3F09 PUSH2 0x3EB5 JUMP JUMPDEST JUMPDEST DUP3 DUP3 DIV SWAP1 POP SWAP3 SWAP2 POP POP JUMP JUMPDEST PUSH1 0x0 PUSH2 0x3F20 DUP3 PUSH2 0x31DB JUMP JUMPDEST SWAP2 POP PUSH2 0x3F2B DUP4 PUSH2 0x31DB JUMP JUMPDEST SWAP3 POP DUP3 DUP3 ADD SWAP1 POP DUP1 DUP3 GT ISZERO PUSH2 0x3F43 JUMPI PUSH2 0x3F42 PUSH2 0x3B9C JUMP JUMPDEST JUMPDEST SWAP3 SWAP2 POP POP JUMP JUMPDEST PUSH32 0x4552433732313A2063616C6C6572206973206E6F7420746F6B656E206F776E65 PUSH1 0x0 DUP3 ADD MSTORE PUSH32 0x72206F7220617070726F76656400000000000000000000000000000000000000 PUSH1 0x20 DUP3 ADD MSTORE POP JUMP JUMPDEST PUSH1 0x0 PUSH2 0x3FA5 PUSH1 0x2D DUP4 PUSH2 0x3379 JUMP JUMPDEST SWAP2 POP PUSH2 0x3FB0 DUP3 PUSH2 0x3F49 JUMP JUMPDEST PUSH1 0x40 DUP3 ADD SWAP1 POP SWAP2 SWAP1 POP JUMP JUMPDEST PUSH1 0x0 PUSH1 0x20 DUP3 ADD SWAP1 POP DUP2 DUP2 SUB PUSH1 0x0 DUP4 ADD MSTORE PUSH2 0x3FD4 DUP2 PUSH2 0x3F98 JUMP JUMPDEST SWAP1 POP SWAP2 SWAP1 POP JUMP JUMPDEST PUSH32 0x4F6E6C79206F776E657220697320616C6C6F77656420746F20706572666F726D PUSH1 0x0 DUP3 ADD MSTORE PUSH32 0x207468697320616374696F6E0000000000000000000000000000000000000000 PUSH1 0x20 DUP3 ADD MSTORE POP JUMP JUMPDEST PUSH1 0x0 PUSH2 0x4037 PUSH1 0x2C DUP4 PUSH2 0x3379 JUMP JUMPDEST SWAP2 POP PUSH2 0x4042 DUP3 PUSH2 0x3FDB JUMP JUMPDEST PUSH1 0x40 DUP3 ADD SWAP1 POP SWAP2 SWAP1 POP JUMP JUMPDEST PUSH1 0x0 PUSH1 0x20 DUP3 ADD SWAP1 POP DUP2 DUP2 SUB PUSH1 0x0 DUP4 ADD MSTORE PUSH2 0x4066 DUP2 PUSH2 0x402A JUMP JUMPDEST SWAP1 POP SWAP2 SWAP1 POP JUMP JUMPDEST PUSH1 0x0 DUP2 PUSH1 0x1 SHR SWAP1 POP SWAP2 SWAP1 POP JUMP JUMPDEST PUSH1 0x0 DUP1 DUP3 SWAP2 POP DUP4 SWAP1 POP JUMPDEST PUSH1 0x1 DUP6 GT ISZERO PUSH2 0x40C4 JUMPI DUP1 DUP7 DIV DUP2 GT ISZERO PUSH2 0x40A0 JUMPI PUSH2 0x409F PUSH2 0x3B9C JUMP JUMPDEST JUMPDEST PUSH1 0x1 DUP6 AND ISZERO PUSH2 0x40AF JUMPI DUP1 DUP3 MUL SWAP2 POP JUMPDEST DUP1 DUP2 MUL SWAP1 POP PUSH2 0x40BD DUP6 PUSH2 0x406D JUMP JUMPDEST SWAP5 POP PUSH2 0x4084 JUMP JUMPDEST SWAP5 POP SWAP5 SWAP3 POP POP POP JUMP JUMPDEST PUSH1 0x0 DUP3 PUSH2 0x40DD JUMPI PUSH1 0x1 SWAP1 POP PUSH2 0x4199 JUMP JUMPDEST DUP2 PUSH2 0x40EB JUMPI PUSH1 0x0 SWAP1 POP PUSH2 0x4199 JUMP JUMPDEST DUP2 PUSH1 0x1 DUP2 EQ PUSH2 0x4101 JUMPI PUSH1 0x2 DUP2 EQ PUSH2 0x410B JUMPI PUSH2 0x413A JUMP JUMPDEST PUSH1 0x1 SWAP2 POP POP PUSH2 0x4199 JUMP JUMPDEST PUSH1 0xFF DUP5 GT ISZERO PUSH2 0x411D JUMPI PUSH2 0x411C PUSH2 0x3B9C JUMP JUMPDEST JUMPDEST DUP4 PUSH1 0x2 EXP SWAP2 POP DUP5 DUP3 GT ISZERO PUSH2 0x4134 JUMPI PUSH2 0x4133 PUSH2 0x3B9C JUMP JUMPDEST JUMPDEST POP PUSH2 0x4199 JUMP JUMPDEST POP PUSH1 0x20 DUP4 LT PUSH2 0x133 DUP4 LT AND PUSH1 0x4E DUP5 LT PUSH1 0xB DUP5 LT AND OR ISZERO PUSH2 0x416F JUMPI DUP3 DUP3 EXP SWAP1 POP DUP4 DUP2 GT ISZERO PUSH2 0x416A JUMPI PUSH2 0x4169 PUSH2 0x3B9C JUMP JUMPDEST JUMPDEST PUSH2 0x4199 JUMP JUMPDEST PUSH2 0x417C DUP5 DUP5 DUP5 PUSH1 0x1 PUSH2 0x407A JUMP JUMPDEST SWAP3 POP SWAP1 POP DUP2 DUP5 DIV DUP2 GT ISZERO PUSH2 0x4193 JUMPI PUSH2 0x4192 PUSH2 0x3B9C JUMP JUMPDEST JUMPDEST DUP2 DUP2 MUL SWAP1 POP JUMPDEST SWAP4 SWAP3 POP POP POP JUMP JUMPDEST PUSH1 0x0 PUSH2 0x41AB DUP3 PUSH2 0x31DB JUMP JUMPDEST SWAP2 POP PUSH2 0x41B6 DUP4 PUSH2 0x31DB JUMP JUMPDEST SWAP3 POP PUSH2 0x41E3 PUSH32 0xFFFFFFFFFFFFFFFFFFFFFFFFFFFFFFFFFFFFFFFFFFFFFFFFFFFFFFFFFFFFFFFF DUP5 DUP5 PUSH2 0x40CD JUMP JUMPDEST SWAP1 POP SWAP3 SWAP2 POP POP JUMP JUMPDEST PUSH32 0x4552433732313A20696E76616C696420746F6B656E2049440000000000000000 PUSH1 0x0 DUP3 ADD MSTORE POP JUMP JUMPDEST PUSH1 0x0 PUSH2 0x4221 PUSH1 0x18 DUP4 PUSH2 0x3379 JUMP JUMPDEST SWAP2 POP PUSH2 0x422C DUP3 PUSH2 0x41EB JUMP JUMPDEST PUSH1 0x20 DUP3 ADD SWAP1 POP SWAP2 SWAP1 POP JUMP JUMPDEST PUSH1 0x0 PUSH1 0x20 DUP3 ADD SWAP1 POP DUP2 DUP2 SUB PUSH1 0x0 DUP4 ADD MSTORE PUSH2 0x4250 DUP2 PUSH2 0x4214 JUMP JUMPDEST SWAP1 POP SWAP2 SWAP1 POP JUMP JUMPDEST PUSH32 0x4552433732313A2061646472657373207A65726F206973206E6F742061207661 PUSH1 0x0 DUP3 ADD MSTORE PUSH32 0x6C6964206F776E65720000000000000000000000000000000000000000000000 PUSH1 0x20 DUP3 ADD MSTORE POP JUMP JUMPDEST PUSH1 0x0 PUSH2 0x42B3 PUSH1 0x29 DUP4 PUSH2 0x3379 JUMP JUMPDEST SWAP2 POP PUSH2 0x42BE DUP3 PUSH2 0x4257 JUMP JUMPDEST PUSH1 0x40 DUP3 ADD SWAP1 POP SWAP2 SWAP1 POP JUMP JUMPDEST PUSH1 0x0 PUSH1 0x20 DUP3 ADD SWAP1 POP DUP2 DUP2 SUB PUSH1 0x0 DUP4 ADD MSTORE PUSH2 0x42E2 DUP2 PUSH2 0x42A6 JUMP JUMPDEST SWAP1 POP SWAP2 SWAP1 POP JUMP JUMPDEST PUSH1 0x0 DUP2 SWAP1 POP DUP2 PUSH1 0x0 MSTORE PUSH1 0x20 PUSH1 0x0 KECCAK256 SWAP1 POP SWAP2 SWAP1 POP JUMP JUMPDEST PUSH1 0x0 PUSH1 0x20 PUSH1 0x1F DUP4 ADD DIV SWAP1 POP SWAP2 SWAP1 POP JUMP JUMPDEST PUSH1 0x0 DUP3 DUP3 SHL SWAP1 POP SWAP3 SWAP2 POP POP JUMP JUMPDEST PUSH1 0x0 PUSH1 0x8 DUP4 MUL PUSH2 0x434B PUSH32 0xFFFFFFFFFFFFFFFFFFFFFFFFFFFFFFFFFFFFFFFFFFFFFFFFFFFFFFFFFFFFFFFF DUP3 PUSH2 0x430E JUMP JUMPDEST PUSH2 0x4355 DUP7 DUP4 PUSH2 0x430E JUMP JUMPDEST SWAP6 POP DUP1 NOT DUP5 AND SWAP4 POP DUP1 DUP7 AND DUP5 OR SWAP3 POP POP POP SWAP4 SWAP3 POP POP POP JUMP JUMPDEST PUSH1 0x0 DUP2 SWAP1 POP SWAP2 SWAP1 POP JUMP JUMPDEST PUSH1 0x0 PUSH2 0x4392 PUSH2 0x438D PUSH2 0x4388 DUP5 PUSH2 0x31DB JUMP JUMPDEST PUSH2 0x436D JUMP JUMPDEST PUSH2 0x31DB JUMP JUMPDEST SWAP1 POP SWAP2 SWAP1 POP JUMP JUMPDEST PUSH1 0x0 DUP2 SWAP1 POP SWAP2 SWAP1 POP JUMP JUMPDEST PUSH2 0x43AC DUP4 PUSH2 0x4377 JUMP JUMPDEST PUSH2 0x43C0 PUSH2 0x43B8 DUP3 PUSH2 0x4399 JUMP JUMPDEST DUP5 DUP5 SLOAD PUSH2 0x431B JUMP JUMPDEST DUP3 SSTORE POP POP POP POP JUMP JUMPDEST PUSH1 0x0 SWAP1 JUMP JUMPDEST PUSH2 0x43D5 PUSH2 0x43C8 JUMP JUMPDEST PUSH2 0x43E0 DUP2 DUP5 DUP5 PUSH2 0x43A3 JUMP JUMPDEST POP POP POP JUMP JUMPDEST JUMPDEST DUP2 DUP2 LT ISZERO PUSH2 0x4404 JUMPI PUSH2 0x43F9 PUSH1 0x0 DUP3 PUSH2 0x43CD JUMP JUMPDEST PUSH1 0x1 DUP2 ADD SWAP1 POP PUSH2 0x43E6 JUMP JUMPDEST POP POP JUMP JUMPDEST PUSH1 0x1F DUP3 GT ISZERO PUSH2 0x4449 JUMPI PUSH2 0x441A DUP2 PUSH2 0x42E9 JUMP JUMPDEST PUSH2 0x4423 DUP5 PUSH2 0x42FE JUMP JUMPDEST DUP2 ADD PUSH1 0x20 DUP6 LT ISZERO PUSH2 0x4432 JUMPI DUP2 SWAP1 POP JUMPDEST PUSH2 0x4446 PUSH2 0x443E DUP6 PUSH2 0x42FE JUMP JUMPDEST DUP4 ADD DUP3 PUSH2 0x43E5 JUMP JUMPDEST POP POP JUMPDEST POP POP POP JUMP JUMPDEST PUSH1 0x0 DUP3 DUP3 SHR SWAP1 POP SWAP3 SWAP2 POP POP JUMP JUMPDEST PUSH1 0x0 PUSH2 0x446C PUSH1 0x0 NOT DUP5 PUSH1 0x8 MUL PUSH2 0x444E JUMP JUMPDEST NOT DUP1 DUP4 AND SWAP2 POP POP SWAP3 SWAP2 POP POP JUMP JUMPDEST PUSH1 0x0 PUSH2 0x4485 DUP4 DUP4 PUSH2 0x445B JUMP JUMPDEST SWAP2 POP DUP3 PUSH1 0x2 MUL DUP3 OR SWAP1 POP SWAP3 SWAP2 POP POP JUMP JUMPDEST PUSH2 0x449E DUP3 PUSH2 0x336E JUMP JUMPDEST PUSH8 0xFFFFFFFFFFFFFFFF DUP2 GT ISZERO PUSH2 0x44B7 JUMPI PUSH2 0x44B6 PUSH2 0x3711 JUMP JUMPDEST JUMPDEST PUSH2 0x44C1 DUP3 SLOAD PUSH2 0x3B6B JUMP JUMPDEST PUSH2 0x44CC DUP3 DUP3 DUP6 PUSH2 0x4408 JUMP JUMPDEST PUSH1 0x0 PUSH1 0x20 SWAP1 POP PUSH1 0x1F DUP4 GT PUSH1 0x1 DUP2 EQ PUSH2 0x44FF JUMPI PUSH1 0x0 DUP5 ISZERO PUSH2 0x44ED JUMPI DUP3 DUP8 ADD MLOAD SWAP1 POP JUMPDEST PUSH2 0x44F7 DUP6 DUP3 PUSH2 0x4479 JUMP JUMPDEST DUP7 SSTORE POP PUSH2 0x455F JUMP JUMPDEST PUSH1 0x1F NOT DUP5 AND PUSH2 0x450D DUP7 PUSH2 0x42E9 JUMP JUMPDEST PUSH1 0x0 JUMPDEST DUP3 DUP2 LT ISZERO PUSH2 0x4535 JUMPI DUP5 DUP10 ADD MLOAD DUP3 SSTORE PUSH1 0x1 DUP3 ADD SWAP2 POP PUSH1 0x20 DUP6 ADD SWAP5 POP PUSH1 0x20 DUP2 ADD SWAP1 POP PUSH2 0x4510 JUMP JUMPDEST DUP7 DUP4 LT ISZERO PUSH2 0x4552 JUMPI DUP5 DUP10 ADD MLOAD PUSH2 0x454E PUSH1 0x1F DUP10 AND DUP3 PUSH2 0x445B JUMP JUMPDEST DUP4 SSTORE POP JUMPDEST PUSH1 0x1 PUSH1 0x2 DUP9 MUL ADD DUP9 SSTORE POP POP POP JUMPDEST POP POP POP POP POP POP JUMP JUMPDEST PUSH32 0x496E697469616C697A61626C653A20636F6E747261637420697320616C726561 PUSH1 0x0 DUP3 ADD MSTORE PUSH32 0x647920696E697469616C697A6564000000000000000000000000000000000000 PUSH1 0x20 DUP3 ADD MSTORE POP JUMP JUMPDEST PUSH1 0x0 PUSH2 0x45C3 PUSH1 0x2E DUP4 PUSH2 0x3379 JUMP JUMPDEST SWAP2 POP PUSH2 0x45CE DUP3 PUSH2 0x4567 JUMP JUMPDEST PUSH1 0x40 DUP3 ADD SWAP1 POP SWAP2 SWAP1 POP JUMP JUMPDEST PUSH1 0x0 PUSH1 0x20 DUP3 ADD SWAP1 POP DUP2 DUP2 SUB PUSH1 0x0 DUP4 ADD MSTORE PUSH2 0x45F2 DUP2 PUSH2 0x45B6 JUMP JUMPDEST SWAP1 POP SWAP2 SWAP1 POP JUMP JUMPDEST PUSH1 0x0 PUSH2 0x4604 DUP3 PUSH2 0x31DB JUMP JUMPDEST SWAP2 POP PUSH2 0x460F DUP4 PUSH2 0x31DB JUMP JUMPDEST SWAP3 POP DUP3 DUP3 SUB SWAP1 POP DUP2 DUP2 GT ISZERO PUSH2 0x4627 JUMPI PUSH2 0x4626 PUSH2 0x3B9C JUMP JUMPDEST JUMPDEST SWAP3 SWAP2 POP POP JUMP JUMPDEST PUSH1 0x0 DUP2 SWAP1 POP SWAP2 SWAP1 POP JUMP JUMPDEST PUSH1 0x0 PUSH2 0x4652 PUSH2 0x464D PUSH2 0x4648 DUP5 PUSH2 0x462D JUMP JUMPDEST PUSH2 0x436D JUMP JUMPDEST PUSH2 0x3337 JUMP JUMPDEST SWAP1 POP SWAP2 SWAP1 POP JUMP JUMPDEST PUSH2 0x4662 DUP2 PUSH2 0x4637 JUMP JUMPDEST DUP3 MSTORE POP POP JUMP JUMPDEST PUSH1 0x0 PUSH1 0x20 DUP3 ADD SWAP1 POP PUSH2 0x467D PUSH1 0x0 DUP4 ADD DUP5 PUSH2 0x4659 JUMP JUMPDEST SWAP3 SWAP2 POP POP JUMP JUMPDEST PUSH1 0x0 PUSH2 0x468E DUP3 PUSH2 0x31DB JUMP JUMPDEST SWAP2 POP PUSH2 0x4699 DUP4 PUSH2 0x3337 JUMP JUMPDEST SWAP3 POP PUSH2 0x46C6 PUSH32 0xFFFFFFFFFFFFFFFFFFFFFFFFFFFFFFFFFFFFFFFFFFFFFFFFFFFFFFFFFFFFFFFF DUP5 DUP5 PUSH2 0x40CD JUMP JUMPDEST SWAP1 POP SWAP3 SWAP2 POP POP JUMP JUMPDEST PUSH1 0x0 DUP2 SWAP1 POP SWAP3 SWAP2 POP POP JUMP JUMPDEST PUSH1 0x0 DUP2 SLOAD PUSH2 0x46E6 DUP2 PUSH2 0x3B6B JUMP JUMPDEST PUSH2 0x46F0 DUP2 DUP7 PUSH2 0x46CE JUMP JUMPDEST SWAP5 POP PUSH1 0x1 DUP3 AND PUSH1 0x0 DUP2 EQ PUSH2 0x470B JUMPI PUSH1 0x1 DUP2 EQ PUSH2 0x4720 JUMPI PUSH2 0x4753 JUMP JUMPDEST PUSH1 0xFF NOT DUP4 AND DUP7 MSTORE DUP2 ISZERO ISZERO DUP3 MUL DUP7 ADD SWAP4 POP PUSH2 0x4753 JUMP JUMPDEST PUSH2 0x4729 DUP6 PUSH2 0x42E9 JUMP JUMPDEST PUSH1 0x0 JUMPDEST DUP4 DUP2 LT ISZERO PUSH2 0x474B JUMPI DUP2 SLOAD DUP2 DUP10 ADD MSTORE PUSH1 0x1 DUP3 ADD SWAP2 POP PUSH1 0x20 DUP2 ADD SWAP1 POP PUSH2 0x472C JUMP JUMPDEST DUP4 DUP9 ADD SWAP6 POP POP POP JUMPDEST POP POP POP SWAP3 SWAP2 POP POP JUMP JUMPDEST PUSH1 0x0 PUSH2 0x4767 DUP3 PUSH2 0x336E JUMP JUMPDEST PUSH2 0x4771 DUP2 DUP6 PUSH2 0x46CE JUMP JUMPDEST SWAP4 POP PUSH2 0x4781 DUP2 DUP6 PUSH1 0x20 DUP7 ADD PUSH2 0x338A JUMP JUMPDEST DUP1 DUP5 ADD SWAP2 POP POP SWAP3 SWAP2 POP POP JUMP JUMPDEST PUSH32 0x2E6A736F6E000000000000000000000000000000000000000000000000000000 PUSH1 0x0 DUP3 ADD MSTORE POP JUMP JUMPDEST PUSH1 0x0 PUSH2 0x47C3 PUSH1 0x5 DUP4 PUSH2 0x46CE JUMP JUMPDEST SWAP2 POP PUSH2 0x47CE DUP3 PUSH2 0x478D JUMP JUMPDEST PUSH1 0x5 DUP3 ADD SWAP1 POP SWAP2 SWAP1 POP JUMP JUMPDEST PUSH1 0x0 PUSH2 0x47E5 DUP3 DUP6 PUSH2 0x46D9 JUMP JUMPDEST SWAP2 POP PUSH2 0x47F1 DUP3 DUP5 PUSH2 0x475C JUMP JUMPDEST SWAP2 POP PUSH2 0x47FC DUP3 PUSH2 0x47B6 JUMP JUMPDEST SWAP2 POP DUP2 SWAP1 POP SWAP4 SWAP3 POP POP POP JUMP JUMPDEST PUSH1 0x0 DUP2 SWAP1 POP SWAP2 SWAP1 POP JUMP JUMPDEST PUSH2 0x4823 PUSH2 0x481E DUP3 PUSH2 0x3541 JUMP JUMPDEST PUSH2 0x4808 JUMP JUMPDEST DUP3 MSTORE POP POP JUMP JUMPDEST PUSH1 0x0 DUP2 PUSH1 0x60 SHL SWAP1 POP SWAP2 SWAP1 POP JUMP JUMPDEST PUSH1 0x0 PUSH2 0x4841 DUP3 PUSH2 0x4829 JUMP JUMPDEST SWAP1 POP SWAP2 SWAP1 POP JUMP JUMPDEST PUSH1 0x0 PUSH2 0x4853 DUP3 PUSH2 0x4836 JUMP JUMPDEST SWAP1 POP SWAP2 SWAP1 POP JUMP JUMPDEST PUSH2 0x486B PUSH2 0x4866 DUP3 PUSH2 0x3499 JUMP JUMPDEST PUSH2 0x4848 JUMP JUMPDEST DUP3 MSTORE POP POP JUMP JUMPDEST PUSH1 0x0 DUP2 SWAP1 POP SWAP2 SWAP1 POP JUMP JUMPDEST PUSH2 0x488C PUSH2 0x4887 DUP3 PUSH2 0x31DB JUMP JUMPDEST PUSH2 0x4871 JUMP JUMPDEST DUP3 MSTORE POP POP JUMP JUMPDEST PUSH1 0x0 PUSH2 0x489E DUP3 DUP7 PUSH2 0x4812 JUMP JUMPDEST PUSH1 0x20 DUP3 ADD SWAP2 POP PUSH2 0x48AE DUP3 DUP6 PUSH2 0x485A JUMP JUMPDEST PUSH1 0x14 DUP3 ADD SWAP2 POP PUSH2 0x48BE DUP3 DUP5 PUSH2 0x487B JUMP JUMPDEST PUSH1 0x20 DUP3 ADD SWAP2 POP DUP2 SWAP1 POP SWAP5 SWAP4 POP POP POP POP JUMP JUMPDEST PUSH32 0x44696765737420697320646966666572656E7400000000000000000000000000 PUSH1 0x0 DUP3 ADD MSTORE POP JUMP JUMPDEST PUSH1 0x0 PUSH2 0x4905 PUSH1 0x13 DUP4 PUSH2 0x3379 JUMP JUMPDEST SWAP2 POP PUSH2 0x4910 DUP3 PUSH2 0x48CF JUMP JUMPDEST PUSH1 0x20 DUP3 ADD SWAP1 POP SWAP2 SWAP1 POP JUMP JUMPDEST PUSH1 0x0 PUSH1 0x20 DUP3 ADD SWAP1 POP DUP2 DUP2 SUB PUSH1 0x0 DUP4 ADD MSTORE PUSH2 0x4934 DUP2 PUSH2 0x48F8 JUMP JUMPDEST SWAP1 POP SWAP2 SWAP1 POP JUMP JUMPDEST PUSH32 0x4552433732313A207472616E736665722066726F6D20696E636F727265637420 PUSH1 0x0 DUP3 ADD MSTORE PUSH32 0x6F776E6572000000000000000000000000000000000000000000000000000000 PUSH1 0x20 DUP3 ADD MSTORE POP JUMP JUMPDEST PUSH1 0x0 PUSH2 0x4997 PUSH1 0x25 DUP4 PUSH2 0x3379 JUMP JUMPDEST SWAP2 POP PUSH2 0x49A2 DUP3 PUSH2 0x493B JUMP JUMPDEST PUSH1 0x40 DUP3 ADD SWAP1 POP SWAP2 SWAP1 POP JUMP JUMPDEST PUSH1 0x0 PUSH1 0x20 DUP3 ADD SWAP1 POP DUP2 DUP2 SUB PUSH1 0x0 DUP4 ADD MSTORE PUSH2 0x49C6 DUP2 PUSH2 0x498A JUMP JUMPDEST SWAP1 POP SWAP2 SWAP1 POP JUMP JUMPDEST PUSH32 0x4552433732313A207472616E7366657220746F20746865207A65726F20616464 PUSH1 0x0 DUP3 ADD MSTORE PUSH32 0x7265737300000000000000000000000000000000000000000000000000000000 PUSH1 0x20 DUP3 ADD MSTORE POP JUMP JUMPDEST PUSH1 0x0 PUSH2 0x4A29 PUSH1 0x24 DUP4 PUSH2 0x3379 JUMP JUMPDEST SWAP2 POP PUSH2 0x4A34 DUP3 PUSH2 0x49CD JUMP JUMPDEST PUSH1 0x40 DUP3 ADD SWAP1 POP SWAP2 SWAP1 POP JUMP JUMPDEST PUSH1 0x0 PUSH1 0x20 DUP3 ADD SWAP1 POP DUP2 DUP2 SUB PUSH1 0x0 DUP4 ADD MSTORE PUSH2 0x4A58 DUP2 PUSH2 0x4A1C JUMP JUMPDEST SWAP1 POP SWAP2 SWAP1 POP JUMP JUMPDEST PUSH32 0x4552433732313A20617070726F766520746F2063616C6C657200000000000000 PUSH1 0x0 DUP3 ADD MSTORE POP JUMP JUMPDEST PUSH1 0x0 PUSH2 0x4A95 PUSH1 0x19 DUP4 PUSH2 0x3379 JUMP JUMPDEST SWAP2 POP PUSH2 0x4AA0 DUP3 PUSH2 0x4A5F JUMP JUMPDEST PUSH1 0x20 DUP3 ADD SWAP1 POP SWAP2 SWAP1 POP JUMP JUMPDEST PUSH1 0x0 PUSH1 0x20 DUP3 ADD SWAP1 POP DUP2 DUP2 SUB PUSH1 0x0 DUP4 ADD MSTORE PUSH2 0x4AC4 DUP2 PUSH2 0x4A88 JUMP JUMPDEST SWAP1 POP SWAP2 SWAP1 POP JUMP JUMPDEST PUSH32 0x496E697469616C697A61626C653A20636F6E7472616374206973206E6F742069 PUSH1 0x0 DUP3 ADD MSTORE PUSH32 0x6E697469616C697A696E67000000000000000000000000000000000000000000 PUSH1 0x20 DUP3 ADD MSTORE POP JUMP JUMPDEST PUSH1 0x0 PUSH2 0x4B27 PUSH1 0x2B DUP4 PUSH2 0x3379 JUMP JUMPDEST SWAP2 POP PUSH2 0x4B32 DUP3 PUSH2 0x4ACB JUMP JUMPDEST PUSH1 0x40 DUP3 ADD SWAP1 POP SWAP2 SWAP1 POP JUMP JUMPDEST PUSH1 0x0 PUSH1 0x20 DUP3 ADD SWAP1 POP DUP2 DUP2 SUB PUSH1 0x0 DUP4 ADD MSTORE PUSH2 0x4B56 DUP2 PUSH2 0x4B1A JUMP JUMPDEST SWAP1 POP SWAP2 SWAP1 POP JUMP JUMPDEST PUSH32 0x4552433732313A207472616E7366657220746F206E6F6E204552433732315265 PUSH1 0x0 DUP3 ADD MSTORE PUSH32 0x63656976657220696D706C656D656E7465720000000000000000000000000000 PUSH1 0x20 DUP3 ADD MSTORE POP JUMP JUMPDEST PUSH1 0x0 PUSH2 0x4BB9 PUSH1 0x32 DUP4 PUSH2 0x3379 JUMP JUMPDEST SWAP2 POP PUSH2 0x4BC4 DUP3 PUSH2 0x4B5D JUMP JUMPDEST PUSH1 0x40 DUP3 ADD SWAP1 POP SWAP2 SWAP1 POP JUMP JUMPDEST PUSH1 0x0 PUSH1 0x20 DUP3 ADD SWAP1 POP DUP2 DUP2 SUB PUSH1 0x0 DUP4 ADD MSTORE PUSH2 0x4BE8 DUP2 PUSH2 0x4BAC JUMP JUMPDEST SWAP1 POP SWAP2 SWAP1 POP JUMP JUMPDEST PUSH1 0x0 DUP2 MLOAD SWAP1 POP SWAP2 SWAP1 POP JUMP JUMPDEST PUSH1 0x0 DUP3 DUP3 MSTORE PUSH1 0x20 DUP3 ADD SWAP1 POP SWAP3 SWAP2 POP POP JUMP JUMPDEST PUSH1 0x0 PUSH2 0x4C16 DUP3 PUSH2 0x4BEF JUMP JUMPDEST PUSH2 0x4C20 DUP2 DUP6 PUSH2 0x4BFA JUMP JUMPDEST SWAP4 POP PUSH2 0x4C30 DUP2 DUP6 PUSH1 0x20 DUP7 ADD PUSH2 0x338A JUMP JUMPDEST PUSH2 0x4C39 DUP2 PUSH2 0x33B4 JUMP JUMPDEST DUP5 ADD SWAP2 POP POP SWAP3 SWAP2 POP POP JUMP JUMPDEST PUSH1 0x0 PUSH1 0x80 DUP3 ADD SWAP1 POP PUSH2 0x4C59 PUSH1 0x0 DUP4 ADD DUP8 PUSH2 0x34AB JUMP JUMPDEST PUSH2 0x4C66 PUSH1 0x20 DUP4 ADD DUP7 PUSH2 0x34AB JUMP JUMPDEST PUSH2 0x4C73 PUSH1 0x40 DUP4 ADD DUP6 PUSH2 0x31E5 JUMP JUMPDEST DUP2 DUP2 SUB PUSH1 0x60 DUP4 ADD MSTORE PUSH2 0x4C85 DUP2 DUP5 PUSH2 0x4C0B JUMP JUMPDEST SWAP1 POP SWAP6 SWAP5 POP POP POP POP POP JUMP JUMPDEST PUSH1 0x0 DUP2 MLOAD SWAP1 POP PUSH2 0x4C9F DUP2 PUSH2 0x324F JUMP JUMPDEST SWAP3 SWAP2 POP POP JUMP JUMPDEST PUSH1 0x0 PUSH1 0x20 DUP3 DUP5 SUB SLT ISZERO PUSH2 0x4CBB JUMPI PUSH2 0x4CBA PUSH2 0x3219 JUMP JUMPDEST JUMPDEST PUSH1 0x0 PUSH2 0x4CC9 DUP5 DUP3 DUP6 ADD PUSH2 0x4C90 JUMP JUMPDEST SWAP2 POP POP SWAP3 SWAP2 POP POP JUMP JUMPDEST PUSH32 0x4552433732313A206D696E7420746F20746865207A65726F2061646472657373 PUSH1 0x0 DUP3 ADD MSTORE POP JUMP JUMPDEST PUSH1 0x0 PUSH2 0x4D08 PUSH1 0x20 DUP4 PUSH2 0x3379 JUMP JUMPDEST SWAP2 POP PUSH2 0x4D13 DUP3 PUSH2 0x4CD2 JUMP JUMPDEST PUSH1 0x20 DUP3 ADD SWAP1 POP SWAP2 SWAP1 POP JUMP JUMPDEST PUSH1 0x0 PUSH1 0x20 DUP3 ADD SWAP1 POP DUP2 DUP2 SUB PUSH1 0x0 DUP4 ADD MSTORE PUSH2 0x4D37 DUP2 PUSH2 0x4CFB JUMP JUMPDEST SWAP1 POP SWAP2 SWAP1 POP JUMP JUMPDEST PUSH32 0x4552433732313A20746F6B656E20616C7265616479206D696E74656400000000 PUSH1 0x0 DUP3 ADD MSTORE POP JUMP JUMPDEST PUSH1 0x0 PUSH2 0x4D74 PUSH1 0x1C DUP4 PUSH2 0x3379 JUMP JUMPDEST SWAP2 POP PUSH2 0x4D7F DUP3 PUSH2 0x4D3E JUMP JUMPDEST PUSH1 0x20 DUP3 ADD SWAP1 POP SWAP2 SWAP1 POP JUMP JUMPDEST PUSH1 0x0 PUSH1 0x20 DUP3 ADD SWAP1 POP DUP2 DUP2 SUB PUSH1 0x0 DUP4 ADD MSTORE PUSH2 0x4DA3 DUP2 PUSH2 0x4D67 JUMP JUMPDEST SWAP1 POP SWAP2 SWAP1 POP JUMP INVALID LOG2 PUSH5 0x6970667358 0x22 SLT KECCAK256 0xD6 0x2B 0xE 0xD9 0xBF SDIV 0x2B 0xEC PUSH31 0x8D6A56DAF63AF037EC2429B8EEEEA9136FF04308B9F1C764736F6C63430008 SLT STOP CALLER "},"methodIdentifiers":{"BASE_REWARD()":"22009af6","BLOCKS_PER_READJUSTMENT()":"b7304272","MAXIMUM_TARGET_DIFFICULTY()":"7c7f3206","MAX_ADJUSTMENT_PERCENT()":"1beddf1c","MINIMUM_TARGET_DIFFICULTY()":"6a586594","MINING_RATE_FACTOR()":"3426e5f5","QUOTIENT_LIMIT()":"ad1dfe3b","TARGET_DIVISOR()":"095b6d4c","approve(address,uint256)":"095ea7b3","balanceOf(address)":"70a08231","baseUri()":"9abc8320","challengeNumber()":"8ae0368b","checkHash(uint256,bytes32)":"7c2d542c","currentTokenId()":"009a9b7b","decimals()":"313ce567","difficulty()":"19cae462","digestForTokenId(uint256)":"e09feae3","epochCount()":"829965cc","getApproved(uint256)":"081812fc","getChallengeNumber()":"4ef37628","getMiningDifficulty()":"17da485f","getMiningReward()":"490203a7","getMiningTarget()":"32e99708","getPlanetMinted()":"a465eeaf","getPlanetZone(uint256,uint256)":"acf86c87","getTotalStatsPerTokenId(uint256)":"6a2e19a2","initialize(string,string,string)":"a6487c53","isApprovedForAll(address,address)":"e985e9c5","latestDifficultyPeriodStarted()":"cb9ae707","maxSupplyForEra()":"4fa972e1","maximumRigLevel()":"3d85d614","miningRigForAddress(address)":"b57d7283","miningRigPercentage(uint256)":"03ca2f53","miningRigUpgradePrice()":"47e9c095","mint(uint256,bytes32)":"1801fbe5","name()":"06fdde03","owner()":"8da5cb5b","ownerOf(uint256)":"6352211e","rewardEra()":"2d38bf7a","rtsBonusForTokenId(uint256)":"56b757be","safeTransferFrom(address,address,uint256)":"42842e0e","safeTransferFrom(address,address,uint256,bytes)":"b88d4fde","setApprovalForAll(address,bool)":"a22cb465","setBaseUri(string)":"a0bcfc7f","setMiningRigUpgradePrice(uint256)":"4e802139","startingAverageReward()":"82c890fd","statistics()":"95e272bd","supportsInterface(bytes4)":"01ffc9a7","symbol()":"95d89b41","tokenURI(uint256)":"c87b56dd","tokensMinted()":"6de9f32b","totalERSupply()":"ac693778","totalRtsPerEra()":"ee2e5612","transferFrom(address,address,uint256)":"23b872dd","upgradeMiningRig(uint8)":"07a11aeb","withdraw()":"3ccfd60b"}},"storageLayout":{"storage":[{"astId":4411,"contract":"src/Planets.sol:Planets","label":"challengeNumber","offset":0,"slot":"0","type":"t_bytes32"},{"astId":4413,"contract":"src/Planets.sol:Planets","label":"difficulty","offset":0,"slot":"1","type":"t_uint256"},{"astId":4415,"contract":"src/Planets.sol:Planets","label":"tokensMinted","offset":0,"slot":"2","type":"t_uint256"},{"astId":4427,"contract":"src/Planets.sol:Planets","label":"statistics","offset":0,"slot":"3","type":"t_struct(Statistics)4424_storage"},{"astId":6,"contract":"src/Planets.sol:Planets","label":"_initialized","offset":0,"slot":"7","type":"t_uint8"},{"astId":9,"contract":"src/Planets.sol:Planets","label":"_initializing","offset":1,"slot":"7","type":"t_bool"},{"astId":1652,"contract":"src/Planets.sol:Planets","label":"__gap","offset":0,"slot":"8","type":"t_array(t_uint256)50_storage"},{"astId":1925,"contract":"src/Planets.sol:Planets","label":"__gap","offset":0,"slot":"58","type":"t_array(t_uint256)50_storage"},{"astId":197,"contract":"src/Planets.sol:Planets","label":"_name","offset":0,"slot":"108","type":"t_string_storage"},{"astId":199,"contract":"src/Planets.sol:Planets","label":"_symbol","offset":0,"slot":"109","type":"t_string_storage"},{"astId":203,"contract":"src/Planets.sol:Planets","label":"_owners","offset":0,"slot":"110","type":"t_mapping(t_uint256,t_address)"},{"astId":207,"contract":"src/Planets.sol:Planets","label":"_balances","offset":0,"slot":"111","type":"t_mapping(t_address,t_uint256)"},{"astId":211,"contract":"src/Planets.sol:Planets","label":"_tokenApprovals","offset":0,"slot":"112","type":"t_mapping(t_uint256,t_address)"},{"astId":217,"contract":"src/Planets.sol:Planets","label":"_operatorApprovals","offset":0,"slot":"113","type":"t_mapping(t_address,t_mapping(t_address,t_bool))"},{"astId":1119,"contract":"src/Planets.sol:Planets","label":"__gap","offset":0,"slot":"114","type":"t_array(t_uint256)44_storage"},{"astId":4567,"contract":"src/Planets.sol:Planets","label":"currentTokenId","offset":0,"slot":"158","type":"t_uint256"},{"astId":4569,"contract":"src/Planets.sol:Planets","label":"baseUri","offset":0,"slot":"159","type":"t_string_storage"},{"astId":4571,"contract":"src/Planets.sol:Planets","label":"totalERSupply","offset":0,"slot":"160","type":"t_uint256"},{"astId":4575,"contract":"src/Planets.sol:Planets","label":"digestForTokenId","offset":0,"slot":"161","type":"t_mapping(t_uint256,t_bytes32)"},{"astId":4577,"contract":"src/Planets.sol:Planets","label":"epochCount","offset":0,"slot":"162","type":"t_uint256"},{"astId":4585,"contract":"src/Planets.sol:Planets","label":"latestDifficultyPeriodStarted","offset":0,"slot":"163","type":"t_uint256"},{"astId":4621,"contract":"src/Planets.sol:Planets","label":"rewardEra","offset":0,"slot":"164","type":"t_uint256"},{"astId":4633,"contract":"src/Planets.sol:Planets","label":"totalRtsPerEra","offset":0,"slot":"165","type":"t_uint256"},{"astId":4638,"contract":"src/Planets.sol:Planets","label":"miningRigUpgradePrice","offset":0,"slot":"166","type":"t_uint256"},{"astId":4640,"contract":"src/Planets.sol:Planets","label":"maximumRigLevel","offset":0,"slot":"167","type":"t_uint8"},{"astId":4643,"contract":"src/Planets.sol:Planets","label":"miningRigPercentage","offset":0,"slot":"168","type":"t_array(t_uint8)dyn_storage"},{"astId":4647,"contract":"src/Planets.sol:Planets","label":"miningRigForAddress","offset":0,"slot":"169","type":"t_mapping(t_address,t_uint8)"},{"astId":4651,"contract":"src/Planets.sol:Planets","label":"rtsBonusForTokenId","offset":0,"slot":"170","type":"t_mapping(t_uint256,t_uint256)"},{"astId":4653,"contract":"src/Planets.sol:Planets","label":"owner","offset":0,"slot":"171","type":"t_address"}],"types":{"t_address":{"encoding":"inplace","label":"address","numberOfBytes":"20"},"t_array(t_uint256)44_storage":{"base":"t_uint256","encoding":"inplace","label":"uint256[44]","numberOfBytes":"1408"},"t_array(t_uint256)50_storage":{"base":"t_uint256","encoding":"inplace","label":"uint256[50]","numberOfBytes":"1600"},"t_array(t_uint8)dyn_storage":{"base":"t_uint8","encoding":"dynamic_array","label":"uint8[]","numberOfBytes":"32"},"t_bool":{"encoding":"inplace","label":"bool","numberOfBytes":"1"},"t_bytes32":{"encoding":"inplace","label":"bytes32","numberOfBytes":"32"},"t_mapping(t_address,t_bool)":{"encoding":"mapping","key":"t_address","label":"mapping(address => bool)","numberOfBytes":"32","value":"t_bool"},"t_mapping(t_address,t_mapping(t_address,t_bool))":{"encoding":"mapping","key":"t_address","label":"mapping(address => mapping(address => bool))","numberOfBytes":"32","value":"t_mapping(t_address,t_bool)"},"t_mapping(t_address,t_uint256)":{"encoding":"mapping","key":"t_address","label":"mapping(address => uint256)","numberOfBytes":"32","value":"t_uint256"},"t_mapping(t_address,t_uint8)":{"encoding":"mapping","key":"t_address","label":"mapping(address => uint8)","numberOfBytes":"32","value":"t_uint8"},"t_mapping(t_uint256,t_address)":{"encoding":"mapping","key":"t_uint256","label":"mapping(uint256 => address)","numberOfBytes":"32","value":"t_address"},"t_mapping(t_uint256,t_bytes32)":{"encoding":"mapping","key":"t_uint256","label":"mapping(uint256 => bytes32)","numberOfBytes":"32","value":"t_bytes32"},"t_mapping(t_uint256,t_uint256)":{"encoding":"mapping","key":"t_uint256","label":"mapping(uint256 => uint256)","numberOfBytes":"32","value":"t_uint256"},"t_string_storage":{"encoding":"bytes","label":"string","numberOfBytes":"32"},"t_struct(Statistics)4424_storage":{"encoding":"inplace","label":"struct AbstractERC918.Statistics","members":[{"astId":4417,"contract":"src/Planets.sol:Planets","label":"lastRewardTo","offset":0,"slot":"0","type":"t_address"},{"astId":4419,"contract":"src/Planets.sol:Planets","label":"lastRewardAmount","offset":0,"slot":"1","type":"t_uint256"},{"astId":4421,"contract":"src/Planets.sol:Planets","label":"lastRewardEthBlockNumber","offset":0,"slot":"2","type":"t_uint256"},{"astId":4423,"contract":"src/Planets.sol:Planets","label":"lastRewardTimestamp","offset":0,"slot":"3","type":"t_uint256"}],"numberOfBytes":"128"},"t_uint256":{"encoding":"inplace","label":"uint256","numberOfBytes":"32"},"t_uint8":{"encoding":"inplace","label":"uint8","numberOfBytes":"1"}}}}}}